{"contracts/TokenConversionManager.sol":{"TokenConversionManager":{"abi":[{"inputs":[{"internalType":"address","name":"token","type":"address"},{"internalType":"bool","name":"commissionIsEnabled","type":"bool"},{"internalType":"uint8","name":"convertTokenPercentage","type":"uint8"},{"internalType":"uint8","name":"receiverCommissionProportion","type":"uint8"},{"internalType":"uint8","name":"bridgeOwnerCommissionProportion","type":"uint8"},{"internalType":"uint256","name":"commissionType","type":"uint256"},{"internalType":"uint256","name":"fixedNativeTokenCommission","type":"uint256"},{"internalType":"uint256","name":"fixedNativeTokenCommissionLimit","type":"uint256"},{"internalType":"uint256","name":"fixedTokenCommission","type":"uint256"},{"internalType":"address payable","name":"commissionReceiver","type":"address"},{"internalType":"address payable","name":"bridgeOwner","type":"address"}],"stateMutability":"nonpayable","type":"constructor"},{"inputs":[],"name":"CommissionTransferFailed","type":"error"},{"inputs":[],"name":"ConversionFailed","type":"error"},{"inputs":[],"name":"ConversionMintFailed","type":"error"},{"inputs":[],"name":"ConversionTransferFailed","type":"error"},{"inputs":[],"name":"InvalidCommissionDeduction","type":"error"},{"inputs":[{"internalType":"uint8","name":"proportion1","type":"uint8"},{"internalType":"uint8","name":"proportion2","type":"uint8"}],"name":"InvalidProportionSum","type":"error"},{"inputs":[],"name":"InvalidRequestOrSignature","type":"error"},{"inputs":[],"name":"InvalidUpdateConfigurations","type":"error"},{"inputs":[],"name":"NativeClaimFailed","type":"error"},{"inputs":[],"name":"NotEnoughBalance","type":"error"},{"inputs":[],"name":"PercentageLimitExceeded","type":"error"},{"inputs":[{"internalType":"uint256","name":"sent","type":"uint256"},{"internalType":"uint256","name":"required","type":"uint256"}],"name":"TakeNativeTokenCommissionFailed","type":"error"},{"inputs":[{"internalType":"address","name":"caller","type":"address"}],"name":"UnauthorizedCommissionReceiver","type":"error"},{"inputs":[],"name":"UsedSignature","type":"error"},{"inputs":[],"name":"ViolationOfNativeTokenLimit","type":"error"},{"inputs":[],"name":"ViolationOfTxAmountLimits","type":"error"},{"inputs":[],"name":"ZeroAddress","type":"error"},{"anonymous":false,"inputs":[{"indexed":true,"internalType":"address","name":"tokenHolder","type":"address"},{"indexed":false,"internalType":"bytes32","name":"conversionId","type":"bytes32"},{"indexed":false,"internalType":"uint256","name":"amount","type":"uint256"}],"name":"ConversionIn","type":"event"},{"anonymous":false,"inputs":[{"indexed":true,"internalType":"address","name":"tokenHolder","type":"address"},{"indexed":false,"internalType":"bytes32","name":"conversionId","type":"bytes32"},{"indexed":false,"internalType":"uint256","name":"amount","type":"uint256"}],"name":"ConversionOut","type":"event"},{"anonymous":false,"inputs":[{"indexed":true,"internalType":"uint256","name":"time","type":"uint256"}],"name":"NativeCurrencyCommissionClaim","type":"event"},{"anonymous":false,"inputs":[{"indexed":false,"internalType":"address","name":"conversionAuthorizer","type":"address"}],"name":"NewAuthorizer","type":"event"},{"anonymous":false,"inputs":[{"indexed":true,"internalType":"address","name":"previousOwner","type":"address"},{"indexed":true,"internalType":"address","name":"newOwner","type":"address"}],"name":"OwnershipTransferred","type":"event"},{"anonymous":false,"inputs":[{"indexed":false,"internalType":"bool","name":"commissionIsEnabled","type":"bool"},{"indexed":false,"internalType":"uint8","name":"convertTokenPercentage","type":"uint8"},{"indexed":false,"internalType":"uint8","name":"receiverCommissionProportion","type":"uint8"},{"indexed":false,"internalType":"uint8","name":"bridgeOwnerCommissionProportion","type":"uint8"},{"indexed":false,"internalType":"uint256","name":"commissionType","type":"uint256"},{"indexed":false,"internalType":"uint256","name":"fixedTokenCommission","type":"uint256"},{"indexed":false,"internalType":"uint256","name":"fixedNativeTokenCommission","type":"uint256"},{"indexed":false,"internalType":"address payable","name":"receiverCommission","type":"address"},{"indexed":false,"internalType":"address payable","name":"bridgeOwner","type":"address"},{"indexed":false,"internalType":"uint256","name":"updateTimestamp","type":"uint256"}],"name":"UpdateCommissionConfiguration","type":"event"},{"anonymous":false,"inputs":[{"indexed":false,"internalType":"uint256","name":"perTxnMinAmount","type":"uint256"},{"indexed":false,"internalType":"uint256","name":"perTxnMaxAmount","type":"uint256"},{"indexed":false,"internalType":"uint256","name":"maxSupply","type":"uint256"}],"name":"UpdateConfiguration","type":"event"},{"anonymous":false,"inputs":[{"indexed":true,"internalType":"address","name":"previousReceiver","type":"address"},{"indexed":true,"internalType":"address","name":"newReceiver","type":"address"}],"name":"UpdateReceiver","type":"event"},{"inputs":[],"name":"claimNativeCurrencyCommission","outputs":[],"stateMutability":"nonpayable","type":"function"},{"inputs":[],"name":"commissionSettings","outputs":[{"internalType":"uint8","name":"convertTokenPercentage","type":"uint8"},{"internalType":"uint8","name":"receiverCommissionProportion","type":"uint8"},{"internalType":"uint8","name":"bridgeOwnerCommissionProportion","type":"uint8"},{"internalType":"bool","name":"commissionIsEnabled","type":"bool"},{"internalType":"uint256","name":"fixedNativeTokenCommission","type":"uint256"},{"internalType":"uint256","name":"fixedTokenCommission","type":"uint256"},{"internalType":"enum Commission.CommissionType","name":"commissionType","type":"uint8"},{"internalType":"address payable","name":"receiverCommission","type":"address"},{"internalType":"address payable","name":"bridgeOwner","type":"address"}],"stateMutability":"view","type":"function"},{"inputs":[{"internalType":"address","name":"to","type":"address"},{"internalType":"uint256","name":"amount","type":"uint256"},{"internalType":"bytes32","name":"conversionId","type":"bytes32"},{"internalType":"uint8","name":"v","type":"uint8"},{"internalType":"bytes32","name":"r","type":"bytes32"},{"internalType":"bytes32","name":"s","type":"bytes32"}],"name":"conversionIn","outputs":[],"stateMutability":"payable","type":"function"},{"inputs":[{"internalType":"uint256","name":"amount","type":"uint256"},{"internalType":"bytes32","name":"conversionId","type":"bytes32"},{"internalType":"uint8","name":"v","type":"uint8"},{"internalType":"bytes32","name":"r","type":"bytes32"},{"internalType":"bytes32","name":"s","type":"bytes32"}],"name":"conversionOut","outputs":[],"stateMutability":"payable","type":"function"},{"inputs":[],"name":"disableCommission","outputs":[],"stateMutability":"nonpayable","type":"function"},{"inputs":[],"name":"getCommissionReceiverAddresses","outputs":[{"internalType":"address","name":"","type":"address"},{"internalType":"address","name":"","type":"address"}],"stateMutability":"view","type":"function"},{"inputs":[],"name":"getCommissionSettings","outputs":[{"internalType":"bool","name":"commissionIsEnabled","type":"bool"},{"internalType":"uint8","name":"receiverCommissionProportion","type":"uint8"},{"internalType":"uint8","name":"bridgeOwnerCommissionProportion","type":"uint8"},{"internalType":"uint8","name":"convertTokenPercentage","type":"uint8"},{"internalType":"uint256","name":"tokenTypeCommission","type":"uint256"},{"internalType":"uint256","name":"fixedTokenCommission","type":"uint256"},{"internalType":"uint256","name":"fixedNativeTokenCommission","type":"uint256"},{"internalType":"address payable","name":"receiverCommission","type":"address"},{"internalType":"address payable","name":"bridgeOwner","type":"address"},{"internalType":"address","name":"token","type":"address"}],"stateMutability":"view","type":"function"},{"inputs":[],"name":"getConversionAuthorizer","outputs":[{"internalType":"address","name":"","type":"address"}],"stateMutability":"view","type":"function"},{"inputs":[],"name":"getConversionConfigurations","outputs":[{"internalType":"uint256","name":"","type":"uint256"},{"internalType":"uint256","name":"","type":"uint256"},{"internalType":"uint256","name":"","type":"uint256"}],"stateMutability":"view","type":"function"},{"inputs":[],"name":"owner","outputs":[{"internalType":"address","name":"","type":"address"}],"stateMutability":"view","type":"function"},{"inputs":[],"name":"renounceOwnership","outputs":[],"stateMutability":"nonpayable","type":"function"},{"inputs":[{"internalType":"address","name":"newOwner","type":"address"}],"name":"transferOwnership","outputs":[],"stateMutability":"nonpayable","type":"function"},{"inputs":[{"internalType":"address","name":"newAuthorizer","type":"address"}],"name":"updateAuthorizer","outputs":[],"stateMutability":"nonpayable","type":"function"},{"inputs":[{"internalType":"address","name":"newBridgeOwner","type":"address"}],"name":"updateBridgeOwner","outputs":[],"stateMutability":"nonpayable","type":"function"},{"inputs":[{"internalType":"bool","name":"commissionIsEnabled","type":"bool"},{"internalType":"uint8","name":"receiverCommissionProportion","type":"uint8"},{"internalType":"uint8","name":"bridgeOwnerCommissionProportion","type":"uint8"},{"internalType":"uint8","name":"newConvertTokenPercentage","type":"uint8"},{"internalType":"uint256","name":"newCommissionType","type":"uint256"},{"internalType":"uint256","name":"newFixedTokenCommission","type":"uint256"},{"internalType":"uint256","name":"newFixedNativeTokenCommission","type":"uint256"},{"internalType":"address payable","name":"receiverCommission","type":"address"},{"internalType":"address payable","name":"bridgeOwner","type":"address"}],"name":"updateCommissionConfiguration","outputs":[],"stateMutability":"nonpayable","type":"function"},{"inputs":[{"internalType":"uint256","name":"perTxnMinAmount","type":"uint256"},{"internalType":"uint256","name":"perTxnMaxAmount","type":"uint256"},{"internalType":"uint256","name":"maxSupply","type":"uint256"}],"name":"updateConfigurations","outputs":[],"stateMutability":"nonpayable","type":"function"},{"inputs":[{"internalType":"address","name":"newReceiverCommission","type":"address"}],"name":"updateReceiverCommission","outputs":[],"stateMutability":"nonpayable","type":"function"}],"evm":{"bytecode":{"linkReferences":{},"object":"60c06040523480156200001157600080fd5b5060405162006f4138038062006f418339818101604052810190620000379190620010f2565b8a8a8a8a8a8a8a8a8a8a8a62000062620000566200066160201b60201c565b6200066960201b60201c565b600180819055508862000086671a52f4332212ebc860c01b6200072d60201b60201c565b620000a267c9ff50fbce78a1d660c01b6200072d60201b60201c565b620000be67f42c02838a2d110760c01b6200072d60201b60201c565b6103e88160ff1611156200013657620000e86787ef6a37eca4b00160c01b6200072d60201b60201c565b6200010467d47af1bc757df50360c01b6200072d60201b60201c565b6040517feaf5947400000000000000000000000000000000000000000000000000000000815260040160405180910390fd5b6200015267e4a415a19974ccfd60c01b6200072d60201b60201c565b6200016e67e6d1623ab081e58260c01b6200072d60201b60201c565b88886200018c676eb38efe8e13e84560c01b6200072d60201b60201c565b620001a867c36a40953380310160c01b6200072d60201b60201c565b620001c467ef284b8f51d91f5b60c01b6200072d60201b60201c565b606460ff168183620001d791906200122e565b60ff16146200025957620001fc676da70845dcf79db660c01b6200072d60201b60201c565b6200021867b5a632c7474ef5c860c01b6200072d60201b60201c565b81816040517f8efe3fd5000000000000000000000000000000000000000000000000000000008152600401620002509291906200127b565b60405180910390fd5b62000275675aaec8a97298f6aa60c01b6200072d60201b60201c565b62000291672ad26ac8c242bea560c01b6200072d60201b60201c565b620002ad675ec43c3031f3d7a560c01b6200072d60201b60201c565b620002c96705b086c48bd883db60c01b6200072d60201b60201c565b8d73ffffffffffffffffffffffffffffffffffffffff1660a08173ffffffffffffffffffffffffffffffffffffffff1681525050620003196787de4463e038ab2360c01b6200072d60201b60201c565b86608081815250506200033d67d61305e2b87e675760c01b6200072d60201b60201c565b6200035967326b09cc280b130560c01b6200072d60201b60201c565b8c6200039d576200037b67ccbfc6331071276660c01b6200072d60201b60201c565b62000397678380ffa549a064c060c01b6200072d60201b60201c565b620004c7565b620003b96753de276185fce1c960c01b6200072d60201b60201c565b620003d567b15cb910cd65a45760c01b6200072d60201b60201c565b6001600260000160036101000a81548160ff0219169083151502179055506200040f67eb7dabb72cc26bdf60c01b6200072d60201b60201c565b6200042b67d517584215a1f90060c01b6200072d60201b60201c565b620004438c8c8c8c8a8d8b8b6200073060201b60201c565b6200045f675ddd8aca6f706bf160c01b6200072d60201b60201c565b6200047b67759fce04b480ab5f60c01b6200072d60201b60201c565b7f2384cd55758cfea276bc7f0e2e210be39cc8067f80f2b475d52286fd65d36db08d8d8d8d8d8b8e8c8c42604051620004be9a99989796959493929190620012db565b60405180910390a15b5050505050505050505050505050620004f1674ee746f17d0f90fc60c01b62000ea260201b60201c565b6200050d67a01afef63d8ba45460c01b62000ea260201b60201c565b6200052967d4c664f17bdfaf5660c01b62000ea260201b60201c565b600073ffffffffffffffffffffffffffffffffffffffff168b73ffffffffffffffffffffffffffffffffffffffff1603620005c8576200057a67377703118d54d04960c01b62000ea260201b60201c565b6200059667b59215b461d5f41c60c01b62000ea260201b60201c565b6040517fd92e233d00000000000000000000000000000000000000000000000000000000815260040160405180910390fd5b620005e4676ec7c2d04cfbdf7a60c01b62000ea260201b60201c565b62000600678c8174fc58a1102c60c01b62000ea260201b60201c565b620006106200066160201b60201c565b600760006101000a81548173ffffffffffffffffffffffffffffffffffffffff021916908373ffffffffffffffffffffffffffffffffffffffff1602179055505050505050505050505050620013ba565b600033905090565b60008060009054906101000a900473ffffffffffffffffffffffffffffffffffffffff169050816000806101000a81548173ffffffffffffffffffffffffffffffffffffffff021916908373ffffffffffffffffffffffffffffffffffffffff1602179055508173ffffffffffffffffffffffffffffffffffffffff168173ffffffffffffffffffffffffffffffffffffffff167f8be0079c531659141344cd1fd0a4f28419497f9722a3daafe3b4186f6b6457e060405160405180910390a35050565b50565b6200074c677aee11247d61fdf560c01b6200072d60201b60201c565b6200076867b55e8db1a985dea360c01b6200072d60201b60201c565b6200078467d9812de961715a0a60c01b6200072d60201b60201c565b8660ff16600260000160019054906101000a900460ff1660ff16146200080057620007c06747cd2d0e89c561ac60c01b6200072d60201b60201c565b620007dc67c2ee2098c76b8bc960c01b6200072d60201b60201c565b86600260000160016101000a81548160ff021916908360ff1602179055506200081d565b6200081c67a1c1a9373520fc2460c01b6200072d60201b60201c565b5b62000839671503bd0e83ea35f260c01b6200072d60201b60201c565b62000855676f99511bab31c6fe60c01b6200072d60201b60201c565b8560ff16600260000160029054906101000a900460ff1660ff1614620008d1576200089167db137fae7693cf9560c01b6200072d60201b60201c565b620008ad676459650ecbf074ce60c01b6200072d60201b60201c565b85600260000160026101000a81548160ff021916908360ff160217905550620008ee565b620008ed674a1ff3c50923213e60c01b6200072d60201b60201c565b5b6200090a673c4b0e4ae43fcf6c60c01b6200072d60201b60201c565b62000926672a00a9920a47076a60c01b6200072d60201b60201c565b6000851480156200093a575060008860ff16115b15620009e9576200095c6719e4f52f8027939260c01b6200072d60201b60201c565b62000978677f8206a2f1e2e50a60c01b6200072d60201b60201c565b87600260000160006101000a81548160ff021916908360ff160217905550620009b267faf34fba89f731d860c01b6200072d60201b60201c565b6000600260030160006101000a81548160ff02191690836002811115620009de57620009dd6200138b565b5b021790555062000bfc565b62000a0567e2370b6ed311968a60c01b6200072d60201b60201c565b62000a2167f9cfbcf47c24566660c01b6200072d60201b60201c565b6001850362000abe5762000a4667936ac0771ec70d7560c01b6200072d60201b60201c565b62000a62678f134f30bdfb3a5160c01b6200072d60201b60201c565b83600280018190555062000a8767225986c41821526460c01b6200072d60201b60201c565b6001600260030160006101000a81548160ff0219169083600281111562000ab35762000ab26200138b565b5b021790555062000bfb565b62000ada67c385ac3f7a6da3cb60c01b6200072d60201b60201c565b62000af6675fcf3523b8b6ceae60c01b6200072d60201b60201c565b600083111562000bdd5762000b1c674db4ca7f1ac4236460c01b6200072d60201b60201c565b62000b386765c800c3c300ef7060c01b6200072d60201b60201c565b62000b5467c3e9def9fe5182c960c01b6200072d60201b60201c565b62000b658362000ea560201b60201c565b62000b8167db324a2dee3585fa60c01b6200072d60201b60201c565b8260026001018190555062000ba767edc4255ccf1dd1db60c01b6200072d60201b60201c565b60028060030160006101000a81548160ff0219169083600281111562000bd25762000bd16200138b565b5b021790555062000bfa565b62000bf967be9a00d90198806460c01b6200072d60201b60201c565b5b5b5b62000c18675053ff483be1644d60c01b6200072d60201b60201c565b62000c346723fe860c4ff4ad6e60c01b6200072d60201b60201c565b8173ffffffffffffffffffffffffffffffffffffffff16600260030160019054906101000a900473ffffffffffffffffffffffffffffffffffffffff1673ffffffffffffffffffffffffffffffffffffffff161462000d0f5762000ca967089f308b50f1217560c01b6200072d60201b60201c565b62000cc5678e75d0ce8078018560c01b6200072d60201b60201c565b81600260030160016101000a81548173ffffffffffffffffffffffffffffffffffffffff021916908373ffffffffffffffffffffffffffffffffffffffff16021790555062000d2c565b62000d2b67200bf049ec3a336660c01b6200072d60201b60201c565b5b62000d48676c805fb24582d53060c01b6200072d60201b60201c565b62000d6467ae6640b4cb2c315660c01b6200072d60201b60201c565b8073ffffffffffffffffffffffffffffffffffffffff16600260040160009054906101000a900473ffffffffffffffffffffffffffffffffffffffff1673ffffffffffffffffffffffffffffffffffffffff161415801562000df35750600073ffffffffffffffffffffffffffffffffffffffff168173ffffffffffffffffffffffffffffffffffffffff1614155b1562000e7b5762000e15679f834e10961218cd60c01b6200072d60201b60201c565b62000e316778efb028819602dd60c01b6200072d60201b60201c565b80600260040160006101000a81548173ffffffffffffffffffffffffffffffffffffffff021916908373ffffffffffffffffffffffffffffffffffffffff16021790555062000e98565b62000e9767569e29691fc03c3b60c01b6200072d60201b60201c565b5b5050505050505050565b50565b62000ec167f28f16f9f764785d60c01b6200072d60201b60201c565b62000edd67801a8dbcb618eae060c01b6200072d60201b60201c565b62000ef967c1f4453dcf1c7f7f60c01b6200072d60201b60201c565b60805181111562000f6e5762000f2067abb8a729d509b2fb60c01b6200072d60201b60201c565b62000f3c6716777e7791441e3b60c01b6200072d60201b60201c565b6040517fdd27e1db00000000000000000000000000000000000000000000000000000000815260040160405180910390fd5b62000f8a67d93260f0ddb641e660c01b6200072d60201b60201c565b50565b600080fd5b600073ffffffffffffffffffffffffffffffffffffffff82169050919050565b600062000fbf8262000f92565b9050919050565b62000fd18162000fb2565b811462000fdd57600080fd5b50565b60008151905062000ff18162000fc6565b92915050565b60008115159050919050565b6200100e8162000ff7565b81146200101a57600080fd5b50565b6000815190506200102e8162001003565b92915050565b600060ff82169050919050565b6200104c8162001034565b81146200105857600080fd5b50565b6000815190506200106c8162001041565b92915050565b6000819050919050565b620010878162001072565b81146200109357600080fd5b50565b600081519050620010a7816200107c565b92915050565b6000620010ba8262000f92565b9050919050565b620010cc81620010ad565b8114620010d857600080fd5b50565b600081519050620010ec81620010c1565b92915050565b60008060008060008060008060008060006101608c8e0312156200111b576200111a62000f8d565b5b60006200112b8e828f0162000fe0565b9b505060206200113e8e828f016200101d565b9a50506040620011518e828f016200105b565b9950506060620011648e828f016200105b565b9850506080620011778e828f016200105b565b97505060a06200118a8e828f0162001096565b96505060c06200119d8e828f0162001096565b95505060e0620011b08e828f0162001096565b945050610100620011c48e828f0162001096565b935050610120620011d88e828f01620010db565b925050610140620011ec8e828f01620010db565b9150509295989b509295989b9093969950565b7f4e487b7100000000000000000000000000000000000000000000000000000000600052601160045260246000fd5b60006200123b8262001034565b9150620012488362001034565b9250828201905060ff811115620012645762001263620011ff565b5b92915050565b620012758162001034565b82525050565b60006040820190506200129260008301856200126a565b620012a160208301846200126a565b9392505050565b620012b38162000ff7565b82525050565b620012c48162001072565b82525050565b620012d581620010ad565b82525050565b600061014082019050620012f3600083018d620012a8565b62001302602083018c6200126a565b62001311604083018b6200126a565b62001320606083018a6200126a565b6200132f6080830189620012b9565b6200133e60a0830188620012b9565b6200134d60c0830187620012b9565b6200135c60e0830186620012ca565b6200136c610100830185620012ca565b6200137c610120830184620012b9565b9b9a5050505050505050505050565b7f4e487b7100000000000000000000000000000000000000000000000000000000600052602160045260246000fd5b60805160a051615b146200142d600039600081816111e7015281816117060152818161191b01528181611b1501528181611dbd01528181611fb90152818161285601528181612d8d01528181613ca301528181613ece015281816142bb01526144ef015260006147420152615b146000f3fe6080604052600436106100fe5760003560e01c80638da5cb5b11610095578063b26e099f11610064578063b26e099f146102cb578063c72304ac146102e2578063e0a665781461030d578063f2fde38b14610336578063feea15291461035f576100fe565b80638da5cb5b1461022f57806394aca02a1461025a5780639cb71686146102835780639f23c9e2146102af576100fe565b806358a93688116100d157806358a936881461019f5780636a02fcc4146101d3578063715018a6146101ef5780637c522d2814610206576100fe565b8063094c31591461010357806337c156261461012c578063529c0970146101435780635531e7741461016c575b600080fd5b34801561010f57600080fd5b5061012a60048036038101906101259190614c40565b61038c565b005b34801561013857600080fd5b50610141610728565b005b34801561014f57600080fd5b5061016a60048036038101906101659190614d0a565b610e61565b005b34801561017857600080fd5b50610181611015565b60405161019699989796959493929190614e10565b60405180910390f35b3480156101ab57600080fd5b506101b46110d2565b6040516101ca9a99989796959493929190614ebe565b60405180910390f35b6101ed60048036038101906101e89190614fbc565b611226565b005b3480156101fb57600080fd5b506102046121f9565b005b34801561021257600080fd5b5061022d60048036038101906102289190615049565b61220d565b005b34801561023b57600080fd5b5061024461241d565b6040516102519190615076565b60405180910390f35b34801561026657600080fd5b50610281600480360381019061027c9190615049565b612446565b005b34801561028f57600080fd5b50610298612656565b6040516102a6929190615091565b60405180910390f35b6102c960048036038101906102c491906150ba565b6126e9565b005b3480156102d757600080fd5b506102e0612fd9565b005b3480156102ee57600080fd5b506102f7613051565b6040516103049190615076565b60405180910390f35b34801561031957600080fd5b50610334600480360381019061032f9190615049565b6130b7565b005b34801561034257600080fd5b5061035d60048036038101906103589190615049565b61327c565b005b34801561036b57600080fd5b506103746132ff565b60405161038393929190615135565b60405180910390f35b6103a0672aa7262b05bbdb6360c01b613353565b6103a8613356565b6103bc673dfed242ca6579b360c01b613353565b6103d06784f35e033df120a660c01b613353565b856103e5671a52f4332212ebc860c01b613353565b6103f967c9ff50fbce78a1d660c01b613353565b61040d67f42c02838a2d110760c01b613353565b6103e88160ff1611156104745761042e6787ef6a37eca4b00160c01b613353565b61044267d47af1bc757df50360c01b613353565b6040517feaf5947400000000000000000000000000000000000000000000000000000000815260040160405180910390fd5b61048867e4a415a19974ccfd60c01b613353565b61049c67e6d1623ab081e58260c01b613353565b6104b067751a2285b9cd194360c01b613353565b6104c467fa38fb19b771fa0e60c01b613353565b88886104da676eb38efe8e13e84560c01b613353565b6104ee67c36a40953380310160c01b613353565b61050267ef284b8f51d91f5b60c01b613353565b606460ff168183610513919061519b565b60ff16146105825761052f676da70845dcf79db660c01b613353565b61054367b5a632c7474ef5c860c01b613353565b81816040517f8efe3fd50000000000000000000000000000000000000000000000000000000081526004016105799291906151d0565b60405180910390fd5b610596675aaec8a97298f6aa60c01b613353565b6105aa672ad26ac8c242bea560c01b613353565b6105be67ac0acb1b24877b3c60c01b613353565b6105d267bf0d77a33305324e60c01b613353565b6105e667803b4435ff10ff4460c01b613353565b6105fa670fd6633a4d7df2e260c01b613353565b600260000160039054906101000a900460ff1661065c5761062567ec3d522782e00dc760c01b613353565b6106396783e74eaf0d6399ec60c01b613353565b6001600260000160036101000a81548160ff021916908315150217905550610671565b61067067d883ebe0ef16095660c01b613353565b5b61068567a8b3dd6ac4f8c00560c01b613353565b61069967c2eda4bb3e17412160c01b613353565b6106a9898c8c8b8b8b8b8b6133d4565b6106bd674bd769b9b6f0ce8c60c01b613353565b6106d1670d32db4db4b601c860c01b613353565b7f2384cd55758cfea276bc7f0e2e210be39cc8067f80f2b475d52286fd65d36db08c8a8d8d8c8c8c8c8c426040516107129a999897969594939291906151f9565b60405180910390a1505050505050505050505050565b61073c67e55d727d44e706b960c01b613353565b6107446139ed565b6107586770b584d2b331c0b760c01b613353565b61076c6711cf9b2e346e936d60c01b613353565b610774613a3c565b61078867c54b76e6ff90e2fa60c01b613353565b61079c67441d0d12e2a9b40560c01b613353565b6107b0678d028ec006c65a5f60c01b613353565b600260030160019054906101000a900473ffffffffffffffffffffffffffffffffffffffff1673ffffffffffffffffffffffffffffffffffffffff166107f4613a3c565b73ffffffffffffffffffffffffffffffffffffffff16141580156108705750600260040160009054906101000a900473ffffffffffffffffffffffffffffffffffffffff1673ffffffffffffffffffffffffffffffffffffffff16610857613a3c565b73ffffffffffffffffffffffffffffffffffffffff1614155b156108e157610889675b2886a47038dda960c01b613353565b61089d67dac74ff36476c90060c01b613353565b6108a5613a3c565b6040517f0f287a3f0000000000000000000000000000000000000000000000000000000081526004016108d89190615076565b60405180910390fd5b6108f5676deeef46e6f5286d60c01b613353565b61090967571845e28134711460c01b613353565b61091d674b12bb6ef9587d1560c01b613353565b6109316757a583417d46df8960c01b613353565b6109456785b2d7430922323660c01b613353565b61095967edbb58b649b803e760c01b613353565b600047905061097267b0f77ff06c21439c60c01b613353565b610986673b6b2e3434b9ca2360c01b613353565b60008110156109e9576109a367c644275f00684f6760c01b613353565b6109b767d3a0fc2a5fce236d60c01b613353565b6040517fad3a8b9e00000000000000000000000000000000000000000000000000000000815260040160405180910390fd5b6109fd67585cfdc67f10b18d60c01b613353565b610a1167f3f37191353371bc60c01b613353565b610a25671cc273576fd639a660c01b613353565b600073ffffffffffffffffffffffffffffffffffffffff16600260030160019054906101000a900473ffffffffffffffffffffffffffffffffffffffff1673ffffffffffffffffffffffffffffffffffffffff1614158015610a9d57506000600260000160019054906101000a900460ff1660ff1614155b15610c6a57610ab6677ac7835871cc28f260c01b613353565b610aca671c6ac1f80639091360c01b613353565b610ade6735a13a91ecf078b360c01b613353565b60006064600260000160019054906101000a900460ff1660ff1683610b039190615295565b610b0d9190615306565b9050610b236735a60e7dbfad31ca60c01b613353565b610b3767df1ade2c2cd6a74e60c01b613353565b6000600260030160019054906101000a900473ffffffffffffffffffffffffffffffffffffffff1673ffffffffffffffffffffffffffffffffffffffff1682604051610b8290615368565b60006040518083038185875af1925050503d8060008114610bbf576040519150601f19603f3d011682016040523d82523d6000602084013e610bc4565b606091505b50509050610bdc6729e1863351d1556460c01b613353565b610bf06721e580a21c85ce3160c01b613353565b80610c4f57610c0967bc8838b7977470aa60c01b613353565b610c1d67a5be249d3c902a1b60c01b613353565b6040517f244ec49600000000000000000000000000000000000000000000000000000000815260040160405180910390fd5b610c6367ea6dca84ced2663060c01b613353565b5050610c7f565b610c7e6754f6ef294072901c60c01b613353565b5b610c93679d0a49f46aac101360c01b613353565b610ca767d8c3cdf0171f69fa60c01b613353565b6000600260040160009054906101000a900473ffffffffffffffffffffffffffffffffffffffff1673ffffffffffffffffffffffffffffffffffffffff166064600260000160029054906101000a900460ff1660ff1684610d089190615295565b610d129190615306565b604051610d1e90615368565b60006040518083038185875af1925050503d8060008114610d5b576040519150601f19603f3d011682016040523d82523d6000602084013e610d60565b606091505b50509050610d786754aad10986f89d4360c01b613353565b610d8c674c3d01bf10fa4fa260c01b613353565b80610deb57610da5678a160dfbcb6c7bdf60c01b613353565b610db967e6d3f12e44f4b3f960c01b613353565b6040517f244ec49600000000000000000000000000000000000000000000000000000000815260040160405180910390fd5b610dff6708cb931aaa95350f60c01b613353565b610e136708d823340698501060c01b613353565b610e2767c8a3ae097241a3bc60c01b613353565b427f5b64f7990ec4169ec43e750ea74cd6e76bbbd2a11d79841622bdda84ba9d561e60405160405180910390a2505050610e5f613a44565b565b610e756731500bc635c0c4ac60c01b613a4d565b610e7d613356565b610e91672675db8b565e8dbb60c01b613a4d565b610ea56784d9d0e2c5b90d3360c01b613a4d565b610eb96720ec7ff3bcfcbd9560c01b613a4d565b610ecd67aa63ef24aeb72bb460c01b613a4d565b600083108015610edd5750828211155b8015610ee95750600081105b15610f4857610f026784e85930cf56599c60c01b613a4d565b610f16676fc1070772669ce560c01b613a4d565b6040517f0eca686c00000000000000000000000000000000000000000000000000000000815260040160405180910390fd5b610f5c6781037b494624b82b60c01b613a4d565b610f7067d9eb2459002061aa60c01b613a4d565b82600981905550610f8b67aa20d4fac2b0eb6f60c01b613a4d565b81600a81905550610fa667c2795dc669cafba060c01b613a4d565b80600b81905550610fc16739630aa4e621883e60c01b613a4d565b610fd567ef32dfd4e4d1acbf60c01b613a4d565b7fb2efb0aa6e279553a1e5567ebb495d322192aa43c5fc3073cba4601d52009ab483838360405161100893929190615135565b60405180910390a1505050565b60028060000160009054906101000a900460ff16908060000160019054906101000a900460ff16908060000160029054906101000a900460ff16908060000160039054906101000a900460ff16908060010154908060020154908060030160009054906101000a900460ff16908060030160019054906101000a900473ffffffffffffffffffffffffffffffffffffffff16908060040160009054906101000a900473ffffffffffffffffffffffffffffffffffffffff16905089565b6000806000806000806000806000806110f567f9c5123e1f36ef9660c01b613353565b61110967397e657f09f6108460c01b613353565b61111d67fda264c639080af160c01b613353565b600260000160039054906101000a900460ff16600260000160019054906101000a900460ff16600260000160029054906101000a900460ff16600260000160009054906101000a900460ff16600260030160009054906101000a900460ff16600281111561118e5761118d614d8a565b5b6002800154600260010154600260030160019054906101000a900473ffffffffffffffffffffffffffffffffffffffff16600260040160009054906101000a900473ffffffffffffffffffffffffffffffffffffffff167f0000000000000000000000000000000000000000000000000000000000000000995099509950995099509950995099509950995090919293949596979899565b61123a67e4209d64c0ae853660c01b613a4d565b8461124f6742d3a98020cd001260c01b613a4d565b6112636722d91fa830d0d21460c01b613a4d565b61127767c94c4d066f4262af60c01b613a4d565b600954811080156112895750600a5481115b156112e8576112a267263f5367c8a52c5060c01b613a4d565b6112b667ba298288f5e31c1660c01b613a4d565b6040517f17dfb4ac00000000000000000000000000000000000000000000000000000000815260040160405180910390fd5b6112fc67e205e59a8e992fa360c01b613a4d565b61131067f32531761055309b60c01b613a4d565b61132467178ddacb15e1f2e960c01b613a4d565b611338677b5b9ddd5bbcb53e60c01b613a4d565b6113406139ed565b61135467c0aac264dc97487760c01b613a4d565b61136867dbe1d9b08cb6e81d60c01b613a4d565b61137c677feb1f26f7d0851460c01b613a4d565b6113906741869346e6e88e9260c01b613a4d565b6113a467891c7e90970b248c60c01b613a4d565b600073ffffffffffffffffffffffffffffffffffffffff168773ffffffffffffffffffffffffffffffffffffffff1603611413576040517f08c379a000000000000000000000000000000000000000000000000000000000815260040161140a906153da565b60405180910390fd5b61142767ab9b223083671b2f60c01b613a4d565b61143b67f3268be7b2dc49ad60c01b613a4d565b61144f674865bc099fb3e78660c01b613a4d565b600061148d8761145d613a3c565b88306040516020016114729493929190615542565b60405160208183030381529060405280519060200120613a50565b90506114a367b4d5b0ec8c7aa8a460c01b613a4d565b6114b767d0989e9d52076b8e60c01b613a4d565b600760009054906101000a900473ffffffffffffffffffffffffffffffffffffffff1673ffffffffffffffffffffffffffffffffffffffff166001828787876040516000815260200160405260405161151394939291906155aa565b6020604051602081039080840390855afa158015611535573d6000803e3d6000fd5b5050506020604051035173ffffffffffffffffffffffffffffffffffffffff16146115b45761156e672bcc35709e57682f60c01b613a4d565b61158267a4f50c5704b751a460c01b613a4d565b6040517fa7a059bc00000000000000000000000000000000000000000000000000000000815260040160405180910390fd5b6115c8671d062d6e28a43f3960c01b613a4d565b6115dc67e6c5663edc57b19960c01b613a4d565b6115f067071ad4e381cf148b60c01b613a4d565b6008600082815260200190815260200160002060009054906101000a900460ff16156116705761162a67bdfb4c9df573e77260c01b613a4d565b61163e67f3a5335658eca70560c01b613a4d565b6040517fcce9a82400000000000000000000000000000000000000000000000000000000815260040160405180910390fd5b611684677897230755f7aed160c01b613a4d565b6116986723861b689b7e360c60c01b613a4d565b60016008600083815260200190815260200160002060006101000a81548160ff0219169083151502179055506116d867e451e2a2c735916460c01b613a4d565b6116ec67ace3dc3d006ddd5960c01b613a4d565b61170067288f4e032da8498e60c01b613a4d565b600b54877f000000000000000000000000000000000000000000000000000000000000000073ffffffffffffffffffffffffffffffffffffffff166318160ddd6040518163ffffffff1660e01b8152600401602060405180830381865afa15801561176f573d6000803e3d6000fd5b505050506040513d601f19601f820116820180604052508101906117939190615604565b61179d9190615631565b11156117de576040517f08c379a00000000000000000000000000000000000000000000000000000000081526004016117d5906156b1565b60405180910390fd5b6117f267abdc00b985afb61160c01b613a4d565b611806679bd9104704ebf97e60c01b613a4d565b61181a674cc39c208c82a03c60c01b613a4d565b600260000160039054906101000a900460ff1615611f7957611846676af4aa1d6edcc64a60c01b613a4d565b61185a6749995dd1cfe696d260c01b613a4d565b61186e67b6b6dbba01050b7c60c01b613a4d565b60028081111561188157611880614d8a565b5b600260030160009054906101000a900460ff1660028111156118a6576118a5614d8a565b5b03611ad5576118bf67066818c7fed4821660c01b613a4d565b6118d3679826a1787699314e60c01b613a4d565b6118e7671f01704d3e1d66b960c01b613a4d565b6118ef613abc565b611903670c592e45a9bafa0660c01b613a4d565b61191767f9c9e34dbe3acf6360c01b613a4d565b60007f000000000000000000000000000000000000000000000000000000000000000073ffffffffffffffffffffffffffffffffffffffff167f40c10f19c047ae7dfa66d6312b683d2ea3dfbcb4159e96b967c5f4b0a86f28428a8a6040516024016119849291906156d1565b604051602081830303815290604052907bffffffffffffffffffffffffffffffffffffffffffffffffffffffff19166020820180517bffffffffffffffffffffffffffffffffffffffffffffffffffffffff83818316178352505050506040516119ee9190615760565b6000604051808303816000865af19150503d8060008114611a2b576040519150601f19603f3d011682016040523d82523d6000602084013e611a30565b606091505b50509050611a4867d5f23fb12538e31560c01b613a4d565b611a5c674692d7f9ae0d212660c01b613a4d565b80611abb57611a75672b0ec72a57d9337360c01b613a4d565b611a89676338f2fe67f156b060c01b613a4d565b6040517f384ec20400000000000000000000000000000000000000000000000000000000815260040160405180910390fd5b611acf67304bed77c8f8c02b60c01b613a4d565b50611f74565b611ae96773d2589a5eff40cd60c01b613a4d565b611afd678e645dc5f9bc89b260c01b613a4d565b611b116762d66d2061c824c260c01b613a4d565b60007f000000000000000000000000000000000000000000000000000000000000000073ffffffffffffffffffffffffffffffffffffffff167f40c10f19c047ae7dfa66d6312b683d2ea3dfbcb4159e96b967c5f4b0a86f2842308a604051602401611b7e9291906156d1565b604051602081830303815290604052907bffffffffffffffffffffffffffffffffffffffffffffffffffffffff19166020820180517bffffffffffffffffffffffffffffffffffffffffffffffffffffffff8381831617835250505050604051611be89190615760565b6000604051808303816000865af19150503d8060008114611c25576040519150601f19603f3d011682016040523d82523d6000602084013e611c2a565b606091505b50509050611c42679a971b18d710bbd960c01b613a4d565b611c566768a29dbbd3357c2e60c01b613a4d565b80611cb557611c6f67a06564f3a85130de60c01b613a4d565b611c83673e67345452e267f060c01b613a4d565b6040517fcb57cf5500000000000000000000000000000000000000000000000000000000815260040160405180910390fd5b611cc967138bec350a5901fb60c01b613a4d565b611cdd678e22ccba730df11c60c01b613a4d565b611ce688613b86565b88611cf19190615777565b9750611d076748bf84721df499a460c01b613a4d565b611d1b6729a1ff865069bc2860c01b613a4d565b60008803611d7d57611d37670e12fd160c9b363e60c01b613a4d565b611d4b677c444a7d837b92ad60c01b613a4d565b6040517f9b22d25400000000000000000000000000000000000000000000000000000000815260040160405180910390fd5b611d91678c11966b6ba4befa60c01b613a4d565b611da5673fc638ddffe682ad60c01b613a4d565b611db9673ae41e0b34ac0cc860c01b613a4d565b60007f000000000000000000000000000000000000000000000000000000000000000073ffffffffffffffffffffffffffffffffffffffff167fa9059cbb2ab09eb219583f4a59a5d0623ade346d962bcd4e46b11da047c9049b8b8b604051602401611e269291906156d1565b604051602081830303815290604052907bffffffffffffffffffffffffffffffffffffffffffffffffffffffff19166020820180517bffffffffffffffffffffffffffffffffffffffffffffffffffffffff8381831617835250505050604051611e909190615760565b6000604051808303816000865af19150503d8060008114611ecd576040519150601f19603f3d011682016040523d82523d6000602084013e611ed2565b606091505b50509050611eea67df5f3819bfaae24360c01b613a4d565b611efe672dbc578c5ce4469460c01b613a4d565b80611f5d57611f17672c84a425431792c860c01b613a4d565b611f2b67c3db76a028ebf4b760c01b613a4d565b6040517f53e7413800000000000000000000000000000000000000000000000000000000815260040160405180910390fd5b611f7167edff69827cb9fe6560c01b613a4d565b50505b61216f565b611f8d6726d9c41394844a9460c01b613a4d565b611fa16702b171b84c3423f560c01b613a4d565b611fb56771b2f0c989c434fd60c01b613a4d565b60007f000000000000000000000000000000000000000000000000000000000000000073ffffffffffffffffffffffffffffffffffffffff167f40c10f19c047ae7dfa66d6312b683d2ea3dfbcb4159e96b967c5f4b0a86f28428a8a6040516024016120229291906156d1565b604051602081830303815290604052907bffffffffffffffffffffffffffffffffffffffffffffffffffffffff19166020820180517bffffffffffffffffffffffffffffffffffffffffffffffffffffffff838183161783525050505060405161208c9190615760565b6000604051808303816000865af19150503d80600081146120c9576040519150601f19603f3d011682016040523d82523d6000602084013e6120ce565b606091505b505090506120e66766195d61d1c7c83e60c01b613a4d565b6120fa6773204a79e75c633c60c01b613a4d565b806121595761211367364eaba19d8e50c760c01b613a4d565b61212767a2d20aed8136077a60c01b613a4d565b6040517f384ec20400000000000000000000000000000000000000000000000000000000815260040160405180910390fd5b61216d67c18559c7c55ff28460c01b613a4d565b505b61218367fa22e53ac7d77f2f60c01b613a4d565b61219767f147351ae7bc18e360c01b613a4d565b8773ffffffffffffffffffffffffffffffffffffffff167f62a9b3e6446ab559d6b82c4f02cc923cd3b4e47444ef86446dab81a4d781c5af87896040516121df9291906157ab565b60405180910390a2506121f0613a44565b50505050505050565b612201613356565b61220b60006140da565b565b61222167241d4270b536d25c60c01b613353565b612229613356565b61223d67445473c20907feb160c01b613353565b61225167864d040e2adfec2760c01b613353565b612265677b9d90b8a133b49460c01b613353565b61227967de8fa192a20b704260c01b613353565b600073ffffffffffffffffffffffffffffffffffffffff168173ffffffffffffffffffffffffffffffffffffffff1603612307576122c16798025beb5cfa7b1e60c01b613353565b6122d567436d7d41475704db60c01b613353565b6040517fd92e233d00000000000000000000000000000000000000000000000000000000815260040160405180910390fd5b61231b67b3fd81c5b1f7dbeb60c01b613353565b61232f67d9fd2cf2aa42cbe760c01b613353565b612343671512905cdc9c28b860c01b613353565b8073ffffffffffffffffffffffffffffffffffffffff16600260040160009054906101000a900473ffffffffffffffffffffffffffffffffffffffff1673ffffffffffffffffffffffffffffffffffffffff167f62904549814f5511a5d36a62611a6e2fe1d2c29b6de74de25d95395e0a7d009b60405160405180910390a36123d667c3edfb502758d30960c01b613353565b80600260040160006101000a81548173ffffffffffffffffffffffffffffffffffffffff021916908373ffffffffffffffffffffffffffffffffffffffff16021790555050565b60008060009054906101000a900473ffffffffffffffffffffffffffffffffffffffff16905090565b61245a672dd9e39f1883129b60c01b613353565b612462613356565b612476672db48a915cf3cfed60c01b613353565b61248a67681d2e48273b5c5460c01b613353565b61249e677d1da2c11949325e60c01b613353565b6124b2675c7779a9b067cec860c01b613353565b600073ffffffffffffffffffffffffffffffffffffffff168173ffffffffffffffffffffffffffffffffffffffff1603612540576124fa67396830a43c5dc32b60c01b613353565b61250e67888da69b065dc7e860c01b613353565b6040517fd92e233d00000000000000000000000000000000000000000000000000000000815260040160405180910390fd5b612554677165a9ba7b5e1fff60c01b613353565b612568671cebc041d307c0b860c01b613353565b61257c67c9a172e8a720703460c01b613353565b8073ffffffffffffffffffffffffffffffffffffffff16600260030160019054906101000a900473ffffffffffffffffffffffffffffffffffffffff1673ffffffffffffffffffffffffffffffffffffffff167f62904549814f5511a5d36a62611a6e2fe1d2c29b6de74de25d95395e0a7d009b60405160405180910390a361260f67b6004c2d1f867a2460c01b613353565b80600260030160016101000a81548173ffffffffffffffffffffffffffffffffffffffff021916908373ffffffffffffffffffffffffffffffffffffffff16021790555050565b60008061266d679c8c010dcba9aa6160c01b613353565b61268167e5cbc71a3d6454a160c01b613353565b612695677bcb707bb46d858060c01b613353565b600260030160019054906101000a900473ffffffffffffffffffffffffffffffffffffffff16600260040160009054906101000a900473ffffffffffffffffffffffffffffffffffffffff16915091509091565b6126fd674f90af087673ce6f60c01b613a4d565b846127126742d3a98020cd001260c01b613a4d565b6127266722d91fa830d0d21460c01b613a4d565b61273a67c94c4d066f4262af60c01b613a4d565b6009548110801561274c5750600a5481115b156127ab5761276567263f5367c8a52c5060c01b613a4d565b61277967ba298288f5e31c1660c01b613a4d565b6040517f17dfb4ac00000000000000000000000000000000000000000000000000000000815260040160405180910390fd5b6127bf67e205e59a8e992fa360c01b613a4d565b6127d367f32531761055309b60c01b613a4d565b6127e767ba28a05d124b6ac560c01b613a4d565b6127fb67f7fb4a7092cd39f760c01b613a4d565b6128036139ed565b61281767abf3118c351e227260c01b613a4d565b61282b671d815df43353841560c01b613a4d565b61283f671d10d19c972dc3dd60c01b613a4d565b61285367e361f2c3a42f94d260c01b613a4d565b857f000000000000000000000000000000000000000000000000000000000000000073ffffffffffffffffffffffffffffffffffffffff166370a08231612898613a3c565b6040518263ffffffff1660e01b81526004016128b49190615076565b602060405180830381865afa1580156128d1573d6000803e3d6000fd5b505050506040513d601f19601f820116820180604052508101906128f59190615604565b10156129555761290f67fb33c32ceee3462560c01b613a4d565b61292367a5c3172fe6286f0660c01b613a4d565b6040517fad3a8b9e00000000000000000000000000000000000000000000000000000000815260040160405180910390fd5b61296967b5795ac9a3d8c77960c01b613a4d565b61297d67f076d933c2606f7360c01b613a4d565b612991673acc5a4cdb7f670660c01b613a4d565b60006129cf8761299f613a3c565b88306040516020016129b49493929190615820565b60405160208183030381529060405280519060200120613a50565b90506129e567243491da15fd75cb60c01b613a4d565b6129f9670758a7581365bdc560c01b613a4d565b600760009054906101000a900473ffffffffffffffffffffffffffffffffffffffff1673ffffffffffffffffffffffffffffffffffffffff1660018287878760405160008152602001604052604051612a5594939291906155aa565b6020604051602081039080840390855afa158015612a77573d6000803e3d6000fd5b5050506020604051035173ffffffffffffffffffffffffffffffffffffffff1614612af657612ab067d7e3363a5d447edc60c01b613a4d565b612ac4678831fb8b3f65e25e60c01b613a4d565b6040517fa7a059bc00000000000000000000000000000000000000000000000000000000815260040160405180910390fd5b612b0a67610bfb318cd615f160c01b613a4d565b612b1e67ba747ae33c57ee4460c01b613a4d565b612b326717d4ba1514b9649660c01b613a4d565b6008600082815260200190815260200160002060009054906101000a900460ff1615612bb257612b6c67bb5959125c97509e60c01b613a4d565b612b80672c2c80e70581032260c01b613a4d565b6040517fcce9a82400000000000000000000000000000000000000000000000000000000815260040160405180910390fd5b612bc667289c9d197ff5131060c01b613a4d565b612bda673c66033ad276e8ec60c01b613a4d565b60016008600083815260200190815260200160002060006101000a81548160ff021916908315150217905550612c1a67ab39b73fa0ec25cd60c01b613a4d565b612c2e67cab5e7b74ee6508760c01b613a4d565b600260000160039054906101000a900460ff1615612d4c57612c5a67dd334d415000c07560c01b613a4d565b612c6e67a03968f910058f1260c01b613a4d565b612c826774cf7482a6769ea060c01b613a4d565b600280811115612c9557612c94614d8a565b5b600260030160009054906101000a900460ff166002811115612cba57612cb9614d8a565b5b03612d0857612cd36741123a23c250f2a160c01b613a4d565b612ce767a0e2b1edfe88287260c01b613a4d565b612cfb671bd6428358ff713c60c01b613a4d565b612d03613abc565b612d47565b612d1c673db5830d6f2f341f60c01b613a4d565b612d306727569ce2a9e2cb0b60c01b613a4d565b612d398761419e565b87612d449190615777565b96505b612d61565b612d6067c1f912402bd8e1be60c01b613a4d565b5b612d7567a5c0535ca8e2012a60c01b613a4d565b612d89674ac19bcdbef01ad260c01b613a4d565b60007f000000000000000000000000000000000000000000000000000000000000000073ffffffffffffffffffffffffffffffffffffffff167f79cc679044ee9a2021f0a26c0fdec02ac39179cd005bb971a471b7f9f17c576c612deb613a3c565b8a604051602401612dfd9291906156d1565b604051602081830303815290604052907bffffffffffffffffffffffffffffffffffffffffffffffffffffffff19166020820180517bffffffffffffffffffffffffffffffffffffffffffffffffffffffff8381831617835250505050604051612e679190615760565b6000604051808303816000865af19150503d8060008114612ea4576040519150601f19603f3d011682016040523d82523d6000602084013e612ea9565b606091505b50509050612ec1673292773f30a0bed560c01b613a4d565b612ed567b22107ff4d76d04b60c01b613a4d565b80612f3457612eee67ecf460e11372525260c01b613a4d565b612f02673cfacc604411949c60c01b613a4d565b6040517f384ec20400000000000000000000000000000000000000000000000000000000815260040160405180910390fd5b612f4867075498aff69d137860c01b613a4d565b612f5c67dc0518cf88e8c05660c01b613a4d565b612f706719dd3c84cabb22f260c01b613a4d565b612f78613a3c565b73ffffffffffffffffffffffffffffffffffffffff167fb999b06746a947f1958636b9b9377ae814fe578413dfffd4d3a7a96196fe02fc888a604051612fbf9291906157ab565b60405180910390a25050612fd1613a44565b505050505050565b612fed67859e6aa46dda37d260c01b613353565b612ff5613356565b6130096711c726ce6adffd9760c01b613353565b61301d6791231038fa86a5af60c01b613353565b61303167798d04c4b635e93660c01b613353565b6000600260000160036101000a81548160ff021916908315150217905550565b600061306767385028caa205407d60c01b613a4d565b61307b67726800dd4089b6d260c01b613a4d565b61308f676218c7d8ca2e5c0a60c01b613a4d565b600760009054906101000a900473ffffffffffffffffffffffffffffffffffffffff16905090565b6130cb67be58f04f4f5972c860c01b613a4d565b6130d3613356565b6130e7676e90ab2ddc2ac49d60c01b613a4d565b6130fb6762af12e7b78f653660c01b613a4d565b61310f672470e39a8e59282960c01b613a4d565b61312367fa7065c80ebb666660c01b613a4d565b600073ffffffffffffffffffffffffffffffffffffffff168173ffffffffffffffffffffffffffffffffffffffff16036131b15761316b67469491e0f72dd17560c01b613a4d565b61317f679439da0b50684d5b60c01b613a4d565b6040517fd92e233d00000000000000000000000000000000000000000000000000000000815260040160405180910390fd5b6131c5672469f2a7adf5f35260c01b613a4d565b6131d96709c06c5ea4014c7260c01b613a4d565b80600760006101000a81548173ffffffffffffffffffffffffffffffffffffffff021916908373ffffffffffffffffffffffffffffffffffffffff16021790555061322e6743059b9da0b0b0f960c01b613a4d565b613242678f406752c2c329fc60c01b613a4d565b7f08f53e6a9fbc3949bc0b9266bbe1927f0b282a34d92876ccbe188c24d17c6cbb816040516132719190615076565b60405180910390a150565b613284613356565b600073ffffffffffffffffffffffffffffffffffffffff168173ffffffffffffffffffffffffffffffffffffffff16036132f3576040517f08c379a00000000000000000000000000000000000000000000000000000000081526004016132ea906158eb565b60405180910390fd5b6132fc816140da565b50565b60008060006133186737269fe63243be7860c01b613a4d565b61332b6615efc018effdc060c01b613a4d565b61333f677a75515e9dcc619160c01b613a4d565b600954600a54600b54925092509250909192565b50565b61335e613a3c565b73ffffffffffffffffffffffffffffffffffffffff1661337c61241d565b73ffffffffffffffffffffffffffffffffffffffff16146133d2576040517f08c379a00000000000000000000000000000000000000000000000000000000081526004016133c990615957565b60405180910390fd5b565b6133e8677aee11247d61fdf560c01b613353565b6133fc67b55e8db1a985dea360c01b613353565b61341067d9812de961715a0a60c01b613353565b8660ff16600260000160019054906101000a900460ff1660ff161461347a576134436747cd2d0e89c561ac60c01b613353565b61345767c2ee2098c76b8bc960c01b613353565b86600260000160016101000a81548160ff021916908360ff16021790555061348f565b61348e67a1c1a9373520fc2460c01b613353565b5b6134a3671503bd0e83ea35f260c01b613353565b6134b7676f99511bab31c6fe60c01b613353565b8560ff16600260000160029054906101000a900460ff1660ff1614613521576134ea67db137fae7693cf9560c01b613353565b6134fe676459650ecbf074ce60c01b613353565b85600260000160026101000a81548160ff021916908360ff160217905550613536565b613535674a1ff3c50923213e60c01b613353565b5b61354a673c4b0e4ae43fcf6c60c01b613353565b61355e672a00a9920a47076a60c01b613353565b600085148015613571575060008860ff16115b156136035761358a6719e4f52f8027939260c01b613353565b61359e677f8206a2f1e2e50a60c01b613353565b87600260000160006101000a81548160ff021916908360ff1602179055506135d067faf34fba89f731d860c01b613353565b6000600260030160006101000a81548160ff021916908360028111156135f9576135f8614d8a565b5b021790555061379c565b61361767e2370b6ed311968a60c01b613353565b61362b67f9cfbcf47c24566660c01b613353565b600185036136ab5761364767936ac0771ec70d7560c01b613353565b61365b678f134f30bdfb3a5160c01b613353565b83600280018190555061367867225986c41821526460c01b613353565b6001600260030160006101000a81548160ff021916908360028111156136a1576136a0614d8a565b5b021790555061379b565b6136bf67c385ac3f7a6da3cb60c01b613353565b6136d3675fcf3523b8b6ceae60c01b613353565b6000831115613785576136f0674db4ca7f1ac4236460c01b613353565b6137046765c800c3c300ef7060c01b613353565b61371867c3e9def9fe5182c960c01b613353565b61372183614704565b61373567db324a2dee3585fa60c01b613353565b8260026001018190555061375367edc4255ccf1dd1db60c01b613353565b60028060030160006101000a81548160ff0219169083600281111561377b5761377a614d8a565b5b021790555061379a565b61379967be9a00d90198806460c01b613353565b5b5b5b6137b0675053ff483be1644d60c01b613353565b6137c46723fe860c4ff4ad6e60c01b613353565b8173ffffffffffffffffffffffffffffffffffffffff16600260030160019054906101000a900473ffffffffffffffffffffffffffffffffffffffff1673ffffffffffffffffffffffffffffffffffffffff161461388d5761383067089f308b50f1217560c01b613353565b613844678e75d0ce8078018560c01b613353565b81600260030160016101000a81548173ffffffffffffffffffffffffffffffffffffffff021916908373ffffffffffffffffffffffffffffffffffffffff1602179055506138a2565b6138a167200bf049ec3a336660c01b613353565b5b6138b6676c805fb24582d53060c01b613353565b6138ca67ae6640b4cb2c315660c01b613353565b8073ffffffffffffffffffffffffffffffffffffffff16600260040160009054906101000a900473ffffffffffffffffffffffffffffffffffffffff1673ffffffffffffffffffffffffffffffffffffffff16141580156139585750600073ffffffffffffffffffffffffffffffffffffffff168173ffffffffffffffffffffffffffffffffffffffff1614155b156139ce57613971679f834e10961218cd60c01b613353565b6139856778efb028819602dd60c01b613353565b80600260040160006101000a81548173ffffffffffffffffffffffffffffffffffffffff021916908373ffffffffffffffffffffffffffffffffffffffff1602179055506139e3565b6139e267569e29691fc03c3b60c01b613353565b5b5050505050505050565b600260015403613a32576040517f08c379a0000000000000000000000000000000000000000000000000000000008152600401613a29906159c3565b60405180910390fd5b6002600181905550565b600033905090565b60018081905550565b50565b6000613a6667ba47d48cfade451160c01b613a4d565b613a7a675da7c96e8b6b26bf60c01b613a4d565b613a8e67a9e64363f2ed1d2860c01b613a4d565b81604051602001613a9f9190615a2f565b604051602081830303815290604052805190602001209050919050565b613ad067b42e53ce8397893260c01b613353565b613ae467a235212db428f04360c01b613353565b613af86732edd5f69560cc4f60c01b613353565b6002600101543414613b7057613b18676138accbeb13878560c01b613353565b613b2c677656eff20643ac9160c01b613353565b346002600101546040517ff7442319000000000000000000000000000000000000000000000000000000008152600401613b67929190615a55565b60405180910390fd5b613b84674f22d9df5a4c33e260c01b613353565b565b6000613b9c67b6da6d3f8c25e0c060c01b613353565b613bb0676ac26eddff56504460c01b613353565b613bc467ac50ee87a8a9b6c060c01b613353565b600080613bd0846147d9565b91509150613be867b820c1ef2fc62d3b60c01b613353565b613bfc6752be21a270d3ad3460c01b613353565b600073ffffffffffffffffffffffffffffffffffffffff16600260030160019054906101000a900473ffffffffffffffffffffffffffffffffffffffff1673ffffffffffffffffffffffffffffffffffffffff1614158015613c5e5750818114155b15613e8d57613c7767c2c3662d1fe12d4a60c01b613353565b613c8b67215d1fef5da6cb3c60c01b613353565b613c9f678a70a9912d70bcd660c01b613353565b60007f000000000000000000000000000000000000000000000000000000000000000073ffffffffffffffffffffffffffffffffffffffff167fa9059cbb2ab09eb219583f4a59a5d0623ade346d962bcd4e46b11da047c9049b600260030160019054906101000a900473ffffffffffffffffffffffffffffffffffffffff168585613d2b9190615777565b604051602401613d3c929190615a7e565b604051602081830303815290604052907bffffffffffffffffffffffffffffffffffffffffffffffffffffffff19166020820180517bffffffffffffffffffffffffffffffffffffffffffffffffffffffff8381831617835250505050604051613da69190615760565b6000604051808303816000865af19150503d8060008114613de3576040519150601f19603f3d011682016040523d82523d6000602084013e613de8565b606091505b50509050613e0067b9637583e4fd3fa360c01b613353565b613e1467fe253824d247bc8760c01b613353565b80613e7357613e2d67dd8a5596f3e9dbaf60c01b613353565b613e4167e7745e4a7444581160c01b613353565b6040517fd291274f00000000000000000000000000000000000000000000000000000000815260040160405180910390fd5b613e8767dfb7d86d97227b2e60c01b613353565b50613ea2565b613ea1675a8afc59b2ecc19d60c01b613353565b5b613eb667b35f99ca4d9b794760c01b613353565b613eca67b4bc53de7a66bc2360c01b613353565b60007f000000000000000000000000000000000000000000000000000000000000000073ffffffffffffffffffffffffffffffffffffffff167fa9059cbb2ab09eb219583f4a59a5d0623ade346d962bcd4e46b11da047c9049b600260040160009054906101000a900473ffffffffffffffffffffffffffffffffffffffff1685604051602401613f5c929190615a7e565b604051602081830303815290604052907bffffffffffffffffffffffffffffffffffffffffffffffffffffffff19166020820180517bffffffffffffffffffffffffffffffffffffffffffffffffffffffff8381831617835250505050604051613fc69190615760565b6000604051808303816000865af19150503d8060008114614003576040519150601f19603f3d011682016040523d82523d6000602084013e614008565b606091505b505090506140206797960940cce1284260c01b613353565b614034678d04bd95f8f1aa2d60c01b613353565b806140935761404d67ba77d1294207e9f560c01b613353565b61406167b145ad458b0bcf2a60c01b613353565b6040517fd291274f00000000000000000000000000000000000000000000000000000000815260040160405180910390fd5b6140a767f014013be4ea5c3860c01b613353565b6140bb675ebd9759efc9fc2b60c01b613353565b6140cf675f26645bf54a813960c01b613353565b819350505050919050565b60008060009054906101000a900473ffffffffffffffffffffffffffffffffffffffff169050816000806101000a81548173ffffffffffffffffffffffffffffffffffffffff021916908373ffffffffffffffffffffffffffffffffffffffff1602179055508173ffffffffffffffffffffffffffffffffffffffff168173ffffffffffffffffffffffffffffffffffffffff167f8be0079c531659141344cd1fd0a4f28419497f9722a3daafe3b4186f6b6457e060405160405180910390a35050565b60006141b4679ab3376d9bfbfb0460c01b613353565b6141c867e453830a2681987f60c01b613353565b6141dc67018de0f01c63754860c01b613353565b6000806141e8846147d9565b91509150614200679c15be51b639e65d60c01b613353565b6142146742195962980776a560c01b613353565b600073ffffffffffffffffffffffffffffffffffffffff16600260030160019054906101000a900473ffffffffffffffffffffffffffffffffffffffff1673ffffffffffffffffffffffffffffffffffffffff16141580156142765750818114155b156144ae5761428f679bdd02f18e77877c60c01b613353565b6142a367ecdb126ad7c5dd2260c01b613353565b6142b76783797a3351b6c6f860c01b613353565b60007f000000000000000000000000000000000000000000000000000000000000000073ffffffffffffffffffffffffffffffffffffffff167f23b872dd7302113369cda2901243429419bec145408fa8b352b3dd92b66c680b614319613a3c565b600260030160019054906101000a900473ffffffffffffffffffffffffffffffffffffffff16868661434b9190615777565b60405160240161435d93929190615aa7565b604051602081830303815290604052907bffffffffffffffffffffffffffffffffffffffffffffffffffffffff19166020820180517bffffffffffffffffffffffffffffffffffffffffffffffffffffffff83818316178352505050506040516143c79190615760565b6000604051808303816000865af19150503d8060008114614404576040519150601f19603f3d011682016040523d82523d6000602084013e614409565b606091505b5050905061442167fcdfdc91fd173d4960c01b613353565b61443567590f7de7b06f642d60c01b613353565b806144945761444e6751a83c39cc9e57cf60c01b613353565b61446267e3682d672a48a4a460c01b613353565b6040517fd291274f00000000000000000000000000000000000000000000000000000000815260040160405180910390fd5b6144a867bc74bbc128d5efb460c01b613353565b506144c3565b6144c2672c3eeffb14279c0160c01b613353565b5b6144d76767caae9bee7ba57260c01b613353565b6144eb678cb20b1e2a9ddf1360c01b613353565b60007f000000000000000000000000000000000000000000000000000000000000000073ffffffffffffffffffffffffffffffffffffffff167f23b872dd7302113369cda2901243429419bec145408fa8b352b3dd92b66c680b61454d613a3c565b600260040160009054906101000a900473ffffffffffffffffffffffffffffffffffffffff168660405160240161458693929190615aa7565b604051602081830303815290604052907bffffffffffffffffffffffffffffffffffffffffffffffffffffffff19166020820180517bffffffffffffffffffffffffffffffffffffffffffffffffffffffff83818316178352505050506040516145f09190615760565b6000604051808303816000865af19150503d806000811461462d576040519150601f19603f3d011682016040523d82523d6000602084013e614632565b606091505b5050905061464a672ee685ea26f7dc9360c01b613353565b61465e67bdee69e59725ef1460c01b613353565b806146bd57614677677a597b39ca6d723e60c01b613353565b61468b67838b2072db51685160c01b613353565b6040517fd291274f00000000000000000000000000000000000000000000000000000000815260040160405180910390fd5b6146d16720166837115db0a960c01b613353565b6146e56737769c3b02a9320160c01b613353565b6146f9672bb58669213e556860c01b613353565b819350505050919050565b61471867f28f16f9f764785d60c01b613353565b61472c67801a8dbcb618eae060c01b613353565b61474067c1f4453dcf1c7f7f60c01b613353565b7f00000000000000000000000000000000000000000000000000000000000000008111156147c25761477c67abb8a729d509b2fb60c01b613353565b6147906716777e7791441e3b60c01b613353565b6040517fdd27e1db00000000000000000000000000000000000000000000000000000000815260040160405180910390fd5b6147d667d93260f0ddb641e660c01b613353565b50565b6000806147f067e8708527c0c7f09b60c01b613353565b6148046795176aea96e8662760c01b613353565b61481867ef07b26f9005889660c01b613353565b6000600281111561482c5761482b614d8a565b5b600260030160009054906101000a900460ff16600281111561485157614850614d8a565b5b036149005761486a6717f7ff8ee0ecaac860c01b613353565b61487e673eb340753f3073b260c01b613353565b614892675be638e123e7dce360c01b613353565b60006103e8600260000160009054906101000a900460ff1660ff16856148b89190615295565b6148c29190615306565b90506148d86786e955ff9135e9ce60c01b613353565b6148ec672a0dc3ae5e13ed0e60c01b613353565b6148f581614ac4565b819250925050614abf565b61491467fc0b89f62250ac7360c01b613353565b614928673fc2ebf7c37ef8a360c01b613353565b6001600281111561493c5761493b614d8a565b5b600260030160009054906101000a900460ff16600281111561496157614960614d8a565b5b036149bd5761497a67b8e5dbe2cdbf65f860c01b613353565b61498e67c46ae4886cd2110a60c01b613353565b6149a26706a560a7d49c6b2160c01b613353565b6149af6002800154614ac4565b600280015491509150614abf565b6149d167d0a54ace01fdd6b060c01b613353565b6149e567535f8e2c38452cca60c01b613353565b6002808111156149f8576149f7614d8a565b5b600260030160009054906101000a900460ff166002811115614a1d57614a1c614d8a565b5b03614a7b57614a3667055a21313af1705b60c01b613353565b614a4a67915d3aad32f06d8860c01b613353565b614a5e671872b8a50af9339e60c01b613353565b614a6c600260010154614ac4565b60026001015491509150614abf565b614a8f679260d443fa2be2f560c01b613353565b614aa36704f295c1968191c960c01b613353565b614ab7673d9c89fda553563260c01b613353565b600080915091505b915091565b6000614ada67ce10ebf18bedb62760c01b613353565b614aee672288b71f3535a40d60c01b613353565b614b0267e2853c1e3684a45960c01b613353565b6064600260000160029054906101000a900460ff1660ff1683614b259190615295565b614b2f9190615306565b9050919050565b600080fd5b60008115159050919050565b614b5081614b3b565b8114614b5b57600080fd5b50565b600081359050614b6d81614b47565b92915050565b600060ff82169050919050565b614b8981614b73565b8114614b9457600080fd5b50565b600081359050614ba681614b80565b92915050565b6000819050919050565b614bbf81614bac565b8114614bca57600080fd5b50565b600081359050614bdc81614bb6565b92915050565b600073ffffffffffffffffffffffffffffffffffffffff82169050919050565b6000614c0d82614be2565b9050919050565b614c1d81614c02565b8114614c2857600080fd5b50565b600081359050614c3a81614c14565b92915050565b60008060008060008060008060006101208a8c031215614c6357614c62614b36565b5b6000614c718c828d01614b5e565b9950506020614c828c828d01614b97565b9850506040614c938c828d01614b97565b9750506060614ca48c828d01614b97565b9650506080614cb58c828d01614bcd565b95505060a0614cc68c828d01614bcd565b94505060c0614cd78c828d01614bcd565b93505060e0614ce88c828d01614c2b565b925050610100614cfa8c828d01614c2b565b9150509295985092959850929598565b600080600060608486031215614d2357614d22614b36565b5b6000614d3186828701614bcd565b9350506020614d4286828701614bcd565b9250506040614d5386828701614bcd565b9150509250925092565b614d6681614b73565b82525050565b614d7581614b3b565b82525050565b614d8481614bac565b82525050565b7f4e487b7100000000000000000000000000000000000000000000000000000000600052602160045260246000fd5b60038110614dca57614dc9614d8a565b5b50565b6000819050614ddb82614db9565b919050565b6000614deb82614dcd565b9050919050565b614dfb81614de0565b82525050565b614e0a81614c02565b82525050565b600061012082019050614e26600083018c614d5d565b614e33602083018b614d5d565b614e40604083018a614d5d565b614e4d6060830189614d6c565b614e5a6080830188614d7b565b614e6760a0830187614d7b565b614e7460c0830186614df2565b614e8160e0830185614e01565b614e8f610100830184614e01565b9a9950505050505050505050565b6000614ea882614be2565b9050919050565b614eb881614e9d565b82525050565b600061014082019050614ed4600083018d614d6c565b614ee1602083018c614d5d565b614eee604083018b614d5d565b614efb606083018a614d5d565b614f086080830189614d7b565b614f1560a0830188614d7b565b614f2260c0830187614d7b565b614f2f60e0830186614e01565b614f3d610100830185614e01565b614f4b610120830184614eaf565b9b9a5050505050505050505050565b614f6381614e9d565b8114614f6e57600080fd5b50565b600081359050614f8081614f5a565b92915050565b6000819050919050565b614f9981614f86565b8114614fa457600080fd5b50565b600081359050614fb681614f90565b92915050565b60008060008060008060c08789031215614fd957614fd8614b36565b5b6000614fe789828a01614f71565b9650506020614ff889828a01614bcd565b955050604061500989828a01614fa7565b945050606061501a89828a01614b97565b935050608061502b89828a01614fa7565b92505060a061503c89828a01614fa7565b9150509295509295509295565b60006020828403121561505f5761505e614b36565b5b600061506d84828501614f71565b91505092915050565b600060208201905061508b6000830184614eaf565b92915050565b60006040820190506150a66000830185614eaf565b6150b36020830184614eaf565b9392505050565b600080600080600060a086880312156150d6576150d5614b36565b5b60006150e488828901614bcd565b95505060206150f588828901614fa7565b945050604061510688828901614b97565b935050606061511788828901614fa7565b925050608061512888828901614fa7565b9150509295509295909350565b600060608201905061514a6000830186614d7b565b6151576020830185614d7b565b6151646040830184614d7b565b949350505050565b7f4e487b7100000000000000000000000000000000000000000000000000000000600052601160045260246000fd5b60006151a682614b73565b91506151b183614b73565b9250828201905060ff8111156151ca576151c961516c565b5b92915050565b60006040820190506151e56000830185614d5d565b6151f26020830184614d5d565b9392505050565b60006101408201905061520f600083018d614d6c565b61521c602083018c614d5d565b615229604083018b614d5d565b615236606083018a614d5d565b6152436080830189614d7b565b61525060a0830188614d7b565b61525d60c0830187614d7b565b61526a60e0830186614e01565b615278610100830185614e01565b615286610120830184614d7b565b9b9a5050505050505050505050565b60006152a082614bac565b91506152ab83614bac565b92508282026152b981614bac565b915082820484148315176152d0576152cf61516c565b5b5092915050565b7f4e487b7100000000000000000000000000000000000000000000000000000000600052601260045260246000fd5b600061531182614bac565b915061531c83614bac565b92508261532c5761532b6152d7565b5b828204905092915050565b600081905092915050565b50565b6000615352600083615337565b915061535d82615342565b600082019050919050565b600061537382615345565b9150819050919050565b600082825260208201905092915050565b7f496e76616c69642077616c6c6574000000000000000000000000000000000000600082015250565b60006153c4600e8361537d565b91506153cf8261538e565b602082019050919050565b600060208201905081810360008301526153f3816153b7565b9050919050565b600081905092915050565b7f5f5f636f6e76657273696f6e496e000000000000000000000000000000000000600082015250565b600061543b600e836153fa565b915061544682615405565b600e82019050919050565b6000819050919050565b61546c61546782614bac565b615451565b82525050565b60008160601b9050919050565b600061548a82615472565b9050919050565b600061549c8261547f565b9050919050565b6154b46154af82614e9d565b615491565b82525050565b6000819050919050565b6154d56154d082614f86565b6154ba565b82525050565b6000819050919050565b60006155006154fb6154f684614be2565b6154db565b614be2565b9050919050565b6000615512826154e5565b9050919050565b600061552482615507565b9050919050565b61553c61553782615519565b615491565b82525050565b600061554d8261542e565b9150615559828761545b565b60208201915061556982866154a3565b60148201915061557982856154c4565b602082019150615589828461552b565b60148201915081905095945050505050565b6155a481614f86565b82525050565b60006080820190506155bf600083018761559b565b6155cc6020830186614d5d565b6155d9604083018561559b565b6155e6606083018461559b565b95945050505050565b6000815190506155fe81614bb6565b92915050565b60006020828403121561561a57615619614b36565b5b6000615628848285016155ef565b91505092915050565b600061563c82614bac565b915061564783614bac565b925082820190508082111561565f5761565e61516c565b5b92915050565b7f496e76616c696420416d6f756e74000000000000000000000000000000000000600082015250565b600061569b600e8361537d565b91506156a682615665565b602082019050919050565b600060208201905081810360008301526156ca8161568e565b9050919050565b60006040820190506156e66000830185614eaf565b6156f36020830184614d7b565b9392505050565b600081519050919050565b60005b83811015615723578082015181840152602081019050615708565b60008484015250505050565b600061573a826156fa565b6157448185615337565b9350615754818560208601615705565b80840191505092915050565b600061576c828461572f565b915081905092915050565b600061578282614bac565b915061578d83614bac565b92508282039050818111156157a5576157a461516c565b5b92915050565b60006040820190506157c0600083018561559b565b6157cd6020830184614d7b565b9392505050565b7f5f5f636f6e76657273696f6e4f75740000000000000000000000000000000000600082015250565b600061580a600f836153fa565b9150615815826157d4565b600f82019050919050565b600061582b826157fd565b9150615837828761545b565b60208201915061584782866154a3565b60148201915061585782856154c4565b602082019150615867828461552b565b60148201915081905095945050505050565b7f4f776e61626c653a206e6577206f776e657220697320746865207a65726f206160008201527f6464726573730000000000000000000000000000000000000000000000000000602082015250565b60006158d560268361537d565b91506158e082615879565b604082019050919050565b60006020820190508181036000830152615904816158c8565b9050919050565b7f4f776e61626c653a2063616c6c6572206973206e6f7420746865206f776e6572600082015250565b600061594160208361537d565b915061594c8261590b565b602082019050919050565b6000602082019050818103600083015261597081615934565b9050919050565b7f5265656e7472616e637947756172643a207265656e7472616e742063616c6c00600082015250565b60006159ad601f8361537d565b91506159b882615977565b602082019050919050565b600060208201905081810360008301526159dc816159a0565b9050919050565b7f19457468657265756d205369676e6564204d6573736167653a0a333200000000600082015250565b6000615a19601c836153fa565b9150615a24826159e3565b601c82019050919050565b6000615a3a82615a0c565b9150615a4682846154c4565b60208201915081905092915050565b6000604082019050615a6a6000830185614d7b565b615a776020830184614d7b565b9392505050565b6000604082019050615a936000830185614e01565b615aa06020830184614d7b565b9392505050565b6000606082019050615abc6000830186614eaf565b615ac96020830185614e01565b615ad66040830184614d7b565b94935050505056fea2646970667358221220ee3361093d00d5f19b9ade44d5bd81e61ef4eb436c57ae4f563163b274c601c464736f6c63430008130033","opcodes":"PUSH1 0xC0 PUSH1 0x40 MSTORE CALLVALUE DUP1 ISZERO PUSH3 0x11 JUMPI PUSH1 0x0 DUP1 REVERT JUMPDEST POP PUSH1 0x40 MLOAD PUSH3 0x6F41 CODESIZE SUB DUP1 PUSH3 0x6F41 DUP4 CODECOPY DUP2 DUP2 ADD PUSH1 0x40 MSTORE DUP2 ADD SWAP1 PUSH3 0x37 SWAP2 SWAP1 PUSH3 0x10F2 JUMP JUMPDEST DUP11 DUP11 DUP11 DUP11 DUP11 DUP11 DUP11 DUP11 DUP11 DUP11 DUP11 PUSH3 0x62 PUSH3 0x56 PUSH3 0x661 PUSH1 0x20 SHL PUSH1 0x20 SHR JUMP JUMPDEST PUSH3 0x669 PUSH1 0x20 SHL PUSH1 0x20 SHR JUMP JUMPDEST PUSH1 0x1 DUP1 DUP2 SWAP1 SSTORE POP DUP9 PUSH3 0x86 PUSH8 0x1A52F4332212EBC8 PUSH1 0xC0 SHL PUSH3 0x72D PUSH1 0x20 SHL PUSH1 0x20 SHR JUMP JUMPDEST PUSH3 0xA2 PUSH8 0xC9FF50FBCE78A1D6 PUSH1 0xC0 SHL PUSH3 0x72D PUSH1 0x20 SHL PUSH1 0x20 SHR JUMP JUMPDEST PUSH3 0xBE PUSH8 0xF42C02838A2D1107 PUSH1 0xC0 SHL PUSH3 0x72D PUSH1 0x20 SHL PUSH1 0x20 SHR JUMP JUMPDEST PUSH2 0x3E8 DUP2 PUSH1 0xFF AND GT ISZERO PUSH3 0x136 JUMPI PUSH3 0xE8 PUSH8 0x87EF6A37ECA4B001 PUSH1 0xC0 SHL PUSH3 0x72D PUSH1 0x20 SHL PUSH1 0x20 SHR JUMP JUMPDEST PUSH3 0x104 PUSH8 0xD47AF1BC757DF503 PUSH1 0xC0 SHL PUSH3 0x72D PUSH1 0x20 SHL PUSH1 0x20 SHR JUMP JUMPDEST PUSH1 0x40 MLOAD PUSH32 0xEAF5947400000000000000000000000000000000000000000000000000000000 DUP2 MSTORE PUSH1 0x4 ADD PUSH1 0x40 MLOAD DUP1 SWAP2 SUB SWAP1 REVERT JUMPDEST PUSH3 0x152 PUSH8 0xE4A415A19974CCFD PUSH1 0xC0 SHL PUSH3 0x72D PUSH1 0x20 SHL PUSH1 0x20 SHR JUMP JUMPDEST PUSH3 0x16E PUSH8 0xE6D1623AB081E582 PUSH1 0xC0 SHL PUSH3 0x72D PUSH1 0x20 SHL PUSH1 0x20 SHR JUMP JUMPDEST DUP9 DUP9 PUSH3 0x18C PUSH8 0x6EB38EFE8E13E845 PUSH1 0xC0 SHL PUSH3 0x72D PUSH1 0x20 SHL PUSH1 0x20 SHR JUMP JUMPDEST PUSH3 0x1A8 PUSH8 0xC36A409533803101 PUSH1 0xC0 SHL PUSH3 0x72D PUSH1 0x20 SHL PUSH1 0x20 SHR JUMP JUMPDEST PUSH3 0x1C4 PUSH8 0xEF284B8F51D91F5B PUSH1 0xC0 SHL PUSH3 0x72D PUSH1 0x20 SHL PUSH1 0x20 SHR JUMP JUMPDEST PUSH1 0x64 PUSH1 0xFF AND DUP2 DUP4 PUSH3 0x1D7 SWAP2 SWAP1 PUSH3 0x122E JUMP JUMPDEST PUSH1 0xFF AND EQ PUSH3 0x259 JUMPI PUSH3 0x1FC PUSH8 0x6DA70845DCF79DB6 PUSH1 0xC0 SHL PUSH3 0x72D PUSH1 0x20 SHL PUSH1 0x20 SHR JUMP JUMPDEST PUSH3 0x218 PUSH8 0xB5A632C7474EF5C8 PUSH1 0xC0 SHL PUSH3 0x72D PUSH1 0x20 SHL PUSH1 0x20 SHR JUMP JUMPDEST DUP2 DUP2 PUSH1 0x40 MLOAD PUSH32 0x8EFE3FD500000000000000000000000000000000000000000000000000000000 DUP2 MSTORE PUSH1 0x4 ADD PUSH3 0x250 SWAP3 SWAP2 SWAP1 PUSH3 0x127B JUMP JUMPDEST PUSH1 0x40 MLOAD DUP1 SWAP2 SUB SWAP1 REVERT JUMPDEST PUSH3 0x275 PUSH8 0x5AAEC8A97298F6AA PUSH1 0xC0 SHL PUSH3 0x72D PUSH1 0x20 SHL PUSH1 0x20 SHR JUMP JUMPDEST PUSH3 0x291 PUSH8 0x2AD26AC8C242BEA5 PUSH1 0xC0 SHL PUSH3 0x72D PUSH1 0x20 SHL PUSH1 0x20 SHR JUMP JUMPDEST PUSH3 0x2AD PUSH8 0x5EC43C3031F3D7A5 PUSH1 0xC0 SHL PUSH3 0x72D PUSH1 0x20 SHL PUSH1 0x20 SHR JUMP JUMPDEST PUSH3 0x2C9 PUSH8 0x5B086C48BD883DB PUSH1 0xC0 SHL PUSH3 0x72D PUSH1 0x20 SHL PUSH1 0x20 SHR JUMP JUMPDEST DUP14 PUSH20 0xFFFFFFFFFFFFFFFFFFFFFFFFFFFFFFFFFFFFFFFF AND PUSH1 0xA0 DUP2 PUSH20 0xFFFFFFFFFFFFFFFFFFFFFFFFFFFFFFFFFFFFFFFF AND DUP2 MSTORE POP POP PUSH3 0x319 PUSH8 0x87DE4463E038AB23 PUSH1 0xC0 SHL PUSH3 0x72D PUSH1 0x20 SHL PUSH1 0x20 SHR JUMP JUMPDEST DUP7 PUSH1 0x80 DUP2 DUP2 MSTORE POP POP PUSH3 0x33D PUSH8 0xD61305E2B87E6757 PUSH1 0xC0 SHL PUSH3 0x72D PUSH1 0x20 SHL PUSH1 0x20 SHR JUMP JUMPDEST PUSH3 0x359 PUSH8 0x326B09CC280B1305 PUSH1 0xC0 SHL PUSH3 0x72D PUSH1 0x20 SHL PUSH1 0x20 SHR JUMP JUMPDEST DUP13 PUSH3 0x39D JUMPI PUSH3 0x37B PUSH8 0xCCBFC63310712766 PUSH1 0xC0 SHL PUSH3 0x72D PUSH1 0x20 SHL PUSH1 0x20 SHR JUMP JUMPDEST PUSH3 0x397 PUSH8 0x8380FFA549A064C0 PUSH1 0xC0 SHL PUSH3 0x72D PUSH1 0x20 SHL PUSH1 0x20 SHR JUMP JUMPDEST PUSH3 0x4C7 JUMP JUMPDEST PUSH3 0x3B9 PUSH8 0x53DE276185FCE1C9 PUSH1 0xC0 SHL PUSH3 0x72D PUSH1 0x20 SHL PUSH1 0x20 SHR JUMP JUMPDEST PUSH3 0x3D5 PUSH8 0xB15CB910CD65A457 PUSH1 0xC0 SHL PUSH3 0x72D PUSH1 0x20 SHL PUSH1 0x20 SHR JUMP JUMPDEST PUSH1 0x1 PUSH1 0x2 PUSH1 0x0 ADD PUSH1 0x3 PUSH2 0x100 EXP DUP2 SLOAD DUP2 PUSH1 0xFF MUL NOT AND SWAP1 DUP4 ISZERO ISZERO MUL OR SWAP1 SSTORE POP PUSH3 0x40F PUSH8 0xEB7DABB72CC26BDF PUSH1 0xC0 SHL PUSH3 0x72D PUSH1 0x20 SHL PUSH1 0x20 SHR JUMP JUMPDEST PUSH3 0x42B PUSH8 0xD517584215A1F900 PUSH1 0xC0 SHL PUSH3 0x72D PUSH1 0x20 SHL PUSH1 0x20 SHR JUMP JUMPDEST PUSH3 0x443 DUP13 DUP13 DUP13 DUP13 DUP11 DUP14 DUP12 DUP12 PUSH3 0x730 PUSH1 0x20 SHL PUSH1 0x20 SHR JUMP JUMPDEST PUSH3 0x45F PUSH8 0x5DDD8ACA6F706BF1 PUSH1 0xC0 SHL PUSH3 0x72D PUSH1 0x20 SHL PUSH1 0x20 SHR JUMP JUMPDEST PUSH3 0x47B PUSH8 0x759FCE04B480AB5F PUSH1 0xC0 SHL PUSH3 0x72D PUSH1 0x20 SHL PUSH1 0x20 SHR JUMP JUMPDEST PUSH32 0x2384CD55758CFEA276BC7F0E2E210BE39CC8067F80F2B475D52286FD65D36DB0 DUP14 DUP14 DUP14 DUP14 DUP14 DUP12 DUP15 DUP13 DUP13 TIMESTAMP PUSH1 0x40 MLOAD PUSH3 0x4BE SWAP11 SWAP10 SWAP9 SWAP8 SWAP7 SWAP6 SWAP5 SWAP4 SWAP3 SWAP2 SWAP1 PUSH3 0x12DB JUMP JUMPDEST PUSH1 0x40 MLOAD DUP1 SWAP2 SUB SWAP1 LOG1 JUMPDEST POP POP POP POP POP POP POP POP POP POP POP POP POP POP PUSH3 0x4F1 PUSH8 0x4EE746F17D0F90FC PUSH1 0xC0 SHL PUSH3 0xEA2 PUSH1 0x20 SHL PUSH1 0x20 SHR JUMP JUMPDEST PUSH3 0x50D PUSH8 0xA01AFEF63D8BA454 PUSH1 0xC0 SHL PUSH3 0xEA2 PUSH1 0x20 SHL PUSH1 0x20 SHR JUMP JUMPDEST PUSH3 0x529 PUSH8 0xD4C664F17BDFAF56 PUSH1 0xC0 SHL PUSH3 0xEA2 PUSH1 0x20 SHL PUSH1 0x20 SHR JUMP JUMPDEST PUSH1 0x0 PUSH20 0xFFFFFFFFFFFFFFFFFFFFFFFFFFFFFFFFFFFFFFFF AND DUP12 PUSH20 0xFFFFFFFFFFFFFFFFFFFFFFFFFFFFFFFFFFFFFFFF AND SUB PUSH3 0x5C8 JUMPI PUSH3 0x57A PUSH8 0x377703118D54D049 PUSH1 0xC0 SHL PUSH3 0xEA2 PUSH1 0x20 SHL PUSH1 0x20 SHR JUMP JUMPDEST PUSH3 0x596 PUSH8 0xB59215B461D5F41C PUSH1 0xC0 SHL PUSH3 0xEA2 PUSH1 0x20 SHL PUSH1 0x20 SHR JUMP JUMPDEST PUSH1 0x40 MLOAD PUSH32 0xD92E233D00000000000000000000000000000000000000000000000000000000 DUP2 MSTORE PUSH1 0x4 ADD PUSH1 0x40 MLOAD DUP1 SWAP2 SUB SWAP1 REVERT JUMPDEST PUSH3 0x5E4 PUSH8 0x6EC7C2D04CFBDF7A PUSH1 0xC0 SHL PUSH3 0xEA2 PUSH1 0x20 SHL PUSH1 0x20 SHR JUMP JUMPDEST PUSH3 0x600 PUSH8 0x8C8174FC58A1102C PUSH1 0xC0 SHL PUSH3 0xEA2 PUSH1 0x20 SHL PUSH1 0x20 SHR JUMP JUMPDEST PUSH3 0x610 PUSH3 0x661 PUSH1 0x20 SHL PUSH1 0x20 SHR JUMP JUMPDEST PUSH1 0x7 PUSH1 0x0 PUSH2 0x100 EXP DUP2 SLOAD DUP2 PUSH20 0xFFFFFFFFFFFFFFFFFFFFFFFFFFFFFFFFFFFFFFFF MUL NOT AND SWAP1 DUP4 PUSH20 0xFFFFFFFFFFFFFFFFFFFFFFFFFFFFFFFFFFFFFFFF AND MUL OR SWAP1 SSTORE POP POP POP POP POP POP POP POP POP POP POP POP PUSH3 0x13BA JUMP JUMPDEST PUSH1 0x0 CALLER SWAP1 POP SWAP1 JUMP JUMPDEST PUSH1 0x0 DUP1 PUSH1 0x0 SWAP1 SLOAD SWAP1 PUSH2 0x100 EXP SWAP1 DIV PUSH20 0xFFFFFFFFFFFFFFFFFFFFFFFFFFFFFFFFFFFFFFFF AND SWAP1 POP DUP2 PUSH1 0x0 DUP1 PUSH2 0x100 EXP DUP2 SLOAD DUP2 PUSH20 0xFFFFFFFFFFFFFFFFFFFFFFFFFFFFFFFFFFFFFFFF MUL NOT AND SWAP1 DUP4 PUSH20 0xFFFFFFFFFFFFFFFFFFFFFFFFFFFFFFFFFFFFFFFF AND MUL OR SWAP1 SSTORE POP DUP2 PUSH20 0xFFFFFFFFFFFFFFFFFFFFFFFFFFFFFFFFFFFFFFFF AND DUP2 PUSH20 0xFFFFFFFFFFFFFFFFFFFFFFFFFFFFFFFFFFFFFFFF AND PUSH32 0x8BE0079C531659141344CD1FD0A4F28419497F9722A3DAAFE3B4186F6B6457E0 PUSH1 0x40 MLOAD PUSH1 0x40 MLOAD DUP1 SWAP2 SUB SWAP1 LOG3 POP POP JUMP JUMPDEST POP JUMP JUMPDEST PUSH3 0x74C PUSH8 0x7AEE11247D61FDF5 PUSH1 0xC0 SHL PUSH3 0x72D PUSH1 0x20 SHL PUSH1 0x20 SHR JUMP JUMPDEST PUSH3 0x768 PUSH8 0xB55E8DB1A985DEA3 PUSH1 0xC0 SHL PUSH3 0x72D PUSH1 0x20 SHL PUSH1 0x20 SHR JUMP JUMPDEST PUSH3 0x784 PUSH8 0xD9812DE961715A0A PUSH1 0xC0 SHL PUSH3 0x72D PUSH1 0x20 SHL PUSH1 0x20 SHR JUMP JUMPDEST DUP7 PUSH1 0xFF AND PUSH1 0x2 PUSH1 0x0 ADD PUSH1 0x1 SWAP1 SLOAD SWAP1 PUSH2 0x100 EXP SWAP1 DIV PUSH1 0xFF AND PUSH1 0xFF AND EQ PUSH3 0x800 JUMPI PUSH3 0x7C0 PUSH8 0x47CD2D0E89C561AC PUSH1 0xC0 SHL PUSH3 0x72D PUSH1 0x20 SHL PUSH1 0x20 SHR JUMP JUMPDEST PUSH3 0x7DC PUSH8 0xC2EE2098C76B8BC9 PUSH1 0xC0 SHL PUSH3 0x72D PUSH1 0x20 SHL PUSH1 0x20 SHR JUMP JUMPDEST DUP7 PUSH1 0x2 PUSH1 0x0 ADD PUSH1 0x1 PUSH2 0x100 EXP DUP2 SLOAD DUP2 PUSH1 0xFF MUL NOT AND SWAP1 DUP4 PUSH1 0xFF AND MUL OR SWAP1 SSTORE POP PUSH3 0x81D JUMP JUMPDEST PUSH3 0x81C PUSH8 0xA1C1A9373520FC24 PUSH1 0xC0 SHL PUSH3 0x72D PUSH1 0x20 SHL PUSH1 0x20 SHR JUMP JUMPDEST JUMPDEST PUSH3 0x839 PUSH8 0x1503BD0E83EA35F2 PUSH1 0xC0 SHL PUSH3 0x72D PUSH1 0x20 SHL PUSH1 0x20 SHR JUMP JUMPDEST PUSH3 0x855 PUSH8 0x6F99511BAB31C6FE PUSH1 0xC0 SHL PUSH3 0x72D PUSH1 0x20 SHL PUSH1 0x20 SHR JUMP JUMPDEST DUP6 PUSH1 0xFF AND PUSH1 0x2 PUSH1 0x0 ADD PUSH1 0x2 SWAP1 SLOAD SWAP1 PUSH2 0x100 EXP SWAP1 DIV PUSH1 0xFF AND PUSH1 0xFF AND EQ PUSH3 0x8D1 JUMPI PUSH3 0x891 PUSH8 0xDB137FAE7693CF95 PUSH1 0xC0 SHL PUSH3 0x72D PUSH1 0x20 SHL PUSH1 0x20 SHR JUMP JUMPDEST PUSH3 0x8AD PUSH8 0x6459650ECBF074CE PUSH1 0xC0 SHL PUSH3 0x72D PUSH1 0x20 SHL PUSH1 0x20 SHR JUMP JUMPDEST DUP6 PUSH1 0x2 PUSH1 0x0 ADD PUSH1 0x2 PUSH2 0x100 EXP DUP2 SLOAD DUP2 PUSH1 0xFF MUL NOT AND SWAP1 DUP4 PUSH1 0xFF AND MUL OR SWAP1 SSTORE POP PUSH3 0x8EE JUMP JUMPDEST PUSH3 0x8ED PUSH8 0x4A1FF3C50923213E PUSH1 0xC0 SHL PUSH3 0x72D PUSH1 0x20 SHL PUSH1 0x20 SHR JUMP JUMPDEST JUMPDEST PUSH3 0x90A PUSH8 0x3C4B0E4AE43FCF6C PUSH1 0xC0 SHL PUSH3 0x72D PUSH1 0x20 SHL PUSH1 0x20 SHR JUMP JUMPDEST PUSH3 0x926 PUSH8 0x2A00A9920A47076A PUSH1 0xC0 SHL PUSH3 0x72D PUSH1 0x20 SHL PUSH1 0x20 SHR JUMP JUMPDEST PUSH1 0x0 DUP6 EQ DUP1 ISZERO PUSH3 0x93A JUMPI POP PUSH1 0x0 DUP9 PUSH1 0xFF AND GT JUMPDEST ISZERO PUSH3 0x9E9 JUMPI PUSH3 0x95C PUSH8 0x19E4F52F80279392 PUSH1 0xC0 SHL PUSH3 0x72D PUSH1 0x20 SHL PUSH1 0x20 SHR JUMP JUMPDEST PUSH3 0x978 PUSH8 0x7F8206A2F1E2E50A PUSH1 0xC0 SHL PUSH3 0x72D PUSH1 0x20 SHL PUSH1 0x20 SHR JUMP JUMPDEST DUP8 PUSH1 0x2 PUSH1 0x0 ADD PUSH1 0x0 PUSH2 0x100 EXP DUP2 SLOAD DUP2 PUSH1 0xFF MUL NOT AND SWAP1 DUP4 PUSH1 0xFF AND MUL OR SWAP1 SSTORE POP PUSH3 0x9B2 PUSH8 0xFAF34FBA89F731D8 PUSH1 0xC0 SHL PUSH3 0x72D PUSH1 0x20 SHL PUSH1 0x20 SHR JUMP JUMPDEST PUSH1 0x0 PUSH1 0x2 PUSH1 0x3 ADD PUSH1 0x0 PUSH2 0x100 EXP DUP2 SLOAD DUP2 PUSH1 0xFF MUL NOT AND SWAP1 DUP4 PUSH1 0x2 DUP2 GT ISZERO PUSH3 0x9DE JUMPI PUSH3 0x9DD PUSH3 0x138B JUMP JUMPDEST JUMPDEST MUL OR SWAP1 SSTORE POP PUSH3 0xBFC JUMP JUMPDEST PUSH3 0xA05 PUSH8 0xE2370B6ED311968A PUSH1 0xC0 SHL PUSH3 0x72D PUSH1 0x20 SHL PUSH1 0x20 SHR JUMP JUMPDEST PUSH3 0xA21 PUSH8 0xF9CFBCF47C245666 PUSH1 0xC0 SHL PUSH3 0x72D PUSH1 0x20 SHL PUSH1 0x20 SHR JUMP JUMPDEST PUSH1 0x1 DUP6 SUB PUSH3 0xABE JUMPI PUSH3 0xA46 PUSH8 0x936AC0771EC70D75 PUSH1 0xC0 SHL PUSH3 0x72D PUSH1 0x20 SHL PUSH1 0x20 SHR JUMP JUMPDEST PUSH3 0xA62 PUSH8 0x8F134F30BDFB3A51 PUSH1 0xC0 SHL PUSH3 0x72D PUSH1 0x20 SHL PUSH1 0x20 SHR JUMP JUMPDEST DUP4 PUSH1 0x2 DUP1 ADD DUP2 SWAP1 SSTORE POP PUSH3 0xA87 PUSH8 0x225986C418215264 PUSH1 0xC0 SHL PUSH3 0x72D PUSH1 0x20 SHL PUSH1 0x20 SHR JUMP JUMPDEST PUSH1 0x1 PUSH1 0x2 PUSH1 0x3 ADD PUSH1 0x0 PUSH2 0x100 EXP DUP2 SLOAD DUP2 PUSH1 0xFF MUL NOT AND SWAP1 DUP4 PUSH1 0x2 DUP2 GT ISZERO PUSH3 0xAB3 JUMPI PUSH3 0xAB2 PUSH3 0x138B JUMP JUMPDEST JUMPDEST MUL OR SWAP1 SSTORE POP PUSH3 0xBFB JUMP JUMPDEST PUSH3 0xADA PUSH8 0xC385AC3F7A6DA3CB PUSH1 0xC0 SHL PUSH3 0x72D PUSH1 0x20 SHL PUSH1 0x20 SHR JUMP JUMPDEST PUSH3 0xAF6 PUSH8 0x5FCF3523B8B6CEAE PUSH1 0xC0 SHL PUSH3 0x72D PUSH1 0x20 SHL PUSH1 0x20 SHR JUMP JUMPDEST PUSH1 0x0 DUP4 GT ISZERO PUSH3 0xBDD JUMPI PUSH3 0xB1C PUSH8 0x4DB4CA7F1AC42364 PUSH1 0xC0 SHL PUSH3 0x72D PUSH1 0x20 SHL PUSH1 0x20 SHR JUMP JUMPDEST PUSH3 0xB38 PUSH8 0x65C800C3C300EF70 PUSH1 0xC0 SHL PUSH3 0x72D PUSH1 0x20 SHL PUSH1 0x20 SHR JUMP JUMPDEST PUSH3 0xB54 PUSH8 0xC3E9DEF9FE5182C9 PUSH1 0xC0 SHL PUSH3 0x72D PUSH1 0x20 SHL PUSH1 0x20 SHR JUMP JUMPDEST PUSH3 0xB65 DUP4 PUSH3 0xEA5 PUSH1 0x20 SHL PUSH1 0x20 SHR JUMP JUMPDEST PUSH3 0xB81 PUSH8 0xDB324A2DEE3585FA PUSH1 0xC0 SHL PUSH3 0x72D PUSH1 0x20 SHL PUSH1 0x20 SHR JUMP JUMPDEST DUP3 PUSH1 0x2 PUSH1 0x1 ADD DUP2 SWAP1 SSTORE POP PUSH3 0xBA7 PUSH8 0xEDC4255CCF1DD1DB PUSH1 0xC0 SHL PUSH3 0x72D PUSH1 0x20 SHL PUSH1 0x20 SHR JUMP JUMPDEST PUSH1 0x2 DUP1 PUSH1 0x3 ADD PUSH1 0x0 PUSH2 0x100 EXP DUP2 SLOAD DUP2 PUSH1 0xFF MUL NOT AND SWAP1 DUP4 PUSH1 0x2 DUP2 GT ISZERO PUSH3 0xBD2 JUMPI PUSH3 0xBD1 PUSH3 0x138B JUMP JUMPDEST JUMPDEST MUL OR SWAP1 SSTORE POP PUSH3 0xBFA JUMP JUMPDEST PUSH3 0xBF9 PUSH8 0xBE9A00D901988064 PUSH1 0xC0 SHL PUSH3 0x72D PUSH1 0x20 SHL PUSH1 0x20 SHR JUMP JUMPDEST JUMPDEST JUMPDEST JUMPDEST PUSH3 0xC18 PUSH8 0x5053FF483BE1644D PUSH1 0xC0 SHL PUSH3 0x72D PUSH1 0x20 SHL PUSH1 0x20 SHR JUMP JUMPDEST PUSH3 0xC34 PUSH8 0x23FE860C4FF4AD6E PUSH1 0xC0 SHL PUSH3 0x72D PUSH1 0x20 SHL PUSH1 0x20 SHR JUMP JUMPDEST DUP2 PUSH20 0xFFFFFFFFFFFFFFFFFFFFFFFFFFFFFFFFFFFFFFFF AND PUSH1 0x2 PUSH1 0x3 ADD PUSH1 0x1 SWAP1 SLOAD SWAP1 PUSH2 0x100 EXP SWAP1 DIV PUSH20 0xFFFFFFFFFFFFFFFFFFFFFFFFFFFFFFFFFFFFFFFF AND PUSH20 0xFFFFFFFFFFFFFFFFFFFFFFFFFFFFFFFFFFFFFFFF AND EQ PUSH3 0xD0F JUMPI PUSH3 0xCA9 PUSH8 0x89F308B50F12175 PUSH1 0xC0 SHL PUSH3 0x72D PUSH1 0x20 SHL PUSH1 0x20 SHR JUMP JUMPDEST PUSH3 0xCC5 PUSH8 0x8E75D0CE80780185 PUSH1 0xC0 SHL PUSH3 0x72D PUSH1 0x20 SHL PUSH1 0x20 SHR JUMP JUMPDEST DUP2 PUSH1 0x2 PUSH1 0x3 ADD PUSH1 0x1 PUSH2 0x100 EXP DUP2 SLOAD DUP2 PUSH20 0xFFFFFFFFFFFFFFFFFFFFFFFFFFFFFFFFFFFFFFFF MUL NOT AND SWAP1 DUP4 PUSH20 0xFFFFFFFFFFFFFFFFFFFFFFFFFFFFFFFFFFFFFFFF AND MUL OR SWAP1 SSTORE POP PUSH3 0xD2C JUMP JUMPDEST PUSH3 0xD2B PUSH8 0x200BF049EC3A3366 PUSH1 0xC0 SHL PUSH3 0x72D PUSH1 0x20 SHL PUSH1 0x20 SHR JUMP JUMPDEST JUMPDEST PUSH3 0xD48 PUSH8 0x6C805FB24582D530 PUSH1 0xC0 SHL PUSH3 0x72D PUSH1 0x20 SHL PUSH1 0x20 SHR JUMP JUMPDEST PUSH3 0xD64 PUSH8 0xAE6640B4CB2C3156 PUSH1 0xC0 SHL PUSH3 0x72D PUSH1 0x20 SHL PUSH1 0x20 SHR JUMP JUMPDEST DUP1 PUSH20 0xFFFFFFFFFFFFFFFFFFFFFFFFFFFFFFFFFFFFFFFF AND PUSH1 0x2 PUSH1 0x4 ADD PUSH1 0x0 SWAP1 SLOAD SWAP1 PUSH2 0x100 EXP SWAP1 DIV PUSH20 0xFFFFFFFFFFFFFFFFFFFFFFFFFFFFFFFFFFFFFFFF AND PUSH20 0xFFFFFFFFFFFFFFFFFFFFFFFFFFFFFFFFFFFFFFFF AND EQ ISZERO DUP1 ISZERO PUSH3 0xDF3 JUMPI POP PUSH1 0x0 PUSH20 0xFFFFFFFFFFFFFFFFFFFFFFFFFFFFFFFFFFFFFFFF AND DUP2 PUSH20 0xFFFFFFFFFFFFFFFFFFFFFFFFFFFFFFFFFFFFFFFF AND EQ ISZERO JUMPDEST ISZERO PUSH3 0xE7B JUMPI PUSH3 0xE15 PUSH8 0x9F834E10961218CD PUSH1 0xC0 SHL PUSH3 0x72D PUSH1 0x20 SHL PUSH1 0x20 SHR JUMP JUMPDEST PUSH3 0xE31 PUSH8 0x78EFB028819602DD PUSH1 0xC0 SHL PUSH3 0x72D PUSH1 0x20 SHL PUSH1 0x20 SHR JUMP JUMPDEST DUP1 PUSH1 0x2 PUSH1 0x4 ADD PUSH1 0x0 PUSH2 0x100 EXP DUP2 SLOAD DUP2 PUSH20 0xFFFFFFFFFFFFFFFFFFFFFFFFFFFFFFFFFFFFFFFF MUL NOT AND SWAP1 DUP4 PUSH20 0xFFFFFFFFFFFFFFFFFFFFFFFFFFFFFFFFFFFFFFFF AND MUL OR SWAP1 SSTORE POP PUSH3 0xE98 JUMP JUMPDEST PUSH3 0xE97 PUSH8 0x569E29691FC03C3B PUSH1 0xC0 SHL PUSH3 0x72D PUSH1 0x20 SHL PUSH1 0x20 SHR JUMP JUMPDEST JUMPDEST POP POP POP POP POP POP POP POP JUMP JUMPDEST POP JUMP JUMPDEST PUSH3 0xEC1 PUSH8 0xF28F16F9F764785D PUSH1 0xC0 SHL PUSH3 0x72D PUSH1 0x20 SHL PUSH1 0x20 SHR JUMP JUMPDEST PUSH3 0xEDD PUSH8 0x801A8DBCB618EAE0 PUSH1 0xC0 SHL PUSH3 0x72D PUSH1 0x20 SHL PUSH1 0x20 SHR JUMP JUMPDEST PUSH3 0xEF9 PUSH8 0xC1F4453DCF1C7F7F PUSH1 0xC0 SHL PUSH3 0x72D PUSH1 0x20 SHL PUSH1 0x20 SHR JUMP JUMPDEST PUSH1 0x80 MLOAD DUP2 GT ISZERO PUSH3 0xF6E JUMPI PUSH3 0xF20 PUSH8 0xABB8A729D509B2FB PUSH1 0xC0 SHL PUSH3 0x72D PUSH1 0x20 SHL PUSH1 0x20 SHR JUMP JUMPDEST PUSH3 0xF3C PUSH8 0x16777E7791441E3B PUSH1 0xC0 SHL PUSH3 0x72D PUSH1 0x20 SHL PUSH1 0x20 SHR JUMP JUMPDEST PUSH1 0x40 MLOAD PUSH32 0xDD27E1DB00000000000000000000000000000000000000000000000000000000 DUP2 MSTORE PUSH1 0x4 ADD PUSH1 0x40 MLOAD DUP1 SWAP2 SUB SWAP1 REVERT JUMPDEST PUSH3 0xF8A PUSH8 0xD93260F0DDB641E6 PUSH1 0xC0 SHL PUSH3 0x72D PUSH1 0x20 SHL PUSH1 0x20 SHR JUMP JUMPDEST POP JUMP JUMPDEST PUSH1 0x0 DUP1 REVERT JUMPDEST PUSH1 0x0 PUSH20 0xFFFFFFFFFFFFFFFFFFFFFFFFFFFFFFFFFFFFFFFF DUP3 AND SWAP1 POP SWAP2 SWAP1 POP JUMP JUMPDEST PUSH1 0x0 PUSH3 0xFBF DUP3 PUSH3 0xF92 JUMP JUMPDEST SWAP1 POP SWAP2 SWAP1 POP JUMP JUMPDEST PUSH3 0xFD1 DUP2 PUSH3 0xFB2 JUMP JUMPDEST DUP2 EQ PUSH3 0xFDD JUMPI PUSH1 0x0 DUP1 REVERT JUMPDEST POP JUMP JUMPDEST PUSH1 0x0 DUP2 MLOAD SWAP1 POP PUSH3 0xFF1 DUP2 PUSH3 0xFC6 JUMP JUMPDEST SWAP3 SWAP2 POP POP JUMP JUMPDEST PUSH1 0x0 DUP2 ISZERO ISZERO SWAP1 POP SWAP2 SWAP1 POP JUMP JUMPDEST PUSH3 0x100E DUP2 PUSH3 0xFF7 JUMP JUMPDEST DUP2 EQ PUSH3 0x101A JUMPI PUSH1 0x0 DUP1 REVERT JUMPDEST POP JUMP JUMPDEST PUSH1 0x0 DUP2 MLOAD SWAP1 POP PUSH3 0x102E DUP2 PUSH3 0x1003 JUMP JUMPDEST SWAP3 SWAP2 POP POP JUMP JUMPDEST PUSH1 0x0 PUSH1 0xFF DUP3 AND SWAP1 POP SWAP2 SWAP1 POP JUMP JUMPDEST PUSH3 0x104C DUP2 PUSH3 0x1034 JUMP JUMPDEST DUP2 EQ PUSH3 0x1058 JUMPI PUSH1 0x0 DUP1 REVERT JUMPDEST POP JUMP JUMPDEST PUSH1 0x0 DUP2 MLOAD SWAP1 POP PUSH3 0x106C DUP2 PUSH3 0x1041 JUMP JUMPDEST SWAP3 SWAP2 POP POP JUMP JUMPDEST PUSH1 0x0 DUP2 SWAP1 POP SWAP2 SWAP1 POP JUMP JUMPDEST PUSH3 0x1087 DUP2 PUSH3 0x1072 JUMP JUMPDEST DUP2 EQ PUSH3 0x1093 JUMPI PUSH1 0x0 DUP1 REVERT JUMPDEST POP JUMP JUMPDEST PUSH1 0x0 DUP2 MLOAD SWAP1 POP PUSH3 0x10A7 DUP2 PUSH3 0x107C JUMP JUMPDEST SWAP3 SWAP2 POP POP JUMP JUMPDEST PUSH1 0x0 PUSH3 0x10BA DUP3 PUSH3 0xF92 JUMP JUMPDEST SWAP1 POP SWAP2 SWAP1 POP JUMP JUMPDEST PUSH3 0x10CC DUP2 PUSH3 0x10AD JUMP JUMPDEST DUP2 EQ PUSH3 0x10D8 JUMPI PUSH1 0x0 DUP1 REVERT JUMPDEST POP JUMP JUMPDEST PUSH1 0x0 DUP2 MLOAD SWAP1 POP PUSH3 0x10EC DUP2 PUSH3 0x10C1 JUMP JUMPDEST SWAP3 SWAP2 POP POP JUMP JUMPDEST PUSH1 0x0 DUP1 PUSH1 0x0 DUP1 PUSH1 0x0 DUP1 PUSH1 0x0 DUP1 PUSH1 0x0 DUP1 PUSH1 0x0 PUSH2 0x160 DUP13 DUP15 SUB SLT ISZERO PUSH3 0x111B JUMPI PUSH3 0x111A PUSH3 0xF8D JUMP JUMPDEST JUMPDEST PUSH1 0x0 PUSH3 0x112B DUP15 DUP3 DUP16 ADD PUSH3 0xFE0 JUMP JUMPDEST SWAP12 POP POP PUSH1 0x20 PUSH3 0x113E DUP15 DUP3 DUP16 ADD PUSH3 0x101D JUMP JUMPDEST SWAP11 POP POP PUSH1 0x40 PUSH3 0x1151 DUP15 DUP3 DUP16 ADD PUSH3 0x105B JUMP JUMPDEST SWAP10 POP POP PUSH1 0x60 PUSH3 0x1164 DUP15 DUP3 DUP16 ADD PUSH3 0x105B JUMP JUMPDEST SWAP9 POP POP PUSH1 0x80 PUSH3 0x1177 DUP15 DUP3 DUP16 ADD PUSH3 0x105B JUMP JUMPDEST SWAP8 POP POP PUSH1 0xA0 PUSH3 0x118A DUP15 DUP3 DUP16 ADD PUSH3 0x1096 JUMP JUMPDEST SWAP7 POP POP PUSH1 0xC0 PUSH3 0x119D DUP15 DUP3 DUP16 ADD PUSH3 0x1096 JUMP JUMPDEST SWAP6 POP POP PUSH1 0xE0 PUSH3 0x11B0 DUP15 DUP3 DUP16 ADD PUSH3 0x1096 JUMP JUMPDEST SWAP5 POP POP PUSH2 0x100 PUSH3 0x11C4 DUP15 DUP3 DUP16 ADD PUSH3 0x1096 JUMP JUMPDEST SWAP4 POP POP PUSH2 0x120 PUSH3 0x11D8 DUP15 DUP3 DUP16 ADD PUSH3 0x10DB JUMP JUMPDEST SWAP3 POP POP PUSH2 0x140 PUSH3 0x11EC DUP15 DUP3 DUP16 ADD PUSH3 0x10DB JUMP JUMPDEST SWAP2 POP POP SWAP3 SWAP6 SWAP9 SWAP12 POP SWAP3 SWAP6 SWAP9 SWAP12 SWAP1 SWAP4 SWAP7 SWAP10 POP JUMP JUMPDEST PUSH32 0x4E487B7100000000000000000000000000000000000000000000000000000000 PUSH1 0x0 MSTORE PUSH1 0x11 PUSH1 0x4 MSTORE PUSH1 0x24 PUSH1 0x0 REVERT JUMPDEST PUSH1 0x0 PUSH3 0x123B DUP3 PUSH3 0x1034 JUMP JUMPDEST SWAP2 POP PUSH3 0x1248 DUP4 PUSH3 0x1034 JUMP JUMPDEST SWAP3 POP DUP3 DUP3 ADD SWAP1 POP PUSH1 0xFF DUP2 GT ISZERO PUSH3 0x1264 JUMPI PUSH3 0x1263 PUSH3 0x11FF JUMP JUMPDEST JUMPDEST SWAP3 SWAP2 POP POP JUMP JUMPDEST PUSH3 0x1275 DUP2 PUSH3 0x1034 JUMP JUMPDEST DUP3 MSTORE POP POP JUMP JUMPDEST PUSH1 0x0 PUSH1 0x40 DUP3 ADD SWAP1 POP PUSH3 0x1292 PUSH1 0x0 DUP4 ADD DUP6 PUSH3 0x126A JUMP JUMPDEST PUSH3 0x12A1 PUSH1 0x20 DUP4 ADD DUP5 PUSH3 0x126A JUMP JUMPDEST SWAP4 SWAP3 POP POP POP JUMP JUMPDEST PUSH3 0x12B3 DUP2 PUSH3 0xFF7 JUMP JUMPDEST DUP3 MSTORE POP POP JUMP JUMPDEST PUSH3 0x12C4 DUP2 PUSH3 0x1072 JUMP JUMPDEST DUP3 MSTORE POP POP JUMP JUMPDEST PUSH3 0x12D5 DUP2 PUSH3 0x10AD JUMP JUMPDEST DUP3 MSTORE POP POP JUMP JUMPDEST PUSH1 0x0 PUSH2 0x140 DUP3 ADD SWAP1 POP PUSH3 0x12F3 PUSH1 0x0 DUP4 ADD DUP14 PUSH3 0x12A8 JUMP JUMPDEST PUSH3 0x1302 PUSH1 0x20 DUP4 ADD DUP13 PUSH3 0x126A JUMP JUMPDEST PUSH3 0x1311 PUSH1 0x40 DUP4 ADD DUP12 PUSH3 0x126A JUMP JUMPDEST PUSH3 0x1320 PUSH1 0x60 DUP4 ADD DUP11 PUSH3 0x126A JUMP JUMPDEST PUSH3 0x132F PUSH1 0x80 DUP4 ADD DUP10 PUSH3 0x12B9 JUMP JUMPDEST PUSH3 0x133E PUSH1 0xA0 DUP4 ADD DUP9 PUSH3 0x12B9 JUMP JUMPDEST PUSH3 0x134D PUSH1 0xC0 DUP4 ADD DUP8 PUSH3 0x12B9 JUMP JUMPDEST PUSH3 0x135C PUSH1 0xE0 DUP4 ADD DUP7 PUSH3 0x12CA JUMP JUMPDEST PUSH3 0x136C PUSH2 0x100 DUP4 ADD DUP6 PUSH3 0x12CA JUMP JUMPDEST PUSH3 0x137C PUSH2 0x120 DUP4 ADD DUP5 PUSH3 0x12B9 JUMP JUMPDEST SWAP12 SWAP11 POP POP POP POP POP POP POP POP POP POP POP JUMP JUMPDEST PUSH32 0x4E487B7100000000000000000000000000000000000000000000000000000000 PUSH1 0x0 MSTORE PUSH1 0x21 PUSH1 0x4 MSTORE PUSH1 0x24 PUSH1 0x0 REVERT JUMPDEST PUSH1 0x80 MLOAD PUSH1 0xA0 MLOAD PUSH2 0x5B14 PUSH3 0x142D PUSH1 0x0 CODECOPY PUSH1 0x0 DUP2 DUP2 PUSH2 0x11E7 ADD MSTORE DUP2 DUP2 PUSH2 0x1706 ADD MSTORE DUP2 DUP2 PUSH2 0x191B ADD MSTORE DUP2 DUP2 PUSH2 0x1B15 ADD MSTORE DUP2 DUP2 PUSH2 0x1DBD ADD MSTORE DUP2 DUP2 PUSH2 0x1FB9 ADD MSTORE DUP2 DUP2 PUSH2 0x2856 ADD MSTORE DUP2 DUP2 PUSH2 0x2D8D ADD MSTORE DUP2 DUP2 PUSH2 0x3CA3 ADD MSTORE DUP2 DUP2 PUSH2 0x3ECE ADD MSTORE DUP2 DUP2 PUSH2 0x42BB ADD MSTORE PUSH2 0x44EF ADD MSTORE PUSH1 0x0 PUSH2 0x4742 ADD MSTORE PUSH2 0x5B14 PUSH1 0x0 RETURN INVALID PUSH1 0x80 PUSH1 0x40 MSTORE PUSH1 0x4 CALLDATASIZE LT PUSH2 0xFE JUMPI PUSH1 0x0 CALLDATALOAD PUSH1 0xE0 SHR DUP1 PUSH4 0x8DA5CB5B GT PUSH2 0x95 JUMPI DUP1 PUSH4 0xB26E099F GT PUSH2 0x64 JUMPI DUP1 PUSH4 0xB26E099F EQ PUSH2 0x2CB JUMPI DUP1 PUSH4 0xC72304AC EQ PUSH2 0x2E2 JUMPI DUP1 PUSH4 0xE0A66578 EQ PUSH2 0x30D JUMPI DUP1 PUSH4 0xF2FDE38B EQ PUSH2 0x336 JUMPI DUP1 PUSH4 0xFEEA1529 EQ PUSH2 0x35F JUMPI PUSH2 0xFE JUMP JUMPDEST DUP1 PUSH4 0x8DA5CB5B EQ PUSH2 0x22F JUMPI DUP1 PUSH4 0x94ACA02A EQ PUSH2 0x25A JUMPI DUP1 PUSH4 0x9CB71686 EQ PUSH2 0x283 JUMPI DUP1 PUSH4 0x9F23C9E2 EQ PUSH2 0x2AF JUMPI PUSH2 0xFE JUMP JUMPDEST DUP1 PUSH4 0x58A93688 GT PUSH2 0xD1 JUMPI DUP1 PUSH4 0x58A93688 EQ PUSH2 0x19F JUMPI DUP1 PUSH4 0x6A02FCC4 EQ PUSH2 0x1D3 JUMPI DUP1 PUSH4 0x715018A6 EQ PUSH2 0x1EF JUMPI DUP1 PUSH4 0x7C522D28 EQ PUSH2 0x206 JUMPI PUSH2 0xFE JUMP JUMPDEST DUP1 PUSH4 0x94C3159 EQ PUSH2 0x103 JUMPI DUP1 PUSH4 0x37C15626 EQ PUSH2 0x12C JUMPI DUP1 PUSH4 0x529C0970 EQ PUSH2 0x143 JUMPI DUP1 PUSH4 0x5531E774 EQ PUSH2 0x16C JUMPI JUMPDEST PUSH1 0x0 DUP1 REVERT JUMPDEST CALLVALUE DUP1 ISZERO PUSH2 0x10F JUMPI PUSH1 0x0 DUP1 REVERT JUMPDEST POP PUSH2 0x12A PUSH1 0x4 DUP1 CALLDATASIZE SUB DUP2 ADD SWAP1 PUSH2 0x125 SWAP2 SWAP1 PUSH2 0x4C40 JUMP JUMPDEST PUSH2 0x38C JUMP JUMPDEST STOP JUMPDEST CALLVALUE DUP1 ISZERO PUSH2 0x138 JUMPI PUSH1 0x0 DUP1 REVERT JUMPDEST POP PUSH2 0x141 PUSH2 0x728 JUMP JUMPDEST STOP JUMPDEST CALLVALUE DUP1 ISZERO PUSH2 0x14F JUMPI PUSH1 0x0 DUP1 REVERT JUMPDEST POP PUSH2 0x16A PUSH1 0x4 DUP1 CALLDATASIZE SUB DUP2 ADD SWAP1 PUSH2 0x165 SWAP2 SWAP1 PUSH2 0x4D0A JUMP JUMPDEST PUSH2 0xE61 JUMP JUMPDEST STOP JUMPDEST CALLVALUE DUP1 ISZERO PUSH2 0x178 JUMPI PUSH1 0x0 DUP1 REVERT JUMPDEST POP PUSH2 0x181 PUSH2 0x1015 JUMP JUMPDEST PUSH1 0x40 MLOAD PUSH2 0x196 SWAP10 SWAP9 SWAP8 SWAP7 SWAP6 SWAP5 SWAP4 SWAP3 SWAP2 SWAP1 PUSH2 0x4E10 JUMP JUMPDEST PUSH1 0x40 MLOAD DUP1 SWAP2 SUB SWAP1 RETURN JUMPDEST CALLVALUE DUP1 ISZERO PUSH2 0x1AB JUMPI PUSH1 0x0 DUP1 REVERT JUMPDEST POP PUSH2 0x1B4 PUSH2 0x10D2 JUMP JUMPDEST PUSH1 0x40 MLOAD PUSH2 0x1CA SWAP11 SWAP10 SWAP9 SWAP8 SWAP7 SWAP6 SWAP5 SWAP4 SWAP3 SWAP2 SWAP1 PUSH2 0x4EBE JUMP JUMPDEST PUSH1 0x40 MLOAD DUP1 SWAP2 SUB SWAP1 RETURN JUMPDEST PUSH2 0x1ED PUSH1 0x4 DUP1 CALLDATASIZE SUB DUP2 ADD SWAP1 PUSH2 0x1E8 SWAP2 SWAP1 PUSH2 0x4FBC JUMP JUMPDEST PUSH2 0x1226 JUMP JUMPDEST STOP JUMPDEST CALLVALUE DUP1 ISZERO PUSH2 0x1FB JUMPI PUSH1 0x0 DUP1 REVERT JUMPDEST POP PUSH2 0x204 PUSH2 0x21F9 JUMP JUMPDEST STOP JUMPDEST CALLVALUE DUP1 ISZERO PUSH2 0x212 JUMPI PUSH1 0x0 DUP1 REVERT JUMPDEST POP PUSH2 0x22D PUSH1 0x4 DUP1 CALLDATASIZE SUB DUP2 ADD SWAP1 PUSH2 0x228 SWAP2 SWAP1 PUSH2 0x5049 JUMP JUMPDEST PUSH2 0x220D JUMP JUMPDEST STOP JUMPDEST CALLVALUE DUP1 ISZERO PUSH2 0x23B JUMPI PUSH1 0x0 DUP1 REVERT JUMPDEST POP PUSH2 0x244 PUSH2 0x241D JUMP JUMPDEST PUSH1 0x40 MLOAD PUSH2 0x251 SWAP2 SWAP1 PUSH2 0x5076 JUMP JUMPDEST PUSH1 0x40 MLOAD DUP1 SWAP2 SUB SWAP1 RETURN JUMPDEST CALLVALUE DUP1 ISZERO PUSH2 0x266 JUMPI PUSH1 0x0 DUP1 REVERT JUMPDEST POP PUSH2 0x281 PUSH1 0x4 DUP1 CALLDATASIZE SUB DUP2 ADD SWAP1 PUSH2 0x27C SWAP2 SWAP1 PUSH2 0x5049 JUMP JUMPDEST PUSH2 0x2446 JUMP JUMPDEST STOP JUMPDEST CALLVALUE DUP1 ISZERO PUSH2 0x28F JUMPI PUSH1 0x0 DUP1 REVERT JUMPDEST POP PUSH2 0x298 PUSH2 0x2656 JUMP JUMPDEST PUSH1 0x40 MLOAD PUSH2 0x2A6 SWAP3 SWAP2 SWAP1 PUSH2 0x5091 JUMP JUMPDEST PUSH1 0x40 MLOAD DUP1 SWAP2 SUB SWAP1 RETURN JUMPDEST PUSH2 0x2C9 PUSH1 0x4 DUP1 CALLDATASIZE SUB DUP2 ADD SWAP1 PUSH2 0x2C4 SWAP2 SWAP1 PUSH2 0x50BA JUMP JUMPDEST PUSH2 0x26E9 JUMP JUMPDEST STOP JUMPDEST CALLVALUE DUP1 ISZERO PUSH2 0x2D7 JUMPI PUSH1 0x0 DUP1 REVERT JUMPDEST POP PUSH2 0x2E0 PUSH2 0x2FD9 JUMP JUMPDEST STOP JUMPDEST CALLVALUE DUP1 ISZERO PUSH2 0x2EE JUMPI PUSH1 0x0 DUP1 REVERT JUMPDEST POP PUSH2 0x2F7 PUSH2 0x3051 JUMP JUMPDEST PUSH1 0x40 MLOAD PUSH2 0x304 SWAP2 SWAP1 PUSH2 0x5076 JUMP JUMPDEST PUSH1 0x40 MLOAD DUP1 SWAP2 SUB SWAP1 RETURN JUMPDEST CALLVALUE DUP1 ISZERO PUSH2 0x319 JUMPI PUSH1 0x0 DUP1 REVERT JUMPDEST POP PUSH2 0x334 PUSH1 0x4 DUP1 CALLDATASIZE SUB DUP2 ADD SWAP1 PUSH2 0x32F SWAP2 SWAP1 PUSH2 0x5049 JUMP JUMPDEST PUSH2 0x30B7 JUMP JUMPDEST STOP JUMPDEST CALLVALUE DUP1 ISZERO PUSH2 0x342 JUMPI PUSH1 0x0 DUP1 REVERT JUMPDEST POP PUSH2 0x35D PUSH1 0x4 DUP1 CALLDATASIZE SUB DUP2 ADD SWAP1 PUSH2 0x358 SWAP2 SWAP1 PUSH2 0x5049 JUMP JUMPDEST PUSH2 0x327C JUMP JUMPDEST STOP JUMPDEST CALLVALUE DUP1 ISZERO PUSH2 0x36B JUMPI PUSH1 0x0 DUP1 REVERT JUMPDEST POP PUSH2 0x374 PUSH2 0x32FF JUMP JUMPDEST PUSH1 0x40 MLOAD PUSH2 0x383 SWAP4 SWAP3 SWAP2 SWAP1 PUSH2 0x5135 JUMP JUMPDEST PUSH1 0x40 MLOAD DUP1 SWAP2 SUB SWAP1 RETURN JUMPDEST PUSH2 0x3A0 PUSH8 0x2AA7262B05BBDB63 PUSH1 0xC0 SHL PUSH2 0x3353 JUMP JUMPDEST PUSH2 0x3A8 PUSH2 0x3356 JUMP JUMPDEST PUSH2 0x3BC PUSH8 0x3DFED242CA6579B3 PUSH1 0xC0 SHL PUSH2 0x3353 JUMP JUMPDEST PUSH2 0x3D0 PUSH8 0x84F35E033DF120A6 PUSH1 0xC0 SHL PUSH2 0x3353 JUMP JUMPDEST DUP6 PUSH2 0x3E5 PUSH8 0x1A52F4332212EBC8 PUSH1 0xC0 SHL PUSH2 0x3353 JUMP JUMPDEST PUSH2 0x3F9 PUSH8 0xC9FF50FBCE78A1D6 PUSH1 0xC0 SHL PUSH2 0x3353 JUMP JUMPDEST PUSH2 0x40D PUSH8 0xF42C02838A2D1107 PUSH1 0xC0 SHL PUSH2 0x3353 JUMP JUMPDEST PUSH2 0x3E8 DUP2 PUSH1 0xFF AND GT ISZERO PUSH2 0x474 JUMPI PUSH2 0x42E PUSH8 0x87EF6A37ECA4B001 PUSH1 0xC0 SHL PUSH2 0x3353 JUMP JUMPDEST PUSH2 0x442 PUSH8 0xD47AF1BC757DF503 PUSH1 0xC0 SHL PUSH2 0x3353 JUMP JUMPDEST PUSH1 0x40 MLOAD PUSH32 0xEAF5947400000000000000000000000000000000000000000000000000000000 DUP2 MSTORE PUSH1 0x4 ADD PUSH1 0x40 MLOAD DUP1 SWAP2 SUB SWAP1 REVERT JUMPDEST PUSH2 0x488 PUSH8 0xE4A415A19974CCFD PUSH1 0xC0 SHL PUSH2 0x3353 JUMP JUMPDEST PUSH2 0x49C PUSH8 0xE6D1623AB081E582 PUSH1 0xC0 SHL PUSH2 0x3353 JUMP JUMPDEST PUSH2 0x4B0 PUSH8 0x751A2285B9CD1943 PUSH1 0xC0 SHL PUSH2 0x3353 JUMP JUMPDEST PUSH2 0x4C4 PUSH8 0xFA38FB19B771FA0E PUSH1 0xC0 SHL PUSH2 0x3353 JUMP JUMPDEST DUP9 DUP9 PUSH2 0x4DA PUSH8 0x6EB38EFE8E13E845 PUSH1 0xC0 SHL PUSH2 0x3353 JUMP JUMPDEST PUSH2 0x4EE PUSH8 0xC36A409533803101 PUSH1 0xC0 SHL PUSH2 0x3353 JUMP JUMPDEST PUSH2 0x502 PUSH8 0xEF284B8F51D91F5B PUSH1 0xC0 SHL PUSH2 0x3353 JUMP JUMPDEST PUSH1 0x64 PUSH1 0xFF AND DUP2 DUP4 PUSH2 0x513 SWAP2 SWAP1 PUSH2 0x519B JUMP JUMPDEST PUSH1 0xFF AND EQ PUSH2 0x582 JUMPI PUSH2 0x52F PUSH8 0x6DA70845DCF79DB6 PUSH1 0xC0 SHL PUSH2 0x3353 JUMP JUMPDEST PUSH2 0x543 PUSH8 0xB5A632C7474EF5C8 PUSH1 0xC0 SHL PUSH2 0x3353 JUMP JUMPDEST DUP2 DUP2 PUSH1 0x40 MLOAD PUSH32 0x8EFE3FD500000000000000000000000000000000000000000000000000000000 DUP2 MSTORE PUSH1 0x4 ADD PUSH2 0x579 SWAP3 SWAP2 SWAP1 PUSH2 0x51D0 JUMP JUMPDEST PUSH1 0x40 MLOAD DUP1 SWAP2 SUB SWAP1 REVERT JUMPDEST PUSH2 0x596 PUSH8 0x5AAEC8A97298F6AA PUSH1 0xC0 SHL PUSH2 0x3353 JUMP JUMPDEST PUSH2 0x5AA PUSH8 0x2AD26AC8C242BEA5 PUSH1 0xC0 SHL PUSH2 0x3353 JUMP JUMPDEST PUSH2 0x5BE PUSH8 0xAC0ACB1B24877B3C PUSH1 0xC0 SHL PUSH2 0x3353 JUMP JUMPDEST PUSH2 0x5D2 PUSH8 0xBF0D77A33305324E PUSH1 0xC0 SHL PUSH2 0x3353 JUMP JUMPDEST PUSH2 0x5E6 PUSH8 0x803B4435FF10FF44 PUSH1 0xC0 SHL PUSH2 0x3353 JUMP JUMPDEST PUSH2 0x5FA PUSH8 0xFD6633A4D7DF2E2 PUSH1 0xC0 SHL PUSH2 0x3353 JUMP JUMPDEST PUSH1 0x2 PUSH1 0x0 ADD PUSH1 0x3 SWAP1 SLOAD SWAP1 PUSH2 0x100 EXP SWAP1 DIV PUSH1 0xFF AND PUSH2 0x65C JUMPI PUSH2 0x625 PUSH8 0xEC3D522782E00DC7 PUSH1 0xC0 SHL PUSH2 0x3353 JUMP JUMPDEST PUSH2 0x639 PUSH8 0x83E74EAF0D6399EC PUSH1 0xC0 SHL PUSH2 0x3353 JUMP JUMPDEST PUSH1 0x1 PUSH1 0x2 PUSH1 0x0 ADD PUSH1 0x3 PUSH2 0x100 EXP DUP2 SLOAD DUP2 PUSH1 0xFF MUL NOT AND SWAP1 DUP4 ISZERO ISZERO MUL OR SWAP1 SSTORE POP PUSH2 0x671 JUMP JUMPDEST PUSH2 0x670 PUSH8 0xD883EBE0EF160956 PUSH1 0xC0 SHL PUSH2 0x3353 JUMP JUMPDEST JUMPDEST PUSH2 0x685 PUSH8 0xA8B3DD6AC4F8C005 PUSH1 0xC0 SHL PUSH2 0x3353 JUMP JUMPDEST PUSH2 0x699 PUSH8 0xC2EDA4BB3E174121 PUSH1 0xC0 SHL PUSH2 0x3353 JUMP JUMPDEST PUSH2 0x6A9 DUP10 DUP13 DUP13 DUP12 DUP12 DUP12 DUP12 DUP12 PUSH2 0x33D4 JUMP JUMPDEST PUSH2 0x6BD PUSH8 0x4BD769B9B6F0CE8C PUSH1 0xC0 SHL PUSH2 0x3353 JUMP JUMPDEST PUSH2 0x6D1 PUSH8 0xD32DB4DB4B601C8 PUSH1 0xC0 SHL PUSH2 0x3353 JUMP JUMPDEST PUSH32 0x2384CD55758CFEA276BC7F0E2E210BE39CC8067F80F2B475D52286FD65D36DB0 DUP13 DUP11 DUP14 DUP14 DUP13 DUP13 DUP13 DUP13 DUP13 TIMESTAMP PUSH1 0x40 MLOAD PUSH2 0x712 SWAP11 SWAP10 SWAP9 SWAP8 SWAP7 SWAP6 SWAP5 SWAP4 SWAP3 SWAP2 SWAP1 PUSH2 0x51F9 JUMP JUMPDEST PUSH1 0x40 MLOAD DUP1 SWAP2 SUB SWAP1 LOG1 POP POP POP POP POP POP POP POP POP POP POP POP JUMP JUMPDEST PUSH2 0x73C PUSH8 0xE55D727D44E706B9 PUSH1 0xC0 SHL PUSH2 0x3353 JUMP JUMPDEST PUSH2 0x744 PUSH2 0x39ED JUMP JUMPDEST PUSH2 0x758 PUSH8 0x70B584D2B331C0B7 PUSH1 0xC0 SHL PUSH2 0x3353 JUMP JUMPDEST PUSH2 0x76C PUSH8 0x11CF9B2E346E936D PUSH1 0xC0 SHL PUSH2 0x3353 JUMP JUMPDEST PUSH2 0x774 PUSH2 0x3A3C JUMP JUMPDEST PUSH2 0x788 PUSH8 0xC54B76E6FF90E2FA PUSH1 0xC0 SHL PUSH2 0x3353 JUMP JUMPDEST PUSH2 0x79C PUSH8 0x441D0D12E2A9B405 PUSH1 0xC0 SHL PUSH2 0x3353 JUMP JUMPDEST PUSH2 0x7B0 PUSH8 0x8D028EC006C65A5F PUSH1 0xC0 SHL PUSH2 0x3353 JUMP JUMPDEST PUSH1 0x2 PUSH1 0x3 ADD PUSH1 0x1 SWAP1 SLOAD SWAP1 PUSH2 0x100 EXP SWAP1 DIV PUSH20 0xFFFFFFFFFFFFFFFFFFFFFFFFFFFFFFFFFFFFFFFF AND PUSH20 0xFFFFFFFFFFFFFFFFFFFFFFFFFFFFFFFFFFFFFFFF AND PUSH2 0x7F4 PUSH2 0x3A3C JUMP JUMPDEST PUSH20 0xFFFFFFFFFFFFFFFFFFFFFFFFFFFFFFFFFFFFFFFF AND EQ ISZERO DUP1 ISZERO PUSH2 0x870 JUMPI POP PUSH1 0x2 PUSH1 0x4 ADD PUSH1 0x0 SWAP1 SLOAD SWAP1 PUSH2 0x100 EXP SWAP1 DIV PUSH20 0xFFFFFFFFFFFFFFFFFFFFFFFFFFFFFFFFFFFFFFFF AND PUSH20 0xFFFFFFFFFFFFFFFFFFFFFFFFFFFFFFFFFFFFFFFF AND PUSH2 0x857 PUSH2 0x3A3C JUMP JUMPDEST PUSH20 0xFFFFFFFFFFFFFFFFFFFFFFFFFFFFFFFFFFFFFFFF AND EQ ISZERO JUMPDEST ISZERO PUSH2 0x8E1 JUMPI PUSH2 0x889 PUSH8 0x5B2886A47038DDA9 PUSH1 0xC0 SHL PUSH2 0x3353 JUMP JUMPDEST PUSH2 0x89D PUSH8 0xDAC74FF36476C900 PUSH1 0xC0 SHL PUSH2 0x3353 JUMP JUMPDEST PUSH2 0x8A5 PUSH2 0x3A3C JUMP JUMPDEST PUSH1 0x40 MLOAD PUSH32 0xF287A3F00000000000000000000000000000000000000000000000000000000 DUP2 MSTORE PUSH1 0x4 ADD PUSH2 0x8D8 SWAP2 SWAP1 PUSH2 0x5076 JUMP JUMPDEST PUSH1 0x40 MLOAD DUP1 SWAP2 SUB SWAP1 REVERT JUMPDEST PUSH2 0x8F5 PUSH8 0x6DEEEF46E6F5286D PUSH1 0xC0 SHL PUSH2 0x3353 JUMP JUMPDEST PUSH2 0x909 PUSH8 0x571845E281347114 PUSH1 0xC0 SHL PUSH2 0x3353 JUMP JUMPDEST PUSH2 0x91D PUSH8 0x4B12BB6EF9587D15 PUSH1 0xC0 SHL PUSH2 0x3353 JUMP JUMPDEST PUSH2 0x931 PUSH8 0x57A583417D46DF89 PUSH1 0xC0 SHL PUSH2 0x3353 JUMP JUMPDEST PUSH2 0x945 PUSH8 0x85B2D74309223236 PUSH1 0xC0 SHL PUSH2 0x3353 JUMP JUMPDEST PUSH2 0x959 PUSH8 0xEDBB58B649B803E7 PUSH1 0xC0 SHL PUSH2 0x3353 JUMP JUMPDEST PUSH1 0x0 SELFBALANCE SWAP1 POP PUSH2 0x972 PUSH8 0xB0F77FF06C21439C PUSH1 0xC0 SHL PUSH2 0x3353 JUMP JUMPDEST PUSH2 0x986 PUSH8 0x3B6B2E3434B9CA23 PUSH1 0xC0 SHL PUSH2 0x3353 JUMP JUMPDEST PUSH1 0x0 DUP2 LT ISZERO PUSH2 0x9E9 JUMPI PUSH2 0x9A3 PUSH8 0xC644275F00684F67 PUSH1 0xC0 SHL PUSH2 0x3353 JUMP JUMPDEST PUSH2 0x9B7 PUSH8 0xD3A0FC2A5FCE236D PUSH1 0xC0 SHL PUSH2 0x3353 JUMP JUMPDEST PUSH1 0x40 MLOAD PUSH32 0xAD3A8B9E00000000000000000000000000000000000000000000000000000000 DUP2 MSTORE PUSH1 0x4 ADD PUSH1 0x40 MLOAD DUP1 SWAP2 SUB SWAP1 REVERT JUMPDEST PUSH2 0x9FD PUSH8 0x585CFDC67F10B18D PUSH1 0xC0 SHL PUSH2 0x3353 JUMP JUMPDEST PUSH2 0xA11 PUSH8 0xF3F37191353371BC PUSH1 0xC0 SHL PUSH2 0x3353 JUMP JUMPDEST PUSH2 0xA25 PUSH8 0x1CC273576FD639A6 PUSH1 0xC0 SHL PUSH2 0x3353 JUMP JUMPDEST PUSH1 0x0 PUSH20 0xFFFFFFFFFFFFFFFFFFFFFFFFFFFFFFFFFFFFFFFF AND PUSH1 0x2 PUSH1 0x3 ADD PUSH1 0x1 SWAP1 SLOAD SWAP1 PUSH2 0x100 EXP SWAP1 DIV PUSH20 0xFFFFFFFFFFFFFFFFFFFFFFFFFFFFFFFFFFFFFFFF AND PUSH20 0xFFFFFFFFFFFFFFFFFFFFFFFFFFFFFFFFFFFFFFFF AND EQ ISZERO DUP1 ISZERO PUSH2 0xA9D JUMPI POP PUSH1 0x0 PUSH1 0x2 PUSH1 0x0 ADD PUSH1 0x1 SWAP1 SLOAD SWAP1 PUSH2 0x100 EXP SWAP1 DIV PUSH1 0xFF AND PUSH1 0xFF AND EQ ISZERO JUMPDEST ISZERO PUSH2 0xC6A JUMPI PUSH2 0xAB6 PUSH8 0x7AC7835871CC28F2 PUSH1 0xC0 SHL PUSH2 0x3353 JUMP JUMPDEST PUSH2 0xACA PUSH8 0x1C6AC1F806390913 PUSH1 0xC0 SHL PUSH2 0x3353 JUMP JUMPDEST PUSH2 0xADE PUSH8 0x35A13A91ECF078B3 PUSH1 0xC0 SHL PUSH2 0x3353 JUMP JUMPDEST PUSH1 0x0 PUSH1 0x64 PUSH1 0x2 PUSH1 0x0 ADD PUSH1 0x1 SWAP1 SLOAD SWAP1 PUSH2 0x100 EXP SWAP1 DIV PUSH1 0xFF AND PUSH1 0xFF AND DUP4 PUSH2 0xB03 SWAP2 SWAP1 PUSH2 0x5295 JUMP JUMPDEST PUSH2 0xB0D SWAP2 SWAP1 PUSH2 0x5306 JUMP JUMPDEST SWAP1 POP PUSH2 0xB23 PUSH8 0x35A60E7DBFAD31CA PUSH1 0xC0 SHL PUSH2 0x3353 JUMP JUMPDEST PUSH2 0xB37 PUSH8 0xDF1ADE2C2CD6A74E PUSH1 0xC0 SHL PUSH2 0x3353 JUMP JUMPDEST PUSH1 0x0 PUSH1 0x2 PUSH1 0x3 ADD PUSH1 0x1 SWAP1 SLOAD SWAP1 PUSH2 0x100 EXP SWAP1 DIV PUSH20 0xFFFFFFFFFFFFFFFFFFFFFFFFFFFFFFFFFFFFFFFF AND PUSH20 0xFFFFFFFFFFFFFFFFFFFFFFFFFFFFFFFFFFFFFFFF AND DUP3 PUSH1 0x40 MLOAD PUSH2 0xB82 SWAP1 PUSH2 0x5368 JUMP JUMPDEST PUSH1 0x0 PUSH1 0x40 MLOAD DUP1 DUP4 SUB DUP2 DUP6 DUP8 GAS CALL SWAP3 POP POP POP RETURNDATASIZE DUP1 PUSH1 0x0 DUP2 EQ PUSH2 0xBBF JUMPI PUSH1 0x40 MLOAD SWAP2 POP PUSH1 0x1F NOT PUSH1 0x3F RETURNDATASIZE ADD AND DUP3 ADD PUSH1 0x40 MSTORE RETURNDATASIZE DUP3 MSTORE RETURNDATASIZE PUSH1 0x0 PUSH1 0x20 DUP5 ADD RETURNDATACOPY PUSH2 0xBC4 JUMP JUMPDEST PUSH1 0x60 SWAP2 POP JUMPDEST POP POP SWAP1 POP PUSH2 0xBDC PUSH8 0x29E1863351D15564 PUSH1 0xC0 SHL PUSH2 0x3353 JUMP JUMPDEST PUSH2 0xBF0 PUSH8 0x21E580A21C85CE31 PUSH1 0xC0 SHL PUSH2 0x3353 JUMP JUMPDEST DUP1 PUSH2 0xC4F JUMPI PUSH2 0xC09 PUSH8 0xBC8838B7977470AA PUSH1 0xC0 SHL PUSH2 0x3353 JUMP JUMPDEST PUSH2 0xC1D PUSH8 0xA5BE249D3C902A1B PUSH1 0xC0 SHL PUSH2 0x3353 JUMP JUMPDEST PUSH1 0x40 MLOAD PUSH32 0x244EC49600000000000000000000000000000000000000000000000000000000 DUP2 MSTORE PUSH1 0x4 ADD PUSH1 0x40 MLOAD DUP1 SWAP2 SUB SWAP1 REVERT JUMPDEST PUSH2 0xC63 PUSH8 0xEA6DCA84CED26630 PUSH1 0xC0 SHL PUSH2 0x3353 JUMP JUMPDEST POP POP PUSH2 0xC7F JUMP JUMPDEST PUSH2 0xC7E PUSH8 0x54F6EF294072901C PUSH1 0xC0 SHL PUSH2 0x3353 JUMP JUMPDEST JUMPDEST PUSH2 0xC93 PUSH8 0x9D0A49F46AAC1013 PUSH1 0xC0 SHL PUSH2 0x3353 JUMP JUMPDEST PUSH2 0xCA7 PUSH8 0xD8C3CDF0171F69FA PUSH1 0xC0 SHL PUSH2 0x3353 JUMP JUMPDEST PUSH1 0x0 PUSH1 0x2 PUSH1 0x4 ADD PUSH1 0x0 SWAP1 SLOAD SWAP1 PUSH2 0x100 EXP SWAP1 DIV PUSH20 0xFFFFFFFFFFFFFFFFFFFFFFFFFFFFFFFFFFFFFFFF AND PUSH20 0xFFFFFFFFFFFFFFFFFFFFFFFFFFFFFFFFFFFFFFFF AND PUSH1 0x64 PUSH1 0x2 PUSH1 0x0 ADD PUSH1 0x2 SWAP1 SLOAD SWAP1 PUSH2 0x100 EXP SWAP1 DIV PUSH1 0xFF AND PUSH1 0xFF AND DUP5 PUSH2 0xD08 SWAP2 SWAP1 PUSH2 0x5295 JUMP JUMPDEST PUSH2 0xD12 SWAP2 SWAP1 PUSH2 0x5306 JUMP JUMPDEST PUSH1 0x40 MLOAD PUSH2 0xD1E SWAP1 PUSH2 0x5368 JUMP JUMPDEST PUSH1 0x0 PUSH1 0x40 MLOAD DUP1 DUP4 SUB DUP2 DUP6 DUP8 GAS CALL SWAP3 POP POP POP RETURNDATASIZE DUP1 PUSH1 0x0 DUP2 EQ PUSH2 0xD5B JUMPI PUSH1 0x40 MLOAD SWAP2 POP PUSH1 0x1F NOT PUSH1 0x3F RETURNDATASIZE ADD AND DUP3 ADD PUSH1 0x40 MSTORE RETURNDATASIZE DUP3 MSTORE RETURNDATASIZE PUSH1 0x0 PUSH1 0x20 DUP5 ADD RETURNDATACOPY PUSH2 0xD60 JUMP JUMPDEST PUSH1 0x60 SWAP2 POP JUMPDEST POP POP SWAP1 POP PUSH2 0xD78 PUSH8 0x54AAD10986F89D43 PUSH1 0xC0 SHL PUSH2 0x3353 JUMP JUMPDEST PUSH2 0xD8C PUSH8 0x4C3D01BF10FA4FA2 PUSH1 0xC0 SHL PUSH2 0x3353 JUMP JUMPDEST DUP1 PUSH2 0xDEB JUMPI PUSH2 0xDA5 PUSH8 0x8A160DFBCB6C7BDF PUSH1 0xC0 SHL PUSH2 0x3353 JUMP JUMPDEST PUSH2 0xDB9 PUSH8 0xE6D3F12E44F4B3F9 PUSH1 0xC0 SHL PUSH2 0x3353 JUMP JUMPDEST PUSH1 0x40 MLOAD PUSH32 0x244EC49600000000000000000000000000000000000000000000000000000000 DUP2 MSTORE PUSH1 0x4 ADD PUSH1 0x40 MLOAD DUP1 SWAP2 SUB SWAP1 REVERT JUMPDEST PUSH2 0xDFF PUSH8 0x8CB931AAA95350F PUSH1 0xC0 SHL PUSH2 0x3353 JUMP JUMPDEST PUSH2 0xE13 PUSH8 0x8D8233406985010 PUSH1 0xC0 SHL PUSH2 0x3353 JUMP JUMPDEST PUSH2 0xE27 PUSH8 0xC8A3AE097241A3BC PUSH1 0xC0 SHL PUSH2 0x3353 JUMP JUMPDEST TIMESTAMP PUSH32 0x5B64F7990EC4169EC43E750EA74CD6E76BBBD2A11D79841622BDDA84BA9D561E PUSH1 0x40 MLOAD PUSH1 0x40 MLOAD DUP1 SWAP2 SUB SWAP1 LOG2 POP POP POP PUSH2 0xE5F PUSH2 0x3A44 JUMP JUMPDEST JUMP JUMPDEST PUSH2 0xE75 PUSH8 0x31500BC635C0C4AC PUSH1 0xC0 SHL PUSH2 0x3A4D JUMP JUMPDEST PUSH2 0xE7D PUSH2 0x3356 JUMP JUMPDEST PUSH2 0xE91 PUSH8 0x2675DB8B565E8DBB PUSH1 0xC0 SHL PUSH2 0x3A4D JUMP JUMPDEST PUSH2 0xEA5 PUSH8 0x84D9D0E2C5B90D33 PUSH1 0xC0 SHL PUSH2 0x3A4D JUMP JUMPDEST PUSH2 0xEB9 PUSH8 0x20EC7FF3BCFCBD95 PUSH1 0xC0 SHL PUSH2 0x3A4D JUMP JUMPDEST PUSH2 0xECD PUSH8 0xAA63EF24AEB72BB4 PUSH1 0xC0 SHL PUSH2 0x3A4D JUMP JUMPDEST PUSH1 0x0 DUP4 LT DUP1 ISZERO PUSH2 0xEDD JUMPI POP DUP3 DUP3 GT ISZERO JUMPDEST DUP1 ISZERO PUSH2 0xEE9 JUMPI POP PUSH1 0x0 DUP2 LT JUMPDEST ISZERO PUSH2 0xF48 JUMPI PUSH2 0xF02 PUSH8 0x84E85930CF56599C PUSH1 0xC0 SHL PUSH2 0x3A4D JUMP JUMPDEST PUSH2 0xF16 PUSH8 0x6FC1070772669CE5 PUSH1 0xC0 SHL PUSH2 0x3A4D JUMP JUMPDEST PUSH1 0x40 MLOAD PUSH32 0xECA686C00000000000000000000000000000000000000000000000000000000 DUP2 MSTORE PUSH1 0x4 ADD PUSH1 0x40 MLOAD DUP1 SWAP2 SUB SWAP1 REVERT JUMPDEST PUSH2 0xF5C PUSH8 0x81037B494624B82B PUSH1 0xC0 SHL PUSH2 0x3A4D JUMP JUMPDEST PUSH2 0xF70 PUSH8 0xD9EB2459002061AA PUSH1 0xC0 SHL PUSH2 0x3A4D JUMP JUMPDEST DUP3 PUSH1 0x9 DUP2 SWAP1 SSTORE POP PUSH2 0xF8B PUSH8 0xAA20D4FAC2B0EB6F PUSH1 0xC0 SHL PUSH2 0x3A4D JUMP JUMPDEST DUP2 PUSH1 0xA DUP2 SWAP1 SSTORE POP PUSH2 0xFA6 PUSH8 0xC2795DC669CAFBA0 PUSH1 0xC0 SHL PUSH2 0x3A4D JUMP JUMPDEST DUP1 PUSH1 0xB DUP2 SWAP1 SSTORE POP PUSH2 0xFC1 PUSH8 0x39630AA4E621883E PUSH1 0xC0 SHL PUSH2 0x3A4D JUMP JUMPDEST PUSH2 0xFD5 PUSH8 0xEF32DFD4E4D1ACBF PUSH1 0xC0 SHL PUSH2 0x3A4D JUMP JUMPDEST PUSH32 0xB2EFB0AA6E279553A1E5567EBB495D322192AA43C5FC3073CBA4601D52009AB4 DUP4 DUP4 DUP4 PUSH1 0x40 MLOAD PUSH2 0x1008 SWAP4 SWAP3 SWAP2 SWAP1 PUSH2 0x5135 JUMP JUMPDEST PUSH1 0x40 MLOAD DUP1 SWAP2 SUB SWAP1 LOG1 POP POP POP JUMP JUMPDEST PUSH1 0x2 DUP1 PUSH1 0x0 ADD PUSH1 0x0 SWAP1 SLOAD SWAP1 PUSH2 0x100 EXP SWAP1 DIV PUSH1 0xFF AND SWAP1 DUP1 PUSH1 0x0 ADD PUSH1 0x1 SWAP1 SLOAD SWAP1 PUSH2 0x100 EXP SWAP1 DIV PUSH1 0xFF AND SWAP1 DUP1 PUSH1 0x0 ADD PUSH1 0x2 SWAP1 SLOAD SWAP1 PUSH2 0x100 EXP SWAP1 DIV PUSH1 0xFF AND SWAP1 DUP1 PUSH1 0x0 ADD PUSH1 0x3 SWAP1 SLOAD SWAP1 PUSH2 0x100 EXP SWAP1 DIV PUSH1 0xFF AND SWAP1 DUP1 PUSH1 0x1 ADD SLOAD SWAP1 DUP1 PUSH1 0x2 ADD SLOAD SWAP1 DUP1 PUSH1 0x3 ADD PUSH1 0x0 SWAP1 SLOAD SWAP1 PUSH2 0x100 EXP SWAP1 DIV PUSH1 0xFF AND SWAP1 DUP1 PUSH1 0x3 ADD PUSH1 0x1 SWAP1 SLOAD SWAP1 PUSH2 0x100 EXP SWAP1 DIV PUSH20 0xFFFFFFFFFFFFFFFFFFFFFFFFFFFFFFFFFFFFFFFF AND SWAP1 DUP1 PUSH1 0x4 ADD PUSH1 0x0 SWAP1 SLOAD SWAP1 PUSH2 0x100 EXP SWAP1 DIV PUSH20 0xFFFFFFFFFFFFFFFFFFFFFFFFFFFFFFFFFFFFFFFF AND SWAP1 POP DUP10 JUMP JUMPDEST PUSH1 0x0 DUP1 PUSH1 0x0 DUP1 PUSH1 0x0 DUP1 PUSH1 0x0 DUP1 PUSH1 0x0 DUP1 PUSH2 0x10F5 PUSH8 0xF9C5123E1F36EF96 PUSH1 0xC0 SHL PUSH2 0x3353 JUMP JUMPDEST PUSH2 0x1109 PUSH8 0x397E657F09F61084 PUSH1 0xC0 SHL PUSH2 0x3353 JUMP JUMPDEST PUSH2 0x111D PUSH8 0xFDA264C639080AF1 PUSH1 0xC0 SHL PUSH2 0x3353 JUMP JUMPDEST PUSH1 0x2 PUSH1 0x0 ADD PUSH1 0x3 SWAP1 SLOAD SWAP1 PUSH2 0x100 EXP SWAP1 DIV PUSH1 0xFF AND PUSH1 0x2 PUSH1 0x0 ADD PUSH1 0x1 SWAP1 SLOAD SWAP1 PUSH2 0x100 EXP SWAP1 DIV PUSH1 0xFF AND PUSH1 0x2 PUSH1 0x0 ADD PUSH1 0x2 SWAP1 SLOAD SWAP1 PUSH2 0x100 EXP SWAP1 DIV PUSH1 0xFF AND PUSH1 0x2 PUSH1 0x0 ADD PUSH1 0x0 SWAP1 SLOAD SWAP1 PUSH2 0x100 EXP SWAP1 DIV PUSH1 0xFF AND PUSH1 0x2 PUSH1 0x3 ADD PUSH1 0x0 SWAP1 SLOAD SWAP1 PUSH2 0x100 EXP SWAP1 DIV PUSH1 0xFF AND PUSH1 0x2 DUP2 GT ISZERO PUSH2 0x118E JUMPI PUSH2 0x118D PUSH2 0x4D8A JUMP JUMPDEST JUMPDEST PUSH1 0x2 DUP1 ADD SLOAD PUSH1 0x2 PUSH1 0x1 ADD SLOAD PUSH1 0x2 PUSH1 0x3 ADD PUSH1 0x1 SWAP1 SLOAD SWAP1 PUSH2 0x100 EXP SWAP1 DIV PUSH20 0xFFFFFFFFFFFFFFFFFFFFFFFFFFFFFFFFFFFFFFFF AND PUSH1 0x2 PUSH1 0x4 ADD PUSH1 0x0 SWAP1 SLOAD SWAP1 PUSH2 0x100 EXP SWAP1 DIV PUSH20 0xFFFFFFFFFFFFFFFFFFFFFFFFFFFFFFFFFFFFFFFF AND PUSH32 0x0 SWAP10 POP SWAP10 POP SWAP10 POP SWAP10 POP SWAP10 POP SWAP10 POP SWAP10 POP SWAP10 POP SWAP10 POP SWAP10 POP SWAP1 SWAP2 SWAP3 SWAP4 SWAP5 SWAP6 SWAP7 SWAP8 SWAP9 SWAP10 JUMP JUMPDEST PUSH2 0x123A PUSH8 0xE4209D64C0AE8536 PUSH1 0xC0 SHL PUSH2 0x3A4D JUMP JUMPDEST DUP5 PUSH2 0x124F PUSH8 0x42D3A98020CD0012 PUSH1 0xC0 SHL PUSH2 0x3A4D JUMP JUMPDEST PUSH2 0x1263 PUSH8 0x22D91FA830D0D214 PUSH1 0xC0 SHL PUSH2 0x3A4D JUMP JUMPDEST PUSH2 0x1277 PUSH8 0xC94C4D066F4262AF PUSH1 0xC0 SHL PUSH2 0x3A4D JUMP JUMPDEST PUSH1 0x9 SLOAD DUP2 LT DUP1 ISZERO PUSH2 0x1289 JUMPI POP PUSH1 0xA SLOAD DUP2 GT JUMPDEST ISZERO PUSH2 0x12E8 JUMPI PUSH2 0x12A2 PUSH8 0x263F5367C8A52C50 PUSH1 0xC0 SHL PUSH2 0x3A4D JUMP JUMPDEST PUSH2 0x12B6 PUSH8 0xBA298288F5E31C16 PUSH1 0xC0 SHL PUSH2 0x3A4D JUMP JUMPDEST PUSH1 0x40 MLOAD PUSH32 0x17DFB4AC00000000000000000000000000000000000000000000000000000000 DUP2 MSTORE PUSH1 0x4 ADD PUSH1 0x40 MLOAD DUP1 SWAP2 SUB SWAP1 REVERT JUMPDEST PUSH2 0x12FC PUSH8 0xE205E59A8E992FA3 PUSH1 0xC0 SHL PUSH2 0x3A4D JUMP JUMPDEST PUSH2 0x1310 PUSH8 0xF32531761055309B PUSH1 0xC0 SHL PUSH2 0x3A4D JUMP JUMPDEST PUSH2 0x1324 PUSH8 0x178DDACB15E1F2E9 PUSH1 0xC0 SHL PUSH2 0x3A4D JUMP JUMPDEST PUSH2 0x1338 PUSH8 0x7B5B9DDD5BBCB53E PUSH1 0xC0 SHL PUSH2 0x3A4D JUMP JUMPDEST PUSH2 0x1340 PUSH2 0x39ED JUMP JUMPDEST PUSH2 0x1354 PUSH8 0xC0AAC264DC974877 PUSH1 0xC0 SHL PUSH2 0x3A4D JUMP JUMPDEST PUSH2 0x1368 PUSH8 0xDBE1D9B08CB6E81D PUSH1 0xC0 SHL PUSH2 0x3A4D JUMP JUMPDEST PUSH2 0x137C PUSH8 0x7FEB1F26F7D08514 PUSH1 0xC0 SHL PUSH2 0x3A4D JUMP JUMPDEST PUSH2 0x1390 PUSH8 0x41869346E6E88E92 PUSH1 0xC0 SHL PUSH2 0x3A4D JUMP JUMPDEST PUSH2 0x13A4 PUSH8 0x891C7E90970B248C PUSH1 0xC0 SHL PUSH2 0x3A4D JUMP JUMPDEST PUSH1 0x0 PUSH20 0xFFFFFFFFFFFFFFFFFFFFFFFFFFFFFFFFFFFFFFFF AND DUP8 PUSH20 0xFFFFFFFFFFFFFFFFFFFFFFFFFFFFFFFFFFFFFFFF AND SUB PUSH2 0x1413 JUMPI PUSH1 0x40 MLOAD PUSH32 0x8C379A000000000000000000000000000000000000000000000000000000000 DUP2 MSTORE PUSH1 0x4 ADD PUSH2 0x140A SWAP1 PUSH2 0x53DA JUMP JUMPDEST PUSH1 0x40 MLOAD DUP1 SWAP2 SUB SWAP1 REVERT JUMPDEST PUSH2 0x1427 PUSH8 0xAB9B223083671B2F PUSH1 0xC0 SHL PUSH2 0x3A4D JUMP JUMPDEST PUSH2 0x143B PUSH8 0xF3268BE7B2DC49AD PUSH1 0xC0 SHL PUSH2 0x3A4D JUMP JUMPDEST PUSH2 0x144F PUSH8 0x4865BC099FB3E786 PUSH1 0xC0 SHL PUSH2 0x3A4D JUMP JUMPDEST PUSH1 0x0 PUSH2 0x148D DUP8 PUSH2 0x145D PUSH2 0x3A3C JUMP JUMPDEST DUP9 ADDRESS PUSH1 0x40 MLOAD PUSH1 0x20 ADD PUSH2 0x1472 SWAP5 SWAP4 SWAP3 SWAP2 SWAP1 PUSH2 0x5542 JUMP JUMPDEST PUSH1 0x40 MLOAD PUSH1 0x20 DUP2 DUP4 SUB SUB DUP2 MSTORE SWAP1 PUSH1 0x40 MSTORE DUP1 MLOAD SWAP1 PUSH1 0x20 ADD KECCAK256 PUSH2 0x3A50 JUMP JUMPDEST SWAP1 POP PUSH2 0x14A3 PUSH8 0xB4D5B0EC8C7AA8A4 PUSH1 0xC0 SHL PUSH2 0x3A4D JUMP JUMPDEST PUSH2 0x14B7 PUSH8 0xD0989E9D52076B8E PUSH1 0xC0 SHL PUSH2 0x3A4D JUMP JUMPDEST PUSH1 0x7 PUSH1 0x0 SWAP1 SLOAD SWAP1 PUSH2 0x100 EXP SWAP1 DIV PUSH20 0xFFFFFFFFFFFFFFFFFFFFFFFFFFFFFFFFFFFFFFFF AND PUSH20 0xFFFFFFFFFFFFFFFFFFFFFFFFFFFFFFFFFFFFFFFF AND PUSH1 0x1 DUP3 DUP8 DUP8 DUP8 PUSH1 0x40 MLOAD PUSH1 0x0 DUP2 MSTORE PUSH1 0x20 ADD PUSH1 0x40 MSTORE PUSH1 0x40 MLOAD PUSH2 0x1513 SWAP5 SWAP4 SWAP3 SWAP2 SWAP1 PUSH2 0x55AA JUMP JUMPDEST PUSH1 0x20 PUSH1 0x40 MLOAD PUSH1 0x20 DUP2 SUB SWAP1 DUP1 DUP5 SUB SWAP1 DUP6 GAS STATICCALL ISZERO DUP1 ISZERO PUSH2 0x1535 JUMPI RETURNDATASIZE PUSH1 0x0 DUP1 RETURNDATACOPY RETURNDATASIZE PUSH1 0x0 REVERT JUMPDEST POP POP POP PUSH1 0x20 PUSH1 0x40 MLOAD SUB MLOAD PUSH20 0xFFFFFFFFFFFFFFFFFFFFFFFFFFFFFFFFFFFFFFFF AND EQ PUSH2 0x15B4 JUMPI PUSH2 0x156E PUSH8 0x2BCC35709E57682F PUSH1 0xC0 SHL PUSH2 0x3A4D JUMP JUMPDEST PUSH2 0x1582 PUSH8 0xA4F50C5704B751A4 PUSH1 0xC0 SHL PUSH2 0x3A4D JUMP JUMPDEST PUSH1 0x40 MLOAD PUSH32 0xA7A059BC00000000000000000000000000000000000000000000000000000000 DUP2 MSTORE PUSH1 0x4 ADD PUSH1 0x40 MLOAD DUP1 SWAP2 SUB SWAP1 REVERT JUMPDEST PUSH2 0x15C8 PUSH8 0x1D062D6E28A43F39 PUSH1 0xC0 SHL PUSH2 0x3A4D JUMP JUMPDEST PUSH2 0x15DC PUSH8 0xE6C5663EDC57B199 PUSH1 0xC0 SHL PUSH2 0x3A4D JUMP JUMPDEST PUSH2 0x15F0 PUSH8 0x71AD4E381CF148B PUSH1 0xC0 SHL PUSH2 0x3A4D JUMP JUMPDEST PUSH1 0x8 PUSH1 0x0 DUP3 DUP2 MSTORE PUSH1 0x20 ADD SWAP1 DUP2 MSTORE PUSH1 0x20 ADD PUSH1 0x0 KECCAK256 PUSH1 0x0 SWAP1 SLOAD SWAP1 PUSH2 0x100 EXP SWAP1 DIV PUSH1 0xFF AND ISZERO PUSH2 0x1670 JUMPI PUSH2 0x162A PUSH8 0xBDFB4C9DF573E772 PUSH1 0xC0 SHL PUSH2 0x3A4D JUMP JUMPDEST PUSH2 0x163E PUSH8 0xF3A5335658ECA705 PUSH1 0xC0 SHL PUSH2 0x3A4D JUMP JUMPDEST PUSH1 0x40 MLOAD PUSH32 0xCCE9A82400000000000000000000000000000000000000000000000000000000 DUP2 MSTORE PUSH1 0x4 ADD PUSH1 0x40 MLOAD DUP1 SWAP2 SUB SWAP1 REVERT JUMPDEST PUSH2 0x1684 PUSH8 0x7897230755F7AED1 PUSH1 0xC0 SHL PUSH2 0x3A4D JUMP JUMPDEST PUSH2 0x1698 PUSH8 0x23861B689B7E360C PUSH1 0xC0 SHL PUSH2 0x3A4D JUMP JUMPDEST PUSH1 0x1 PUSH1 0x8 PUSH1 0x0 DUP4 DUP2 MSTORE PUSH1 0x20 ADD SWAP1 DUP2 MSTORE PUSH1 0x20 ADD PUSH1 0x0 KECCAK256 PUSH1 0x0 PUSH2 0x100 EXP DUP2 SLOAD DUP2 PUSH1 0xFF MUL NOT AND SWAP1 DUP4 ISZERO ISZERO MUL OR SWAP1 SSTORE POP PUSH2 0x16D8 PUSH8 0xE451E2A2C7359164 PUSH1 0xC0 SHL PUSH2 0x3A4D JUMP JUMPDEST PUSH2 0x16EC PUSH8 0xACE3DC3D006DDD59 PUSH1 0xC0 SHL PUSH2 0x3A4D JUMP JUMPDEST PUSH2 0x1700 PUSH8 0x288F4E032DA8498E PUSH1 0xC0 SHL PUSH2 0x3A4D JUMP JUMPDEST PUSH1 0xB SLOAD DUP8 PUSH32 0x0 PUSH20 0xFFFFFFFFFFFFFFFFFFFFFFFFFFFFFFFFFFFFFFFF AND PUSH4 0x18160DDD PUSH1 0x40 MLOAD DUP2 PUSH4 0xFFFFFFFF AND PUSH1 0xE0 SHL DUP2 MSTORE PUSH1 0x4 ADD PUSH1 0x20 PUSH1 0x40 MLOAD DUP1 DUP4 SUB DUP2 DUP7 GAS STATICCALL ISZERO DUP1 ISZERO PUSH2 0x176F JUMPI RETURNDATASIZE PUSH1 0x0 DUP1 RETURNDATACOPY RETURNDATASIZE PUSH1 0x0 REVERT JUMPDEST POP POP POP POP PUSH1 0x40 MLOAD RETURNDATASIZE PUSH1 0x1F NOT PUSH1 0x1F DUP3 ADD AND DUP3 ADD DUP1 PUSH1 0x40 MSTORE POP DUP2 ADD SWAP1 PUSH2 0x1793 SWAP2 SWAP1 PUSH2 0x5604 JUMP JUMPDEST PUSH2 0x179D SWAP2 SWAP1 PUSH2 0x5631 JUMP JUMPDEST GT ISZERO PUSH2 0x17DE JUMPI PUSH1 0x40 MLOAD PUSH32 0x8C379A000000000000000000000000000000000000000000000000000000000 DUP2 MSTORE PUSH1 0x4 ADD PUSH2 0x17D5 SWAP1 PUSH2 0x56B1 JUMP JUMPDEST PUSH1 0x40 MLOAD DUP1 SWAP2 SUB SWAP1 REVERT JUMPDEST PUSH2 0x17F2 PUSH8 0xABDC00B985AFB611 PUSH1 0xC0 SHL PUSH2 0x3A4D JUMP JUMPDEST PUSH2 0x1806 PUSH8 0x9BD9104704EBF97E PUSH1 0xC0 SHL PUSH2 0x3A4D JUMP JUMPDEST PUSH2 0x181A PUSH8 0x4CC39C208C82A03C PUSH1 0xC0 SHL PUSH2 0x3A4D JUMP JUMPDEST PUSH1 0x2 PUSH1 0x0 ADD PUSH1 0x3 SWAP1 SLOAD SWAP1 PUSH2 0x100 EXP SWAP1 DIV PUSH1 0xFF AND ISZERO PUSH2 0x1F79 JUMPI PUSH2 0x1846 PUSH8 0x6AF4AA1D6EDCC64A PUSH1 0xC0 SHL PUSH2 0x3A4D JUMP JUMPDEST PUSH2 0x185A PUSH8 0x49995DD1CFE696D2 PUSH1 0xC0 SHL PUSH2 0x3A4D JUMP JUMPDEST PUSH2 0x186E PUSH8 0xB6B6DBBA01050B7C PUSH1 0xC0 SHL PUSH2 0x3A4D JUMP JUMPDEST PUSH1 0x2 DUP1 DUP2 GT ISZERO PUSH2 0x1881 JUMPI PUSH2 0x1880 PUSH2 0x4D8A JUMP JUMPDEST JUMPDEST PUSH1 0x2 PUSH1 0x3 ADD PUSH1 0x0 SWAP1 SLOAD SWAP1 PUSH2 0x100 EXP SWAP1 DIV PUSH1 0xFF AND PUSH1 0x2 DUP2 GT ISZERO PUSH2 0x18A6 JUMPI PUSH2 0x18A5 PUSH2 0x4D8A JUMP JUMPDEST JUMPDEST SUB PUSH2 0x1AD5 JUMPI PUSH2 0x18BF PUSH8 0x66818C7FED48216 PUSH1 0xC0 SHL PUSH2 0x3A4D JUMP JUMPDEST PUSH2 0x18D3 PUSH8 0x9826A1787699314E PUSH1 0xC0 SHL PUSH2 0x3A4D JUMP JUMPDEST PUSH2 0x18E7 PUSH8 0x1F01704D3E1D66B9 PUSH1 0xC0 SHL PUSH2 0x3A4D JUMP JUMPDEST PUSH2 0x18EF PUSH2 0x3ABC JUMP JUMPDEST PUSH2 0x1903 PUSH8 0xC592E45A9BAFA06 PUSH1 0xC0 SHL PUSH2 0x3A4D JUMP JUMPDEST PUSH2 0x1917 PUSH8 0xF9C9E34DBE3ACF63 PUSH1 0xC0 SHL PUSH2 0x3A4D JUMP JUMPDEST PUSH1 0x0 PUSH32 0x0 PUSH20 0xFFFFFFFFFFFFFFFFFFFFFFFFFFFFFFFFFFFFFFFF AND PUSH32 0x40C10F19C047AE7DFA66D6312B683D2EA3DFBCB4159E96B967C5F4B0A86F2842 DUP11 DUP11 PUSH1 0x40 MLOAD PUSH1 0x24 ADD PUSH2 0x1984 SWAP3 SWAP2 SWAP1 PUSH2 0x56D1 JUMP JUMPDEST PUSH1 0x40 MLOAD PUSH1 0x20 DUP2 DUP4 SUB SUB DUP2 MSTORE SWAP1 PUSH1 0x40 MSTORE SWAP1 PUSH28 0xFFFFFFFFFFFFFFFFFFFFFFFFFFFFFFFFFFFFFFFFFFFFFFFFFFFFFFFF NOT AND PUSH1 0x20 DUP3 ADD DUP1 MLOAD PUSH28 0xFFFFFFFFFFFFFFFFFFFFFFFFFFFFFFFFFFFFFFFFFFFFFFFFFFFFFFFF DUP4 DUP2 DUP4 AND OR DUP4 MSTORE POP POP POP POP PUSH1 0x40 MLOAD PUSH2 0x19EE SWAP2 SWAP1 PUSH2 0x5760 JUMP JUMPDEST PUSH1 0x0 PUSH1 0x40 MLOAD DUP1 DUP4 SUB DUP2 PUSH1 0x0 DUP7 GAS CALL SWAP2 POP POP RETURNDATASIZE DUP1 PUSH1 0x0 DUP2 EQ PUSH2 0x1A2B JUMPI PUSH1 0x40 MLOAD SWAP2 POP PUSH1 0x1F NOT PUSH1 0x3F RETURNDATASIZE ADD AND DUP3 ADD PUSH1 0x40 MSTORE RETURNDATASIZE DUP3 MSTORE RETURNDATASIZE PUSH1 0x0 PUSH1 0x20 DUP5 ADD RETURNDATACOPY PUSH2 0x1A30 JUMP JUMPDEST PUSH1 0x60 SWAP2 POP JUMPDEST POP POP SWAP1 POP PUSH2 0x1A48 PUSH8 0xD5F23FB12538E315 PUSH1 0xC0 SHL PUSH2 0x3A4D JUMP JUMPDEST PUSH2 0x1A5C PUSH8 0x4692D7F9AE0D2126 PUSH1 0xC0 SHL PUSH2 0x3A4D JUMP JUMPDEST DUP1 PUSH2 0x1ABB JUMPI PUSH2 0x1A75 PUSH8 0x2B0EC72A57D93373 PUSH1 0xC0 SHL PUSH2 0x3A4D JUMP JUMPDEST PUSH2 0x1A89 PUSH8 0x6338F2FE67F156B0 PUSH1 0xC0 SHL PUSH2 0x3A4D JUMP JUMPDEST PUSH1 0x40 MLOAD PUSH32 0x384EC20400000000000000000000000000000000000000000000000000000000 DUP2 MSTORE PUSH1 0x4 ADD PUSH1 0x40 MLOAD DUP1 SWAP2 SUB SWAP1 REVERT JUMPDEST PUSH2 0x1ACF PUSH8 0x304BED77C8F8C02B PUSH1 0xC0 SHL PUSH2 0x3A4D JUMP JUMPDEST POP PUSH2 0x1F74 JUMP JUMPDEST PUSH2 0x1AE9 PUSH8 0x73D2589A5EFF40CD PUSH1 0xC0 SHL PUSH2 0x3A4D JUMP JUMPDEST PUSH2 0x1AFD PUSH8 0x8E645DC5F9BC89B2 PUSH1 0xC0 SHL PUSH2 0x3A4D JUMP JUMPDEST PUSH2 0x1B11 PUSH8 0x62D66D2061C824C2 PUSH1 0xC0 SHL PUSH2 0x3A4D JUMP JUMPDEST PUSH1 0x0 PUSH32 0x0 PUSH20 0xFFFFFFFFFFFFFFFFFFFFFFFFFFFFFFFFFFFFFFFF AND PUSH32 0x40C10F19C047AE7DFA66D6312B683D2EA3DFBCB4159E96B967C5F4B0A86F2842 ADDRESS DUP11 PUSH1 0x40 MLOAD PUSH1 0x24 ADD PUSH2 0x1B7E SWAP3 SWAP2 SWAP1 PUSH2 0x56D1 JUMP JUMPDEST PUSH1 0x40 MLOAD PUSH1 0x20 DUP2 DUP4 SUB SUB DUP2 MSTORE SWAP1 PUSH1 0x40 MSTORE SWAP1 PUSH28 0xFFFFFFFFFFFFFFFFFFFFFFFFFFFFFFFFFFFFFFFFFFFFFFFFFFFFFFFF NOT AND PUSH1 0x20 DUP3 ADD DUP1 MLOAD PUSH28 0xFFFFFFFFFFFFFFFFFFFFFFFFFFFFFFFFFFFFFFFFFFFFFFFFFFFFFFFF DUP4 DUP2 DUP4 AND OR DUP4 MSTORE POP POP POP POP PUSH1 0x40 MLOAD PUSH2 0x1BE8 SWAP2 SWAP1 PUSH2 0x5760 JUMP JUMPDEST PUSH1 0x0 PUSH1 0x40 MLOAD DUP1 DUP4 SUB DUP2 PUSH1 0x0 DUP7 GAS CALL SWAP2 POP POP RETURNDATASIZE DUP1 PUSH1 0x0 DUP2 EQ PUSH2 0x1C25 JUMPI PUSH1 0x40 MLOAD SWAP2 POP PUSH1 0x1F NOT PUSH1 0x3F RETURNDATASIZE ADD AND DUP3 ADD PUSH1 0x40 MSTORE RETURNDATASIZE DUP3 MSTORE RETURNDATASIZE PUSH1 0x0 PUSH1 0x20 DUP5 ADD RETURNDATACOPY PUSH2 0x1C2A JUMP JUMPDEST PUSH1 0x60 SWAP2 POP JUMPDEST POP POP SWAP1 POP PUSH2 0x1C42 PUSH8 0x9A971B18D710BBD9 PUSH1 0xC0 SHL PUSH2 0x3A4D JUMP JUMPDEST PUSH2 0x1C56 PUSH8 0x68A29DBBD3357C2E PUSH1 0xC0 SHL PUSH2 0x3A4D JUMP JUMPDEST DUP1 PUSH2 0x1CB5 JUMPI PUSH2 0x1C6F PUSH8 0xA06564F3A85130DE PUSH1 0xC0 SHL PUSH2 0x3A4D JUMP JUMPDEST PUSH2 0x1C83 PUSH8 0x3E67345452E267F0 PUSH1 0xC0 SHL PUSH2 0x3A4D JUMP JUMPDEST PUSH1 0x40 MLOAD PUSH32 0xCB57CF5500000000000000000000000000000000000000000000000000000000 DUP2 MSTORE PUSH1 0x4 ADD PUSH1 0x40 MLOAD DUP1 SWAP2 SUB SWAP1 REVERT JUMPDEST PUSH2 0x1CC9 PUSH8 0x138BEC350A5901FB PUSH1 0xC0 SHL PUSH2 0x3A4D JUMP JUMPDEST PUSH2 0x1CDD PUSH8 0x8E22CCBA730DF11C PUSH1 0xC0 SHL PUSH2 0x3A4D JUMP JUMPDEST PUSH2 0x1CE6 DUP9 PUSH2 0x3B86 JUMP JUMPDEST DUP9 PUSH2 0x1CF1 SWAP2 SWAP1 PUSH2 0x5777 JUMP JUMPDEST SWAP8 POP PUSH2 0x1D07 PUSH8 0x48BF84721DF499A4 PUSH1 0xC0 SHL PUSH2 0x3A4D JUMP JUMPDEST PUSH2 0x1D1B PUSH8 0x29A1FF865069BC28 PUSH1 0xC0 SHL PUSH2 0x3A4D JUMP JUMPDEST PUSH1 0x0 DUP9 SUB PUSH2 0x1D7D JUMPI PUSH2 0x1D37 PUSH8 0xE12FD160C9B363E PUSH1 0xC0 SHL PUSH2 0x3A4D JUMP JUMPDEST PUSH2 0x1D4B PUSH8 0x7C444A7D837B92AD PUSH1 0xC0 SHL PUSH2 0x3A4D JUMP JUMPDEST PUSH1 0x40 MLOAD PUSH32 0x9B22D25400000000000000000000000000000000000000000000000000000000 DUP2 MSTORE PUSH1 0x4 ADD PUSH1 0x40 MLOAD DUP1 SWAP2 SUB SWAP1 REVERT JUMPDEST PUSH2 0x1D91 PUSH8 0x8C11966B6BA4BEFA PUSH1 0xC0 SHL PUSH2 0x3A4D JUMP JUMPDEST PUSH2 0x1DA5 PUSH8 0x3FC638DDFFE682AD PUSH1 0xC0 SHL PUSH2 0x3A4D JUMP JUMPDEST PUSH2 0x1DB9 PUSH8 0x3AE41E0B34AC0CC8 PUSH1 0xC0 SHL PUSH2 0x3A4D JUMP JUMPDEST PUSH1 0x0 PUSH32 0x0 PUSH20 0xFFFFFFFFFFFFFFFFFFFFFFFFFFFFFFFFFFFFFFFF AND PUSH32 0xA9059CBB2AB09EB219583F4A59A5D0623ADE346D962BCD4E46B11DA047C9049B DUP12 DUP12 PUSH1 0x40 MLOAD PUSH1 0x24 ADD PUSH2 0x1E26 SWAP3 SWAP2 SWAP1 PUSH2 0x56D1 JUMP JUMPDEST PUSH1 0x40 MLOAD PUSH1 0x20 DUP2 DUP4 SUB SUB DUP2 MSTORE SWAP1 PUSH1 0x40 MSTORE SWAP1 PUSH28 0xFFFFFFFFFFFFFFFFFFFFFFFFFFFFFFFFFFFFFFFFFFFFFFFFFFFFFFFF NOT AND PUSH1 0x20 DUP3 ADD DUP1 MLOAD PUSH28 0xFFFFFFFFFFFFFFFFFFFFFFFFFFFFFFFFFFFFFFFFFFFFFFFFFFFFFFFF DUP4 DUP2 DUP4 AND OR DUP4 MSTORE POP POP POP POP PUSH1 0x40 MLOAD PUSH2 0x1E90 SWAP2 SWAP1 PUSH2 0x5760 JUMP JUMPDEST PUSH1 0x0 PUSH1 0x40 MLOAD DUP1 DUP4 SUB DUP2 PUSH1 0x0 DUP7 GAS CALL SWAP2 POP POP RETURNDATASIZE DUP1 PUSH1 0x0 DUP2 EQ PUSH2 0x1ECD JUMPI PUSH1 0x40 MLOAD SWAP2 POP PUSH1 0x1F NOT PUSH1 0x3F RETURNDATASIZE ADD AND DUP3 ADD PUSH1 0x40 MSTORE RETURNDATASIZE DUP3 MSTORE RETURNDATASIZE PUSH1 0x0 PUSH1 0x20 DUP5 ADD RETURNDATACOPY PUSH2 0x1ED2 JUMP JUMPDEST PUSH1 0x60 SWAP2 POP JUMPDEST POP POP SWAP1 POP PUSH2 0x1EEA PUSH8 0xDF5F3819BFAAE243 PUSH1 0xC0 SHL PUSH2 0x3A4D JUMP JUMPDEST PUSH2 0x1EFE PUSH8 0x2DBC578C5CE44694 PUSH1 0xC0 SHL PUSH2 0x3A4D JUMP JUMPDEST DUP1 PUSH2 0x1F5D JUMPI PUSH2 0x1F17 PUSH8 0x2C84A425431792C8 PUSH1 0xC0 SHL PUSH2 0x3A4D JUMP JUMPDEST PUSH2 0x1F2B PUSH8 0xC3DB76A028EBF4B7 PUSH1 0xC0 SHL PUSH2 0x3A4D JUMP JUMPDEST PUSH1 0x40 MLOAD PUSH32 0x53E7413800000000000000000000000000000000000000000000000000000000 DUP2 MSTORE PUSH1 0x4 ADD PUSH1 0x40 MLOAD DUP1 SWAP2 SUB SWAP1 REVERT JUMPDEST PUSH2 0x1F71 PUSH8 0xEDFF69827CB9FE65 PUSH1 0xC0 SHL PUSH2 0x3A4D JUMP JUMPDEST POP POP JUMPDEST PUSH2 0x216F JUMP JUMPDEST PUSH2 0x1F8D PUSH8 0x26D9C41394844A94 PUSH1 0xC0 SHL PUSH2 0x3A4D JUMP JUMPDEST PUSH2 0x1FA1 PUSH8 0x2B171B84C3423F5 PUSH1 0xC0 SHL PUSH2 0x3A4D JUMP JUMPDEST PUSH2 0x1FB5 PUSH8 0x71B2F0C989C434FD PUSH1 0xC0 SHL PUSH2 0x3A4D JUMP JUMPDEST PUSH1 0x0 PUSH32 0x0 PUSH20 0xFFFFFFFFFFFFFFFFFFFFFFFFFFFFFFFFFFFFFFFF AND PUSH32 0x40C10F19C047AE7DFA66D6312B683D2EA3DFBCB4159E96B967C5F4B0A86F2842 DUP11 DUP11 PUSH1 0x40 MLOAD PUSH1 0x24 ADD PUSH2 0x2022 SWAP3 SWAP2 SWAP1 PUSH2 0x56D1 JUMP JUMPDEST PUSH1 0x40 MLOAD PUSH1 0x20 DUP2 DUP4 SUB SUB DUP2 MSTORE SWAP1 PUSH1 0x40 MSTORE SWAP1 PUSH28 0xFFFFFFFFFFFFFFFFFFFFFFFFFFFFFFFFFFFFFFFFFFFFFFFFFFFFFFFF NOT AND PUSH1 0x20 DUP3 ADD DUP1 MLOAD PUSH28 0xFFFFFFFFFFFFFFFFFFFFFFFFFFFFFFFFFFFFFFFFFFFFFFFFFFFFFFFF DUP4 DUP2 DUP4 AND OR DUP4 MSTORE POP POP POP POP PUSH1 0x40 MLOAD PUSH2 0x208C SWAP2 SWAP1 PUSH2 0x5760 JUMP JUMPDEST PUSH1 0x0 PUSH1 0x40 MLOAD DUP1 DUP4 SUB DUP2 PUSH1 0x0 DUP7 GAS CALL SWAP2 POP POP RETURNDATASIZE DUP1 PUSH1 0x0 DUP2 EQ PUSH2 0x20C9 JUMPI PUSH1 0x40 MLOAD SWAP2 POP PUSH1 0x1F NOT PUSH1 0x3F RETURNDATASIZE ADD AND DUP3 ADD PUSH1 0x40 MSTORE RETURNDATASIZE DUP3 MSTORE RETURNDATASIZE PUSH1 0x0 PUSH1 0x20 DUP5 ADD RETURNDATACOPY PUSH2 0x20CE JUMP JUMPDEST PUSH1 0x60 SWAP2 POP JUMPDEST POP POP SWAP1 POP PUSH2 0x20E6 PUSH8 0x66195D61D1C7C83E PUSH1 0xC0 SHL PUSH2 0x3A4D JUMP JUMPDEST PUSH2 0x20FA PUSH8 0x73204A79E75C633C PUSH1 0xC0 SHL PUSH2 0x3A4D JUMP JUMPDEST DUP1 PUSH2 0x2159 JUMPI PUSH2 0x2113 PUSH8 0x364EABA19D8E50C7 PUSH1 0xC0 SHL PUSH2 0x3A4D JUMP JUMPDEST PUSH2 0x2127 PUSH8 0xA2D20AED8136077A PUSH1 0xC0 SHL PUSH2 0x3A4D JUMP JUMPDEST PUSH1 0x40 MLOAD PUSH32 0x384EC20400000000000000000000000000000000000000000000000000000000 DUP2 MSTORE PUSH1 0x4 ADD PUSH1 0x40 MLOAD DUP1 SWAP2 SUB SWAP1 REVERT JUMPDEST PUSH2 0x216D PUSH8 0xC18559C7C55FF284 PUSH1 0xC0 SHL PUSH2 0x3A4D JUMP JUMPDEST POP JUMPDEST PUSH2 0x2183 PUSH8 0xFA22E53AC7D77F2F PUSH1 0xC0 SHL PUSH2 0x3A4D JUMP JUMPDEST PUSH2 0x2197 PUSH8 0xF147351AE7BC18E3 PUSH1 0xC0 SHL PUSH2 0x3A4D JUMP JUMPDEST DUP8 PUSH20 0xFFFFFFFFFFFFFFFFFFFFFFFFFFFFFFFFFFFFFFFF AND PUSH32 0x62A9B3E6446AB559D6B82C4F02CC923CD3B4E47444EF86446DAB81A4D781C5AF DUP8 DUP10 PUSH1 0x40 MLOAD PUSH2 0x21DF SWAP3 SWAP2 SWAP1 PUSH2 0x57AB JUMP JUMPDEST PUSH1 0x40 MLOAD DUP1 SWAP2 SUB SWAP1 LOG2 POP PUSH2 0x21F0 PUSH2 0x3A44 JUMP JUMPDEST POP POP POP POP POP POP POP JUMP JUMPDEST PUSH2 0x2201 PUSH2 0x3356 JUMP JUMPDEST PUSH2 0x220B PUSH1 0x0 PUSH2 0x40DA JUMP JUMPDEST JUMP JUMPDEST PUSH2 0x2221 PUSH8 0x241D4270B536D25C PUSH1 0xC0 SHL PUSH2 0x3353 JUMP JUMPDEST PUSH2 0x2229 PUSH2 0x3356 JUMP JUMPDEST PUSH2 0x223D PUSH8 0x445473C20907FEB1 PUSH1 0xC0 SHL PUSH2 0x3353 JUMP JUMPDEST PUSH2 0x2251 PUSH8 0x864D040E2ADFEC27 PUSH1 0xC0 SHL PUSH2 0x3353 JUMP JUMPDEST PUSH2 0x2265 PUSH8 0x7B9D90B8A133B494 PUSH1 0xC0 SHL PUSH2 0x3353 JUMP JUMPDEST PUSH2 0x2279 PUSH8 0xDE8FA192A20B7042 PUSH1 0xC0 SHL PUSH2 0x3353 JUMP JUMPDEST PUSH1 0x0 PUSH20 0xFFFFFFFFFFFFFFFFFFFFFFFFFFFFFFFFFFFFFFFF AND DUP2 PUSH20 0xFFFFFFFFFFFFFFFFFFFFFFFFFFFFFFFFFFFFFFFF AND SUB PUSH2 0x2307 JUMPI PUSH2 0x22C1 PUSH8 0x98025BEB5CFA7B1E PUSH1 0xC0 SHL PUSH2 0x3353 JUMP JUMPDEST PUSH2 0x22D5 PUSH8 0x436D7D41475704DB PUSH1 0xC0 SHL PUSH2 0x3353 JUMP JUMPDEST PUSH1 0x40 MLOAD PUSH32 0xD92E233D00000000000000000000000000000000000000000000000000000000 DUP2 MSTORE PUSH1 0x4 ADD PUSH1 0x40 MLOAD DUP1 SWAP2 SUB SWAP1 REVERT JUMPDEST PUSH2 0x231B PUSH8 0xB3FD81C5B1F7DBEB PUSH1 0xC0 SHL PUSH2 0x3353 JUMP JUMPDEST PUSH2 0x232F PUSH8 0xD9FD2CF2AA42CBE7 PUSH1 0xC0 SHL PUSH2 0x3353 JUMP JUMPDEST PUSH2 0x2343 PUSH8 0x1512905CDC9C28B8 PUSH1 0xC0 SHL PUSH2 0x3353 JUMP JUMPDEST DUP1 PUSH20 0xFFFFFFFFFFFFFFFFFFFFFFFFFFFFFFFFFFFFFFFF AND PUSH1 0x2 PUSH1 0x4 ADD PUSH1 0x0 SWAP1 SLOAD SWAP1 PUSH2 0x100 EXP SWAP1 DIV PUSH20 0xFFFFFFFFFFFFFFFFFFFFFFFFFFFFFFFFFFFFFFFF AND PUSH20 0xFFFFFFFFFFFFFFFFFFFFFFFFFFFFFFFFFFFFFFFF AND PUSH32 0x62904549814F5511A5D36A62611A6E2FE1D2C29B6DE74DE25D95395E0A7D009B PUSH1 0x40 MLOAD PUSH1 0x40 MLOAD DUP1 SWAP2 SUB SWAP1 LOG3 PUSH2 0x23D6 PUSH8 0xC3EDFB502758D309 PUSH1 0xC0 SHL PUSH2 0x3353 JUMP JUMPDEST DUP1 PUSH1 0x2 PUSH1 0x4 ADD PUSH1 0x0 PUSH2 0x100 EXP DUP2 SLOAD DUP2 PUSH20 0xFFFFFFFFFFFFFFFFFFFFFFFFFFFFFFFFFFFFFFFF MUL NOT AND SWAP1 DUP4 PUSH20 0xFFFFFFFFFFFFFFFFFFFFFFFFFFFFFFFFFFFFFFFF AND MUL OR SWAP1 SSTORE POP POP JUMP JUMPDEST PUSH1 0x0 DUP1 PUSH1 0x0 SWAP1 SLOAD SWAP1 PUSH2 0x100 EXP SWAP1 DIV PUSH20 0xFFFFFFFFFFFFFFFFFFFFFFFFFFFFFFFFFFFFFFFF AND SWAP1 POP SWAP1 JUMP JUMPDEST PUSH2 0x245A PUSH8 0x2DD9E39F1883129B PUSH1 0xC0 SHL PUSH2 0x3353 JUMP JUMPDEST PUSH2 0x2462 PUSH2 0x3356 JUMP JUMPDEST PUSH2 0x2476 PUSH8 0x2DB48A915CF3CFED PUSH1 0xC0 SHL PUSH2 0x3353 JUMP JUMPDEST PUSH2 0x248A PUSH8 0x681D2E48273B5C54 PUSH1 0xC0 SHL PUSH2 0x3353 JUMP JUMPDEST PUSH2 0x249E PUSH8 0x7D1DA2C11949325E PUSH1 0xC0 SHL PUSH2 0x3353 JUMP JUMPDEST PUSH2 0x24B2 PUSH8 0x5C7779A9B067CEC8 PUSH1 0xC0 SHL PUSH2 0x3353 JUMP JUMPDEST PUSH1 0x0 PUSH20 0xFFFFFFFFFFFFFFFFFFFFFFFFFFFFFFFFFFFFFFFF AND DUP2 PUSH20 0xFFFFFFFFFFFFFFFFFFFFFFFFFFFFFFFFFFFFFFFF AND SUB PUSH2 0x2540 JUMPI PUSH2 0x24FA PUSH8 0x396830A43C5DC32B PUSH1 0xC0 SHL PUSH2 0x3353 JUMP JUMPDEST PUSH2 0x250E PUSH8 0x888DA69B065DC7E8 PUSH1 0xC0 SHL PUSH2 0x3353 JUMP JUMPDEST PUSH1 0x40 MLOAD PUSH32 0xD92E233D00000000000000000000000000000000000000000000000000000000 DUP2 MSTORE PUSH1 0x4 ADD PUSH1 0x40 MLOAD DUP1 SWAP2 SUB SWAP1 REVERT JUMPDEST PUSH2 0x2554 PUSH8 0x7165A9BA7B5E1FFF PUSH1 0xC0 SHL PUSH2 0x3353 JUMP JUMPDEST PUSH2 0x2568 PUSH8 0x1CEBC041D307C0B8 PUSH1 0xC0 SHL PUSH2 0x3353 JUMP JUMPDEST PUSH2 0x257C PUSH8 0xC9A172E8A7207034 PUSH1 0xC0 SHL PUSH2 0x3353 JUMP JUMPDEST DUP1 PUSH20 0xFFFFFFFFFFFFFFFFFFFFFFFFFFFFFFFFFFFFFFFF AND PUSH1 0x2 PUSH1 0x3 ADD PUSH1 0x1 SWAP1 SLOAD SWAP1 PUSH2 0x100 EXP SWAP1 DIV PUSH20 0xFFFFFFFFFFFFFFFFFFFFFFFFFFFFFFFFFFFFFFFF AND PUSH20 0xFFFFFFFFFFFFFFFFFFFFFFFFFFFFFFFFFFFFFFFF AND PUSH32 0x62904549814F5511A5D36A62611A6E2FE1D2C29B6DE74DE25D95395E0A7D009B PUSH1 0x40 MLOAD PUSH1 0x40 MLOAD DUP1 SWAP2 SUB SWAP1 LOG3 PUSH2 0x260F PUSH8 0xB6004C2D1F867A24 PUSH1 0xC0 SHL PUSH2 0x3353 JUMP JUMPDEST DUP1 PUSH1 0x2 PUSH1 0x3 ADD PUSH1 0x1 PUSH2 0x100 EXP DUP2 SLOAD DUP2 PUSH20 0xFFFFFFFFFFFFFFFFFFFFFFFFFFFFFFFFFFFFFFFF MUL NOT AND SWAP1 DUP4 PUSH20 0xFFFFFFFFFFFFFFFFFFFFFFFFFFFFFFFFFFFFFFFF AND MUL OR SWAP1 SSTORE POP POP JUMP JUMPDEST PUSH1 0x0 DUP1 PUSH2 0x266D PUSH8 0x9C8C010DCBA9AA61 PUSH1 0xC0 SHL PUSH2 0x3353 JUMP JUMPDEST PUSH2 0x2681 PUSH8 0xE5CBC71A3D6454A1 PUSH1 0xC0 SHL PUSH2 0x3353 JUMP JUMPDEST PUSH2 0x2695 PUSH8 0x7BCB707BB46D8580 PUSH1 0xC0 SHL PUSH2 0x3353 JUMP JUMPDEST PUSH1 0x2 PUSH1 0x3 ADD PUSH1 0x1 SWAP1 SLOAD SWAP1 PUSH2 0x100 EXP SWAP1 DIV PUSH20 0xFFFFFFFFFFFFFFFFFFFFFFFFFFFFFFFFFFFFFFFF AND PUSH1 0x2 PUSH1 0x4 ADD PUSH1 0x0 SWAP1 SLOAD SWAP1 PUSH2 0x100 EXP SWAP1 DIV PUSH20 0xFFFFFFFFFFFFFFFFFFFFFFFFFFFFFFFFFFFFFFFF AND SWAP2 POP SWAP2 POP SWAP1 SWAP2 JUMP JUMPDEST PUSH2 0x26FD PUSH8 0x4F90AF087673CE6F PUSH1 0xC0 SHL PUSH2 0x3A4D JUMP JUMPDEST DUP5 PUSH2 0x2712 PUSH8 0x42D3A98020CD0012 PUSH1 0xC0 SHL PUSH2 0x3A4D JUMP JUMPDEST PUSH2 0x2726 PUSH8 0x22D91FA830D0D214 PUSH1 0xC0 SHL PUSH2 0x3A4D JUMP JUMPDEST PUSH2 0x273A PUSH8 0xC94C4D066F4262AF PUSH1 0xC0 SHL PUSH2 0x3A4D JUMP JUMPDEST PUSH1 0x9 SLOAD DUP2 LT DUP1 ISZERO PUSH2 0x274C JUMPI POP PUSH1 0xA SLOAD DUP2 GT JUMPDEST ISZERO PUSH2 0x27AB JUMPI PUSH2 0x2765 PUSH8 0x263F5367C8A52C50 PUSH1 0xC0 SHL PUSH2 0x3A4D JUMP JUMPDEST PUSH2 0x2779 PUSH8 0xBA298288F5E31C16 PUSH1 0xC0 SHL PUSH2 0x3A4D JUMP JUMPDEST PUSH1 0x40 MLOAD PUSH32 0x17DFB4AC00000000000000000000000000000000000000000000000000000000 DUP2 MSTORE PUSH1 0x4 ADD PUSH1 0x40 MLOAD DUP1 SWAP2 SUB SWAP1 REVERT JUMPDEST PUSH2 0x27BF PUSH8 0xE205E59A8E992FA3 PUSH1 0xC0 SHL PUSH2 0x3A4D JUMP JUMPDEST PUSH2 0x27D3 PUSH8 0xF32531761055309B PUSH1 0xC0 SHL PUSH2 0x3A4D JUMP JUMPDEST PUSH2 0x27E7 PUSH8 0xBA28A05D124B6AC5 PUSH1 0xC0 SHL PUSH2 0x3A4D JUMP JUMPDEST PUSH2 0x27FB PUSH8 0xF7FB4A7092CD39F7 PUSH1 0xC0 SHL PUSH2 0x3A4D JUMP JUMPDEST PUSH2 0x2803 PUSH2 0x39ED JUMP JUMPDEST PUSH2 0x2817 PUSH8 0xABF3118C351E2272 PUSH1 0xC0 SHL PUSH2 0x3A4D JUMP JUMPDEST PUSH2 0x282B PUSH8 0x1D815DF433538415 PUSH1 0xC0 SHL PUSH2 0x3A4D JUMP JUMPDEST PUSH2 0x283F PUSH8 0x1D10D19C972DC3DD PUSH1 0xC0 SHL PUSH2 0x3A4D JUMP JUMPDEST PUSH2 0x2853 PUSH8 0xE361F2C3A42F94D2 PUSH1 0xC0 SHL PUSH2 0x3A4D JUMP JUMPDEST DUP6 PUSH32 0x0 PUSH20 0xFFFFFFFFFFFFFFFFFFFFFFFFFFFFFFFFFFFFFFFF AND PUSH4 0x70A08231 PUSH2 0x2898 PUSH2 0x3A3C JUMP JUMPDEST PUSH1 0x40 MLOAD DUP3 PUSH4 0xFFFFFFFF AND PUSH1 0xE0 SHL DUP2 MSTORE PUSH1 0x4 ADD PUSH2 0x28B4 SWAP2 SWAP1 PUSH2 0x5076 JUMP JUMPDEST PUSH1 0x20 PUSH1 0x40 MLOAD DUP1 DUP4 SUB DUP2 DUP7 GAS STATICCALL ISZERO DUP1 ISZERO PUSH2 0x28D1 JUMPI RETURNDATASIZE PUSH1 0x0 DUP1 RETURNDATACOPY RETURNDATASIZE PUSH1 0x0 REVERT JUMPDEST POP POP POP POP PUSH1 0x40 MLOAD RETURNDATASIZE PUSH1 0x1F NOT PUSH1 0x1F DUP3 ADD AND DUP3 ADD DUP1 PUSH1 0x40 MSTORE POP DUP2 ADD SWAP1 PUSH2 0x28F5 SWAP2 SWAP1 PUSH2 0x5604 JUMP JUMPDEST LT ISZERO PUSH2 0x2955 JUMPI PUSH2 0x290F PUSH8 0xFB33C32CEEE34625 PUSH1 0xC0 SHL PUSH2 0x3A4D JUMP JUMPDEST PUSH2 0x2923 PUSH8 0xA5C3172FE6286F06 PUSH1 0xC0 SHL PUSH2 0x3A4D JUMP JUMPDEST PUSH1 0x40 MLOAD PUSH32 0xAD3A8B9E00000000000000000000000000000000000000000000000000000000 DUP2 MSTORE PUSH1 0x4 ADD PUSH1 0x40 MLOAD DUP1 SWAP2 SUB SWAP1 REVERT JUMPDEST PUSH2 0x2969 PUSH8 0xB5795AC9A3D8C779 PUSH1 0xC0 SHL PUSH2 0x3A4D JUMP JUMPDEST PUSH2 0x297D PUSH8 0xF076D933C2606F73 PUSH1 0xC0 SHL PUSH2 0x3A4D JUMP JUMPDEST PUSH2 0x2991 PUSH8 0x3ACC5A4CDB7F6706 PUSH1 0xC0 SHL PUSH2 0x3A4D JUMP JUMPDEST PUSH1 0x0 PUSH2 0x29CF DUP8 PUSH2 0x299F PUSH2 0x3A3C JUMP JUMPDEST DUP9 ADDRESS PUSH1 0x40 MLOAD PUSH1 0x20 ADD PUSH2 0x29B4 SWAP5 SWAP4 SWAP3 SWAP2 SWAP1 PUSH2 0x5820 JUMP JUMPDEST PUSH1 0x40 MLOAD PUSH1 0x20 DUP2 DUP4 SUB SUB DUP2 MSTORE SWAP1 PUSH1 0x40 MSTORE DUP1 MLOAD SWAP1 PUSH1 0x20 ADD KECCAK256 PUSH2 0x3A50 JUMP JUMPDEST SWAP1 POP PUSH2 0x29E5 PUSH8 0x243491DA15FD75CB PUSH1 0xC0 SHL PUSH2 0x3A4D JUMP JUMPDEST PUSH2 0x29F9 PUSH8 0x758A7581365BDC5 PUSH1 0xC0 SHL PUSH2 0x3A4D JUMP JUMPDEST PUSH1 0x7 PUSH1 0x0 SWAP1 SLOAD SWAP1 PUSH2 0x100 EXP SWAP1 DIV PUSH20 0xFFFFFFFFFFFFFFFFFFFFFFFFFFFFFFFFFFFFFFFF AND PUSH20 0xFFFFFFFFFFFFFFFFFFFFFFFFFFFFFFFFFFFFFFFF AND PUSH1 0x1 DUP3 DUP8 DUP8 DUP8 PUSH1 0x40 MLOAD PUSH1 0x0 DUP2 MSTORE PUSH1 0x20 ADD PUSH1 0x40 MSTORE PUSH1 0x40 MLOAD PUSH2 0x2A55 SWAP5 SWAP4 SWAP3 SWAP2 SWAP1 PUSH2 0x55AA JUMP JUMPDEST PUSH1 0x20 PUSH1 0x40 MLOAD PUSH1 0x20 DUP2 SUB SWAP1 DUP1 DUP5 SUB SWAP1 DUP6 GAS STATICCALL ISZERO DUP1 ISZERO PUSH2 0x2A77 JUMPI RETURNDATASIZE PUSH1 0x0 DUP1 RETURNDATACOPY RETURNDATASIZE PUSH1 0x0 REVERT JUMPDEST POP POP POP PUSH1 0x20 PUSH1 0x40 MLOAD SUB MLOAD PUSH20 0xFFFFFFFFFFFFFFFFFFFFFFFFFFFFFFFFFFFFFFFF AND EQ PUSH2 0x2AF6 JUMPI PUSH2 0x2AB0 PUSH8 0xD7E3363A5D447EDC PUSH1 0xC0 SHL PUSH2 0x3A4D JUMP JUMPDEST PUSH2 0x2AC4 PUSH8 0x8831FB8B3F65E25E PUSH1 0xC0 SHL PUSH2 0x3A4D JUMP JUMPDEST PUSH1 0x40 MLOAD PUSH32 0xA7A059BC00000000000000000000000000000000000000000000000000000000 DUP2 MSTORE PUSH1 0x4 ADD PUSH1 0x40 MLOAD DUP1 SWAP2 SUB SWAP1 REVERT JUMPDEST PUSH2 0x2B0A PUSH8 0x610BFB318CD615F1 PUSH1 0xC0 SHL PUSH2 0x3A4D JUMP JUMPDEST PUSH2 0x2B1E PUSH8 0xBA747AE33C57EE44 PUSH1 0xC0 SHL PUSH2 0x3A4D JUMP JUMPDEST PUSH2 0x2B32 PUSH8 0x17D4BA1514B96496 PUSH1 0xC0 SHL PUSH2 0x3A4D JUMP JUMPDEST PUSH1 0x8 PUSH1 0x0 DUP3 DUP2 MSTORE PUSH1 0x20 ADD SWAP1 DUP2 MSTORE PUSH1 0x20 ADD PUSH1 0x0 KECCAK256 PUSH1 0x0 SWAP1 SLOAD SWAP1 PUSH2 0x100 EXP SWAP1 DIV PUSH1 0xFF AND ISZERO PUSH2 0x2BB2 JUMPI PUSH2 0x2B6C PUSH8 0xBB5959125C97509E PUSH1 0xC0 SHL PUSH2 0x3A4D JUMP JUMPDEST PUSH2 0x2B80 PUSH8 0x2C2C80E705810322 PUSH1 0xC0 SHL PUSH2 0x3A4D JUMP JUMPDEST PUSH1 0x40 MLOAD PUSH32 0xCCE9A82400000000000000000000000000000000000000000000000000000000 DUP2 MSTORE PUSH1 0x4 ADD PUSH1 0x40 MLOAD DUP1 SWAP2 SUB SWAP1 REVERT JUMPDEST PUSH2 0x2BC6 PUSH8 0x289C9D197FF51310 PUSH1 0xC0 SHL PUSH2 0x3A4D JUMP JUMPDEST PUSH2 0x2BDA PUSH8 0x3C66033AD276E8EC PUSH1 0xC0 SHL PUSH2 0x3A4D JUMP JUMPDEST PUSH1 0x1 PUSH1 0x8 PUSH1 0x0 DUP4 DUP2 MSTORE PUSH1 0x20 ADD SWAP1 DUP2 MSTORE PUSH1 0x20 ADD PUSH1 0x0 KECCAK256 PUSH1 0x0 PUSH2 0x100 EXP DUP2 SLOAD DUP2 PUSH1 0xFF MUL NOT AND SWAP1 DUP4 ISZERO ISZERO MUL OR SWAP1 SSTORE POP PUSH2 0x2C1A PUSH8 0xAB39B73FA0EC25CD PUSH1 0xC0 SHL PUSH2 0x3A4D JUMP JUMPDEST PUSH2 0x2C2E PUSH8 0xCAB5E7B74EE65087 PUSH1 0xC0 SHL PUSH2 0x3A4D JUMP JUMPDEST PUSH1 0x2 PUSH1 0x0 ADD PUSH1 0x3 SWAP1 SLOAD SWAP1 PUSH2 0x100 EXP SWAP1 DIV PUSH1 0xFF AND ISZERO PUSH2 0x2D4C JUMPI PUSH2 0x2C5A PUSH8 0xDD334D415000C075 PUSH1 0xC0 SHL PUSH2 0x3A4D JUMP JUMPDEST PUSH2 0x2C6E PUSH8 0xA03968F910058F12 PUSH1 0xC0 SHL PUSH2 0x3A4D JUMP JUMPDEST PUSH2 0x2C82 PUSH8 0x74CF7482A6769EA0 PUSH1 0xC0 SHL PUSH2 0x3A4D JUMP JUMPDEST PUSH1 0x2 DUP1 DUP2 GT ISZERO PUSH2 0x2C95 JUMPI PUSH2 0x2C94 PUSH2 0x4D8A JUMP JUMPDEST JUMPDEST PUSH1 0x2 PUSH1 0x3 ADD PUSH1 0x0 SWAP1 SLOAD SWAP1 PUSH2 0x100 EXP SWAP1 DIV PUSH1 0xFF AND PUSH1 0x2 DUP2 GT ISZERO PUSH2 0x2CBA JUMPI PUSH2 0x2CB9 PUSH2 0x4D8A JUMP JUMPDEST JUMPDEST SUB PUSH2 0x2D08 JUMPI PUSH2 0x2CD3 PUSH8 0x41123A23C250F2A1 PUSH1 0xC0 SHL PUSH2 0x3A4D JUMP JUMPDEST PUSH2 0x2CE7 PUSH8 0xA0E2B1EDFE882872 PUSH1 0xC0 SHL PUSH2 0x3A4D JUMP JUMPDEST PUSH2 0x2CFB PUSH8 0x1BD6428358FF713C PUSH1 0xC0 SHL PUSH2 0x3A4D JUMP JUMPDEST PUSH2 0x2D03 PUSH2 0x3ABC JUMP JUMPDEST PUSH2 0x2D47 JUMP JUMPDEST PUSH2 0x2D1C PUSH8 0x3DB5830D6F2F341F PUSH1 0xC0 SHL PUSH2 0x3A4D JUMP JUMPDEST PUSH2 0x2D30 PUSH8 0x27569CE2A9E2CB0B PUSH1 0xC0 SHL PUSH2 0x3A4D JUMP JUMPDEST PUSH2 0x2D39 DUP8 PUSH2 0x419E JUMP JUMPDEST DUP8 PUSH2 0x2D44 SWAP2 SWAP1 PUSH2 0x5777 JUMP JUMPDEST SWAP7 POP JUMPDEST PUSH2 0x2D61 JUMP JUMPDEST PUSH2 0x2D60 PUSH8 0xC1F912402BD8E1BE PUSH1 0xC0 SHL PUSH2 0x3A4D JUMP JUMPDEST JUMPDEST PUSH2 0x2D75 PUSH8 0xA5C0535CA8E2012A PUSH1 0xC0 SHL PUSH2 0x3A4D JUMP JUMPDEST PUSH2 0x2D89 PUSH8 0x4AC19BCDBEF01AD2 PUSH1 0xC0 SHL PUSH2 0x3A4D JUMP JUMPDEST PUSH1 0x0 PUSH32 0x0 PUSH20 0xFFFFFFFFFFFFFFFFFFFFFFFFFFFFFFFFFFFFFFFF AND PUSH32 0x79CC679044EE9A2021F0A26C0FDEC02AC39179CD005BB971A471B7F9F17C576C PUSH2 0x2DEB PUSH2 0x3A3C JUMP JUMPDEST DUP11 PUSH1 0x40 MLOAD PUSH1 0x24 ADD PUSH2 0x2DFD SWAP3 SWAP2 SWAP1 PUSH2 0x56D1 JUMP JUMPDEST PUSH1 0x40 MLOAD PUSH1 0x20 DUP2 DUP4 SUB SUB DUP2 MSTORE SWAP1 PUSH1 0x40 MSTORE SWAP1 PUSH28 0xFFFFFFFFFFFFFFFFFFFFFFFFFFFFFFFFFFFFFFFFFFFFFFFFFFFFFFFF NOT AND PUSH1 0x20 DUP3 ADD DUP1 MLOAD PUSH28 0xFFFFFFFFFFFFFFFFFFFFFFFFFFFFFFFFFFFFFFFFFFFFFFFFFFFFFFFF DUP4 DUP2 DUP4 AND OR DUP4 MSTORE POP POP POP POP PUSH1 0x40 MLOAD PUSH2 0x2E67 SWAP2 SWAP1 PUSH2 0x5760 JUMP JUMPDEST PUSH1 0x0 PUSH1 0x40 MLOAD DUP1 DUP4 SUB DUP2 PUSH1 0x0 DUP7 GAS CALL SWAP2 POP POP RETURNDATASIZE DUP1 PUSH1 0x0 DUP2 EQ PUSH2 0x2EA4 JUMPI PUSH1 0x40 MLOAD SWAP2 POP PUSH1 0x1F NOT PUSH1 0x3F RETURNDATASIZE ADD AND DUP3 ADD PUSH1 0x40 MSTORE RETURNDATASIZE DUP3 MSTORE RETURNDATASIZE PUSH1 0x0 PUSH1 0x20 DUP5 ADD RETURNDATACOPY PUSH2 0x2EA9 JUMP JUMPDEST PUSH1 0x60 SWAP2 POP JUMPDEST POP POP SWAP1 POP PUSH2 0x2EC1 PUSH8 0x3292773F30A0BED5 PUSH1 0xC0 SHL PUSH2 0x3A4D JUMP JUMPDEST PUSH2 0x2ED5 PUSH8 0xB22107FF4D76D04B PUSH1 0xC0 SHL PUSH2 0x3A4D JUMP JUMPDEST DUP1 PUSH2 0x2F34 JUMPI PUSH2 0x2EEE PUSH8 0xECF460E113725252 PUSH1 0xC0 SHL PUSH2 0x3A4D JUMP JUMPDEST PUSH2 0x2F02 PUSH8 0x3CFACC604411949C PUSH1 0xC0 SHL PUSH2 0x3A4D JUMP JUMPDEST PUSH1 0x40 MLOAD PUSH32 0x384EC20400000000000000000000000000000000000000000000000000000000 DUP2 MSTORE PUSH1 0x4 ADD PUSH1 0x40 MLOAD DUP1 SWAP2 SUB SWAP1 REVERT JUMPDEST PUSH2 0x2F48 PUSH8 0x75498AFF69D1378 PUSH1 0xC0 SHL PUSH2 0x3A4D JUMP JUMPDEST PUSH2 0x2F5C PUSH8 0xDC0518CF88E8C056 PUSH1 0xC0 SHL PUSH2 0x3A4D JUMP JUMPDEST PUSH2 0x2F70 PUSH8 0x19DD3C84CABB22F2 PUSH1 0xC0 SHL PUSH2 0x3A4D JUMP JUMPDEST PUSH2 0x2F78 PUSH2 0x3A3C JUMP JUMPDEST PUSH20 0xFFFFFFFFFFFFFFFFFFFFFFFFFFFFFFFFFFFFFFFF AND PUSH32 0xB999B06746A947F1958636B9B9377AE814FE578413DFFFD4D3A7A96196FE02FC DUP9 DUP11 PUSH1 0x40 MLOAD PUSH2 0x2FBF SWAP3 SWAP2 SWAP1 PUSH2 0x57AB JUMP JUMPDEST PUSH1 0x40 MLOAD DUP1 SWAP2 SUB SWAP1 LOG2 POP POP PUSH2 0x2FD1 PUSH2 0x3A44 JUMP JUMPDEST POP POP POP POP POP POP JUMP JUMPDEST PUSH2 0x2FED PUSH8 0x859E6AA46DDA37D2 PUSH1 0xC0 SHL PUSH2 0x3353 JUMP JUMPDEST PUSH2 0x2FF5 PUSH2 0x3356 JUMP JUMPDEST PUSH2 0x3009 PUSH8 0x11C726CE6ADFFD97 PUSH1 0xC0 SHL PUSH2 0x3353 JUMP JUMPDEST PUSH2 0x301D PUSH8 0x91231038FA86A5AF PUSH1 0xC0 SHL PUSH2 0x3353 JUMP JUMPDEST PUSH2 0x3031 PUSH8 0x798D04C4B635E936 PUSH1 0xC0 SHL PUSH2 0x3353 JUMP JUMPDEST PUSH1 0x0 PUSH1 0x2 PUSH1 0x0 ADD PUSH1 0x3 PUSH2 0x100 EXP DUP2 SLOAD DUP2 PUSH1 0xFF MUL NOT AND SWAP1 DUP4 ISZERO ISZERO MUL OR SWAP1 SSTORE POP JUMP JUMPDEST PUSH1 0x0 PUSH2 0x3067 PUSH8 0x385028CAA205407D PUSH1 0xC0 SHL PUSH2 0x3A4D JUMP JUMPDEST PUSH2 0x307B PUSH8 0x726800DD4089B6D2 PUSH1 0xC0 SHL PUSH2 0x3A4D JUMP JUMPDEST PUSH2 0x308F PUSH8 0x6218C7D8CA2E5C0A PUSH1 0xC0 SHL PUSH2 0x3A4D JUMP JUMPDEST PUSH1 0x7 PUSH1 0x0 SWAP1 SLOAD SWAP1 PUSH2 0x100 EXP SWAP1 DIV PUSH20 0xFFFFFFFFFFFFFFFFFFFFFFFFFFFFFFFFFFFFFFFF AND SWAP1 POP SWAP1 JUMP JUMPDEST PUSH2 0x30CB PUSH8 0xBE58F04F4F5972C8 PUSH1 0xC0 SHL PUSH2 0x3A4D JUMP JUMPDEST PUSH2 0x30D3 PUSH2 0x3356 JUMP JUMPDEST PUSH2 0x30E7 PUSH8 0x6E90AB2DDC2AC49D PUSH1 0xC0 SHL PUSH2 0x3A4D JUMP JUMPDEST PUSH2 0x30FB PUSH8 0x62AF12E7B78F6536 PUSH1 0xC0 SHL PUSH2 0x3A4D JUMP JUMPDEST PUSH2 0x310F PUSH8 0x2470E39A8E592829 PUSH1 0xC0 SHL PUSH2 0x3A4D JUMP JUMPDEST PUSH2 0x3123 PUSH8 0xFA7065C80EBB6666 PUSH1 0xC0 SHL PUSH2 0x3A4D JUMP JUMPDEST PUSH1 0x0 PUSH20 0xFFFFFFFFFFFFFFFFFFFFFFFFFFFFFFFFFFFFFFFF AND DUP2 PUSH20 0xFFFFFFFFFFFFFFFFFFFFFFFFFFFFFFFFFFFFFFFF AND SUB PUSH2 0x31B1 JUMPI PUSH2 0x316B PUSH8 0x469491E0F72DD175 PUSH1 0xC0 SHL PUSH2 0x3A4D JUMP JUMPDEST PUSH2 0x317F PUSH8 0x9439DA0B50684D5B PUSH1 0xC0 SHL PUSH2 0x3A4D JUMP JUMPDEST PUSH1 0x40 MLOAD PUSH32 0xD92E233D00000000000000000000000000000000000000000000000000000000 DUP2 MSTORE PUSH1 0x4 ADD PUSH1 0x40 MLOAD DUP1 SWAP2 SUB SWAP1 REVERT JUMPDEST PUSH2 0x31C5 PUSH8 0x2469F2A7ADF5F352 PUSH1 0xC0 SHL PUSH2 0x3A4D JUMP JUMPDEST PUSH2 0x31D9 PUSH8 0x9C06C5EA4014C72 PUSH1 0xC0 SHL PUSH2 0x3A4D JUMP JUMPDEST DUP1 PUSH1 0x7 PUSH1 0x0 PUSH2 0x100 EXP DUP2 SLOAD DUP2 PUSH20 0xFFFFFFFFFFFFFFFFFFFFFFFFFFFFFFFFFFFFFFFF MUL NOT AND SWAP1 DUP4 PUSH20 0xFFFFFFFFFFFFFFFFFFFFFFFFFFFFFFFFFFFFFFFF AND MUL OR SWAP1 SSTORE POP PUSH2 0x322E PUSH8 0x43059B9DA0B0B0F9 PUSH1 0xC0 SHL PUSH2 0x3A4D JUMP JUMPDEST PUSH2 0x3242 PUSH8 0x8F406752C2C329FC PUSH1 0xC0 SHL PUSH2 0x3A4D JUMP JUMPDEST PUSH32 0x8F53E6A9FBC3949BC0B9266BBE1927F0B282A34D92876CCBE188C24D17C6CBB DUP2 PUSH1 0x40 MLOAD PUSH2 0x3271 SWAP2 SWAP1 PUSH2 0x5076 JUMP JUMPDEST PUSH1 0x40 MLOAD DUP1 SWAP2 SUB SWAP1 LOG1 POP JUMP JUMPDEST PUSH2 0x3284 PUSH2 0x3356 JUMP JUMPDEST PUSH1 0x0 PUSH20 0xFFFFFFFFFFFFFFFFFFFFFFFFFFFFFFFFFFFFFFFF AND DUP2 PUSH20 0xFFFFFFFFFFFFFFFFFFFFFFFFFFFFFFFFFFFFFFFF AND SUB PUSH2 0x32F3 JUMPI PUSH1 0x40 MLOAD PUSH32 0x8C379A000000000000000000000000000000000000000000000000000000000 DUP2 MSTORE PUSH1 0x4 ADD PUSH2 0x32EA SWAP1 PUSH2 0x58EB JUMP JUMPDEST PUSH1 0x40 MLOAD DUP1 SWAP2 SUB SWAP1 REVERT JUMPDEST PUSH2 0x32FC DUP2 PUSH2 0x40DA JUMP JUMPDEST POP JUMP JUMPDEST PUSH1 0x0 DUP1 PUSH1 0x0 PUSH2 0x3318 PUSH8 0x37269FE63243BE78 PUSH1 0xC0 SHL PUSH2 0x3A4D JUMP JUMPDEST PUSH2 0x332B PUSH7 0x15EFC018EFFDC0 PUSH1 0xC0 SHL PUSH2 0x3A4D JUMP JUMPDEST PUSH2 0x333F PUSH8 0x7A75515E9DCC6191 PUSH1 0xC0 SHL PUSH2 0x3A4D JUMP JUMPDEST PUSH1 0x9 SLOAD PUSH1 0xA SLOAD PUSH1 0xB SLOAD SWAP3 POP SWAP3 POP SWAP3 POP SWAP1 SWAP2 SWAP3 JUMP JUMPDEST POP JUMP JUMPDEST PUSH2 0x335E PUSH2 0x3A3C JUMP JUMPDEST PUSH20 0xFFFFFFFFFFFFFFFFFFFFFFFFFFFFFFFFFFFFFFFF AND PUSH2 0x337C PUSH2 0x241D JUMP JUMPDEST PUSH20 0xFFFFFFFFFFFFFFFFFFFFFFFFFFFFFFFFFFFFFFFF AND EQ PUSH2 0x33D2 JUMPI PUSH1 0x40 MLOAD PUSH32 0x8C379A000000000000000000000000000000000000000000000000000000000 DUP2 MSTORE PUSH1 0x4 ADD PUSH2 0x33C9 SWAP1 PUSH2 0x5957 JUMP JUMPDEST PUSH1 0x40 MLOAD DUP1 SWAP2 SUB SWAP1 REVERT JUMPDEST JUMP JUMPDEST PUSH2 0x33E8 PUSH8 0x7AEE11247D61FDF5 PUSH1 0xC0 SHL PUSH2 0x3353 JUMP JUMPDEST PUSH2 0x33FC PUSH8 0xB55E8DB1A985DEA3 PUSH1 0xC0 SHL PUSH2 0x3353 JUMP JUMPDEST PUSH2 0x3410 PUSH8 0xD9812DE961715A0A PUSH1 0xC0 SHL PUSH2 0x3353 JUMP JUMPDEST DUP7 PUSH1 0xFF AND PUSH1 0x2 PUSH1 0x0 ADD PUSH1 0x1 SWAP1 SLOAD SWAP1 PUSH2 0x100 EXP SWAP1 DIV PUSH1 0xFF AND PUSH1 0xFF AND EQ PUSH2 0x347A JUMPI PUSH2 0x3443 PUSH8 0x47CD2D0E89C561AC PUSH1 0xC0 SHL PUSH2 0x3353 JUMP JUMPDEST PUSH2 0x3457 PUSH8 0xC2EE2098C76B8BC9 PUSH1 0xC0 SHL PUSH2 0x3353 JUMP JUMPDEST DUP7 PUSH1 0x2 PUSH1 0x0 ADD PUSH1 0x1 PUSH2 0x100 EXP DUP2 SLOAD DUP2 PUSH1 0xFF MUL NOT AND SWAP1 DUP4 PUSH1 0xFF AND MUL OR SWAP1 SSTORE POP PUSH2 0x348F JUMP JUMPDEST PUSH2 0x348E PUSH8 0xA1C1A9373520FC24 PUSH1 0xC0 SHL PUSH2 0x3353 JUMP JUMPDEST JUMPDEST PUSH2 0x34A3 PUSH8 0x1503BD0E83EA35F2 PUSH1 0xC0 SHL PUSH2 0x3353 JUMP JUMPDEST PUSH2 0x34B7 PUSH8 0x6F99511BAB31C6FE PUSH1 0xC0 SHL PUSH2 0x3353 JUMP JUMPDEST DUP6 PUSH1 0xFF AND PUSH1 0x2 PUSH1 0x0 ADD PUSH1 0x2 SWAP1 SLOAD SWAP1 PUSH2 0x100 EXP SWAP1 DIV PUSH1 0xFF AND PUSH1 0xFF AND EQ PUSH2 0x3521 JUMPI PUSH2 0x34EA PUSH8 0xDB137FAE7693CF95 PUSH1 0xC0 SHL PUSH2 0x3353 JUMP JUMPDEST PUSH2 0x34FE PUSH8 0x6459650ECBF074CE PUSH1 0xC0 SHL PUSH2 0x3353 JUMP JUMPDEST DUP6 PUSH1 0x2 PUSH1 0x0 ADD PUSH1 0x2 PUSH2 0x100 EXP DUP2 SLOAD DUP2 PUSH1 0xFF MUL NOT AND SWAP1 DUP4 PUSH1 0xFF AND MUL OR SWAP1 SSTORE POP PUSH2 0x3536 JUMP JUMPDEST PUSH2 0x3535 PUSH8 0x4A1FF3C50923213E PUSH1 0xC0 SHL PUSH2 0x3353 JUMP JUMPDEST JUMPDEST PUSH2 0x354A PUSH8 0x3C4B0E4AE43FCF6C PUSH1 0xC0 SHL PUSH2 0x3353 JUMP JUMPDEST PUSH2 0x355E PUSH8 0x2A00A9920A47076A PUSH1 0xC0 SHL PUSH2 0x3353 JUMP JUMPDEST PUSH1 0x0 DUP6 EQ DUP1 ISZERO PUSH2 0x3571 JUMPI POP PUSH1 0x0 DUP9 PUSH1 0xFF AND GT JUMPDEST ISZERO PUSH2 0x3603 JUMPI PUSH2 0x358A PUSH8 0x19E4F52F80279392 PUSH1 0xC0 SHL PUSH2 0x3353 JUMP JUMPDEST PUSH2 0x359E PUSH8 0x7F8206A2F1E2E50A PUSH1 0xC0 SHL PUSH2 0x3353 JUMP JUMPDEST DUP8 PUSH1 0x2 PUSH1 0x0 ADD PUSH1 0x0 PUSH2 0x100 EXP DUP2 SLOAD DUP2 PUSH1 0xFF MUL NOT AND SWAP1 DUP4 PUSH1 0xFF AND MUL OR SWAP1 SSTORE POP PUSH2 0x35D0 PUSH8 0xFAF34FBA89F731D8 PUSH1 0xC0 SHL PUSH2 0x3353 JUMP JUMPDEST PUSH1 0x0 PUSH1 0x2 PUSH1 0x3 ADD PUSH1 0x0 PUSH2 0x100 EXP DUP2 SLOAD DUP2 PUSH1 0xFF MUL NOT AND SWAP1 DUP4 PUSH1 0x2 DUP2 GT ISZERO PUSH2 0x35F9 JUMPI PUSH2 0x35F8 PUSH2 0x4D8A JUMP JUMPDEST JUMPDEST MUL OR SWAP1 SSTORE POP PUSH2 0x379C JUMP JUMPDEST PUSH2 0x3617 PUSH8 0xE2370B6ED311968A PUSH1 0xC0 SHL PUSH2 0x3353 JUMP JUMPDEST PUSH2 0x362B PUSH8 0xF9CFBCF47C245666 PUSH1 0xC0 SHL PUSH2 0x3353 JUMP JUMPDEST PUSH1 0x1 DUP6 SUB PUSH2 0x36AB JUMPI PUSH2 0x3647 PUSH8 0x936AC0771EC70D75 PUSH1 0xC0 SHL PUSH2 0x3353 JUMP JUMPDEST PUSH2 0x365B PUSH8 0x8F134F30BDFB3A51 PUSH1 0xC0 SHL PUSH2 0x3353 JUMP JUMPDEST DUP4 PUSH1 0x2 DUP1 ADD DUP2 SWAP1 SSTORE POP PUSH2 0x3678 PUSH8 0x225986C418215264 PUSH1 0xC0 SHL PUSH2 0x3353 JUMP JUMPDEST PUSH1 0x1 PUSH1 0x2 PUSH1 0x3 ADD PUSH1 0x0 PUSH2 0x100 EXP DUP2 SLOAD DUP2 PUSH1 0xFF MUL NOT AND SWAP1 DUP4 PUSH1 0x2 DUP2 GT ISZERO PUSH2 0x36A1 JUMPI PUSH2 0x36A0 PUSH2 0x4D8A JUMP JUMPDEST JUMPDEST MUL OR SWAP1 SSTORE POP PUSH2 0x379B JUMP JUMPDEST PUSH2 0x36BF PUSH8 0xC385AC3F7A6DA3CB PUSH1 0xC0 SHL PUSH2 0x3353 JUMP JUMPDEST PUSH2 0x36D3 PUSH8 0x5FCF3523B8B6CEAE PUSH1 0xC0 SHL PUSH2 0x3353 JUMP JUMPDEST PUSH1 0x0 DUP4 GT ISZERO PUSH2 0x3785 JUMPI PUSH2 0x36F0 PUSH8 0x4DB4CA7F1AC42364 PUSH1 0xC0 SHL PUSH2 0x3353 JUMP JUMPDEST PUSH2 0x3704 PUSH8 0x65C800C3C300EF70 PUSH1 0xC0 SHL PUSH2 0x3353 JUMP JUMPDEST PUSH2 0x3718 PUSH8 0xC3E9DEF9FE5182C9 PUSH1 0xC0 SHL PUSH2 0x3353 JUMP JUMPDEST PUSH2 0x3721 DUP4 PUSH2 0x4704 JUMP JUMPDEST PUSH2 0x3735 PUSH8 0xDB324A2DEE3585FA PUSH1 0xC0 SHL PUSH2 0x3353 JUMP JUMPDEST DUP3 PUSH1 0x2 PUSH1 0x1 ADD DUP2 SWAP1 SSTORE POP PUSH2 0x3753 PUSH8 0xEDC4255CCF1DD1DB PUSH1 0xC0 SHL PUSH2 0x3353 JUMP JUMPDEST PUSH1 0x2 DUP1 PUSH1 0x3 ADD PUSH1 0x0 PUSH2 0x100 EXP DUP2 SLOAD DUP2 PUSH1 0xFF MUL NOT AND SWAP1 DUP4 PUSH1 0x2 DUP2 GT ISZERO PUSH2 0x377B JUMPI PUSH2 0x377A PUSH2 0x4D8A JUMP JUMPDEST JUMPDEST MUL OR SWAP1 SSTORE POP PUSH2 0x379A JUMP JUMPDEST PUSH2 0x3799 PUSH8 0xBE9A00D901988064 PUSH1 0xC0 SHL PUSH2 0x3353 JUMP JUMPDEST JUMPDEST JUMPDEST JUMPDEST PUSH2 0x37B0 PUSH8 0x5053FF483BE1644D PUSH1 0xC0 SHL PUSH2 0x3353 JUMP JUMPDEST PUSH2 0x37C4 PUSH8 0x23FE860C4FF4AD6E PUSH1 0xC0 SHL PUSH2 0x3353 JUMP JUMPDEST DUP2 PUSH20 0xFFFFFFFFFFFFFFFFFFFFFFFFFFFFFFFFFFFFFFFF AND PUSH1 0x2 PUSH1 0x3 ADD PUSH1 0x1 SWAP1 SLOAD SWAP1 PUSH2 0x100 EXP SWAP1 DIV PUSH20 0xFFFFFFFFFFFFFFFFFFFFFFFFFFFFFFFFFFFFFFFF AND PUSH20 0xFFFFFFFFFFFFFFFFFFFFFFFFFFFFFFFFFFFFFFFF AND EQ PUSH2 0x388D JUMPI PUSH2 0x3830 PUSH8 0x89F308B50F12175 PUSH1 0xC0 SHL PUSH2 0x3353 JUMP JUMPDEST PUSH2 0x3844 PUSH8 0x8E75D0CE80780185 PUSH1 0xC0 SHL PUSH2 0x3353 JUMP JUMPDEST DUP2 PUSH1 0x2 PUSH1 0x3 ADD PUSH1 0x1 PUSH2 0x100 EXP DUP2 SLOAD DUP2 PUSH20 0xFFFFFFFFFFFFFFFFFFFFFFFFFFFFFFFFFFFFFFFF MUL NOT AND SWAP1 DUP4 PUSH20 0xFFFFFFFFFFFFFFFFFFFFFFFFFFFFFFFFFFFFFFFF AND MUL OR SWAP1 SSTORE POP PUSH2 0x38A2 JUMP JUMPDEST PUSH2 0x38A1 PUSH8 0x200BF049EC3A3366 PUSH1 0xC0 SHL PUSH2 0x3353 JUMP JUMPDEST JUMPDEST PUSH2 0x38B6 PUSH8 0x6C805FB24582D530 PUSH1 0xC0 SHL PUSH2 0x3353 JUMP JUMPDEST PUSH2 0x38CA PUSH8 0xAE6640B4CB2C3156 PUSH1 0xC0 SHL PUSH2 0x3353 JUMP JUMPDEST DUP1 PUSH20 0xFFFFFFFFFFFFFFFFFFFFFFFFFFFFFFFFFFFFFFFF AND PUSH1 0x2 PUSH1 0x4 ADD PUSH1 0x0 SWAP1 SLOAD SWAP1 PUSH2 0x100 EXP SWAP1 DIV PUSH20 0xFFFFFFFFFFFFFFFFFFFFFFFFFFFFFFFFFFFFFFFF AND PUSH20 0xFFFFFFFFFFFFFFFFFFFFFFFFFFFFFFFFFFFFFFFF AND EQ ISZERO DUP1 ISZERO PUSH2 0x3958 JUMPI POP PUSH1 0x0 PUSH20 0xFFFFFFFFFFFFFFFFFFFFFFFFFFFFFFFFFFFFFFFF AND DUP2 PUSH20 0xFFFFFFFFFFFFFFFFFFFFFFFFFFFFFFFFFFFFFFFF AND EQ ISZERO JUMPDEST ISZERO PUSH2 0x39CE JUMPI PUSH2 0x3971 PUSH8 0x9F834E10961218CD PUSH1 0xC0 SHL PUSH2 0x3353 JUMP JUMPDEST PUSH2 0x3985 PUSH8 0x78EFB028819602DD PUSH1 0xC0 SHL PUSH2 0x3353 JUMP JUMPDEST DUP1 PUSH1 0x2 PUSH1 0x4 ADD PUSH1 0x0 PUSH2 0x100 EXP DUP2 SLOAD DUP2 PUSH20 0xFFFFFFFFFFFFFFFFFFFFFFFFFFFFFFFFFFFFFFFF MUL NOT AND SWAP1 DUP4 PUSH20 0xFFFFFFFFFFFFFFFFFFFFFFFFFFFFFFFFFFFFFFFF AND MUL OR SWAP1 SSTORE POP PUSH2 0x39E3 JUMP JUMPDEST PUSH2 0x39E2 PUSH8 0x569E29691FC03C3B PUSH1 0xC0 SHL PUSH2 0x3353 JUMP JUMPDEST JUMPDEST POP POP POP POP POP POP POP POP JUMP JUMPDEST PUSH1 0x2 PUSH1 0x1 SLOAD SUB PUSH2 0x3A32 JUMPI PUSH1 0x40 MLOAD PUSH32 0x8C379A000000000000000000000000000000000000000000000000000000000 DUP2 MSTORE PUSH1 0x4 ADD PUSH2 0x3A29 SWAP1 PUSH2 0x59C3 JUMP JUMPDEST PUSH1 0x40 MLOAD DUP1 SWAP2 SUB SWAP1 REVERT JUMPDEST PUSH1 0x2 PUSH1 0x1 DUP2 SWAP1 SSTORE POP JUMP JUMPDEST PUSH1 0x0 CALLER SWAP1 POP SWAP1 JUMP JUMPDEST PUSH1 0x1 DUP1 DUP2 SWAP1 SSTORE POP JUMP JUMPDEST POP JUMP JUMPDEST PUSH1 0x0 PUSH2 0x3A66 PUSH8 0xBA47D48CFADE4511 PUSH1 0xC0 SHL PUSH2 0x3A4D JUMP JUMPDEST PUSH2 0x3A7A PUSH8 0x5DA7C96E8B6B26BF PUSH1 0xC0 SHL PUSH2 0x3A4D JUMP JUMPDEST PUSH2 0x3A8E PUSH8 0xA9E64363F2ED1D28 PUSH1 0xC0 SHL PUSH2 0x3A4D JUMP JUMPDEST DUP2 PUSH1 0x40 MLOAD PUSH1 0x20 ADD PUSH2 0x3A9F SWAP2 SWAP1 PUSH2 0x5A2F JUMP JUMPDEST PUSH1 0x40 MLOAD PUSH1 0x20 DUP2 DUP4 SUB SUB DUP2 MSTORE SWAP1 PUSH1 0x40 MSTORE DUP1 MLOAD SWAP1 PUSH1 0x20 ADD KECCAK256 SWAP1 POP SWAP2 SWAP1 POP JUMP JUMPDEST PUSH2 0x3AD0 PUSH8 0xB42E53CE83978932 PUSH1 0xC0 SHL PUSH2 0x3353 JUMP JUMPDEST PUSH2 0x3AE4 PUSH8 0xA235212DB428F043 PUSH1 0xC0 SHL PUSH2 0x3353 JUMP JUMPDEST PUSH2 0x3AF8 PUSH8 0x32EDD5F69560CC4F PUSH1 0xC0 SHL PUSH2 0x3353 JUMP JUMPDEST PUSH1 0x2 PUSH1 0x1 ADD SLOAD CALLVALUE EQ PUSH2 0x3B70 JUMPI PUSH2 0x3B18 PUSH8 0x6138ACCBEB138785 PUSH1 0xC0 SHL PUSH2 0x3353 JUMP JUMPDEST PUSH2 0x3B2C PUSH8 0x7656EFF20643AC91 PUSH1 0xC0 SHL PUSH2 0x3353 JUMP JUMPDEST CALLVALUE PUSH1 0x2 PUSH1 0x1 ADD SLOAD PUSH1 0x40 MLOAD PUSH32 0xF744231900000000000000000000000000000000000000000000000000000000 DUP2 MSTORE PUSH1 0x4 ADD PUSH2 0x3B67 SWAP3 SWAP2 SWAP1 PUSH2 0x5A55 JUMP JUMPDEST PUSH1 0x40 MLOAD DUP1 SWAP2 SUB SWAP1 REVERT JUMPDEST PUSH2 0x3B84 PUSH8 0x4F22D9DF5A4C33E2 PUSH1 0xC0 SHL PUSH2 0x3353 JUMP JUMPDEST JUMP JUMPDEST PUSH1 0x0 PUSH2 0x3B9C PUSH8 0xB6DA6D3F8C25E0C0 PUSH1 0xC0 SHL PUSH2 0x3353 JUMP JUMPDEST PUSH2 0x3BB0 PUSH8 0x6AC26EDDFF565044 PUSH1 0xC0 SHL PUSH2 0x3353 JUMP JUMPDEST PUSH2 0x3BC4 PUSH8 0xAC50EE87A8A9B6C0 PUSH1 0xC0 SHL PUSH2 0x3353 JUMP JUMPDEST PUSH1 0x0 DUP1 PUSH2 0x3BD0 DUP5 PUSH2 0x47D9 JUMP JUMPDEST SWAP2 POP SWAP2 POP PUSH2 0x3BE8 PUSH8 0xB820C1EF2FC62D3B PUSH1 0xC0 SHL PUSH2 0x3353 JUMP JUMPDEST PUSH2 0x3BFC PUSH8 0x52BE21A270D3AD34 PUSH1 0xC0 SHL PUSH2 0x3353 JUMP JUMPDEST PUSH1 0x0 PUSH20 0xFFFFFFFFFFFFFFFFFFFFFFFFFFFFFFFFFFFFFFFF AND PUSH1 0x2 PUSH1 0x3 ADD PUSH1 0x1 SWAP1 SLOAD SWAP1 PUSH2 0x100 EXP SWAP1 DIV PUSH20 0xFFFFFFFFFFFFFFFFFFFFFFFFFFFFFFFFFFFFFFFF AND PUSH20 0xFFFFFFFFFFFFFFFFFFFFFFFFFFFFFFFFFFFFFFFF AND EQ ISZERO DUP1 ISZERO PUSH2 0x3C5E JUMPI POP DUP2 DUP2 EQ ISZERO JUMPDEST ISZERO PUSH2 0x3E8D JUMPI PUSH2 0x3C77 PUSH8 0xC2C3662D1FE12D4A PUSH1 0xC0 SHL PUSH2 0x3353 JUMP JUMPDEST PUSH2 0x3C8B PUSH8 0x215D1FEF5DA6CB3C PUSH1 0xC0 SHL PUSH2 0x3353 JUMP JUMPDEST PUSH2 0x3C9F PUSH8 0x8A70A9912D70BCD6 PUSH1 0xC0 SHL PUSH2 0x3353 JUMP JUMPDEST PUSH1 0x0 PUSH32 0x0 PUSH20 0xFFFFFFFFFFFFFFFFFFFFFFFFFFFFFFFFFFFFFFFF AND PUSH32 0xA9059CBB2AB09EB219583F4A59A5D0623ADE346D962BCD4E46B11DA047C9049B PUSH1 0x2 PUSH1 0x3 ADD PUSH1 0x1 SWAP1 SLOAD SWAP1 PUSH2 0x100 EXP SWAP1 DIV PUSH20 0xFFFFFFFFFFFFFFFFFFFFFFFFFFFFFFFFFFFFFFFF AND DUP6 DUP6 PUSH2 0x3D2B SWAP2 SWAP1 PUSH2 0x5777 JUMP JUMPDEST PUSH1 0x40 MLOAD PUSH1 0x24 ADD PUSH2 0x3D3C SWAP3 SWAP2 SWAP1 PUSH2 0x5A7E JUMP JUMPDEST PUSH1 0x40 MLOAD PUSH1 0x20 DUP2 DUP4 SUB SUB DUP2 MSTORE SWAP1 PUSH1 0x40 MSTORE SWAP1 PUSH28 0xFFFFFFFFFFFFFFFFFFFFFFFFFFFFFFFFFFFFFFFFFFFFFFFFFFFFFFFF NOT AND PUSH1 0x20 DUP3 ADD DUP1 MLOAD PUSH28 0xFFFFFFFFFFFFFFFFFFFFFFFFFFFFFFFFFFFFFFFFFFFFFFFFFFFFFFFF DUP4 DUP2 DUP4 AND OR DUP4 MSTORE POP POP POP POP PUSH1 0x40 MLOAD PUSH2 0x3DA6 SWAP2 SWAP1 PUSH2 0x5760 JUMP JUMPDEST PUSH1 0x0 PUSH1 0x40 MLOAD DUP1 DUP4 SUB DUP2 PUSH1 0x0 DUP7 GAS CALL SWAP2 POP POP RETURNDATASIZE DUP1 PUSH1 0x0 DUP2 EQ PUSH2 0x3DE3 JUMPI PUSH1 0x40 MLOAD SWAP2 POP PUSH1 0x1F NOT PUSH1 0x3F RETURNDATASIZE ADD AND DUP3 ADD PUSH1 0x40 MSTORE RETURNDATASIZE DUP3 MSTORE RETURNDATASIZE PUSH1 0x0 PUSH1 0x20 DUP5 ADD RETURNDATACOPY PUSH2 0x3DE8 JUMP JUMPDEST PUSH1 0x60 SWAP2 POP JUMPDEST POP POP SWAP1 POP PUSH2 0x3E00 PUSH8 0xB9637583E4FD3FA3 PUSH1 0xC0 SHL PUSH2 0x3353 JUMP JUMPDEST PUSH2 0x3E14 PUSH8 0xFE253824D247BC87 PUSH1 0xC0 SHL PUSH2 0x3353 JUMP JUMPDEST DUP1 PUSH2 0x3E73 JUMPI PUSH2 0x3E2D PUSH8 0xDD8A5596F3E9DBAF PUSH1 0xC0 SHL PUSH2 0x3353 JUMP JUMPDEST PUSH2 0x3E41 PUSH8 0xE7745E4A74445811 PUSH1 0xC0 SHL PUSH2 0x3353 JUMP JUMPDEST PUSH1 0x40 MLOAD PUSH32 0xD291274F00000000000000000000000000000000000000000000000000000000 DUP2 MSTORE PUSH1 0x4 ADD PUSH1 0x40 MLOAD DUP1 SWAP2 SUB SWAP1 REVERT JUMPDEST PUSH2 0x3E87 PUSH8 0xDFB7D86D97227B2E PUSH1 0xC0 SHL PUSH2 0x3353 JUMP JUMPDEST POP PUSH2 0x3EA2 JUMP JUMPDEST PUSH2 0x3EA1 PUSH8 0x5A8AFC59B2ECC19D PUSH1 0xC0 SHL PUSH2 0x3353 JUMP JUMPDEST JUMPDEST PUSH2 0x3EB6 PUSH8 0xB35F99CA4D9B7947 PUSH1 0xC0 SHL PUSH2 0x3353 JUMP JUMPDEST PUSH2 0x3ECA PUSH8 0xB4BC53DE7A66BC23 PUSH1 0xC0 SHL PUSH2 0x3353 JUMP JUMPDEST PUSH1 0x0 PUSH32 0x0 PUSH20 0xFFFFFFFFFFFFFFFFFFFFFFFFFFFFFFFFFFFFFFFF AND PUSH32 0xA9059CBB2AB09EB219583F4A59A5D0623ADE346D962BCD4E46B11DA047C9049B PUSH1 0x2 PUSH1 0x4 ADD PUSH1 0x0 SWAP1 SLOAD SWAP1 PUSH2 0x100 EXP SWAP1 DIV PUSH20 0xFFFFFFFFFFFFFFFFFFFFFFFFFFFFFFFFFFFFFFFF AND DUP6 PUSH1 0x40 MLOAD PUSH1 0x24 ADD PUSH2 0x3F5C SWAP3 SWAP2 SWAP1 PUSH2 0x5A7E JUMP JUMPDEST PUSH1 0x40 MLOAD PUSH1 0x20 DUP2 DUP4 SUB SUB DUP2 MSTORE SWAP1 PUSH1 0x40 MSTORE SWAP1 PUSH28 0xFFFFFFFFFFFFFFFFFFFFFFFFFFFFFFFFFFFFFFFFFFFFFFFFFFFFFFFF NOT AND PUSH1 0x20 DUP3 ADD DUP1 MLOAD PUSH28 0xFFFFFFFFFFFFFFFFFFFFFFFFFFFFFFFFFFFFFFFFFFFFFFFFFFFFFFFF DUP4 DUP2 DUP4 AND OR DUP4 MSTORE POP POP POP POP PUSH1 0x40 MLOAD PUSH2 0x3FC6 SWAP2 SWAP1 PUSH2 0x5760 JUMP JUMPDEST PUSH1 0x0 PUSH1 0x40 MLOAD DUP1 DUP4 SUB DUP2 PUSH1 0x0 DUP7 GAS CALL SWAP2 POP POP RETURNDATASIZE DUP1 PUSH1 0x0 DUP2 EQ PUSH2 0x4003 JUMPI PUSH1 0x40 MLOAD SWAP2 POP PUSH1 0x1F NOT PUSH1 0x3F RETURNDATASIZE ADD AND DUP3 ADD PUSH1 0x40 MSTORE RETURNDATASIZE DUP3 MSTORE RETURNDATASIZE PUSH1 0x0 PUSH1 0x20 DUP5 ADD RETURNDATACOPY PUSH2 0x4008 JUMP JUMPDEST PUSH1 0x60 SWAP2 POP JUMPDEST POP POP SWAP1 POP PUSH2 0x4020 PUSH8 0x97960940CCE12842 PUSH1 0xC0 SHL PUSH2 0x3353 JUMP JUMPDEST PUSH2 0x4034 PUSH8 0x8D04BD95F8F1AA2D PUSH1 0xC0 SHL PUSH2 0x3353 JUMP JUMPDEST DUP1 PUSH2 0x4093 JUMPI PUSH2 0x404D PUSH8 0xBA77D1294207E9F5 PUSH1 0xC0 SHL PUSH2 0x3353 JUMP JUMPDEST PUSH2 0x4061 PUSH8 0xB145AD458B0BCF2A PUSH1 0xC0 SHL PUSH2 0x3353 JUMP JUMPDEST PUSH1 0x40 MLOAD PUSH32 0xD291274F00000000000000000000000000000000000000000000000000000000 DUP2 MSTORE PUSH1 0x4 ADD PUSH1 0x40 MLOAD DUP1 SWAP2 SUB SWAP1 REVERT JUMPDEST PUSH2 0x40A7 PUSH8 0xF014013BE4EA5C38 PUSH1 0xC0 SHL PUSH2 0x3353 JUMP JUMPDEST PUSH2 0x40BB PUSH8 0x5EBD9759EFC9FC2B PUSH1 0xC0 SHL PUSH2 0x3353 JUMP JUMPDEST PUSH2 0x40CF PUSH8 0x5F26645BF54A8139 PUSH1 0xC0 SHL PUSH2 0x3353 JUMP JUMPDEST DUP2 SWAP4 POP POP POP POP SWAP2 SWAP1 POP JUMP JUMPDEST PUSH1 0x0 DUP1 PUSH1 0x0 SWAP1 SLOAD SWAP1 PUSH2 0x100 EXP SWAP1 DIV PUSH20 0xFFFFFFFFFFFFFFFFFFFFFFFFFFFFFFFFFFFFFFFF AND SWAP1 POP DUP2 PUSH1 0x0 DUP1 PUSH2 0x100 EXP DUP2 SLOAD DUP2 PUSH20 0xFFFFFFFFFFFFFFFFFFFFFFFFFFFFFFFFFFFFFFFF MUL NOT AND SWAP1 DUP4 PUSH20 0xFFFFFFFFFFFFFFFFFFFFFFFFFFFFFFFFFFFFFFFF AND MUL OR SWAP1 SSTORE POP DUP2 PUSH20 0xFFFFFFFFFFFFFFFFFFFFFFFFFFFFFFFFFFFFFFFF AND DUP2 PUSH20 0xFFFFFFFFFFFFFFFFFFFFFFFFFFFFFFFFFFFFFFFF AND PUSH32 0x8BE0079C531659141344CD1FD0A4F28419497F9722A3DAAFE3B4186F6B6457E0 PUSH1 0x40 MLOAD PUSH1 0x40 MLOAD DUP1 SWAP2 SUB SWAP1 LOG3 POP POP JUMP JUMPDEST PUSH1 0x0 PUSH2 0x41B4 PUSH8 0x9AB3376D9BFBFB04 PUSH1 0xC0 SHL PUSH2 0x3353 JUMP JUMPDEST PUSH2 0x41C8 PUSH8 0xE453830A2681987F PUSH1 0xC0 SHL PUSH2 0x3353 JUMP JUMPDEST PUSH2 0x41DC PUSH8 0x18DE0F01C637548 PUSH1 0xC0 SHL PUSH2 0x3353 JUMP JUMPDEST PUSH1 0x0 DUP1 PUSH2 0x41E8 DUP5 PUSH2 0x47D9 JUMP JUMPDEST SWAP2 POP SWAP2 POP PUSH2 0x4200 PUSH8 0x9C15BE51B639E65D PUSH1 0xC0 SHL PUSH2 0x3353 JUMP JUMPDEST PUSH2 0x4214 PUSH8 0x42195962980776A5 PUSH1 0xC0 SHL PUSH2 0x3353 JUMP JUMPDEST PUSH1 0x0 PUSH20 0xFFFFFFFFFFFFFFFFFFFFFFFFFFFFFFFFFFFFFFFF AND PUSH1 0x2 PUSH1 0x3 ADD PUSH1 0x1 SWAP1 SLOAD SWAP1 PUSH2 0x100 EXP SWAP1 DIV PUSH20 0xFFFFFFFFFFFFFFFFFFFFFFFFFFFFFFFFFFFFFFFF AND PUSH20 0xFFFFFFFFFFFFFFFFFFFFFFFFFFFFFFFFFFFFFFFF AND EQ ISZERO DUP1 ISZERO PUSH2 0x4276 JUMPI POP DUP2 DUP2 EQ ISZERO JUMPDEST ISZERO PUSH2 0x44AE JUMPI PUSH2 0x428F PUSH8 0x9BDD02F18E77877C PUSH1 0xC0 SHL PUSH2 0x3353 JUMP JUMPDEST PUSH2 0x42A3 PUSH8 0xECDB126AD7C5DD22 PUSH1 0xC0 SHL PUSH2 0x3353 JUMP JUMPDEST PUSH2 0x42B7 PUSH8 0x83797A3351B6C6F8 PUSH1 0xC0 SHL PUSH2 0x3353 JUMP JUMPDEST PUSH1 0x0 PUSH32 0x0 PUSH20 0xFFFFFFFFFFFFFFFFFFFFFFFFFFFFFFFFFFFFFFFF AND PUSH32 0x23B872DD7302113369CDA2901243429419BEC145408FA8B352B3DD92B66C680B PUSH2 0x4319 PUSH2 0x3A3C JUMP JUMPDEST PUSH1 0x2 PUSH1 0x3 ADD PUSH1 0x1 SWAP1 SLOAD SWAP1 PUSH2 0x100 EXP SWAP1 DIV PUSH20 0xFFFFFFFFFFFFFFFFFFFFFFFFFFFFFFFFFFFFFFFF AND DUP7 DUP7 PUSH2 0x434B SWAP2 SWAP1 PUSH2 0x5777 JUMP JUMPDEST PUSH1 0x40 MLOAD PUSH1 0x24 ADD PUSH2 0x435D SWAP4 SWAP3 SWAP2 SWAP1 PUSH2 0x5AA7 JUMP JUMPDEST PUSH1 0x40 MLOAD PUSH1 0x20 DUP2 DUP4 SUB SUB DUP2 MSTORE SWAP1 PUSH1 0x40 MSTORE SWAP1 PUSH28 0xFFFFFFFFFFFFFFFFFFFFFFFFFFFFFFFFFFFFFFFFFFFFFFFFFFFFFFFF NOT AND PUSH1 0x20 DUP3 ADD DUP1 MLOAD PUSH28 0xFFFFFFFFFFFFFFFFFFFFFFFFFFFFFFFFFFFFFFFFFFFFFFFFFFFFFFFF DUP4 DUP2 DUP4 AND OR DUP4 MSTORE POP POP POP POP PUSH1 0x40 MLOAD PUSH2 0x43C7 SWAP2 SWAP1 PUSH2 0x5760 JUMP JUMPDEST PUSH1 0x0 PUSH1 0x40 MLOAD DUP1 DUP4 SUB DUP2 PUSH1 0x0 DUP7 GAS CALL SWAP2 POP POP RETURNDATASIZE DUP1 PUSH1 0x0 DUP2 EQ PUSH2 0x4404 JUMPI PUSH1 0x40 MLOAD SWAP2 POP PUSH1 0x1F NOT PUSH1 0x3F RETURNDATASIZE ADD AND DUP3 ADD PUSH1 0x40 MSTORE RETURNDATASIZE DUP3 MSTORE RETURNDATASIZE PUSH1 0x0 PUSH1 0x20 DUP5 ADD RETURNDATACOPY PUSH2 0x4409 JUMP JUMPDEST PUSH1 0x60 SWAP2 POP JUMPDEST POP POP SWAP1 POP PUSH2 0x4421 PUSH8 0xFCDFDC91FD173D49 PUSH1 0xC0 SHL PUSH2 0x3353 JUMP JUMPDEST PUSH2 0x4435 PUSH8 0x590F7DE7B06F642D PUSH1 0xC0 SHL PUSH2 0x3353 JUMP JUMPDEST DUP1 PUSH2 0x4494 JUMPI PUSH2 0x444E PUSH8 0x51A83C39CC9E57CF PUSH1 0xC0 SHL PUSH2 0x3353 JUMP JUMPDEST PUSH2 0x4462 PUSH8 0xE3682D672A48A4A4 PUSH1 0xC0 SHL PUSH2 0x3353 JUMP JUMPDEST PUSH1 0x40 MLOAD PUSH32 0xD291274F00000000000000000000000000000000000000000000000000000000 DUP2 MSTORE PUSH1 0x4 ADD PUSH1 0x40 MLOAD DUP1 SWAP2 SUB SWAP1 REVERT JUMPDEST PUSH2 0x44A8 PUSH8 0xBC74BBC128D5EFB4 PUSH1 0xC0 SHL PUSH2 0x3353 JUMP JUMPDEST POP PUSH2 0x44C3 JUMP JUMPDEST PUSH2 0x44C2 PUSH8 0x2C3EEFFB14279C01 PUSH1 0xC0 SHL PUSH2 0x3353 JUMP JUMPDEST JUMPDEST PUSH2 0x44D7 PUSH8 0x67CAAE9BEE7BA572 PUSH1 0xC0 SHL PUSH2 0x3353 JUMP JUMPDEST PUSH2 0x44EB PUSH8 0x8CB20B1E2A9DDF13 PUSH1 0xC0 SHL PUSH2 0x3353 JUMP JUMPDEST PUSH1 0x0 PUSH32 0x0 PUSH20 0xFFFFFFFFFFFFFFFFFFFFFFFFFFFFFFFFFFFFFFFF AND PUSH32 0x23B872DD7302113369CDA2901243429419BEC145408FA8B352B3DD92B66C680B PUSH2 0x454D PUSH2 0x3A3C JUMP JUMPDEST PUSH1 0x2 PUSH1 0x4 ADD PUSH1 0x0 SWAP1 SLOAD SWAP1 PUSH2 0x100 EXP SWAP1 DIV PUSH20 0xFFFFFFFFFFFFFFFFFFFFFFFFFFFFFFFFFFFFFFFF AND DUP7 PUSH1 0x40 MLOAD PUSH1 0x24 ADD PUSH2 0x4586 SWAP4 SWAP3 SWAP2 SWAP1 PUSH2 0x5AA7 JUMP JUMPDEST PUSH1 0x40 MLOAD PUSH1 0x20 DUP2 DUP4 SUB SUB DUP2 MSTORE SWAP1 PUSH1 0x40 MSTORE SWAP1 PUSH28 0xFFFFFFFFFFFFFFFFFFFFFFFFFFFFFFFFFFFFFFFFFFFFFFFFFFFFFFFF NOT AND PUSH1 0x20 DUP3 ADD DUP1 MLOAD PUSH28 0xFFFFFFFFFFFFFFFFFFFFFFFFFFFFFFFFFFFFFFFFFFFFFFFFFFFFFFFF DUP4 DUP2 DUP4 AND OR DUP4 MSTORE POP POP POP POP PUSH1 0x40 MLOAD PUSH2 0x45F0 SWAP2 SWAP1 PUSH2 0x5760 JUMP JUMPDEST PUSH1 0x0 PUSH1 0x40 MLOAD DUP1 DUP4 SUB DUP2 PUSH1 0x0 DUP7 GAS CALL SWAP2 POP POP RETURNDATASIZE DUP1 PUSH1 0x0 DUP2 EQ PUSH2 0x462D JUMPI PUSH1 0x40 MLOAD SWAP2 POP PUSH1 0x1F NOT PUSH1 0x3F RETURNDATASIZE ADD AND DUP3 ADD PUSH1 0x40 MSTORE RETURNDATASIZE DUP3 MSTORE RETURNDATASIZE PUSH1 0x0 PUSH1 0x20 DUP5 ADD RETURNDATACOPY PUSH2 0x4632 JUMP JUMPDEST PUSH1 0x60 SWAP2 POP JUMPDEST POP POP SWAP1 POP PUSH2 0x464A PUSH8 0x2EE685EA26F7DC93 PUSH1 0xC0 SHL PUSH2 0x3353 JUMP JUMPDEST PUSH2 0x465E PUSH8 0xBDEE69E59725EF14 PUSH1 0xC0 SHL PUSH2 0x3353 JUMP JUMPDEST DUP1 PUSH2 0x46BD JUMPI PUSH2 0x4677 PUSH8 0x7A597B39CA6D723E PUSH1 0xC0 SHL PUSH2 0x3353 JUMP JUMPDEST PUSH2 0x468B PUSH8 0x838B2072DB516851 PUSH1 0xC0 SHL PUSH2 0x3353 JUMP JUMPDEST PUSH1 0x40 MLOAD PUSH32 0xD291274F00000000000000000000000000000000000000000000000000000000 DUP2 MSTORE PUSH1 0x4 ADD PUSH1 0x40 MLOAD DUP1 SWAP2 SUB SWAP1 REVERT JUMPDEST PUSH2 0x46D1 PUSH8 0x20166837115DB0A9 PUSH1 0xC0 SHL PUSH2 0x3353 JUMP JUMPDEST PUSH2 0x46E5 PUSH8 0x37769C3B02A93201 PUSH1 0xC0 SHL PUSH2 0x3353 JUMP JUMPDEST PUSH2 0x46F9 PUSH8 0x2BB58669213E5568 PUSH1 0xC0 SHL PUSH2 0x3353 JUMP JUMPDEST DUP2 SWAP4 POP POP POP POP SWAP2 SWAP1 POP JUMP JUMPDEST PUSH2 0x4718 PUSH8 0xF28F16F9F764785D PUSH1 0xC0 SHL PUSH2 0x3353 JUMP JUMPDEST PUSH2 0x472C PUSH8 0x801A8DBCB618EAE0 PUSH1 0xC0 SHL PUSH2 0x3353 JUMP JUMPDEST PUSH2 0x4740 PUSH8 0xC1F4453DCF1C7F7F PUSH1 0xC0 SHL PUSH2 0x3353 JUMP JUMPDEST PUSH32 0x0 DUP2 GT ISZERO PUSH2 0x47C2 JUMPI PUSH2 0x477C PUSH8 0xABB8A729D509B2FB PUSH1 0xC0 SHL PUSH2 0x3353 JUMP JUMPDEST PUSH2 0x4790 PUSH8 0x16777E7791441E3B PUSH1 0xC0 SHL PUSH2 0x3353 JUMP JUMPDEST PUSH1 0x40 MLOAD PUSH32 0xDD27E1DB00000000000000000000000000000000000000000000000000000000 DUP2 MSTORE PUSH1 0x4 ADD PUSH1 0x40 MLOAD DUP1 SWAP2 SUB SWAP1 REVERT JUMPDEST PUSH2 0x47D6 PUSH8 0xD93260F0DDB641E6 PUSH1 0xC0 SHL PUSH2 0x3353 JUMP JUMPDEST POP JUMP JUMPDEST PUSH1 0x0 DUP1 PUSH2 0x47F0 PUSH8 0xE8708527C0C7F09B PUSH1 0xC0 SHL PUSH2 0x3353 JUMP JUMPDEST PUSH2 0x4804 PUSH8 0x95176AEA96E86627 PUSH1 0xC0 SHL PUSH2 0x3353 JUMP JUMPDEST PUSH2 0x4818 PUSH8 0xEF07B26F90058896 PUSH1 0xC0 SHL PUSH2 0x3353 JUMP JUMPDEST PUSH1 0x0 PUSH1 0x2 DUP2 GT ISZERO PUSH2 0x482C JUMPI PUSH2 0x482B PUSH2 0x4D8A JUMP JUMPDEST JUMPDEST PUSH1 0x2 PUSH1 0x3 ADD PUSH1 0x0 SWAP1 SLOAD SWAP1 PUSH2 0x100 EXP SWAP1 DIV PUSH1 0xFF AND PUSH1 0x2 DUP2 GT ISZERO PUSH2 0x4851 JUMPI PUSH2 0x4850 PUSH2 0x4D8A JUMP JUMPDEST JUMPDEST SUB PUSH2 0x4900 JUMPI PUSH2 0x486A PUSH8 0x17F7FF8EE0ECAAC8 PUSH1 0xC0 SHL PUSH2 0x3353 JUMP JUMPDEST PUSH2 0x487E PUSH8 0x3EB340753F3073B2 PUSH1 0xC0 SHL PUSH2 0x3353 JUMP JUMPDEST PUSH2 0x4892 PUSH8 0x5BE638E123E7DCE3 PUSH1 0xC0 SHL PUSH2 0x3353 JUMP JUMPDEST PUSH1 0x0 PUSH2 0x3E8 PUSH1 0x2 PUSH1 0x0 ADD PUSH1 0x0 SWAP1 SLOAD SWAP1 PUSH2 0x100 EXP SWAP1 DIV PUSH1 0xFF AND PUSH1 0xFF AND DUP6 PUSH2 0x48B8 SWAP2 SWAP1 PUSH2 0x5295 JUMP JUMPDEST PUSH2 0x48C2 SWAP2 SWAP1 PUSH2 0x5306 JUMP JUMPDEST SWAP1 POP PUSH2 0x48D8 PUSH8 0x86E955FF9135E9CE PUSH1 0xC0 SHL PUSH2 0x3353 JUMP JUMPDEST PUSH2 0x48EC PUSH8 0x2A0DC3AE5E13ED0E PUSH1 0xC0 SHL PUSH2 0x3353 JUMP JUMPDEST PUSH2 0x48F5 DUP2 PUSH2 0x4AC4 JUMP JUMPDEST DUP2 SWAP3 POP SWAP3 POP POP PUSH2 0x4ABF JUMP JUMPDEST PUSH2 0x4914 PUSH8 0xFC0B89F62250AC73 PUSH1 0xC0 SHL PUSH2 0x3353 JUMP JUMPDEST PUSH2 0x4928 PUSH8 0x3FC2EBF7C37EF8A3 PUSH1 0xC0 SHL PUSH2 0x3353 JUMP JUMPDEST PUSH1 0x1 PUSH1 0x2 DUP2 GT ISZERO PUSH2 0x493C JUMPI PUSH2 0x493B PUSH2 0x4D8A JUMP JUMPDEST JUMPDEST PUSH1 0x2 PUSH1 0x3 ADD PUSH1 0x0 SWAP1 SLOAD SWAP1 PUSH2 0x100 EXP SWAP1 DIV PUSH1 0xFF AND PUSH1 0x2 DUP2 GT ISZERO PUSH2 0x4961 JUMPI PUSH2 0x4960 PUSH2 0x4D8A JUMP JUMPDEST JUMPDEST SUB PUSH2 0x49BD JUMPI PUSH2 0x497A PUSH8 0xB8E5DBE2CDBF65F8 PUSH1 0xC0 SHL PUSH2 0x3353 JUMP JUMPDEST PUSH2 0x498E PUSH8 0xC46AE4886CD2110A PUSH1 0xC0 SHL PUSH2 0x3353 JUMP JUMPDEST PUSH2 0x49A2 PUSH8 0x6A560A7D49C6B21 PUSH1 0xC0 SHL PUSH2 0x3353 JUMP JUMPDEST PUSH2 0x49AF PUSH1 0x2 DUP1 ADD SLOAD PUSH2 0x4AC4 JUMP JUMPDEST PUSH1 0x2 DUP1 ADD SLOAD SWAP2 POP SWAP2 POP PUSH2 0x4ABF JUMP JUMPDEST PUSH2 0x49D1 PUSH8 0xD0A54ACE01FDD6B0 PUSH1 0xC0 SHL PUSH2 0x3353 JUMP JUMPDEST PUSH2 0x49E5 PUSH8 0x535F8E2C38452CCA PUSH1 0xC0 SHL PUSH2 0x3353 JUMP JUMPDEST PUSH1 0x2 DUP1 DUP2 GT ISZERO PUSH2 0x49F8 JUMPI PUSH2 0x49F7 PUSH2 0x4D8A JUMP JUMPDEST JUMPDEST PUSH1 0x2 PUSH1 0x3 ADD PUSH1 0x0 SWAP1 SLOAD SWAP1 PUSH2 0x100 EXP SWAP1 DIV PUSH1 0xFF AND PUSH1 0x2 DUP2 GT ISZERO PUSH2 0x4A1D JUMPI PUSH2 0x4A1C PUSH2 0x4D8A JUMP JUMPDEST JUMPDEST SUB PUSH2 0x4A7B JUMPI PUSH2 0x4A36 PUSH8 0x55A21313AF1705B PUSH1 0xC0 SHL PUSH2 0x3353 JUMP JUMPDEST PUSH2 0x4A4A PUSH8 0x915D3AAD32F06D88 PUSH1 0xC0 SHL PUSH2 0x3353 JUMP JUMPDEST PUSH2 0x4A5E PUSH8 0x1872B8A50AF9339E PUSH1 0xC0 SHL PUSH2 0x3353 JUMP JUMPDEST PUSH2 0x4A6C PUSH1 0x2 PUSH1 0x1 ADD SLOAD PUSH2 0x4AC4 JUMP JUMPDEST PUSH1 0x2 PUSH1 0x1 ADD SLOAD SWAP2 POP SWAP2 POP PUSH2 0x4ABF JUMP JUMPDEST PUSH2 0x4A8F PUSH8 0x9260D443FA2BE2F5 PUSH1 0xC0 SHL PUSH2 0x3353 JUMP JUMPDEST PUSH2 0x4AA3 PUSH8 0x4F295C1968191C9 PUSH1 0xC0 SHL PUSH2 0x3353 JUMP JUMPDEST PUSH2 0x4AB7 PUSH8 0x3D9C89FDA5535632 PUSH1 0xC0 SHL PUSH2 0x3353 JUMP JUMPDEST PUSH1 0x0 DUP1 SWAP2 POP SWAP2 POP JUMPDEST SWAP2 POP SWAP2 JUMP JUMPDEST PUSH1 0x0 PUSH2 0x4ADA PUSH8 0xCE10EBF18BEDB627 PUSH1 0xC0 SHL PUSH2 0x3353 JUMP JUMPDEST PUSH2 0x4AEE PUSH8 0x2288B71F3535A40D PUSH1 0xC0 SHL PUSH2 0x3353 JUMP JUMPDEST PUSH2 0x4B02 PUSH8 0xE2853C1E3684A459 PUSH1 0xC0 SHL PUSH2 0x3353 JUMP JUMPDEST PUSH1 0x64 PUSH1 0x2 PUSH1 0x0 ADD PUSH1 0x2 SWAP1 SLOAD SWAP1 PUSH2 0x100 EXP SWAP1 DIV PUSH1 0xFF AND PUSH1 0xFF AND DUP4 PUSH2 0x4B25 SWAP2 SWAP1 PUSH2 0x5295 JUMP JUMPDEST PUSH2 0x4B2F SWAP2 SWAP1 PUSH2 0x5306 JUMP JUMPDEST SWAP1 POP SWAP2 SWAP1 POP JUMP JUMPDEST PUSH1 0x0 DUP1 REVERT JUMPDEST PUSH1 0x0 DUP2 ISZERO ISZERO SWAP1 POP SWAP2 SWAP1 POP JUMP JUMPDEST PUSH2 0x4B50 DUP2 PUSH2 0x4B3B JUMP JUMPDEST DUP2 EQ PUSH2 0x4B5B JUMPI PUSH1 0x0 DUP1 REVERT JUMPDEST POP JUMP JUMPDEST PUSH1 0x0 DUP2 CALLDATALOAD SWAP1 POP PUSH2 0x4B6D DUP2 PUSH2 0x4B47 JUMP JUMPDEST SWAP3 SWAP2 POP POP JUMP JUMPDEST PUSH1 0x0 PUSH1 0xFF DUP3 AND SWAP1 POP SWAP2 SWAP1 POP JUMP JUMPDEST PUSH2 0x4B89 DUP2 PUSH2 0x4B73 JUMP JUMPDEST DUP2 EQ PUSH2 0x4B94 JUMPI PUSH1 0x0 DUP1 REVERT JUMPDEST POP JUMP JUMPDEST PUSH1 0x0 DUP2 CALLDATALOAD SWAP1 POP PUSH2 0x4BA6 DUP2 PUSH2 0x4B80 JUMP JUMPDEST SWAP3 SWAP2 POP POP JUMP JUMPDEST PUSH1 0x0 DUP2 SWAP1 POP SWAP2 SWAP1 POP JUMP JUMPDEST PUSH2 0x4BBF DUP2 PUSH2 0x4BAC JUMP JUMPDEST DUP2 EQ PUSH2 0x4BCA JUMPI PUSH1 0x0 DUP1 REVERT JUMPDEST POP JUMP JUMPDEST PUSH1 0x0 DUP2 CALLDATALOAD SWAP1 POP PUSH2 0x4BDC DUP2 PUSH2 0x4BB6 JUMP JUMPDEST SWAP3 SWAP2 POP POP JUMP JUMPDEST PUSH1 0x0 PUSH20 0xFFFFFFFFFFFFFFFFFFFFFFFFFFFFFFFFFFFFFFFF DUP3 AND SWAP1 POP SWAP2 SWAP1 POP JUMP JUMPDEST PUSH1 0x0 PUSH2 0x4C0D DUP3 PUSH2 0x4BE2 JUMP JUMPDEST SWAP1 POP SWAP2 SWAP1 POP JUMP JUMPDEST PUSH2 0x4C1D DUP2 PUSH2 0x4C02 JUMP JUMPDEST DUP2 EQ PUSH2 0x4C28 JUMPI PUSH1 0x0 DUP1 REVERT JUMPDEST POP JUMP JUMPDEST PUSH1 0x0 DUP2 CALLDATALOAD SWAP1 POP PUSH2 0x4C3A DUP2 PUSH2 0x4C14 JUMP JUMPDEST SWAP3 SWAP2 POP POP JUMP JUMPDEST PUSH1 0x0 DUP1 PUSH1 0x0 DUP1 PUSH1 0x0 DUP1 PUSH1 0x0 DUP1 PUSH1 0x0 PUSH2 0x120 DUP11 DUP13 SUB SLT ISZERO PUSH2 0x4C63 JUMPI PUSH2 0x4C62 PUSH2 0x4B36 JUMP JUMPDEST JUMPDEST PUSH1 0x0 PUSH2 0x4C71 DUP13 DUP3 DUP14 ADD PUSH2 0x4B5E JUMP JUMPDEST SWAP10 POP POP PUSH1 0x20 PUSH2 0x4C82 DUP13 DUP3 DUP14 ADD PUSH2 0x4B97 JUMP JUMPDEST SWAP9 POP POP PUSH1 0x40 PUSH2 0x4C93 DUP13 DUP3 DUP14 ADD PUSH2 0x4B97 JUMP JUMPDEST SWAP8 POP POP PUSH1 0x60 PUSH2 0x4CA4 DUP13 DUP3 DUP14 ADD PUSH2 0x4B97 JUMP JUMPDEST SWAP7 POP POP PUSH1 0x80 PUSH2 0x4CB5 DUP13 DUP3 DUP14 ADD PUSH2 0x4BCD JUMP JUMPDEST SWAP6 POP POP PUSH1 0xA0 PUSH2 0x4CC6 DUP13 DUP3 DUP14 ADD PUSH2 0x4BCD JUMP JUMPDEST SWAP5 POP POP PUSH1 0xC0 PUSH2 0x4CD7 DUP13 DUP3 DUP14 ADD PUSH2 0x4BCD JUMP JUMPDEST SWAP4 POP POP PUSH1 0xE0 PUSH2 0x4CE8 DUP13 DUP3 DUP14 ADD PUSH2 0x4C2B JUMP JUMPDEST SWAP3 POP POP PUSH2 0x100 PUSH2 0x4CFA DUP13 DUP3 DUP14 ADD PUSH2 0x4C2B JUMP JUMPDEST SWAP2 POP POP SWAP3 SWAP6 SWAP9 POP SWAP3 SWAP6 SWAP9 POP SWAP3 SWAP6 SWAP9 JUMP JUMPDEST PUSH1 0x0 DUP1 PUSH1 0x0 PUSH1 0x60 DUP5 DUP7 SUB SLT ISZERO PUSH2 0x4D23 JUMPI PUSH2 0x4D22 PUSH2 0x4B36 JUMP JUMPDEST JUMPDEST PUSH1 0x0 PUSH2 0x4D31 DUP7 DUP3 DUP8 ADD PUSH2 0x4BCD JUMP JUMPDEST SWAP4 POP POP PUSH1 0x20 PUSH2 0x4D42 DUP7 DUP3 DUP8 ADD PUSH2 0x4BCD JUMP JUMPDEST SWAP3 POP POP PUSH1 0x40 PUSH2 0x4D53 DUP7 DUP3 DUP8 ADD PUSH2 0x4BCD JUMP JUMPDEST SWAP2 POP POP SWAP3 POP SWAP3 POP SWAP3 JUMP JUMPDEST PUSH2 0x4D66 DUP2 PUSH2 0x4B73 JUMP JUMPDEST DUP3 MSTORE POP POP JUMP JUMPDEST PUSH2 0x4D75 DUP2 PUSH2 0x4B3B JUMP JUMPDEST DUP3 MSTORE POP POP JUMP JUMPDEST PUSH2 0x4D84 DUP2 PUSH2 0x4BAC JUMP JUMPDEST DUP3 MSTORE POP POP JUMP JUMPDEST PUSH32 0x4E487B7100000000000000000000000000000000000000000000000000000000 PUSH1 0x0 MSTORE PUSH1 0x21 PUSH1 0x4 MSTORE PUSH1 0x24 PUSH1 0x0 REVERT JUMPDEST PUSH1 0x3 DUP2 LT PUSH2 0x4DCA JUMPI PUSH2 0x4DC9 PUSH2 0x4D8A JUMP JUMPDEST JUMPDEST POP JUMP JUMPDEST PUSH1 0x0 DUP2 SWAP1 POP PUSH2 0x4DDB DUP3 PUSH2 0x4DB9 JUMP JUMPDEST SWAP2 SWAP1 POP JUMP JUMPDEST PUSH1 0x0 PUSH2 0x4DEB DUP3 PUSH2 0x4DCD JUMP JUMPDEST SWAP1 POP SWAP2 SWAP1 POP JUMP JUMPDEST PUSH2 0x4DFB DUP2 PUSH2 0x4DE0 JUMP JUMPDEST DUP3 MSTORE POP POP JUMP JUMPDEST PUSH2 0x4E0A DUP2 PUSH2 0x4C02 JUMP JUMPDEST DUP3 MSTORE POP POP JUMP JUMPDEST PUSH1 0x0 PUSH2 0x120 DUP3 ADD SWAP1 POP PUSH2 0x4E26 PUSH1 0x0 DUP4 ADD DUP13 PUSH2 0x4D5D JUMP JUMPDEST PUSH2 0x4E33 PUSH1 0x20 DUP4 ADD DUP12 PUSH2 0x4D5D JUMP JUMPDEST PUSH2 0x4E40 PUSH1 0x40 DUP4 ADD DUP11 PUSH2 0x4D5D JUMP JUMPDEST PUSH2 0x4E4D PUSH1 0x60 DUP4 ADD DUP10 PUSH2 0x4D6C JUMP JUMPDEST PUSH2 0x4E5A PUSH1 0x80 DUP4 ADD DUP9 PUSH2 0x4D7B JUMP JUMPDEST PUSH2 0x4E67 PUSH1 0xA0 DUP4 ADD DUP8 PUSH2 0x4D7B JUMP JUMPDEST PUSH2 0x4E74 PUSH1 0xC0 DUP4 ADD DUP7 PUSH2 0x4DF2 JUMP JUMPDEST PUSH2 0x4E81 PUSH1 0xE0 DUP4 ADD DUP6 PUSH2 0x4E01 JUMP JUMPDEST PUSH2 0x4E8F PUSH2 0x100 DUP4 ADD DUP5 PUSH2 0x4E01 JUMP JUMPDEST SWAP11 SWAP10 POP POP POP POP POP POP POP POP POP POP JUMP JUMPDEST PUSH1 0x0 PUSH2 0x4EA8 DUP3 PUSH2 0x4BE2 JUMP JUMPDEST SWAP1 POP SWAP2 SWAP1 POP JUMP JUMPDEST PUSH2 0x4EB8 DUP2 PUSH2 0x4E9D JUMP JUMPDEST DUP3 MSTORE POP POP JUMP JUMPDEST PUSH1 0x0 PUSH2 0x140 DUP3 ADD SWAP1 POP PUSH2 0x4ED4 PUSH1 0x0 DUP4 ADD DUP14 PUSH2 0x4D6C JUMP JUMPDEST PUSH2 0x4EE1 PUSH1 0x20 DUP4 ADD DUP13 PUSH2 0x4D5D JUMP JUMPDEST PUSH2 0x4EEE PUSH1 0x40 DUP4 ADD DUP12 PUSH2 0x4D5D JUMP JUMPDEST PUSH2 0x4EFB PUSH1 0x60 DUP4 ADD DUP11 PUSH2 0x4D5D JUMP JUMPDEST PUSH2 0x4F08 PUSH1 0x80 DUP4 ADD DUP10 PUSH2 0x4D7B JUMP JUMPDEST PUSH2 0x4F15 PUSH1 0xA0 DUP4 ADD DUP9 PUSH2 0x4D7B JUMP JUMPDEST PUSH2 0x4F22 PUSH1 0xC0 DUP4 ADD DUP8 PUSH2 0x4D7B JUMP JUMPDEST PUSH2 0x4F2F PUSH1 0xE0 DUP4 ADD DUP7 PUSH2 0x4E01 JUMP JUMPDEST PUSH2 0x4F3D PUSH2 0x100 DUP4 ADD DUP6 PUSH2 0x4E01 JUMP JUMPDEST PUSH2 0x4F4B PUSH2 0x120 DUP4 ADD DUP5 PUSH2 0x4EAF JUMP JUMPDEST SWAP12 SWAP11 POP POP POP POP POP POP POP POP POP POP POP JUMP JUMPDEST PUSH2 0x4F63 DUP2 PUSH2 0x4E9D JUMP JUMPDEST DUP2 EQ PUSH2 0x4F6E JUMPI PUSH1 0x0 DUP1 REVERT JUMPDEST POP JUMP JUMPDEST PUSH1 0x0 DUP2 CALLDATALOAD SWAP1 POP PUSH2 0x4F80 DUP2 PUSH2 0x4F5A JUMP JUMPDEST SWAP3 SWAP2 POP POP JUMP JUMPDEST PUSH1 0x0 DUP2 SWAP1 POP SWAP2 SWAP1 POP JUMP JUMPDEST PUSH2 0x4F99 DUP2 PUSH2 0x4F86 JUMP JUMPDEST DUP2 EQ PUSH2 0x4FA4 JUMPI PUSH1 0x0 DUP1 REVERT JUMPDEST POP JUMP JUMPDEST PUSH1 0x0 DUP2 CALLDATALOAD SWAP1 POP PUSH2 0x4FB6 DUP2 PUSH2 0x4F90 JUMP JUMPDEST SWAP3 SWAP2 POP POP JUMP JUMPDEST PUSH1 0x0 DUP1 PUSH1 0x0 DUP1 PUSH1 0x0 DUP1 PUSH1 0xC0 DUP8 DUP10 SUB SLT ISZERO PUSH2 0x4FD9 JUMPI PUSH2 0x4FD8 PUSH2 0x4B36 JUMP JUMPDEST JUMPDEST PUSH1 0x0 PUSH2 0x4FE7 DUP10 DUP3 DUP11 ADD PUSH2 0x4F71 JUMP JUMPDEST SWAP7 POP POP PUSH1 0x20 PUSH2 0x4FF8 DUP10 DUP3 DUP11 ADD PUSH2 0x4BCD JUMP JUMPDEST SWAP6 POP POP PUSH1 0x40 PUSH2 0x5009 DUP10 DUP3 DUP11 ADD PUSH2 0x4FA7 JUMP JUMPDEST SWAP5 POP POP PUSH1 0x60 PUSH2 0x501A DUP10 DUP3 DUP11 ADD PUSH2 0x4B97 JUMP JUMPDEST SWAP4 POP POP PUSH1 0x80 PUSH2 0x502B DUP10 DUP3 DUP11 ADD PUSH2 0x4FA7 JUMP JUMPDEST SWAP3 POP POP PUSH1 0xA0 PUSH2 0x503C DUP10 DUP3 DUP11 ADD PUSH2 0x4FA7 JUMP JUMPDEST SWAP2 POP POP SWAP3 SWAP6 POP SWAP3 SWAP6 POP SWAP3 SWAP6 JUMP JUMPDEST PUSH1 0x0 PUSH1 0x20 DUP3 DUP5 SUB SLT ISZERO PUSH2 0x505F JUMPI PUSH2 0x505E PUSH2 0x4B36 JUMP JUMPDEST JUMPDEST PUSH1 0x0 PUSH2 0x506D DUP5 DUP3 DUP6 ADD PUSH2 0x4F71 JUMP JUMPDEST SWAP2 POP POP SWAP3 SWAP2 POP POP JUMP JUMPDEST PUSH1 0x0 PUSH1 0x20 DUP3 ADD SWAP1 POP PUSH2 0x508B PUSH1 0x0 DUP4 ADD DUP5 PUSH2 0x4EAF JUMP JUMPDEST SWAP3 SWAP2 POP POP JUMP JUMPDEST PUSH1 0x0 PUSH1 0x40 DUP3 ADD SWAP1 POP PUSH2 0x50A6 PUSH1 0x0 DUP4 ADD DUP6 PUSH2 0x4EAF JUMP JUMPDEST PUSH2 0x50B3 PUSH1 0x20 DUP4 ADD DUP5 PUSH2 0x4EAF JUMP JUMPDEST SWAP4 SWAP3 POP POP POP JUMP JUMPDEST PUSH1 0x0 DUP1 PUSH1 0x0 DUP1 PUSH1 0x0 PUSH1 0xA0 DUP7 DUP9 SUB SLT ISZERO PUSH2 0x50D6 JUMPI PUSH2 0x50D5 PUSH2 0x4B36 JUMP JUMPDEST JUMPDEST PUSH1 0x0 PUSH2 0x50E4 DUP9 DUP3 DUP10 ADD PUSH2 0x4BCD JUMP JUMPDEST SWAP6 POP POP PUSH1 0x20 PUSH2 0x50F5 DUP9 DUP3 DUP10 ADD PUSH2 0x4FA7 JUMP JUMPDEST SWAP5 POP POP PUSH1 0x40 PUSH2 0x5106 DUP9 DUP3 DUP10 ADD PUSH2 0x4B97 JUMP JUMPDEST SWAP4 POP POP PUSH1 0x60 PUSH2 0x5117 DUP9 DUP3 DUP10 ADD PUSH2 0x4FA7 JUMP JUMPDEST SWAP3 POP POP PUSH1 0x80 PUSH2 0x5128 DUP9 DUP3 DUP10 ADD PUSH2 0x4FA7 JUMP JUMPDEST SWAP2 POP POP SWAP3 SWAP6 POP SWAP3 SWAP6 SWAP1 SWAP4 POP JUMP JUMPDEST PUSH1 0x0 PUSH1 0x60 DUP3 ADD SWAP1 POP PUSH2 0x514A PUSH1 0x0 DUP4 ADD DUP7 PUSH2 0x4D7B JUMP JUMPDEST PUSH2 0x5157 PUSH1 0x20 DUP4 ADD DUP6 PUSH2 0x4D7B JUMP JUMPDEST PUSH2 0x5164 PUSH1 0x40 DUP4 ADD DUP5 PUSH2 0x4D7B JUMP JUMPDEST SWAP5 SWAP4 POP POP POP POP JUMP JUMPDEST PUSH32 0x4E487B7100000000000000000000000000000000000000000000000000000000 PUSH1 0x0 MSTORE PUSH1 0x11 PUSH1 0x4 MSTORE PUSH1 0x24 PUSH1 0x0 REVERT JUMPDEST PUSH1 0x0 PUSH2 0x51A6 DUP3 PUSH2 0x4B73 JUMP JUMPDEST SWAP2 POP PUSH2 0x51B1 DUP4 PUSH2 0x4B73 JUMP JUMPDEST SWAP3 POP DUP3 DUP3 ADD SWAP1 POP PUSH1 0xFF DUP2 GT ISZERO PUSH2 0x51CA JUMPI PUSH2 0x51C9 PUSH2 0x516C JUMP JUMPDEST JUMPDEST SWAP3 SWAP2 POP POP JUMP JUMPDEST PUSH1 0x0 PUSH1 0x40 DUP3 ADD SWAP1 POP PUSH2 0x51E5 PUSH1 0x0 DUP4 ADD DUP6 PUSH2 0x4D5D JUMP JUMPDEST PUSH2 0x51F2 PUSH1 0x20 DUP4 ADD DUP5 PUSH2 0x4D5D JUMP JUMPDEST SWAP4 SWAP3 POP POP POP JUMP JUMPDEST PUSH1 0x0 PUSH2 0x140 DUP3 ADD SWAP1 POP PUSH2 0x520F PUSH1 0x0 DUP4 ADD DUP14 PUSH2 0x4D6C JUMP JUMPDEST PUSH2 0x521C PUSH1 0x20 DUP4 ADD DUP13 PUSH2 0x4D5D JUMP JUMPDEST PUSH2 0x5229 PUSH1 0x40 DUP4 ADD DUP12 PUSH2 0x4D5D JUMP JUMPDEST PUSH2 0x5236 PUSH1 0x60 DUP4 ADD DUP11 PUSH2 0x4D5D JUMP JUMPDEST PUSH2 0x5243 PUSH1 0x80 DUP4 ADD DUP10 PUSH2 0x4D7B JUMP JUMPDEST PUSH2 0x5250 PUSH1 0xA0 DUP4 ADD DUP9 PUSH2 0x4D7B JUMP JUMPDEST PUSH2 0x525D PUSH1 0xC0 DUP4 ADD DUP8 PUSH2 0x4D7B JUMP JUMPDEST PUSH2 0x526A PUSH1 0xE0 DUP4 ADD DUP7 PUSH2 0x4E01 JUMP JUMPDEST PUSH2 0x5278 PUSH2 0x100 DUP4 ADD DUP6 PUSH2 0x4E01 JUMP JUMPDEST PUSH2 0x5286 PUSH2 0x120 DUP4 ADD DUP5 PUSH2 0x4D7B JUMP JUMPDEST SWAP12 SWAP11 POP POP POP POP POP POP POP POP POP POP POP JUMP JUMPDEST PUSH1 0x0 PUSH2 0x52A0 DUP3 PUSH2 0x4BAC JUMP JUMPDEST SWAP2 POP PUSH2 0x52AB DUP4 PUSH2 0x4BAC JUMP JUMPDEST SWAP3 POP DUP3 DUP3 MUL PUSH2 0x52B9 DUP2 PUSH2 0x4BAC JUMP JUMPDEST SWAP2 POP DUP3 DUP3 DIV DUP5 EQ DUP4 ISZERO OR PUSH2 0x52D0 JUMPI PUSH2 0x52CF PUSH2 0x516C JUMP JUMPDEST JUMPDEST POP SWAP3 SWAP2 POP POP JUMP JUMPDEST PUSH32 0x4E487B7100000000000000000000000000000000000000000000000000000000 PUSH1 0x0 MSTORE PUSH1 0x12 PUSH1 0x4 MSTORE PUSH1 0x24 PUSH1 0x0 REVERT JUMPDEST PUSH1 0x0 PUSH2 0x5311 DUP3 PUSH2 0x4BAC JUMP JUMPDEST SWAP2 POP PUSH2 0x531C DUP4 PUSH2 0x4BAC JUMP JUMPDEST SWAP3 POP DUP3 PUSH2 0x532C JUMPI PUSH2 0x532B PUSH2 0x52D7 JUMP JUMPDEST JUMPDEST DUP3 DUP3 DIV SWAP1 POP SWAP3 SWAP2 POP POP JUMP JUMPDEST PUSH1 0x0 DUP2 SWAP1 POP SWAP3 SWAP2 POP POP JUMP JUMPDEST POP JUMP JUMPDEST PUSH1 0x0 PUSH2 0x5352 PUSH1 0x0 DUP4 PUSH2 0x5337 JUMP JUMPDEST SWAP2 POP PUSH2 0x535D DUP3 PUSH2 0x5342 JUMP JUMPDEST PUSH1 0x0 DUP3 ADD SWAP1 POP SWAP2 SWAP1 POP JUMP JUMPDEST PUSH1 0x0 PUSH2 0x5373 DUP3 PUSH2 0x5345 JUMP JUMPDEST SWAP2 POP DUP2 SWAP1 POP SWAP2 SWAP1 POP JUMP JUMPDEST PUSH1 0x0 DUP3 DUP3 MSTORE PUSH1 0x20 DUP3 ADD SWAP1 POP SWAP3 SWAP2 POP POP JUMP JUMPDEST PUSH32 0x496E76616C69642077616C6C6574000000000000000000000000000000000000 PUSH1 0x0 DUP3 ADD MSTORE POP JUMP JUMPDEST PUSH1 0x0 PUSH2 0x53C4 PUSH1 0xE DUP4 PUSH2 0x537D JUMP JUMPDEST SWAP2 POP PUSH2 0x53CF DUP3 PUSH2 0x538E JUMP JUMPDEST PUSH1 0x20 DUP3 ADD SWAP1 POP SWAP2 SWAP1 POP JUMP JUMPDEST PUSH1 0x0 PUSH1 0x20 DUP3 ADD SWAP1 POP DUP2 DUP2 SUB PUSH1 0x0 DUP4 ADD MSTORE PUSH2 0x53F3 DUP2 PUSH2 0x53B7 JUMP JUMPDEST SWAP1 POP SWAP2 SWAP1 POP JUMP JUMPDEST PUSH1 0x0 DUP2 SWAP1 POP SWAP3 SWAP2 POP POP JUMP JUMPDEST PUSH32 0x5F5F636F6E76657273696F6E496E000000000000000000000000000000000000 PUSH1 0x0 DUP3 ADD MSTORE POP JUMP JUMPDEST PUSH1 0x0 PUSH2 0x543B PUSH1 0xE DUP4 PUSH2 0x53FA JUMP JUMPDEST SWAP2 POP PUSH2 0x5446 DUP3 PUSH2 0x5405 JUMP JUMPDEST PUSH1 0xE DUP3 ADD SWAP1 POP SWAP2 SWAP1 POP JUMP JUMPDEST PUSH1 0x0 DUP2 SWAP1 POP SWAP2 SWAP1 POP JUMP JUMPDEST PUSH2 0x546C PUSH2 0x5467 DUP3 PUSH2 0x4BAC JUMP JUMPDEST PUSH2 0x5451 JUMP JUMPDEST DUP3 MSTORE POP POP JUMP JUMPDEST PUSH1 0x0 DUP2 PUSH1 0x60 SHL SWAP1 POP SWAP2 SWAP1 POP JUMP JUMPDEST PUSH1 0x0 PUSH2 0x548A DUP3 PUSH2 0x5472 JUMP JUMPDEST SWAP1 POP SWAP2 SWAP1 POP JUMP JUMPDEST PUSH1 0x0 PUSH2 0x549C DUP3 PUSH2 0x547F JUMP JUMPDEST SWAP1 POP SWAP2 SWAP1 POP JUMP JUMPDEST PUSH2 0x54B4 PUSH2 0x54AF DUP3 PUSH2 0x4E9D JUMP JUMPDEST PUSH2 0x5491 JUMP JUMPDEST DUP3 MSTORE POP POP JUMP JUMPDEST PUSH1 0x0 DUP2 SWAP1 POP SWAP2 SWAP1 POP JUMP JUMPDEST PUSH2 0x54D5 PUSH2 0x54D0 DUP3 PUSH2 0x4F86 JUMP JUMPDEST PUSH2 0x54BA JUMP JUMPDEST DUP3 MSTORE POP POP JUMP JUMPDEST PUSH1 0x0 DUP2 SWAP1 POP SWAP2 SWAP1 POP JUMP JUMPDEST PUSH1 0x0 PUSH2 0x5500 PUSH2 0x54FB PUSH2 0x54F6 DUP5 PUSH2 0x4BE2 JUMP JUMPDEST PUSH2 0x54DB JUMP JUMPDEST PUSH2 0x4BE2 JUMP JUMPDEST SWAP1 POP SWAP2 SWAP1 POP JUMP JUMPDEST PUSH1 0x0 PUSH2 0x5512 DUP3 PUSH2 0x54E5 JUMP JUMPDEST SWAP1 POP SWAP2 SWAP1 POP JUMP JUMPDEST PUSH1 0x0 PUSH2 0x5524 DUP3 PUSH2 0x5507 JUMP JUMPDEST SWAP1 POP SWAP2 SWAP1 POP JUMP JUMPDEST PUSH2 0x553C PUSH2 0x5537 DUP3 PUSH2 0x5519 JUMP JUMPDEST PUSH2 0x5491 JUMP JUMPDEST DUP3 MSTORE POP POP JUMP JUMPDEST PUSH1 0x0 PUSH2 0x554D DUP3 PUSH2 0x542E JUMP JUMPDEST SWAP2 POP PUSH2 0x5559 DUP3 DUP8 PUSH2 0x545B JUMP JUMPDEST PUSH1 0x20 DUP3 ADD SWAP2 POP PUSH2 0x5569 DUP3 DUP7 PUSH2 0x54A3 JUMP JUMPDEST PUSH1 0x14 DUP3 ADD SWAP2 POP PUSH2 0x5579 DUP3 DUP6 PUSH2 0x54C4 JUMP JUMPDEST PUSH1 0x20 DUP3 ADD SWAP2 POP PUSH2 0x5589 DUP3 DUP5 PUSH2 0x552B JUMP JUMPDEST PUSH1 0x14 DUP3 ADD SWAP2 POP DUP2 SWAP1 POP SWAP6 SWAP5 POP POP POP POP POP JUMP JUMPDEST PUSH2 0x55A4 DUP2 PUSH2 0x4F86 JUMP JUMPDEST DUP3 MSTORE POP POP JUMP JUMPDEST PUSH1 0x0 PUSH1 0x80 DUP3 ADD SWAP1 POP PUSH2 0x55BF PUSH1 0x0 DUP4 ADD DUP8 PUSH2 0x559B JUMP JUMPDEST PUSH2 0x55CC PUSH1 0x20 DUP4 ADD DUP7 PUSH2 0x4D5D JUMP JUMPDEST PUSH2 0x55D9 PUSH1 0x40 DUP4 ADD DUP6 PUSH2 0x559B JUMP JUMPDEST PUSH2 0x55E6 PUSH1 0x60 DUP4 ADD DUP5 PUSH2 0x559B JUMP JUMPDEST SWAP6 SWAP5 POP POP POP POP POP JUMP JUMPDEST PUSH1 0x0 DUP2 MLOAD SWAP1 POP PUSH2 0x55FE DUP2 PUSH2 0x4BB6 JUMP JUMPDEST SWAP3 SWAP2 POP POP JUMP JUMPDEST PUSH1 0x0 PUSH1 0x20 DUP3 DUP5 SUB SLT ISZERO PUSH2 0x561A JUMPI PUSH2 0x5619 PUSH2 0x4B36 JUMP JUMPDEST JUMPDEST PUSH1 0x0 PUSH2 0x5628 DUP5 DUP3 DUP6 ADD PUSH2 0x55EF JUMP JUMPDEST SWAP2 POP POP SWAP3 SWAP2 POP POP JUMP JUMPDEST PUSH1 0x0 PUSH2 0x563C DUP3 PUSH2 0x4BAC JUMP JUMPDEST SWAP2 POP PUSH2 0x5647 DUP4 PUSH2 0x4BAC JUMP JUMPDEST SWAP3 POP DUP3 DUP3 ADD SWAP1 POP DUP1 DUP3 GT ISZERO PUSH2 0x565F JUMPI PUSH2 0x565E PUSH2 0x516C JUMP JUMPDEST JUMPDEST SWAP3 SWAP2 POP POP JUMP JUMPDEST PUSH32 0x496E76616C696420416D6F756E74000000000000000000000000000000000000 PUSH1 0x0 DUP3 ADD MSTORE POP JUMP JUMPDEST PUSH1 0x0 PUSH2 0x569B PUSH1 0xE DUP4 PUSH2 0x537D JUMP JUMPDEST SWAP2 POP PUSH2 0x56A6 DUP3 PUSH2 0x5665 JUMP JUMPDEST PUSH1 0x20 DUP3 ADD SWAP1 POP SWAP2 SWAP1 POP JUMP JUMPDEST PUSH1 0x0 PUSH1 0x20 DUP3 ADD SWAP1 POP DUP2 DUP2 SUB PUSH1 0x0 DUP4 ADD MSTORE PUSH2 0x56CA DUP2 PUSH2 0x568E JUMP JUMPDEST SWAP1 POP SWAP2 SWAP1 POP JUMP JUMPDEST PUSH1 0x0 PUSH1 0x40 DUP3 ADD SWAP1 POP PUSH2 0x56E6 PUSH1 0x0 DUP4 ADD DUP6 PUSH2 0x4EAF JUMP JUMPDEST PUSH2 0x56F3 PUSH1 0x20 DUP4 ADD DUP5 PUSH2 0x4D7B JUMP JUMPDEST SWAP4 SWAP3 POP POP POP JUMP JUMPDEST PUSH1 0x0 DUP2 MLOAD SWAP1 POP SWAP2 SWAP1 POP JUMP JUMPDEST PUSH1 0x0 JUMPDEST DUP4 DUP2 LT ISZERO PUSH2 0x5723 JUMPI DUP1 DUP3 ADD MLOAD DUP2 DUP5 ADD MSTORE PUSH1 0x20 DUP2 ADD SWAP1 POP PUSH2 0x5708 JUMP JUMPDEST PUSH1 0x0 DUP5 DUP5 ADD MSTORE POP POP POP POP JUMP JUMPDEST PUSH1 0x0 PUSH2 0x573A DUP3 PUSH2 0x56FA JUMP JUMPDEST PUSH2 0x5744 DUP2 DUP6 PUSH2 0x5337 JUMP JUMPDEST SWAP4 POP PUSH2 0x5754 DUP2 DUP6 PUSH1 0x20 DUP7 ADD PUSH2 0x5705 JUMP JUMPDEST DUP1 DUP5 ADD SWAP2 POP POP SWAP3 SWAP2 POP POP JUMP JUMPDEST PUSH1 0x0 PUSH2 0x576C DUP3 DUP5 PUSH2 0x572F JUMP JUMPDEST SWAP2 POP DUP2 SWAP1 POP SWAP3 SWAP2 POP POP JUMP JUMPDEST PUSH1 0x0 PUSH2 0x5782 DUP3 PUSH2 0x4BAC JUMP JUMPDEST SWAP2 POP PUSH2 0x578D DUP4 PUSH2 0x4BAC JUMP JUMPDEST SWAP3 POP DUP3 DUP3 SUB SWAP1 POP DUP2 DUP2 GT ISZERO PUSH2 0x57A5 JUMPI PUSH2 0x57A4 PUSH2 0x516C JUMP JUMPDEST JUMPDEST SWAP3 SWAP2 POP POP JUMP JUMPDEST PUSH1 0x0 PUSH1 0x40 DUP3 ADD SWAP1 POP PUSH2 0x57C0 PUSH1 0x0 DUP4 ADD DUP6 PUSH2 0x559B JUMP JUMPDEST PUSH2 0x57CD PUSH1 0x20 DUP4 ADD DUP5 PUSH2 0x4D7B JUMP JUMPDEST SWAP4 SWAP3 POP POP POP JUMP JUMPDEST PUSH32 0x5F5F636F6E76657273696F6E4F75740000000000000000000000000000000000 PUSH1 0x0 DUP3 ADD MSTORE POP JUMP JUMPDEST PUSH1 0x0 PUSH2 0x580A PUSH1 0xF DUP4 PUSH2 0x53FA JUMP JUMPDEST SWAP2 POP PUSH2 0x5815 DUP3 PUSH2 0x57D4 JUMP JUMPDEST PUSH1 0xF DUP3 ADD SWAP1 POP SWAP2 SWAP1 POP JUMP JUMPDEST PUSH1 0x0 PUSH2 0x582B DUP3 PUSH2 0x57FD JUMP JUMPDEST SWAP2 POP PUSH2 0x5837 DUP3 DUP8 PUSH2 0x545B JUMP JUMPDEST PUSH1 0x20 DUP3 ADD SWAP2 POP PUSH2 0x5847 DUP3 DUP7 PUSH2 0x54A3 JUMP JUMPDEST PUSH1 0x14 DUP3 ADD SWAP2 POP PUSH2 0x5857 DUP3 DUP6 PUSH2 0x54C4 JUMP JUMPDEST PUSH1 0x20 DUP3 ADD SWAP2 POP PUSH2 0x5867 DUP3 DUP5 PUSH2 0x552B JUMP JUMPDEST PUSH1 0x14 DUP3 ADD SWAP2 POP DUP2 SWAP1 POP SWAP6 SWAP5 POP POP POP POP POP JUMP JUMPDEST PUSH32 0x4F776E61626C653A206E6577206F776E657220697320746865207A65726F2061 PUSH1 0x0 DUP3 ADD MSTORE PUSH32 0x6464726573730000000000000000000000000000000000000000000000000000 PUSH1 0x20 DUP3 ADD MSTORE POP JUMP JUMPDEST PUSH1 0x0 PUSH2 0x58D5 PUSH1 0x26 DUP4 PUSH2 0x537D JUMP JUMPDEST SWAP2 POP PUSH2 0x58E0 DUP3 PUSH2 0x5879 JUMP JUMPDEST PUSH1 0x40 DUP3 ADD SWAP1 POP SWAP2 SWAP1 POP JUMP JUMPDEST PUSH1 0x0 PUSH1 0x20 DUP3 ADD SWAP1 POP DUP2 DUP2 SUB PUSH1 0x0 DUP4 ADD MSTORE PUSH2 0x5904 DUP2 PUSH2 0x58C8 JUMP JUMPDEST SWAP1 POP SWAP2 SWAP1 POP JUMP JUMPDEST PUSH32 0x4F776E61626C653A2063616C6C6572206973206E6F7420746865206F776E6572 PUSH1 0x0 DUP3 ADD MSTORE POP JUMP JUMPDEST PUSH1 0x0 PUSH2 0x5941 PUSH1 0x20 DUP4 PUSH2 0x537D JUMP JUMPDEST SWAP2 POP PUSH2 0x594C DUP3 PUSH2 0x590B JUMP JUMPDEST PUSH1 0x20 DUP3 ADD SWAP1 POP SWAP2 SWAP1 POP JUMP JUMPDEST PUSH1 0x0 PUSH1 0x20 DUP3 ADD SWAP1 POP DUP2 DUP2 SUB PUSH1 0x0 DUP4 ADD MSTORE PUSH2 0x5970 DUP2 PUSH2 0x5934 JUMP JUMPDEST SWAP1 POP SWAP2 SWAP1 POP JUMP JUMPDEST PUSH32 0x5265656E7472616E637947756172643A207265656E7472616E742063616C6C00 PUSH1 0x0 DUP3 ADD MSTORE POP JUMP JUMPDEST PUSH1 0x0 PUSH2 0x59AD PUSH1 0x1F DUP4 PUSH2 0x537D JUMP JUMPDEST SWAP2 POP PUSH2 0x59B8 DUP3 PUSH2 0x5977 JUMP JUMPDEST PUSH1 0x20 DUP3 ADD SWAP1 POP SWAP2 SWAP1 POP JUMP JUMPDEST PUSH1 0x0 PUSH1 0x20 DUP3 ADD SWAP1 POP DUP2 DUP2 SUB PUSH1 0x0 DUP4 ADD MSTORE PUSH2 0x59DC DUP2 PUSH2 0x59A0 JUMP JUMPDEST SWAP1 POP SWAP2 SWAP1 POP JUMP JUMPDEST PUSH32 0x19457468657265756D205369676E6564204D6573736167653A0A333200000000 PUSH1 0x0 DUP3 ADD MSTORE POP JUMP JUMPDEST PUSH1 0x0 PUSH2 0x5A19 PUSH1 0x1C DUP4 PUSH2 0x53FA JUMP JUMPDEST SWAP2 POP PUSH2 0x5A24 DUP3 PUSH2 0x59E3 JUMP JUMPDEST PUSH1 0x1C DUP3 ADD SWAP1 POP SWAP2 SWAP1 POP JUMP JUMPDEST PUSH1 0x0 PUSH2 0x5A3A DUP3 PUSH2 0x5A0C JUMP JUMPDEST SWAP2 POP PUSH2 0x5A46 DUP3 DUP5 PUSH2 0x54C4 JUMP JUMPDEST PUSH1 0x20 DUP3 ADD SWAP2 POP DUP2 SWAP1 POP SWAP3 SWAP2 POP POP JUMP JUMPDEST PUSH1 0x0 PUSH1 0x40 DUP3 ADD SWAP1 POP PUSH2 0x5A6A PUSH1 0x0 DUP4 ADD DUP6 PUSH2 0x4D7B JUMP JUMPDEST PUSH2 0x5A77 PUSH1 0x20 DUP4 ADD DUP5 PUSH2 0x4D7B JUMP JUMPDEST SWAP4 SWAP3 POP POP POP JUMP JUMPDEST PUSH1 0x0 PUSH1 0x40 DUP3 ADD SWAP1 POP PUSH2 0x5A93 PUSH1 0x0 DUP4 ADD DUP6 PUSH2 0x4E01 JUMP JUMPDEST PUSH2 0x5AA0 PUSH1 0x20 DUP4 ADD DUP5 PUSH2 0x4D7B JUMP JUMPDEST SWAP4 SWAP3 POP POP POP JUMP JUMPDEST PUSH1 0x0 PUSH1 0x60 DUP3 ADD SWAP1 POP PUSH2 0x5ABC PUSH1 0x0 DUP4 ADD DUP7 PUSH2 0x4EAF JUMP JUMPDEST PUSH2 0x5AC9 PUSH1 0x20 DUP4 ADD DUP6 PUSH2 0x4E01 JUMP JUMPDEST PUSH2 0x5AD6 PUSH1 0x40 DUP4 ADD DUP5 PUSH2 0x4D7B JUMP JUMPDEST SWAP5 SWAP4 POP POP POP POP JUMP INVALID LOG2 PUSH5 0x6970667358 0x22 SLT KECCAK256 0xEE CALLER PUSH2 0x93D STOP 0xD5 CALL SWAP12 SWAP11 0xDE PREVRANDAO 0xD5 0xBD DUP2 0xE6 0x1E DELEGATECALL 0xEB NUMBER PUSH13 0x57AE4F563163B274C601C46473 PUSH16 0x6C634300081300330000000000000000 "},"methodIdentifiers":{"claimNativeCurrencyCommission()":"37c15626","commissionSettings()":"5531e774","conversionIn(address,uint256,bytes32,uint8,bytes32,bytes32)":"6a02fcc4","conversionOut(uint256,bytes32,uint8,bytes32,bytes32)":"9f23c9e2","disableCommission()":"b26e099f","getCommissionReceiverAddresses()":"9cb71686","getCommissionSettings()":"58a93688","getConversionAuthorizer()":"c72304ac","getConversionConfigurations()":"feea1529","owner()":"8da5cb5b","renounceOwnership()":"715018a6","transferOwnership(address)":"f2fde38b","updateAuthorizer(address)":"e0a66578","updateBridgeOwner(address)":"7c522d28","updateCommissionConfiguration(bool,uint8,uint8,uint8,uint256,uint256,uint256,address,address)":"094c3159","updateConfigurations(uint256,uint256,uint256)":"529c0970","updateReceiverCommission(address)":"94aca02a"}}}}}