{"contracts/TokenConversionManager.sol":{"TokenConversionManager":{"abi":[{"inputs":[{"internalType":"address","name":"token","type":"address"},{"internalType":"bool","name":"commissionIsEnabled","type":"bool"},{"internalType":"uint8","name":"convertTokenPercentage","type":"uint8"},{"internalType":"uint8","name":"receiverCommissionProportion","type":"uint8"},{"internalType":"uint8","name":"bridgeOwnerCommissionProportion","type":"uint8"},{"internalType":"uint16","name":"pointOffsetShifter","type":"uint16"},{"internalType":"uint256","name":"commissionType","type":"uint256"},{"internalType":"uint256","name":"fixedNativeTokenCommission","type":"uint256"},{"internalType":"uint256","name":"fixedNativeTokenCommissionLimit","type":"uint256"},{"internalType":"uint256","name":"fixedTokenCommission","type":"uint256"},{"internalType":"address payable","name":"commissionReceiver","type":"address"},{"internalType":"address payable","name":"bridgeOwner","type":"address"}],"stateMutability":"nonpayable","type":"constructor"},{"inputs":[],"name":"CommissionTransferFailed","type":"error"},{"inputs":[],"name":"ConversionFailed","type":"error"},{"inputs":[],"name":"ConversionMintFailed","type":"error"},{"inputs":[],"name":"ConversionTransferFailed","type":"error"},{"inputs":[],"name":"InvalidCommissionDeduction","type":"error"},{"inputs":[{"internalType":"uint8","name":"proportion1","type":"uint8"},{"internalType":"uint8","name":"proportion2","type":"uint8"}],"name":"InvalidProportionSum","type":"error"},{"inputs":[],"name":"InvalidRequestOrSignature","type":"error"},{"inputs":[],"name":"InvalidUpdateConfigurations","type":"error"},{"inputs":[],"name":"NativeClaimFailed","type":"error"},{"inputs":[],"name":"NotEnoughBalance","type":"error"},{"inputs":[],"name":"PercentageLimitExceeded","type":"error"},{"inputs":[{"internalType":"uint256","name":"sent","type":"uint256"},{"internalType":"uint256","name":"required","type":"uint256"}],"name":"TakeNativeTokenCommissionFailed","type":"error"},{"inputs":[{"internalType":"address","name":"caller","type":"address"}],"name":"UnauthorizedCommissionReceiver","type":"error"},{"inputs":[],"name":"UsedSignature","type":"error"},{"inputs":[],"name":"ViolationOfNativeTokenLimit","type":"error"},{"inputs":[],"name":"ViolationOfTxAmountLimits","type":"error"},{"inputs":[],"name":"ZeroAddress","type":"error"},{"anonymous":false,"inputs":[{"indexed":true,"internalType":"address","name":"tokenHolder","type":"address"},{"indexed":false,"internalType":"bytes32","name":"conversionId","type":"bytes32"},{"indexed":false,"internalType":"uint256","name":"amount","type":"uint256"}],"name":"ConversionIn","type":"event"},{"anonymous":false,"inputs":[{"indexed":true,"internalType":"address","name":"tokenHolder","type":"address"},{"indexed":false,"internalType":"bytes32","name":"conversionId","type":"bytes32"},{"indexed":false,"internalType":"uint256","name":"amount","type":"uint256"}],"name":"ConversionOut","type":"event"},{"anonymous":false,"inputs":[{"indexed":true,"internalType":"uint256","name":"time","type":"uint256"}],"name":"NativeCurrencyCommissionClaim","type":"event"},{"anonymous":false,"inputs":[{"indexed":false,"internalType":"address","name":"conversionAuthorizer","type":"address"}],"name":"NewAuthorizer","type":"event"},{"anonymous":false,"inputs":[{"indexed":true,"internalType":"address","name":"previousOwner","type":"address"},{"indexed":true,"internalType":"address","name":"newOwner","type":"address"}],"name":"OwnershipTransferred","type":"event"},{"anonymous":false,"inputs":[{"indexed":false,"internalType":"bool","name":"commissionIsEnabled","type":"bool"},{"indexed":false,"internalType":"uint8","name":"convertTokenPercentage","type":"uint8"},{"indexed":false,"internalType":"uint8","name":"receiverCommissionProportion","type":"uint8"},{"indexed":false,"internalType":"uint8","name":"bridgeOwnerCommissionProportion","type":"uint8"},{"indexed":false,"internalType":"uint16","name":"pointOffsetShifter","type":"uint16"},{"indexed":false,"internalType":"uint256","name":"commissionType","type":"uint256"},{"indexed":false,"internalType":"uint256","name":"fixedTokenCommission","type":"uint256"},{"indexed":false,"internalType":"uint256","name":"fixedNativeTokenCommission","type":"uint256"},{"indexed":false,"internalType":"address payable","name":"receiverCommission","type":"address"},{"indexed":false,"internalType":"address payable","name":"bridgeOwner","type":"address"},{"indexed":false,"internalType":"uint256","name":"updateTimestamp","type":"uint256"}],"name":"UpdateCommissionConfiguration","type":"event"},{"anonymous":false,"inputs":[{"indexed":false,"internalType":"uint256","name":"perTxnMinAmount","type":"uint256"},{"indexed":false,"internalType":"uint256","name":"perTxnMaxAmount","type":"uint256"},{"indexed":false,"internalType":"uint256","name":"maxSupply","type":"uint256"}],"name":"UpdateConfiguration","type":"event"},{"anonymous":false,"inputs":[{"indexed":true,"internalType":"address","name":"previousReceiver","type":"address"},{"indexed":true,"internalType":"address","name":"newReceiver","type":"address"}],"name":"UpdateReceiver","type":"event"},{"inputs":[],"name":"claimNativeCurrencyCommission","outputs":[],"stateMutability":"nonpayable","type":"function"},{"inputs":[],"name":"commissionSettings","outputs":[{"internalType":"uint8","name":"convertTokenPercentage","type":"uint8"},{"internalType":"uint8","name":"receiverCommissionProportion","type":"uint8"},{"internalType":"uint8","name":"bridgeOwnerCommissionProportion","type":"uint8"},{"internalType":"uint16","name":"pointOffsetShifter","type":"uint16"},{"internalType":"bool","name":"commissionIsEnabled","type":"bool"},{"internalType":"uint256","name":"fixedNativeTokenCommission","type":"uint256"},{"internalType":"uint256","name":"fixedTokenCommission","type":"uint256"},{"internalType":"enum Commission.CommissionType","name":"commissionType","type":"uint8"},{"internalType":"address payable","name":"receiverCommission","type":"address"},{"internalType":"address payable","name":"bridgeOwner","type":"address"}],"stateMutability":"view","type":"function"},{"inputs":[{"internalType":"address","name":"to","type":"address"},{"internalType":"uint256","name":"amount","type":"uint256"},{"internalType":"bytes32","name":"conversionId","type":"bytes32"},{"internalType":"uint8","name":"v","type":"uint8"},{"internalType":"bytes32","name":"r","type":"bytes32"},{"internalType":"bytes32","name":"s","type":"bytes32"}],"name":"conversionIn","outputs":[],"stateMutability":"payable","type":"function"},{"inputs":[{"internalType":"uint256","name":"amount","type":"uint256"},{"internalType":"bytes32","name":"conversionId","type":"bytes32"},{"internalType":"uint8","name":"v","type":"uint8"},{"internalType":"bytes32","name":"r","type":"bytes32"},{"internalType":"bytes32","name":"s","type":"bytes32"}],"name":"conversionOut","outputs":[],"stateMutability":"payable","type":"function"},{"inputs":[],"name":"disableCommission","outputs":[],"stateMutability":"nonpayable","type":"function"},{"inputs":[],"name":"getCommissionReceiverAddresses","outputs":[{"internalType":"address","name":"","type":"address"},{"internalType":"address","name":"","type":"address"}],"stateMutability":"view","type":"function"},{"inputs":[],"name":"getCommissionSettings","outputs":[{"internalType":"bool","name":"commissionIsEnabled","type":"bool"},{"internalType":"uint8","name":"receiverCommissionProportion","type":"uint8"},{"internalType":"uint8","name":"bridgeOwnerCommissionProportion","type":"uint8"},{"internalType":"uint8","name":"convertTokenPercentage","type":"uint8"},{"internalType":"uint16","name":"offsetShifter","type":"uint16"},{"internalType":"uint256","name":"tokenTypeCommission","type":"uint256"},{"internalType":"uint256","name":"fixedTokenCommission","type":"uint256"},{"internalType":"uint256","name":"fixedNativeTokenCommission","type":"uint256"},{"internalType":"address payable","name":"receiverCommission","type":"address"},{"internalType":"address payable","name":"bridgeOwner","type":"address"},{"internalType":"address","name":"token","type":"address"}],"stateMutability":"view","type":"function"},{"inputs":[],"name":"getConversionAuthorizer","outputs":[{"internalType":"address","name":"","type":"address"}],"stateMutability":"view","type":"function"},{"inputs":[],"name":"getConversionConfigurations","outputs":[{"internalType":"uint256","name":"","type":"uint256"},{"internalType":"uint256","name":"","type":"uint256"},{"internalType":"uint256","name":"","type":"uint256"}],"stateMutability":"view","type":"function"},{"inputs":[],"name":"owner","outputs":[{"internalType":"address","name":"","type":"address"}],"stateMutability":"view","type":"function"},{"inputs":[],"name":"renounceOwnership","outputs":[],"stateMutability":"nonpayable","type":"function"},{"inputs":[{"internalType":"address","name":"newOwner","type":"address"}],"name":"transferOwnership","outputs":[],"stateMutability":"nonpayable","type":"function"},{"inputs":[{"internalType":"address","name":"newAuthorizer","type":"address"}],"name":"updateAuthorizer","outputs":[],"stateMutability":"nonpayable","type":"function"},{"inputs":[{"internalType":"address","name":"newBridgeOwner","type":"address"}],"name":"updateBridgeOwner","outputs":[],"stateMutability":"nonpayable","type":"function"},{"inputs":[{"internalType":"bool","name":"commissionIsEnabled","type":"bool"},{"internalType":"uint8","name":"receiverCommissionProportion","type":"uint8"},{"internalType":"uint8","name":"bridgeOwnerCommissionProportion","type":"uint8"},{"internalType":"uint8","name":"newConvertTokenPercentage","type":"uint8"},{"internalType":"uint16","name":"newPointOffsetShifter","type":"uint16"},{"internalType":"uint256","name":"newCommissionType","type":"uint256"},{"internalType":"uint256","name":"newFixedTokenCommission","type":"uint256"},{"internalType":"uint256","name":"newFixedNativeTokenCommission","type":"uint256"},{"internalType":"address payable","name":"receiverCommission","type":"address"},{"internalType":"address payable","name":"bridgeOwner","type":"address"}],"name":"updateCommissionConfiguration","outputs":[],"stateMutability":"nonpayable","type":"function"},{"inputs":[{"internalType":"uint256","name":"perTxnMinAmount","type":"uint256"},{"internalType":"uint256","name":"perTxnMaxAmount","type":"uint256"},{"internalType":"uint256","name":"maxSupply","type":"uint256"}],"name":"updateConfigurations","outputs":[],"stateMutability":"nonpayable","type":"function"},{"inputs":[{"internalType":"address","name":"newReceiverCommission","type":"address"}],"name":"updateReceiverCommission","outputs":[],"stateMutability":"nonpayable","type":"function"}],"evm":{"bytecode":{"linkReferences":{},"object":"60c06040523480156200001157600080fd5b50604051620027e5380380620027e583398101604081905262000034916200044b565b8b8b8b8b8b8b8b8b8b8b8b8b6200004b33620001d4565b60018055888860646200005f828462000525565b60ff16146200009257604051638efe3fd560e01b815260ff80841660048301528216602482015260440160405180910390fd5b6001600160a01b038e1660a0526080869052620000b08c8a62000224565b8c156200016d576002805460ff60281b191665010000000000179055620000df8c8c8c8c8c8a8d8b8b62000251565b604080518e1515815260ff8e811660208301528d8116828401528c16606082015261ffff8b16608082015260a081018a905260c0810187905260e081018990526001600160a01b0386811661010083015285166101208201524261014082015290517fd1b739630a105f793291c4c7da87c157fefcef1d41997e1980ca9e689bed16a7918190036101600190a15b505050505050505050505050505060006001600160a01b03168c6001600160a01b031603620001af5760405163d92e233d60e01b815260040160405180910390fd5b5050600780546001600160a01b03191633179055506200055398505050505050505050565b600080546001600160a01b038381166001600160a01b0319831681178455604051919092169283917f8be0079c531659141344cd1fd0a4f28419497f9722a3daafe3b4186f6b6457e09190a35050565b8061ffff168260ff1611156200024d57604051633abd651d60e21b815260040160405180910390fd5b5050565b60025460ff89811661010090920416146200027b576002805461ff00191661010060ff8b16021790555b60025460ff888116620100009092041614620002a8576002805462ff000019166201000060ff8a16021790555b84158015620002ba575060008960ff16115b1562000300576002805464ffff0000ff1916630100000061ffff89160260ff199081169190911760ff8c161790915560058054600092166001835b021790555062000347565b8460010362000322576004849055600580546001919060ff19168280620002f5565b821562000347576200033483620003d7565b60038390556005805460ff191660021790555b6005546001600160a01b038381166101009092041614620003835760058054610100600160a81b0319166101006001600160a01b038516021790555b6006546001600160a01b03828116911614801590620003aa57506001600160a01b03811615155b15620003cc57600680546001600160a01b0319166001600160a01b0383161790555b505050505050505050565b608051811115620003fb5760405163dd27e1db60e01b815260040160405180910390fd5b50565b6001600160a01b0381168114620003fb57600080fd5b805160ff811681146200042657600080fd5b919050565b805161ffff811681146200042657600080fd5b80516200042681620003fe565b6000806000806000806000806000806000806101808d8f0312156200046f57600080fd5b8c516200047c81620003fe565b60208e0151909c5080151581146200049357600080fd5b9a50620004a360408e0162000414565b9950620004b360608e0162000414565b9850620004c360808e0162000414565b9750620004d360a08e016200042b565b965060c08d0151955060e08d015194506101008d015193506101208d01519250620005026101408e016200043e565b9150620005136101608e016200043e565b90509295989b509295989b509295989b565b60ff81811683821601908111156200054d57634e487b7160e01b600052601160045260246000fd5b92915050565b60805160a05161221f620005c6600039600081816106f30152818161096d01528181610a5e01528181610bc201528181610c8b01528181610da80152818161108a015281816113100152818161174c0152818161188201528181611a060152611b3701526000611e22015261221f6000f3fe6080604052600436106100fe5760003560e01c806394aca02a11610095578063c329a6cf11610064578063c329a6cf1461033d578063c72304ac1461035d578063e0a665781461037b578063f2fde38b1461039b578063feea1529146103bb57600080fd5b806394aca02a146102bd5780639cb71686146102dd5780639f23c9e214610315578063b26e099f1461032857600080fd5b80636a02fcc4116100d15780636a02fcc414610243578063715018a6146102565780637c522d281461026b5780638da5cb5b1461028b57600080fd5b806337c1562614610103578063529c09701461011a5780635531e7741461013a57806358a93688146101c1575b600080fd5b34801561010f57600080fd5b506101186103ec565b005b34801561012657600080fd5b50610118610135366004611e8d565b6105f9565b34801561014657600080fd5b506002546003546004546005546006546101a29460ff8082169561010080840483169662010000850484169661ffff630100000087041696600160281b90960485169593949193918116926001600160a01b039104811691168a565b6040516101b89a99989796959493929190611ecf565b60405180910390f35b3480156101cd57600080fd5b506101d6610656565b604080519b15158c5260ff9a8b1660208d0152988a16988b019890985297909516606089015261ffff909316608088015260a087019190915260c086015260e08501526001600160a01b0390811661010085015291821661012084015216610140820152610160016101b8565b610118610251366004611f8e565b610735565b34801561026257600080fd5b50610118610f13565b34801561027757600080fd5b50610118610286366004611fe8565b610f25565b34801561029757600080fd5b506000546001600160a01b03165b6040516001600160a01b0390911681526020016101b8565b3480156102c957600080fd5b506101186102d8366004611fe8565b610fb0565b3480156102e957600080fd5b50600554600654604080516101009093046001600160a01b0390811684529091166020830152016101b8565b61011861032336600461200c565b611046565b34801561033457600080fd5b506101186113ed565b34801561034957600080fd5b5061011861035836600461205e565b611406565b34801561036957600080fd5b506007546001600160a01b03166102a5565b34801561038757600080fd5b50610118610396366004611fe8565b611527565b3480156103a757600080fd5b506101186103b6366004611fe8565b6115aa565b3480156103c757600080fd5b50600954600a54600b54604080519384526020840192909252908201526060016101b8565b6103f4611623565b3360055461010090046001600160a01b0316336001600160a01b03161415801561043257506006546001600160a01b0316336001600160a01b031614155b1561045757604051630f287a3f60e01b81523360048201526024015b60405180910390fd5b4760055461010090046001600160a01b0316158015906104805750600254610100900460ff1615155b1561052a576002546000906064906104a090610100900460ff1684612129565b6104aa9190612140565b6005546040519192506000916101009091046001600160a01b03169083908381818185875af1925050503d8060008114610500576040519150601f19603f3d011682016040523d82523d6000602084013e610505565b606091505b505090508061052757604051631227624b60e11b815260040160405180910390fd5b50505b6006546002546000916001600160a01b0316906064906105539062010000900460ff1685612129565b61055d9190612140565b604051600081818185875af1925050503d8060008114610599576040519150601f19603f3d011682016040523d82523d6000602084013e61059e565b606091505b50509050806105c057604051631227624b60e11b815260040160405180910390fd5b60405142907f5b64f7990ec4169ec43e750ea74cd6e76bbbd2a11d79841622bdda84ba9d561e90600090a25050506105f760018055565b565b61060161167c565b6009839055600a829055600b81905560408051848152602081018490529081018290527fb2efb0aa6e279553a1e5567ebb495d322192aa43c5fc3073cba4601d52009ab49060600160405180910390a1505050565b600280546005546000928392839283928392839283928392839283928392600160281b810460ff90811693610100830482169362010000840483169383811693630100000090910461ffff169216908111156106b4576106b4611eb9565b6002800154600260010154600260030160019054906101000a90046001600160a01b0316600260040160009054906101000a90046001600160a01b03167f00000000000000000000000000000000000000000000000000000000000000009a509a509a509a509a509a509a509a509a509a509a50909192939495969798999a565b84600954811080156107485750600a5481115b15610766576040516305f7ed2b60e21b815260040160405180910390fd5b61076e611623565b6001600160a01b0387166107b55760405162461bcd60e51b815260206004820152600e60248201526d125b9d985b1a59081dd85b1b195d60921b604482015260640161044e565b600061086d87336040516d2fafb1b7b73b32b939b4b7b724b760911b6020820152602e8101929092526bffffffffffffffffffffffff19606091821b8116604e840152606283018a90523090911b1660828201526096015b60408051601f1981840301815282825280516020918201207f19457468657265756d205369676e6564204d6573736167653a0a33320000000084830152603c8085019190915282518085039091018152605c909301909152815191012090565b60075460408051600081526020810180835284905260ff89169181019190915260608101879052608081018690529192506001600160a01b03169060019060a0016020604051602081039080840390855afa1580156108d0573d6000803e3d6000fd5b505050602060405103516001600160a01b031614610901576040516329e8166f60e21b815260040160405180910390fd5b60008181526008602052604090205460ff16156109315760405163333a6a0960e21b815260040160405180910390fd5b600081815260086020908152604091829020805460ff19166001179055600b5482516318160ddd60e01b8152925190928a926001600160a01b037f000000000000000000000000000000000000000000000000000000000000000016926318160ddd9260048082019392918290030181865afa1580156109b5573d6000803e3d6000fd5b505050506040513d601f19601f820116820180604052508101906109d99190612162565b6109e3919061217b565b1115610a225760405162461bcd60e51b815260206004820152600e60248201526d125b9d985b1a5908105b5bdd5b9d60921b604482015260640161044e565b600254600160281b900460ff1615610da457600260055460ff166002811115610a4d57610a4d611eb9565b03610b7657610a5a6116d6565b60007f00000000000000000000000000000000000000000000000000000000000000006001600160a01b03167f40c10f19c047ae7dfa66d6312b683d2ea3dfbcb4159e96b967c5f4b0a86f28428a8a604051602401610ace9291906001600160a01b03929092168252602082015260400190565b60408051601f198184030181529181526020820180516001600160e01b03166001600160e01b0319909416939093179092529051610b0c919061218e565b6000604051808303816000865af19150503d8060008114610b49576040519150601f19603f3d011682016040523d82523d6000602084013e610b4e565b606091505b5050905080610b7057604051630e13b08160e21b815260040160405180910390fd5b50610ebc565b6040805130602482015260448082018a905282518083039091018152606490910182526020810180516001600160e01b03166340c10f1960e01b17905290516000916001600160a01b037f00000000000000000000000000000000000000000000000000000000000000001691610bed919061218e565b6000604051808303816000865af19150503d8060008114610c2a576040519150601f19603f3d011682016040523d82523d6000602084013e610c2f565b606091505b5050905080610c515760405163cb57cf5560e01b815260040160405180910390fd5b610c5a88611705565b610c6490896121bd565b975087600003610c87576040516326c8b49560e21b815260040160405180910390fd5b60007f00000000000000000000000000000000000000000000000000000000000000006001600160a01b03167fa9059cbb2ab09eb219583f4a59a5d0623ade346d962bcd4e46b11da047c9049b8b8b604051602401610cfb9291906001600160a01b03929092168252602082015260400190565b60408051601f198184030181529181526020820180516001600160e01b03166001600160e01b0319909416939093179092529051610d39919061218e565b6000604051808303816000865af19150503d8060008114610d76576040519150601f19603f3d011682016040523d82523d6000602084013e610d7b565b606091505b5050905080610d9d57604051630a7ce82760e31b815260040160405180910390fd5b5050610ebc565b60007f00000000000000000000000000000000000000000000000000000000000000006001600160a01b03167f40c10f19c047ae7dfa66d6312b683d2ea3dfbcb4159e96b967c5f4b0a86f28428a8a604051602401610e189291906001600160a01b03929092168252602082015260400190565b60408051601f198184030181529181526020820180516001600160e01b03166001600160e01b0319909416939093179092529051610e56919061218e565b6000604051808303816000865af19150503d8060008114610e93576040519150601f19603f3d011682016040523d82523d6000602084013e610e98565b606091505b5050905080610eba57604051630e13b08160e21b815260040160405180910390fd5b505b60408051878152602081018990526001600160a01b038a16917f62a9b3e6446ab559d6b82c4f02cc923cd3b4e47444ef86446dab81a4d781c5af910160405180910390a250610f0a60018055565b50505050505050565b610f1b61167c565b6105f76000611973565b610f2d61167c565b6001600160a01b038116610f545760405163d92e233d60e01b815260040160405180910390fd5b6006546040516001600160a01b038084169216907f62904549814f5511a5d36a62611a6e2fe1d2c29b6de74de25d95395e0a7d009b90600090a3600680546001600160a01b0319166001600160a01b0392909216919091179055565b610fb861167c565b6001600160a01b038116610fdf5760405163d92e233d60e01b815260040160405180910390fd5b6005546040516001600160a01b0380841692610100900416907f62904549814f5511a5d36a62611a6e2fe1d2c29b6de74de25d95395e0a7d009b90600090a3600580546001600160a01b0390921661010002610100600160a81b0319909216919091179055565b84600954811080156110595750600a5481115b15611077576040516305f7ed2b60e21b815260040160405180910390fd5b61107f611623565b856001600160a01b037f0000000000000000000000000000000000000000000000000000000000000000166370a08231336040516001600160e01b031960e084901b1681526001600160a01b039091166004820152602401602060405180830381865afa1580156110f4573d6000803e3d6000fd5b505050506040513d601f19601f820116820180604052508101906111189190612162565b10156111375760405163569d45cf60e11b815260040160405180910390fd5b600061119487336040516e17d7d8dbdb9d995c9cda5bdb93dd5d608a1b6020820152602f8101929092526bffffffffffffffffffffffff19606091821b8116604f840152606383018a90523090911b16608382015260970161080d565b60075460408051600081526020810180835284905260ff89169181019190915260608101879052608081018690529192506001600160a01b03169060019060a0016020604051602081039080840390855afa1580156111f7573d6000803e3d6000fd5b505050602060405103516001600160a01b031614611228576040516329e8166f60e21b815260040160405180910390fd5b60008181526008602052604090205460ff16156112585760405163333a6a0960e21b815260040160405180910390fd5b6000818152600860205260409020805460ff19166001179055600254600160281b900460ff16156112c457600260055460ff16600281111561129c5761129c611eb9565b036112ae576112a96116d6565b6112c4565b6112b7876119c3565b6112c190886121bd565b96505b6040805133602482015260448082018a905282518083039091018152606490910182526020810180516001600160e01b031663079cc67960e41b17905290516000916001600160a01b037f0000000000000000000000000000000000000000000000000000000000000000169161133b919061218e565b6000604051808303816000865af19150503d8060008114611378576040519150601f19603f3d011682016040523d82523d6000602084013e61137d565b606091505b505090508061139f57604051630e13b08160e21b815260040160405180910390fd5b60408051888152602081018a905233917fb999b06746a947f1958636b9b9377ae814fe578413dfffd4d3a7a96196fe02fc910160405180910390a250506113e560018055565b505050505050565b6113f561167c565b6002805465ff000000000019169055565b61140e61167c565b8888606461141c82846121d0565b60ff161461144a57604051638efe3fd560e01b815260ff80841660048301528216602482015260440161044e565b600254600160281b900460ff16611471576002805465ff00000000001916600160281b1790555b61147b8989611ba5565b61148c898c8c8b8b8b8b8b8b611bd1565b604080518d1515815260ff8b811660208301528d8116828401528c16606082015261ffff8a16608082015260a0810189905260c0810188905260e081018790526001600160a01b0386811661010083015285166101208201524261014082015290517fd1b739630a105f793291c4c7da87c157fefcef1d41997e1980ca9e689bed16a7918190036101600190a1505050505050505050505050565b61152f61167c565b6001600160a01b0381166115565760405163d92e233d60e01b815260040160405180910390fd5b600780546001600160a01b0319166001600160a01b0383169081179091556040519081527f08f53e6a9fbc3949bc0b9266bbe1927f0b282a34d92876ccbe188c24d17c6cbb9060200160405180910390a150565b6115b261167c565b6001600160a01b0381166116175760405162461bcd60e51b815260206004820152602660248201527f4f776e61626c653a206e6577206f776e657220697320746865207a65726f206160448201526564647265737360d01b606482015260840161044e565b61162081611973565b50565b6002600154036116755760405162461bcd60e51b815260206004820152601f60248201527f5265656e7472616e637947756172643a207265656e7472616e742063616c6c00604482015260640161044e565b6002600155565b6000546001600160a01b031633146105f75760405162461bcd60e51b815260206004820181905260248201527f4f776e61626c653a2063616c6c6572206973206e6f7420746865206f776e6572604482015260640161044e565b60035434146105f75760035460405163f744231960e01b8152346004820152602481019190915260440161044e565b600080600061171384611d4a565b600554919350915061010090046001600160a01b0316158015906117375750818114155b15611860576005546000906001600160a01b037f00000000000000000000000000000000000000000000000000000000000000008116917fa9059cbb2ab09eb219583f4a59a5d0623ade346d962bcd4e46b11da047c9049b91610100909104166117a186866121bd565b6040516001600160a01b039092166024830152604482015260640160408051601f198184030181529181526020820180516001600160e01b03166001600160e01b03199094169390931790925290516117fa919061218e565b6000604051808303816000865af19150503d8060008114611837576040519150601f19603f3d011682016040523d82523d6000602084013e61183c565b606091505b505090508061185e5760405163d291274f60e01b815260040160405180910390fd5b505b6006546040516001600160a01b039182166024820152604481018490526000917f000000000000000000000000000000000000000000000000000000000000000016907fa9059cbb2ab09eb219583f4a59a5d0623ade346d962bcd4e46b11da047c9049b906064015b60408051601f198184030181529181526020820180516001600160e01b03166001600160e01b0319909416939093179092529051611907919061218e565b6000604051808303816000865af19150503d8060008114611944576040519150601f19603f3d011682016040523d82523d6000602084013e611949565b606091505b505090508061196b5760405163d291274f60e01b815260040160405180910390fd5b509392505050565b600080546001600160a01b038381166001600160a01b0319831681178455604051919092169283917f8be0079c531659141344cd1fd0a4f28419497f9722a3daafe3b4186f6b6457e09190a35050565b60008060006119d184611d4a565b600554919350915061010090046001600160a01b0316158015906119f55750818114155b15611b2b5760006001600160a01b037f0000000000000000000000000000000000000000000000000000000000000000167f23b872dd7302113369cda2901243429419bec145408fa8b352b3dd92b66c680b3360055461010090046001600160a01b0316611a6387876121bd565b6040516001600160a01b039384166024820152929091166044830152606482015260840160408051601f198184030181529181526020820180516001600160e01b03166001600160e01b0319909416939093179092529051611ac5919061218e565b6000604051808303816000865af19150503d8060008114611b02576040519150601f19603f3d011682016040523d82523d6000602084013e611b07565b606091505b5050905080611b295760405163d291274f60e01b815260040160405180910390fd5b505b60006001600160a01b037f0000000000000000000000000000000000000000000000000000000000000000167f23b872dd7302113369cda2901243429419bec145408fa8b352b3dd92b66c680b336006546040516001600160a01b03928316602482015291166044820152606481018690526084016118c9565b8061ffff168260ff161115611bcd57604051633abd651d60e21b815260040160405180910390fd5b5050565b60025460ff8981166101009092041614611bfa576002805461ff00191661010060ff8b16021790555b60025460ff888116620100009092041614611c26576002805462ff000019166201000060ff8a16021790555b84158015611c37575060008960ff16115b15611c7b576002805464ffff0000ff1916630100000061ffff89160260ff199081169190911760ff8c161790915560058054600092166001835b0217905550611cbd565b84600103611c9b576004849055600580546001919060ff19168280611c71565b8215611cbd57611caa83611e20565b60038390556005805460ff191660021790555b6005546001600160a01b038381166101009092041614611cf85760058054610100600160a81b0319166101006001600160a01b038516021790555b6006546001600160a01b03828116911614801590611d1e57506001600160a01b03811615155b15611d3f57600680546001600160a01b0319166001600160a01b0383161790555b505050505050505050565b6000808060055460ff166002811115611d6557611d65611eb9565b03611da75760025460009061ffff630100000082041690611d899060ff1686612129565b611d939190612140565b9050611d9e81611e61565b94909350915050565b600160055460ff166002811115611dc057611dc0611eb9565b03611dde57600454611dd190611e61565b6004549094909350915050565b600260055460ff166002811115611df757611df7611eb9565b03611e1557600354611e0890611e61565b6003549094909350915050565b506000928392509050565b7f00000000000000000000000000000000000000000000000000000000000000008111156116205760405163dd27e1db60e01b815260040160405180910390fd5b600254600090606490611e7d9062010000900460ff1684612129565b611e879190612140565b92915050565b600080600060608486031215611ea257600080fd5b505081359360208301359350604090920135919050565b634e487b7160e01b600052602160045260246000fd5b60ff8b811682528a811660208301528916604082015261ffff88166060820152861515608082015260a0810186905260c08101859052610140810160038510611f2857634e487b7160e01b600052602160045260246000fd5b8460e0830152611f446101008301856001600160a01b03169052565b6001600160a01b0383166101208301529b9a5050505050505050505050565b6001600160a01b038116811461162057600080fd5b803560ff81168114611f8957600080fd5b919050565b60008060008060008060c08789031215611fa757600080fd5b8635611fb281611f63565b95506020870135945060408701359350611fce60608801611f78565b92506080870135915060a087013590509295509295509295565b600060208284031215611ffa57600080fd5b813561200581611f63565b9392505050565b600080600080600060a0868803121561202457600080fd5b853594506020860135935061203b60408701611f78565b94979396509394606081013594506080013592915050565b8035611f8981611f63565b6000806000806000806000806000806101408b8d03121561207e57600080fd5b8a35801515811461208e57600080fd5b995061209c60208c01611f78565b98506120aa60408c01611f78565b97506120b860608c01611f78565b965060808b013561ffff811681146120cf57600080fd5b955060a08b0135945060c08b0135935060e08b013592506120f36101008c01612053565b91506121026101208c01612053565b90509295989b9194979a5092959850565b634e487b7160e01b600052601160045260246000fd5b8082028115828204841417611e8757611e87612113565b60008261215d57634e487b7160e01b600052601260045260246000fd5b500490565b60006020828403121561217457600080fd5b5051919050565b80820180821115611e8757611e87612113565b6000825160005b818110156121af5760208186018101518583015201612195565b506000920191825250919050565b81810381811115611e8757611e87612113565b60ff8181168382160190811115611e8757611e8761211356fea26469706673582212200939c05954dd5bbf3d8b136f7b0089e2c0fffebbc0a07a30b0124e13dc14718464736f6c63430008130033","opcodes":"PUSH1 0xC0 PUSH1 0x40 MSTORE CALLVALUE DUP1 ISZERO PUSH3 0x11 JUMPI PUSH1 0x0 DUP1 REVERT JUMPDEST POP PUSH1 0x40 MLOAD PUSH3 0x27E5 CODESIZE SUB DUP1 PUSH3 0x27E5 DUP4 CODECOPY DUP2 ADD PUSH1 0x40 DUP2 SWAP1 MSTORE PUSH3 0x34 SWAP2 PUSH3 0x44B JUMP JUMPDEST DUP12 DUP12 DUP12 DUP12 DUP12 DUP12 DUP12 DUP12 DUP12 DUP12 DUP12 DUP12 PUSH3 0x4B CALLER PUSH3 0x1D4 JUMP JUMPDEST PUSH1 0x1 DUP1 SSTORE DUP9 DUP9 PUSH1 0x64 PUSH3 0x5F DUP3 DUP5 PUSH3 0x525 JUMP JUMPDEST PUSH1 0xFF AND EQ PUSH3 0x92 JUMPI PUSH1 0x40 MLOAD PUSH4 0x8EFE3FD5 PUSH1 0xE0 SHL DUP2 MSTORE PUSH1 0xFF DUP1 DUP5 AND PUSH1 0x4 DUP4 ADD MSTORE DUP3 AND PUSH1 0x24 DUP3 ADD MSTORE PUSH1 0x44 ADD PUSH1 0x40 MLOAD DUP1 SWAP2 SUB SWAP1 REVERT JUMPDEST PUSH1 0x1 PUSH1 0x1 PUSH1 0xA0 SHL SUB DUP15 AND PUSH1 0xA0 MSTORE PUSH1 0x80 DUP7 SWAP1 MSTORE PUSH3 0xB0 DUP13 DUP11 PUSH3 0x224 JUMP JUMPDEST DUP13 ISZERO PUSH3 0x16D JUMPI PUSH1 0x2 DUP1 SLOAD PUSH1 0xFF PUSH1 0x28 SHL NOT AND PUSH6 0x10000000000 OR SWAP1 SSTORE PUSH3 0xDF DUP13 DUP13 DUP13 DUP13 DUP13 DUP11 DUP14 DUP12 DUP12 PUSH3 0x251 JUMP JUMPDEST PUSH1 0x40 DUP1 MLOAD DUP15 ISZERO ISZERO DUP2 MSTORE PUSH1 0xFF DUP15 DUP2 AND PUSH1 0x20 DUP4 ADD MSTORE DUP14 DUP2 AND DUP3 DUP5 ADD MSTORE DUP13 AND PUSH1 0x60 DUP3 ADD MSTORE PUSH2 0xFFFF DUP12 AND PUSH1 0x80 DUP3 ADD MSTORE PUSH1 0xA0 DUP2 ADD DUP11 SWAP1 MSTORE PUSH1 0xC0 DUP2 ADD DUP8 SWAP1 MSTORE PUSH1 0xE0 DUP2 ADD DUP10 SWAP1 MSTORE PUSH1 0x1 PUSH1 0x1 PUSH1 0xA0 SHL SUB DUP7 DUP2 AND PUSH2 0x100 DUP4 ADD MSTORE DUP6 AND PUSH2 0x120 DUP3 ADD MSTORE TIMESTAMP PUSH2 0x140 DUP3 ADD MSTORE SWAP1 MLOAD PUSH32 0xD1B739630A105F793291C4C7DA87C157FEFCEF1D41997E1980CA9E689BED16A7 SWAP2 DUP2 SWAP1 SUB PUSH2 0x160 ADD SWAP1 LOG1 JUMPDEST POP POP POP POP POP POP POP POP POP POP POP POP POP POP PUSH1 0x0 PUSH1 0x1 PUSH1 0x1 PUSH1 0xA0 SHL SUB AND DUP13 PUSH1 0x1 PUSH1 0x1 PUSH1 0xA0 SHL SUB AND SUB PUSH3 0x1AF JUMPI PUSH1 0x40 MLOAD PUSH4 0xD92E233D PUSH1 0xE0 SHL DUP2 MSTORE PUSH1 0x4 ADD PUSH1 0x40 MLOAD DUP1 SWAP2 SUB SWAP1 REVERT JUMPDEST POP POP PUSH1 0x7 DUP1 SLOAD PUSH1 0x1 PUSH1 0x1 PUSH1 0xA0 SHL SUB NOT AND CALLER OR SWAP1 SSTORE POP PUSH3 0x553 SWAP9 POP POP POP POP POP POP POP POP POP JUMP JUMPDEST PUSH1 0x0 DUP1 SLOAD PUSH1 0x1 PUSH1 0x1 PUSH1 0xA0 SHL SUB DUP4 DUP2 AND PUSH1 0x1 PUSH1 0x1 PUSH1 0xA0 SHL SUB NOT DUP4 AND DUP2 OR DUP5 SSTORE PUSH1 0x40 MLOAD SWAP2 SWAP1 SWAP3 AND SWAP3 DUP4 SWAP2 PUSH32 0x8BE0079C531659141344CD1FD0A4F28419497F9722A3DAAFE3B4186F6B6457E0 SWAP2 SWAP1 LOG3 POP POP JUMP JUMPDEST DUP1 PUSH2 0xFFFF AND DUP3 PUSH1 0xFF AND GT ISZERO PUSH3 0x24D JUMPI PUSH1 0x40 MLOAD PUSH4 0x3ABD651D PUSH1 0xE2 SHL DUP2 MSTORE PUSH1 0x4 ADD PUSH1 0x40 MLOAD DUP1 SWAP2 SUB SWAP1 REVERT JUMPDEST POP POP JUMP JUMPDEST PUSH1 0x2 SLOAD PUSH1 0xFF DUP10 DUP2 AND PUSH2 0x100 SWAP1 SWAP3 DIV AND EQ PUSH3 0x27B JUMPI PUSH1 0x2 DUP1 SLOAD PUSH2 0xFF00 NOT AND PUSH2 0x100 PUSH1 0xFF DUP12 AND MUL OR SWAP1 SSTORE JUMPDEST PUSH1 0x2 SLOAD PUSH1 0xFF DUP9 DUP2 AND PUSH3 0x10000 SWAP1 SWAP3 DIV AND EQ PUSH3 0x2A8 JUMPI PUSH1 0x2 DUP1 SLOAD PUSH3 0xFF0000 NOT AND PUSH3 0x10000 PUSH1 0xFF DUP11 AND MUL OR SWAP1 SSTORE JUMPDEST DUP5 ISZERO DUP1 ISZERO PUSH3 0x2BA JUMPI POP PUSH1 0x0 DUP10 PUSH1 0xFF AND GT JUMPDEST ISZERO PUSH3 0x300 JUMPI PUSH1 0x2 DUP1 SLOAD PUSH5 0xFFFF0000FF NOT AND PUSH4 0x1000000 PUSH2 0xFFFF DUP10 AND MUL PUSH1 0xFF NOT SWAP1 DUP2 AND SWAP2 SWAP1 SWAP2 OR PUSH1 0xFF DUP13 AND OR SWAP1 SWAP2 SSTORE PUSH1 0x5 DUP1 SLOAD PUSH1 0x0 SWAP3 AND PUSH1 0x1 DUP4 JUMPDEST MUL OR SWAP1 SSTORE POP PUSH3 0x347 JUMP JUMPDEST DUP5 PUSH1 0x1 SUB PUSH3 0x322 JUMPI PUSH1 0x4 DUP5 SWAP1 SSTORE PUSH1 0x5 DUP1 SLOAD PUSH1 0x1 SWAP2 SWAP1 PUSH1 0xFF NOT AND DUP3 DUP1 PUSH3 0x2F5 JUMP JUMPDEST DUP3 ISZERO PUSH3 0x347 JUMPI PUSH3 0x334 DUP4 PUSH3 0x3D7 JUMP JUMPDEST PUSH1 0x3 DUP4 SWAP1 SSTORE PUSH1 0x5 DUP1 SLOAD PUSH1 0xFF NOT AND PUSH1 0x2 OR SWAP1 SSTORE JUMPDEST PUSH1 0x5 SLOAD PUSH1 0x1 PUSH1 0x1 PUSH1 0xA0 SHL SUB DUP4 DUP2 AND PUSH2 0x100 SWAP1 SWAP3 DIV AND EQ PUSH3 0x383 JUMPI PUSH1 0x5 DUP1 SLOAD PUSH2 0x100 PUSH1 0x1 PUSH1 0xA8 SHL SUB NOT AND PUSH2 0x100 PUSH1 0x1 PUSH1 0x1 PUSH1 0xA0 SHL SUB DUP6 AND MUL OR SWAP1 SSTORE JUMPDEST PUSH1 0x6 SLOAD PUSH1 0x1 PUSH1 0x1 PUSH1 0xA0 SHL SUB DUP3 DUP2 AND SWAP2 AND EQ DUP1 ISZERO SWAP1 PUSH3 0x3AA JUMPI POP PUSH1 0x1 PUSH1 0x1 PUSH1 0xA0 SHL SUB DUP2 AND ISZERO ISZERO JUMPDEST ISZERO PUSH3 0x3CC JUMPI PUSH1 0x6 DUP1 SLOAD PUSH1 0x1 PUSH1 0x1 PUSH1 0xA0 SHL SUB NOT AND PUSH1 0x1 PUSH1 0x1 PUSH1 0xA0 SHL SUB DUP4 AND OR SWAP1 SSTORE JUMPDEST POP POP POP POP POP POP POP POP POP JUMP JUMPDEST PUSH1 0x80 MLOAD DUP2 GT ISZERO PUSH3 0x3FB JUMPI PUSH1 0x40 MLOAD PUSH4 0xDD27E1DB PUSH1 0xE0 SHL DUP2 MSTORE PUSH1 0x4 ADD PUSH1 0x40 MLOAD DUP1 SWAP2 SUB SWAP1 REVERT JUMPDEST POP JUMP JUMPDEST PUSH1 0x1 PUSH1 0x1 PUSH1 0xA0 SHL SUB DUP2 AND DUP2 EQ PUSH3 0x3FB JUMPI PUSH1 0x0 DUP1 REVERT JUMPDEST DUP1 MLOAD PUSH1 0xFF DUP2 AND DUP2 EQ PUSH3 0x426 JUMPI PUSH1 0x0 DUP1 REVERT JUMPDEST SWAP2 SWAP1 POP JUMP JUMPDEST DUP1 MLOAD PUSH2 0xFFFF DUP2 AND DUP2 EQ PUSH3 0x426 JUMPI PUSH1 0x0 DUP1 REVERT JUMPDEST DUP1 MLOAD PUSH3 0x426 DUP2 PUSH3 0x3FE JUMP JUMPDEST PUSH1 0x0 DUP1 PUSH1 0x0 DUP1 PUSH1 0x0 DUP1 PUSH1 0x0 DUP1 PUSH1 0x0 DUP1 PUSH1 0x0 DUP1 PUSH2 0x180 DUP14 DUP16 SUB SLT ISZERO PUSH3 0x46F JUMPI PUSH1 0x0 DUP1 REVERT JUMPDEST DUP13 MLOAD PUSH3 0x47C DUP2 PUSH3 0x3FE JUMP JUMPDEST PUSH1 0x20 DUP15 ADD MLOAD SWAP1 SWAP13 POP DUP1 ISZERO ISZERO DUP2 EQ PUSH3 0x493 JUMPI PUSH1 0x0 DUP1 REVERT JUMPDEST SWAP11 POP PUSH3 0x4A3 PUSH1 0x40 DUP15 ADD PUSH3 0x414 JUMP JUMPDEST SWAP10 POP PUSH3 0x4B3 PUSH1 0x60 DUP15 ADD PUSH3 0x414 JUMP JUMPDEST SWAP9 POP PUSH3 0x4C3 PUSH1 0x80 DUP15 ADD PUSH3 0x414 JUMP JUMPDEST SWAP8 POP PUSH3 0x4D3 PUSH1 0xA0 DUP15 ADD PUSH3 0x42B JUMP JUMPDEST SWAP7 POP PUSH1 0xC0 DUP14 ADD MLOAD SWAP6 POP PUSH1 0xE0 DUP14 ADD MLOAD SWAP5 POP PUSH2 0x100 DUP14 ADD MLOAD SWAP4 POP PUSH2 0x120 DUP14 ADD MLOAD SWAP3 POP PUSH3 0x502 PUSH2 0x140 DUP15 ADD PUSH3 0x43E JUMP JUMPDEST SWAP2 POP PUSH3 0x513 PUSH2 0x160 DUP15 ADD PUSH3 0x43E JUMP JUMPDEST SWAP1 POP SWAP3 SWAP6 SWAP9 SWAP12 POP SWAP3 SWAP6 SWAP9 SWAP12 POP SWAP3 SWAP6 SWAP9 SWAP12 JUMP JUMPDEST PUSH1 0xFF DUP2 DUP2 AND DUP4 DUP3 AND ADD SWAP1 DUP2 GT ISZERO PUSH3 0x54D JUMPI PUSH4 0x4E487B71 PUSH1 0xE0 SHL PUSH1 0x0 MSTORE PUSH1 0x11 PUSH1 0x4 MSTORE PUSH1 0x24 PUSH1 0x0 REVERT JUMPDEST SWAP3 SWAP2 POP POP JUMP JUMPDEST PUSH1 0x80 MLOAD PUSH1 0xA0 MLOAD PUSH2 0x221F PUSH3 0x5C6 PUSH1 0x0 CODECOPY PUSH1 0x0 DUP2 DUP2 PUSH2 0x6F3 ADD MSTORE DUP2 DUP2 PUSH2 0x96D ADD MSTORE DUP2 DUP2 PUSH2 0xA5E ADD MSTORE DUP2 DUP2 PUSH2 0xBC2 ADD MSTORE DUP2 DUP2 PUSH2 0xC8B ADD MSTORE DUP2 DUP2 PUSH2 0xDA8 ADD MSTORE DUP2 DUP2 PUSH2 0x108A ADD MSTORE DUP2 DUP2 PUSH2 0x1310 ADD MSTORE DUP2 DUP2 PUSH2 0x174C ADD MSTORE DUP2 DUP2 PUSH2 0x1882 ADD MSTORE DUP2 DUP2 PUSH2 0x1A06 ADD MSTORE PUSH2 0x1B37 ADD MSTORE PUSH1 0x0 PUSH2 0x1E22 ADD MSTORE PUSH2 0x221F PUSH1 0x0 RETURN INVALID PUSH1 0x80 PUSH1 0x40 MSTORE PUSH1 0x4 CALLDATASIZE LT PUSH2 0xFE JUMPI PUSH1 0x0 CALLDATALOAD PUSH1 0xE0 SHR DUP1 PUSH4 0x94ACA02A GT PUSH2 0x95 JUMPI DUP1 PUSH4 0xC329A6CF GT PUSH2 0x64 JUMPI DUP1 PUSH4 0xC329A6CF EQ PUSH2 0x33D JUMPI DUP1 PUSH4 0xC72304AC EQ PUSH2 0x35D JUMPI DUP1 PUSH4 0xE0A66578 EQ PUSH2 0x37B JUMPI DUP1 PUSH4 0xF2FDE38B EQ PUSH2 0x39B JUMPI DUP1 PUSH4 0xFEEA1529 EQ PUSH2 0x3BB JUMPI PUSH1 0x0 DUP1 REVERT JUMPDEST DUP1 PUSH4 0x94ACA02A EQ PUSH2 0x2BD JUMPI DUP1 PUSH4 0x9CB71686 EQ PUSH2 0x2DD JUMPI DUP1 PUSH4 0x9F23C9E2 EQ PUSH2 0x315 JUMPI DUP1 PUSH4 0xB26E099F EQ PUSH2 0x328 JUMPI PUSH1 0x0 DUP1 REVERT JUMPDEST DUP1 PUSH4 0x6A02FCC4 GT PUSH2 0xD1 JUMPI DUP1 PUSH4 0x6A02FCC4 EQ PUSH2 0x243 JUMPI DUP1 PUSH4 0x715018A6 EQ PUSH2 0x256 JUMPI DUP1 PUSH4 0x7C522D28 EQ PUSH2 0x26B JUMPI DUP1 PUSH4 0x8DA5CB5B EQ PUSH2 0x28B JUMPI PUSH1 0x0 DUP1 REVERT JUMPDEST DUP1 PUSH4 0x37C15626 EQ PUSH2 0x103 JUMPI DUP1 PUSH4 0x529C0970 EQ PUSH2 0x11A JUMPI DUP1 PUSH4 0x5531E774 EQ PUSH2 0x13A JUMPI DUP1 PUSH4 0x58A93688 EQ PUSH2 0x1C1 JUMPI JUMPDEST PUSH1 0x0 DUP1 REVERT JUMPDEST CALLVALUE DUP1 ISZERO PUSH2 0x10F JUMPI PUSH1 0x0 DUP1 REVERT JUMPDEST POP PUSH2 0x118 PUSH2 0x3EC JUMP JUMPDEST STOP JUMPDEST CALLVALUE DUP1 ISZERO PUSH2 0x126 JUMPI PUSH1 0x0 DUP1 REVERT JUMPDEST POP PUSH2 0x118 PUSH2 0x135 CALLDATASIZE PUSH1 0x4 PUSH2 0x1E8D JUMP JUMPDEST PUSH2 0x5F9 JUMP JUMPDEST CALLVALUE DUP1 ISZERO PUSH2 0x146 JUMPI PUSH1 0x0 DUP1 REVERT JUMPDEST POP PUSH1 0x2 SLOAD PUSH1 0x3 SLOAD PUSH1 0x4 SLOAD PUSH1 0x5 SLOAD PUSH1 0x6 SLOAD PUSH2 0x1A2 SWAP5 PUSH1 0xFF DUP1 DUP3 AND SWAP6 PUSH2 0x100 DUP1 DUP5 DIV DUP4 AND SWAP7 PUSH3 0x10000 DUP6 DIV DUP5 AND SWAP7 PUSH2 0xFFFF PUSH4 0x1000000 DUP8 DIV AND SWAP7 PUSH1 0x1 PUSH1 0x28 SHL SWAP1 SWAP7 DIV DUP6 AND SWAP6 SWAP4 SWAP5 SWAP2 SWAP4 SWAP2 DUP2 AND SWAP3 PUSH1 0x1 PUSH1 0x1 PUSH1 0xA0 SHL SUB SWAP2 DIV DUP2 AND SWAP2 AND DUP11 JUMP JUMPDEST PUSH1 0x40 MLOAD PUSH2 0x1B8 SWAP11 SWAP10 SWAP9 SWAP8 SWAP7 SWAP6 SWAP5 SWAP4 SWAP3 SWAP2 SWAP1 PUSH2 0x1ECF JUMP JUMPDEST PUSH1 0x40 MLOAD DUP1 SWAP2 SUB SWAP1 RETURN JUMPDEST CALLVALUE DUP1 ISZERO PUSH2 0x1CD JUMPI PUSH1 0x0 DUP1 REVERT JUMPDEST POP PUSH2 0x1D6 PUSH2 0x656 JUMP JUMPDEST PUSH1 0x40 DUP1 MLOAD SWAP12 ISZERO ISZERO DUP13 MSTORE PUSH1 0xFF SWAP11 DUP12 AND PUSH1 0x20 DUP14 ADD MSTORE SWAP9 DUP11 AND SWAP9 DUP12 ADD SWAP9 SWAP1 SWAP9 MSTORE SWAP8 SWAP1 SWAP6 AND PUSH1 0x60 DUP10 ADD MSTORE PUSH2 0xFFFF SWAP1 SWAP4 AND PUSH1 0x80 DUP9 ADD MSTORE PUSH1 0xA0 DUP8 ADD SWAP2 SWAP1 SWAP2 MSTORE PUSH1 0xC0 DUP7 ADD MSTORE PUSH1 0xE0 DUP6 ADD MSTORE PUSH1 0x1 PUSH1 0x1 PUSH1 0xA0 SHL SUB SWAP1 DUP2 AND PUSH2 0x100 DUP6 ADD MSTORE SWAP2 DUP3 AND PUSH2 0x120 DUP5 ADD MSTORE AND PUSH2 0x140 DUP3 ADD MSTORE PUSH2 0x160 ADD PUSH2 0x1B8 JUMP JUMPDEST PUSH2 0x118 PUSH2 0x251 CALLDATASIZE PUSH1 0x4 PUSH2 0x1F8E JUMP JUMPDEST PUSH2 0x735 JUMP JUMPDEST CALLVALUE DUP1 ISZERO PUSH2 0x262 JUMPI PUSH1 0x0 DUP1 REVERT JUMPDEST POP PUSH2 0x118 PUSH2 0xF13 JUMP JUMPDEST CALLVALUE DUP1 ISZERO PUSH2 0x277 JUMPI PUSH1 0x0 DUP1 REVERT JUMPDEST POP PUSH2 0x118 PUSH2 0x286 CALLDATASIZE PUSH1 0x4 PUSH2 0x1FE8 JUMP JUMPDEST PUSH2 0xF25 JUMP JUMPDEST CALLVALUE DUP1 ISZERO PUSH2 0x297 JUMPI PUSH1 0x0 DUP1 REVERT JUMPDEST POP PUSH1 0x0 SLOAD PUSH1 0x1 PUSH1 0x1 PUSH1 0xA0 SHL SUB AND JUMPDEST PUSH1 0x40 MLOAD PUSH1 0x1 PUSH1 0x1 PUSH1 0xA0 SHL SUB SWAP1 SWAP2 AND DUP2 MSTORE PUSH1 0x20 ADD PUSH2 0x1B8 JUMP JUMPDEST CALLVALUE DUP1 ISZERO PUSH2 0x2C9 JUMPI PUSH1 0x0 DUP1 REVERT JUMPDEST POP PUSH2 0x118 PUSH2 0x2D8 CALLDATASIZE PUSH1 0x4 PUSH2 0x1FE8 JUMP JUMPDEST PUSH2 0xFB0 JUMP JUMPDEST CALLVALUE DUP1 ISZERO PUSH2 0x2E9 JUMPI PUSH1 0x0 DUP1 REVERT JUMPDEST POP PUSH1 0x5 SLOAD PUSH1 0x6 SLOAD PUSH1 0x40 DUP1 MLOAD PUSH2 0x100 SWAP1 SWAP4 DIV PUSH1 0x1 PUSH1 0x1 PUSH1 0xA0 SHL SUB SWAP1 DUP2 AND DUP5 MSTORE SWAP1 SWAP2 AND PUSH1 0x20 DUP4 ADD MSTORE ADD PUSH2 0x1B8 JUMP JUMPDEST PUSH2 0x118 PUSH2 0x323 CALLDATASIZE PUSH1 0x4 PUSH2 0x200C JUMP JUMPDEST PUSH2 0x1046 JUMP JUMPDEST CALLVALUE DUP1 ISZERO PUSH2 0x334 JUMPI PUSH1 0x0 DUP1 REVERT JUMPDEST POP PUSH2 0x118 PUSH2 0x13ED JUMP JUMPDEST CALLVALUE DUP1 ISZERO PUSH2 0x349 JUMPI PUSH1 0x0 DUP1 REVERT JUMPDEST POP PUSH2 0x118 PUSH2 0x358 CALLDATASIZE PUSH1 0x4 PUSH2 0x205E JUMP JUMPDEST PUSH2 0x1406 JUMP JUMPDEST CALLVALUE DUP1 ISZERO PUSH2 0x369 JUMPI PUSH1 0x0 DUP1 REVERT JUMPDEST POP PUSH1 0x7 SLOAD PUSH1 0x1 PUSH1 0x1 PUSH1 0xA0 SHL SUB AND PUSH2 0x2A5 JUMP JUMPDEST CALLVALUE DUP1 ISZERO PUSH2 0x387 JUMPI PUSH1 0x0 DUP1 REVERT JUMPDEST POP PUSH2 0x118 PUSH2 0x396 CALLDATASIZE PUSH1 0x4 PUSH2 0x1FE8 JUMP JUMPDEST PUSH2 0x1527 JUMP JUMPDEST CALLVALUE DUP1 ISZERO PUSH2 0x3A7 JUMPI PUSH1 0x0 DUP1 REVERT JUMPDEST POP PUSH2 0x118 PUSH2 0x3B6 CALLDATASIZE PUSH1 0x4 PUSH2 0x1FE8 JUMP JUMPDEST PUSH2 0x15AA JUMP JUMPDEST CALLVALUE DUP1 ISZERO PUSH2 0x3C7 JUMPI PUSH1 0x0 DUP1 REVERT JUMPDEST POP PUSH1 0x9 SLOAD PUSH1 0xA SLOAD PUSH1 0xB SLOAD PUSH1 0x40 DUP1 MLOAD SWAP4 DUP5 MSTORE PUSH1 0x20 DUP5 ADD SWAP3 SWAP1 SWAP3 MSTORE SWAP1 DUP3 ADD MSTORE PUSH1 0x60 ADD PUSH2 0x1B8 JUMP JUMPDEST PUSH2 0x3F4 PUSH2 0x1623 JUMP JUMPDEST CALLER PUSH1 0x5 SLOAD PUSH2 0x100 SWAP1 DIV PUSH1 0x1 PUSH1 0x1 PUSH1 0xA0 SHL SUB AND CALLER PUSH1 0x1 PUSH1 0x1 PUSH1 0xA0 SHL SUB AND EQ ISZERO DUP1 ISZERO PUSH2 0x432 JUMPI POP PUSH1 0x6 SLOAD PUSH1 0x1 PUSH1 0x1 PUSH1 0xA0 SHL SUB AND CALLER PUSH1 0x1 PUSH1 0x1 PUSH1 0xA0 SHL SUB AND EQ ISZERO JUMPDEST ISZERO PUSH2 0x457 JUMPI PUSH1 0x40 MLOAD PUSH4 0xF287A3F PUSH1 0xE0 SHL DUP2 MSTORE CALLER PUSH1 0x4 DUP3 ADD MSTORE PUSH1 0x24 ADD JUMPDEST PUSH1 0x40 MLOAD DUP1 SWAP2 SUB SWAP1 REVERT JUMPDEST SELFBALANCE PUSH1 0x5 SLOAD PUSH2 0x100 SWAP1 DIV PUSH1 0x1 PUSH1 0x1 PUSH1 0xA0 SHL SUB AND ISZERO DUP1 ISZERO SWAP1 PUSH2 0x480 JUMPI POP PUSH1 0x2 SLOAD PUSH2 0x100 SWAP1 DIV PUSH1 0xFF AND ISZERO ISZERO JUMPDEST ISZERO PUSH2 0x52A JUMPI PUSH1 0x2 SLOAD PUSH1 0x0 SWAP1 PUSH1 0x64 SWAP1 PUSH2 0x4A0 SWAP1 PUSH2 0x100 SWAP1 DIV PUSH1 0xFF AND DUP5 PUSH2 0x2129 JUMP JUMPDEST PUSH2 0x4AA SWAP2 SWAP1 PUSH2 0x2140 JUMP JUMPDEST PUSH1 0x5 SLOAD PUSH1 0x40 MLOAD SWAP2 SWAP3 POP PUSH1 0x0 SWAP2 PUSH2 0x100 SWAP1 SWAP2 DIV PUSH1 0x1 PUSH1 0x1 PUSH1 0xA0 SHL SUB AND SWAP1 DUP4 SWAP1 DUP4 DUP2 DUP2 DUP2 DUP6 DUP8 GAS CALL SWAP3 POP POP POP RETURNDATASIZE DUP1 PUSH1 0x0 DUP2 EQ PUSH2 0x500 JUMPI PUSH1 0x40 MLOAD SWAP2 POP PUSH1 0x1F NOT PUSH1 0x3F RETURNDATASIZE ADD AND DUP3 ADD PUSH1 0x40 MSTORE RETURNDATASIZE DUP3 MSTORE RETURNDATASIZE PUSH1 0x0 PUSH1 0x20 DUP5 ADD RETURNDATACOPY PUSH2 0x505 JUMP JUMPDEST PUSH1 0x60 SWAP2 POP JUMPDEST POP POP SWAP1 POP DUP1 PUSH2 0x527 JUMPI PUSH1 0x40 MLOAD PUSH4 0x1227624B PUSH1 0xE1 SHL DUP2 MSTORE PUSH1 0x4 ADD PUSH1 0x40 MLOAD DUP1 SWAP2 SUB SWAP1 REVERT JUMPDEST POP POP JUMPDEST PUSH1 0x6 SLOAD PUSH1 0x2 SLOAD PUSH1 0x0 SWAP2 PUSH1 0x1 PUSH1 0x1 PUSH1 0xA0 SHL SUB AND SWAP1 PUSH1 0x64 SWAP1 PUSH2 0x553 SWAP1 PUSH3 0x10000 SWAP1 DIV PUSH1 0xFF AND DUP6 PUSH2 0x2129 JUMP JUMPDEST PUSH2 0x55D SWAP2 SWAP1 PUSH2 0x2140 JUMP JUMPDEST PUSH1 0x40 MLOAD PUSH1 0x0 DUP2 DUP2 DUP2 DUP6 DUP8 GAS CALL SWAP3 POP POP POP RETURNDATASIZE DUP1 PUSH1 0x0 DUP2 EQ PUSH2 0x599 JUMPI PUSH1 0x40 MLOAD SWAP2 POP PUSH1 0x1F NOT PUSH1 0x3F RETURNDATASIZE ADD AND DUP3 ADD PUSH1 0x40 MSTORE RETURNDATASIZE DUP3 MSTORE RETURNDATASIZE PUSH1 0x0 PUSH1 0x20 DUP5 ADD RETURNDATACOPY PUSH2 0x59E JUMP JUMPDEST PUSH1 0x60 SWAP2 POP JUMPDEST POP POP SWAP1 POP DUP1 PUSH2 0x5C0 JUMPI PUSH1 0x40 MLOAD PUSH4 0x1227624B PUSH1 0xE1 SHL DUP2 MSTORE PUSH1 0x4 ADD PUSH1 0x40 MLOAD DUP1 SWAP2 SUB SWAP1 REVERT JUMPDEST PUSH1 0x40 MLOAD TIMESTAMP SWAP1 PUSH32 0x5B64F7990EC4169EC43E750EA74CD6E76BBBD2A11D79841622BDDA84BA9D561E SWAP1 PUSH1 0x0 SWAP1 LOG2 POP POP POP PUSH2 0x5F7 PUSH1 0x1 DUP1 SSTORE JUMP JUMPDEST JUMP JUMPDEST PUSH2 0x601 PUSH2 0x167C JUMP JUMPDEST PUSH1 0x9 DUP4 SWAP1 SSTORE PUSH1 0xA DUP3 SWAP1 SSTORE PUSH1 0xB DUP2 SWAP1 SSTORE PUSH1 0x40 DUP1 MLOAD DUP5 DUP2 MSTORE PUSH1 0x20 DUP2 ADD DUP5 SWAP1 MSTORE SWAP1 DUP2 ADD DUP3 SWAP1 MSTORE PUSH32 0xB2EFB0AA6E279553A1E5567EBB495D322192AA43C5FC3073CBA4601D52009AB4 SWAP1 PUSH1 0x60 ADD PUSH1 0x40 MLOAD DUP1 SWAP2 SUB SWAP1 LOG1 POP POP POP JUMP JUMPDEST PUSH1 0x2 DUP1 SLOAD PUSH1 0x5 SLOAD PUSH1 0x0 SWAP3 DUP4 SWAP3 DUP4 SWAP3 DUP4 SWAP3 DUP4 SWAP3 DUP4 SWAP3 DUP4 SWAP3 DUP4 SWAP3 DUP4 SWAP3 DUP4 SWAP3 DUP4 SWAP3 PUSH1 0x1 PUSH1 0x28 SHL DUP2 DIV PUSH1 0xFF SWAP1 DUP2 AND SWAP4 PUSH2 0x100 DUP4 DIV DUP3 AND SWAP4 PUSH3 0x10000 DUP5 DIV DUP4 AND SWAP4 DUP4 DUP2 AND SWAP4 PUSH4 0x1000000 SWAP1 SWAP2 DIV PUSH2 0xFFFF AND SWAP3 AND SWAP1 DUP2 GT ISZERO PUSH2 0x6B4 JUMPI PUSH2 0x6B4 PUSH2 0x1EB9 JUMP JUMPDEST PUSH1 0x2 DUP1 ADD SLOAD PUSH1 0x2 PUSH1 0x1 ADD SLOAD PUSH1 0x2 PUSH1 0x3 ADD PUSH1 0x1 SWAP1 SLOAD SWAP1 PUSH2 0x100 EXP SWAP1 DIV PUSH1 0x1 PUSH1 0x1 PUSH1 0xA0 SHL SUB AND PUSH1 0x2 PUSH1 0x4 ADD PUSH1 0x0 SWAP1 SLOAD SWAP1 PUSH2 0x100 EXP SWAP1 DIV PUSH1 0x1 PUSH1 0x1 PUSH1 0xA0 SHL SUB AND PUSH32 0x0 SWAP11 POP SWAP11 POP SWAP11 POP SWAP11 POP SWAP11 POP SWAP11 POP SWAP11 POP SWAP11 POP SWAP11 POP SWAP11 POP SWAP11 POP SWAP1 SWAP2 SWAP3 SWAP4 SWAP5 SWAP6 SWAP7 SWAP8 SWAP9 SWAP10 SWAP11 JUMP JUMPDEST DUP5 PUSH1 0x9 SLOAD DUP2 LT DUP1 ISZERO PUSH2 0x748 JUMPI POP PUSH1 0xA SLOAD DUP2 GT JUMPDEST ISZERO PUSH2 0x766 JUMPI PUSH1 0x40 MLOAD PUSH4 0x5F7ED2B PUSH1 0xE2 SHL DUP2 MSTORE PUSH1 0x4 ADD PUSH1 0x40 MLOAD DUP1 SWAP2 SUB SWAP1 REVERT JUMPDEST PUSH2 0x76E PUSH2 0x1623 JUMP JUMPDEST PUSH1 0x1 PUSH1 0x1 PUSH1 0xA0 SHL SUB DUP8 AND PUSH2 0x7B5 JUMPI PUSH1 0x40 MLOAD PUSH3 0x461BCD PUSH1 0xE5 SHL DUP2 MSTORE PUSH1 0x20 PUSH1 0x4 DUP3 ADD MSTORE PUSH1 0xE PUSH1 0x24 DUP3 ADD MSTORE PUSH14 0x125B9D985B1A59081DD85B1B195D PUSH1 0x92 SHL PUSH1 0x44 DUP3 ADD MSTORE PUSH1 0x64 ADD PUSH2 0x44E JUMP JUMPDEST PUSH1 0x0 PUSH2 0x86D DUP8 CALLER PUSH1 0x40 MLOAD PUSH14 0x2FAFB1B7B73B32B939B4B7B724B7 PUSH1 0x91 SHL PUSH1 0x20 DUP3 ADD MSTORE PUSH1 0x2E DUP2 ADD SWAP3 SWAP1 SWAP3 MSTORE PUSH12 0xFFFFFFFFFFFFFFFFFFFFFFFF NOT PUSH1 0x60 SWAP2 DUP3 SHL DUP2 AND PUSH1 0x4E DUP5 ADD MSTORE PUSH1 0x62 DUP4 ADD DUP11 SWAP1 MSTORE ADDRESS SWAP1 SWAP2 SHL AND PUSH1 0x82 DUP3 ADD MSTORE PUSH1 0x96 ADD JUMPDEST PUSH1 0x40 DUP1 MLOAD PUSH1 0x1F NOT DUP2 DUP5 SUB ADD DUP2 MSTORE DUP3 DUP3 MSTORE DUP1 MLOAD PUSH1 0x20 SWAP2 DUP3 ADD KECCAK256 PUSH32 0x19457468657265756D205369676E6564204D6573736167653A0A333200000000 DUP5 DUP4 ADD MSTORE PUSH1 0x3C DUP1 DUP6 ADD SWAP2 SWAP1 SWAP2 MSTORE DUP3 MLOAD DUP1 DUP6 SUB SWAP1 SWAP2 ADD DUP2 MSTORE PUSH1 0x5C SWAP1 SWAP4 ADD SWAP1 SWAP2 MSTORE DUP2 MLOAD SWAP2 ADD KECCAK256 SWAP1 JUMP JUMPDEST PUSH1 0x7 SLOAD PUSH1 0x40 DUP1 MLOAD PUSH1 0x0 DUP2 MSTORE PUSH1 0x20 DUP2 ADD DUP1 DUP4 MSTORE DUP5 SWAP1 MSTORE PUSH1 0xFF DUP10 AND SWAP2 DUP2 ADD SWAP2 SWAP1 SWAP2 MSTORE PUSH1 0x60 DUP2 ADD DUP8 SWAP1 MSTORE PUSH1 0x80 DUP2 ADD DUP7 SWAP1 MSTORE SWAP2 SWAP3 POP PUSH1 0x1 PUSH1 0x1 PUSH1 0xA0 SHL SUB AND SWAP1 PUSH1 0x1 SWAP1 PUSH1 0xA0 ADD PUSH1 0x20 PUSH1 0x40 MLOAD PUSH1 0x20 DUP2 SUB SWAP1 DUP1 DUP5 SUB SWAP1 DUP6 GAS STATICCALL ISZERO DUP1 ISZERO PUSH2 0x8D0 JUMPI RETURNDATASIZE PUSH1 0x0 DUP1 RETURNDATACOPY RETURNDATASIZE PUSH1 0x0 REVERT JUMPDEST POP POP POP PUSH1 0x20 PUSH1 0x40 MLOAD SUB MLOAD PUSH1 0x1 PUSH1 0x1 PUSH1 0xA0 SHL SUB AND EQ PUSH2 0x901 JUMPI PUSH1 0x40 MLOAD PUSH4 0x29E8166F PUSH1 0xE2 SHL DUP2 MSTORE PUSH1 0x4 ADD PUSH1 0x40 MLOAD DUP1 SWAP2 SUB SWAP1 REVERT JUMPDEST PUSH1 0x0 DUP2 DUP2 MSTORE PUSH1 0x8 PUSH1 0x20 MSTORE PUSH1 0x40 SWAP1 KECCAK256 SLOAD PUSH1 0xFF AND ISZERO PUSH2 0x931 JUMPI PUSH1 0x40 MLOAD PUSH4 0x333A6A09 PUSH1 0xE2 SHL DUP2 MSTORE PUSH1 0x4 ADD PUSH1 0x40 MLOAD DUP1 SWAP2 SUB SWAP1 REVERT JUMPDEST PUSH1 0x0 DUP2 DUP2 MSTORE PUSH1 0x8 PUSH1 0x20 SWAP1 DUP2 MSTORE PUSH1 0x40 SWAP2 DUP3 SWAP1 KECCAK256 DUP1 SLOAD PUSH1 0xFF NOT AND PUSH1 0x1 OR SWAP1 SSTORE PUSH1 0xB SLOAD DUP3 MLOAD PUSH4 0x18160DDD PUSH1 0xE0 SHL DUP2 MSTORE SWAP3 MLOAD SWAP1 SWAP3 DUP11 SWAP3 PUSH1 0x1 PUSH1 0x1 PUSH1 0xA0 SHL SUB PUSH32 0x0 AND SWAP3 PUSH4 0x18160DDD SWAP3 PUSH1 0x4 DUP1 DUP3 ADD SWAP4 SWAP3 SWAP2 DUP3 SWAP1 SUB ADD DUP2 DUP7 GAS STATICCALL ISZERO DUP1 ISZERO PUSH2 0x9B5 JUMPI RETURNDATASIZE PUSH1 0x0 DUP1 RETURNDATACOPY RETURNDATASIZE PUSH1 0x0 REVERT JUMPDEST POP POP POP POP PUSH1 0x40 MLOAD RETURNDATASIZE PUSH1 0x1F NOT PUSH1 0x1F DUP3 ADD AND DUP3 ADD DUP1 PUSH1 0x40 MSTORE POP DUP2 ADD SWAP1 PUSH2 0x9D9 SWAP2 SWAP1 PUSH2 0x2162 JUMP JUMPDEST PUSH2 0x9E3 SWAP2 SWAP1 PUSH2 0x217B JUMP JUMPDEST GT ISZERO PUSH2 0xA22 JUMPI PUSH1 0x40 MLOAD PUSH3 0x461BCD PUSH1 0xE5 SHL DUP2 MSTORE PUSH1 0x20 PUSH1 0x4 DUP3 ADD MSTORE PUSH1 0xE PUSH1 0x24 DUP3 ADD MSTORE PUSH14 0x125B9D985B1A5908105B5BDD5B9D PUSH1 0x92 SHL PUSH1 0x44 DUP3 ADD MSTORE PUSH1 0x64 ADD PUSH2 0x44E JUMP JUMPDEST PUSH1 0x2 SLOAD PUSH1 0x1 PUSH1 0x28 SHL SWAP1 DIV PUSH1 0xFF AND ISZERO PUSH2 0xDA4 JUMPI PUSH1 0x2 PUSH1 0x5 SLOAD PUSH1 0xFF AND PUSH1 0x2 DUP2 GT ISZERO PUSH2 0xA4D JUMPI PUSH2 0xA4D PUSH2 0x1EB9 JUMP JUMPDEST SUB PUSH2 0xB76 JUMPI PUSH2 0xA5A PUSH2 0x16D6 JUMP JUMPDEST PUSH1 0x0 PUSH32 0x0 PUSH1 0x1 PUSH1 0x1 PUSH1 0xA0 SHL SUB AND PUSH32 0x40C10F19C047AE7DFA66D6312B683D2EA3DFBCB4159E96B967C5F4B0A86F2842 DUP11 DUP11 PUSH1 0x40 MLOAD PUSH1 0x24 ADD PUSH2 0xACE SWAP3 SWAP2 SWAP1 PUSH1 0x1 PUSH1 0x1 PUSH1 0xA0 SHL SUB SWAP3 SWAP1 SWAP3 AND DUP3 MSTORE PUSH1 0x20 DUP3 ADD MSTORE PUSH1 0x40 ADD SWAP1 JUMP JUMPDEST PUSH1 0x40 DUP1 MLOAD PUSH1 0x1F NOT DUP2 DUP5 SUB ADD DUP2 MSTORE SWAP2 DUP2 MSTORE PUSH1 0x20 DUP3 ADD DUP1 MLOAD PUSH1 0x1 PUSH1 0x1 PUSH1 0xE0 SHL SUB AND PUSH1 0x1 PUSH1 0x1 PUSH1 0xE0 SHL SUB NOT SWAP1 SWAP5 AND SWAP4 SWAP1 SWAP4 OR SWAP1 SWAP3 MSTORE SWAP1 MLOAD PUSH2 0xB0C SWAP2 SWAP1 PUSH2 0x218E JUMP JUMPDEST PUSH1 0x0 PUSH1 0x40 MLOAD DUP1 DUP4 SUB DUP2 PUSH1 0x0 DUP7 GAS CALL SWAP2 POP POP RETURNDATASIZE DUP1 PUSH1 0x0 DUP2 EQ PUSH2 0xB49 JUMPI PUSH1 0x40 MLOAD SWAP2 POP PUSH1 0x1F NOT PUSH1 0x3F RETURNDATASIZE ADD AND DUP3 ADD PUSH1 0x40 MSTORE RETURNDATASIZE DUP3 MSTORE RETURNDATASIZE PUSH1 0x0 PUSH1 0x20 DUP5 ADD RETURNDATACOPY PUSH2 0xB4E JUMP JUMPDEST PUSH1 0x60 SWAP2 POP JUMPDEST POP POP SWAP1 POP DUP1 PUSH2 0xB70 JUMPI PUSH1 0x40 MLOAD PUSH4 0xE13B081 PUSH1 0xE2 SHL DUP2 MSTORE PUSH1 0x4 ADD PUSH1 0x40 MLOAD DUP1 SWAP2 SUB SWAP1 REVERT JUMPDEST POP PUSH2 0xEBC JUMP JUMPDEST PUSH1 0x40 DUP1 MLOAD ADDRESS PUSH1 0x24 DUP3 ADD MSTORE PUSH1 0x44 DUP1 DUP3 ADD DUP11 SWAP1 MSTORE DUP3 MLOAD DUP1 DUP4 SUB SWAP1 SWAP2 ADD DUP2 MSTORE PUSH1 0x64 SWAP1 SWAP2 ADD DUP3 MSTORE PUSH1 0x20 DUP2 ADD DUP1 MLOAD PUSH1 0x1 PUSH1 0x1 PUSH1 0xE0 SHL SUB AND PUSH4 0x40C10F19 PUSH1 0xE0 SHL OR SWAP1 MSTORE SWAP1 MLOAD PUSH1 0x0 SWAP2 PUSH1 0x1 PUSH1 0x1 PUSH1 0xA0 SHL SUB PUSH32 0x0 AND SWAP2 PUSH2 0xBED SWAP2 SWAP1 PUSH2 0x218E JUMP JUMPDEST PUSH1 0x0 PUSH1 0x40 MLOAD DUP1 DUP4 SUB DUP2 PUSH1 0x0 DUP7 GAS CALL SWAP2 POP POP RETURNDATASIZE DUP1 PUSH1 0x0 DUP2 EQ PUSH2 0xC2A JUMPI PUSH1 0x40 MLOAD SWAP2 POP PUSH1 0x1F NOT PUSH1 0x3F RETURNDATASIZE ADD AND DUP3 ADD PUSH1 0x40 MSTORE RETURNDATASIZE DUP3 MSTORE RETURNDATASIZE PUSH1 0x0 PUSH1 0x20 DUP5 ADD RETURNDATACOPY PUSH2 0xC2F JUMP JUMPDEST PUSH1 0x60 SWAP2 POP JUMPDEST POP POP SWAP1 POP DUP1 PUSH2 0xC51 JUMPI PUSH1 0x40 MLOAD PUSH4 0xCB57CF55 PUSH1 0xE0 SHL DUP2 MSTORE PUSH1 0x4 ADD PUSH1 0x40 MLOAD DUP1 SWAP2 SUB SWAP1 REVERT JUMPDEST PUSH2 0xC5A DUP9 PUSH2 0x1705 JUMP JUMPDEST PUSH2 0xC64 SWAP1 DUP10 PUSH2 0x21BD JUMP JUMPDEST SWAP8 POP DUP8 PUSH1 0x0 SUB PUSH2 0xC87 JUMPI PUSH1 0x40 MLOAD PUSH4 0x26C8B495 PUSH1 0xE2 SHL DUP2 MSTORE PUSH1 0x4 ADD PUSH1 0x40 MLOAD DUP1 SWAP2 SUB SWAP1 REVERT JUMPDEST PUSH1 0x0 PUSH32 0x0 PUSH1 0x1 PUSH1 0x1 PUSH1 0xA0 SHL SUB AND PUSH32 0xA9059CBB2AB09EB219583F4A59A5D0623ADE346D962BCD4E46B11DA047C9049B DUP12 DUP12 PUSH1 0x40 MLOAD PUSH1 0x24 ADD PUSH2 0xCFB SWAP3 SWAP2 SWAP1 PUSH1 0x1 PUSH1 0x1 PUSH1 0xA0 SHL SUB SWAP3 SWAP1 SWAP3 AND DUP3 MSTORE PUSH1 0x20 DUP3 ADD MSTORE PUSH1 0x40 ADD SWAP1 JUMP JUMPDEST PUSH1 0x40 DUP1 MLOAD PUSH1 0x1F NOT DUP2 DUP5 SUB ADD DUP2 MSTORE SWAP2 DUP2 MSTORE PUSH1 0x20 DUP3 ADD DUP1 MLOAD PUSH1 0x1 PUSH1 0x1 PUSH1 0xE0 SHL SUB AND PUSH1 0x1 PUSH1 0x1 PUSH1 0xE0 SHL SUB NOT SWAP1 SWAP5 AND SWAP4 SWAP1 SWAP4 OR SWAP1 SWAP3 MSTORE SWAP1 MLOAD PUSH2 0xD39 SWAP2 SWAP1 PUSH2 0x218E JUMP JUMPDEST PUSH1 0x0 PUSH1 0x40 MLOAD DUP1 DUP4 SUB DUP2 PUSH1 0x0 DUP7 GAS CALL SWAP2 POP POP RETURNDATASIZE DUP1 PUSH1 0x0 DUP2 EQ PUSH2 0xD76 JUMPI PUSH1 0x40 MLOAD SWAP2 POP PUSH1 0x1F NOT PUSH1 0x3F RETURNDATASIZE ADD AND DUP3 ADD PUSH1 0x40 MSTORE RETURNDATASIZE DUP3 MSTORE RETURNDATASIZE PUSH1 0x0 PUSH1 0x20 DUP5 ADD RETURNDATACOPY PUSH2 0xD7B JUMP JUMPDEST PUSH1 0x60 SWAP2 POP JUMPDEST POP POP SWAP1 POP DUP1 PUSH2 0xD9D JUMPI PUSH1 0x40 MLOAD PUSH4 0xA7CE827 PUSH1 0xE3 SHL DUP2 MSTORE PUSH1 0x4 ADD PUSH1 0x40 MLOAD DUP1 SWAP2 SUB SWAP1 REVERT JUMPDEST POP POP PUSH2 0xEBC JUMP JUMPDEST PUSH1 0x0 PUSH32 0x0 PUSH1 0x1 PUSH1 0x1 PUSH1 0xA0 SHL SUB AND PUSH32 0x40C10F19C047AE7DFA66D6312B683D2EA3DFBCB4159E96B967C5F4B0A86F2842 DUP11 DUP11 PUSH1 0x40 MLOAD PUSH1 0x24 ADD PUSH2 0xE18 SWAP3 SWAP2 SWAP1 PUSH1 0x1 PUSH1 0x1 PUSH1 0xA0 SHL SUB SWAP3 SWAP1 SWAP3 AND DUP3 MSTORE PUSH1 0x20 DUP3 ADD MSTORE PUSH1 0x40 ADD SWAP1 JUMP JUMPDEST PUSH1 0x40 DUP1 MLOAD PUSH1 0x1F NOT DUP2 DUP5 SUB ADD DUP2 MSTORE SWAP2 DUP2 MSTORE PUSH1 0x20 DUP3 ADD DUP1 MLOAD PUSH1 0x1 PUSH1 0x1 PUSH1 0xE0 SHL SUB AND PUSH1 0x1 PUSH1 0x1 PUSH1 0xE0 SHL SUB NOT SWAP1 SWAP5 AND SWAP4 SWAP1 SWAP4 OR SWAP1 SWAP3 MSTORE SWAP1 MLOAD PUSH2 0xE56 SWAP2 SWAP1 PUSH2 0x218E JUMP JUMPDEST PUSH1 0x0 PUSH1 0x40 MLOAD DUP1 DUP4 SUB DUP2 PUSH1 0x0 DUP7 GAS CALL SWAP2 POP POP RETURNDATASIZE DUP1 PUSH1 0x0 DUP2 EQ PUSH2 0xE93 JUMPI PUSH1 0x40 MLOAD SWAP2 POP PUSH1 0x1F NOT PUSH1 0x3F RETURNDATASIZE ADD AND DUP3 ADD PUSH1 0x40 MSTORE RETURNDATASIZE DUP3 MSTORE RETURNDATASIZE PUSH1 0x0 PUSH1 0x20 DUP5 ADD RETURNDATACOPY PUSH2 0xE98 JUMP JUMPDEST PUSH1 0x60 SWAP2 POP JUMPDEST POP POP SWAP1 POP DUP1 PUSH2 0xEBA JUMPI PUSH1 0x40 MLOAD PUSH4 0xE13B081 PUSH1 0xE2 SHL DUP2 MSTORE PUSH1 0x4 ADD PUSH1 0x40 MLOAD DUP1 SWAP2 SUB SWAP1 REVERT JUMPDEST POP JUMPDEST PUSH1 0x40 DUP1 MLOAD DUP8 DUP2 MSTORE PUSH1 0x20 DUP2 ADD DUP10 SWAP1 MSTORE PUSH1 0x1 PUSH1 0x1 PUSH1 0xA0 SHL SUB DUP11 AND SWAP2 PUSH32 0x62A9B3E6446AB559D6B82C4F02CC923CD3B4E47444EF86446DAB81A4D781C5AF SWAP2 ADD PUSH1 0x40 MLOAD DUP1 SWAP2 SUB SWAP1 LOG2 POP PUSH2 0xF0A PUSH1 0x1 DUP1 SSTORE JUMP JUMPDEST POP POP POP POP POP POP POP JUMP JUMPDEST PUSH2 0xF1B PUSH2 0x167C JUMP JUMPDEST PUSH2 0x5F7 PUSH1 0x0 PUSH2 0x1973 JUMP JUMPDEST PUSH2 0xF2D PUSH2 0x167C JUMP JUMPDEST PUSH1 0x1 PUSH1 0x1 PUSH1 0xA0 SHL SUB DUP2 AND PUSH2 0xF54 JUMPI PUSH1 0x40 MLOAD PUSH4 0xD92E233D PUSH1 0xE0 SHL DUP2 MSTORE PUSH1 0x4 ADD PUSH1 0x40 MLOAD DUP1 SWAP2 SUB SWAP1 REVERT JUMPDEST PUSH1 0x6 SLOAD PUSH1 0x40 MLOAD PUSH1 0x1 PUSH1 0x1 PUSH1 0xA0 SHL SUB DUP1 DUP5 AND SWAP3 AND SWAP1 PUSH32 0x62904549814F5511A5D36A62611A6E2FE1D2C29B6DE74DE25D95395E0A7D009B SWAP1 PUSH1 0x0 SWAP1 LOG3 PUSH1 0x6 DUP1 SLOAD PUSH1 0x1 PUSH1 0x1 PUSH1 0xA0 SHL SUB NOT AND PUSH1 0x1 PUSH1 0x1 PUSH1 0xA0 SHL SUB SWAP3 SWAP1 SWAP3 AND SWAP2 SWAP1 SWAP2 OR SWAP1 SSTORE JUMP JUMPDEST PUSH2 0xFB8 PUSH2 0x167C JUMP JUMPDEST PUSH1 0x1 PUSH1 0x1 PUSH1 0xA0 SHL SUB DUP2 AND PUSH2 0xFDF JUMPI PUSH1 0x40 MLOAD PUSH4 0xD92E233D PUSH1 0xE0 SHL DUP2 MSTORE PUSH1 0x4 ADD PUSH1 0x40 MLOAD DUP1 SWAP2 SUB SWAP1 REVERT JUMPDEST PUSH1 0x5 SLOAD PUSH1 0x40 MLOAD PUSH1 0x1 PUSH1 0x1 PUSH1 0xA0 SHL SUB DUP1 DUP5 AND SWAP3 PUSH2 0x100 SWAP1 DIV AND SWAP1 PUSH32 0x62904549814F5511A5D36A62611A6E2FE1D2C29B6DE74DE25D95395E0A7D009B SWAP1 PUSH1 0x0 SWAP1 LOG3 PUSH1 0x5 DUP1 SLOAD PUSH1 0x1 PUSH1 0x1 PUSH1 0xA0 SHL SUB SWAP1 SWAP3 AND PUSH2 0x100 MUL PUSH2 0x100 PUSH1 0x1 PUSH1 0xA8 SHL SUB NOT SWAP1 SWAP3 AND SWAP2 SWAP1 SWAP2 OR SWAP1 SSTORE JUMP JUMPDEST DUP5 PUSH1 0x9 SLOAD DUP2 LT DUP1 ISZERO PUSH2 0x1059 JUMPI POP PUSH1 0xA SLOAD DUP2 GT JUMPDEST ISZERO PUSH2 0x1077 JUMPI PUSH1 0x40 MLOAD PUSH4 0x5F7ED2B PUSH1 0xE2 SHL DUP2 MSTORE PUSH1 0x4 ADD PUSH1 0x40 MLOAD DUP1 SWAP2 SUB SWAP1 REVERT JUMPDEST PUSH2 0x107F PUSH2 0x1623 JUMP JUMPDEST DUP6 PUSH1 0x1 PUSH1 0x1 PUSH1 0xA0 SHL SUB PUSH32 0x0 AND PUSH4 0x70A08231 CALLER PUSH1 0x40 MLOAD PUSH1 0x1 PUSH1 0x1 PUSH1 0xE0 SHL SUB NOT PUSH1 0xE0 DUP5 SWAP1 SHL AND DUP2 MSTORE PUSH1 0x1 PUSH1 0x1 PUSH1 0xA0 SHL SUB SWAP1 SWAP2 AND PUSH1 0x4 DUP3 ADD MSTORE PUSH1 0x24 ADD PUSH1 0x20 PUSH1 0x40 MLOAD DUP1 DUP4 SUB DUP2 DUP7 GAS STATICCALL ISZERO DUP1 ISZERO PUSH2 0x10F4 JUMPI RETURNDATASIZE PUSH1 0x0 DUP1 RETURNDATACOPY RETURNDATASIZE PUSH1 0x0 REVERT JUMPDEST POP POP POP POP PUSH1 0x40 MLOAD RETURNDATASIZE PUSH1 0x1F NOT PUSH1 0x1F DUP3 ADD AND DUP3 ADD DUP1 PUSH1 0x40 MSTORE POP DUP2 ADD SWAP1 PUSH2 0x1118 SWAP2 SWAP1 PUSH2 0x2162 JUMP JUMPDEST LT ISZERO PUSH2 0x1137 JUMPI PUSH1 0x40 MLOAD PUSH4 0x569D45CF PUSH1 0xE1 SHL DUP2 MSTORE PUSH1 0x4 ADD PUSH1 0x40 MLOAD DUP1 SWAP2 SUB SWAP1 REVERT JUMPDEST PUSH1 0x0 PUSH2 0x1194 DUP8 CALLER PUSH1 0x40 MLOAD PUSH15 0x17D7D8DBDB9D995C9CDA5BDB93DD5D PUSH1 0x8A SHL PUSH1 0x20 DUP3 ADD MSTORE PUSH1 0x2F DUP2 ADD SWAP3 SWAP1 SWAP3 MSTORE PUSH12 0xFFFFFFFFFFFFFFFFFFFFFFFF NOT PUSH1 0x60 SWAP2 DUP3 SHL DUP2 AND PUSH1 0x4F DUP5 ADD MSTORE PUSH1 0x63 DUP4 ADD DUP11 SWAP1 MSTORE ADDRESS SWAP1 SWAP2 SHL AND PUSH1 0x83 DUP3 ADD MSTORE PUSH1 0x97 ADD PUSH2 0x80D JUMP JUMPDEST PUSH1 0x7 SLOAD PUSH1 0x40 DUP1 MLOAD PUSH1 0x0 DUP2 MSTORE PUSH1 0x20 DUP2 ADD DUP1 DUP4 MSTORE DUP5 SWAP1 MSTORE PUSH1 0xFF DUP10 AND SWAP2 DUP2 ADD SWAP2 SWAP1 SWAP2 MSTORE PUSH1 0x60 DUP2 ADD DUP8 SWAP1 MSTORE PUSH1 0x80 DUP2 ADD DUP7 SWAP1 MSTORE SWAP2 SWAP3 POP PUSH1 0x1 PUSH1 0x1 PUSH1 0xA0 SHL SUB AND SWAP1 PUSH1 0x1 SWAP1 PUSH1 0xA0 ADD PUSH1 0x20 PUSH1 0x40 MLOAD PUSH1 0x20 DUP2 SUB SWAP1 DUP1 DUP5 SUB SWAP1 DUP6 GAS STATICCALL ISZERO DUP1 ISZERO PUSH2 0x11F7 JUMPI RETURNDATASIZE PUSH1 0x0 DUP1 RETURNDATACOPY RETURNDATASIZE PUSH1 0x0 REVERT JUMPDEST POP POP POP PUSH1 0x20 PUSH1 0x40 MLOAD SUB MLOAD PUSH1 0x1 PUSH1 0x1 PUSH1 0xA0 SHL SUB AND EQ PUSH2 0x1228 JUMPI PUSH1 0x40 MLOAD PUSH4 0x29E8166F PUSH1 0xE2 SHL DUP2 MSTORE PUSH1 0x4 ADD PUSH1 0x40 MLOAD DUP1 SWAP2 SUB SWAP1 REVERT JUMPDEST PUSH1 0x0 DUP2 DUP2 MSTORE PUSH1 0x8 PUSH1 0x20 MSTORE PUSH1 0x40 SWAP1 KECCAK256 SLOAD PUSH1 0xFF AND ISZERO PUSH2 0x1258 JUMPI PUSH1 0x40 MLOAD PUSH4 0x333A6A09 PUSH1 0xE2 SHL DUP2 MSTORE PUSH1 0x4 ADD PUSH1 0x40 MLOAD DUP1 SWAP2 SUB SWAP1 REVERT JUMPDEST PUSH1 0x0 DUP2 DUP2 MSTORE PUSH1 0x8 PUSH1 0x20 MSTORE PUSH1 0x40 SWAP1 KECCAK256 DUP1 SLOAD PUSH1 0xFF NOT AND PUSH1 0x1 OR SWAP1 SSTORE PUSH1 0x2 SLOAD PUSH1 0x1 PUSH1 0x28 SHL SWAP1 DIV PUSH1 0xFF AND ISZERO PUSH2 0x12C4 JUMPI PUSH1 0x2 PUSH1 0x5 SLOAD PUSH1 0xFF AND PUSH1 0x2 DUP2 GT ISZERO PUSH2 0x129C JUMPI PUSH2 0x129C PUSH2 0x1EB9 JUMP JUMPDEST SUB PUSH2 0x12AE JUMPI PUSH2 0x12A9 PUSH2 0x16D6 JUMP JUMPDEST PUSH2 0x12C4 JUMP JUMPDEST PUSH2 0x12B7 DUP8 PUSH2 0x19C3 JUMP JUMPDEST PUSH2 0x12C1 SWAP1 DUP9 PUSH2 0x21BD JUMP JUMPDEST SWAP7 POP JUMPDEST PUSH1 0x40 DUP1 MLOAD CALLER PUSH1 0x24 DUP3 ADD MSTORE PUSH1 0x44 DUP1 DUP3 ADD DUP11 SWAP1 MSTORE DUP3 MLOAD DUP1 DUP4 SUB SWAP1 SWAP2 ADD DUP2 MSTORE PUSH1 0x64 SWAP1 SWAP2 ADD DUP3 MSTORE PUSH1 0x20 DUP2 ADD DUP1 MLOAD PUSH1 0x1 PUSH1 0x1 PUSH1 0xE0 SHL SUB AND PUSH4 0x79CC679 PUSH1 0xE4 SHL OR SWAP1 MSTORE SWAP1 MLOAD PUSH1 0x0 SWAP2 PUSH1 0x1 PUSH1 0x1 PUSH1 0xA0 SHL SUB PUSH32 0x0 AND SWAP2 PUSH2 0x133B SWAP2 SWAP1 PUSH2 0x218E JUMP JUMPDEST PUSH1 0x0 PUSH1 0x40 MLOAD DUP1 DUP4 SUB DUP2 PUSH1 0x0 DUP7 GAS CALL SWAP2 POP POP RETURNDATASIZE DUP1 PUSH1 0x0 DUP2 EQ PUSH2 0x1378 JUMPI PUSH1 0x40 MLOAD SWAP2 POP PUSH1 0x1F NOT PUSH1 0x3F RETURNDATASIZE ADD AND DUP3 ADD PUSH1 0x40 MSTORE RETURNDATASIZE DUP3 MSTORE RETURNDATASIZE PUSH1 0x0 PUSH1 0x20 DUP5 ADD RETURNDATACOPY PUSH2 0x137D JUMP JUMPDEST PUSH1 0x60 SWAP2 POP JUMPDEST POP POP SWAP1 POP DUP1 PUSH2 0x139F JUMPI PUSH1 0x40 MLOAD PUSH4 0xE13B081 PUSH1 0xE2 SHL DUP2 MSTORE PUSH1 0x4 ADD PUSH1 0x40 MLOAD DUP1 SWAP2 SUB SWAP1 REVERT JUMPDEST PUSH1 0x40 DUP1 MLOAD DUP9 DUP2 MSTORE PUSH1 0x20 DUP2 ADD DUP11 SWAP1 MSTORE CALLER SWAP2 PUSH32 0xB999B06746A947F1958636B9B9377AE814FE578413DFFFD4D3A7A96196FE02FC SWAP2 ADD PUSH1 0x40 MLOAD DUP1 SWAP2 SUB SWAP1 LOG2 POP POP PUSH2 0x13E5 PUSH1 0x1 DUP1 SSTORE JUMP JUMPDEST POP POP POP POP POP POP JUMP JUMPDEST PUSH2 0x13F5 PUSH2 0x167C JUMP JUMPDEST PUSH1 0x2 DUP1 SLOAD PUSH6 0xFF0000000000 NOT AND SWAP1 SSTORE JUMP JUMPDEST PUSH2 0x140E PUSH2 0x167C JUMP JUMPDEST DUP9 DUP9 PUSH1 0x64 PUSH2 0x141C DUP3 DUP5 PUSH2 0x21D0 JUMP JUMPDEST PUSH1 0xFF AND EQ PUSH2 0x144A JUMPI PUSH1 0x40 MLOAD PUSH4 0x8EFE3FD5 PUSH1 0xE0 SHL DUP2 MSTORE PUSH1 0xFF DUP1 DUP5 AND PUSH1 0x4 DUP4 ADD MSTORE DUP3 AND PUSH1 0x24 DUP3 ADD MSTORE PUSH1 0x44 ADD PUSH2 0x44E JUMP JUMPDEST PUSH1 0x2 SLOAD PUSH1 0x1 PUSH1 0x28 SHL SWAP1 DIV PUSH1 0xFF AND PUSH2 0x1471 JUMPI PUSH1 0x2 DUP1 SLOAD PUSH6 0xFF0000000000 NOT AND PUSH1 0x1 PUSH1 0x28 SHL OR SWAP1 SSTORE JUMPDEST PUSH2 0x147B DUP10 DUP10 PUSH2 0x1BA5 JUMP JUMPDEST PUSH2 0x148C DUP10 DUP13 DUP13 DUP12 DUP12 DUP12 DUP12 DUP12 DUP12 PUSH2 0x1BD1 JUMP JUMPDEST PUSH1 0x40 DUP1 MLOAD DUP14 ISZERO ISZERO DUP2 MSTORE PUSH1 0xFF DUP12 DUP2 AND PUSH1 0x20 DUP4 ADD MSTORE DUP14 DUP2 AND DUP3 DUP5 ADD MSTORE DUP13 AND PUSH1 0x60 DUP3 ADD MSTORE PUSH2 0xFFFF DUP11 AND PUSH1 0x80 DUP3 ADD MSTORE PUSH1 0xA0 DUP2 ADD DUP10 SWAP1 MSTORE PUSH1 0xC0 DUP2 ADD DUP9 SWAP1 MSTORE PUSH1 0xE0 DUP2 ADD DUP8 SWAP1 MSTORE PUSH1 0x1 PUSH1 0x1 PUSH1 0xA0 SHL SUB DUP7 DUP2 AND PUSH2 0x100 DUP4 ADD MSTORE DUP6 AND PUSH2 0x120 DUP3 ADD MSTORE TIMESTAMP PUSH2 0x140 DUP3 ADD MSTORE SWAP1 MLOAD PUSH32 0xD1B739630A105F793291C4C7DA87C157FEFCEF1D41997E1980CA9E689BED16A7 SWAP2 DUP2 SWAP1 SUB PUSH2 0x160 ADD SWAP1 LOG1 POP POP POP POP POP POP POP POP POP POP POP POP JUMP JUMPDEST PUSH2 0x152F PUSH2 0x167C JUMP JUMPDEST PUSH1 0x1 PUSH1 0x1 PUSH1 0xA0 SHL SUB DUP2 AND PUSH2 0x1556 JUMPI PUSH1 0x40 MLOAD PUSH4 0xD92E233D PUSH1 0xE0 SHL DUP2 MSTORE PUSH1 0x4 ADD PUSH1 0x40 MLOAD DUP1 SWAP2 SUB SWAP1 REVERT JUMPDEST PUSH1 0x7 DUP1 SLOAD PUSH1 0x1 PUSH1 0x1 PUSH1 0xA0 SHL SUB NOT AND PUSH1 0x1 PUSH1 0x1 PUSH1 0xA0 SHL SUB DUP4 AND SWAP1 DUP2 OR SWAP1 SWAP2 SSTORE PUSH1 0x40 MLOAD SWAP1 DUP2 MSTORE PUSH32 0x8F53E6A9FBC3949BC0B9266BBE1927F0B282A34D92876CCBE188C24D17C6CBB SWAP1 PUSH1 0x20 ADD PUSH1 0x40 MLOAD DUP1 SWAP2 SUB SWAP1 LOG1 POP JUMP JUMPDEST PUSH2 0x15B2 PUSH2 0x167C JUMP JUMPDEST PUSH1 0x1 PUSH1 0x1 PUSH1 0xA0 SHL SUB DUP2 AND PUSH2 0x1617 JUMPI PUSH1 0x40 MLOAD PUSH3 0x461BCD PUSH1 0xE5 SHL DUP2 MSTORE PUSH1 0x20 PUSH1 0x4 DUP3 ADD MSTORE PUSH1 0x26 PUSH1 0x24 DUP3 ADD MSTORE PUSH32 0x4F776E61626C653A206E6577206F776E657220697320746865207A65726F2061 PUSH1 0x44 DUP3 ADD MSTORE PUSH6 0x646472657373 PUSH1 0xD0 SHL PUSH1 0x64 DUP3 ADD MSTORE PUSH1 0x84 ADD PUSH2 0x44E JUMP JUMPDEST PUSH2 0x1620 DUP2 PUSH2 0x1973 JUMP JUMPDEST POP JUMP JUMPDEST PUSH1 0x2 PUSH1 0x1 SLOAD SUB PUSH2 0x1675 JUMPI PUSH1 0x40 MLOAD PUSH3 0x461BCD PUSH1 0xE5 SHL DUP2 MSTORE PUSH1 0x20 PUSH1 0x4 DUP3 ADD MSTORE PUSH1 0x1F PUSH1 0x24 DUP3 ADD MSTORE PUSH32 0x5265656E7472616E637947756172643A207265656E7472616E742063616C6C00 PUSH1 0x44 DUP3 ADD MSTORE PUSH1 0x64 ADD PUSH2 0x44E JUMP JUMPDEST PUSH1 0x2 PUSH1 0x1 SSTORE JUMP JUMPDEST PUSH1 0x0 SLOAD PUSH1 0x1 PUSH1 0x1 PUSH1 0xA0 SHL SUB AND CALLER EQ PUSH2 0x5F7 JUMPI PUSH1 0x40 MLOAD PUSH3 0x461BCD PUSH1 0xE5 SHL DUP2 MSTORE PUSH1 0x20 PUSH1 0x4 DUP3 ADD DUP2 SWAP1 MSTORE PUSH1 0x24 DUP3 ADD MSTORE PUSH32 0x4F776E61626C653A2063616C6C6572206973206E6F7420746865206F776E6572 PUSH1 0x44 DUP3 ADD MSTORE PUSH1 0x64 ADD PUSH2 0x44E JUMP JUMPDEST PUSH1 0x3 SLOAD CALLVALUE EQ PUSH2 0x5F7 JUMPI PUSH1 0x3 SLOAD PUSH1 0x40 MLOAD PUSH4 0xF7442319 PUSH1 0xE0 SHL DUP2 MSTORE CALLVALUE PUSH1 0x4 DUP3 ADD MSTORE PUSH1 0x24 DUP2 ADD SWAP2 SWAP1 SWAP2 MSTORE PUSH1 0x44 ADD PUSH2 0x44E JUMP JUMPDEST PUSH1 0x0 DUP1 PUSH1 0x0 PUSH2 0x1713 DUP5 PUSH2 0x1D4A JUMP JUMPDEST PUSH1 0x5 SLOAD SWAP2 SWAP4 POP SWAP2 POP PUSH2 0x100 SWAP1 DIV PUSH1 0x1 PUSH1 0x1 PUSH1 0xA0 SHL SUB AND ISZERO DUP1 ISZERO SWAP1 PUSH2 0x1737 JUMPI POP DUP2 DUP2 EQ ISZERO JUMPDEST ISZERO PUSH2 0x1860 JUMPI PUSH1 0x5 SLOAD PUSH1 0x0 SWAP1 PUSH1 0x1 PUSH1 0x1 PUSH1 0xA0 SHL SUB PUSH32 0x0 DUP2 AND SWAP2 PUSH32 0xA9059CBB2AB09EB219583F4A59A5D0623ADE346D962BCD4E46B11DA047C9049B SWAP2 PUSH2 0x100 SWAP1 SWAP2 DIV AND PUSH2 0x17A1 DUP7 DUP7 PUSH2 0x21BD JUMP JUMPDEST PUSH1 0x40 MLOAD PUSH1 0x1 PUSH1 0x1 PUSH1 0xA0 SHL SUB SWAP1 SWAP3 AND PUSH1 0x24 DUP4 ADD MSTORE PUSH1 0x44 DUP3 ADD MSTORE PUSH1 0x64 ADD PUSH1 0x40 DUP1 MLOAD PUSH1 0x1F NOT DUP2 DUP5 SUB ADD DUP2 MSTORE SWAP2 DUP2 MSTORE PUSH1 0x20 DUP3 ADD DUP1 MLOAD PUSH1 0x1 PUSH1 0x1 PUSH1 0xE0 SHL SUB AND PUSH1 0x1 PUSH1 0x1 PUSH1 0xE0 SHL SUB NOT SWAP1 SWAP5 AND SWAP4 SWAP1 SWAP4 OR SWAP1 SWAP3 MSTORE SWAP1 MLOAD PUSH2 0x17FA SWAP2 SWAP1 PUSH2 0x218E JUMP JUMPDEST PUSH1 0x0 PUSH1 0x40 MLOAD DUP1 DUP4 SUB DUP2 PUSH1 0x0 DUP7 GAS CALL SWAP2 POP POP RETURNDATASIZE DUP1 PUSH1 0x0 DUP2 EQ PUSH2 0x1837 JUMPI PUSH1 0x40 MLOAD SWAP2 POP PUSH1 0x1F NOT PUSH1 0x3F RETURNDATASIZE ADD AND DUP3 ADD PUSH1 0x40 MSTORE RETURNDATASIZE DUP3 MSTORE RETURNDATASIZE PUSH1 0x0 PUSH1 0x20 DUP5 ADD RETURNDATACOPY PUSH2 0x183C JUMP JUMPDEST PUSH1 0x60 SWAP2 POP JUMPDEST POP POP SWAP1 POP DUP1 PUSH2 0x185E JUMPI PUSH1 0x40 MLOAD PUSH4 0xD291274F PUSH1 0xE0 SHL DUP2 MSTORE PUSH1 0x4 ADD PUSH1 0x40 MLOAD DUP1 SWAP2 SUB SWAP1 REVERT JUMPDEST POP JUMPDEST PUSH1 0x6 SLOAD PUSH1 0x40 MLOAD PUSH1 0x1 PUSH1 0x1 PUSH1 0xA0 SHL SUB SWAP2 DUP3 AND PUSH1 0x24 DUP3 ADD MSTORE PUSH1 0x44 DUP2 ADD DUP5 SWAP1 MSTORE PUSH1 0x0 SWAP2 PUSH32 0x0 AND SWAP1 PUSH32 0xA9059CBB2AB09EB219583F4A59A5D0623ADE346D962BCD4E46B11DA047C9049B SWAP1 PUSH1 0x64 ADD JUMPDEST PUSH1 0x40 DUP1 MLOAD PUSH1 0x1F NOT DUP2 DUP5 SUB ADD DUP2 MSTORE SWAP2 DUP2 MSTORE PUSH1 0x20 DUP3 ADD DUP1 MLOAD PUSH1 0x1 PUSH1 0x1 PUSH1 0xE0 SHL SUB AND PUSH1 0x1 PUSH1 0x1 PUSH1 0xE0 SHL SUB NOT SWAP1 SWAP5 AND SWAP4 SWAP1 SWAP4 OR SWAP1 SWAP3 MSTORE SWAP1 MLOAD PUSH2 0x1907 SWAP2 SWAP1 PUSH2 0x218E JUMP JUMPDEST PUSH1 0x0 PUSH1 0x40 MLOAD DUP1 DUP4 SUB DUP2 PUSH1 0x0 DUP7 GAS CALL SWAP2 POP POP RETURNDATASIZE DUP1 PUSH1 0x0 DUP2 EQ PUSH2 0x1944 JUMPI PUSH1 0x40 MLOAD SWAP2 POP PUSH1 0x1F NOT PUSH1 0x3F RETURNDATASIZE ADD AND DUP3 ADD PUSH1 0x40 MSTORE RETURNDATASIZE DUP3 MSTORE RETURNDATASIZE PUSH1 0x0 PUSH1 0x20 DUP5 ADD RETURNDATACOPY PUSH2 0x1949 JUMP JUMPDEST PUSH1 0x60 SWAP2 POP JUMPDEST POP POP SWAP1 POP DUP1 PUSH2 0x196B JUMPI PUSH1 0x40 MLOAD PUSH4 0xD291274F PUSH1 0xE0 SHL DUP2 MSTORE PUSH1 0x4 ADD PUSH1 0x40 MLOAD DUP1 SWAP2 SUB SWAP1 REVERT JUMPDEST POP SWAP4 SWAP3 POP POP POP JUMP JUMPDEST PUSH1 0x0 DUP1 SLOAD PUSH1 0x1 PUSH1 0x1 PUSH1 0xA0 SHL SUB DUP4 DUP2 AND PUSH1 0x1 PUSH1 0x1 PUSH1 0xA0 SHL SUB NOT DUP4 AND DUP2 OR DUP5 SSTORE PUSH1 0x40 MLOAD SWAP2 SWAP1 SWAP3 AND SWAP3 DUP4 SWAP2 PUSH32 0x8BE0079C531659141344CD1FD0A4F28419497F9722A3DAAFE3B4186F6B6457E0 SWAP2 SWAP1 LOG3 POP POP JUMP JUMPDEST PUSH1 0x0 DUP1 PUSH1 0x0 PUSH2 0x19D1 DUP5 PUSH2 0x1D4A JUMP JUMPDEST PUSH1 0x5 SLOAD SWAP2 SWAP4 POP SWAP2 POP PUSH2 0x100 SWAP1 DIV PUSH1 0x1 PUSH1 0x1 PUSH1 0xA0 SHL SUB AND ISZERO DUP1 ISZERO SWAP1 PUSH2 0x19F5 JUMPI POP DUP2 DUP2 EQ ISZERO JUMPDEST ISZERO PUSH2 0x1B2B JUMPI PUSH1 0x0 PUSH1 0x1 PUSH1 0x1 PUSH1 0xA0 SHL SUB PUSH32 0x0 AND PUSH32 0x23B872DD7302113369CDA2901243429419BEC145408FA8B352B3DD92B66C680B CALLER PUSH1 0x5 SLOAD PUSH2 0x100 SWAP1 DIV PUSH1 0x1 PUSH1 0x1 PUSH1 0xA0 SHL SUB AND PUSH2 0x1A63 DUP8 DUP8 PUSH2 0x21BD JUMP JUMPDEST PUSH1 0x40 MLOAD PUSH1 0x1 PUSH1 0x1 PUSH1 0xA0 SHL SUB SWAP4 DUP5 AND PUSH1 0x24 DUP3 ADD MSTORE SWAP3 SWAP1 SWAP2 AND PUSH1 0x44 DUP4 ADD MSTORE PUSH1 0x64 DUP3 ADD MSTORE PUSH1 0x84 ADD PUSH1 0x40 DUP1 MLOAD PUSH1 0x1F NOT DUP2 DUP5 SUB ADD DUP2 MSTORE SWAP2 DUP2 MSTORE PUSH1 0x20 DUP3 ADD DUP1 MLOAD PUSH1 0x1 PUSH1 0x1 PUSH1 0xE0 SHL SUB AND PUSH1 0x1 PUSH1 0x1 PUSH1 0xE0 SHL SUB NOT SWAP1 SWAP5 AND SWAP4 SWAP1 SWAP4 OR SWAP1 SWAP3 MSTORE SWAP1 MLOAD PUSH2 0x1AC5 SWAP2 SWAP1 PUSH2 0x218E JUMP JUMPDEST PUSH1 0x0 PUSH1 0x40 MLOAD DUP1 DUP4 SUB DUP2 PUSH1 0x0 DUP7 GAS CALL SWAP2 POP POP RETURNDATASIZE DUP1 PUSH1 0x0 DUP2 EQ PUSH2 0x1B02 JUMPI PUSH1 0x40 MLOAD SWAP2 POP PUSH1 0x1F NOT PUSH1 0x3F RETURNDATASIZE ADD AND DUP3 ADD PUSH1 0x40 MSTORE RETURNDATASIZE DUP3 MSTORE RETURNDATASIZE PUSH1 0x0 PUSH1 0x20 DUP5 ADD RETURNDATACOPY PUSH2 0x1B07 JUMP JUMPDEST PUSH1 0x60 SWAP2 POP JUMPDEST POP POP SWAP1 POP DUP1 PUSH2 0x1B29 JUMPI PUSH1 0x40 MLOAD PUSH4 0xD291274F PUSH1 0xE0 SHL DUP2 MSTORE PUSH1 0x4 ADD PUSH1 0x40 MLOAD DUP1 SWAP2 SUB SWAP1 REVERT JUMPDEST POP JUMPDEST PUSH1 0x0 PUSH1 0x1 PUSH1 0x1 PUSH1 0xA0 SHL SUB PUSH32 0x0 AND PUSH32 0x23B872DD7302113369CDA2901243429419BEC145408FA8B352B3DD92B66C680B CALLER PUSH1 0x6 SLOAD PUSH1 0x40 MLOAD PUSH1 0x1 PUSH1 0x1 PUSH1 0xA0 SHL SUB SWAP3 DUP4 AND PUSH1 0x24 DUP3 ADD MSTORE SWAP2 AND PUSH1 0x44 DUP3 ADD MSTORE PUSH1 0x64 DUP2 ADD DUP7 SWAP1 MSTORE PUSH1 0x84 ADD PUSH2 0x18C9 JUMP JUMPDEST DUP1 PUSH2 0xFFFF AND DUP3 PUSH1 0xFF AND GT ISZERO PUSH2 0x1BCD JUMPI PUSH1 0x40 MLOAD PUSH4 0x3ABD651D PUSH1 0xE2 SHL DUP2 MSTORE PUSH1 0x4 ADD PUSH1 0x40 MLOAD DUP1 SWAP2 SUB SWAP1 REVERT JUMPDEST POP POP JUMP JUMPDEST PUSH1 0x2 SLOAD PUSH1 0xFF DUP10 DUP2 AND PUSH2 0x100 SWAP1 SWAP3 DIV AND EQ PUSH2 0x1BFA JUMPI PUSH1 0x2 DUP1 SLOAD PUSH2 0xFF00 NOT AND PUSH2 0x100 PUSH1 0xFF DUP12 AND MUL OR SWAP1 SSTORE JUMPDEST PUSH1 0x2 SLOAD PUSH1 0xFF DUP9 DUP2 AND PUSH3 0x10000 SWAP1 SWAP3 DIV AND EQ PUSH2 0x1C26 JUMPI PUSH1 0x2 DUP1 SLOAD PUSH3 0xFF0000 NOT AND PUSH3 0x10000 PUSH1 0xFF DUP11 AND MUL OR SWAP1 SSTORE JUMPDEST DUP5 ISZERO DUP1 ISZERO PUSH2 0x1C37 JUMPI POP PUSH1 0x0 DUP10 PUSH1 0xFF AND GT JUMPDEST ISZERO PUSH2 0x1C7B JUMPI PUSH1 0x2 DUP1 SLOAD PUSH5 0xFFFF0000FF NOT AND PUSH4 0x1000000 PUSH2 0xFFFF DUP10 AND MUL PUSH1 0xFF NOT SWAP1 DUP2 AND SWAP2 SWAP1 SWAP2 OR PUSH1 0xFF DUP13 AND OR SWAP1 SWAP2 SSTORE PUSH1 0x5 DUP1 SLOAD PUSH1 0x0 SWAP3 AND PUSH1 0x1 DUP4 JUMPDEST MUL OR SWAP1 SSTORE POP PUSH2 0x1CBD JUMP JUMPDEST DUP5 PUSH1 0x1 SUB PUSH2 0x1C9B JUMPI PUSH1 0x4 DUP5 SWAP1 SSTORE PUSH1 0x5 DUP1 SLOAD PUSH1 0x1 SWAP2 SWAP1 PUSH1 0xFF NOT AND DUP3 DUP1 PUSH2 0x1C71 JUMP JUMPDEST DUP3 ISZERO PUSH2 0x1CBD JUMPI PUSH2 0x1CAA DUP4 PUSH2 0x1E20 JUMP JUMPDEST PUSH1 0x3 DUP4 SWAP1 SSTORE PUSH1 0x5 DUP1 SLOAD PUSH1 0xFF NOT AND PUSH1 0x2 OR SWAP1 SSTORE JUMPDEST PUSH1 0x5 SLOAD PUSH1 0x1 PUSH1 0x1 PUSH1 0xA0 SHL SUB DUP4 DUP2 AND PUSH2 0x100 SWAP1 SWAP3 DIV AND EQ PUSH2 0x1CF8 JUMPI PUSH1 0x5 DUP1 SLOAD PUSH2 0x100 PUSH1 0x1 PUSH1 0xA8 SHL SUB NOT AND PUSH2 0x100 PUSH1 0x1 PUSH1 0x1 PUSH1 0xA0 SHL SUB DUP6 AND MUL OR SWAP1 SSTORE JUMPDEST PUSH1 0x6 SLOAD PUSH1 0x1 PUSH1 0x1 PUSH1 0xA0 SHL SUB DUP3 DUP2 AND SWAP2 AND EQ DUP1 ISZERO SWAP1 PUSH2 0x1D1E JUMPI POP PUSH1 0x1 PUSH1 0x1 PUSH1 0xA0 SHL SUB DUP2 AND ISZERO ISZERO JUMPDEST ISZERO PUSH2 0x1D3F JUMPI PUSH1 0x6 DUP1 SLOAD PUSH1 0x1 PUSH1 0x1 PUSH1 0xA0 SHL SUB NOT AND PUSH1 0x1 PUSH1 0x1 PUSH1 0xA0 SHL SUB DUP4 AND OR SWAP1 SSTORE JUMPDEST POP POP POP POP POP POP POP POP POP JUMP JUMPDEST PUSH1 0x0 DUP1 DUP1 PUSH1 0x5 SLOAD PUSH1 0xFF AND PUSH1 0x2 DUP2 GT ISZERO PUSH2 0x1D65 JUMPI PUSH2 0x1D65 PUSH2 0x1EB9 JUMP JUMPDEST SUB PUSH2 0x1DA7 JUMPI PUSH1 0x2 SLOAD PUSH1 0x0 SWAP1 PUSH2 0xFFFF PUSH4 0x1000000 DUP3 DIV AND SWAP1 PUSH2 0x1D89 SWAP1 PUSH1 0xFF AND DUP7 PUSH2 0x2129 JUMP JUMPDEST PUSH2 0x1D93 SWAP2 SWAP1 PUSH2 0x2140 JUMP JUMPDEST SWAP1 POP PUSH2 0x1D9E DUP2 PUSH2 0x1E61 JUMP JUMPDEST SWAP5 SWAP1 SWAP4 POP SWAP2 POP POP JUMP JUMPDEST PUSH1 0x1 PUSH1 0x5 SLOAD PUSH1 0xFF AND PUSH1 0x2 DUP2 GT ISZERO PUSH2 0x1DC0 JUMPI PUSH2 0x1DC0 PUSH2 0x1EB9 JUMP JUMPDEST SUB PUSH2 0x1DDE JUMPI PUSH1 0x4 SLOAD PUSH2 0x1DD1 SWAP1 PUSH2 0x1E61 JUMP JUMPDEST PUSH1 0x4 SLOAD SWAP1 SWAP5 SWAP1 SWAP4 POP SWAP2 POP POP JUMP JUMPDEST PUSH1 0x2 PUSH1 0x5 SLOAD PUSH1 0xFF AND PUSH1 0x2 DUP2 GT ISZERO PUSH2 0x1DF7 JUMPI PUSH2 0x1DF7 PUSH2 0x1EB9 JUMP JUMPDEST SUB PUSH2 0x1E15 JUMPI PUSH1 0x3 SLOAD PUSH2 0x1E08 SWAP1 PUSH2 0x1E61 JUMP JUMPDEST PUSH1 0x3 SLOAD SWAP1 SWAP5 SWAP1 SWAP4 POP SWAP2 POP POP JUMP JUMPDEST POP PUSH1 0x0 SWAP3 DUP4 SWAP3 POP SWAP1 POP JUMP JUMPDEST PUSH32 0x0 DUP2 GT ISZERO PUSH2 0x1620 JUMPI PUSH1 0x40 MLOAD PUSH4 0xDD27E1DB PUSH1 0xE0 SHL DUP2 MSTORE PUSH1 0x4 ADD PUSH1 0x40 MLOAD DUP1 SWAP2 SUB SWAP1 REVERT JUMPDEST PUSH1 0x2 SLOAD PUSH1 0x0 SWAP1 PUSH1 0x64 SWAP1 PUSH2 0x1E7D SWAP1 PUSH3 0x10000 SWAP1 DIV PUSH1 0xFF AND DUP5 PUSH2 0x2129 JUMP JUMPDEST PUSH2 0x1E87 SWAP2 SWAP1 PUSH2 0x2140 JUMP JUMPDEST SWAP3 SWAP2 POP POP JUMP JUMPDEST PUSH1 0x0 DUP1 PUSH1 0x0 PUSH1 0x60 DUP5 DUP7 SUB SLT ISZERO PUSH2 0x1EA2 JUMPI PUSH1 0x0 DUP1 REVERT JUMPDEST POP POP DUP2 CALLDATALOAD SWAP4 PUSH1 0x20 DUP4 ADD CALLDATALOAD SWAP4 POP PUSH1 0x40 SWAP1 SWAP3 ADD CALLDATALOAD SWAP2 SWAP1 POP JUMP JUMPDEST PUSH4 0x4E487B71 PUSH1 0xE0 SHL PUSH1 0x0 MSTORE PUSH1 0x21 PUSH1 0x4 MSTORE PUSH1 0x24 PUSH1 0x0 REVERT JUMPDEST PUSH1 0xFF DUP12 DUP2 AND DUP3 MSTORE DUP11 DUP2 AND PUSH1 0x20 DUP4 ADD MSTORE DUP10 AND PUSH1 0x40 DUP3 ADD MSTORE PUSH2 0xFFFF DUP9 AND PUSH1 0x60 DUP3 ADD MSTORE DUP7 ISZERO ISZERO PUSH1 0x80 DUP3 ADD MSTORE PUSH1 0xA0 DUP2 ADD DUP7 SWAP1 MSTORE PUSH1 0xC0 DUP2 ADD DUP6 SWAP1 MSTORE PUSH2 0x140 DUP2 ADD PUSH1 0x3 DUP6 LT PUSH2 0x1F28 JUMPI PUSH4 0x4E487B71 PUSH1 0xE0 SHL PUSH1 0x0 MSTORE PUSH1 0x21 PUSH1 0x4 MSTORE PUSH1 0x24 PUSH1 0x0 REVERT JUMPDEST DUP5 PUSH1 0xE0 DUP4 ADD MSTORE PUSH2 0x1F44 PUSH2 0x100 DUP4 ADD DUP6 PUSH1 0x1 PUSH1 0x1 PUSH1 0xA0 SHL SUB AND SWAP1 MSTORE JUMP JUMPDEST PUSH1 0x1 PUSH1 0x1 PUSH1 0xA0 SHL SUB DUP4 AND PUSH2 0x120 DUP4 ADD MSTORE SWAP12 SWAP11 POP POP POP POP POP POP POP POP POP POP POP JUMP JUMPDEST PUSH1 0x1 PUSH1 0x1 PUSH1 0xA0 SHL SUB DUP2 AND DUP2 EQ PUSH2 0x1620 JUMPI PUSH1 0x0 DUP1 REVERT JUMPDEST DUP1 CALLDATALOAD PUSH1 0xFF DUP2 AND DUP2 EQ PUSH2 0x1F89 JUMPI PUSH1 0x0 DUP1 REVERT JUMPDEST SWAP2 SWAP1 POP JUMP JUMPDEST PUSH1 0x0 DUP1 PUSH1 0x0 DUP1 PUSH1 0x0 DUP1 PUSH1 0xC0 DUP8 DUP10 SUB SLT ISZERO PUSH2 0x1FA7 JUMPI PUSH1 0x0 DUP1 REVERT JUMPDEST DUP7 CALLDATALOAD PUSH2 0x1FB2 DUP2 PUSH2 0x1F63 JUMP JUMPDEST SWAP6 POP PUSH1 0x20 DUP8 ADD CALLDATALOAD SWAP5 POP PUSH1 0x40 DUP8 ADD CALLDATALOAD SWAP4 POP PUSH2 0x1FCE PUSH1 0x60 DUP9 ADD PUSH2 0x1F78 JUMP JUMPDEST SWAP3 POP PUSH1 0x80 DUP8 ADD CALLDATALOAD SWAP2 POP PUSH1 0xA0 DUP8 ADD CALLDATALOAD SWAP1 POP SWAP3 SWAP6 POP SWAP3 SWAP6 POP SWAP3 SWAP6 JUMP JUMPDEST PUSH1 0x0 PUSH1 0x20 DUP3 DUP5 SUB SLT ISZERO PUSH2 0x1FFA JUMPI PUSH1 0x0 DUP1 REVERT JUMPDEST DUP2 CALLDATALOAD PUSH2 0x2005 DUP2 PUSH2 0x1F63 JUMP JUMPDEST SWAP4 SWAP3 POP POP POP JUMP JUMPDEST PUSH1 0x0 DUP1 PUSH1 0x0 DUP1 PUSH1 0x0 PUSH1 0xA0 DUP7 DUP9 SUB SLT ISZERO PUSH2 0x2024 JUMPI PUSH1 0x0 DUP1 REVERT JUMPDEST DUP6 CALLDATALOAD SWAP5 POP PUSH1 0x20 DUP7 ADD CALLDATALOAD SWAP4 POP PUSH2 0x203B PUSH1 0x40 DUP8 ADD PUSH2 0x1F78 JUMP JUMPDEST SWAP5 SWAP8 SWAP4 SWAP7 POP SWAP4 SWAP5 PUSH1 0x60 DUP2 ADD CALLDATALOAD SWAP5 POP PUSH1 0x80 ADD CALLDATALOAD SWAP3 SWAP2 POP POP JUMP JUMPDEST DUP1 CALLDATALOAD PUSH2 0x1F89 DUP2 PUSH2 0x1F63 JUMP JUMPDEST PUSH1 0x0 DUP1 PUSH1 0x0 DUP1 PUSH1 0x0 DUP1 PUSH1 0x0 DUP1 PUSH1 0x0 DUP1 PUSH2 0x140 DUP12 DUP14 SUB SLT ISZERO PUSH2 0x207E JUMPI PUSH1 0x0 DUP1 REVERT JUMPDEST DUP11 CALLDATALOAD DUP1 ISZERO ISZERO DUP2 EQ PUSH2 0x208E JUMPI PUSH1 0x0 DUP1 REVERT JUMPDEST SWAP10 POP PUSH2 0x209C PUSH1 0x20 DUP13 ADD PUSH2 0x1F78 JUMP JUMPDEST SWAP9 POP PUSH2 0x20AA PUSH1 0x40 DUP13 ADD PUSH2 0x1F78 JUMP JUMPDEST SWAP8 POP PUSH2 0x20B8 PUSH1 0x60 DUP13 ADD PUSH2 0x1F78 JUMP JUMPDEST SWAP7 POP PUSH1 0x80 DUP12 ADD CALLDATALOAD PUSH2 0xFFFF DUP2 AND DUP2 EQ PUSH2 0x20CF JUMPI PUSH1 0x0 DUP1 REVERT JUMPDEST SWAP6 POP PUSH1 0xA0 DUP12 ADD CALLDATALOAD SWAP5 POP PUSH1 0xC0 DUP12 ADD CALLDATALOAD SWAP4 POP PUSH1 0xE0 DUP12 ADD CALLDATALOAD SWAP3 POP PUSH2 0x20F3 PUSH2 0x100 DUP13 ADD PUSH2 0x2053 JUMP JUMPDEST SWAP2 POP PUSH2 0x2102 PUSH2 0x120 DUP13 ADD PUSH2 0x2053 JUMP JUMPDEST SWAP1 POP SWAP3 SWAP6 SWAP9 SWAP12 SWAP2 SWAP5 SWAP8 SWAP11 POP SWAP3 SWAP6 SWAP9 POP JUMP JUMPDEST PUSH4 0x4E487B71 PUSH1 0xE0 SHL PUSH1 0x0 MSTORE PUSH1 0x11 PUSH1 0x4 MSTORE PUSH1 0x24 PUSH1 0x0 REVERT JUMPDEST DUP1 DUP3 MUL DUP2 ISZERO DUP3 DUP3 DIV DUP5 EQ OR PUSH2 0x1E87 JUMPI PUSH2 0x1E87 PUSH2 0x2113 JUMP JUMPDEST PUSH1 0x0 DUP3 PUSH2 0x215D JUMPI PUSH4 0x4E487B71 PUSH1 0xE0 SHL PUSH1 0x0 MSTORE PUSH1 0x12 PUSH1 0x4 MSTORE PUSH1 0x24 PUSH1 0x0 REVERT JUMPDEST POP DIV SWAP1 JUMP JUMPDEST PUSH1 0x0 PUSH1 0x20 DUP3 DUP5 SUB SLT ISZERO PUSH2 0x2174 JUMPI PUSH1 0x0 DUP1 REVERT JUMPDEST POP MLOAD SWAP2 SWAP1 POP JUMP JUMPDEST DUP1 DUP3 ADD DUP1 DUP3 GT ISZERO PUSH2 0x1E87 JUMPI PUSH2 0x1E87 PUSH2 0x2113 JUMP JUMPDEST PUSH1 0x0 DUP3 MLOAD PUSH1 0x0 JUMPDEST DUP2 DUP2 LT ISZERO PUSH2 0x21AF JUMPI PUSH1 0x20 DUP2 DUP7 ADD DUP2 ADD MLOAD DUP6 DUP4 ADD MSTORE ADD PUSH2 0x2195 JUMP JUMPDEST POP PUSH1 0x0 SWAP3 ADD SWAP2 DUP3 MSTORE POP SWAP2 SWAP1 POP JUMP JUMPDEST DUP2 DUP2 SUB DUP2 DUP2 GT ISZERO PUSH2 0x1E87 JUMPI PUSH2 0x1E87 PUSH2 0x2113 JUMP JUMPDEST PUSH1 0xFF DUP2 DUP2 AND DUP4 DUP3 AND ADD SWAP1 DUP2 GT ISZERO PUSH2 0x1E87 JUMPI PUSH2 0x1E87 PUSH2 0x2113 JUMP INVALID LOG2 PUSH5 0x6970667358 0x22 SLT KECCAK256 MULMOD CODECOPY 0xC0 MSIZE SLOAD 0xDD JUMPDEST 0xBF RETURNDATASIZE DUP12 SGT PUSH16 0x7B0089E2C0FFFEBBC0A07A30B0124E13 0xDC EQ PUSH18 0x8464736F6C63430008130033000000000000 "},"methodIdentifiers":{"claimNativeCurrencyCommission()":"37c15626","commissionSettings()":"5531e774","conversionIn(address,uint256,bytes32,uint8,bytes32,bytes32)":"6a02fcc4","conversionOut(uint256,bytes32,uint8,bytes32,bytes32)":"9f23c9e2","disableCommission()":"b26e099f","getCommissionReceiverAddresses()":"9cb71686","getCommissionSettings()":"58a93688","getConversionAuthorizer()":"c72304ac","getConversionConfigurations()":"feea1529","owner()":"8da5cb5b","renounceOwnership()":"715018a6","transferOwnership(address)":"f2fde38b","updateAuthorizer(address)":"e0a66578","updateBridgeOwner(address)":"7c522d28","updateCommissionConfiguration(bool,uint8,uint8,uint8,uint16,uint256,uint256,uint256,address,address)":"c329a6cf","updateConfigurations(uint256,uint256,uint256)":"529c0970","updateReceiverCommission(address)":"94aca02a"}}}}}