{"contracts/TokenConversionManagerV2.sol":{"TokenConversionManagerV2":{"abi":[{"inputs":[{"internalType":"address","name":"token","type":"address"},{"internalType":"bool","name":"commissionIsEnabled","type":"bool"},{"internalType":"uint8","name":"receiverCommissionProportion","type":"uint8"},{"internalType":"uint8","name":"bridgeOwnerCommissionProportion","type":"uint8"},{"internalType":"uint256","name":"fixedNativeTokenCommissionLimit","type":"uint256"},{"internalType":"address payable","name":"commissionReceiver","type":"address"},{"internalType":"address payable","name":"bridgeOwner","type":"address"}],"stateMutability":"nonpayable","type":"constructor"},{"inputs":[],"name":"CommissionTransferFailed","type":"error"},{"inputs":[],"name":"ConversionFailed","type":"error"},{"inputs":[],"name":"ConversionMintFailed","type":"error"},{"inputs":[],"name":"EnablingZeroFixedNativeTokenCommission","type":"error"},{"inputs":[],"name":"EnablingZeroFixedTokenCommission","type":"error"},{"inputs":[],"name":"EnablingZeroTokenPercentageCommission","type":"error"},{"inputs":[{"internalType":"uint8","name":"proportion1","type":"uint8"},{"internalType":"uint8","name":"proportion2","type":"uint8"}],"name":"InvalidProportionSum","type":"error"},{"inputs":[],"name":"InvalidRequestOrSignature","type":"error"},{"inputs":[],"name":"InvalidUpdateConfigurations","type":"error"},{"inputs":[],"name":"MintingMoreThanMaxSupply","type":"error"},{"inputs":[],"name":"NativeClaimFailed","type":"error"},{"inputs":[],"name":"NotEnoughBalance","type":"error"},{"inputs":[],"name":"PercentageLimitExceeded","type":"error"},{"inputs":[{"internalType":"uint256","name":"sent","type":"uint256"},{"internalType":"uint256","name":"required","type":"uint256"}],"name":"TakeFixedNativeTokensCommissionFailed","type":"error"},{"inputs":[{"internalType":"address","name":"caller","type":"address"}],"name":"UnauthorizedCommissionReceiver","type":"error"},{"inputs":[],"name":"UsedSignature","type":"error"},{"inputs":[],"name":"ViolationOfFixedNativeTokensLimit","type":"error"},{"inputs":[],"name":"ViolationOfTxAmountLimits","type":"error"},{"inputs":[],"name":"ZeroAddress","type":"error"},{"inputs":[],"name":"ZeroFixedNativeTokensCommissionLimit","type":"error"},{"anonymous":false,"inputs":[{"indexed":true,"internalType":"address","name":"tokenHolder","type":"address"},{"indexed":false,"internalType":"bytes32","name":"conversionId","type":"bytes32"},{"indexed":false,"internalType":"uint256","name":"amount","type":"uint256"}],"name":"ConversionIn","type":"event"},{"anonymous":false,"inputs":[{"indexed":true,"internalType":"address","name":"tokenHolder","type":"address"},{"indexed":false,"internalType":"bytes32","name":"conversionId","type":"bytes32"},{"indexed":false,"internalType":"uint256","name":"amount","type":"uint256"}],"name":"ConversionOut","type":"event"},{"anonymous":false,"inputs":[{"indexed":true,"internalType":"uint256","name":"time","type":"uint256"}],"name":"FixedNativeTokensCommissionClaim","type":"event"},{"anonymous":false,"inputs":[{"indexed":false,"internalType":"address","name":"conversionAuthorizer","type":"address"}],"name":"NewAuthorizer","type":"event"},{"anonymous":false,"inputs":[{"indexed":true,"internalType":"address","name":"previousOwner","type":"address"},{"indexed":true,"internalType":"address","name":"newOwner","type":"address"}],"name":"OwnershipTransferred","type":"event"},{"anonymous":false,"inputs":[{"indexed":false,"internalType":"uint8","name":"receiverCommissionProportion","type":"uint8"},{"indexed":false,"internalType":"uint8","name":"bridgeOwnerCommissionProportion","type":"uint8"},{"indexed":false,"internalType":"uint256","name":"updateTimestamp","type":"uint256"}],"name":"UpdateCommissionProportions","type":"event"},{"anonymous":false,"inputs":[{"indexed":true,"internalType":"bool","name":"commissionIsEnabled","type":"bool"},{"indexed":true,"internalType":"uint256","name":"commissionType","type":"uint256"},{"indexed":true,"internalType":"uint256","name":"timestamp","type":"uint256"}],"name":"UpdateCommissionType","type":"event"},{"anonymous":false,"inputs":[{"indexed":false,"internalType":"uint256","name":"perTxnMinAmount","type":"uint256"},{"indexed":false,"internalType":"uint256","name":"perTxnMaxAmount","type":"uint256"},{"indexed":false,"internalType":"uint256","name":"maxSupply","type":"uint256"}],"name":"UpdateConfiguration","type":"event"},{"anonymous":false,"inputs":[{"indexed":true,"internalType":"uint256","name":"timestamp","type":"uint256"},{"indexed":false,"internalType":"uint256","name":"fixedNativeTokensCommission","type":"uint256"}],"name":"UpdateFixedNativeTokensCommission","type":"event"},{"anonymous":false,"inputs":[{"indexed":true,"internalType":"uint256","name":"timestamp","type":"uint256"},{"indexed":false,"internalType":"uint256","name":"fixedTokenCommission","type":"uint256"}],"name":"UpdateFixedTokensCommission","type":"event"},{"anonymous":false,"inputs":[{"indexed":true,"internalType":"uint256","name":"timestamp","type":"uint256"},{"indexed":false,"internalType":"uint256","name":"convertTokenPercentage","type":"uint256"},{"indexed":false,"internalType":"uint256","name":"pointOffsetShifter","type":"uint256"}],"name":"UpdatePercentageTokensCommission","type":"event"},{"anonymous":false,"inputs":[{"indexed":true,"internalType":"address","name":"previousReceiver","type":"address"},{"indexed":true,"internalType":"address","name":"newReceiver","type":"address"}],"name":"UpdateReceiver","type":"event"},{"inputs":[],"name":"claimFixedNativeTokensCommission","outputs":[],"stateMutability":"nonpayable","type":"function"},{"inputs":[],"name":"commissionSettings","outputs":[{"internalType":"uint8","name":"convertTokenPercentage","type":"uint8"},{"internalType":"uint8","name":"receiverCommissionProportion","type":"uint8"},{"internalType":"uint8","name":"bridgeOwnerCommissionProportion","type":"uint8"},{"internalType":"uint16","name":"pointOffsetShifter","type":"uint16"},{"internalType":"bool","name":"commissionIsEnabled","type":"bool"},{"internalType":"uint256","name":"fixedNativeTokensCommission","type":"uint256"},{"internalType":"uint256","name":"fixedTokenCommission","type":"uint256"},{"internalType":"enum Commission.CommissionType","name":"commissionType","type":"uint8"},{"internalType":"address payable","name":"receiverCommission","type":"address"},{"internalType":"address payable","name":"bridgeOwner","type":"address"}],"stateMutability":"view","type":"function"},{"inputs":[{"internalType":"address","name":"to","type":"address"},{"internalType":"uint256","name":"amount","type":"uint256"},{"internalType":"bytes32","name":"conversionId","type":"bytes32"},{"internalType":"uint8","name":"v","type":"uint8"},{"internalType":"bytes32","name":"r","type":"bytes32"},{"internalType":"bytes32","name":"s","type":"bytes32"}],"name":"conversionIn","outputs":[],"stateMutability":"payable","type":"function"},{"inputs":[{"internalType":"uint256","name":"amount","type":"uint256"},{"internalType":"bytes32","name":"conversionId","type":"bytes32"},{"internalType":"uint8","name":"v","type":"uint8"},{"internalType":"bytes32","name":"r","type":"bytes32"},{"internalType":"bytes32","name":"s","type":"bytes32"}],"name":"conversionOut","outputs":[],"stateMutability":"payable","type":"function"},{"inputs":[],"name":"disableCommission","outputs":[],"stateMutability":"nonpayable","type":"function"},{"inputs":[{"internalType":"uint256","name":"newFixedNativeTokensCommission","type":"uint256"}],"name":"enableAndUpdateFixedNativeTokensCommission","outputs":[],"stateMutability":"nonpayable","type":"function"},{"inputs":[{"internalType":"uint256","name":"newFixedTokenCommission","type":"uint256"}],"name":"enableAndUpdateFixedTokensCommission","outputs":[],"stateMutability":"nonpayable","type":"function"},{"inputs":[{"internalType":"uint8","name":"newConvertTokenPercentage","type":"uint8"},{"internalType":"uint16","name":"newPointOffsetShifter","type":"uint16"}],"name":"enableAndUpdatePercentageTokensCommission","outputs":[],"stateMutability":"nonpayable","type":"function"},{"inputs":[],"name":"getCommissionReceiverAddresses","outputs":[{"internalType":"address","name":"","type":"address"},{"internalType":"address","name":"","type":"address"}],"stateMutability":"view","type":"function"},{"inputs":[],"name":"getCommissionSettings","outputs":[{"internalType":"bool","name":"commissionIsEnabled","type":"bool"},{"internalType":"uint8","name":"receiverCommissionProportion","type":"uint8"},{"internalType":"uint8","name":"bridgeOwnerCommissionProportion","type":"uint8"},{"internalType":"uint8","name":"convertTokenPercentage","type":"uint8"},{"internalType":"uint16","name":"offsetShifter","type":"uint16"},{"internalType":"uint256","name":"tokenTypeCommission","type":"uint256"},{"internalType":"uint256","name":"fixedTokenCommission","type":"uint256"},{"internalType":"uint256","name":"fixedNativeTokensCommission","type":"uint256"},{"internalType":"address payable","name":"receiverCommission","type":"address"},{"internalType":"address payable","name":"bridgeOwner","type":"address"},{"internalType":"address","name":"token","type":"address"}],"stateMutability":"view","type":"function"},{"inputs":[],"name":"getConversionAuthorizer","outputs":[{"internalType":"address","name":"","type":"address"}],"stateMutability":"view","type":"function"},{"inputs":[],"name":"getConversionConfigurations","outputs":[{"internalType":"uint256","name":"","type":"uint256"},{"internalType":"uint256","name":"","type":"uint256"},{"internalType":"uint256","name":"","type":"uint256"}],"stateMutability":"view","type":"function"},{"inputs":[],"name":"owner","outputs":[{"internalType":"address","name":"","type":"address"}],"stateMutability":"view","type":"function"},{"inputs":[],"name":"renounceOwnership","outputs":[],"stateMutability":"nonpayable","type":"function"},{"inputs":[{"internalType":"address","name":"newOwner","type":"address"}],"name":"transferOwnership","outputs":[],"stateMutability":"nonpayable","type":"function"},{"inputs":[{"internalType":"address","name":"newAuthorizer","type":"address"}],"name":"updateAuthorizer","outputs":[],"stateMutability":"nonpayable","type":"function"},{"inputs":[{"internalType":"address","name":"newBridgeOwner","type":"address"}],"name":"updateBridgeOwner","outputs":[],"stateMutability":"nonpayable","type":"function"},{"inputs":[{"internalType":"uint8","name":"newReceiverCommissionProportion","type":"uint8"},{"internalType":"uint8","name":"newBridgeOwnerCommissionProportion","type":"uint8"}],"name":"updateCommissionProportions","outputs":[],"stateMutability":"nonpayable","type":"function"},{"inputs":[{"internalType":"uint256","name":"perTxnMinAmount","type":"uint256"},{"internalType":"uint256","name":"perTxnMaxAmount","type":"uint256"},{"internalType":"uint256","name":"maxSupply","type":"uint256"}],"name":"updateConfigurations","outputs":[],"stateMutability":"nonpayable","type":"function"},{"inputs":[{"internalType":"address","name":"newReceiverCommission","type":"address"}],"name":"updateReceiverCommission","outputs":[],"stateMutability":"nonpayable","type":"function"}],"evm":{"bytecode":{"linkReferences":{},"object":"60c06040523480156200001157600080fd5b50604051620072f1380380620072f1833981810160405281019062000037919062001068565b868686868686866200005e620000526200096460201b60201c565b6200096c60201b60201c565b6001808190555086620000826726f982bdaee9ddae60c01b62000a3060201b60201c565b6200009e67043e93428f870cde60c01b62000a3060201b60201c565b620000ba6783d504cc9b25eee660c01b62000a3060201b60201c565b600073ffffffffffffffffffffffffffffffffffffffff168173ffffffffffffffffffffffffffffffffffffffff160362000159576200010b6708c65a462e5eeede60c01b62000a3060201b60201c565b6200012767dccf128358fa962560c01b62000a3060201b60201c565b6040517fd92e233d00000000000000000000000000000000000000000000000000000000815260040160405180910390fd5b6200017567f70d14915dd40d8c60c01b62000a3060201b60201c565b6200019167c11d9527ed3a452960c01b62000a3060201b60201c565b81620001ae6726f982bdaee9ddae60c01b62000a3060201b60201c565b620001ca67043e93428f870cde60c01b62000a3060201b60201c565b620001e66783d504cc9b25eee660c01b62000a3060201b60201c565b600073ffffffffffffffffffffffffffffffffffffffff168173ffffffffffffffffffffffffffffffffffffffff16036200028557620002376708c65a462e5eeede60c01b62000a3060201b60201c565b6200025367dccf128358fa962560c01b62000a3060201b60201c565b6040517fd92e233d00000000000000000000000000000000000000000000000000000000815260040160405180910390fd5b620002a167f70d14915dd40d8c60c01b62000a3060201b60201c565b620002bd67c11d9527ed3a452960c01b62000a3060201b60201c565b620002d96776de6f0e0f6c54ea60c01b62000a3060201b60201c565b620002f5679f9b719345675a3660c01b62000a3060201b60201c565b8873ffffffffffffffffffffffffffffffffffffffff1660808173ffffffffffffffffffffffffffffffffffffffff16815250506200034567ce92a635d0d6705c60c01b62000a3060201b60201c565b6200036167a70218c7e5d746c860c01b62000a3060201b60201c565b60008503620003d457620003866713755f45ce1f0c3160c01b62000a3060201b60201c565b620003a267a4add3240bf8ed1560c01b62000a3060201b60201c565b6040517ffcab2c8400000000000000000000000000000000000000000000000000000000815260040160405180910390fd5b620003f0671180aba137ee9d0260c01b62000a3060201b60201c565b6200040c6794ec41e85bed75cb60c01b62000a3060201b60201c565b8460a0818152505062000430677ca6eca5aac919e560c01b62000a3060201b60201c565b6200044c67f79f4e1a52b95f8060c01b62000a3060201b60201c565b60004290506200046d6763505263855da1d260c01b62000a3060201b60201c565b62000489670149168eb924f98e60c01b62000a3060201b60201c565b88156200055757620004ac6701c4b4b1a79a360c60c01b62000a3060201b60201c565b620004c86773c8cacc98f390a460c01b62000a3060201b60201c565b6001600260000160056101000a81548160ff0219169083151502179055506200050267af23278d996175f060c01b62000a3060201b60201c565b6200051e6799d2de9246d58a1960c01b62000a3060201b60201c565b806000600115157fc4a8c097b5d93dcebaa4f0f65b88ca288e38ff724fa55d3d2af8ecd63c3c9be760405160405180910390a462000574565b62000573676d165db27d266faa60c01b62000a3060201b60201c565b5b6200059067c10287cda47d12f660c01b62000a3060201b60201c565b620005ac679805fd7c50a8a72660c01b62000a3060201b60201c565b620005be888862000a3360201b60201c565b620005da6709e418fce8c2e70e60c01b62000a3060201b60201c565b83600260040160006101000a81548173ffffffffffffffffffffffffffffffffffffffff021916908373ffffffffffffffffffffffffffffffffffffffff1602179055506200063a676debdb77ff60249560c01b62000a3060201b60201c565b6200065667941eabb805752e1660c01b62000a3060201b60201c565b8373ffffffffffffffffffffffffffffffffffffffff16600073ffffffffffffffffffffffffffffffffffffffff167f62904549814f5511a5d36a62611a6e2fe1d2c29b6de74de25d95395e0a7d009b60405160405180910390a3620006cd67e62dbdbd4e2b7d3560c01b62000a3060201b60201c565b620006e9679766ef1d6fd8bed660c01b62000a3060201b60201c565b600073ffffffffffffffffffffffffffffffffffffffff168573ffffffffffffffffffffffffffffffffffffffff161462000833576200073a67d70ce8772506b89e60c01b62000a3060201b60201c565b62000756675ce552c262bedf5e60c01b62000a3060201b60201c565b84600260030160016101000a81548173ffffffffffffffffffffffffffffffffffffffff021916908373ffffffffffffffffffffffffffffffffffffffff160217905550620007b66724d774f43717cbea60c01b62000a3060201b60201c565b620007d2679da7582e3022f64960c01b62000a3060201b60201c565b8473ffffffffffffffffffffffffffffffffffffffff16600073ffffffffffffffffffffffffffffffffffffffff167f62904549814f5511a5d36a62611a6e2fe1d2c29b6de74de25d95395e0a7d009b60405160405180910390a362000850565b6200084f6739e9613382e702a160c01b62000a3060201b60201c565b5b6200086c67c54b76e6ff90e2fa60c01b62000a3060201b60201c565b6200088867441d0d12e2a9b40560c01b62000a3060201b60201c565b7f8849d9036ec7068880bd56182e37500d89a0664b4800e4b44fba2e01a6940501888883604051620008bd939291906200113d565b60405180910390a150505050505050505050620008eb67ee6737bf730857ac60c01b62000e4660201b60201c565b62000907677bc9200c4d13de9060c01b62000e4660201b60201c565b620009176200096460201b60201c565b600760006101000a81548173ffffffffffffffffffffffffffffffffffffffff021916908373ffffffffffffffffffffffffffffffffffffffff1602179055505050505050505062001295565b600033905090565b60008060009054906101000a900473ffffffffffffffffffffffffffffffffffffffff169050816000806101000a81548173ffffffffffffffffffffffffffffffffffffffff021916908373ffffffffffffffffffffffffffffffffffffffff1602179055508173ffffffffffffffffffffffffffffffffffffffff168173ffffffffffffffffffffffffffffffffffffffff167f8be0079c531659141344cd1fd0a4f28419497f9722a3daafe3b4186f6b6457e060405160405180910390a35050565b50565b62000a4f6725e99f5d8e9813dd60c01b62000a3060201b60201c565b62000a5f62000e4960201b60201c565b62000a7b679ff58ce2ac447ce260c01b62000a3060201b60201c565b62000a97679c35aa2faf6e710a60c01b62000a3060201b60201c565b818162000ab567f48b5a2246bf506460c01b62000a3060201b60201c565b62000ad167b48068eb68e110e860c01b62000a3060201b60201c565b62000aed67ea57c67678df968a60c01b62000a3060201b60201c565b606460ff16818362000b009190620011a9565b60ff161462000b825762000b2567fac91c9468bb0c5d60c01b62000a3060201b60201c565b62000b4167d9820a54db345eaa60c01b62000a3060201b60201c565b81816040517f8efe3fd500000000000000000000000000000000000000000000000000000000815260040162000b79929190620011e5565b60405180910390fd5b62000b9e6741740c842ed2c74260c01b62000a3060201b60201c565b62000bba67826ecf2d226ee01b60c01b62000a3060201b60201c565b62000bd66716d523cfb22ec5b360c01b62000a3060201b60201c565b62000bf26798025beb5cfa7b1e60c01b62000a3060201b60201c565b62000c0e67436d7d41475704db60c01b62000a3060201b60201c565b62000c2a67b3fd81c5b1f7dbeb60c01b62000a3060201b60201c565b8360ff16600260000160019054906101000a900460ff1660ff161462000ca65762000c6667d9fd2cf2aa42cbe760c01b62000a3060201b60201c565b62000c82671512905cdc9c28b860c01b62000a3060201b60201c565b83600260000160016101000a81548160ff021916908360ff16021790555062000cc3565b62000cc267c3edfb502758d30960c01b62000a3060201b60201c565b5b62000cdf67b4df77953c505b4760c01b62000a3060201b60201c565b62000cfb67fb91d9fed2b5687860c01b62000a3060201b60201c565b60008360ff161415801562000d2857508260ff16600260000160029054906101000a900460ff1660ff1614155b1562000d8a5762000d4a67cd1864281daf3f4360c01b62000a3060201b60201c565b62000d66673d60900b4e84e41d60c01b62000a3060201b60201c565b82600260000160026101000a81548160ff021916908360ff16021790555062000da7565b62000da66757a583417d46df8960c01b62000a3060201b60201c565b5b62000dc36785b2d7430922323660c01b62000a3060201b60201c565b62000ddf67edbb58b649b803e760c01b62000a3060201b60201c565b7f8849d9036ec7068880bd56182e37500d89a0664b4800e4b44fba2e01a6940501600260000160019054906101000a900460ff16600260000160029054906101000a900460ff164260405162000e38939291906200113d565b60405180910390a150505050565b50565b62000e596200096460201b60201c565b73ffffffffffffffffffffffffffffffffffffffff1662000e7f62000eda60201b60201c565b73ffffffffffffffffffffffffffffffffffffffff161462000ed8576040517f08c379a000000000000000000000000000000000000000000000000000000000815260040162000ecf9062001273565b60405180910390fd5b565b60008060009054906101000a900473ffffffffffffffffffffffffffffffffffffffff16905090565b600080fd5b600073ffffffffffffffffffffffffffffffffffffffff82169050919050565b600062000f358262000f08565b9050919050565b62000f478162000f28565b811462000f5357600080fd5b50565b60008151905062000f678162000f3c565b92915050565b60008115159050919050565b62000f848162000f6d565b811462000f9057600080fd5b50565b60008151905062000fa48162000f79565b92915050565b600060ff82169050919050565b62000fc28162000faa565b811462000fce57600080fd5b50565b60008151905062000fe28162000fb7565b92915050565b6000819050919050565b62000ffd8162000fe8565b81146200100957600080fd5b50565b6000815190506200101d8162000ff2565b92915050565b6000620010308262000f08565b9050919050565b620010428162001023565b81146200104e57600080fd5b50565b600081519050620010628162001037565b92915050565b600080600080600080600060e0888a0312156200108a576200108962000f03565b5b60006200109a8a828b0162000f56565b9750506020620010ad8a828b0162000f93565b9650506040620010c08a828b0162000fd1565b9550506060620010d38a828b0162000fd1565b9450506080620010e68a828b016200100c565b93505060a0620010f98a828b0162001051565b92505060c06200110c8a828b0162001051565b91505092959891949750929550565b620011268162000faa565b82525050565b620011378162000fe8565b82525050565b60006060820190506200115460008301866200111b565b6200116360208301856200111b565b6200117260408301846200112c565b949350505050565b7f4e487b7100000000000000000000000000000000000000000000000000000000600052601160045260246000fd5b6000620011b68262000faa565b9150620011c38362000faa565b9250828201905060ff811115620011df57620011de6200117a565b5b92915050565b6000604082019050620011fc60008301856200111b565b6200120b60208301846200111b565b9392505050565b600082825260208201905092915050565b7f4f776e61626c653a2063616c6c6572206973206e6f7420746865206f776e6572600082015250565b60006200125b60208362001212565b9150620012688262001223565b602082019050919050565b600060208201905081810360008301526200128e816200124c565b9050919050565b60805160a051615fe26200130f6000396000614e0c01526000818161137b0152818161194601528181611b6401528181611cae01528181611e7a01528181611fd801528181613283015281816133d4015281816135390152818161436d01528181614598015281816149850152614bb90152615fe26000f3fe60806040526004361061011f5760003560e01c80639548f477116100a0578063b2d1bb5211610064578063b2d1bb5214610357578063c72304ac14610380578063e0a66578146103ab578063f2fde38b146103d4578063feea1529146103fd5761011f565b80639548f477146102a65780639b58bfed146102cf5780639cb71686146102f85780639f23c9e214610324578063b26e099f146103405761011f565b80636a02fcc4116100e75780636a02fcc4146101f6578063715018a6146102125780637c522d28146102295780638da5cb5b1461025257806394aca02a1461027d5761011f565b80632b100f5c146101245780632b84301f1461013b578063529c0970146101645780635531e7741461018d57806358a93688146101c1575b600080fd5b34801561013057600080fd5b5061013961042a565b005b34801561014757600080fd5b50610162600480360381019061015d9190615121565b610b34565b005b34801561017057600080fd5b5061018b60048036038101906101869190615197565b610f5d565b005b34801561019957600080fd5b506101a261117f565b6040516101b89a999897969594939291906152ea565b60405180910390f35b3480156101cd57600080fd5b506101d6611250565b6040516101ed9b9a999897969594939291906153a7565b60405180910390f35b610210600480360381019061020b91906154b4565b6113bd565b005b34801561021e57600080fd5b5061022761221a565b005b34801561023557600080fd5b50610250600480360381019061024b9190615541565b61222e565b005b34801561025e57600080fd5b50610267612490565b604051610274919061556e565b60405180910390f35b34801561028957600080fd5b506102a4600480360381019061029f9190615541565b6124b9565b005b3480156102b257600080fd5b506102cd60048036038101906102c89190615589565b6125ff565b005b3480156102db57600080fd5b506102f660048036038101906102f191906155b6565b61295e565b005b34801561030457600080fd5b5061030d612c9d565b60405161031b9291906155f6565b60405180910390f35b61033e6004803603810190610339919061561f565b612d30565b005b34801561034c57600080fd5b50610355613788565b005b34801561036357600080fd5b5061037e60048036038101906103799190615589565b61387e565b005b34801561038c57600080fd5b50610395613c0e565b6040516103a2919061556e565b60405180910390f35b3480156103b757600080fd5b506103d260048036038101906103cd9190615541565b613c74565b005b3480156103e057600080fd5b506103fb60048036038101906103f69190615541565b613e8b565b005b34801561040957600080fd5b50610412613f0e565b6040516104219392919061569a565b60405180910390f35b61043e6798aff1916dc6fe5c60c01b613f63565b610446613f66565b61045a67316ae873c3b0d65260c01b613f63565b61046e67785e815b8640167c60c01b613f63565b610476613fb5565b61048a679464a2febef5c75560c01b613f63565b61049e674c6b8ac45693a93460c01b613f63565b6104b26777c7735b3477bffe60c01b613f63565b600260030160019054906101000a900473ffffffffffffffffffffffffffffffffffffffff1673ffffffffffffffffffffffffffffffffffffffff166104f6613fb5565b73ffffffffffffffffffffffffffffffffffffffff16141580156105725750600260040160009054906101000a900473ffffffffffffffffffffffffffffffffffffffff1673ffffffffffffffffffffffffffffffffffffffff16610559613fb5565b73ffffffffffffffffffffffffffffffffffffffff1614155b156105e35761058b677e15a1572077914c60c01b613f63565b61059f6743d964e4f4d407d760c01b613f63565b6105a7613fb5565b6040517f0f287a3f0000000000000000000000000000000000000000000000000000000081526004016105da919061556e565b60405180910390fd5b6105f767ed562aea97b93a2060c01b613f63565b61060b67c2bce17dcf6008f960c01b613f63565b61061f676d6639a61c9420d760c01b613f63565b610633672288b71f3535a40d60c01b613f63565b61064767e2853c1e3684a45960c01b613f63565b61065b6755391599e62d6dad60c01b613f63565b600047905061067467056ffcda836d95d260c01b613f63565b6106886791231038fa86a5af60c01b613f63565b600081036106ea576106a467798d04c4b635e93660c01b613f63565b6106b867043173a1044ec11f60c01b613f63565b6040517fad3a8b9e00000000000000000000000000000000000000000000000000000000815260040160405180910390fd5b6106fe67b1c811754c58059c60c01b613f63565b61071267b632e3e2d9df3b0160c01b613f63565b610726671afc8acb9840e48b60c01b613f63565b600073ffffffffffffffffffffffffffffffffffffffff16600260030160019054906101000a900473ffffffffffffffffffffffffffffffffffffffff1673ffffffffffffffffffffffffffffffffffffffff161415801561079e57506000600260000160019054906101000a900460ff1660ff1614155b1561093d576107b7674a0455f5a50dace760c01b613f63565b6107cb67ac8795a2330c1ce660c01b613f63565b6107df67bf0d77a33305324e60c01b613f63565b6000600260030160019054906101000a900473ffffffffffffffffffffffffffffffffffffffff1673ffffffffffffffffffffffffffffffffffffffff166064600260000160019054906101000a900460ff1660ff16846108409190615700565b61084a9190615771565b604051610856906157d3565b60006040518083038185875af1925050503d8060008114610893576040519150601f19603f3d011682016040523d82523d6000602084013e610898565b606091505b505090506108b067803b4435ff10ff4460c01b613f63565b6108c4670fd6633a4d7df2e260c01b613f63565b80610923576108dd67ec3d522782e00dc760c01b613f63565b6108f16783e74eaf0d6399ec60c01b613f63565b6040517f244ec49600000000000000000000000000000000000000000000000000000000815260040160405180910390fd5b61093767d883ebe0ef16095660c01b613f63565b50610952565b61095167a8b3dd6ac4f8c00560c01b613f63565b5b61096667c2eda4bb3e17412160c01b613f63565b61097a674bd769b9b6f0ce8c60c01b613f63565b6000600260040160009054906101000a900473ffffffffffffffffffffffffffffffffffffffff1673ffffffffffffffffffffffffffffffffffffffff166064600260000160029054906101000a900460ff1660ff16846109db9190615700565b6109e59190615771565b6040516109f1906157d3565b60006040518083038185875af1925050503d8060008114610a2e576040519150601f19603f3d011682016040523d82523d6000602084013e610a33565b606091505b50509050610a4b670d32db4db4b601c860c01b613f63565b610a5f67068d2ca023afe52460c01b613f63565b80610abe57610a78679d096f55b3b0831260c01b613f63565b610a8c67681d2e48273b5c5460c01b613f63565b6040517f244ec49600000000000000000000000000000000000000000000000000000000815260040160405180910390fd5b610ad2677d1da2c11949325e60c01b613f63565b610ae6675c7779a9b067cec860c01b613f63565b610afa67396830a43c5dc32b60c01b613f63565b427f5e4ae8571f79274a16bfb15067cbf26ceca499fd2d7aa8b710e08e697d46518060405160405180910390a2505050610b32613fbd565b565b610b4867f0da3ada82e8130a60c01b613f63565b610b50613fc6565b610b6467f649ea709e720dff60c01b613f63565b610b78672bb58669213e556860c01b613f63565b610b8c67b6da6d3f8c25e0c060c01b613f63565b610ba0676ac26eddff56504460c01b613f63565b6000429050610bb967ac50ee87a8a9b6c060c01b613f63565b610bcd67b820c1ef2fc62d3b60c01b613f63565b600260000160059054906101000a900460ff16610c2f57610bf86752be21a270d3ad3460c01b613f63565b610c0c67c2c3662d1fe12d4a60c01b613f63565b6001600260000160056101000a81548160ff021916908315150217905550610c44565b610c4367215d1fef5da6cb3c60c01b613f63565b5b610c58678a70a9912d70bcd660c01b613f63565b610c6c67b9637583e4fd3fa360c01b613f63565b60006002811115610c8057610c7f615232565b5b600260030160009054906101000a900460ff166002811115610ca557610ca4615232565b5b14610e4957610cbe67fe253824d247bc8760c01b613f63565b610cd267dd8a5596f3e9dbaf60c01b613f63565b610ce667e7745e4a7444581160c01b613f63565b60008360ff16148015610d095750610d0867dfb7d86d97227b2e60c01b614044565b5b80610d34575060008261ffff16148015610d335750610d32675a8afc59b2ecc19d60c01b614044565b5b5b15610d9357610d4d67b35f99ca4d9b794760c01b613f63565b610d6167b4bc53de7a66bc2360c01b613f63565b6040517f8f12086700000000000000000000000000000000000000000000000000000000815260040160405180910390fd5b610da76797960940cce1284260c01b613f63565b610dbb678d04bd95f8f1aa2d60c01b613f63565b6000600260030160006101000a81548160ff02191690836002811115610de457610de3615232565b5b0217905550610dfd67ba77d1294207e9f560c01b613f63565b610e1167b145ad458b0bcf2a60c01b613f63565b806000600115157fc4a8c097b5d93dcebaa4f0f65b88ca288e38ff724fa55d3d2af8ecd63c3c9be760405160405180910390a4610e5e565b610e5d67f014013be4ea5c3860c01b613f63565b5b610e72675ebd9759efc9fc2b60c01b613f63565b610e86675f26645bf54a813960c01b613f63565b610e90838361404f565b610ea467e8708527c0c7f09b60c01b613f63565b81600260000160036101000a81548161ffff021916908361ffff160217905550610ed86795176aea96e8662760c01b613f63565b82600260000160006101000a81548160ff021916908360ff160217905550610f0a67ef07b26f9005889660c01b613f63565b610f1e6717f7ff8ee0ecaac860c01b613f63565b807f422dd4708a15598e4d5684fba6e31da6e941a6751d420a03ed97e323d4c7cfe78484604051610f50929190615854565b60405180910390a2505050565b610f716743e34622f5ba7d2160c01b61410c565b610f79613fc6565b610f8d67a9d2f498aed3ceaa60c01b61410c565b610fa167466187744052421660c01b61410c565b610fb567010ce7a74e26c31d60c01b61410c565b610fc96791988976b8ea3ac160c01b61410c565b600083148015610fe95750610fe8679bdaf617acf19d7b60c01b61410f565b5b8061102c575082821115801561100f575061100e671ca35a89db2ce3e560c01b61410f565b5b801561102b575061102a674c398f25d05ff0f460c01b61410f565b5b5b8061105357506000811480156110525750611051672f0146bdfac543bb60c01b61410f565b5b5b156110b25761106c67c9e833bb0ac1c86760c01b61410c565b61108067b2b21bf8335f7b4560c01b61410c565b6040517f0eca686c00000000000000000000000000000000000000000000000000000000815260040160405180910390fd5b6110c6673ca3c438e0c456b560c01b61410c565b6110da67221801593173c3ef60c01b61410c565b826009819055506110f567880d9b555cd606d360c01b61410c565b81600a81905550611110677afcfb1e7311d5dc60c01b61410c565b80600b8190555061112b679c3aeff2d9842e9e60c01b61410c565b61113f67a09c58446008744b60c01b61410c565b7fb2efb0aa6e279553a1e5567ebb495d322192aa43c5fc3073cba4601d52009ab48383836040516111729392919061569a565b60405180910390a1505050565b60028060000160009054906101000a900460ff16908060000160019054906101000a900460ff16908060000160029054906101000a900460ff16908060000160039054906101000a900461ffff16908060000160059054906101000a900460ff16908060010154908060020154908060030160009054906101000a900460ff16908060030160019054906101000a900473ffffffffffffffffffffffffffffffffffffffff16908060040160009054906101000a900473ffffffffffffffffffffffffffffffffffffffff1690508a565b600080600080600080600080600080600061127567c9a172e8a720703460c01b613f63565b61128967b6004c2d1f867a2460c01b613f63565b61129d67152a9bce6d0af6b160c01b613f63565b600260000160059054906101000a900460ff16600260000160019054906101000a900460ff16600260000160029054906101000a900460ff16600260000160009054906101000a900460ff16600260000160039054906101000a900461ffff16600260030160009054906101000a900460ff16600281111561132257611321615232565b5b6002800154600260010154600260030160019054906101000a900473ffffffffffffffffffffffffffffffffffffffff16600260040160009054906101000a900473ffffffffffffffffffffffffffffffffffffffff167f00000000000000000000000000000000000000000000000000000000000000009a509a509a509a509a509a509a509a509a509a509a50909192939495969798999a565b6113d167cd3ea26cd4d7f56560c01b61410c565b846113e667f2153b3025c2cf4160c01b61410c565b6113fa670da29b6f44d5ffd560c01b61410c565b61140e67f897555b7aaee5e260c01b61410c565b6009548110801561142f575061142e678063647b569a289260c01b61410f565b5b806114575750600a54811180156114565750611455673a4f2042c352492d60c01b61410f565b5b5b156114b65761147067e46c89198a50c5ae60c01b61410c565b61148467cd71caea682558be60c01b61410c565b6040517f17dfb4ac00000000000000000000000000000000000000000000000000000000815260040160405180910390fd5b6114ca67d3de7e63123c707560c01b61410c565b6114de67949a51b9d9c02d8c60c01b61410c565b6114f267264d03eaf179a4a560c01b61410c565b6115066737b63def8db0470d60c01b61410c565b61150e613f66565b611522677bddbcf3037f159d60c01b61410c565b6115366752a84134b970998d60c01b61410c565b8661154b6726f982bdaee9ddae60c01b613f63565b61155f67043e93428f870cde60c01b613f63565b6115736783d504cc9b25eee660c01b613f63565b600073ffffffffffffffffffffffffffffffffffffffff168173ffffffffffffffffffffffffffffffffffffffff1603611601576115bb6708c65a462e5eeede60c01b613f63565b6115cf67dccf128358fa962560c01b613f63565b6040517fd92e233d00000000000000000000000000000000000000000000000000000000815260040160405180910390fd5b61161567f70d14915dd40d8c60c01b613f63565b61162967c11d9527ed3a452960c01b613f63565b61163d6710a2c27084eb3f1c60c01b61410c565b61165167881ba74012a5349460c01b61410c565b61166567c4f1a65ce73eeaa860c01b61410c565b611679673c6b1445cc5af42160c01b61410c565b600061168f67da07d6b99f3a9bd860c01b61410c565b6116a36714967530c8fb664b60c01b61410c565b60006116e1896116b1613fb5565b8a306040516020016116c694939291906159bb565b6040516020818303038152906040528051906020012061411a565b90506116f7671fb83be602df6ef060c01b61410c565b61170b67fafe08df2380022360c01b61410c565b600760009054906101000a900473ffffffffffffffffffffffffffffffffffffffff1673ffffffffffffffffffffffffffffffffffffffff16600182898989604051600081526020016040526040516117679493929190615a23565b6020604051602081039080840390855afa158015611789573d6000803e3d6000fd5b5050506020604051035173ffffffffffffffffffffffffffffffffffffffff1614611808576117c2676b12821b1a65478260c01b61410c565b6117d6674832a05810dbd54760c01b61410c565b6040517fa7a059bc00000000000000000000000000000000000000000000000000000000815260040160405180910390fd5b61181c6720ac486e0522d17360c01b61410c565b61183067a330b92b5ad56fa960c01b61410c565b61184467970aac16e5f390d260c01b61410c565b6008600082815260200190815260200160002060009054906101000a900460ff16156118c45761187e674de54ca961a6025a60c01b61410c565b61189267aa130ae8b88e1bc360c01b61410c565b6040517fcce9a82400000000000000000000000000000000000000000000000000000000815260040160405180910390fd5b6118d867247717e78a8809a260c01b61410c565b6118ec675055df14664a571c60c01b61410c565b60016008600083815260200190815260200160002060006101000a81548160ff02191690831515021790555061192c6710f1c8eab6cf321760c01b61410c565b61194067b169639a0cb036a060c01b61410c565b600b54897f000000000000000000000000000000000000000000000000000000000000000073ffffffffffffffffffffffffffffffffffffffff166318160ddd6040518163ffffffff1660e01b8152600401602060405180830381865afa1580156119af573d6000803e3d6000fd5b505050506040513d601f19601f820116820180604052508101906119d39190615a7d565b6119dd9190615aaa565b1115611a3d576119f7670ed6359e2d8ae91b60c01b61410c565b611a0b6726feb62186b39ecc60c01b61410c565b6040517f28b53d4500000000000000000000000000000000000000000000000000000000815260040160405180910390fd5b611a5167c5e0e8641c81acfd60c01b61410c565b611a656702484e253408574760c01b61410c565b611a79672545f4032e815f7760c01b61410c565b600260000160059054906101000a900460ff1615611fae57611aa567c69d0ef5f32ecb6860c01b61410c565b611ab9675f27bab2b1bf9e1c60c01b61410c565b611acd67496fd597853d25f460c01b61410c565b600280811115611ae057611adf615232565b5b600260030160009054906101000a900460ff166002811115611b0557611b04615232565b5b03611c8457611b1e6719218feefee1a24860c01b61410c565b611b3267283f1624eadc5bd560c01b61410c565b611b4667317e9c0e3049562360c01b61410c565b611b4e614186565b611b626793bca749781c9b8160c01b61410c565b7f000000000000000000000000000000000000000000000000000000000000000073ffffffffffffffffffffffffffffffffffffffff167f40c10f19c047ae7dfa66d6312b683d2ea3dfbcb4159e96b967c5f4b0a86f28428b8b604051602401611bcd929190615ade565b604051602081830303815290604052907bffffffffffffffffffffffffffffffffffffffffffffffffffffffff19166020820180517bffffffffffffffffffffffffffffffffffffffffffffffffffffffff8381831617835250505050604051611c379190615b6d565b6000604051808303816000865af19150503d8060008114611c74576040519150601f19603f3d011682016040523d82523d6000602084013e611c79565b606091505b505080925050611fa9565b611c98672a6ca087860972fd60c01b61410c565b611cac67fff9652840d0029660c01b61410c565b7f000000000000000000000000000000000000000000000000000000000000000073ffffffffffffffffffffffffffffffffffffffff167f40c10f19c047ae7dfa66d6312b683d2ea3dfbcb4159e96b967c5f4b0a86f2842308b604051602401611d17929190615ade565b604051602081830303815290604052907bffffffffffffffffffffffffffffffffffffffffffffffffffffffff19166020820180517bffffffffffffffffffffffffffffffffffffffffffffffffffffffff8381831617835250505050604051611d819190615b6d565b6000604051808303816000865af19150503d8060008114611dbe576040519150601f19603f3d011682016040523d82523d6000602084013e611dc3565b606091505b505080925050611ddd67503385feaed9191b60c01b61410c565b611df1679d565729ce411fac60c01b61410c565b81611e5057611e0a675f45ff4adc03b8d360c01b61410c565b611e1e671b4e581429ba4b9160c01b61410c565b6040517fcb57cf5500000000000000000000000000000000000000000000000000000000815260040160405180910390fd5b611e6467521341854652614260c01b61410c565b611e7867b7d2ce6a570f505d60c01b61410c565b7f000000000000000000000000000000000000000000000000000000000000000073ffffffffffffffffffffffffffffffffffffffff167fa9059cbb2ab09eb219583f4a59a5d0623ade346d962bcd4e46b11da047c9049b8b611eda8c614250565b8c611ee59190615b84565b604051602401611ef6929190615ade565b604051602081830303815290604052907bffffffffffffffffffffffffffffffffffffffffffffffffffffffff19166020820180517bffffffffffffffffffffffffffffffffffffffffffffffffffffffff8381831617835250505050604051611f609190615b6d565b6000604051808303816000865af19150503d8060008114611f9d576040519150601f19603f3d011682016040523d82523d6000602084013e611fa2565b606091505b5050809250505b6120f4565b611fc26705ce568ceadf695d60c01b61410c565b611fd66766148c39e9be2be560c01b61410c565b7f000000000000000000000000000000000000000000000000000000000000000073ffffffffffffffffffffffffffffffffffffffff167f40c10f19c047ae7dfa66d6312b683d2ea3dfbcb4159e96b967c5f4b0a86f28428b8b604051602401612041929190615ade565b604051602081830303815290604052907bffffffffffffffffffffffffffffffffffffffffffffffffffffffff19166020820180517bffffffffffffffffffffffffffffffffffffffffffffffffffffffff83818316178352505050506040516120ab9190615b6d565b6000604051808303816000865af19150503d80600081146120e8576040519150601f19603f3d011682016040523d82523d6000602084013e6120ed565b606091505b5050809250505b61210867c3e67768276d749160c01b61410c565b61211c67a9be1a3425fc875b60c01b61410c565b8161217b5761213567ab67f51ae8a70afd60c01b61410c565b6121496770bb27bdd207303b60c01b61410c565b6040517f384ec20400000000000000000000000000000000000000000000000000000000815260040160405180910390fd5b61218e667e190c2192c99760c01b61410c565b6121a26795aefc02293c8f2660c01b61410c565b6121b6675c0b7ffb0649d0cc60c01b61410c565b8973ffffffffffffffffffffffffffffffffffffffff167f62a9b3e6446ab559d6b82c4f02cc923cd3b4e47444ef86446dab81a4d781c5af898b6040516121fe929190615bb8565b60405180910390a2505050612211613fbd565b50505050505050565b612222613fc6565b61222c60006147a4565b565b61224267c36d110751c1b6d860c01b613f63565b61224a613fc6565b61225e671539cf29699c299460c01b613f63565b6122726783672ebdccdff11960c01b613f63565b806122876726f982bdaee9ddae60c01b613f63565b61229b67043e93428f870cde60c01b613f63565b6122af6783d504cc9b25eee660c01b613f63565b600073ffffffffffffffffffffffffffffffffffffffff168173ffffffffffffffffffffffffffffffffffffffff160361233d576122f76708c65a462e5eeede60c01b613f63565b61230b67dccf128358fa962560c01b613f63565b6040517fd92e233d00000000000000000000000000000000000000000000000000000000815260040160405180910390fd5b61235167f70d14915dd40d8c60c01b613f63565b61236567c11d9527ed3a452960c01b613f63565b61237967933ff74a3fa2011f60c01b613f63565b61238d67535f8e2c38452cca60c01b613f63565b6123a167055a21313af1705b60c01b613f63565b6123b567915d3aad32f06d8860c01b613f63565b8173ffffffffffffffffffffffffffffffffffffffff16600260040160009054906101000a900473ffffffffffffffffffffffffffffffffffffffff1673ffffffffffffffffffffffffffffffffffffffff167f62904549814f5511a5d36a62611a6e2fe1d2c29b6de74de25d95395e0a7d009b60405160405180910390a3612448671872b8a50af9339e60c01b613f63565b81600260040160006101000a81548173ffffffffffffffffffffffffffffffffffffffff021916908373ffffffffffffffffffffffffffffffffffffffff1602179055505050565b60008060009054906101000a900473ffffffffffffffffffffffffffffffffffffffff16905090565b6124cd676fbfc172696aa29160c01b613f63565b6124d5613fc6565b6124e967f57a1f8195c917de60c01b613f63565b6124fd6786e955ff9135e9ce60c01b613f63565b612511672a0dc3ae5e13ed0e60c01b613f63565b61252567fc0b89f62250ac7360c01b613f63565b8073ffffffffffffffffffffffffffffffffffffffff16600260030160019054906101000a900473ffffffffffffffffffffffffffffffffffffffff1673ffffffffffffffffffffffffffffffffffffffff167f62904549814f5511a5d36a62611a6e2fe1d2c29b6de74de25d95395e0a7d009b60405160405180910390a36125b8673fc2ebf7c37ef8a360c01b613f63565b80600260030160016101000a81548173ffffffffffffffffffffffffffffffffffffffff021916908373ffffffffffffffffffffffffffffffffffffffff16021790555050565b61261367f6bebf509566f8ed60c01b613f63565b61261b613fc6565b61262f6786e62c23482459a460c01b613f63565b612643676138accbeb13878560c01b613f63565b612657677656eff20643ac9160c01b613f63565b61266b674f22d9df5a4c33e260c01b613f63565b6000429050612684679ab3376d9bfbfb0460c01b613f63565b61269867e453830a2681987f60c01b613f63565b600260000160059054906101000a900460ff166126fa576126c367018de0f01c63754860c01b613f63565b6126d7679c15be51b639e65d60c01b613f63565b6001600260000160056101000a81548160ff02191690831515021790555061270f565b61270e6742195962980776a560c01b613f63565b5b612723679bdd02f18e77877c60c01b613f63565b61273767ecdb126ad7c5dd2260c01b613f63565b6001600281111561274b5761274a615232565b5b600260030160009054906101000a900460ff1660028111156127705761276f615232565b5b146128c8576127896783797a3351b6c6f860c01b613f63565b61279d67fcdfdc91fd173d4960c01b613f63565b6127b167590f7de7b06f642d60c01b613f63565b60008203612813576127cd6751a83c39cc9e57cf60c01b613f63565b6127e167e3682d672a48a4a460c01b613f63565b6040517fcdd848be00000000000000000000000000000000000000000000000000000000815260040160405180910390fd5b61282767bc74bbc128d5efb460c01b613f63565b61283b672c3eeffb14279c0160c01b613f63565b6001600260030160006101000a81548160ff0219169083600281111561286457612863615232565b5b021790555061287d6767caae9bee7ba57260c01b613f63565b612891678cb20b1e2a9ddf1360c01b613f63565b8060018015157fc4a8c097b5d93dcebaa4f0f65b88ca288e38ff724fa55d3d2af8ecd63c3c9be760405160405180910390a46128dd565b6128dc672ee685ea26f7dc9360c01b613f63565b5b6128f167bdee69e59725ef1460c01b613f63565b81600280018190555061290e677a597b39ca6d723e60c01b613f63565b61292267838b2072db51685160c01b613f63565b807f81f61b66aa862aaadf659b5ba822fcd562282026c64807a61769a8187d332a8a836040516129529190615be1565b60405180910390a25050565b6129726725e99f5d8e9813dd60c01b613f63565b61297a613fc6565b61298e679ff58ce2ac447ce260c01b613f63565b6129a2679c35aa2faf6e710a60c01b613f63565b81816129b867f48b5a2246bf506460c01b613f63565b6129cc67b48068eb68e110e860c01b613f63565b6129e067ea57c67678df968a60c01b613f63565b606460ff1681836129f19190615bfc565b60ff1614612a6057612a0d67fac91c9468bb0c5d60c01b613f63565b612a2167d9820a54db345eaa60c01b613f63565b81816040517f8efe3fd5000000000000000000000000000000000000000000000000000000008152600401612a57929190615c31565b60405180910390fd5b612a746741740c842ed2c74260c01b613f63565b612a8867826ecf2d226ee01b60c01b613f63565b612a9c6716d523cfb22ec5b360c01b613f63565b612ab06798025beb5cfa7b1e60c01b613f63565b612ac467436d7d41475704db60c01b613f63565b612ad867b3fd81c5b1f7dbeb60c01b613f63565b8360ff16600260000160019054906101000a900460ff1660ff1614612b4257612b0b67d9fd2cf2aa42cbe760c01b613f63565b612b1f671512905cdc9c28b860c01b613f63565b83600260000160016101000a81548160ff021916908360ff160217905550612b57565b612b5667c3edfb502758d30960c01b613f63565b5b612b6b67b4df77953c505b4760c01b613f63565b612b7f67fb91d9fed2b5687860c01b613f63565b60008360ff1614158015612bab57508260ff16600260000160029054906101000a900460ff1660ff1614155b15612bfb57612bc467cd1864281daf3f4360c01b613f63565b612bd8673d60900b4e84e41d60c01b613f63565b82600260000160026101000a81548160ff021916908360ff160217905550612c10565b612c0f6757a583417d46df8960c01b613f63565b5b612c246785b2d7430922323660c01b613f63565b612c3867edbb58b649b803e760c01b613f63565b7f8849d9036ec7068880bd56182e37500d89a0664b4800e4b44fba2e01a6940501600260000160019054906101000a900460ff16600260000160029054906101000a900460ff1642604051612c8f93929190615c5a565b60405180910390a150505050565b600080612cb467888da69b065dc7e860c01b613f63565b612cc8677165a9ba7b5e1fff60c01b613f63565b612cdc671cebc041d307c0b860c01b613f63565b600260030160019054906101000a900473ffffffffffffffffffffffffffffffffffffffff16600260040160009054906101000a900473ffffffffffffffffffffffffffffffffffffffff16915091509091565b612d4467c38053be4bbbee9060c01b61410c565b84612d5967f2153b3025c2cf4160c01b61410c565b612d6d670da29b6f44d5ffd560c01b61410c565b612d8167f897555b7aaee5e260c01b61410c565b60095481108015612da25750612da1678063647b569a289260c01b61410f565b5b80612dca5750600a5481118015612dc95750612dc8673a4f2042c352492d60c01b61410f565b5b5b15612e2957612de367e46c89198a50c5ae60c01b61410c565b612df767cd71caea682558be60c01b61410c565b6040517f17dfb4ac00000000000000000000000000000000000000000000000000000000815260040160405180910390fd5b612e3d67d3de7e63123c707560c01b61410c565b612e5167949a51b9d9c02d8c60c01b61410c565b612e65675d0a152ae41a3fcb60c01b61410c565b612e79676448729576d3670160c01b61410c565b612e81613f66565b612e9567655354b0955baeb060c01b61410c565b612ea967d32ec79fcb15962360c01b61410c565b612ebd6768f79b485126240e60c01b61410c565b612ed16786a459b68515c77360c01b61410c565b6000612ee7679982697eddec73c460c01b61410c565b612efb67dc135a090de7a9c460c01b61410c565b6000612f3988612f09613fb5565b8930604051602001612f1e9493929190615cdd565b6040516020818303038152906040528051906020012061411a565b9050612f4f67071b19d2f8a1f27160c01b61410c565b612f6367842422ca3cff92de60c01b61410c565b600760009054906101000a900473ffffffffffffffffffffffffffffffffffffffff1673ffffffffffffffffffffffffffffffffffffffff1660018288888860405160008152602001604052604051612fbf9493929190615a23565b6020604051602081039080840390855afa158015612fe1573d6000803e3d6000fd5b5050506020604051035173ffffffffffffffffffffffffffffffffffffffff16146130605761301a679f017bd105d298b060c01b61410c565b61302e67d8a115e647656c2060c01b61410c565b6040517fa7a059bc00000000000000000000000000000000000000000000000000000000815260040160405180910390fd5b613074676aefad32dfa9dc5360c01b61410c565b61308867c83fffba849dad9b60c01b61410c565b61309c67bc172295bd4dd26460c01b61410c565b6008600082815260200190815260200160002060009054906101000a900460ff161561311c576130d667c2e50e118afc5cdb60c01b61410c565b6130ea67f0ef37a4c011daf160c01b61410c565b6040517fcce9a82400000000000000000000000000000000000000000000000000000000815260040160405180910390fd5b61313067f318262ba3b05c0160c01b61410c565b61314467c0834a76713d3fbd60c01b61410c565b60016008600083815260200190815260200160002060006101000a81548160ff021916908315150217905550613184678ec8a3f028a6bd3960c01b61410c565b6131986730673fe27f442e7560c01b61410c565b600260000160059054906101000a900460ff161561350f576131c4675393f76941b9868960c01b61410c565b6131d867bdc6f5a4bbb6424860c01b61410c565b6131ec67515d7310f0eb6a4e60c01b61410c565b6002808111156131ff576131fe615232565b5b600260030160009054906101000a900460ff16600281111561322457613223615232565b5b036133aa5761323d673d2f3b982d1da56960c01b61410c565b61325167d7b712be5a029c7760c01b61410c565b61326567e45ece3b94420c5760c01b61410c565b61326d614186565b613281677f2b3c6f4c91fa1960c01b61410c565b7f000000000000000000000000000000000000000000000000000000000000000073ffffffffffffffffffffffffffffffffffffffff167f79cc679044ee9a2021f0a26c0fdec02ac39179cd005bb971a471b7f9f17c576c6132e1613fb5565b8a6040516024016132f3929190615ade565b604051602081830303815290604052907bffffffffffffffffffffffffffffffffffffffffffffffffffffffff19166020820180517bffffffffffffffffffffffffffffffffffffffffffffffffffffffff838183161783525050505060405161335d9190615b6d565b6000604051808303816000865af19150503d806000811461339a576040519150601f19603f3d011682016040523d82523d6000602084013e61339f565b606091505b50508092505061350a565b6133be67f1b3f3c54282545760c01b61410c565b6133d267a83817500a621aa960c01b61410c565b7f000000000000000000000000000000000000000000000000000000000000000073ffffffffffffffffffffffffffffffffffffffff167f79cc679044ee9a2021f0a26c0fdec02ac39179cd005bb971a471b7f9f17c576c613432613fb5565b61343b8b614868565b8b6134469190615b84565b604051602401613457929190615ade565b604051602081830303815290604052907bffffffffffffffffffffffffffffffffffffffffffffffffffffffff19166020820180517bffffffffffffffffffffffffffffffffffffffffffffffffffffffff83818316178352505050506040516134c19190615b6d565b6000604051808303816000865af19150503d80600081146134fe576040519150601f19603f3d011682016040523d82523d6000602084013e613503565b606091505b5050809250505b61365c565b61352367fa1ce6a75b61ea3660c01b61410c565b61353767e8acc66202d15ef360c01b61410c565b7f000000000000000000000000000000000000000000000000000000000000000073ffffffffffffffffffffffffffffffffffffffff167f79cc679044ee9a2021f0a26c0fdec02ac39179cd005bb971a471b7f9f17c576c613597613fb5565b8a6040516024016135a9929190615ade565b604051602081830303815290604052907bffffffffffffffffffffffffffffffffffffffffffffffffffffffff19166020820180517bffffffffffffffffffffffffffffffffffffffffffffffffffffffff83818316178352505050506040516136139190615b6d565b6000604051808303816000865af19150503d8060008114613650576040519150601f19603f3d011682016040523d82523d6000602084013e613655565b606091505b5050809250505b61367067e1feec84d4a0fb2860c01b61410c565b61368467c1d7c4f8c10e1b3660c01b61410c565b816136e35761369d67d680d10131812b3c60c01b61410c565b6136b16795b58da7717d538f60c01b61410c565b6040517f384ec20400000000000000000000000000000000000000000000000000000000815260040160405180910390fd5b6136f76763562e86823b5af860c01b61410c565b61370b67fcdb01e3ce6277fc60c01b61410c565b61371f6738d4e15b2d252a2060c01b61410c565b613727613fb5565b73ffffffffffffffffffffffffffffffffffffffff167fb999b06746a947f1958636b9b9377ae814fe578413dfffd4d3a7a96196fe02fc888a60405161376e929190615bb8565b60405180910390a25050613780613fbd565b505050505050565b61379c6769bc558483ffe80260c01b613f63565b6137a4613fc6565b6137b8674778f64de7cde56960c01b613f63565b6137cc67dac74ff36476c90060c01b613f63565b6137e0676deeef46e6f5286d60c01b613f63565b6000600260000160056101000a81548160ff02191690831515021790555061381267571845e28134711460c01b613f63565b613826671a52f4332212ebc860c01b613f63565b42600260030160009054906101000a900460ff16600281111561384c5761384b615232565b5b600015157fc4a8c097b5d93dcebaa4f0f65b88ca288e38ff724fa55d3d2af8ecd63c3c9be760405160405180910390a4565b61389267379f28de7d76db1860c01b613f63565b61389a613fc6565b6138ae67d7fdeca27e952dd060c01b613f63565b6138c26787ef6a37eca4b00160c01b613f63565b6138d667d47af1bc757df50360c01b613f63565b6138ea67e4a415a19974ccfd60c01b613f63565b600042905061390367e6d1623ab081e58260c01b613f63565b613917676eb38efe8e13e84560c01b613f63565b600260000160059054906101000a900460ff166139795761394267c36a40953380310160c01b613f63565b61395667ef284b8f51d91f5b60c01b613f63565b6001600260000160056101000a81548160ff02191690831515021790555061398e565b61398d676da70845dcf79db660c01b613f63565b5b6139a267b5a632c7474ef5c860c01b613f63565b6139b6675aaec8a97298f6aa60c01b613f63565b6002808111156139c9576139c8615232565b5b600260030160009054906101000a900460ff1660028111156139ee576139ed615232565b5b14613b4657613a07672ad26ac8c242bea560c01b613f63565b613a1b675ec43c3031f3d7a560c01b613f63565b613a2f6705b086c48bd883db60c01b613f63565b60008203613a9157613a4b6787de4463e038ab2360c01b613f63565b613a5f67d61305e2b87e675760c01b613f63565b6040517f4d05b1ad00000000000000000000000000000000000000000000000000000000815260040160405180910390fd5b613aa567326b09cc280b130560c01b613f63565b613ab967ccbfc6331071276660c01b613f63565b60028060030160006101000a81548160ff02191690836002811115613ae157613ae0615232565b5b0217905550613afa678380ffa549a064c060c01b613f63565b613b0e6753de276185fce1c960c01b613f63565b806002600115157fc4a8c097b5d93dcebaa4f0f65b88ca288e38ff724fa55d3d2af8ecd63c3c9be760405160405180910390a4613b5b565b613b5a67b15cb910cd65a45760c01b613f63565b5b613b6f67eb7dabb72cc26bdf60c01b613f63565b613b8367d517584215a1f90060c01b613f63565b613b8c82614dce565b613ba0675ddd8aca6f706bf160c01b613f63565b81600260010181905550613bbe67759fce04b480ab5f60c01b613f63565b613bd267b42e53ce8397893260c01b613f63565b807fb5277ec6eaac4c7f711dcdecd6b7951d4cff3badcfb82ca3a735e6bafedd82bc83604051613c029190615be1565b60405180910390a25050565b6000613c2467f10690efc061420360c01b61410c565b613c38675c1af6c3e5c67df860c01b61410c565b613c4c67a3f67d87c5af1eda60c01b61410c565b600760009054906101000a900473ffffffffffffffffffffffffffffffffffffffff16905090565b613c88670281709c64271cdf60c01b61410c565b80613c9d6726f982bdaee9ddae60c01b613f63565b613cb167043e93428f870cde60c01b613f63565b613cc56783d504cc9b25eee660c01b613f63565b600073ffffffffffffffffffffffffffffffffffffffff168173ffffffffffffffffffffffffffffffffffffffff1603613d5357613d0d6708c65a462e5eeede60c01b613f63565b613d2167dccf128358fa962560c01b613f63565b6040517fd92e233d00000000000000000000000000000000000000000000000000000000815260040160405180910390fd5b613d6767f70d14915dd40d8c60c01b613f63565b613d7b67c11d9527ed3a452960c01b613f63565b613d8f678a87942ca0393fc060c01b61410c565b613da36705d41df31241c84460c01b61410c565b613dab613fc6565b613dbf6724bad4aa53e7f55860c01b61410c565b613dd367470cdab805e324e260c01b61410c565b613de76796b2ab64e2dcba4d60c01b61410c565b81600760006101000a81548173ffffffffffffffffffffffffffffffffffffffff021916908373ffffffffffffffffffffffffffffffffffffffff160217905550613e3c672b1f866306a0f0e960c01b61410c565b613e506781f4834639c85b9d60c01b61410c565b7f08f53e6a9fbc3949bc0b9266bbe1927f0b282a34d92876ccbe188c24d17c6cbb82604051613e7f919061556e565b60405180910390a15050565b613e93613fc6565b600073ffffffffffffffffffffffffffffffffffffffff168173ffffffffffffffffffffffffffffffffffffffff1603613f02576040517f08c379a0000000000000000000000000000000000000000000000000000000008152600401613ef990615db9565b60405180910390fd5b613f0b816147a4565b50565b6000806000613f27678f636ff3616d20d560c01b61410c565b613f3b67e4faaa5cabb205d060c01b61410c565b613f4f67404fac168edbce0b60c01b61410c565b600954600a54600b54925092509250909192565b50565b600260015403613fab576040517f08c379a0000000000000000000000000000000000000000000000000000000008152600401613fa290615e25565b60405180910390fd5b6002600181905550565b600033905090565b60018081905550565b613fce613fb5565b73ffffffffffffffffffffffffffffffffffffffff16613fec612490565b73ffffffffffffffffffffffffffffffffffffffff1614614042576040517f08c379a000000000000000000000000000000000000000000000000000000000815260040161403990615e91565b60405180910390fd5b565b600060019050919050565b61406367f28f16f9f764785d60c01b613f63565b61407767801a8dbcb618eae060c01b613f63565b61408b67c1f4453dcf1c7f7f60c01b613f63565b8061ffff168260ff1611156140f4576140ae67abb8a729d509b2fb60c01b613f63565b6140c26716777e7791441e3b60c01b613f63565b6040517feaf5947400000000000000000000000000000000000000000000000000000000815260040160405180910390fd5b61410867d93260f0ddb641e660c01b613f63565b5050565b50565b600060019050919050565b6000614130675a58f2c3403fe83660c01b61410c565b61414467e7a7941d4bf3141360c01b61410c565b6141586746c3c6c2d6b2007a60c01b61410c565b816040516020016141699190615efd565b604051602081830303815290604052805190602001209050919050565b61419a67b0f77ff06c21439c60c01b613f63565b6141ae673b6b2e3434b9ca2360c01b613f63565b6141c267c644275f00684f6760c01b613f63565b600260010154341461423a576141e267d3a0fc2a5fce236d60c01b613f63565b6141f667585cfdc67f10b18d60c01b613f63565b346002600101546040517fd326bf05000000000000000000000000000000000000000000000000000000008152600401614231929190615f23565b60405180910390fd5b61424e67f3f37191353371bc60c01b613f63565b565b6000614266677bcb707bb46d858060c01b613f63565b61427a67f9c5123e1f36ef9660c01b613f63565b61428e67397e657f09f6108460c01b613f63565b60008061429a84614ea3565b915091506142b267fda264c639080af160c01b613f63565b6142c6677aee11247d61fdf560c01b613f63565b600073ffffffffffffffffffffffffffffffffffffffff16600260030160019054906101000a900473ffffffffffffffffffffffffffffffffffffffff1673ffffffffffffffffffffffffffffffffffffffff16141580156143285750818114155b156145575761434167b55e8db1a985dea360c01b613f63565b61435567d9812de961715a0a60c01b613f63565b6143696747cd2d0e89c561ac60c01b613f63565b60007f000000000000000000000000000000000000000000000000000000000000000073ffffffffffffffffffffffffffffffffffffffff167fa9059cbb2ab09eb219583f4a59a5d0623ade346d962bcd4e46b11da047c9049b600260030160019054906101000a900473ffffffffffffffffffffffffffffffffffffffff1685856143f59190615b84565b604051602401614406929190615f4c565b604051602081830303815290604052907bffffffffffffffffffffffffffffffffffffffffffffffffffffffff19166020820180517bffffffffffffffffffffffffffffffffffffffffffffffffffffffff83818316178352505050506040516144709190615b6d565b6000604051808303816000865af19150503d80600081146144ad576040519150601f19603f3d011682016040523d82523d6000602084013e6144b2565b606091505b505090506144ca67c2ee2098c76b8bc960c01b613f63565b6144de67a1c1a9373520fc2460c01b613f63565b8061453d576144f7671503bd0e83ea35f260c01b613f63565b61450b676f99511bab31c6fe60c01b613f63565b6040517fd291274f00000000000000000000000000000000000000000000000000000000815260040160405180910390fd5b61455167db137fae7693cf9560c01b613f63565b5061456c565b61456b676459650ecbf074ce60c01b613f63565b5b614580674a1ff3c50923213e60c01b613f63565b614594673c4b0e4ae43fcf6c60c01b613f63565b60007f000000000000000000000000000000000000000000000000000000000000000073ffffffffffffffffffffffffffffffffffffffff167fa9059cbb2ab09eb219583f4a59a5d0623ade346d962bcd4e46b11da047c9049b600260040160009054906101000a900473ffffffffffffffffffffffffffffffffffffffff1685604051602401614626929190615f4c565b604051602081830303815290604052907bffffffffffffffffffffffffffffffffffffffffffffffffffffffff19166020820180517bffffffffffffffffffffffffffffffffffffffffffffffffffffffff83818316178352505050506040516146909190615b6d565b6000604051808303816000865af19150503d80600081146146cd576040519150601f19603f3d011682016040523d82523d6000602084013e6146d2565b606091505b505090506146ea672a00a9920a47076a60c01b613f63565b6146fe6719e4f52f8027939260c01b613f63565b8061475d57614717677f8206a2f1e2e50a60c01b613f63565b61472b67faf34fba89f731d860c01b613f63565b6040517fd291274f00000000000000000000000000000000000000000000000000000000815260040160405180910390fd5b61477167e2370b6ed311968a60c01b613f63565b61478567f9cfbcf47c24566660c01b613f63565b61479967936ac0771ec70d7560c01b613f63565b819350505050919050565b60008060009054906101000a900473ffffffffffffffffffffffffffffffffffffffff169050816000806101000a81548173ffffffffffffffffffffffffffffffffffffffff021916908373ffffffffffffffffffffffffffffffffffffffff1602179055508173ffffffffffffffffffffffffffffffffffffffff168173ffffffffffffffffffffffffffffffffffffffff167f8be0079c531659141344cd1fd0a4f28419497f9722a3daafe3b4186f6b6457e060405160405180910390a35050565b600061487e671cc273576fd639a660c01b613f63565b614892677ac7835871cc28f260c01b613f63565b6148a6671c6ac1f80639091360c01b613f63565b6000806148b284614ea3565b915091506148ca6735a13a91ecf078b360c01b613f63565b6148de6735a60e7dbfad31ca60c01b613f63565b600073ffffffffffffffffffffffffffffffffffffffff16600260030160019054906101000a900473ffffffffffffffffffffffffffffffffffffffff1673ffffffffffffffffffffffffffffffffffffffff16141580156149405750818114155b15614b785761495967df1ade2c2cd6a74e60c01b613f63565b61496d6729e1863351d1556460c01b613f63565b6149816721e580a21c85ce3160c01b613f63565b60007f000000000000000000000000000000000000000000000000000000000000000073ffffffffffffffffffffffffffffffffffffffff167f23b872dd7302113369cda2901243429419bec145408fa8b352b3dd92b66c680b6149e3613fb5565b600260030160019054906101000a900473ffffffffffffffffffffffffffffffffffffffff168686614a159190615b84565b604051602401614a2793929190615f75565b604051602081830303815290604052907bffffffffffffffffffffffffffffffffffffffffffffffffffffffff19166020820180517bffffffffffffffffffffffffffffffffffffffffffffffffffffffff8381831617835250505050604051614a919190615b6d565b6000604051808303816000865af19150503d8060008114614ace576040519150601f19603f3d011682016040523d82523d6000602084013e614ad3565b606091505b50509050614aeb67bc8838b7977470aa60c01b613f63565b614aff67a5be249d3c902a1b60c01b613f63565b80614b5e57614b1867ea6dca84ced2663060c01b613f63565b614b2c6754f6ef294072901c60c01b613f63565b6040517fd291274f00000000000000000000000000000000000000000000000000000000815260040160405180910390fd5b614b72679d0a49f46aac101360c01b613f63565b50614b8d565b614b8c67d8c3cdf0171f69fa60c01b613f63565b5b614ba16754aad10986f89d4360c01b613f63565b614bb5674c3d01bf10fa4fa260c01b613f63565b60007f000000000000000000000000000000000000000000000000000000000000000073ffffffffffffffffffffffffffffffffffffffff167f23b872dd7302113369cda2901243429419bec145408fa8b352b3dd92b66c680b614c17613fb5565b600260040160009054906101000a900473ffffffffffffffffffffffffffffffffffffffff1686604051602401614c5093929190615f75565b604051602081830303815290604052907bffffffffffffffffffffffffffffffffffffffffffffffffffffffff19166020820180517bffffffffffffffffffffffffffffffffffffffffffffffffffffffff8381831617835250505050604051614cba9190615b6d565b6000604051808303816000865af19150503d8060008114614cf7576040519150601f19603f3d011682016040523d82523d6000602084013e614cfc565b606091505b50509050614d14678a160dfbcb6c7bdf60c01b613f63565b614d2867e6d3f12e44f4b3f960c01b613f63565b80614d8757614d416708cb931aaa95350f60c01b613f63565b614d556708d823340698501060c01b613f63565b6040517fd291274f00000000000000000000000000000000000000000000000000000000815260040160405180910390fd5b614d9b67c8a3ae097241a3bc60c01b613f63565b614daf679c8c010dcba9aa6160c01b613f63565b614dc367e5cbc71a3d6454a160c01b613f63565b819350505050919050565b614de267200bf049ec3a336660c01b613f63565b614df6676c805fb24582d53060c01b613f63565b614e0a67ae6640b4cb2c315660c01b613f63565b7f0000000000000000000000000000000000000000000000000000000000000000811115614e8c57614e46679f834e10961218cd60c01b613f63565b614e5a6778efb028819602dd60c01b613f63565b6040517f4ea10e1600000000000000000000000000000000000000000000000000000000815260040160405180910390fd5b614ea067569e29691fc03c3b60c01b613f63565b50565b600080614eba678f134f30bdfb3a5160c01b613f63565b614ece67225986c41821526460c01b613f63565b614ee267c385ac3f7a6da3cb60c01b613f63565b60006002811115614ef657614ef5615232565b5b600260030160009054906101000a900460ff166002811115614f1b57614f1a615232565b5b03614fdf57614f34675fcf3523b8b6ceae60c01b613f63565b614f48674db4ca7f1ac4236460c01b613f63565b614f5c6765c800c3c300ef7060c01b613f63565b6000600260000160039054906101000a900461ffff1661ffff16600260000160009054906101000a900460ff1660ff1685614f979190615700565b614fa19190615771565b9050614fb767c3e9def9fe5182c960c01b613f63565b614fcb67db324a2dee3585fa60c01b613f63565b614fd481615037565b819250925050615032565b614ff367edc4255ccf1dd1db60c01b613f63565b61500767be9a00d90198806460c01b613f63565b61501b675053ff483be1644d60c01b613f63565b6150286002800154615037565b6002800154915091505b915091565b600061504d6723fe860c4ff4ad6e60c01b613f63565b61506167089f308b50f1217560c01b613f63565b615075678e75d0ce8078018560c01b613f63565b6064600260000160029054906101000a900460ff1660ff16836150989190615700565b6150a29190615771565b9050919050565b600080fd5b600060ff82169050919050565b6150c4816150ae565b81146150cf57600080fd5b50565b6000813590506150e1816150bb565b92915050565b600061ffff82169050919050565b6150fe816150e7565b811461510957600080fd5b50565b60008135905061511b816150f5565b92915050565b60008060408385031215615138576151376150a9565b5b6000615146858286016150d2565b92505060206151578582860161510c565b9150509250929050565b6000819050919050565b61517481615161565b811461517f57600080fd5b50565b6000813590506151918161516b565b92915050565b6000806000606084860312156151b0576151af6150a9565b5b60006151be86828701615182565b93505060206151cf86828701615182565b92505060406151e086828701615182565b9150509250925092565b6151f3816150ae565b82525050565b615202816150e7565b82525050565b60008115159050919050565b61521d81615208565b82525050565b61522c81615161565b82525050565b7f4e487b7100000000000000000000000000000000000000000000000000000000600052602160045260246000fd5b6003811061527257615271615232565b5b50565b600081905061528382615261565b919050565b600061529382615275565b9050919050565b6152a381615288565b82525050565b600073ffffffffffffffffffffffffffffffffffffffff82169050919050565b60006152d4826152a9565b9050919050565b6152e4816152c9565b82525050565b600061014082019050615300600083018d6151ea565b61530d602083018c6151ea565b61531a604083018b6151ea565b615327606083018a6151f9565b6153346080830189615214565b61534160a0830188615223565b61534e60c0830187615223565b61535b60e083018661529a565b6153696101008301856152db565b6153776101208301846152db565b9b9a5050505050505050505050565b6000615391826152a9565b9050919050565b6153a181615386565b82525050565b6000610160820190506153bd600083018e615214565b6153ca602083018d6151ea565b6153d7604083018c6151ea565b6153e4606083018b6151ea565b6153f1608083018a6151f9565b6153fe60a0830189615223565b61540b60c0830188615223565b61541860e0830187615223565b6154266101008301866152db565b6154346101208301856152db565b615442610140830184615398565b9c9b505050505050505050505050565b61545b81615386565b811461546657600080fd5b50565b60008135905061547881615452565b92915050565b6000819050919050565b6154918161547e565b811461549c57600080fd5b50565b6000813590506154ae81615488565b92915050565b60008060008060008060c087890312156154d1576154d06150a9565b5b60006154df89828a01615469565b96505060206154f089828a01615182565b955050604061550189828a0161549f565b945050606061551289828a016150d2565b935050608061552389828a0161549f565b92505060a061553489828a0161549f565b9150509295509295509295565b600060208284031215615557576155566150a9565b5b600061556584828501615469565b91505092915050565b60006020820190506155836000830184615398565b92915050565b60006020828403121561559f5761559e6150a9565b5b60006155ad84828501615182565b91505092915050565b600080604083850312156155cd576155cc6150a9565b5b60006155db858286016150d2565b92505060206155ec858286016150d2565b9150509250929050565b600060408201905061560b6000830185615398565b6156186020830184615398565b9392505050565b600080600080600060a0868803121561563b5761563a6150a9565b5b600061564988828901615182565b955050602061565a8882890161549f565b945050604061566b888289016150d2565b935050606061567c8882890161549f565b925050608061568d8882890161549f565b9150509295509295909350565b60006060820190506156af6000830186615223565b6156bc6020830185615223565b6156c96040830184615223565b949350505050565b7f4e487b7100000000000000000000000000000000000000000000000000000000600052601160045260246000fd5b600061570b82615161565b915061571683615161565b925082820261572481615161565b9150828204841483151761573b5761573a6156d1565b5b5092915050565b7f4e487b7100000000000000000000000000000000000000000000000000000000600052601260045260246000fd5b600061577c82615161565b915061578783615161565b92508261579757615796615742565b5b828204905092915050565b600081905092915050565b50565b60006157bd6000836157a2565b91506157c8826157ad565b600082019050919050565b60006157de826157b0565b9150819050919050565b6000819050919050565b600061580d615808615803846150ae565b6157e8565b615161565b9050919050565b61581d816157f2565b82525050565b600061583e615839615834846150e7565b6157e8565b615161565b9050919050565b61584e81615823565b82525050565b60006040820190506158696000830185615814565b6158766020830184615845565b9392505050565b600081905092915050565b7f5f5f636f6e76657273696f6e496e000000000000000000000000000000000000600082015250565b60006158be600e8361587d565b91506158c982615888565b600e82019050919050565b6000819050919050565b6158ef6158ea82615161565b6158d4565b82525050565b60008160601b9050919050565b600061590d826158f5565b9050919050565b600061591f82615902565b9050919050565b61593761593282615386565b615914565b82525050565b6000819050919050565b6159586159538261547e565b61593d565b82525050565b600061597961597461596f846152a9565b6157e8565b6152a9565b9050919050565b600061598b8261595e565b9050919050565b600061599d82615980565b9050919050565b6159b56159b082615992565b615914565b82525050565b60006159c6826158b1565b91506159d282876158de565b6020820191506159e28286615926565b6014820191506159f28285615947565b602082019150615a0282846159a4565b60148201915081905095945050505050565b615a1d8161547e565b82525050565b6000608082019050615a386000830187615a14565b615a4560208301866151ea565b615a526040830185615a14565b615a5f6060830184615a14565b95945050505050565b600081519050615a778161516b565b92915050565b600060208284031215615a9357615a926150a9565b5b6000615aa184828501615a68565b91505092915050565b6000615ab582615161565b9150615ac083615161565b9250828201905080821115615ad857615ad76156d1565b5b92915050565b6000604082019050615af36000830185615398565b615b006020830184615223565b9392505050565b600081519050919050565b60005b83811015615b30578082015181840152602081019050615b15565b60008484015250505050565b6000615b4782615b07565b615b5181856157a2565b9350615b61818560208601615b12565b80840191505092915050565b6000615b798284615b3c565b915081905092915050565b6000615b8f82615161565b9150615b9a83615161565b9250828203905081811115615bb257615bb16156d1565b5b92915050565b6000604082019050615bcd6000830185615a14565b615bda6020830184615223565b9392505050565b6000602082019050615bf66000830184615223565b92915050565b6000615c07826150ae565b9150615c12836150ae565b9250828201905060ff811115615c2b57615c2a6156d1565b5b92915050565b6000604082019050615c4660008301856151ea565b615c5360208301846151ea565b9392505050565b6000606082019050615c6f60008301866151ea565b615c7c60208301856151ea565b615c896040830184615223565b949350505050565b7f5f5f636f6e76657273696f6e4f75740000000000000000000000000000000000600082015250565b6000615cc7600f8361587d565b9150615cd282615c91565b600f82019050919050565b6000615ce882615cba565b9150615cf482876158de565b602082019150615d048286615926565b601482019150615d148285615947565b602082019150615d2482846159a4565b60148201915081905095945050505050565b600082825260208201905092915050565b7f4f776e61626c653a206e6577206f776e657220697320746865207a65726f206160008201527f6464726573730000000000000000000000000000000000000000000000000000602082015250565b6000615da3602683615d36565b9150615dae82615d47565b604082019050919050565b60006020820190508181036000830152615dd281615d96565b9050919050565b7f5265656e7472616e637947756172643a207265656e7472616e742063616c6c00600082015250565b6000615e0f601f83615d36565b9150615e1a82615dd9565b602082019050919050565b60006020820190508181036000830152615e3e81615e02565b9050919050565b7f4f776e61626c653a2063616c6c6572206973206e6f7420746865206f776e6572600082015250565b6000615e7b602083615d36565b9150615e8682615e45565b602082019050919050565b60006020820190508181036000830152615eaa81615e6e565b9050919050565b7f19457468657265756d205369676e6564204d6573736167653a0a333200000000600082015250565b6000615ee7601c8361587d565b9150615ef282615eb1565b601c82019050919050565b6000615f0882615eda565b9150615f148284615947565b60208201915081905092915050565b6000604082019050615f386000830185615223565b615f456020830184615223565b9392505050565b6000604082019050615f6160008301856152db565b615f6e6020830184615223565b9392505050565b6000606082019050615f8a6000830186615398565b615f9760208301856152db565b615fa46040830184615223565b94935050505056fea26469706673582212209880132be9c7fbf7d2f08c581a5d17709f849319433e911bb25c40e09472d16c64736f6c63430008130033","opcodes":"PUSH1 0xC0 PUSH1 0x40 MSTORE CALLVALUE DUP1 ISZERO PUSH3 0x11 JUMPI PUSH1 0x0 DUP1 REVERT JUMPDEST POP PUSH1 0x40 MLOAD PUSH3 0x72F1 CODESIZE SUB DUP1 PUSH3 0x72F1 DUP4 CODECOPY DUP2 DUP2 ADD PUSH1 0x40 MSTORE DUP2 ADD SWAP1 PUSH3 0x37 SWAP2 SWAP1 PUSH3 0x1068 JUMP JUMPDEST DUP7 DUP7 DUP7 DUP7 DUP7 DUP7 DUP7 PUSH3 0x5E PUSH3 0x52 PUSH3 0x964 PUSH1 0x20 SHL PUSH1 0x20 SHR JUMP JUMPDEST PUSH3 0x96C PUSH1 0x20 SHL PUSH1 0x20 SHR JUMP JUMPDEST PUSH1 0x1 DUP1 DUP2 SWAP1 SSTORE POP DUP7 PUSH3 0x82 PUSH8 0x26F982BDAEE9DDAE PUSH1 0xC0 SHL PUSH3 0xA30 PUSH1 0x20 SHL PUSH1 0x20 SHR JUMP JUMPDEST PUSH3 0x9E PUSH8 0x43E93428F870CDE PUSH1 0xC0 SHL PUSH3 0xA30 PUSH1 0x20 SHL PUSH1 0x20 SHR JUMP JUMPDEST PUSH3 0xBA PUSH8 0x83D504CC9B25EEE6 PUSH1 0xC0 SHL PUSH3 0xA30 PUSH1 0x20 SHL PUSH1 0x20 SHR JUMP JUMPDEST PUSH1 0x0 PUSH20 0xFFFFFFFFFFFFFFFFFFFFFFFFFFFFFFFFFFFFFFFF AND DUP2 PUSH20 0xFFFFFFFFFFFFFFFFFFFFFFFFFFFFFFFFFFFFFFFF AND SUB PUSH3 0x159 JUMPI PUSH3 0x10B PUSH8 0x8C65A462E5EEEDE PUSH1 0xC0 SHL PUSH3 0xA30 PUSH1 0x20 SHL PUSH1 0x20 SHR JUMP JUMPDEST PUSH3 0x127 PUSH8 0xDCCF128358FA9625 PUSH1 0xC0 SHL PUSH3 0xA30 PUSH1 0x20 SHL PUSH1 0x20 SHR JUMP JUMPDEST PUSH1 0x40 MLOAD PUSH32 0xD92E233D00000000000000000000000000000000000000000000000000000000 DUP2 MSTORE PUSH1 0x4 ADD PUSH1 0x40 MLOAD DUP1 SWAP2 SUB SWAP1 REVERT JUMPDEST PUSH3 0x175 PUSH8 0xF70D14915DD40D8C PUSH1 0xC0 SHL PUSH3 0xA30 PUSH1 0x20 SHL PUSH1 0x20 SHR JUMP JUMPDEST PUSH3 0x191 PUSH8 0xC11D9527ED3A4529 PUSH1 0xC0 SHL PUSH3 0xA30 PUSH1 0x20 SHL PUSH1 0x20 SHR JUMP JUMPDEST DUP2 PUSH3 0x1AE PUSH8 0x26F982BDAEE9DDAE PUSH1 0xC0 SHL PUSH3 0xA30 PUSH1 0x20 SHL PUSH1 0x20 SHR JUMP JUMPDEST PUSH3 0x1CA PUSH8 0x43E93428F870CDE PUSH1 0xC0 SHL PUSH3 0xA30 PUSH1 0x20 SHL PUSH1 0x20 SHR JUMP JUMPDEST PUSH3 0x1E6 PUSH8 0x83D504CC9B25EEE6 PUSH1 0xC0 SHL PUSH3 0xA30 PUSH1 0x20 SHL PUSH1 0x20 SHR JUMP JUMPDEST PUSH1 0x0 PUSH20 0xFFFFFFFFFFFFFFFFFFFFFFFFFFFFFFFFFFFFFFFF AND DUP2 PUSH20 0xFFFFFFFFFFFFFFFFFFFFFFFFFFFFFFFFFFFFFFFF AND SUB PUSH3 0x285 JUMPI PUSH3 0x237 PUSH8 0x8C65A462E5EEEDE PUSH1 0xC0 SHL PUSH3 0xA30 PUSH1 0x20 SHL PUSH1 0x20 SHR JUMP JUMPDEST PUSH3 0x253 PUSH8 0xDCCF128358FA9625 PUSH1 0xC0 SHL PUSH3 0xA30 PUSH1 0x20 SHL PUSH1 0x20 SHR JUMP JUMPDEST PUSH1 0x40 MLOAD PUSH32 0xD92E233D00000000000000000000000000000000000000000000000000000000 DUP2 MSTORE PUSH1 0x4 ADD PUSH1 0x40 MLOAD DUP1 SWAP2 SUB SWAP1 REVERT JUMPDEST PUSH3 0x2A1 PUSH8 0xF70D14915DD40D8C PUSH1 0xC0 SHL PUSH3 0xA30 PUSH1 0x20 SHL PUSH1 0x20 SHR JUMP JUMPDEST PUSH3 0x2BD PUSH8 0xC11D9527ED3A4529 PUSH1 0xC0 SHL PUSH3 0xA30 PUSH1 0x20 SHL PUSH1 0x20 SHR JUMP JUMPDEST PUSH3 0x2D9 PUSH8 0x76DE6F0E0F6C54EA PUSH1 0xC0 SHL PUSH3 0xA30 PUSH1 0x20 SHL PUSH1 0x20 SHR JUMP JUMPDEST PUSH3 0x2F5 PUSH8 0x9F9B719345675A36 PUSH1 0xC0 SHL PUSH3 0xA30 PUSH1 0x20 SHL PUSH1 0x20 SHR JUMP JUMPDEST DUP9 PUSH20 0xFFFFFFFFFFFFFFFFFFFFFFFFFFFFFFFFFFFFFFFF AND PUSH1 0x80 DUP2 PUSH20 0xFFFFFFFFFFFFFFFFFFFFFFFFFFFFFFFFFFFFFFFF AND DUP2 MSTORE POP POP PUSH3 0x345 PUSH8 0xCE92A635D0D6705C PUSH1 0xC0 SHL PUSH3 0xA30 PUSH1 0x20 SHL PUSH1 0x20 SHR JUMP JUMPDEST PUSH3 0x361 PUSH8 0xA70218C7E5D746C8 PUSH1 0xC0 SHL PUSH3 0xA30 PUSH1 0x20 SHL PUSH1 0x20 SHR JUMP JUMPDEST PUSH1 0x0 DUP6 SUB PUSH3 0x3D4 JUMPI PUSH3 0x386 PUSH8 0x13755F45CE1F0C31 PUSH1 0xC0 SHL PUSH3 0xA30 PUSH1 0x20 SHL PUSH1 0x20 SHR JUMP JUMPDEST PUSH3 0x3A2 PUSH8 0xA4ADD3240BF8ED15 PUSH1 0xC0 SHL PUSH3 0xA30 PUSH1 0x20 SHL PUSH1 0x20 SHR JUMP JUMPDEST PUSH1 0x40 MLOAD PUSH32 0xFCAB2C8400000000000000000000000000000000000000000000000000000000 DUP2 MSTORE PUSH1 0x4 ADD PUSH1 0x40 MLOAD DUP1 SWAP2 SUB SWAP1 REVERT JUMPDEST PUSH3 0x3F0 PUSH8 0x1180ABA137EE9D02 PUSH1 0xC0 SHL PUSH3 0xA30 PUSH1 0x20 SHL PUSH1 0x20 SHR JUMP JUMPDEST PUSH3 0x40C PUSH8 0x94EC41E85BED75CB PUSH1 0xC0 SHL PUSH3 0xA30 PUSH1 0x20 SHL PUSH1 0x20 SHR JUMP JUMPDEST DUP5 PUSH1 0xA0 DUP2 DUP2 MSTORE POP POP PUSH3 0x430 PUSH8 0x7CA6ECA5AAC919E5 PUSH1 0xC0 SHL PUSH3 0xA30 PUSH1 0x20 SHL PUSH1 0x20 SHR JUMP JUMPDEST PUSH3 0x44C PUSH8 0xF79F4E1A52B95F80 PUSH1 0xC0 SHL PUSH3 0xA30 PUSH1 0x20 SHL PUSH1 0x20 SHR JUMP JUMPDEST PUSH1 0x0 TIMESTAMP SWAP1 POP PUSH3 0x46D PUSH8 0x63505263855DA1D2 PUSH1 0xC0 SHL PUSH3 0xA30 PUSH1 0x20 SHL PUSH1 0x20 SHR JUMP JUMPDEST PUSH3 0x489 PUSH8 0x149168EB924F98E PUSH1 0xC0 SHL PUSH3 0xA30 PUSH1 0x20 SHL PUSH1 0x20 SHR JUMP JUMPDEST DUP9 ISZERO PUSH3 0x557 JUMPI PUSH3 0x4AC PUSH8 0x1C4B4B1A79A360C PUSH1 0xC0 SHL PUSH3 0xA30 PUSH1 0x20 SHL PUSH1 0x20 SHR JUMP JUMPDEST PUSH3 0x4C8 PUSH8 0x73C8CACC98F390A4 PUSH1 0xC0 SHL PUSH3 0xA30 PUSH1 0x20 SHL PUSH1 0x20 SHR JUMP JUMPDEST PUSH1 0x1 PUSH1 0x2 PUSH1 0x0 ADD PUSH1 0x5 PUSH2 0x100 EXP DUP2 SLOAD DUP2 PUSH1 0xFF MUL NOT AND SWAP1 DUP4 ISZERO ISZERO MUL OR SWAP1 SSTORE POP PUSH3 0x502 PUSH8 0xAF23278D996175F0 PUSH1 0xC0 SHL PUSH3 0xA30 PUSH1 0x20 SHL PUSH1 0x20 SHR JUMP JUMPDEST PUSH3 0x51E PUSH8 0x99D2DE9246D58A19 PUSH1 0xC0 SHL PUSH3 0xA30 PUSH1 0x20 SHL PUSH1 0x20 SHR JUMP JUMPDEST DUP1 PUSH1 0x0 PUSH1 0x1 ISZERO ISZERO PUSH32 0xC4A8C097B5D93DCEBAA4F0F65B88CA288E38FF724FA55D3D2AF8ECD63C3C9BE7 PUSH1 0x40 MLOAD PUSH1 0x40 MLOAD DUP1 SWAP2 SUB SWAP1 LOG4 PUSH3 0x574 JUMP JUMPDEST PUSH3 0x573 PUSH8 0x6D165DB27D266FAA PUSH1 0xC0 SHL PUSH3 0xA30 PUSH1 0x20 SHL PUSH1 0x20 SHR JUMP JUMPDEST JUMPDEST PUSH3 0x590 PUSH8 0xC10287CDA47D12F6 PUSH1 0xC0 SHL PUSH3 0xA30 PUSH1 0x20 SHL PUSH1 0x20 SHR JUMP JUMPDEST PUSH3 0x5AC PUSH8 0x9805FD7C50A8A726 PUSH1 0xC0 SHL PUSH3 0xA30 PUSH1 0x20 SHL PUSH1 0x20 SHR JUMP JUMPDEST PUSH3 0x5BE DUP9 DUP9 PUSH3 0xA33 PUSH1 0x20 SHL PUSH1 0x20 SHR JUMP JUMPDEST PUSH3 0x5DA PUSH8 0x9E418FCE8C2E70E PUSH1 0xC0 SHL PUSH3 0xA30 PUSH1 0x20 SHL PUSH1 0x20 SHR JUMP JUMPDEST DUP4 PUSH1 0x2 PUSH1 0x4 ADD PUSH1 0x0 PUSH2 0x100 EXP DUP2 SLOAD DUP2 PUSH20 0xFFFFFFFFFFFFFFFFFFFFFFFFFFFFFFFFFFFFFFFF MUL NOT AND SWAP1 DUP4 PUSH20 0xFFFFFFFFFFFFFFFFFFFFFFFFFFFFFFFFFFFFFFFF AND MUL OR SWAP1 SSTORE POP PUSH3 0x63A PUSH8 0x6DEBDB77FF602495 PUSH1 0xC0 SHL PUSH3 0xA30 PUSH1 0x20 SHL PUSH1 0x20 SHR JUMP JUMPDEST PUSH3 0x656 PUSH8 0x941EABB805752E16 PUSH1 0xC0 SHL PUSH3 0xA30 PUSH1 0x20 SHL PUSH1 0x20 SHR JUMP JUMPDEST DUP4 PUSH20 0xFFFFFFFFFFFFFFFFFFFFFFFFFFFFFFFFFFFFFFFF AND PUSH1 0x0 PUSH20 0xFFFFFFFFFFFFFFFFFFFFFFFFFFFFFFFFFFFFFFFF AND PUSH32 0x62904549814F5511A5D36A62611A6E2FE1D2C29B6DE74DE25D95395E0A7D009B PUSH1 0x40 MLOAD PUSH1 0x40 MLOAD DUP1 SWAP2 SUB SWAP1 LOG3 PUSH3 0x6CD PUSH8 0xE62DBDBD4E2B7D35 PUSH1 0xC0 SHL PUSH3 0xA30 PUSH1 0x20 SHL PUSH1 0x20 SHR JUMP JUMPDEST PUSH3 0x6E9 PUSH8 0x9766EF1D6FD8BED6 PUSH1 0xC0 SHL PUSH3 0xA30 PUSH1 0x20 SHL PUSH1 0x20 SHR JUMP JUMPDEST PUSH1 0x0 PUSH20 0xFFFFFFFFFFFFFFFFFFFFFFFFFFFFFFFFFFFFFFFF AND DUP6 PUSH20 0xFFFFFFFFFFFFFFFFFFFFFFFFFFFFFFFFFFFFFFFF AND EQ PUSH3 0x833 JUMPI PUSH3 0x73A PUSH8 0xD70CE8772506B89E PUSH1 0xC0 SHL PUSH3 0xA30 PUSH1 0x20 SHL PUSH1 0x20 SHR JUMP JUMPDEST PUSH3 0x756 PUSH8 0x5CE552C262BEDF5E PUSH1 0xC0 SHL PUSH3 0xA30 PUSH1 0x20 SHL PUSH1 0x20 SHR JUMP JUMPDEST DUP5 PUSH1 0x2 PUSH1 0x3 ADD PUSH1 0x1 PUSH2 0x100 EXP DUP2 SLOAD DUP2 PUSH20 0xFFFFFFFFFFFFFFFFFFFFFFFFFFFFFFFFFFFFFFFF MUL NOT AND SWAP1 DUP4 PUSH20 0xFFFFFFFFFFFFFFFFFFFFFFFFFFFFFFFFFFFFFFFF AND MUL OR SWAP1 SSTORE POP PUSH3 0x7B6 PUSH8 0x24D774F43717CBEA PUSH1 0xC0 SHL PUSH3 0xA30 PUSH1 0x20 SHL PUSH1 0x20 SHR JUMP JUMPDEST PUSH3 0x7D2 PUSH8 0x9DA7582E3022F649 PUSH1 0xC0 SHL PUSH3 0xA30 PUSH1 0x20 SHL PUSH1 0x20 SHR JUMP JUMPDEST DUP5 PUSH20 0xFFFFFFFFFFFFFFFFFFFFFFFFFFFFFFFFFFFFFFFF AND PUSH1 0x0 PUSH20 0xFFFFFFFFFFFFFFFFFFFFFFFFFFFFFFFFFFFFFFFF AND PUSH32 0x62904549814F5511A5D36A62611A6E2FE1D2C29B6DE74DE25D95395E0A7D009B PUSH1 0x40 MLOAD PUSH1 0x40 MLOAD DUP1 SWAP2 SUB SWAP1 LOG3 PUSH3 0x850 JUMP JUMPDEST PUSH3 0x84F PUSH8 0x39E9613382E702A1 PUSH1 0xC0 SHL PUSH3 0xA30 PUSH1 0x20 SHL PUSH1 0x20 SHR JUMP JUMPDEST JUMPDEST PUSH3 0x86C PUSH8 0xC54B76E6FF90E2FA PUSH1 0xC0 SHL PUSH3 0xA30 PUSH1 0x20 SHL PUSH1 0x20 SHR JUMP JUMPDEST PUSH3 0x888 PUSH8 0x441D0D12E2A9B405 PUSH1 0xC0 SHL PUSH3 0xA30 PUSH1 0x20 SHL PUSH1 0x20 SHR JUMP JUMPDEST PUSH32 0x8849D9036EC7068880BD56182E37500D89A0664B4800E4B44FBA2E01A6940501 DUP9 DUP9 DUP4 PUSH1 0x40 MLOAD PUSH3 0x8BD SWAP4 SWAP3 SWAP2 SWAP1 PUSH3 0x113D JUMP JUMPDEST PUSH1 0x40 MLOAD DUP1 SWAP2 SUB SWAP1 LOG1 POP POP POP POP POP POP POP POP POP POP PUSH3 0x8EB PUSH8 0xEE6737BF730857AC PUSH1 0xC0 SHL PUSH3 0xE46 PUSH1 0x20 SHL PUSH1 0x20 SHR JUMP JUMPDEST PUSH3 0x907 PUSH8 0x7BC9200C4D13DE90 PUSH1 0xC0 SHL PUSH3 0xE46 PUSH1 0x20 SHL PUSH1 0x20 SHR JUMP JUMPDEST PUSH3 0x917 PUSH3 0x964 PUSH1 0x20 SHL PUSH1 0x20 SHR JUMP JUMPDEST PUSH1 0x7 PUSH1 0x0 PUSH2 0x100 EXP DUP2 SLOAD DUP2 PUSH20 0xFFFFFFFFFFFFFFFFFFFFFFFFFFFFFFFFFFFFFFFF MUL NOT AND SWAP1 DUP4 PUSH20 0xFFFFFFFFFFFFFFFFFFFFFFFFFFFFFFFFFFFFFFFF AND MUL OR SWAP1 SSTORE POP POP POP POP POP POP POP POP PUSH3 0x1295 JUMP JUMPDEST PUSH1 0x0 CALLER SWAP1 POP SWAP1 JUMP JUMPDEST PUSH1 0x0 DUP1 PUSH1 0x0 SWAP1 SLOAD SWAP1 PUSH2 0x100 EXP SWAP1 DIV PUSH20 0xFFFFFFFFFFFFFFFFFFFFFFFFFFFFFFFFFFFFFFFF AND SWAP1 POP DUP2 PUSH1 0x0 DUP1 PUSH2 0x100 EXP DUP2 SLOAD DUP2 PUSH20 0xFFFFFFFFFFFFFFFFFFFFFFFFFFFFFFFFFFFFFFFF MUL NOT AND SWAP1 DUP4 PUSH20 0xFFFFFFFFFFFFFFFFFFFFFFFFFFFFFFFFFFFFFFFF AND MUL OR SWAP1 SSTORE POP DUP2 PUSH20 0xFFFFFFFFFFFFFFFFFFFFFFFFFFFFFFFFFFFFFFFF AND DUP2 PUSH20 0xFFFFFFFFFFFFFFFFFFFFFFFFFFFFFFFFFFFFFFFF AND PUSH32 0x8BE0079C531659141344CD1FD0A4F28419497F9722A3DAAFE3B4186F6B6457E0 PUSH1 0x40 MLOAD PUSH1 0x40 MLOAD DUP1 SWAP2 SUB SWAP1 LOG3 POP POP JUMP JUMPDEST POP JUMP JUMPDEST PUSH3 0xA4F PUSH8 0x25E99F5D8E9813DD PUSH1 0xC0 SHL PUSH3 0xA30 PUSH1 0x20 SHL PUSH1 0x20 SHR JUMP JUMPDEST PUSH3 0xA5F PUSH3 0xE49 PUSH1 0x20 SHL PUSH1 0x20 SHR JUMP JUMPDEST PUSH3 0xA7B PUSH8 0x9FF58CE2AC447CE2 PUSH1 0xC0 SHL PUSH3 0xA30 PUSH1 0x20 SHL PUSH1 0x20 SHR JUMP JUMPDEST PUSH3 0xA97 PUSH8 0x9C35AA2FAF6E710A PUSH1 0xC0 SHL PUSH3 0xA30 PUSH1 0x20 SHL PUSH1 0x20 SHR JUMP JUMPDEST DUP2 DUP2 PUSH3 0xAB5 PUSH8 0xF48B5A2246BF5064 PUSH1 0xC0 SHL PUSH3 0xA30 PUSH1 0x20 SHL PUSH1 0x20 SHR JUMP JUMPDEST PUSH3 0xAD1 PUSH8 0xB48068EB68E110E8 PUSH1 0xC0 SHL PUSH3 0xA30 PUSH1 0x20 SHL PUSH1 0x20 SHR JUMP JUMPDEST PUSH3 0xAED PUSH8 0xEA57C67678DF968A PUSH1 0xC0 SHL PUSH3 0xA30 PUSH1 0x20 SHL PUSH1 0x20 SHR JUMP JUMPDEST PUSH1 0x64 PUSH1 0xFF AND DUP2 DUP4 PUSH3 0xB00 SWAP2 SWAP1 PUSH3 0x11A9 JUMP JUMPDEST PUSH1 0xFF AND EQ PUSH3 0xB82 JUMPI PUSH3 0xB25 PUSH8 0xFAC91C9468BB0C5D PUSH1 0xC0 SHL PUSH3 0xA30 PUSH1 0x20 SHL PUSH1 0x20 SHR JUMP JUMPDEST PUSH3 0xB41 PUSH8 0xD9820A54DB345EAA PUSH1 0xC0 SHL PUSH3 0xA30 PUSH1 0x20 SHL PUSH1 0x20 SHR JUMP JUMPDEST DUP2 DUP2 PUSH1 0x40 MLOAD PUSH32 0x8EFE3FD500000000000000000000000000000000000000000000000000000000 DUP2 MSTORE PUSH1 0x4 ADD PUSH3 0xB79 SWAP3 SWAP2 SWAP1 PUSH3 0x11E5 JUMP JUMPDEST PUSH1 0x40 MLOAD DUP1 SWAP2 SUB SWAP1 REVERT JUMPDEST PUSH3 0xB9E PUSH8 0x41740C842ED2C742 PUSH1 0xC0 SHL PUSH3 0xA30 PUSH1 0x20 SHL PUSH1 0x20 SHR JUMP JUMPDEST PUSH3 0xBBA PUSH8 0x826ECF2D226EE01B PUSH1 0xC0 SHL PUSH3 0xA30 PUSH1 0x20 SHL PUSH1 0x20 SHR JUMP JUMPDEST PUSH3 0xBD6 PUSH8 0x16D523CFB22EC5B3 PUSH1 0xC0 SHL PUSH3 0xA30 PUSH1 0x20 SHL PUSH1 0x20 SHR JUMP JUMPDEST PUSH3 0xBF2 PUSH8 0x98025BEB5CFA7B1E PUSH1 0xC0 SHL PUSH3 0xA30 PUSH1 0x20 SHL PUSH1 0x20 SHR JUMP JUMPDEST PUSH3 0xC0E PUSH8 0x436D7D41475704DB PUSH1 0xC0 SHL PUSH3 0xA30 PUSH1 0x20 SHL PUSH1 0x20 SHR JUMP JUMPDEST PUSH3 0xC2A PUSH8 0xB3FD81C5B1F7DBEB PUSH1 0xC0 SHL PUSH3 0xA30 PUSH1 0x20 SHL PUSH1 0x20 SHR JUMP JUMPDEST DUP4 PUSH1 0xFF AND PUSH1 0x2 PUSH1 0x0 ADD PUSH1 0x1 SWAP1 SLOAD SWAP1 PUSH2 0x100 EXP SWAP1 DIV PUSH1 0xFF AND PUSH1 0xFF AND EQ PUSH3 0xCA6 JUMPI PUSH3 0xC66 PUSH8 0xD9FD2CF2AA42CBE7 PUSH1 0xC0 SHL PUSH3 0xA30 PUSH1 0x20 SHL PUSH1 0x20 SHR JUMP JUMPDEST PUSH3 0xC82 PUSH8 0x1512905CDC9C28B8 PUSH1 0xC0 SHL PUSH3 0xA30 PUSH1 0x20 SHL PUSH1 0x20 SHR JUMP JUMPDEST DUP4 PUSH1 0x2 PUSH1 0x0 ADD PUSH1 0x1 PUSH2 0x100 EXP DUP2 SLOAD DUP2 PUSH1 0xFF MUL NOT AND SWAP1 DUP4 PUSH1 0xFF AND MUL OR SWAP1 SSTORE POP PUSH3 0xCC3 JUMP JUMPDEST PUSH3 0xCC2 PUSH8 0xC3EDFB502758D309 PUSH1 0xC0 SHL PUSH3 0xA30 PUSH1 0x20 SHL PUSH1 0x20 SHR JUMP JUMPDEST JUMPDEST PUSH3 0xCDF PUSH8 0xB4DF77953C505B47 PUSH1 0xC0 SHL PUSH3 0xA30 PUSH1 0x20 SHL PUSH1 0x20 SHR JUMP JUMPDEST PUSH3 0xCFB PUSH8 0xFB91D9FED2B56878 PUSH1 0xC0 SHL PUSH3 0xA30 PUSH1 0x20 SHL PUSH1 0x20 SHR JUMP JUMPDEST PUSH1 0x0 DUP4 PUSH1 0xFF AND EQ ISZERO DUP1 ISZERO PUSH3 0xD28 JUMPI POP DUP3 PUSH1 0xFF AND PUSH1 0x2 PUSH1 0x0 ADD PUSH1 0x2 SWAP1 SLOAD SWAP1 PUSH2 0x100 EXP SWAP1 DIV PUSH1 0xFF AND PUSH1 0xFF AND EQ ISZERO JUMPDEST ISZERO PUSH3 0xD8A JUMPI PUSH3 0xD4A PUSH8 0xCD1864281DAF3F43 PUSH1 0xC0 SHL PUSH3 0xA30 PUSH1 0x20 SHL PUSH1 0x20 SHR JUMP JUMPDEST PUSH3 0xD66 PUSH8 0x3D60900B4E84E41D PUSH1 0xC0 SHL PUSH3 0xA30 PUSH1 0x20 SHL PUSH1 0x20 SHR JUMP JUMPDEST DUP3 PUSH1 0x2 PUSH1 0x0 ADD PUSH1 0x2 PUSH2 0x100 EXP DUP2 SLOAD DUP2 PUSH1 0xFF MUL NOT AND SWAP1 DUP4 PUSH1 0xFF AND MUL OR SWAP1 SSTORE POP PUSH3 0xDA7 JUMP JUMPDEST PUSH3 0xDA6 PUSH8 0x57A583417D46DF89 PUSH1 0xC0 SHL PUSH3 0xA30 PUSH1 0x20 SHL PUSH1 0x20 SHR JUMP JUMPDEST JUMPDEST PUSH3 0xDC3 PUSH8 0x85B2D74309223236 PUSH1 0xC0 SHL PUSH3 0xA30 PUSH1 0x20 SHL PUSH1 0x20 SHR JUMP JUMPDEST PUSH3 0xDDF PUSH8 0xEDBB58B649B803E7 PUSH1 0xC0 SHL PUSH3 0xA30 PUSH1 0x20 SHL PUSH1 0x20 SHR JUMP JUMPDEST PUSH32 0x8849D9036EC7068880BD56182E37500D89A0664B4800E4B44FBA2E01A6940501 PUSH1 0x2 PUSH1 0x0 ADD PUSH1 0x1 SWAP1 SLOAD SWAP1 PUSH2 0x100 EXP SWAP1 DIV PUSH1 0xFF AND PUSH1 0x2 PUSH1 0x0 ADD PUSH1 0x2 SWAP1 SLOAD SWAP1 PUSH2 0x100 EXP SWAP1 DIV PUSH1 0xFF AND TIMESTAMP PUSH1 0x40 MLOAD PUSH3 0xE38 SWAP4 SWAP3 SWAP2 SWAP1 PUSH3 0x113D JUMP JUMPDEST PUSH1 0x40 MLOAD DUP1 SWAP2 SUB SWAP1 LOG1 POP POP POP POP JUMP JUMPDEST POP JUMP JUMPDEST PUSH3 0xE59 PUSH3 0x964 PUSH1 0x20 SHL PUSH1 0x20 SHR JUMP JUMPDEST PUSH20 0xFFFFFFFFFFFFFFFFFFFFFFFFFFFFFFFFFFFFFFFF AND PUSH3 0xE7F PUSH3 0xEDA PUSH1 0x20 SHL PUSH1 0x20 SHR JUMP JUMPDEST PUSH20 0xFFFFFFFFFFFFFFFFFFFFFFFFFFFFFFFFFFFFFFFF AND EQ PUSH3 0xED8 JUMPI PUSH1 0x40 MLOAD PUSH32 0x8C379A000000000000000000000000000000000000000000000000000000000 DUP2 MSTORE PUSH1 0x4 ADD PUSH3 0xECF SWAP1 PUSH3 0x1273 JUMP JUMPDEST PUSH1 0x40 MLOAD DUP1 SWAP2 SUB SWAP1 REVERT JUMPDEST JUMP JUMPDEST PUSH1 0x0 DUP1 PUSH1 0x0 SWAP1 SLOAD SWAP1 PUSH2 0x100 EXP SWAP1 DIV PUSH20 0xFFFFFFFFFFFFFFFFFFFFFFFFFFFFFFFFFFFFFFFF AND SWAP1 POP SWAP1 JUMP JUMPDEST PUSH1 0x0 DUP1 REVERT JUMPDEST PUSH1 0x0 PUSH20 0xFFFFFFFFFFFFFFFFFFFFFFFFFFFFFFFFFFFFFFFF DUP3 AND SWAP1 POP SWAP2 SWAP1 POP JUMP JUMPDEST PUSH1 0x0 PUSH3 0xF35 DUP3 PUSH3 0xF08 JUMP JUMPDEST SWAP1 POP SWAP2 SWAP1 POP JUMP JUMPDEST PUSH3 0xF47 DUP2 PUSH3 0xF28 JUMP JUMPDEST DUP2 EQ PUSH3 0xF53 JUMPI PUSH1 0x0 DUP1 REVERT JUMPDEST POP JUMP JUMPDEST PUSH1 0x0 DUP2 MLOAD SWAP1 POP PUSH3 0xF67 DUP2 PUSH3 0xF3C JUMP JUMPDEST SWAP3 SWAP2 POP POP JUMP JUMPDEST PUSH1 0x0 DUP2 ISZERO ISZERO SWAP1 POP SWAP2 SWAP1 POP JUMP JUMPDEST PUSH3 0xF84 DUP2 PUSH3 0xF6D JUMP JUMPDEST DUP2 EQ PUSH3 0xF90 JUMPI PUSH1 0x0 DUP1 REVERT JUMPDEST POP JUMP JUMPDEST PUSH1 0x0 DUP2 MLOAD SWAP1 POP PUSH3 0xFA4 DUP2 PUSH3 0xF79 JUMP JUMPDEST SWAP3 SWAP2 POP POP JUMP JUMPDEST PUSH1 0x0 PUSH1 0xFF DUP3 AND SWAP1 POP SWAP2 SWAP1 POP JUMP JUMPDEST PUSH3 0xFC2 DUP2 PUSH3 0xFAA JUMP JUMPDEST DUP2 EQ PUSH3 0xFCE JUMPI PUSH1 0x0 DUP1 REVERT JUMPDEST POP JUMP JUMPDEST PUSH1 0x0 DUP2 MLOAD SWAP1 POP PUSH3 0xFE2 DUP2 PUSH3 0xFB7 JUMP JUMPDEST SWAP3 SWAP2 POP POP JUMP JUMPDEST PUSH1 0x0 DUP2 SWAP1 POP SWAP2 SWAP1 POP JUMP JUMPDEST PUSH3 0xFFD DUP2 PUSH3 0xFE8 JUMP JUMPDEST DUP2 EQ PUSH3 0x1009 JUMPI PUSH1 0x0 DUP1 REVERT JUMPDEST POP JUMP JUMPDEST PUSH1 0x0 DUP2 MLOAD SWAP1 POP PUSH3 0x101D DUP2 PUSH3 0xFF2 JUMP JUMPDEST SWAP3 SWAP2 POP POP JUMP JUMPDEST PUSH1 0x0 PUSH3 0x1030 DUP3 PUSH3 0xF08 JUMP JUMPDEST SWAP1 POP SWAP2 SWAP1 POP JUMP JUMPDEST PUSH3 0x1042 DUP2 PUSH3 0x1023 JUMP JUMPDEST DUP2 EQ PUSH3 0x104E JUMPI PUSH1 0x0 DUP1 REVERT JUMPDEST POP JUMP JUMPDEST PUSH1 0x0 DUP2 MLOAD SWAP1 POP PUSH3 0x1062 DUP2 PUSH3 0x1037 JUMP JUMPDEST SWAP3 SWAP2 POP POP JUMP JUMPDEST PUSH1 0x0 DUP1 PUSH1 0x0 DUP1 PUSH1 0x0 DUP1 PUSH1 0x0 PUSH1 0xE0 DUP9 DUP11 SUB SLT ISZERO PUSH3 0x108A JUMPI PUSH3 0x1089 PUSH3 0xF03 JUMP JUMPDEST JUMPDEST PUSH1 0x0 PUSH3 0x109A DUP11 DUP3 DUP12 ADD PUSH3 0xF56 JUMP JUMPDEST SWAP8 POP POP PUSH1 0x20 PUSH3 0x10AD DUP11 DUP3 DUP12 ADD PUSH3 0xF93 JUMP JUMPDEST SWAP7 POP POP PUSH1 0x40 PUSH3 0x10C0 DUP11 DUP3 DUP12 ADD PUSH3 0xFD1 JUMP JUMPDEST SWAP6 POP POP PUSH1 0x60 PUSH3 0x10D3 DUP11 DUP3 DUP12 ADD PUSH3 0xFD1 JUMP JUMPDEST SWAP5 POP POP PUSH1 0x80 PUSH3 0x10E6 DUP11 DUP3 DUP12 ADD PUSH3 0x100C JUMP JUMPDEST SWAP4 POP POP PUSH1 0xA0 PUSH3 0x10F9 DUP11 DUP3 DUP12 ADD PUSH3 0x1051 JUMP JUMPDEST SWAP3 POP POP PUSH1 0xC0 PUSH3 0x110C DUP11 DUP3 DUP12 ADD PUSH3 0x1051 JUMP JUMPDEST SWAP2 POP POP SWAP3 SWAP6 SWAP9 SWAP2 SWAP5 SWAP8 POP SWAP3 SWAP6 POP JUMP JUMPDEST PUSH3 0x1126 DUP2 PUSH3 0xFAA JUMP JUMPDEST DUP3 MSTORE POP POP JUMP JUMPDEST PUSH3 0x1137 DUP2 PUSH3 0xFE8 JUMP JUMPDEST DUP3 MSTORE POP POP JUMP JUMPDEST PUSH1 0x0 PUSH1 0x60 DUP3 ADD SWAP1 POP PUSH3 0x1154 PUSH1 0x0 DUP4 ADD DUP7 PUSH3 0x111B JUMP JUMPDEST PUSH3 0x1163 PUSH1 0x20 DUP4 ADD DUP6 PUSH3 0x111B JUMP JUMPDEST PUSH3 0x1172 PUSH1 0x40 DUP4 ADD DUP5 PUSH3 0x112C JUMP JUMPDEST SWAP5 SWAP4 POP POP POP POP JUMP JUMPDEST PUSH32 0x4E487B7100000000000000000000000000000000000000000000000000000000 PUSH1 0x0 MSTORE PUSH1 0x11 PUSH1 0x4 MSTORE PUSH1 0x24 PUSH1 0x0 REVERT JUMPDEST PUSH1 0x0 PUSH3 0x11B6 DUP3 PUSH3 0xFAA JUMP JUMPDEST SWAP2 POP PUSH3 0x11C3 DUP4 PUSH3 0xFAA JUMP JUMPDEST SWAP3 POP DUP3 DUP3 ADD SWAP1 POP PUSH1 0xFF DUP2 GT ISZERO PUSH3 0x11DF JUMPI PUSH3 0x11DE PUSH3 0x117A JUMP JUMPDEST JUMPDEST SWAP3 SWAP2 POP POP JUMP JUMPDEST PUSH1 0x0 PUSH1 0x40 DUP3 ADD SWAP1 POP PUSH3 0x11FC PUSH1 0x0 DUP4 ADD DUP6 PUSH3 0x111B JUMP JUMPDEST PUSH3 0x120B PUSH1 0x20 DUP4 ADD DUP5 PUSH3 0x111B JUMP JUMPDEST SWAP4 SWAP3 POP POP POP JUMP JUMPDEST PUSH1 0x0 DUP3 DUP3 MSTORE PUSH1 0x20 DUP3 ADD SWAP1 POP SWAP3 SWAP2 POP POP JUMP JUMPDEST PUSH32 0x4F776E61626C653A2063616C6C6572206973206E6F7420746865206F776E6572 PUSH1 0x0 DUP3 ADD MSTORE POP JUMP JUMPDEST PUSH1 0x0 PUSH3 0x125B PUSH1 0x20 DUP4 PUSH3 0x1212 JUMP JUMPDEST SWAP2 POP PUSH3 0x1268 DUP3 PUSH3 0x1223 JUMP JUMPDEST PUSH1 0x20 DUP3 ADD SWAP1 POP SWAP2 SWAP1 POP JUMP JUMPDEST PUSH1 0x0 PUSH1 0x20 DUP3 ADD SWAP1 POP DUP2 DUP2 SUB PUSH1 0x0 DUP4 ADD MSTORE PUSH3 0x128E DUP2 PUSH3 0x124C JUMP JUMPDEST SWAP1 POP SWAP2 SWAP1 POP JUMP JUMPDEST PUSH1 0x80 MLOAD PUSH1 0xA0 MLOAD PUSH2 0x5FE2 PUSH3 0x130F PUSH1 0x0 CODECOPY PUSH1 0x0 PUSH2 0x4E0C ADD MSTORE PUSH1 0x0 DUP2 DUP2 PUSH2 0x137B ADD MSTORE DUP2 DUP2 PUSH2 0x1946 ADD MSTORE DUP2 DUP2 PUSH2 0x1B64 ADD MSTORE DUP2 DUP2 PUSH2 0x1CAE ADD MSTORE DUP2 DUP2 PUSH2 0x1E7A ADD MSTORE DUP2 DUP2 PUSH2 0x1FD8 ADD MSTORE DUP2 DUP2 PUSH2 0x3283 ADD MSTORE DUP2 DUP2 PUSH2 0x33D4 ADD MSTORE DUP2 DUP2 PUSH2 0x3539 ADD MSTORE DUP2 DUP2 PUSH2 0x436D ADD MSTORE DUP2 DUP2 PUSH2 0x4598 ADD MSTORE DUP2 DUP2 PUSH2 0x4985 ADD MSTORE PUSH2 0x4BB9 ADD MSTORE PUSH2 0x5FE2 PUSH1 0x0 RETURN INVALID PUSH1 0x80 PUSH1 0x40 MSTORE PUSH1 0x4 CALLDATASIZE LT PUSH2 0x11F JUMPI PUSH1 0x0 CALLDATALOAD PUSH1 0xE0 SHR DUP1 PUSH4 0x9548F477 GT PUSH2 0xA0 JUMPI DUP1 PUSH4 0xB2D1BB52 GT PUSH2 0x64 JUMPI DUP1 PUSH4 0xB2D1BB52 EQ PUSH2 0x357 JUMPI DUP1 PUSH4 0xC72304AC EQ PUSH2 0x380 JUMPI DUP1 PUSH4 0xE0A66578 EQ PUSH2 0x3AB JUMPI DUP1 PUSH4 0xF2FDE38B EQ PUSH2 0x3D4 JUMPI DUP1 PUSH4 0xFEEA1529 EQ PUSH2 0x3FD JUMPI PUSH2 0x11F JUMP JUMPDEST DUP1 PUSH4 0x9548F477 EQ PUSH2 0x2A6 JUMPI DUP1 PUSH4 0x9B58BFED EQ PUSH2 0x2CF JUMPI DUP1 PUSH4 0x9CB71686 EQ PUSH2 0x2F8 JUMPI DUP1 PUSH4 0x9F23C9E2 EQ PUSH2 0x324 JUMPI DUP1 PUSH4 0xB26E099F EQ PUSH2 0x340 JUMPI PUSH2 0x11F JUMP JUMPDEST DUP1 PUSH4 0x6A02FCC4 GT PUSH2 0xE7 JUMPI DUP1 PUSH4 0x6A02FCC4 EQ PUSH2 0x1F6 JUMPI DUP1 PUSH4 0x715018A6 EQ PUSH2 0x212 JUMPI DUP1 PUSH4 0x7C522D28 EQ PUSH2 0x229 JUMPI DUP1 PUSH4 0x8DA5CB5B EQ PUSH2 0x252 JUMPI DUP1 PUSH4 0x94ACA02A EQ PUSH2 0x27D JUMPI PUSH2 0x11F JUMP JUMPDEST DUP1 PUSH4 0x2B100F5C EQ PUSH2 0x124 JUMPI DUP1 PUSH4 0x2B84301F EQ PUSH2 0x13B JUMPI DUP1 PUSH4 0x529C0970 EQ PUSH2 0x164 JUMPI DUP1 PUSH4 0x5531E774 EQ PUSH2 0x18D JUMPI DUP1 PUSH4 0x58A93688 EQ PUSH2 0x1C1 JUMPI JUMPDEST PUSH1 0x0 DUP1 REVERT JUMPDEST CALLVALUE DUP1 ISZERO PUSH2 0x130 JUMPI PUSH1 0x0 DUP1 REVERT JUMPDEST POP PUSH2 0x139 PUSH2 0x42A JUMP JUMPDEST STOP JUMPDEST CALLVALUE DUP1 ISZERO PUSH2 0x147 JUMPI PUSH1 0x0 DUP1 REVERT JUMPDEST POP PUSH2 0x162 PUSH1 0x4 DUP1 CALLDATASIZE SUB DUP2 ADD SWAP1 PUSH2 0x15D SWAP2 SWAP1 PUSH2 0x5121 JUMP JUMPDEST PUSH2 0xB34 JUMP JUMPDEST STOP JUMPDEST CALLVALUE DUP1 ISZERO PUSH2 0x170 JUMPI PUSH1 0x0 DUP1 REVERT JUMPDEST POP PUSH2 0x18B PUSH1 0x4 DUP1 CALLDATASIZE SUB DUP2 ADD SWAP1 PUSH2 0x186 SWAP2 SWAP1 PUSH2 0x5197 JUMP JUMPDEST PUSH2 0xF5D JUMP JUMPDEST STOP JUMPDEST CALLVALUE DUP1 ISZERO PUSH2 0x199 JUMPI PUSH1 0x0 DUP1 REVERT JUMPDEST POP PUSH2 0x1A2 PUSH2 0x117F JUMP JUMPDEST PUSH1 0x40 MLOAD PUSH2 0x1B8 SWAP11 SWAP10 SWAP9 SWAP8 SWAP7 SWAP6 SWAP5 SWAP4 SWAP3 SWAP2 SWAP1 PUSH2 0x52EA JUMP JUMPDEST PUSH1 0x40 MLOAD DUP1 SWAP2 SUB SWAP1 RETURN JUMPDEST CALLVALUE DUP1 ISZERO PUSH2 0x1CD JUMPI PUSH1 0x0 DUP1 REVERT JUMPDEST POP PUSH2 0x1D6 PUSH2 0x1250 JUMP JUMPDEST PUSH1 0x40 MLOAD PUSH2 0x1ED SWAP12 SWAP11 SWAP10 SWAP9 SWAP8 SWAP7 SWAP6 SWAP5 SWAP4 SWAP3 SWAP2 SWAP1 PUSH2 0x53A7 JUMP JUMPDEST PUSH1 0x40 MLOAD DUP1 SWAP2 SUB SWAP1 RETURN JUMPDEST PUSH2 0x210 PUSH1 0x4 DUP1 CALLDATASIZE SUB DUP2 ADD SWAP1 PUSH2 0x20B SWAP2 SWAP1 PUSH2 0x54B4 JUMP JUMPDEST PUSH2 0x13BD JUMP JUMPDEST STOP JUMPDEST CALLVALUE DUP1 ISZERO PUSH2 0x21E JUMPI PUSH1 0x0 DUP1 REVERT JUMPDEST POP PUSH2 0x227 PUSH2 0x221A JUMP JUMPDEST STOP JUMPDEST CALLVALUE DUP1 ISZERO PUSH2 0x235 JUMPI PUSH1 0x0 DUP1 REVERT JUMPDEST POP PUSH2 0x250 PUSH1 0x4 DUP1 CALLDATASIZE SUB DUP2 ADD SWAP1 PUSH2 0x24B SWAP2 SWAP1 PUSH2 0x5541 JUMP JUMPDEST PUSH2 0x222E JUMP JUMPDEST STOP JUMPDEST CALLVALUE DUP1 ISZERO PUSH2 0x25E JUMPI PUSH1 0x0 DUP1 REVERT JUMPDEST POP PUSH2 0x267 PUSH2 0x2490 JUMP JUMPDEST PUSH1 0x40 MLOAD PUSH2 0x274 SWAP2 SWAP1 PUSH2 0x556E JUMP JUMPDEST PUSH1 0x40 MLOAD DUP1 SWAP2 SUB SWAP1 RETURN JUMPDEST CALLVALUE DUP1 ISZERO PUSH2 0x289 JUMPI PUSH1 0x0 DUP1 REVERT JUMPDEST POP PUSH2 0x2A4 PUSH1 0x4 DUP1 CALLDATASIZE SUB DUP2 ADD SWAP1 PUSH2 0x29F SWAP2 SWAP1 PUSH2 0x5541 JUMP JUMPDEST PUSH2 0x24B9 JUMP JUMPDEST STOP JUMPDEST CALLVALUE DUP1 ISZERO PUSH2 0x2B2 JUMPI PUSH1 0x0 DUP1 REVERT JUMPDEST POP PUSH2 0x2CD PUSH1 0x4 DUP1 CALLDATASIZE SUB DUP2 ADD SWAP1 PUSH2 0x2C8 SWAP2 SWAP1 PUSH2 0x5589 JUMP JUMPDEST PUSH2 0x25FF JUMP JUMPDEST STOP JUMPDEST CALLVALUE DUP1 ISZERO PUSH2 0x2DB JUMPI PUSH1 0x0 DUP1 REVERT JUMPDEST POP PUSH2 0x2F6 PUSH1 0x4 DUP1 CALLDATASIZE SUB DUP2 ADD SWAP1 PUSH2 0x2F1 SWAP2 SWAP1 PUSH2 0x55B6 JUMP JUMPDEST PUSH2 0x295E JUMP JUMPDEST STOP JUMPDEST CALLVALUE DUP1 ISZERO PUSH2 0x304 JUMPI PUSH1 0x0 DUP1 REVERT JUMPDEST POP PUSH2 0x30D PUSH2 0x2C9D JUMP JUMPDEST PUSH1 0x40 MLOAD PUSH2 0x31B SWAP3 SWAP2 SWAP1 PUSH2 0x55F6 JUMP JUMPDEST PUSH1 0x40 MLOAD DUP1 SWAP2 SUB SWAP1 RETURN JUMPDEST PUSH2 0x33E PUSH1 0x4 DUP1 CALLDATASIZE SUB DUP2 ADD SWAP1 PUSH2 0x339 SWAP2 SWAP1 PUSH2 0x561F JUMP JUMPDEST PUSH2 0x2D30 JUMP JUMPDEST STOP JUMPDEST CALLVALUE DUP1 ISZERO PUSH2 0x34C JUMPI PUSH1 0x0 DUP1 REVERT JUMPDEST POP PUSH2 0x355 PUSH2 0x3788 JUMP JUMPDEST STOP JUMPDEST CALLVALUE DUP1 ISZERO PUSH2 0x363 JUMPI PUSH1 0x0 DUP1 REVERT JUMPDEST POP PUSH2 0x37E PUSH1 0x4 DUP1 CALLDATASIZE SUB DUP2 ADD SWAP1 PUSH2 0x379 SWAP2 SWAP1 PUSH2 0x5589 JUMP JUMPDEST PUSH2 0x387E JUMP JUMPDEST STOP JUMPDEST CALLVALUE DUP1 ISZERO PUSH2 0x38C JUMPI PUSH1 0x0 DUP1 REVERT JUMPDEST POP PUSH2 0x395 PUSH2 0x3C0E JUMP JUMPDEST PUSH1 0x40 MLOAD PUSH2 0x3A2 SWAP2 SWAP1 PUSH2 0x556E JUMP JUMPDEST PUSH1 0x40 MLOAD DUP1 SWAP2 SUB SWAP1 RETURN JUMPDEST CALLVALUE DUP1 ISZERO PUSH2 0x3B7 JUMPI PUSH1 0x0 DUP1 REVERT JUMPDEST POP PUSH2 0x3D2 PUSH1 0x4 DUP1 CALLDATASIZE SUB DUP2 ADD SWAP1 PUSH2 0x3CD SWAP2 SWAP1 PUSH2 0x5541 JUMP JUMPDEST PUSH2 0x3C74 JUMP JUMPDEST STOP JUMPDEST CALLVALUE DUP1 ISZERO PUSH2 0x3E0 JUMPI PUSH1 0x0 DUP1 REVERT JUMPDEST POP PUSH2 0x3FB PUSH1 0x4 DUP1 CALLDATASIZE SUB DUP2 ADD SWAP1 PUSH2 0x3F6 SWAP2 SWAP1 PUSH2 0x5541 JUMP JUMPDEST PUSH2 0x3E8B JUMP JUMPDEST STOP JUMPDEST CALLVALUE DUP1 ISZERO PUSH2 0x409 JUMPI PUSH1 0x0 DUP1 REVERT JUMPDEST POP PUSH2 0x412 PUSH2 0x3F0E JUMP JUMPDEST PUSH1 0x40 MLOAD PUSH2 0x421 SWAP4 SWAP3 SWAP2 SWAP1 PUSH2 0x569A JUMP JUMPDEST PUSH1 0x40 MLOAD DUP1 SWAP2 SUB SWAP1 RETURN JUMPDEST PUSH2 0x43E PUSH8 0x98AFF1916DC6FE5C PUSH1 0xC0 SHL PUSH2 0x3F63 JUMP JUMPDEST PUSH2 0x446 PUSH2 0x3F66 JUMP JUMPDEST PUSH2 0x45A PUSH8 0x316AE873C3B0D652 PUSH1 0xC0 SHL PUSH2 0x3F63 JUMP JUMPDEST PUSH2 0x46E PUSH8 0x785E815B8640167C PUSH1 0xC0 SHL PUSH2 0x3F63 JUMP JUMPDEST PUSH2 0x476 PUSH2 0x3FB5 JUMP JUMPDEST PUSH2 0x48A PUSH8 0x9464A2FEBEF5C755 PUSH1 0xC0 SHL PUSH2 0x3F63 JUMP JUMPDEST PUSH2 0x49E PUSH8 0x4C6B8AC45693A934 PUSH1 0xC0 SHL PUSH2 0x3F63 JUMP JUMPDEST PUSH2 0x4B2 PUSH8 0x77C7735B3477BFFE PUSH1 0xC0 SHL PUSH2 0x3F63 JUMP JUMPDEST PUSH1 0x2 PUSH1 0x3 ADD PUSH1 0x1 SWAP1 SLOAD SWAP1 PUSH2 0x100 EXP SWAP1 DIV PUSH20 0xFFFFFFFFFFFFFFFFFFFFFFFFFFFFFFFFFFFFFFFF AND PUSH20 0xFFFFFFFFFFFFFFFFFFFFFFFFFFFFFFFFFFFFFFFF AND PUSH2 0x4F6 PUSH2 0x3FB5 JUMP JUMPDEST PUSH20 0xFFFFFFFFFFFFFFFFFFFFFFFFFFFFFFFFFFFFFFFF AND EQ ISZERO DUP1 ISZERO PUSH2 0x572 JUMPI POP PUSH1 0x2 PUSH1 0x4 ADD PUSH1 0x0 SWAP1 SLOAD SWAP1 PUSH2 0x100 EXP SWAP1 DIV PUSH20 0xFFFFFFFFFFFFFFFFFFFFFFFFFFFFFFFFFFFFFFFF AND PUSH20 0xFFFFFFFFFFFFFFFFFFFFFFFFFFFFFFFFFFFFFFFF AND PUSH2 0x559 PUSH2 0x3FB5 JUMP JUMPDEST PUSH20 0xFFFFFFFFFFFFFFFFFFFFFFFFFFFFFFFFFFFFFFFF AND EQ ISZERO JUMPDEST ISZERO PUSH2 0x5E3 JUMPI PUSH2 0x58B PUSH8 0x7E15A1572077914C PUSH1 0xC0 SHL PUSH2 0x3F63 JUMP JUMPDEST PUSH2 0x59F PUSH8 0x43D964E4F4D407D7 PUSH1 0xC0 SHL PUSH2 0x3F63 JUMP JUMPDEST PUSH2 0x5A7 PUSH2 0x3FB5 JUMP JUMPDEST PUSH1 0x40 MLOAD PUSH32 0xF287A3F00000000000000000000000000000000000000000000000000000000 DUP2 MSTORE PUSH1 0x4 ADD PUSH2 0x5DA SWAP2 SWAP1 PUSH2 0x556E JUMP JUMPDEST PUSH1 0x40 MLOAD DUP1 SWAP2 SUB SWAP1 REVERT JUMPDEST PUSH2 0x5F7 PUSH8 0xED562AEA97B93A20 PUSH1 0xC0 SHL PUSH2 0x3F63 JUMP JUMPDEST PUSH2 0x60B PUSH8 0xC2BCE17DCF6008F9 PUSH1 0xC0 SHL PUSH2 0x3F63 JUMP JUMPDEST PUSH2 0x61F PUSH8 0x6D6639A61C9420D7 PUSH1 0xC0 SHL PUSH2 0x3F63 JUMP JUMPDEST PUSH2 0x633 PUSH8 0x2288B71F3535A40D PUSH1 0xC0 SHL PUSH2 0x3F63 JUMP JUMPDEST PUSH2 0x647 PUSH8 0xE2853C1E3684A459 PUSH1 0xC0 SHL PUSH2 0x3F63 JUMP JUMPDEST PUSH2 0x65B PUSH8 0x55391599E62D6DAD PUSH1 0xC0 SHL PUSH2 0x3F63 JUMP JUMPDEST PUSH1 0x0 SELFBALANCE SWAP1 POP PUSH2 0x674 PUSH8 0x56FFCDA836D95D2 PUSH1 0xC0 SHL PUSH2 0x3F63 JUMP JUMPDEST PUSH2 0x688 PUSH8 0x91231038FA86A5AF PUSH1 0xC0 SHL PUSH2 0x3F63 JUMP JUMPDEST PUSH1 0x0 DUP2 SUB PUSH2 0x6EA JUMPI PUSH2 0x6A4 PUSH8 0x798D04C4B635E936 PUSH1 0xC0 SHL PUSH2 0x3F63 JUMP JUMPDEST PUSH2 0x6B8 PUSH8 0x43173A1044EC11F PUSH1 0xC0 SHL PUSH2 0x3F63 JUMP JUMPDEST PUSH1 0x40 MLOAD PUSH32 0xAD3A8B9E00000000000000000000000000000000000000000000000000000000 DUP2 MSTORE PUSH1 0x4 ADD PUSH1 0x40 MLOAD DUP1 SWAP2 SUB SWAP1 REVERT JUMPDEST PUSH2 0x6FE PUSH8 0xB1C811754C58059C PUSH1 0xC0 SHL PUSH2 0x3F63 JUMP JUMPDEST PUSH2 0x712 PUSH8 0xB632E3E2D9DF3B01 PUSH1 0xC0 SHL PUSH2 0x3F63 JUMP JUMPDEST PUSH2 0x726 PUSH8 0x1AFC8ACB9840E48B PUSH1 0xC0 SHL PUSH2 0x3F63 JUMP JUMPDEST PUSH1 0x0 PUSH20 0xFFFFFFFFFFFFFFFFFFFFFFFFFFFFFFFFFFFFFFFF AND PUSH1 0x2 PUSH1 0x3 ADD PUSH1 0x1 SWAP1 SLOAD SWAP1 PUSH2 0x100 EXP SWAP1 DIV PUSH20 0xFFFFFFFFFFFFFFFFFFFFFFFFFFFFFFFFFFFFFFFF AND PUSH20 0xFFFFFFFFFFFFFFFFFFFFFFFFFFFFFFFFFFFFFFFF AND EQ ISZERO DUP1 ISZERO PUSH2 0x79E JUMPI POP PUSH1 0x0 PUSH1 0x2 PUSH1 0x0 ADD PUSH1 0x1 SWAP1 SLOAD SWAP1 PUSH2 0x100 EXP SWAP1 DIV PUSH1 0xFF AND PUSH1 0xFF AND EQ ISZERO JUMPDEST ISZERO PUSH2 0x93D JUMPI PUSH2 0x7B7 PUSH8 0x4A0455F5A50DACE7 PUSH1 0xC0 SHL PUSH2 0x3F63 JUMP JUMPDEST PUSH2 0x7CB PUSH8 0xAC8795A2330C1CE6 PUSH1 0xC0 SHL PUSH2 0x3F63 JUMP JUMPDEST PUSH2 0x7DF PUSH8 0xBF0D77A33305324E PUSH1 0xC0 SHL PUSH2 0x3F63 JUMP JUMPDEST PUSH1 0x0 PUSH1 0x2 PUSH1 0x3 ADD PUSH1 0x1 SWAP1 SLOAD SWAP1 PUSH2 0x100 EXP SWAP1 DIV PUSH20 0xFFFFFFFFFFFFFFFFFFFFFFFFFFFFFFFFFFFFFFFF AND PUSH20 0xFFFFFFFFFFFFFFFFFFFFFFFFFFFFFFFFFFFFFFFF AND PUSH1 0x64 PUSH1 0x2 PUSH1 0x0 ADD PUSH1 0x1 SWAP1 SLOAD SWAP1 PUSH2 0x100 EXP SWAP1 DIV PUSH1 0xFF AND PUSH1 0xFF AND DUP5 PUSH2 0x840 SWAP2 SWAP1 PUSH2 0x5700 JUMP JUMPDEST PUSH2 0x84A SWAP2 SWAP1 PUSH2 0x5771 JUMP JUMPDEST PUSH1 0x40 MLOAD PUSH2 0x856 SWAP1 PUSH2 0x57D3 JUMP JUMPDEST PUSH1 0x0 PUSH1 0x40 MLOAD DUP1 DUP4 SUB DUP2 DUP6 DUP8 GAS CALL SWAP3 POP POP POP RETURNDATASIZE DUP1 PUSH1 0x0 DUP2 EQ PUSH2 0x893 JUMPI PUSH1 0x40 MLOAD SWAP2 POP PUSH1 0x1F NOT PUSH1 0x3F RETURNDATASIZE ADD AND DUP3 ADD PUSH1 0x40 MSTORE RETURNDATASIZE DUP3 MSTORE RETURNDATASIZE PUSH1 0x0 PUSH1 0x20 DUP5 ADD RETURNDATACOPY PUSH2 0x898 JUMP JUMPDEST PUSH1 0x60 SWAP2 POP JUMPDEST POP POP SWAP1 POP PUSH2 0x8B0 PUSH8 0x803B4435FF10FF44 PUSH1 0xC0 SHL PUSH2 0x3F63 JUMP JUMPDEST PUSH2 0x8C4 PUSH8 0xFD6633A4D7DF2E2 PUSH1 0xC0 SHL PUSH2 0x3F63 JUMP JUMPDEST DUP1 PUSH2 0x923 JUMPI PUSH2 0x8DD PUSH8 0xEC3D522782E00DC7 PUSH1 0xC0 SHL PUSH2 0x3F63 JUMP JUMPDEST PUSH2 0x8F1 PUSH8 0x83E74EAF0D6399EC PUSH1 0xC0 SHL PUSH2 0x3F63 JUMP JUMPDEST PUSH1 0x40 MLOAD PUSH32 0x244EC49600000000000000000000000000000000000000000000000000000000 DUP2 MSTORE PUSH1 0x4 ADD PUSH1 0x40 MLOAD DUP1 SWAP2 SUB SWAP1 REVERT JUMPDEST PUSH2 0x937 PUSH8 0xD883EBE0EF160956 PUSH1 0xC0 SHL PUSH2 0x3F63 JUMP JUMPDEST POP PUSH2 0x952 JUMP JUMPDEST PUSH2 0x951 PUSH8 0xA8B3DD6AC4F8C005 PUSH1 0xC0 SHL PUSH2 0x3F63 JUMP JUMPDEST JUMPDEST PUSH2 0x966 PUSH8 0xC2EDA4BB3E174121 PUSH1 0xC0 SHL PUSH2 0x3F63 JUMP JUMPDEST PUSH2 0x97A PUSH8 0x4BD769B9B6F0CE8C PUSH1 0xC0 SHL PUSH2 0x3F63 JUMP JUMPDEST PUSH1 0x0 PUSH1 0x2 PUSH1 0x4 ADD PUSH1 0x0 SWAP1 SLOAD SWAP1 PUSH2 0x100 EXP SWAP1 DIV PUSH20 0xFFFFFFFFFFFFFFFFFFFFFFFFFFFFFFFFFFFFFFFF AND PUSH20 0xFFFFFFFFFFFFFFFFFFFFFFFFFFFFFFFFFFFFFFFF AND PUSH1 0x64 PUSH1 0x2 PUSH1 0x0 ADD PUSH1 0x2 SWAP1 SLOAD SWAP1 PUSH2 0x100 EXP SWAP1 DIV PUSH1 0xFF AND PUSH1 0xFF AND DUP5 PUSH2 0x9DB SWAP2 SWAP1 PUSH2 0x5700 JUMP JUMPDEST PUSH2 0x9E5 SWAP2 SWAP1 PUSH2 0x5771 JUMP JUMPDEST PUSH1 0x40 MLOAD PUSH2 0x9F1 SWAP1 PUSH2 0x57D3 JUMP JUMPDEST PUSH1 0x0 PUSH1 0x40 MLOAD DUP1 DUP4 SUB DUP2 DUP6 DUP8 GAS CALL SWAP3 POP POP POP RETURNDATASIZE DUP1 PUSH1 0x0 DUP2 EQ PUSH2 0xA2E JUMPI PUSH1 0x40 MLOAD SWAP2 POP PUSH1 0x1F NOT PUSH1 0x3F RETURNDATASIZE ADD AND DUP3 ADD PUSH1 0x40 MSTORE RETURNDATASIZE DUP3 MSTORE RETURNDATASIZE PUSH1 0x0 PUSH1 0x20 DUP5 ADD RETURNDATACOPY PUSH2 0xA33 JUMP JUMPDEST PUSH1 0x60 SWAP2 POP JUMPDEST POP POP SWAP1 POP PUSH2 0xA4B PUSH8 0xD32DB4DB4B601C8 PUSH1 0xC0 SHL PUSH2 0x3F63 JUMP JUMPDEST PUSH2 0xA5F PUSH8 0x68D2CA023AFE524 PUSH1 0xC0 SHL PUSH2 0x3F63 JUMP JUMPDEST DUP1 PUSH2 0xABE JUMPI PUSH2 0xA78 PUSH8 0x9D096F55B3B08312 PUSH1 0xC0 SHL PUSH2 0x3F63 JUMP JUMPDEST PUSH2 0xA8C PUSH8 0x681D2E48273B5C54 PUSH1 0xC0 SHL PUSH2 0x3F63 JUMP JUMPDEST PUSH1 0x40 MLOAD PUSH32 0x244EC49600000000000000000000000000000000000000000000000000000000 DUP2 MSTORE PUSH1 0x4 ADD PUSH1 0x40 MLOAD DUP1 SWAP2 SUB SWAP1 REVERT JUMPDEST PUSH2 0xAD2 PUSH8 0x7D1DA2C11949325E PUSH1 0xC0 SHL PUSH2 0x3F63 JUMP JUMPDEST PUSH2 0xAE6 PUSH8 0x5C7779A9B067CEC8 PUSH1 0xC0 SHL PUSH2 0x3F63 JUMP JUMPDEST PUSH2 0xAFA PUSH8 0x396830A43C5DC32B PUSH1 0xC0 SHL PUSH2 0x3F63 JUMP JUMPDEST TIMESTAMP PUSH32 0x5E4AE8571F79274A16BFB15067CBF26CECA499FD2D7AA8B710E08E697D465180 PUSH1 0x40 MLOAD PUSH1 0x40 MLOAD DUP1 SWAP2 SUB SWAP1 LOG2 POP POP POP PUSH2 0xB32 PUSH2 0x3FBD JUMP JUMPDEST JUMP JUMPDEST PUSH2 0xB48 PUSH8 0xF0DA3ADA82E8130A PUSH1 0xC0 SHL PUSH2 0x3F63 JUMP JUMPDEST PUSH2 0xB50 PUSH2 0x3FC6 JUMP JUMPDEST PUSH2 0xB64 PUSH8 0xF649EA709E720DFF PUSH1 0xC0 SHL PUSH2 0x3F63 JUMP JUMPDEST PUSH2 0xB78 PUSH8 0x2BB58669213E5568 PUSH1 0xC0 SHL PUSH2 0x3F63 JUMP JUMPDEST PUSH2 0xB8C PUSH8 0xB6DA6D3F8C25E0C0 PUSH1 0xC0 SHL PUSH2 0x3F63 JUMP JUMPDEST PUSH2 0xBA0 PUSH8 0x6AC26EDDFF565044 PUSH1 0xC0 SHL PUSH2 0x3F63 JUMP JUMPDEST PUSH1 0x0 TIMESTAMP SWAP1 POP PUSH2 0xBB9 PUSH8 0xAC50EE87A8A9B6C0 PUSH1 0xC0 SHL PUSH2 0x3F63 JUMP JUMPDEST PUSH2 0xBCD PUSH8 0xB820C1EF2FC62D3B PUSH1 0xC0 SHL PUSH2 0x3F63 JUMP JUMPDEST PUSH1 0x2 PUSH1 0x0 ADD PUSH1 0x5 SWAP1 SLOAD SWAP1 PUSH2 0x100 EXP SWAP1 DIV PUSH1 0xFF AND PUSH2 0xC2F JUMPI PUSH2 0xBF8 PUSH8 0x52BE21A270D3AD34 PUSH1 0xC0 SHL PUSH2 0x3F63 JUMP JUMPDEST PUSH2 0xC0C PUSH8 0xC2C3662D1FE12D4A PUSH1 0xC0 SHL PUSH2 0x3F63 JUMP JUMPDEST PUSH1 0x1 PUSH1 0x2 PUSH1 0x0 ADD PUSH1 0x5 PUSH2 0x100 EXP DUP2 SLOAD DUP2 PUSH1 0xFF MUL NOT AND SWAP1 DUP4 ISZERO ISZERO MUL OR SWAP1 SSTORE POP PUSH2 0xC44 JUMP JUMPDEST PUSH2 0xC43 PUSH8 0x215D1FEF5DA6CB3C PUSH1 0xC0 SHL PUSH2 0x3F63 JUMP JUMPDEST JUMPDEST PUSH2 0xC58 PUSH8 0x8A70A9912D70BCD6 PUSH1 0xC0 SHL PUSH2 0x3F63 JUMP JUMPDEST PUSH2 0xC6C PUSH8 0xB9637583E4FD3FA3 PUSH1 0xC0 SHL PUSH2 0x3F63 JUMP JUMPDEST PUSH1 0x0 PUSH1 0x2 DUP2 GT ISZERO PUSH2 0xC80 JUMPI PUSH2 0xC7F PUSH2 0x5232 JUMP JUMPDEST JUMPDEST PUSH1 0x2 PUSH1 0x3 ADD PUSH1 0x0 SWAP1 SLOAD SWAP1 PUSH2 0x100 EXP SWAP1 DIV PUSH1 0xFF AND PUSH1 0x2 DUP2 GT ISZERO PUSH2 0xCA5 JUMPI PUSH2 0xCA4 PUSH2 0x5232 JUMP JUMPDEST JUMPDEST EQ PUSH2 0xE49 JUMPI PUSH2 0xCBE PUSH8 0xFE253824D247BC87 PUSH1 0xC0 SHL PUSH2 0x3F63 JUMP JUMPDEST PUSH2 0xCD2 PUSH8 0xDD8A5596F3E9DBAF PUSH1 0xC0 SHL PUSH2 0x3F63 JUMP JUMPDEST PUSH2 0xCE6 PUSH8 0xE7745E4A74445811 PUSH1 0xC0 SHL PUSH2 0x3F63 JUMP JUMPDEST PUSH1 0x0 DUP4 PUSH1 0xFF AND EQ DUP1 ISZERO PUSH2 0xD09 JUMPI POP PUSH2 0xD08 PUSH8 0xDFB7D86D97227B2E PUSH1 0xC0 SHL PUSH2 0x4044 JUMP JUMPDEST JUMPDEST DUP1 PUSH2 0xD34 JUMPI POP PUSH1 0x0 DUP3 PUSH2 0xFFFF AND EQ DUP1 ISZERO PUSH2 0xD33 JUMPI POP PUSH2 0xD32 PUSH8 0x5A8AFC59B2ECC19D PUSH1 0xC0 SHL PUSH2 0x4044 JUMP JUMPDEST JUMPDEST JUMPDEST ISZERO PUSH2 0xD93 JUMPI PUSH2 0xD4D PUSH8 0xB35F99CA4D9B7947 PUSH1 0xC0 SHL PUSH2 0x3F63 JUMP JUMPDEST PUSH2 0xD61 PUSH8 0xB4BC53DE7A66BC23 PUSH1 0xC0 SHL PUSH2 0x3F63 JUMP JUMPDEST PUSH1 0x40 MLOAD PUSH32 0x8F12086700000000000000000000000000000000000000000000000000000000 DUP2 MSTORE PUSH1 0x4 ADD PUSH1 0x40 MLOAD DUP1 SWAP2 SUB SWAP1 REVERT JUMPDEST PUSH2 0xDA7 PUSH8 0x97960940CCE12842 PUSH1 0xC0 SHL PUSH2 0x3F63 JUMP JUMPDEST PUSH2 0xDBB PUSH8 0x8D04BD95F8F1AA2D PUSH1 0xC0 SHL PUSH2 0x3F63 JUMP JUMPDEST PUSH1 0x0 PUSH1 0x2 PUSH1 0x3 ADD PUSH1 0x0 PUSH2 0x100 EXP DUP2 SLOAD DUP2 PUSH1 0xFF MUL NOT AND SWAP1 DUP4 PUSH1 0x2 DUP2 GT ISZERO PUSH2 0xDE4 JUMPI PUSH2 0xDE3 PUSH2 0x5232 JUMP JUMPDEST JUMPDEST MUL OR SWAP1 SSTORE POP PUSH2 0xDFD PUSH8 0xBA77D1294207E9F5 PUSH1 0xC0 SHL PUSH2 0x3F63 JUMP JUMPDEST PUSH2 0xE11 PUSH8 0xB145AD458B0BCF2A PUSH1 0xC0 SHL PUSH2 0x3F63 JUMP JUMPDEST DUP1 PUSH1 0x0 PUSH1 0x1 ISZERO ISZERO PUSH32 0xC4A8C097B5D93DCEBAA4F0F65B88CA288E38FF724FA55D3D2AF8ECD63C3C9BE7 PUSH1 0x40 MLOAD PUSH1 0x40 MLOAD DUP1 SWAP2 SUB SWAP1 LOG4 PUSH2 0xE5E JUMP JUMPDEST PUSH2 0xE5D PUSH8 0xF014013BE4EA5C38 PUSH1 0xC0 SHL PUSH2 0x3F63 JUMP JUMPDEST JUMPDEST PUSH2 0xE72 PUSH8 0x5EBD9759EFC9FC2B PUSH1 0xC0 SHL PUSH2 0x3F63 JUMP JUMPDEST PUSH2 0xE86 PUSH8 0x5F26645BF54A8139 PUSH1 0xC0 SHL PUSH2 0x3F63 JUMP JUMPDEST PUSH2 0xE90 DUP4 DUP4 PUSH2 0x404F JUMP JUMPDEST PUSH2 0xEA4 PUSH8 0xE8708527C0C7F09B PUSH1 0xC0 SHL PUSH2 0x3F63 JUMP JUMPDEST DUP2 PUSH1 0x2 PUSH1 0x0 ADD PUSH1 0x3 PUSH2 0x100 EXP DUP2 SLOAD DUP2 PUSH2 0xFFFF MUL NOT AND SWAP1 DUP4 PUSH2 0xFFFF AND MUL OR SWAP1 SSTORE POP PUSH2 0xED8 PUSH8 0x95176AEA96E86627 PUSH1 0xC0 SHL PUSH2 0x3F63 JUMP JUMPDEST DUP3 PUSH1 0x2 PUSH1 0x0 ADD PUSH1 0x0 PUSH2 0x100 EXP DUP2 SLOAD DUP2 PUSH1 0xFF MUL NOT AND SWAP1 DUP4 PUSH1 0xFF AND MUL OR SWAP1 SSTORE POP PUSH2 0xF0A PUSH8 0xEF07B26F90058896 PUSH1 0xC0 SHL PUSH2 0x3F63 JUMP JUMPDEST PUSH2 0xF1E PUSH8 0x17F7FF8EE0ECAAC8 PUSH1 0xC0 SHL PUSH2 0x3F63 JUMP JUMPDEST DUP1 PUSH32 0x422DD4708A15598E4D5684FBA6E31DA6E941A6751D420A03ED97E323D4C7CFE7 DUP5 DUP5 PUSH1 0x40 MLOAD PUSH2 0xF50 SWAP3 SWAP2 SWAP1 PUSH2 0x5854 JUMP JUMPDEST PUSH1 0x40 MLOAD DUP1 SWAP2 SUB SWAP1 LOG2 POP POP POP JUMP JUMPDEST PUSH2 0xF71 PUSH8 0x43E34622F5BA7D21 PUSH1 0xC0 SHL PUSH2 0x410C JUMP JUMPDEST PUSH2 0xF79 PUSH2 0x3FC6 JUMP JUMPDEST PUSH2 0xF8D PUSH8 0xA9D2F498AED3CEAA PUSH1 0xC0 SHL PUSH2 0x410C JUMP JUMPDEST PUSH2 0xFA1 PUSH8 0x4661877440524216 PUSH1 0xC0 SHL PUSH2 0x410C JUMP JUMPDEST PUSH2 0xFB5 PUSH8 0x10CE7A74E26C31D PUSH1 0xC0 SHL PUSH2 0x410C JUMP JUMPDEST PUSH2 0xFC9 PUSH8 0x91988976B8EA3AC1 PUSH1 0xC0 SHL PUSH2 0x410C JUMP JUMPDEST PUSH1 0x0 DUP4 EQ DUP1 ISZERO PUSH2 0xFE9 JUMPI POP PUSH2 0xFE8 PUSH8 0x9BDAF617ACF19D7B PUSH1 0xC0 SHL PUSH2 0x410F JUMP JUMPDEST JUMPDEST DUP1 PUSH2 0x102C JUMPI POP DUP3 DUP3 GT ISZERO DUP1 ISZERO PUSH2 0x100F JUMPI POP PUSH2 0x100E PUSH8 0x1CA35A89DB2CE3E5 PUSH1 0xC0 SHL PUSH2 0x410F JUMP JUMPDEST JUMPDEST DUP1 ISZERO PUSH2 0x102B JUMPI POP PUSH2 0x102A PUSH8 0x4C398F25D05FF0F4 PUSH1 0xC0 SHL PUSH2 0x410F JUMP JUMPDEST JUMPDEST JUMPDEST DUP1 PUSH2 0x1053 JUMPI POP PUSH1 0x0 DUP2 EQ DUP1 ISZERO PUSH2 0x1052 JUMPI POP PUSH2 0x1051 PUSH8 0x2F0146BDFAC543BB PUSH1 0xC0 SHL PUSH2 0x410F JUMP JUMPDEST JUMPDEST JUMPDEST ISZERO PUSH2 0x10B2 JUMPI PUSH2 0x106C PUSH8 0xC9E833BB0AC1C867 PUSH1 0xC0 SHL PUSH2 0x410C JUMP JUMPDEST PUSH2 0x1080 PUSH8 0xB2B21BF8335F7B45 PUSH1 0xC0 SHL PUSH2 0x410C JUMP JUMPDEST PUSH1 0x40 MLOAD PUSH32 0xECA686C00000000000000000000000000000000000000000000000000000000 DUP2 MSTORE PUSH1 0x4 ADD PUSH1 0x40 MLOAD DUP1 SWAP2 SUB SWAP1 REVERT JUMPDEST PUSH2 0x10C6 PUSH8 0x3CA3C438E0C456B5 PUSH1 0xC0 SHL PUSH2 0x410C JUMP JUMPDEST PUSH2 0x10DA PUSH8 0x221801593173C3EF PUSH1 0xC0 SHL PUSH2 0x410C JUMP JUMPDEST DUP3 PUSH1 0x9 DUP2 SWAP1 SSTORE POP PUSH2 0x10F5 PUSH8 0x880D9B555CD606D3 PUSH1 0xC0 SHL PUSH2 0x410C JUMP JUMPDEST DUP2 PUSH1 0xA DUP2 SWAP1 SSTORE POP PUSH2 0x1110 PUSH8 0x7AFCFB1E7311D5DC PUSH1 0xC0 SHL PUSH2 0x410C JUMP JUMPDEST DUP1 PUSH1 0xB DUP2 SWAP1 SSTORE POP PUSH2 0x112B PUSH8 0x9C3AEFF2D9842E9E PUSH1 0xC0 SHL PUSH2 0x410C JUMP JUMPDEST PUSH2 0x113F PUSH8 0xA09C58446008744B PUSH1 0xC0 SHL PUSH2 0x410C JUMP JUMPDEST PUSH32 0xB2EFB0AA6E279553A1E5567EBB495D322192AA43C5FC3073CBA4601D52009AB4 DUP4 DUP4 DUP4 PUSH1 0x40 MLOAD PUSH2 0x1172 SWAP4 SWAP3 SWAP2 SWAP1 PUSH2 0x569A JUMP JUMPDEST PUSH1 0x40 MLOAD DUP1 SWAP2 SUB SWAP1 LOG1 POP POP POP JUMP JUMPDEST PUSH1 0x2 DUP1 PUSH1 0x0 ADD PUSH1 0x0 SWAP1 SLOAD SWAP1 PUSH2 0x100 EXP SWAP1 DIV PUSH1 0xFF AND SWAP1 DUP1 PUSH1 0x0 ADD PUSH1 0x1 SWAP1 SLOAD SWAP1 PUSH2 0x100 EXP SWAP1 DIV PUSH1 0xFF AND SWAP1 DUP1 PUSH1 0x0 ADD PUSH1 0x2 SWAP1 SLOAD SWAP1 PUSH2 0x100 EXP SWAP1 DIV PUSH1 0xFF AND SWAP1 DUP1 PUSH1 0x0 ADD PUSH1 0x3 SWAP1 SLOAD SWAP1 PUSH2 0x100 EXP SWAP1 DIV PUSH2 0xFFFF AND SWAP1 DUP1 PUSH1 0x0 ADD PUSH1 0x5 SWAP1 SLOAD SWAP1 PUSH2 0x100 EXP SWAP1 DIV PUSH1 0xFF AND SWAP1 DUP1 PUSH1 0x1 ADD SLOAD SWAP1 DUP1 PUSH1 0x2 ADD SLOAD SWAP1 DUP1 PUSH1 0x3 ADD PUSH1 0x0 SWAP1 SLOAD SWAP1 PUSH2 0x100 EXP SWAP1 DIV PUSH1 0xFF AND SWAP1 DUP1 PUSH1 0x3 ADD PUSH1 0x1 SWAP1 SLOAD SWAP1 PUSH2 0x100 EXP SWAP1 DIV PUSH20 0xFFFFFFFFFFFFFFFFFFFFFFFFFFFFFFFFFFFFFFFF AND SWAP1 DUP1 PUSH1 0x4 ADD PUSH1 0x0 SWAP1 SLOAD SWAP1 PUSH2 0x100 EXP SWAP1 DIV PUSH20 0xFFFFFFFFFFFFFFFFFFFFFFFFFFFFFFFFFFFFFFFF AND SWAP1 POP DUP11 JUMP JUMPDEST PUSH1 0x0 DUP1 PUSH1 0x0 DUP1 PUSH1 0x0 DUP1 PUSH1 0x0 DUP1 PUSH1 0x0 DUP1 PUSH1 0x0 PUSH2 0x1275 PUSH8 0xC9A172E8A7207034 PUSH1 0xC0 SHL PUSH2 0x3F63 JUMP JUMPDEST PUSH2 0x1289 PUSH8 0xB6004C2D1F867A24 PUSH1 0xC0 SHL PUSH2 0x3F63 JUMP JUMPDEST PUSH2 0x129D PUSH8 0x152A9BCE6D0AF6B1 PUSH1 0xC0 SHL PUSH2 0x3F63 JUMP JUMPDEST PUSH1 0x2 PUSH1 0x0 ADD PUSH1 0x5 SWAP1 SLOAD SWAP1 PUSH2 0x100 EXP SWAP1 DIV PUSH1 0xFF AND PUSH1 0x2 PUSH1 0x0 ADD PUSH1 0x1 SWAP1 SLOAD SWAP1 PUSH2 0x100 EXP SWAP1 DIV PUSH1 0xFF AND PUSH1 0x2 PUSH1 0x0 ADD PUSH1 0x2 SWAP1 SLOAD SWAP1 PUSH2 0x100 EXP SWAP1 DIV PUSH1 0xFF AND PUSH1 0x2 PUSH1 0x0 ADD PUSH1 0x0 SWAP1 SLOAD SWAP1 PUSH2 0x100 EXP SWAP1 DIV PUSH1 0xFF AND PUSH1 0x2 PUSH1 0x0 ADD PUSH1 0x3 SWAP1 SLOAD SWAP1 PUSH2 0x100 EXP SWAP1 DIV PUSH2 0xFFFF AND PUSH1 0x2 PUSH1 0x3 ADD PUSH1 0x0 SWAP1 SLOAD SWAP1 PUSH2 0x100 EXP SWAP1 DIV PUSH1 0xFF AND PUSH1 0x2 DUP2 GT ISZERO PUSH2 0x1322 JUMPI PUSH2 0x1321 PUSH2 0x5232 JUMP JUMPDEST JUMPDEST PUSH1 0x2 DUP1 ADD SLOAD PUSH1 0x2 PUSH1 0x1 ADD SLOAD PUSH1 0x2 PUSH1 0x3 ADD PUSH1 0x1 SWAP1 SLOAD SWAP1 PUSH2 0x100 EXP SWAP1 DIV PUSH20 0xFFFFFFFFFFFFFFFFFFFFFFFFFFFFFFFFFFFFFFFF AND PUSH1 0x2 PUSH1 0x4 ADD PUSH1 0x0 SWAP1 SLOAD SWAP1 PUSH2 0x100 EXP SWAP1 DIV PUSH20 0xFFFFFFFFFFFFFFFFFFFFFFFFFFFFFFFFFFFFFFFF AND PUSH32 0x0 SWAP11 POP SWAP11 POP SWAP11 POP SWAP11 POP SWAP11 POP SWAP11 POP SWAP11 POP SWAP11 POP SWAP11 POP SWAP11 POP SWAP11 POP SWAP1 SWAP2 SWAP3 SWAP4 SWAP5 SWAP6 SWAP7 SWAP8 SWAP9 SWAP10 SWAP11 JUMP JUMPDEST PUSH2 0x13D1 PUSH8 0xCD3EA26CD4D7F565 PUSH1 0xC0 SHL PUSH2 0x410C JUMP JUMPDEST DUP5 PUSH2 0x13E6 PUSH8 0xF2153B3025C2CF41 PUSH1 0xC0 SHL PUSH2 0x410C JUMP JUMPDEST PUSH2 0x13FA PUSH8 0xDA29B6F44D5FFD5 PUSH1 0xC0 SHL PUSH2 0x410C JUMP JUMPDEST PUSH2 0x140E PUSH8 0xF897555B7AAEE5E2 PUSH1 0xC0 SHL PUSH2 0x410C JUMP JUMPDEST PUSH1 0x9 SLOAD DUP2 LT DUP1 ISZERO PUSH2 0x142F JUMPI POP PUSH2 0x142E PUSH8 0x8063647B569A2892 PUSH1 0xC0 SHL PUSH2 0x410F JUMP JUMPDEST JUMPDEST DUP1 PUSH2 0x1457 JUMPI POP PUSH1 0xA SLOAD DUP2 GT DUP1 ISZERO PUSH2 0x1456 JUMPI POP PUSH2 0x1455 PUSH8 0x3A4F2042C352492D PUSH1 0xC0 SHL PUSH2 0x410F JUMP JUMPDEST JUMPDEST JUMPDEST ISZERO PUSH2 0x14B6 JUMPI PUSH2 0x1470 PUSH8 0xE46C89198A50C5AE PUSH1 0xC0 SHL PUSH2 0x410C JUMP JUMPDEST PUSH2 0x1484 PUSH8 0xCD71CAEA682558BE PUSH1 0xC0 SHL PUSH2 0x410C JUMP JUMPDEST PUSH1 0x40 MLOAD PUSH32 0x17DFB4AC00000000000000000000000000000000000000000000000000000000 DUP2 MSTORE PUSH1 0x4 ADD PUSH1 0x40 MLOAD DUP1 SWAP2 SUB SWAP1 REVERT JUMPDEST PUSH2 0x14CA PUSH8 0xD3DE7E63123C7075 PUSH1 0xC0 SHL PUSH2 0x410C JUMP JUMPDEST PUSH2 0x14DE PUSH8 0x949A51B9D9C02D8C PUSH1 0xC0 SHL PUSH2 0x410C JUMP JUMPDEST PUSH2 0x14F2 PUSH8 0x264D03EAF179A4A5 PUSH1 0xC0 SHL PUSH2 0x410C JUMP JUMPDEST PUSH2 0x1506 PUSH8 0x37B63DEF8DB0470D PUSH1 0xC0 SHL PUSH2 0x410C JUMP JUMPDEST PUSH2 0x150E PUSH2 0x3F66 JUMP JUMPDEST PUSH2 0x1522 PUSH8 0x7BDDBCF3037F159D PUSH1 0xC0 SHL PUSH2 0x410C JUMP JUMPDEST PUSH2 0x1536 PUSH8 0x52A84134B970998D PUSH1 0xC0 SHL PUSH2 0x410C JUMP JUMPDEST DUP7 PUSH2 0x154B PUSH8 0x26F982BDAEE9DDAE PUSH1 0xC0 SHL PUSH2 0x3F63 JUMP JUMPDEST PUSH2 0x155F PUSH8 0x43E93428F870CDE PUSH1 0xC0 SHL PUSH2 0x3F63 JUMP JUMPDEST PUSH2 0x1573 PUSH8 0x83D504CC9B25EEE6 PUSH1 0xC0 SHL PUSH2 0x3F63 JUMP JUMPDEST PUSH1 0x0 PUSH20 0xFFFFFFFFFFFFFFFFFFFFFFFFFFFFFFFFFFFFFFFF AND DUP2 PUSH20 0xFFFFFFFFFFFFFFFFFFFFFFFFFFFFFFFFFFFFFFFF AND SUB PUSH2 0x1601 JUMPI PUSH2 0x15BB PUSH8 0x8C65A462E5EEEDE PUSH1 0xC0 SHL PUSH2 0x3F63 JUMP JUMPDEST PUSH2 0x15CF PUSH8 0xDCCF128358FA9625 PUSH1 0xC0 SHL PUSH2 0x3F63 JUMP JUMPDEST PUSH1 0x40 MLOAD PUSH32 0xD92E233D00000000000000000000000000000000000000000000000000000000 DUP2 MSTORE PUSH1 0x4 ADD PUSH1 0x40 MLOAD DUP1 SWAP2 SUB SWAP1 REVERT JUMPDEST PUSH2 0x1615 PUSH8 0xF70D14915DD40D8C PUSH1 0xC0 SHL PUSH2 0x3F63 JUMP JUMPDEST PUSH2 0x1629 PUSH8 0xC11D9527ED3A4529 PUSH1 0xC0 SHL PUSH2 0x3F63 JUMP JUMPDEST PUSH2 0x163D PUSH8 0x10A2C27084EB3F1C PUSH1 0xC0 SHL PUSH2 0x410C JUMP JUMPDEST PUSH2 0x1651 PUSH8 0x881BA74012A53494 PUSH1 0xC0 SHL PUSH2 0x410C JUMP JUMPDEST PUSH2 0x1665 PUSH8 0xC4F1A65CE73EEAA8 PUSH1 0xC0 SHL PUSH2 0x410C JUMP JUMPDEST PUSH2 0x1679 PUSH8 0x3C6B1445CC5AF421 PUSH1 0xC0 SHL PUSH2 0x410C JUMP JUMPDEST PUSH1 0x0 PUSH2 0x168F PUSH8 0xDA07D6B99F3A9BD8 PUSH1 0xC0 SHL PUSH2 0x410C JUMP JUMPDEST PUSH2 0x16A3 PUSH8 0x14967530C8FB664B PUSH1 0xC0 SHL PUSH2 0x410C JUMP JUMPDEST PUSH1 0x0 PUSH2 0x16E1 DUP10 PUSH2 0x16B1 PUSH2 0x3FB5 JUMP JUMPDEST DUP11 ADDRESS PUSH1 0x40 MLOAD PUSH1 0x20 ADD PUSH2 0x16C6 SWAP5 SWAP4 SWAP3 SWAP2 SWAP1 PUSH2 0x59BB JUMP JUMPDEST PUSH1 0x40 MLOAD PUSH1 0x20 DUP2 DUP4 SUB SUB DUP2 MSTORE SWAP1 PUSH1 0x40 MSTORE DUP1 MLOAD SWAP1 PUSH1 0x20 ADD KECCAK256 PUSH2 0x411A JUMP JUMPDEST SWAP1 POP PUSH2 0x16F7 PUSH8 0x1FB83BE602DF6EF0 PUSH1 0xC0 SHL PUSH2 0x410C JUMP JUMPDEST PUSH2 0x170B PUSH8 0xFAFE08DF23800223 PUSH1 0xC0 SHL PUSH2 0x410C JUMP JUMPDEST PUSH1 0x7 PUSH1 0x0 SWAP1 SLOAD SWAP1 PUSH2 0x100 EXP SWAP1 DIV PUSH20 0xFFFFFFFFFFFFFFFFFFFFFFFFFFFFFFFFFFFFFFFF AND PUSH20 0xFFFFFFFFFFFFFFFFFFFFFFFFFFFFFFFFFFFFFFFF AND PUSH1 0x1 DUP3 DUP10 DUP10 DUP10 PUSH1 0x40 MLOAD PUSH1 0x0 DUP2 MSTORE PUSH1 0x20 ADD PUSH1 0x40 MSTORE PUSH1 0x40 MLOAD PUSH2 0x1767 SWAP5 SWAP4 SWAP3 SWAP2 SWAP1 PUSH2 0x5A23 JUMP JUMPDEST PUSH1 0x20 PUSH1 0x40 MLOAD PUSH1 0x20 DUP2 SUB SWAP1 DUP1 DUP5 SUB SWAP1 DUP6 GAS STATICCALL ISZERO DUP1 ISZERO PUSH2 0x1789 JUMPI RETURNDATASIZE PUSH1 0x0 DUP1 RETURNDATACOPY RETURNDATASIZE PUSH1 0x0 REVERT JUMPDEST POP POP POP PUSH1 0x20 PUSH1 0x40 MLOAD SUB MLOAD PUSH20 0xFFFFFFFFFFFFFFFFFFFFFFFFFFFFFFFFFFFFFFFF AND EQ PUSH2 0x1808 JUMPI PUSH2 0x17C2 PUSH8 0x6B12821B1A654782 PUSH1 0xC0 SHL PUSH2 0x410C JUMP JUMPDEST PUSH2 0x17D6 PUSH8 0x4832A05810DBD547 PUSH1 0xC0 SHL PUSH2 0x410C JUMP JUMPDEST PUSH1 0x40 MLOAD PUSH32 0xA7A059BC00000000000000000000000000000000000000000000000000000000 DUP2 MSTORE PUSH1 0x4 ADD PUSH1 0x40 MLOAD DUP1 SWAP2 SUB SWAP1 REVERT JUMPDEST PUSH2 0x181C PUSH8 0x20AC486E0522D173 PUSH1 0xC0 SHL PUSH2 0x410C JUMP JUMPDEST PUSH2 0x1830 PUSH8 0xA330B92B5AD56FA9 PUSH1 0xC0 SHL PUSH2 0x410C JUMP JUMPDEST PUSH2 0x1844 PUSH8 0x970AAC16E5F390D2 PUSH1 0xC0 SHL PUSH2 0x410C JUMP JUMPDEST PUSH1 0x8 PUSH1 0x0 DUP3 DUP2 MSTORE PUSH1 0x20 ADD SWAP1 DUP2 MSTORE PUSH1 0x20 ADD PUSH1 0x0 KECCAK256 PUSH1 0x0 SWAP1 SLOAD SWAP1 PUSH2 0x100 EXP SWAP1 DIV PUSH1 0xFF AND ISZERO PUSH2 0x18C4 JUMPI PUSH2 0x187E PUSH8 0x4DE54CA961A6025A PUSH1 0xC0 SHL PUSH2 0x410C JUMP JUMPDEST PUSH2 0x1892 PUSH8 0xAA130AE8B88E1BC3 PUSH1 0xC0 SHL PUSH2 0x410C JUMP JUMPDEST PUSH1 0x40 MLOAD PUSH32 0xCCE9A82400000000000000000000000000000000000000000000000000000000 DUP2 MSTORE PUSH1 0x4 ADD PUSH1 0x40 MLOAD DUP1 SWAP2 SUB SWAP1 REVERT JUMPDEST PUSH2 0x18D8 PUSH8 0x247717E78A8809A2 PUSH1 0xC0 SHL PUSH2 0x410C JUMP JUMPDEST PUSH2 0x18EC PUSH8 0x5055DF14664A571C PUSH1 0xC0 SHL PUSH2 0x410C JUMP JUMPDEST PUSH1 0x1 PUSH1 0x8 PUSH1 0x0 DUP4 DUP2 MSTORE PUSH1 0x20 ADD SWAP1 DUP2 MSTORE PUSH1 0x20 ADD PUSH1 0x0 KECCAK256 PUSH1 0x0 PUSH2 0x100 EXP DUP2 SLOAD DUP2 PUSH1 0xFF MUL NOT AND SWAP1 DUP4 ISZERO ISZERO MUL OR SWAP1 SSTORE POP PUSH2 0x192C PUSH8 0x10F1C8EAB6CF3217 PUSH1 0xC0 SHL PUSH2 0x410C JUMP JUMPDEST PUSH2 0x1940 PUSH8 0xB169639A0CB036A0 PUSH1 0xC0 SHL PUSH2 0x410C JUMP JUMPDEST PUSH1 0xB SLOAD DUP10 PUSH32 0x0 PUSH20 0xFFFFFFFFFFFFFFFFFFFFFFFFFFFFFFFFFFFFFFFF AND PUSH4 0x18160DDD PUSH1 0x40 MLOAD DUP2 PUSH4 0xFFFFFFFF AND PUSH1 0xE0 SHL DUP2 MSTORE PUSH1 0x4 ADD PUSH1 0x20 PUSH1 0x40 MLOAD DUP1 DUP4 SUB DUP2 DUP7 GAS STATICCALL ISZERO DUP1 ISZERO PUSH2 0x19AF JUMPI RETURNDATASIZE PUSH1 0x0 DUP1 RETURNDATACOPY RETURNDATASIZE PUSH1 0x0 REVERT JUMPDEST POP POP POP POP PUSH1 0x40 MLOAD RETURNDATASIZE PUSH1 0x1F NOT PUSH1 0x1F DUP3 ADD AND DUP3 ADD DUP1 PUSH1 0x40 MSTORE POP DUP2 ADD SWAP1 PUSH2 0x19D3 SWAP2 SWAP1 PUSH2 0x5A7D JUMP JUMPDEST PUSH2 0x19DD SWAP2 SWAP1 PUSH2 0x5AAA JUMP JUMPDEST GT ISZERO PUSH2 0x1A3D JUMPI PUSH2 0x19F7 PUSH8 0xED6359E2D8AE91B PUSH1 0xC0 SHL PUSH2 0x410C JUMP JUMPDEST PUSH2 0x1A0B PUSH8 0x26FEB62186B39ECC PUSH1 0xC0 SHL PUSH2 0x410C JUMP JUMPDEST PUSH1 0x40 MLOAD PUSH32 0x28B53D4500000000000000000000000000000000000000000000000000000000 DUP2 MSTORE PUSH1 0x4 ADD PUSH1 0x40 MLOAD DUP1 SWAP2 SUB SWAP1 REVERT JUMPDEST PUSH2 0x1A51 PUSH8 0xC5E0E8641C81ACFD PUSH1 0xC0 SHL PUSH2 0x410C JUMP JUMPDEST PUSH2 0x1A65 PUSH8 0x2484E2534085747 PUSH1 0xC0 SHL PUSH2 0x410C JUMP JUMPDEST PUSH2 0x1A79 PUSH8 0x2545F4032E815F77 PUSH1 0xC0 SHL PUSH2 0x410C JUMP JUMPDEST PUSH1 0x2 PUSH1 0x0 ADD PUSH1 0x5 SWAP1 SLOAD SWAP1 PUSH2 0x100 EXP SWAP1 DIV PUSH1 0xFF AND ISZERO PUSH2 0x1FAE JUMPI PUSH2 0x1AA5 PUSH8 0xC69D0EF5F32ECB68 PUSH1 0xC0 SHL PUSH2 0x410C JUMP JUMPDEST PUSH2 0x1AB9 PUSH8 0x5F27BAB2B1BF9E1C PUSH1 0xC0 SHL PUSH2 0x410C JUMP JUMPDEST PUSH2 0x1ACD PUSH8 0x496FD597853D25F4 PUSH1 0xC0 SHL PUSH2 0x410C JUMP JUMPDEST PUSH1 0x2 DUP1 DUP2 GT ISZERO PUSH2 0x1AE0 JUMPI PUSH2 0x1ADF PUSH2 0x5232 JUMP JUMPDEST JUMPDEST PUSH1 0x2 PUSH1 0x3 ADD PUSH1 0x0 SWAP1 SLOAD SWAP1 PUSH2 0x100 EXP SWAP1 DIV PUSH1 0xFF AND PUSH1 0x2 DUP2 GT ISZERO PUSH2 0x1B05 JUMPI PUSH2 0x1B04 PUSH2 0x5232 JUMP JUMPDEST JUMPDEST SUB PUSH2 0x1C84 JUMPI PUSH2 0x1B1E PUSH8 0x19218FEEFEE1A248 PUSH1 0xC0 SHL PUSH2 0x410C JUMP JUMPDEST PUSH2 0x1B32 PUSH8 0x283F1624EADC5BD5 PUSH1 0xC0 SHL PUSH2 0x410C JUMP JUMPDEST PUSH2 0x1B46 PUSH8 0x317E9C0E30495623 PUSH1 0xC0 SHL PUSH2 0x410C JUMP JUMPDEST PUSH2 0x1B4E PUSH2 0x4186 JUMP JUMPDEST PUSH2 0x1B62 PUSH8 0x93BCA749781C9B81 PUSH1 0xC0 SHL PUSH2 0x410C JUMP JUMPDEST PUSH32 0x0 PUSH20 0xFFFFFFFFFFFFFFFFFFFFFFFFFFFFFFFFFFFFFFFF AND PUSH32 0x40C10F19C047AE7DFA66D6312B683D2EA3DFBCB4159E96B967C5F4B0A86F2842 DUP12 DUP12 PUSH1 0x40 MLOAD PUSH1 0x24 ADD PUSH2 0x1BCD SWAP3 SWAP2 SWAP1 PUSH2 0x5ADE JUMP JUMPDEST PUSH1 0x40 MLOAD PUSH1 0x20 DUP2 DUP4 SUB SUB DUP2 MSTORE SWAP1 PUSH1 0x40 MSTORE SWAP1 PUSH28 0xFFFFFFFFFFFFFFFFFFFFFFFFFFFFFFFFFFFFFFFFFFFFFFFFFFFFFFFF NOT AND PUSH1 0x20 DUP3 ADD DUP1 MLOAD PUSH28 0xFFFFFFFFFFFFFFFFFFFFFFFFFFFFFFFFFFFFFFFFFFFFFFFFFFFFFFFF DUP4 DUP2 DUP4 AND OR DUP4 MSTORE POP POP POP POP PUSH1 0x40 MLOAD PUSH2 0x1C37 SWAP2 SWAP1 PUSH2 0x5B6D JUMP JUMPDEST PUSH1 0x0 PUSH1 0x40 MLOAD DUP1 DUP4 SUB DUP2 PUSH1 0x0 DUP7 GAS CALL SWAP2 POP POP RETURNDATASIZE DUP1 PUSH1 0x0 DUP2 EQ PUSH2 0x1C74 JUMPI PUSH1 0x40 MLOAD SWAP2 POP PUSH1 0x1F NOT PUSH1 0x3F RETURNDATASIZE ADD AND DUP3 ADD PUSH1 0x40 MSTORE RETURNDATASIZE DUP3 MSTORE RETURNDATASIZE PUSH1 0x0 PUSH1 0x20 DUP5 ADD RETURNDATACOPY PUSH2 0x1C79 JUMP JUMPDEST PUSH1 0x60 SWAP2 POP JUMPDEST POP POP DUP1 SWAP3 POP POP PUSH2 0x1FA9 JUMP JUMPDEST PUSH2 0x1C98 PUSH8 0x2A6CA087860972FD PUSH1 0xC0 SHL PUSH2 0x410C JUMP JUMPDEST PUSH2 0x1CAC PUSH8 0xFFF9652840D00296 PUSH1 0xC0 SHL PUSH2 0x410C JUMP JUMPDEST PUSH32 0x0 PUSH20 0xFFFFFFFFFFFFFFFFFFFFFFFFFFFFFFFFFFFFFFFF AND PUSH32 0x40C10F19C047AE7DFA66D6312B683D2EA3DFBCB4159E96B967C5F4B0A86F2842 ADDRESS DUP12 PUSH1 0x40 MLOAD PUSH1 0x24 ADD PUSH2 0x1D17 SWAP3 SWAP2 SWAP1 PUSH2 0x5ADE JUMP JUMPDEST PUSH1 0x40 MLOAD PUSH1 0x20 DUP2 DUP4 SUB SUB DUP2 MSTORE SWAP1 PUSH1 0x40 MSTORE SWAP1 PUSH28 0xFFFFFFFFFFFFFFFFFFFFFFFFFFFFFFFFFFFFFFFFFFFFFFFFFFFFFFFF NOT AND PUSH1 0x20 DUP3 ADD DUP1 MLOAD PUSH28 0xFFFFFFFFFFFFFFFFFFFFFFFFFFFFFFFFFFFFFFFFFFFFFFFFFFFFFFFF DUP4 DUP2 DUP4 AND OR DUP4 MSTORE POP POP POP POP PUSH1 0x40 MLOAD PUSH2 0x1D81 SWAP2 SWAP1 PUSH2 0x5B6D JUMP JUMPDEST PUSH1 0x0 PUSH1 0x40 MLOAD DUP1 DUP4 SUB DUP2 PUSH1 0x0 DUP7 GAS CALL SWAP2 POP POP RETURNDATASIZE DUP1 PUSH1 0x0 DUP2 EQ PUSH2 0x1DBE JUMPI PUSH1 0x40 MLOAD SWAP2 POP PUSH1 0x1F NOT PUSH1 0x3F RETURNDATASIZE ADD AND DUP3 ADD PUSH1 0x40 MSTORE RETURNDATASIZE DUP3 MSTORE RETURNDATASIZE PUSH1 0x0 PUSH1 0x20 DUP5 ADD RETURNDATACOPY PUSH2 0x1DC3 JUMP JUMPDEST PUSH1 0x60 SWAP2 POP JUMPDEST POP POP DUP1 SWAP3 POP POP PUSH2 0x1DDD PUSH8 0x503385FEAED9191B PUSH1 0xC0 SHL PUSH2 0x410C JUMP JUMPDEST PUSH2 0x1DF1 PUSH8 0x9D565729CE411FAC PUSH1 0xC0 SHL PUSH2 0x410C JUMP JUMPDEST DUP2 PUSH2 0x1E50 JUMPI PUSH2 0x1E0A PUSH8 0x5F45FF4ADC03B8D3 PUSH1 0xC0 SHL PUSH2 0x410C JUMP JUMPDEST PUSH2 0x1E1E PUSH8 0x1B4E581429BA4B91 PUSH1 0xC0 SHL PUSH2 0x410C JUMP JUMPDEST PUSH1 0x40 MLOAD PUSH32 0xCB57CF5500000000000000000000000000000000000000000000000000000000 DUP2 MSTORE PUSH1 0x4 ADD PUSH1 0x40 MLOAD DUP1 SWAP2 SUB SWAP1 REVERT JUMPDEST PUSH2 0x1E64 PUSH8 0x5213418546526142 PUSH1 0xC0 SHL PUSH2 0x410C JUMP JUMPDEST PUSH2 0x1E78 PUSH8 0xB7D2CE6A570F505D PUSH1 0xC0 SHL PUSH2 0x410C JUMP JUMPDEST PUSH32 0x0 PUSH20 0xFFFFFFFFFFFFFFFFFFFFFFFFFFFFFFFFFFFFFFFF AND PUSH32 0xA9059CBB2AB09EB219583F4A59A5D0623ADE346D962BCD4E46B11DA047C9049B DUP12 PUSH2 0x1EDA DUP13 PUSH2 0x4250 JUMP JUMPDEST DUP13 PUSH2 0x1EE5 SWAP2 SWAP1 PUSH2 0x5B84 JUMP JUMPDEST PUSH1 0x40 MLOAD PUSH1 0x24 ADD PUSH2 0x1EF6 SWAP3 SWAP2 SWAP1 PUSH2 0x5ADE JUMP JUMPDEST PUSH1 0x40 MLOAD PUSH1 0x20 DUP2 DUP4 SUB SUB DUP2 MSTORE SWAP1 PUSH1 0x40 MSTORE SWAP1 PUSH28 0xFFFFFFFFFFFFFFFFFFFFFFFFFFFFFFFFFFFFFFFFFFFFFFFFFFFFFFFF NOT AND PUSH1 0x20 DUP3 ADD DUP1 MLOAD PUSH28 0xFFFFFFFFFFFFFFFFFFFFFFFFFFFFFFFFFFFFFFFFFFFFFFFFFFFFFFFF DUP4 DUP2 DUP4 AND OR DUP4 MSTORE POP POP POP POP PUSH1 0x40 MLOAD PUSH2 0x1F60 SWAP2 SWAP1 PUSH2 0x5B6D JUMP JUMPDEST PUSH1 0x0 PUSH1 0x40 MLOAD DUP1 DUP4 SUB DUP2 PUSH1 0x0 DUP7 GAS CALL SWAP2 POP POP RETURNDATASIZE DUP1 PUSH1 0x0 DUP2 EQ PUSH2 0x1F9D JUMPI PUSH1 0x40 MLOAD SWAP2 POP PUSH1 0x1F NOT PUSH1 0x3F RETURNDATASIZE ADD AND DUP3 ADD PUSH1 0x40 MSTORE RETURNDATASIZE DUP3 MSTORE RETURNDATASIZE PUSH1 0x0 PUSH1 0x20 DUP5 ADD RETURNDATACOPY PUSH2 0x1FA2 JUMP JUMPDEST PUSH1 0x60 SWAP2 POP JUMPDEST POP POP DUP1 SWAP3 POP POP JUMPDEST PUSH2 0x20F4 JUMP JUMPDEST PUSH2 0x1FC2 PUSH8 0x5CE568CEADF695D PUSH1 0xC0 SHL PUSH2 0x410C JUMP JUMPDEST PUSH2 0x1FD6 PUSH8 0x66148C39E9BE2BE5 PUSH1 0xC0 SHL PUSH2 0x410C JUMP JUMPDEST PUSH32 0x0 PUSH20 0xFFFFFFFFFFFFFFFFFFFFFFFFFFFFFFFFFFFFFFFF AND PUSH32 0x40C10F19C047AE7DFA66D6312B683D2EA3DFBCB4159E96B967C5F4B0A86F2842 DUP12 DUP12 PUSH1 0x40 MLOAD PUSH1 0x24 ADD PUSH2 0x2041 SWAP3 SWAP2 SWAP1 PUSH2 0x5ADE JUMP JUMPDEST PUSH1 0x40 MLOAD PUSH1 0x20 DUP2 DUP4 SUB SUB DUP2 MSTORE SWAP1 PUSH1 0x40 MSTORE SWAP1 PUSH28 0xFFFFFFFFFFFFFFFFFFFFFFFFFFFFFFFFFFFFFFFFFFFFFFFFFFFFFFFF NOT AND PUSH1 0x20 DUP3 ADD DUP1 MLOAD PUSH28 0xFFFFFFFFFFFFFFFFFFFFFFFFFFFFFFFFFFFFFFFFFFFFFFFFFFFFFFFF DUP4 DUP2 DUP4 AND OR DUP4 MSTORE POP POP POP POP PUSH1 0x40 MLOAD PUSH2 0x20AB SWAP2 SWAP1 PUSH2 0x5B6D JUMP JUMPDEST PUSH1 0x0 PUSH1 0x40 MLOAD DUP1 DUP4 SUB DUP2 PUSH1 0x0 DUP7 GAS CALL SWAP2 POP POP RETURNDATASIZE DUP1 PUSH1 0x0 DUP2 EQ PUSH2 0x20E8 JUMPI PUSH1 0x40 MLOAD SWAP2 POP PUSH1 0x1F NOT PUSH1 0x3F RETURNDATASIZE ADD AND DUP3 ADD PUSH1 0x40 MSTORE RETURNDATASIZE DUP3 MSTORE RETURNDATASIZE PUSH1 0x0 PUSH1 0x20 DUP5 ADD RETURNDATACOPY PUSH2 0x20ED JUMP JUMPDEST PUSH1 0x60 SWAP2 POP JUMPDEST POP POP DUP1 SWAP3 POP POP JUMPDEST PUSH2 0x2108 PUSH8 0xC3E67768276D7491 PUSH1 0xC0 SHL PUSH2 0x410C JUMP JUMPDEST PUSH2 0x211C PUSH8 0xA9BE1A3425FC875B PUSH1 0xC0 SHL PUSH2 0x410C JUMP JUMPDEST DUP2 PUSH2 0x217B JUMPI PUSH2 0x2135 PUSH8 0xAB67F51AE8A70AFD PUSH1 0xC0 SHL PUSH2 0x410C JUMP JUMPDEST PUSH2 0x2149 PUSH8 0x70BB27BDD207303B PUSH1 0xC0 SHL PUSH2 0x410C JUMP JUMPDEST PUSH1 0x40 MLOAD PUSH32 0x384EC20400000000000000000000000000000000000000000000000000000000 DUP2 MSTORE PUSH1 0x4 ADD PUSH1 0x40 MLOAD DUP1 SWAP2 SUB SWAP1 REVERT JUMPDEST PUSH2 0x218E PUSH7 0x7E190C2192C997 PUSH1 0xC0 SHL PUSH2 0x410C JUMP JUMPDEST PUSH2 0x21A2 PUSH8 0x95AEFC02293C8F26 PUSH1 0xC0 SHL PUSH2 0x410C JUMP JUMPDEST PUSH2 0x21B6 PUSH8 0x5C0B7FFB0649D0CC PUSH1 0xC0 SHL PUSH2 0x410C JUMP JUMPDEST DUP10 PUSH20 0xFFFFFFFFFFFFFFFFFFFFFFFFFFFFFFFFFFFFFFFF AND PUSH32 0x62A9B3E6446AB559D6B82C4F02CC923CD3B4E47444EF86446DAB81A4D781C5AF DUP10 DUP12 PUSH1 0x40 MLOAD PUSH2 0x21FE SWAP3 SWAP2 SWAP1 PUSH2 0x5BB8 JUMP JUMPDEST PUSH1 0x40 MLOAD DUP1 SWAP2 SUB SWAP1 LOG2 POP POP POP PUSH2 0x2211 PUSH2 0x3FBD JUMP JUMPDEST POP POP POP POP POP POP POP JUMP JUMPDEST PUSH2 0x2222 PUSH2 0x3FC6 JUMP JUMPDEST PUSH2 0x222C PUSH1 0x0 PUSH2 0x47A4 JUMP JUMPDEST JUMP JUMPDEST PUSH2 0x2242 PUSH8 0xC36D110751C1B6D8 PUSH1 0xC0 SHL PUSH2 0x3F63 JUMP JUMPDEST PUSH2 0x224A PUSH2 0x3FC6 JUMP JUMPDEST PUSH2 0x225E PUSH8 0x1539CF29699C2994 PUSH1 0xC0 SHL PUSH2 0x3F63 JUMP JUMPDEST PUSH2 0x2272 PUSH8 0x83672EBDCCDFF119 PUSH1 0xC0 SHL PUSH2 0x3F63 JUMP JUMPDEST DUP1 PUSH2 0x2287 PUSH8 0x26F982BDAEE9DDAE PUSH1 0xC0 SHL PUSH2 0x3F63 JUMP JUMPDEST PUSH2 0x229B PUSH8 0x43E93428F870CDE PUSH1 0xC0 SHL PUSH2 0x3F63 JUMP JUMPDEST PUSH2 0x22AF PUSH8 0x83D504CC9B25EEE6 PUSH1 0xC0 SHL PUSH2 0x3F63 JUMP JUMPDEST PUSH1 0x0 PUSH20 0xFFFFFFFFFFFFFFFFFFFFFFFFFFFFFFFFFFFFFFFF AND DUP2 PUSH20 0xFFFFFFFFFFFFFFFFFFFFFFFFFFFFFFFFFFFFFFFF AND SUB PUSH2 0x233D JUMPI PUSH2 0x22F7 PUSH8 0x8C65A462E5EEEDE PUSH1 0xC0 SHL PUSH2 0x3F63 JUMP JUMPDEST PUSH2 0x230B PUSH8 0xDCCF128358FA9625 PUSH1 0xC0 SHL PUSH2 0x3F63 JUMP JUMPDEST PUSH1 0x40 MLOAD PUSH32 0xD92E233D00000000000000000000000000000000000000000000000000000000 DUP2 MSTORE PUSH1 0x4 ADD PUSH1 0x40 MLOAD DUP1 SWAP2 SUB SWAP1 REVERT JUMPDEST PUSH2 0x2351 PUSH8 0xF70D14915DD40D8C PUSH1 0xC0 SHL PUSH2 0x3F63 JUMP JUMPDEST PUSH2 0x2365 PUSH8 0xC11D9527ED3A4529 PUSH1 0xC0 SHL PUSH2 0x3F63 JUMP JUMPDEST PUSH2 0x2379 PUSH8 0x933FF74A3FA2011F PUSH1 0xC0 SHL PUSH2 0x3F63 JUMP JUMPDEST PUSH2 0x238D PUSH8 0x535F8E2C38452CCA PUSH1 0xC0 SHL PUSH2 0x3F63 JUMP JUMPDEST PUSH2 0x23A1 PUSH8 0x55A21313AF1705B PUSH1 0xC0 SHL PUSH2 0x3F63 JUMP JUMPDEST PUSH2 0x23B5 PUSH8 0x915D3AAD32F06D88 PUSH1 0xC0 SHL PUSH2 0x3F63 JUMP JUMPDEST DUP2 PUSH20 0xFFFFFFFFFFFFFFFFFFFFFFFFFFFFFFFFFFFFFFFF AND PUSH1 0x2 PUSH1 0x4 ADD PUSH1 0x0 SWAP1 SLOAD SWAP1 PUSH2 0x100 EXP SWAP1 DIV PUSH20 0xFFFFFFFFFFFFFFFFFFFFFFFFFFFFFFFFFFFFFFFF AND PUSH20 0xFFFFFFFFFFFFFFFFFFFFFFFFFFFFFFFFFFFFFFFF AND PUSH32 0x62904549814F5511A5D36A62611A6E2FE1D2C29B6DE74DE25D95395E0A7D009B PUSH1 0x40 MLOAD PUSH1 0x40 MLOAD DUP1 SWAP2 SUB SWAP1 LOG3 PUSH2 0x2448 PUSH8 0x1872B8A50AF9339E PUSH1 0xC0 SHL PUSH2 0x3F63 JUMP JUMPDEST DUP2 PUSH1 0x2 PUSH1 0x4 ADD PUSH1 0x0 PUSH2 0x100 EXP DUP2 SLOAD DUP2 PUSH20 0xFFFFFFFFFFFFFFFFFFFFFFFFFFFFFFFFFFFFFFFF MUL NOT AND SWAP1 DUP4 PUSH20 0xFFFFFFFFFFFFFFFFFFFFFFFFFFFFFFFFFFFFFFFF AND MUL OR SWAP1 SSTORE POP POP POP JUMP JUMPDEST PUSH1 0x0 DUP1 PUSH1 0x0 SWAP1 SLOAD SWAP1 PUSH2 0x100 EXP SWAP1 DIV PUSH20 0xFFFFFFFFFFFFFFFFFFFFFFFFFFFFFFFFFFFFFFFF AND SWAP1 POP SWAP1 JUMP JUMPDEST PUSH2 0x24CD PUSH8 0x6FBFC172696AA291 PUSH1 0xC0 SHL PUSH2 0x3F63 JUMP JUMPDEST PUSH2 0x24D5 PUSH2 0x3FC6 JUMP JUMPDEST PUSH2 0x24E9 PUSH8 0xF57A1F8195C917DE PUSH1 0xC0 SHL PUSH2 0x3F63 JUMP JUMPDEST PUSH2 0x24FD PUSH8 0x86E955FF9135E9CE PUSH1 0xC0 SHL PUSH2 0x3F63 JUMP JUMPDEST PUSH2 0x2511 PUSH8 0x2A0DC3AE5E13ED0E PUSH1 0xC0 SHL PUSH2 0x3F63 JUMP JUMPDEST PUSH2 0x2525 PUSH8 0xFC0B89F62250AC73 PUSH1 0xC0 SHL PUSH2 0x3F63 JUMP JUMPDEST DUP1 PUSH20 0xFFFFFFFFFFFFFFFFFFFFFFFFFFFFFFFFFFFFFFFF AND PUSH1 0x2 PUSH1 0x3 ADD PUSH1 0x1 SWAP1 SLOAD SWAP1 PUSH2 0x100 EXP SWAP1 DIV PUSH20 0xFFFFFFFFFFFFFFFFFFFFFFFFFFFFFFFFFFFFFFFF AND PUSH20 0xFFFFFFFFFFFFFFFFFFFFFFFFFFFFFFFFFFFFFFFF AND PUSH32 0x62904549814F5511A5D36A62611A6E2FE1D2C29B6DE74DE25D95395E0A7D009B PUSH1 0x40 MLOAD PUSH1 0x40 MLOAD DUP1 SWAP2 SUB SWAP1 LOG3 PUSH2 0x25B8 PUSH8 0x3FC2EBF7C37EF8A3 PUSH1 0xC0 SHL PUSH2 0x3F63 JUMP JUMPDEST DUP1 PUSH1 0x2 PUSH1 0x3 ADD PUSH1 0x1 PUSH2 0x100 EXP DUP2 SLOAD DUP2 PUSH20 0xFFFFFFFFFFFFFFFFFFFFFFFFFFFFFFFFFFFFFFFF MUL NOT AND SWAP1 DUP4 PUSH20 0xFFFFFFFFFFFFFFFFFFFFFFFFFFFFFFFFFFFFFFFF AND MUL OR SWAP1 SSTORE POP POP JUMP JUMPDEST PUSH2 0x2613 PUSH8 0xF6BEBF509566F8ED PUSH1 0xC0 SHL PUSH2 0x3F63 JUMP JUMPDEST PUSH2 0x261B PUSH2 0x3FC6 JUMP JUMPDEST PUSH2 0x262F PUSH8 0x86E62C23482459A4 PUSH1 0xC0 SHL PUSH2 0x3F63 JUMP JUMPDEST PUSH2 0x2643 PUSH8 0x6138ACCBEB138785 PUSH1 0xC0 SHL PUSH2 0x3F63 JUMP JUMPDEST PUSH2 0x2657 PUSH8 0x7656EFF20643AC91 PUSH1 0xC0 SHL PUSH2 0x3F63 JUMP JUMPDEST PUSH2 0x266B PUSH8 0x4F22D9DF5A4C33E2 PUSH1 0xC0 SHL PUSH2 0x3F63 JUMP JUMPDEST PUSH1 0x0 TIMESTAMP SWAP1 POP PUSH2 0x2684 PUSH8 0x9AB3376D9BFBFB04 PUSH1 0xC0 SHL PUSH2 0x3F63 JUMP JUMPDEST PUSH2 0x2698 PUSH8 0xE453830A2681987F PUSH1 0xC0 SHL PUSH2 0x3F63 JUMP JUMPDEST PUSH1 0x2 PUSH1 0x0 ADD PUSH1 0x5 SWAP1 SLOAD SWAP1 PUSH2 0x100 EXP SWAP1 DIV PUSH1 0xFF AND PUSH2 0x26FA JUMPI PUSH2 0x26C3 PUSH8 0x18DE0F01C637548 PUSH1 0xC0 SHL PUSH2 0x3F63 JUMP JUMPDEST PUSH2 0x26D7 PUSH8 0x9C15BE51B639E65D PUSH1 0xC0 SHL PUSH2 0x3F63 JUMP JUMPDEST PUSH1 0x1 PUSH1 0x2 PUSH1 0x0 ADD PUSH1 0x5 PUSH2 0x100 EXP DUP2 SLOAD DUP2 PUSH1 0xFF MUL NOT AND SWAP1 DUP4 ISZERO ISZERO MUL OR SWAP1 SSTORE POP PUSH2 0x270F JUMP JUMPDEST PUSH2 0x270E PUSH8 0x42195962980776A5 PUSH1 0xC0 SHL PUSH2 0x3F63 JUMP JUMPDEST JUMPDEST PUSH2 0x2723 PUSH8 0x9BDD02F18E77877C PUSH1 0xC0 SHL PUSH2 0x3F63 JUMP JUMPDEST PUSH2 0x2737 PUSH8 0xECDB126AD7C5DD22 PUSH1 0xC0 SHL PUSH2 0x3F63 JUMP JUMPDEST PUSH1 0x1 PUSH1 0x2 DUP2 GT ISZERO PUSH2 0x274B JUMPI PUSH2 0x274A PUSH2 0x5232 JUMP JUMPDEST JUMPDEST PUSH1 0x2 PUSH1 0x3 ADD PUSH1 0x0 SWAP1 SLOAD SWAP1 PUSH2 0x100 EXP SWAP1 DIV PUSH1 0xFF AND PUSH1 0x2 DUP2 GT ISZERO PUSH2 0x2770 JUMPI PUSH2 0x276F PUSH2 0x5232 JUMP JUMPDEST JUMPDEST EQ PUSH2 0x28C8 JUMPI PUSH2 0x2789 PUSH8 0x83797A3351B6C6F8 PUSH1 0xC0 SHL PUSH2 0x3F63 JUMP JUMPDEST PUSH2 0x279D PUSH8 0xFCDFDC91FD173D49 PUSH1 0xC0 SHL PUSH2 0x3F63 JUMP JUMPDEST PUSH2 0x27B1 PUSH8 0x590F7DE7B06F642D PUSH1 0xC0 SHL PUSH2 0x3F63 JUMP JUMPDEST PUSH1 0x0 DUP3 SUB PUSH2 0x2813 JUMPI PUSH2 0x27CD PUSH8 0x51A83C39CC9E57CF PUSH1 0xC0 SHL PUSH2 0x3F63 JUMP JUMPDEST PUSH2 0x27E1 PUSH8 0xE3682D672A48A4A4 PUSH1 0xC0 SHL PUSH2 0x3F63 JUMP JUMPDEST PUSH1 0x40 MLOAD PUSH32 0xCDD848BE00000000000000000000000000000000000000000000000000000000 DUP2 MSTORE PUSH1 0x4 ADD PUSH1 0x40 MLOAD DUP1 SWAP2 SUB SWAP1 REVERT JUMPDEST PUSH2 0x2827 PUSH8 0xBC74BBC128D5EFB4 PUSH1 0xC0 SHL PUSH2 0x3F63 JUMP JUMPDEST PUSH2 0x283B PUSH8 0x2C3EEFFB14279C01 PUSH1 0xC0 SHL PUSH2 0x3F63 JUMP JUMPDEST PUSH1 0x1 PUSH1 0x2 PUSH1 0x3 ADD PUSH1 0x0 PUSH2 0x100 EXP DUP2 SLOAD DUP2 PUSH1 0xFF MUL NOT AND SWAP1 DUP4 PUSH1 0x2 DUP2 GT ISZERO PUSH2 0x2864 JUMPI PUSH2 0x2863 PUSH2 0x5232 JUMP JUMPDEST JUMPDEST MUL OR SWAP1 SSTORE POP PUSH2 0x287D PUSH8 0x67CAAE9BEE7BA572 PUSH1 0xC0 SHL PUSH2 0x3F63 JUMP JUMPDEST PUSH2 0x2891 PUSH8 0x8CB20B1E2A9DDF13 PUSH1 0xC0 SHL PUSH2 0x3F63 JUMP JUMPDEST DUP1 PUSH1 0x1 DUP1 ISZERO ISZERO PUSH32 0xC4A8C097B5D93DCEBAA4F0F65B88CA288E38FF724FA55D3D2AF8ECD63C3C9BE7 PUSH1 0x40 MLOAD PUSH1 0x40 MLOAD DUP1 SWAP2 SUB SWAP1 LOG4 PUSH2 0x28DD JUMP JUMPDEST PUSH2 0x28DC PUSH8 0x2EE685EA26F7DC93 PUSH1 0xC0 SHL PUSH2 0x3F63 JUMP JUMPDEST JUMPDEST PUSH2 0x28F1 PUSH8 0xBDEE69E59725EF14 PUSH1 0xC0 SHL PUSH2 0x3F63 JUMP JUMPDEST DUP2 PUSH1 0x2 DUP1 ADD DUP2 SWAP1 SSTORE POP PUSH2 0x290E PUSH8 0x7A597B39CA6D723E PUSH1 0xC0 SHL PUSH2 0x3F63 JUMP JUMPDEST PUSH2 0x2922 PUSH8 0x838B2072DB516851 PUSH1 0xC0 SHL PUSH2 0x3F63 JUMP JUMPDEST DUP1 PUSH32 0x81F61B66AA862AAADF659B5BA822FCD562282026C64807A61769A8187D332A8A DUP4 PUSH1 0x40 MLOAD PUSH2 0x2952 SWAP2 SWAP1 PUSH2 0x5BE1 JUMP JUMPDEST PUSH1 0x40 MLOAD DUP1 SWAP2 SUB SWAP1 LOG2 POP POP JUMP JUMPDEST PUSH2 0x2972 PUSH8 0x25E99F5D8E9813DD PUSH1 0xC0 SHL PUSH2 0x3F63 JUMP JUMPDEST PUSH2 0x297A PUSH2 0x3FC6 JUMP JUMPDEST PUSH2 0x298E PUSH8 0x9FF58CE2AC447CE2 PUSH1 0xC0 SHL PUSH2 0x3F63 JUMP JUMPDEST PUSH2 0x29A2 PUSH8 0x9C35AA2FAF6E710A PUSH1 0xC0 SHL PUSH2 0x3F63 JUMP JUMPDEST DUP2 DUP2 PUSH2 0x29B8 PUSH8 0xF48B5A2246BF5064 PUSH1 0xC0 SHL PUSH2 0x3F63 JUMP JUMPDEST PUSH2 0x29CC PUSH8 0xB48068EB68E110E8 PUSH1 0xC0 SHL PUSH2 0x3F63 JUMP JUMPDEST PUSH2 0x29E0 PUSH8 0xEA57C67678DF968A PUSH1 0xC0 SHL PUSH2 0x3F63 JUMP JUMPDEST PUSH1 0x64 PUSH1 0xFF AND DUP2 DUP4 PUSH2 0x29F1 SWAP2 SWAP1 PUSH2 0x5BFC JUMP JUMPDEST PUSH1 0xFF AND EQ PUSH2 0x2A60 JUMPI PUSH2 0x2A0D PUSH8 0xFAC91C9468BB0C5D PUSH1 0xC0 SHL PUSH2 0x3F63 JUMP JUMPDEST PUSH2 0x2A21 PUSH8 0xD9820A54DB345EAA PUSH1 0xC0 SHL PUSH2 0x3F63 JUMP JUMPDEST DUP2 DUP2 PUSH1 0x40 MLOAD PUSH32 0x8EFE3FD500000000000000000000000000000000000000000000000000000000 DUP2 MSTORE PUSH1 0x4 ADD PUSH2 0x2A57 SWAP3 SWAP2 SWAP1 PUSH2 0x5C31 JUMP JUMPDEST PUSH1 0x40 MLOAD DUP1 SWAP2 SUB SWAP1 REVERT JUMPDEST PUSH2 0x2A74 PUSH8 0x41740C842ED2C742 PUSH1 0xC0 SHL PUSH2 0x3F63 JUMP JUMPDEST PUSH2 0x2A88 PUSH8 0x826ECF2D226EE01B PUSH1 0xC0 SHL PUSH2 0x3F63 JUMP JUMPDEST PUSH2 0x2A9C PUSH8 0x16D523CFB22EC5B3 PUSH1 0xC0 SHL PUSH2 0x3F63 JUMP JUMPDEST PUSH2 0x2AB0 PUSH8 0x98025BEB5CFA7B1E PUSH1 0xC0 SHL PUSH2 0x3F63 JUMP JUMPDEST PUSH2 0x2AC4 PUSH8 0x436D7D41475704DB PUSH1 0xC0 SHL PUSH2 0x3F63 JUMP JUMPDEST PUSH2 0x2AD8 PUSH8 0xB3FD81C5B1F7DBEB PUSH1 0xC0 SHL PUSH2 0x3F63 JUMP JUMPDEST DUP4 PUSH1 0xFF AND PUSH1 0x2 PUSH1 0x0 ADD PUSH1 0x1 SWAP1 SLOAD SWAP1 PUSH2 0x100 EXP SWAP1 DIV PUSH1 0xFF AND PUSH1 0xFF AND EQ PUSH2 0x2B42 JUMPI PUSH2 0x2B0B PUSH8 0xD9FD2CF2AA42CBE7 PUSH1 0xC0 SHL PUSH2 0x3F63 JUMP JUMPDEST PUSH2 0x2B1F PUSH8 0x1512905CDC9C28B8 PUSH1 0xC0 SHL PUSH2 0x3F63 JUMP JUMPDEST DUP4 PUSH1 0x2 PUSH1 0x0 ADD PUSH1 0x1 PUSH2 0x100 EXP DUP2 SLOAD DUP2 PUSH1 0xFF MUL NOT AND SWAP1 DUP4 PUSH1 0xFF AND MUL OR SWAP1 SSTORE POP PUSH2 0x2B57 JUMP JUMPDEST PUSH2 0x2B56 PUSH8 0xC3EDFB502758D309 PUSH1 0xC0 SHL PUSH2 0x3F63 JUMP JUMPDEST JUMPDEST PUSH2 0x2B6B PUSH8 0xB4DF77953C505B47 PUSH1 0xC0 SHL PUSH2 0x3F63 JUMP JUMPDEST PUSH2 0x2B7F PUSH8 0xFB91D9FED2B56878 PUSH1 0xC0 SHL PUSH2 0x3F63 JUMP JUMPDEST PUSH1 0x0 DUP4 PUSH1 0xFF AND EQ ISZERO DUP1 ISZERO PUSH2 0x2BAB JUMPI POP DUP3 PUSH1 0xFF AND PUSH1 0x2 PUSH1 0x0 ADD PUSH1 0x2 SWAP1 SLOAD SWAP1 PUSH2 0x100 EXP SWAP1 DIV PUSH1 0xFF AND PUSH1 0xFF AND EQ ISZERO JUMPDEST ISZERO PUSH2 0x2BFB JUMPI PUSH2 0x2BC4 PUSH8 0xCD1864281DAF3F43 PUSH1 0xC0 SHL PUSH2 0x3F63 JUMP JUMPDEST PUSH2 0x2BD8 PUSH8 0x3D60900B4E84E41D PUSH1 0xC0 SHL PUSH2 0x3F63 JUMP JUMPDEST DUP3 PUSH1 0x2 PUSH1 0x0 ADD PUSH1 0x2 PUSH2 0x100 EXP DUP2 SLOAD DUP2 PUSH1 0xFF MUL NOT AND SWAP1 DUP4 PUSH1 0xFF AND MUL OR SWAP1 SSTORE POP PUSH2 0x2C10 JUMP JUMPDEST PUSH2 0x2C0F PUSH8 0x57A583417D46DF89 PUSH1 0xC0 SHL PUSH2 0x3F63 JUMP JUMPDEST JUMPDEST PUSH2 0x2C24 PUSH8 0x85B2D74309223236 PUSH1 0xC0 SHL PUSH2 0x3F63 JUMP JUMPDEST PUSH2 0x2C38 PUSH8 0xEDBB58B649B803E7 PUSH1 0xC0 SHL PUSH2 0x3F63 JUMP JUMPDEST PUSH32 0x8849D9036EC7068880BD56182E37500D89A0664B4800E4B44FBA2E01A6940501 PUSH1 0x2 PUSH1 0x0 ADD PUSH1 0x1 SWAP1 SLOAD SWAP1 PUSH2 0x100 EXP SWAP1 DIV PUSH1 0xFF AND PUSH1 0x2 PUSH1 0x0 ADD PUSH1 0x2 SWAP1 SLOAD SWAP1 PUSH2 0x100 EXP SWAP1 DIV PUSH1 0xFF AND TIMESTAMP PUSH1 0x40 MLOAD PUSH2 0x2C8F SWAP4 SWAP3 SWAP2 SWAP1 PUSH2 0x5C5A JUMP JUMPDEST PUSH1 0x40 MLOAD DUP1 SWAP2 SUB SWAP1 LOG1 POP POP POP POP JUMP JUMPDEST PUSH1 0x0 DUP1 PUSH2 0x2CB4 PUSH8 0x888DA69B065DC7E8 PUSH1 0xC0 SHL PUSH2 0x3F63 JUMP JUMPDEST PUSH2 0x2CC8 PUSH8 0x7165A9BA7B5E1FFF PUSH1 0xC0 SHL PUSH2 0x3F63 JUMP JUMPDEST PUSH2 0x2CDC PUSH8 0x1CEBC041D307C0B8 PUSH1 0xC0 SHL PUSH2 0x3F63 JUMP JUMPDEST PUSH1 0x2 PUSH1 0x3 ADD PUSH1 0x1 SWAP1 SLOAD SWAP1 PUSH2 0x100 EXP SWAP1 DIV PUSH20 0xFFFFFFFFFFFFFFFFFFFFFFFFFFFFFFFFFFFFFFFF AND PUSH1 0x2 PUSH1 0x4 ADD PUSH1 0x0 SWAP1 SLOAD SWAP1 PUSH2 0x100 EXP SWAP1 DIV PUSH20 0xFFFFFFFFFFFFFFFFFFFFFFFFFFFFFFFFFFFFFFFF AND SWAP2 POP SWAP2 POP SWAP1 SWAP2 JUMP JUMPDEST PUSH2 0x2D44 PUSH8 0xC38053BE4BBBEE90 PUSH1 0xC0 SHL PUSH2 0x410C JUMP JUMPDEST DUP5 PUSH2 0x2D59 PUSH8 0xF2153B3025C2CF41 PUSH1 0xC0 SHL PUSH2 0x410C JUMP JUMPDEST PUSH2 0x2D6D PUSH8 0xDA29B6F44D5FFD5 PUSH1 0xC0 SHL PUSH2 0x410C JUMP JUMPDEST PUSH2 0x2D81 PUSH8 0xF897555B7AAEE5E2 PUSH1 0xC0 SHL PUSH2 0x410C JUMP JUMPDEST PUSH1 0x9 SLOAD DUP2 LT DUP1 ISZERO PUSH2 0x2DA2 JUMPI POP PUSH2 0x2DA1 PUSH8 0x8063647B569A2892 PUSH1 0xC0 SHL PUSH2 0x410F JUMP JUMPDEST JUMPDEST DUP1 PUSH2 0x2DCA JUMPI POP PUSH1 0xA SLOAD DUP2 GT DUP1 ISZERO PUSH2 0x2DC9 JUMPI POP PUSH2 0x2DC8 PUSH8 0x3A4F2042C352492D PUSH1 0xC0 SHL PUSH2 0x410F JUMP JUMPDEST JUMPDEST JUMPDEST ISZERO PUSH2 0x2E29 JUMPI PUSH2 0x2DE3 PUSH8 0xE46C89198A50C5AE PUSH1 0xC0 SHL PUSH2 0x410C JUMP JUMPDEST PUSH2 0x2DF7 PUSH8 0xCD71CAEA682558BE PUSH1 0xC0 SHL PUSH2 0x410C JUMP JUMPDEST PUSH1 0x40 MLOAD PUSH32 0x17DFB4AC00000000000000000000000000000000000000000000000000000000 DUP2 MSTORE PUSH1 0x4 ADD PUSH1 0x40 MLOAD DUP1 SWAP2 SUB SWAP1 REVERT JUMPDEST PUSH2 0x2E3D PUSH8 0xD3DE7E63123C7075 PUSH1 0xC0 SHL PUSH2 0x410C JUMP JUMPDEST PUSH2 0x2E51 PUSH8 0x949A51B9D9C02D8C PUSH1 0xC0 SHL PUSH2 0x410C JUMP JUMPDEST PUSH2 0x2E65 PUSH8 0x5D0A152AE41A3FCB PUSH1 0xC0 SHL PUSH2 0x410C JUMP JUMPDEST PUSH2 0x2E79 PUSH8 0x6448729576D36701 PUSH1 0xC0 SHL PUSH2 0x410C JUMP JUMPDEST PUSH2 0x2E81 PUSH2 0x3F66 JUMP JUMPDEST PUSH2 0x2E95 PUSH8 0x655354B0955BAEB0 PUSH1 0xC0 SHL PUSH2 0x410C JUMP JUMPDEST PUSH2 0x2EA9 PUSH8 0xD32EC79FCB159623 PUSH1 0xC0 SHL PUSH2 0x410C JUMP JUMPDEST PUSH2 0x2EBD PUSH8 0x68F79B485126240E PUSH1 0xC0 SHL PUSH2 0x410C JUMP JUMPDEST PUSH2 0x2ED1 PUSH8 0x86A459B68515C773 PUSH1 0xC0 SHL PUSH2 0x410C JUMP JUMPDEST PUSH1 0x0 PUSH2 0x2EE7 PUSH8 0x9982697EDDEC73C4 PUSH1 0xC0 SHL PUSH2 0x410C JUMP JUMPDEST PUSH2 0x2EFB PUSH8 0xDC135A090DE7A9C4 PUSH1 0xC0 SHL PUSH2 0x410C JUMP JUMPDEST PUSH1 0x0 PUSH2 0x2F39 DUP9 PUSH2 0x2F09 PUSH2 0x3FB5 JUMP JUMPDEST DUP10 ADDRESS PUSH1 0x40 MLOAD PUSH1 0x20 ADD PUSH2 0x2F1E SWAP5 SWAP4 SWAP3 SWAP2 SWAP1 PUSH2 0x5CDD JUMP JUMPDEST PUSH1 0x40 MLOAD PUSH1 0x20 DUP2 DUP4 SUB SUB DUP2 MSTORE SWAP1 PUSH1 0x40 MSTORE DUP1 MLOAD SWAP1 PUSH1 0x20 ADD KECCAK256 PUSH2 0x411A JUMP JUMPDEST SWAP1 POP PUSH2 0x2F4F PUSH8 0x71B19D2F8A1F271 PUSH1 0xC0 SHL PUSH2 0x410C JUMP JUMPDEST PUSH2 0x2F63 PUSH8 0x842422CA3CFF92DE PUSH1 0xC0 SHL PUSH2 0x410C JUMP JUMPDEST PUSH1 0x7 PUSH1 0x0 SWAP1 SLOAD SWAP1 PUSH2 0x100 EXP SWAP1 DIV PUSH20 0xFFFFFFFFFFFFFFFFFFFFFFFFFFFFFFFFFFFFFFFF AND PUSH20 0xFFFFFFFFFFFFFFFFFFFFFFFFFFFFFFFFFFFFFFFF AND PUSH1 0x1 DUP3 DUP9 DUP9 DUP9 PUSH1 0x40 MLOAD PUSH1 0x0 DUP2 MSTORE PUSH1 0x20 ADD PUSH1 0x40 MSTORE PUSH1 0x40 MLOAD PUSH2 0x2FBF SWAP5 SWAP4 SWAP3 SWAP2 SWAP1 PUSH2 0x5A23 JUMP JUMPDEST PUSH1 0x20 PUSH1 0x40 MLOAD PUSH1 0x20 DUP2 SUB SWAP1 DUP1 DUP5 SUB SWAP1 DUP6 GAS STATICCALL ISZERO DUP1 ISZERO PUSH2 0x2FE1 JUMPI RETURNDATASIZE PUSH1 0x0 DUP1 RETURNDATACOPY RETURNDATASIZE PUSH1 0x0 REVERT JUMPDEST POP POP POP PUSH1 0x20 PUSH1 0x40 MLOAD SUB MLOAD PUSH20 0xFFFFFFFFFFFFFFFFFFFFFFFFFFFFFFFFFFFFFFFF AND EQ PUSH2 0x3060 JUMPI PUSH2 0x301A PUSH8 0x9F017BD105D298B0 PUSH1 0xC0 SHL PUSH2 0x410C JUMP JUMPDEST PUSH2 0x302E PUSH8 0xD8A115E647656C20 PUSH1 0xC0 SHL PUSH2 0x410C JUMP JUMPDEST PUSH1 0x40 MLOAD PUSH32 0xA7A059BC00000000000000000000000000000000000000000000000000000000 DUP2 MSTORE PUSH1 0x4 ADD PUSH1 0x40 MLOAD DUP1 SWAP2 SUB SWAP1 REVERT JUMPDEST PUSH2 0x3074 PUSH8 0x6AEFAD32DFA9DC53 PUSH1 0xC0 SHL PUSH2 0x410C JUMP JUMPDEST PUSH2 0x3088 PUSH8 0xC83FFFBA849DAD9B PUSH1 0xC0 SHL PUSH2 0x410C JUMP JUMPDEST PUSH2 0x309C PUSH8 0xBC172295BD4DD264 PUSH1 0xC0 SHL PUSH2 0x410C JUMP JUMPDEST PUSH1 0x8 PUSH1 0x0 DUP3 DUP2 MSTORE PUSH1 0x20 ADD SWAP1 DUP2 MSTORE PUSH1 0x20 ADD PUSH1 0x0 KECCAK256 PUSH1 0x0 SWAP1 SLOAD SWAP1 PUSH2 0x100 EXP SWAP1 DIV PUSH1 0xFF AND ISZERO PUSH2 0x311C JUMPI PUSH2 0x30D6 PUSH8 0xC2E50E118AFC5CDB PUSH1 0xC0 SHL PUSH2 0x410C JUMP JUMPDEST PUSH2 0x30EA PUSH8 0xF0EF37A4C011DAF1 PUSH1 0xC0 SHL PUSH2 0x410C JUMP JUMPDEST PUSH1 0x40 MLOAD PUSH32 0xCCE9A82400000000000000000000000000000000000000000000000000000000 DUP2 MSTORE PUSH1 0x4 ADD PUSH1 0x40 MLOAD DUP1 SWAP2 SUB SWAP1 REVERT JUMPDEST PUSH2 0x3130 PUSH8 0xF318262BA3B05C01 PUSH1 0xC0 SHL PUSH2 0x410C JUMP JUMPDEST PUSH2 0x3144 PUSH8 0xC0834A76713D3FBD PUSH1 0xC0 SHL PUSH2 0x410C JUMP JUMPDEST PUSH1 0x1 PUSH1 0x8 PUSH1 0x0 DUP4 DUP2 MSTORE PUSH1 0x20 ADD SWAP1 DUP2 MSTORE PUSH1 0x20 ADD PUSH1 0x0 KECCAK256 PUSH1 0x0 PUSH2 0x100 EXP DUP2 SLOAD DUP2 PUSH1 0xFF MUL NOT AND SWAP1 DUP4 ISZERO ISZERO MUL OR SWAP1 SSTORE POP PUSH2 0x3184 PUSH8 0x8EC8A3F028A6BD39 PUSH1 0xC0 SHL PUSH2 0x410C JUMP JUMPDEST PUSH2 0x3198 PUSH8 0x30673FE27F442E75 PUSH1 0xC0 SHL PUSH2 0x410C JUMP JUMPDEST PUSH1 0x2 PUSH1 0x0 ADD PUSH1 0x5 SWAP1 SLOAD SWAP1 PUSH2 0x100 EXP SWAP1 DIV PUSH1 0xFF AND ISZERO PUSH2 0x350F JUMPI PUSH2 0x31C4 PUSH8 0x5393F76941B98689 PUSH1 0xC0 SHL PUSH2 0x410C JUMP JUMPDEST PUSH2 0x31D8 PUSH8 0xBDC6F5A4BBB64248 PUSH1 0xC0 SHL PUSH2 0x410C JUMP JUMPDEST PUSH2 0x31EC PUSH8 0x515D7310F0EB6A4E PUSH1 0xC0 SHL PUSH2 0x410C JUMP JUMPDEST PUSH1 0x2 DUP1 DUP2 GT ISZERO PUSH2 0x31FF JUMPI PUSH2 0x31FE PUSH2 0x5232 JUMP JUMPDEST JUMPDEST PUSH1 0x2 PUSH1 0x3 ADD PUSH1 0x0 SWAP1 SLOAD SWAP1 PUSH2 0x100 EXP SWAP1 DIV PUSH1 0xFF AND PUSH1 0x2 DUP2 GT ISZERO PUSH2 0x3224 JUMPI PUSH2 0x3223 PUSH2 0x5232 JUMP JUMPDEST JUMPDEST SUB PUSH2 0x33AA JUMPI PUSH2 0x323D PUSH8 0x3D2F3B982D1DA569 PUSH1 0xC0 SHL PUSH2 0x410C JUMP JUMPDEST PUSH2 0x3251 PUSH8 0xD7B712BE5A029C77 PUSH1 0xC0 SHL PUSH2 0x410C JUMP JUMPDEST PUSH2 0x3265 PUSH8 0xE45ECE3B94420C57 PUSH1 0xC0 SHL PUSH2 0x410C JUMP JUMPDEST PUSH2 0x326D PUSH2 0x4186 JUMP JUMPDEST PUSH2 0x3281 PUSH8 0x7F2B3C6F4C91FA19 PUSH1 0xC0 SHL PUSH2 0x410C JUMP JUMPDEST PUSH32 0x0 PUSH20 0xFFFFFFFFFFFFFFFFFFFFFFFFFFFFFFFFFFFFFFFF AND PUSH32 0x79CC679044EE9A2021F0A26C0FDEC02AC39179CD005BB971A471B7F9F17C576C PUSH2 0x32E1 PUSH2 0x3FB5 JUMP JUMPDEST DUP11 PUSH1 0x40 MLOAD PUSH1 0x24 ADD PUSH2 0x32F3 SWAP3 SWAP2 SWAP1 PUSH2 0x5ADE JUMP JUMPDEST PUSH1 0x40 MLOAD PUSH1 0x20 DUP2 DUP4 SUB SUB DUP2 MSTORE SWAP1 PUSH1 0x40 MSTORE SWAP1 PUSH28 0xFFFFFFFFFFFFFFFFFFFFFFFFFFFFFFFFFFFFFFFFFFFFFFFFFFFFFFFF NOT AND PUSH1 0x20 DUP3 ADD DUP1 MLOAD PUSH28 0xFFFFFFFFFFFFFFFFFFFFFFFFFFFFFFFFFFFFFFFFFFFFFFFFFFFFFFFF DUP4 DUP2 DUP4 AND OR DUP4 MSTORE POP POP POP POP PUSH1 0x40 MLOAD PUSH2 0x335D SWAP2 SWAP1 PUSH2 0x5B6D JUMP JUMPDEST PUSH1 0x0 PUSH1 0x40 MLOAD DUP1 DUP4 SUB DUP2 PUSH1 0x0 DUP7 GAS CALL SWAP2 POP POP RETURNDATASIZE DUP1 PUSH1 0x0 DUP2 EQ PUSH2 0x339A JUMPI PUSH1 0x40 MLOAD SWAP2 POP PUSH1 0x1F NOT PUSH1 0x3F RETURNDATASIZE ADD AND DUP3 ADD PUSH1 0x40 MSTORE RETURNDATASIZE DUP3 MSTORE RETURNDATASIZE PUSH1 0x0 PUSH1 0x20 DUP5 ADD RETURNDATACOPY PUSH2 0x339F JUMP JUMPDEST PUSH1 0x60 SWAP2 POP JUMPDEST POP POP DUP1 SWAP3 POP POP PUSH2 0x350A JUMP JUMPDEST PUSH2 0x33BE PUSH8 0xF1B3F3C542825457 PUSH1 0xC0 SHL PUSH2 0x410C JUMP JUMPDEST PUSH2 0x33D2 PUSH8 0xA83817500A621AA9 PUSH1 0xC0 SHL PUSH2 0x410C JUMP JUMPDEST PUSH32 0x0 PUSH20 0xFFFFFFFFFFFFFFFFFFFFFFFFFFFFFFFFFFFFFFFF AND PUSH32 0x79CC679044EE9A2021F0A26C0FDEC02AC39179CD005BB971A471B7F9F17C576C PUSH2 0x3432 PUSH2 0x3FB5 JUMP JUMPDEST PUSH2 0x343B DUP12 PUSH2 0x4868 JUMP JUMPDEST DUP12 PUSH2 0x3446 SWAP2 SWAP1 PUSH2 0x5B84 JUMP JUMPDEST PUSH1 0x40 MLOAD PUSH1 0x24 ADD PUSH2 0x3457 SWAP3 SWAP2 SWAP1 PUSH2 0x5ADE JUMP JUMPDEST PUSH1 0x40 MLOAD PUSH1 0x20 DUP2 DUP4 SUB SUB DUP2 MSTORE SWAP1 PUSH1 0x40 MSTORE SWAP1 PUSH28 0xFFFFFFFFFFFFFFFFFFFFFFFFFFFFFFFFFFFFFFFFFFFFFFFFFFFFFFFF NOT AND PUSH1 0x20 DUP3 ADD DUP1 MLOAD PUSH28 0xFFFFFFFFFFFFFFFFFFFFFFFFFFFFFFFFFFFFFFFFFFFFFFFFFFFFFFFF DUP4 DUP2 DUP4 AND OR DUP4 MSTORE POP POP POP POP PUSH1 0x40 MLOAD PUSH2 0x34C1 SWAP2 SWAP1 PUSH2 0x5B6D JUMP JUMPDEST PUSH1 0x0 PUSH1 0x40 MLOAD DUP1 DUP4 SUB DUP2 PUSH1 0x0 DUP7 GAS CALL SWAP2 POP POP RETURNDATASIZE DUP1 PUSH1 0x0 DUP2 EQ PUSH2 0x34FE JUMPI PUSH1 0x40 MLOAD SWAP2 POP PUSH1 0x1F NOT PUSH1 0x3F RETURNDATASIZE ADD AND DUP3 ADD PUSH1 0x40 MSTORE RETURNDATASIZE DUP3 MSTORE RETURNDATASIZE PUSH1 0x0 PUSH1 0x20 DUP5 ADD RETURNDATACOPY PUSH2 0x3503 JUMP JUMPDEST PUSH1 0x60 SWAP2 POP JUMPDEST POP POP DUP1 SWAP3 POP POP JUMPDEST PUSH2 0x365C JUMP JUMPDEST PUSH2 0x3523 PUSH8 0xFA1CE6A75B61EA36 PUSH1 0xC0 SHL PUSH2 0x410C JUMP JUMPDEST PUSH2 0x3537 PUSH8 0xE8ACC66202D15EF3 PUSH1 0xC0 SHL PUSH2 0x410C JUMP JUMPDEST PUSH32 0x0 PUSH20 0xFFFFFFFFFFFFFFFFFFFFFFFFFFFFFFFFFFFFFFFF AND PUSH32 0x79CC679044EE9A2021F0A26C0FDEC02AC39179CD005BB971A471B7F9F17C576C PUSH2 0x3597 PUSH2 0x3FB5 JUMP JUMPDEST DUP11 PUSH1 0x40 MLOAD PUSH1 0x24 ADD PUSH2 0x35A9 SWAP3 SWAP2 SWAP1 PUSH2 0x5ADE JUMP JUMPDEST PUSH1 0x40 MLOAD PUSH1 0x20 DUP2 DUP4 SUB SUB DUP2 MSTORE SWAP1 PUSH1 0x40 MSTORE SWAP1 PUSH28 0xFFFFFFFFFFFFFFFFFFFFFFFFFFFFFFFFFFFFFFFFFFFFFFFFFFFFFFFF NOT AND PUSH1 0x20 DUP3 ADD DUP1 MLOAD PUSH28 0xFFFFFFFFFFFFFFFFFFFFFFFFFFFFFFFFFFFFFFFFFFFFFFFFFFFFFFFF DUP4 DUP2 DUP4 AND OR DUP4 MSTORE POP POP POP POP PUSH1 0x40 MLOAD PUSH2 0x3613 SWAP2 SWAP1 PUSH2 0x5B6D JUMP JUMPDEST PUSH1 0x0 PUSH1 0x40 MLOAD DUP1 DUP4 SUB DUP2 PUSH1 0x0 DUP7 GAS CALL SWAP2 POP POP RETURNDATASIZE DUP1 PUSH1 0x0 DUP2 EQ PUSH2 0x3650 JUMPI PUSH1 0x40 MLOAD SWAP2 POP PUSH1 0x1F NOT PUSH1 0x3F RETURNDATASIZE ADD AND DUP3 ADD PUSH1 0x40 MSTORE RETURNDATASIZE DUP3 MSTORE RETURNDATASIZE PUSH1 0x0 PUSH1 0x20 DUP5 ADD RETURNDATACOPY PUSH2 0x3655 JUMP JUMPDEST PUSH1 0x60 SWAP2 POP JUMPDEST POP POP DUP1 SWAP3 POP POP JUMPDEST PUSH2 0x3670 PUSH8 0xE1FEEC84D4A0FB28 PUSH1 0xC0 SHL PUSH2 0x410C JUMP JUMPDEST PUSH2 0x3684 PUSH8 0xC1D7C4F8C10E1B36 PUSH1 0xC0 SHL PUSH2 0x410C JUMP JUMPDEST DUP2 PUSH2 0x36E3 JUMPI PUSH2 0x369D PUSH8 0xD680D10131812B3C PUSH1 0xC0 SHL PUSH2 0x410C JUMP JUMPDEST PUSH2 0x36B1 PUSH8 0x95B58DA7717D538F PUSH1 0xC0 SHL PUSH2 0x410C JUMP JUMPDEST PUSH1 0x40 MLOAD PUSH32 0x384EC20400000000000000000000000000000000000000000000000000000000 DUP2 MSTORE PUSH1 0x4 ADD PUSH1 0x40 MLOAD DUP1 SWAP2 SUB SWAP1 REVERT JUMPDEST PUSH2 0x36F7 PUSH8 0x63562E86823B5AF8 PUSH1 0xC0 SHL PUSH2 0x410C JUMP JUMPDEST PUSH2 0x370B PUSH8 0xFCDB01E3CE6277FC PUSH1 0xC0 SHL PUSH2 0x410C JUMP JUMPDEST PUSH2 0x371F PUSH8 0x38D4E15B2D252A20 PUSH1 0xC0 SHL PUSH2 0x410C JUMP JUMPDEST PUSH2 0x3727 PUSH2 0x3FB5 JUMP JUMPDEST PUSH20 0xFFFFFFFFFFFFFFFFFFFFFFFFFFFFFFFFFFFFFFFF AND PUSH32 0xB999B06746A947F1958636B9B9377AE814FE578413DFFFD4D3A7A96196FE02FC DUP9 DUP11 PUSH1 0x40 MLOAD PUSH2 0x376E SWAP3 SWAP2 SWAP1 PUSH2 0x5BB8 JUMP JUMPDEST PUSH1 0x40 MLOAD DUP1 SWAP2 SUB SWAP1 LOG2 POP POP PUSH2 0x3780 PUSH2 0x3FBD JUMP JUMPDEST POP POP POP POP POP POP JUMP JUMPDEST PUSH2 0x379C PUSH8 0x69BC558483FFE802 PUSH1 0xC0 SHL PUSH2 0x3F63 JUMP JUMPDEST PUSH2 0x37A4 PUSH2 0x3FC6 JUMP JUMPDEST PUSH2 0x37B8 PUSH8 0x4778F64DE7CDE569 PUSH1 0xC0 SHL PUSH2 0x3F63 JUMP JUMPDEST PUSH2 0x37CC PUSH8 0xDAC74FF36476C900 PUSH1 0xC0 SHL PUSH2 0x3F63 JUMP JUMPDEST PUSH2 0x37E0 PUSH8 0x6DEEEF46E6F5286D PUSH1 0xC0 SHL PUSH2 0x3F63 JUMP JUMPDEST PUSH1 0x0 PUSH1 0x2 PUSH1 0x0 ADD PUSH1 0x5 PUSH2 0x100 EXP DUP2 SLOAD DUP2 PUSH1 0xFF MUL NOT AND SWAP1 DUP4 ISZERO ISZERO MUL OR SWAP1 SSTORE POP PUSH2 0x3812 PUSH8 0x571845E281347114 PUSH1 0xC0 SHL PUSH2 0x3F63 JUMP JUMPDEST PUSH2 0x3826 PUSH8 0x1A52F4332212EBC8 PUSH1 0xC0 SHL PUSH2 0x3F63 JUMP JUMPDEST TIMESTAMP PUSH1 0x2 PUSH1 0x3 ADD PUSH1 0x0 SWAP1 SLOAD SWAP1 PUSH2 0x100 EXP SWAP1 DIV PUSH1 0xFF AND PUSH1 0x2 DUP2 GT ISZERO PUSH2 0x384C JUMPI PUSH2 0x384B PUSH2 0x5232 JUMP JUMPDEST JUMPDEST PUSH1 0x0 ISZERO ISZERO PUSH32 0xC4A8C097B5D93DCEBAA4F0F65B88CA288E38FF724FA55D3D2AF8ECD63C3C9BE7 PUSH1 0x40 MLOAD PUSH1 0x40 MLOAD DUP1 SWAP2 SUB SWAP1 LOG4 JUMP JUMPDEST PUSH2 0x3892 PUSH8 0x379F28DE7D76DB18 PUSH1 0xC0 SHL PUSH2 0x3F63 JUMP JUMPDEST PUSH2 0x389A PUSH2 0x3FC6 JUMP JUMPDEST PUSH2 0x38AE PUSH8 0xD7FDECA27E952DD0 PUSH1 0xC0 SHL PUSH2 0x3F63 JUMP JUMPDEST PUSH2 0x38C2 PUSH8 0x87EF6A37ECA4B001 PUSH1 0xC0 SHL PUSH2 0x3F63 JUMP JUMPDEST PUSH2 0x38D6 PUSH8 0xD47AF1BC757DF503 PUSH1 0xC0 SHL PUSH2 0x3F63 JUMP JUMPDEST PUSH2 0x38EA PUSH8 0xE4A415A19974CCFD PUSH1 0xC0 SHL PUSH2 0x3F63 JUMP JUMPDEST PUSH1 0x0 TIMESTAMP SWAP1 POP PUSH2 0x3903 PUSH8 0xE6D1623AB081E582 PUSH1 0xC0 SHL PUSH2 0x3F63 JUMP JUMPDEST PUSH2 0x3917 PUSH8 0x6EB38EFE8E13E845 PUSH1 0xC0 SHL PUSH2 0x3F63 JUMP JUMPDEST PUSH1 0x2 PUSH1 0x0 ADD PUSH1 0x5 SWAP1 SLOAD SWAP1 PUSH2 0x100 EXP SWAP1 DIV PUSH1 0xFF AND PUSH2 0x3979 JUMPI PUSH2 0x3942 PUSH8 0xC36A409533803101 PUSH1 0xC0 SHL PUSH2 0x3F63 JUMP JUMPDEST PUSH2 0x3956 PUSH8 0xEF284B8F51D91F5B PUSH1 0xC0 SHL PUSH2 0x3F63 JUMP JUMPDEST PUSH1 0x1 PUSH1 0x2 PUSH1 0x0 ADD PUSH1 0x5 PUSH2 0x100 EXP DUP2 SLOAD DUP2 PUSH1 0xFF MUL NOT AND SWAP1 DUP4 ISZERO ISZERO MUL OR SWAP1 SSTORE POP PUSH2 0x398E JUMP JUMPDEST PUSH2 0x398D PUSH8 0x6DA70845DCF79DB6 PUSH1 0xC0 SHL PUSH2 0x3F63 JUMP JUMPDEST JUMPDEST PUSH2 0x39A2 PUSH8 0xB5A632C7474EF5C8 PUSH1 0xC0 SHL PUSH2 0x3F63 JUMP JUMPDEST PUSH2 0x39B6 PUSH8 0x5AAEC8A97298F6AA PUSH1 0xC0 SHL PUSH2 0x3F63 JUMP JUMPDEST PUSH1 0x2 DUP1 DUP2 GT ISZERO PUSH2 0x39C9 JUMPI PUSH2 0x39C8 PUSH2 0x5232 JUMP JUMPDEST JUMPDEST PUSH1 0x2 PUSH1 0x3 ADD PUSH1 0x0 SWAP1 SLOAD SWAP1 PUSH2 0x100 EXP SWAP1 DIV PUSH1 0xFF AND PUSH1 0x2 DUP2 GT ISZERO PUSH2 0x39EE JUMPI PUSH2 0x39ED PUSH2 0x5232 JUMP JUMPDEST JUMPDEST EQ PUSH2 0x3B46 JUMPI PUSH2 0x3A07 PUSH8 0x2AD26AC8C242BEA5 PUSH1 0xC0 SHL PUSH2 0x3F63 JUMP JUMPDEST PUSH2 0x3A1B PUSH8 0x5EC43C3031F3D7A5 PUSH1 0xC0 SHL PUSH2 0x3F63 JUMP JUMPDEST PUSH2 0x3A2F PUSH8 0x5B086C48BD883DB PUSH1 0xC0 SHL PUSH2 0x3F63 JUMP JUMPDEST PUSH1 0x0 DUP3 SUB PUSH2 0x3A91 JUMPI PUSH2 0x3A4B PUSH8 0x87DE4463E038AB23 PUSH1 0xC0 SHL PUSH2 0x3F63 JUMP JUMPDEST PUSH2 0x3A5F PUSH8 0xD61305E2B87E6757 PUSH1 0xC0 SHL PUSH2 0x3F63 JUMP JUMPDEST PUSH1 0x40 MLOAD PUSH32 0x4D05B1AD00000000000000000000000000000000000000000000000000000000 DUP2 MSTORE PUSH1 0x4 ADD PUSH1 0x40 MLOAD DUP1 SWAP2 SUB SWAP1 REVERT JUMPDEST PUSH2 0x3AA5 PUSH8 0x326B09CC280B1305 PUSH1 0xC0 SHL PUSH2 0x3F63 JUMP JUMPDEST PUSH2 0x3AB9 PUSH8 0xCCBFC63310712766 PUSH1 0xC0 SHL PUSH2 0x3F63 JUMP JUMPDEST PUSH1 0x2 DUP1 PUSH1 0x3 ADD PUSH1 0x0 PUSH2 0x100 EXP DUP2 SLOAD DUP2 PUSH1 0xFF MUL NOT AND SWAP1 DUP4 PUSH1 0x2 DUP2 GT ISZERO PUSH2 0x3AE1 JUMPI PUSH2 0x3AE0 PUSH2 0x5232 JUMP JUMPDEST JUMPDEST MUL OR SWAP1 SSTORE POP PUSH2 0x3AFA PUSH8 0x8380FFA549A064C0 PUSH1 0xC0 SHL PUSH2 0x3F63 JUMP JUMPDEST PUSH2 0x3B0E PUSH8 0x53DE276185FCE1C9 PUSH1 0xC0 SHL PUSH2 0x3F63 JUMP JUMPDEST DUP1 PUSH1 0x2 PUSH1 0x1 ISZERO ISZERO PUSH32 0xC4A8C097B5D93DCEBAA4F0F65B88CA288E38FF724FA55D3D2AF8ECD63C3C9BE7 PUSH1 0x40 MLOAD PUSH1 0x40 MLOAD DUP1 SWAP2 SUB SWAP1 LOG4 PUSH2 0x3B5B JUMP JUMPDEST PUSH2 0x3B5A PUSH8 0xB15CB910CD65A457 PUSH1 0xC0 SHL PUSH2 0x3F63 JUMP JUMPDEST JUMPDEST PUSH2 0x3B6F PUSH8 0xEB7DABB72CC26BDF PUSH1 0xC0 SHL PUSH2 0x3F63 JUMP JUMPDEST PUSH2 0x3B83 PUSH8 0xD517584215A1F900 PUSH1 0xC0 SHL PUSH2 0x3F63 JUMP JUMPDEST PUSH2 0x3B8C DUP3 PUSH2 0x4DCE JUMP JUMPDEST PUSH2 0x3BA0 PUSH8 0x5DDD8ACA6F706BF1 PUSH1 0xC0 SHL PUSH2 0x3F63 JUMP JUMPDEST DUP2 PUSH1 0x2 PUSH1 0x1 ADD DUP2 SWAP1 SSTORE POP PUSH2 0x3BBE PUSH8 0x759FCE04B480AB5F PUSH1 0xC0 SHL PUSH2 0x3F63 JUMP JUMPDEST PUSH2 0x3BD2 PUSH8 0xB42E53CE83978932 PUSH1 0xC0 SHL PUSH2 0x3F63 JUMP JUMPDEST DUP1 PUSH32 0xB5277EC6EAAC4C7F711DCDECD6B7951D4CFF3BADCFB82CA3A735E6BAFEDD82BC DUP4 PUSH1 0x40 MLOAD PUSH2 0x3C02 SWAP2 SWAP1 PUSH2 0x5BE1 JUMP JUMPDEST PUSH1 0x40 MLOAD DUP1 SWAP2 SUB SWAP1 LOG2 POP POP JUMP JUMPDEST PUSH1 0x0 PUSH2 0x3C24 PUSH8 0xF10690EFC0614203 PUSH1 0xC0 SHL PUSH2 0x410C JUMP JUMPDEST PUSH2 0x3C38 PUSH8 0x5C1AF6C3E5C67DF8 PUSH1 0xC0 SHL PUSH2 0x410C JUMP JUMPDEST PUSH2 0x3C4C PUSH8 0xA3F67D87C5AF1EDA PUSH1 0xC0 SHL PUSH2 0x410C JUMP JUMPDEST PUSH1 0x7 PUSH1 0x0 SWAP1 SLOAD SWAP1 PUSH2 0x100 EXP SWAP1 DIV PUSH20 0xFFFFFFFFFFFFFFFFFFFFFFFFFFFFFFFFFFFFFFFF AND SWAP1 POP SWAP1 JUMP JUMPDEST PUSH2 0x3C88 PUSH8 0x281709C64271CDF PUSH1 0xC0 SHL PUSH2 0x410C JUMP JUMPDEST DUP1 PUSH2 0x3C9D PUSH8 0x26F982BDAEE9DDAE PUSH1 0xC0 SHL PUSH2 0x3F63 JUMP JUMPDEST PUSH2 0x3CB1 PUSH8 0x43E93428F870CDE PUSH1 0xC0 SHL PUSH2 0x3F63 JUMP JUMPDEST PUSH2 0x3CC5 PUSH8 0x83D504CC9B25EEE6 PUSH1 0xC0 SHL PUSH2 0x3F63 JUMP JUMPDEST PUSH1 0x0 PUSH20 0xFFFFFFFFFFFFFFFFFFFFFFFFFFFFFFFFFFFFFFFF AND DUP2 PUSH20 0xFFFFFFFFFFFFFFFFFFFFFFFFFFFFFFFFFFFFFFFF AND SUB PUSH2 0x3D53 JUMPI PUSH2 0x3D0D PUSH8 0x8C65A462E5EEEDE PUSH1 0xC0 SHL PUSH2 0x3F63 JUMP JUMPDEST PUSH2 0x3D21 PUSH8 0xDCCF128358FA9625 PUSH1 0xC0 SHL PUSH2 0x3F63 JUMP JUMPDEST PUSH1 0x40 MLOAD PUSH32 0xD92E233D00000000000000000000000000000000000000000000000000000000 DUP2 MSTORE PUSH1 0x4 ADD PUSH1 0x40 MLOAD DUP1 SWAP2 SUB SWAP1 REVERT JUMPDEST PUSH2 0x3D67 PUSH8 0xF70D14915DD40D8C PUSH1 0xC0 SHL PUSH2 0x3F63 JUMP JUMPDEST PUSH2 0x3D7B PUSH8 0xC11D9527ED3A4529 PUSH1 0xC0 SHL PUSH2 0x3F63 JUMP JUMPDEST PUSH2 0x3D8F PUSH8 0x8A87942CA0393FC0 PUSH1 0xC0 SHL PUSH2 0x410C JUMP JUMPDEST PUSH2 0x3DA3 PUSH8 0x5D41DF31241C844 PUSH1 0xC0 SHL PUSH2 0x410C JUMP JUMPDEST PUSH2 0x3DAB PUSH2 0x3FC6 JUMP JUMPDEST PUSH2 0x3DBF PUSH8 0x24BAD4AA53E7F558 PUSH1 0xC0 SHL PUSH2 0x410C JUMP JUMPDEST PUSH2 0x3DD3 PUSH8 0x470CDAB805E324E2 PUSH1 0xC0 SHL PUSH2 0x410C JUMP JUMPDEST PUSH2 0x3DE7 PUSH8 0x96B2AB64E2DCBA4D PUSH1 0xC0 SHL PUSH2 0x410C JUMP JUMPDEST DUP2 PUSH1 0x7 PUSH1 0x0 PUSH2 0x100 EXP DUP2 SLOAD DUP2 PUSH20 0xFFFFFFFFFFFFFFFFFFFFFFFFFFFFFFFFFFFFFFFF MUL NOT AND SWAP1 DUP4 PUSH20 0xFFFFFFFFFFFFFFFFFFFFFFFFFFFFFFFFFFFFFFFF AND MUL OR SWAP1 SSTORE POP PUSH2 0x3E3C PUSH8 0x2B1F866306A0F0E9 PUSH1 0xC0 SHL PUSH2 0x410C JUMP JUMPDEST PUSH2 0x3E50 PUSH8 0x81F4834639C85B9D PUSH1 0xC0 SHL PUSH2 0x410C JUMP JUMPDEST PUSH32 0x8F53E6A9FBC3949BC0B9266BBE1927F0B282A34D92876CCBE188C24D17C6CBB DUP3 PUSH1 0x40 MLOAD PUSH2 0x3E7F SWAP2 SWAP1 PUSH2 0x556E JUMP JUMPDEST PUSH1 0x40 MLOAD DUP1 SWAP2 SUB SWAP1 LOG1 POP POP JUMP JUMPDEST PUSH2 0x3E93 PUSH2 0x3FC6 JUMP JUMPDEST PUSH1 0x0 PUSH20 0xFFFFFFFFFFFFFFFFFFFFFFFFFFFFFFFFFFFFFFFF AND DUP2 PUSH20 0xFFFFFFFFFFFFFFFFFFFFFFFFFFFFFFFFFFFFFFFF AND SUB PUSH2 0x3F02 JUMPI PUSH1 0x40 MLOAD PUSH32 0x8C379A000000000000000000000000000000000000000000000000000000000 DUP2 MSTORE PUSH1 0x4 ADD PUSH2 0x3EF9 SWAP1 PUSH2 0x5DB9 JUMP JUMPDEST PUSH1 0x40 MLOAD DUP1 SWAP2 SUB SWAP1 REVERT JUMPDEST PUSH2 0x3F0B DUP2 PUSH2 0x47A4 JUMP JUMPDEST POP JUMP JUMPDEST PUSH1 0x0 DUP1 PUSH1 0x0 PUSH2 0x3F27 PUSH8 0x8F636FF3616D20D5 PUSH1 0xC0 SHL PUSH2 0x410C JUMP JUMPDEST PUSH2 0x3F3B PUSH8 0xE4FAAA5CABB205D0 PUSH1 0xC0 SHL PUSH2 0x410C JUMP JUMPDEST PUSH2 0x3F4F PUSH8 0x404FAC168EDBCE0B PUSH1 0xC0 SHL PUSH2 0x410C JUMP JUMPDEST PUSH1 0x9 SLOAD PUSH1 0xA SLOAD PUSH1 0xB SLOAD SWAP3 POP SWAP3 POP SWAP3 POP SWAP1 SWAP2 SWAP3 JUMP JUMPDEST POP JUMP JUMPDEST PUSH1 0x2 PUSH1 0x1 SLOAD SUB PUSH2 0x3FAB JUMPI PUSH1 0x40 MLOAD PUSH32 0x8C379A000000000000000000000000000000000000000000000000000000000 DUP2 MSTORE PUSH1 0x4 ADD PUSH2 0x3FA2 SWAP1 PUSH2 0x5E25 JUMP JUMPDEST PUSH1 0x40 MLOAD DUP1 SWAP2 SUB SWAP1 REVERT JUMPDEST PUSH1 0x2 PUSH1 0x1 DUP2 SWAP1 SSTORE POP JUMP JUMPDEST PUSH1 0x0 CALLER SWAP1 POP SWAP1 JUMP JUMPDEST PUSH1 0x1 DUP1 DUP2 SWAP1 SSTORE POP JUMP JUMPDEST PUSH2 0x3FCE PUSH2 0x3FB5 JUMP JUMPDEST PUSH20 0xFFFFFFFFFFFFFFFFFFFFFFFFFFFFFFFFFFFFFFFF AND PUSH2 0x3FEC PUSH2 0x2490 JUMP JUMPDEST PUSH20 0xFFFFFFFFFFFFFFFFFFFFFFFFFFFFFFFFFFFFFFFF AND EQ PUSH2 0x4042 JUMPI PUSH1 0x40 MLOAD PUSH32 0x8C379A000000000000000000000000000000000000000000000000000000000 DUP2 MSTORE PUSH1 0x4 ADD PUSH2 0x4039 SWAP1 PUSH2 0x5E91 JUMP JUMPDEST PUSH1 0x40 MLOAD DUP1 SWAP2 SUB SWAP1 REVERT JUMPDEST JUMP JUMPDEST PUSH1 0x0 PUSH1 0x1 SWAP1 POP SWAP2 SWAP1 POP JUMP JUMPDEST PUSH2 0x4063 PUSH8 0xF28F16F9F764785D PUSH1 0xC0 SHL PUSH2 0x3F63 JUMP JUMPDEST PUSH2 0x4077 PUSH8 0x801A8DBCB618EAE0 PUSH1 0xC0 SHL PUSH2 0x3F63 JUMP JUMPDEST PUSH2 0x408B PUSH8 0xC1F4453DCF1C7F7F PUSH1 0xC0 SHL PUSH2 0x3F63 JUMP JUMPDEST DUP1 PUSH2 0xFFFF AND DUP3 PUSH1 0xFF AND GT ISZERO PUSH2 0x40F4 JUMPI PUSH2 0x40AE PUSH8 0xABB8A729D509B2FB PUSH1 0xC0 SHL PUSH2 0x3F63 JUMP JUMPDEST PUSH2 0x40C2 PUSH8 0x16777E7791441E3B PUSH1 0xC0 SHL PUSH2 0x3F63 JUMP JUMPDEST PUSH1 0x40 MLOAD PUSH32 0xEAF5947400000000000000000000000000000000000000000000000000000000 DUP2 MSTORE PUSH1 0x4 ADD PUSH1 0x40 MLOAD DUP1 SWAP2 SUB SWAP1 REVERT JUMPDEST PUSH2 0x4108 PUSH8 0xD93260F0DDB641E6 PUSH1 0xC0 SHL PUSH2 0x3F63 JUMP JUMPDEST POP POP JUMP JUMPDEST POP JUMP JUMPDEST PUSH1 0x0 PUSH1 0x1 SWAP1 POP SWAP2 SWAP1 POP JUMP JUMPDEST PUSH1 0x0 PUSH2 0x4130 PUSH8 0x5A58F2C3403FE836 PUSH1 0xC0 SHL PUSH2 0x410C JUMP JUMPDEST PUSH2 0x4144 PUSH8 0xE7A7941D4BF31413 PUSH1 0xC0 SHL PUSH2 0x410C JUMP JUMPDEST PUSH2 0x4158 PUSH8 0x46C3C6C2D6B2007A PUSH1 0xC0 SHL PUSH2 0x410C JUMP JUMPDEST DUP2 PUSH1 0x40 MLOAD PUSH1 0x20 ADD PUSH2 0x4169 SWAP2 SWAP1 PUSH2 0x5EFD JUMP JUMPDEST PUSH1 0x40 MLOAD PUSH1 0x20 DUP2 DUP4 SUB SUB DUP2 MSTORE SWAP1 PUSH1 0x40 MSTORE DUP1 MLOAD SWAP1 PUSH1 0x20 ADD KECCAK256 SWAP1 POP SWAP2 SWAP1 POP JUMP JUMPDEST PUSH2 0x419A PUSH8 0xB0F77FF06C21439C PUSH1 0xC0 SHL PUSH2 0x3F63 JUMP JUMPDEST PUSH2 0x41AE PUSH8 0x3B6B2E3434B9CA23 PUSH1 0xC0 SHL PUSH2 0x3F63 JUMP JUMPDEST PUSH2 0x41C2 PUSH8 0xC644275F00684F67 PUSH1 0xC0 SHL PUSH2 0x3F63 JUMP JUMPDEST PUSH1 0x2 PUSH1 0x1 ADD SLOAD CALLVALUE EQ PUSH2 0x423A JUMPI PUSH2 0x41E2 PUSH8 0xD3A0FC2A5FCE236D PUSH1 0xC0 SHL PUSH2 0x3F63 JUMP JUMPDEST PUSH2 0x41F6 PUSH8 0x585CFDC67F10B18D PUSH1 0xC0 SHL PUSH2 0x3F63 JUMP JUMPDEST CALLVALUE PUSH1 0x2 PUSH1 0x1 ADD SLOAD PUSH1 0x40 MLOAD PUSH32 0xD326BF0500000000000000000000000000000000000000000000000000000000 DUP2 MSTORE PUSH1 0x4 ADD PUSH2 0x4231 SWAP3 SWAP2 SWAP1 PUSH2 0x5F23 JUMP JUMPDEST PUSH1 0x40 MLOAD DUP1 SWAP2 SUB SWAP1 REVERT JUMPDEST PUSH2 0x424E PUSH8 0xF3F37191353371BC PUSH1 0xC0 SHL PUSH2 0x3F63 JUMP JUMPDEST JUMP JUMPDEST PUSH1 0x0 PUSH2 0x4266 PUSH8 0x7BCB707BB46D8580 PUSH1 0xC0 SHL PUSH2 0x3F63 JUMP JUMPDEST PUSH2 0x427A PUSH8 0xF9C5123E1F36EF96 PUSH1 0xC0 SHL PUSH2 0x3F63 JUMP JUMPDEST PUSH2 0x428E PUSH8 0x397E657F09F61084 PUSH1 0xC0 SHL PUSH2 0x3F63 JUMP JUMPDEST PUSH1 0x0 DUP1 PUSH2 0x429A DUP5 PUSH2 0x4EA3 JUMP JUMPDEST SWAP2 POP SWAP2 POP PUSH2 0x42B2 PUSH8 0xFDA264C639080AF1 PUSH1 0xC0 SHL PUSH2 0x3F63 JUMP JUMPDEST PUSH2 0x42C6 PUSH8 0x7AEE11247D61FDF5 PUSH1 0xC0 SHL PUSH2 0x3F63 JUMP JUMPDEST PUSH1 0x0 PUSH20 0xFFFFFFFFFFFFFFFFFFFFFFFFFFFFFFFFFFFFFFFF AND PUSH1 0x2 PUSH1 0x3 ADD PUSH1 0x1 SWAP1 SLOAD SWAP1 PUSH2 0x100 EXP SWAP1 DIV PUSH20 0xFFFFFFFFFFFFFFFFFFFFFFFFFFFFFFFFFFFFFFFF AND PUSH20 0xFFFFFFFFFFFFFFFFFFFFFFFFFFFFFFFFFFFFFFFF AND EQ ISZERO DUP1 ISZERO PUSH2 0x4328 JUMPI POP DUP2 DUP2 EQ ISZERO JUMPDEST ISZERO PUSH2 0x4557 JUMPI PUSH2 0x4341 PUSH8 0xB55E8DB1A985DEA3 PUSH1 0xC0 SHL PUSH2 0x3F63 JUMP JUMPDEST PUSH2 0x4355 PUSH8 0xD9812DE961715A0A PUSH1 0xC0 SHL PUSH2 0x3F63 JUMP JUMPDEST PUSH2 0x4369 PUSH8 0x47CD2D0E89C561AC PUSH1 0xC0 SHL PUSH2 0x3F63 JUMP JUMPDEST PUSH1 0x0 PUSH32 0x0 PUSH20 0xFFFFFFFFFFFFFFFFFFFFFFFFFFFFFFFFFFFFFFFF AND PUSH32 0xA9059CBB2AB09EB219583F4A59A5D0623ADE346D962BCD4E46B11DA047C9049B PUSH1 0x2 PUSH1 0x3 ADD PUSH1 0x1 SWAP1 SLOAD SWAP1 PUSH2 0x100 EXP SWAP1 DIV PUSH20 0xFFFFFFFFFFFFFFFFFFFFFFFFFFFFFFFFFFFFFFFF AND DUP6 DUP6 PUSH2 0x43F5 SWAP2 SWAP1 PUSH2 0x5B84 JUMP JUMPDEST PUSH1 0x40 MLOAD PUSH1 0x24 ADD PUSH2 0x4406 SWAP3 SWAP2 SWAP1 PUSH2 0x5F4C JUMP JUMPDEST PUSH1 0x40 MLOAD PUSH1 0x20 DUP2 DUP4 SUB SUB DUP2 MSTORE SWAP1 PUSH1 0x40 MSTORE SWAP1 PUSH28 0xFFFFFFFFFFFFFFFFFFFFFFFFFFFFFFFFFFFFFFFFFFFFFFFFFFFFFFFF NOT AND PUSH1 0x20 DUP3 ADD DUP1 MLOAD PUSH28 0xFFFFFFFFFFFFFFFFFFFFFFFFFFFFFFFFFFFFFFFFFFFFFFFFFFFFFFFF DUP4 DUP2 DUP4 AND OR DUP4 MSTORE POP POP POP POP PUSH1 0x40 MLOAD PUSH2 0x4470 SWAP2 SWAP1 PUSH2 0x5B6D JUMP JUMPDEST PUSH1 0x0 PUSH1 0x40 MLOAD DUP1 DUP4 SUB DUP2 PUSH1 0x0 DUP7 GAS CALL SWAP2 POP POP RETURNDATASIZE DUP1 PUSH1 0x0 DUP2 EQ PUSH2 0x44AD JUMPI PUSH1 0x40 MLOAD SWAP2 POP PUSH1 0x1F NOT PUSH1 0x3F RETURNDATASIZE ADD AND DUP3 ADD PUSH1 0x40 MSTORE RETURNDATASIZE DUP3 MSTORE RETURNDATASIZE PUSH1 0x0 PUSH1 0x20 DUP5 ADD RETURNDATACOPY PUSH2 0x44B2 JUMP JUMPDEST PUSH1 0x60 SWAP2 POP JUMPDEST POP POP SWAP1 POP PUSH2 0x44CA PUSH8 0xC2EE2098C76B8BC9 PUSH1 0xC0 SHL PUSH2 0x3F63 JUMP JUMPDEST PUSH2 0x44DE PUSH8 0xA1C1A9373520FC24 PUSH1 0xC0 SHL PUSH2 0x3F63 JUMP JUMPDEST DUP1 PUSH2 0x453D JUMPI PUSH2 0x44F7 PUSH8 0x1503BD0E83EA35F2 PUSH1 0xC0 SHL PUSH2 0x3F63 JUMP JUMPDEST PUSH2 0x450B PUSH8 0x6F99511BAB31C6FE PUSH1 0xC0 SHL PUSH2 0x3F63 JUMP JUMPDEST PUSH1 0x40 MLOAD PUSH32 0xD291274F00000000000000000000000000000000000000000000000000000000 DUP2 MSTORE PUSH1 0x4 ADD PUSH1 0x40 MLOAD DUP1 SWAP2 SUB SWAP1 REVERT JUMPDEST PUSH2 0x4551 PUSH8 0xDB137FAE7693CF95 PUSH1 0xC0 SHL PUSH2 0x3F63 JUMP JUMPDEST POP PUSH2 0x456C JUMP JUMPDEST PUSH2 0x456B PUSH8 0x6459650ECBF074CE PUSH1 0xC0 SHL PUSH2 0x3F63 JUMP JUMPDEST JUMPDEST PUSH2 0x4580 PUSH8 0x4A1FF3C50923213E PUSH1 0xC0 SHL PUSH2 0x3F63 JUMP JUMPDEST PUSH2 0x4594 PUSH8 0x3C4B0E4AE43FCF6C PUSH1 0xC0 SHL PUSH2 0x3F63 JUMP JUMPDEST PUSH1 0x0 PUSH32 0x0 PUSH20 0xFFFFFFFFFFFFFFFFFFFFFFFFFFFFFFFFFFFFFFFF AND PUSH32 0xA9059CBB2AB09EB219583F4A59A5D0623ADE346D962BCD4E46B11DA047C9049B PUSH1 0x2 PUSH1 0x4 ADD PUSH1 0x0 SWAP1 SLOAD SWAP1 PUSH2 0x100 EXP SWAP1 DIV PUSH20 0xFFFFFFFFFFFFFFFFFFFFFFFFFFFFFFFFFFFFFFFF AND DUP6 PUSH1 0x40 MLOAD PUSH1 0x24 ADD PUSH2 0x4626 SWAP3 SWAP2 SWAP1 PUSH2 0x5F4C JUMP JUMPDEST PUSH1 0x40 MLOAD PUSH1 0x20 DUP2 DUP4 SUB SUB DUP2 MSTORE SWAP1 PUSH1 0x40 MSTORE SWAP1 PUSH28 0xFFFFFFFFFFFFFFFFFFFFFFFFFFFFFFFFFFFFFFFFFFFFFFFFFFFFFFFF NOT AND PUSH1 0x20 DUP3 ADD DUP1 MLOAD PUSH28 0xFFFFFFFFFFFFFFFFFFFFFFFFFFFFFFFFFFFFFFFFFFFFFFFFFFFFFFFF DUP4 DUP2 DUP4 AND OR DUP4 MSTORE POP POP POP POP PUSH1 0x40 MLOAD PUSH2 0x4690 SWAP2 SWAP1 PUSH2 0x5B6D JUMP JUMPDEST PUSH1 0x0 PUSH1 0x40 MLOAD DUP1 DUP4 SUB DUP2 PUSH1 0x0 DUP7 GAS CALL SWAP2 POP POP RETURNDATASIZE DUP1 PUSH1 0x0 DUP2 EQ PUSH2 0x46CD JUMPI PUSH1 0x40 MLOAD SWAP2 POP PUSH1 0x1F NOT PUSH1 0x3F RETURNDATASIZE ADD AND DUP3 ADD PUSH1 0x40 MSTORE RETURNDATASIZE DUP3 MSTORE RETURNDATASIZE PUSH1 0x0 PUSH1 0x20 DUP5 ADD RETURNDATACOPY PUSH2 0x46D2 JUMP JUMPDEST PUSH1 0x60 SWAP2 POP JUMPDEST POP POP SWAP1 POP PUSH2 0x46EA PUSH8 0x2A00A9920A47076A PUSH1 0xC0 SHL PUSH2 0x3F63 JUMP JUMPDEST PUSH2 0x46FE PUSH8 0x19E4F52F80279392 PUSH1 0xC0 SHL PUSH2 0x3F63 JUMP JUMPDEST DUP1 PUSH2 0x475D JUMPI PUSH2 0x4717 PUSH8 0x7F8206A2F1E2E50A PUSH1 0xC0 SHL PUSH2 0x3F63 JUMP JUMPDEST PUSH2 0x472B PUSH8 0xFAF34FBA89F731D8 PUSH1 0xC0 SHL PUSH2 0x3F63 JUMP JUMPDEST PUSH1 0x40 MLOAD PUSH32 0xD291274F00000000000000000000000000000000000000000000000000000000 DUP2 MSTORE PUSH1 0x4 ADD PUSH1 0x40 MLOAD DUP1 SWAP2 SUB SWAP1 REVERT JUMPDEST PUSH2 0x4771 PUSH8 0xE2370B6ED311968A PUSH1 0xC0 SHL PUSH2 0x3F63 JUMP JUMPDEST PUSH2 0x4785 PUSH8 0xF9CFBCF47C245666 PUSH1 0xC0 SHL PUSH2 0x3F63 JUMP JUMPDEST PUSH2 0x4799 PUSH8 0x936AC0771EC70D75 PUSH1 0xC0 SHL PUSH2 0x3F63 JUMP JUMPDEST DUP2 SWAP4 POP POP POP POP SWAP2 SWAP1 POP JUMP JUMPDEST PUSH1 0x0 DUP1 PUSH1 0x0 SWAP1 SLOAD SWAP1 PUSH2 0x100 EXP SWAP1 DIV PUSH20 0xFFFFFFFFFFFFFFFFFFFFFFFFFFFFFFFFFFFFFFFF AND SWAP1 POP DUP2 PUSH1 0x0 DUP1 PUSH2 0x100 EXP DUP2 SLOAD DUP2 PUSH20 0xFFFFFFFFFFFFFFFFFFFFFFFFFFFFFFFFFFFFFFFF MUL NOT AND SWAP1 DUP4 PUSH20 0xFFFFFFFFFFFFFFFFFFFFFFFFFFFFFFFFFFFFFFFF AND MUL OR SWAP1 SSTORE POP DUP2 PUSH20 0xFFFFFFFFFFFFFFFFFFFFFFFFFFFFFFFFFFFFFFFF AND DUP2 PUSH20 0xFFFFFFFFFFFFFFFFFFFFFFFFFFFFFFFFFFFFFFFF AND PUSH32 0x8BE0079C531659141344CD1FD0A4F28419497F9722A3DAAFE3B4186F6B6457E0 PUSH1 0x40 MLOAD PUSH1 0x40 MLOAD DUP1 SWAP2 SUB SWAP1 LOG3 POP POP JUMP JUMPDEST PUSH1 0x0 PUSH2 0x487E PUSH8 0x1CC273576FD639A6 PUSH1 0xC0 SHL PUSH2 0x3F63 JUMP JUMPDEST PUSH2 0x4892 PUSH8 0x7AC7835871CC28F2 PUSH1 0xC0 SHL PUSH2 0x3F63 JUMP JUMPDEST PUSH2 0x48A6 PUSH8 0x1C6AC1F806390913 PUSH1 0xC0 SHL PUSH2 0x3F63 JUMP JUMPDEST PUSH1 0x0 DUP1 PUSH2 0x48B2 DUP5 PUSH2 0x4EA3 JUMP JUMPDEST SWAP2 POP SWAP2 POP PUSH2 0x48CA PUSH8 0x35A13A91ECF078B3 PUSH1 0xC0 SHL PUSH2 0x3F63 JUMP JUMPDEST PUSH2 0x48DE PUSH8 0x35A60E7DBFAD31CA PUSH1 0xC0 SHL PUSH2 0x3F63 JUMP JUMPDEST PUSH1 0x0 PUSH20 0xFFFFFFFFFFFFFFFFFFFFFFFFFFFFFFFFFFFFFFFF AND PUSH1 0x2 PUSH1 0x3 ADD PUSH1 0x1 SWAP1 SLOAD SWAP1 PUSH2 0x100 EXP SWAP1 DIV PUSH20 0xFFFFFFFFFFFFFFFFFFFFFFFFFFFFFFFFFFFFFFFF AND PUSH20 0xFFFFFFFFFFFFFFFFFFFFFFFFFFFFFFFFFFFFFFFF AND EQ ISZERO DUP1 ISZERO PUSH2 0x4940 JUMPI POP DUP2 DUP2 EQ ISZERO JUMPDEST ISZERO PUSH2 0x4B78 JUMPI PUSH2 0x4959 PUSH8 0xDF1ADE2C2CD6A74E PUSH1 0xC0 SHL PUSH2 0x3F63 JUMP JUMPDEST PUSH2 0x496D PUSH8 0x29E1863351D15564 PUSH1 0xC0 SHL PUSH2 0x3F63 JUMP JUMPDEST PUSH2 0x4981 PUSH8 0x21E580A21C85CE31 PUSH1 0xC0 SHL PUSH2 0x3F63 JUMP JUMPDEST PUSH1 0x0 PUSH32 0x0 PUSH20 0xFFFFFFFFFFFFFFFFFFFFFFFFFFFFFFFFFFFFFFFF AND PUSH32 0x23B872DD7302113369CDA2901243429419BEC145408FA8B352B3DD92B66C680B PUSH2 0x49E3 PUSH2 0x3FB5 JUMP JUMPDEST PUSH1 0x2 PUSH1 0x3 ADD PUSH1 0x1 SWAP1 SLOAD SWAP1 PUSH2 0x100 EXP SWAP1 DIV PUSH20 0xFFFFFFFFFFFFFFFFFFFFFFFFFFFFFFFFFFFFFFFF AND DUP7 DUP7 PUSH2 0x4A15 SWAP2 SWAP1 PUSH2 0x5B84 JUMP JUMPDEST PUSH1 0x40 MLOAD PUSH1 0x24 ADD PUSH2 0x4A27 SWAP4 SWAP3 SWAP2 SWAP1 PUSH2 0x5F75 JUMP JUMPDEST PUSH1 0x40 MLOAD PUSH1 0x20 DUP2 DUP4 SUB SUB DUP2 MSTORE SWAP1 PUSH1 0x40 MSTORE SWAP1 PUSH28 0xFFFFFFFFFFFFFFFFFFFFFFFFFFFFFFFFFFFFFFFFFFFFFFFFFFFFFFFF NOT AND PUSH1 0x20 DUP3 ADD DUP1 MLOAD PUSH28 0xFFFFFFFFFFFFFFFFFFFFFFFFFFFFFFFFFFFFFFFFFFFFFFFFFFFFFFFF DUP4 DUP2 DUP4 AND OR DUP4 MSTORE POP POP POP POP PUSH1 0x40 MLOAD PUSH2 0x4A91 SWAP2 SWAP1 PUSH2 0x5B6D JUMP JUMPDEST PUSH1 0x0 PUSH1 0x40 MLOAD DUP1 DUP4 SUB DUP2 PUSH1 0x0 DUP7 GAS CALL SWAP2 POP POP RETURNDATASIZE DUP1 PUSH1 0x0 DUP2 EQ PUSH2 0x4ACE JUMPI PUSH1 0x40 MLOAD SWAP2 POP PUSH1 0x1F NOT PUSH1 0x3F RETURNDATASIZE ADD AND DUP3 ADD PUSH1 0x40 MSTORE RETURNDATASIZE DUP3 MSTORE RETURNDATASIZE PUSH1 0x0 PUSH1 0x20 DUP5 ADD RETURNDATACOPY PUSH2 0x4AD3 JUMP JUMPDEST PUSH1 0x60 SWAP2 POP JUMPDEST POP POP SWAP1 POP PUSH2 0x4AEB PUSH8 0xBC8838B7977470AA PUSH1 0xC0 SHL PUSH2 0x3F63 JUMP JUMPDEST PUSH2 0x4AFF PUSH8 0xA5BE249D3C902A1B PUSH1 0xC0 SHL PUSH2 0x3F63 JUMP JUMPDEST DUP1 PUSH2 0x4B5E JUMPI PUSH2 0x4B18 PUSH8 0xEA6DCA84CED26630 PUSH1 0xC0 SHL PUSH2 0x3F63 JUMP JUMPDEST PUSH2 0x4B2C PUSH8 0x54F6EF294072901C PUSH1 0xC0 SHL PUSH2 0x3F63 JUMP JUMPDEST PUSH1 0x40 MLOAD PUSH32 0xD291274F00000000000000000000000000000000000000000000000000000000 DUP2 MSTORE PUSH1 0x4 ADD PUSH1 0x40 MLOAD DUP1 SWAP2 SUB SWAP1 REVERT JUMPDEST PUSH2 0x4B72 PUSH8 0x9D0A49F46AAC1013 PUSH1 0xC0 SHL PUSH2 0x3F63 JUMP JUMPDEST POP PUSH2 0x4B8D JUMP JUMPDEST PUSH2 0x4B8C PUSH8 0xD8C3CDF0171F69FA PUSH1 0xC0 SHL PUSH2 0x3F63 JUMP JUMPDEST JUMPDEST PUSH2 0x4BA1 PUSH8 0x54AAD10986F89D43 PUSH1 0xC0 SHL PUSH2 0x3F63 JUMP JUMPDEST PUSH2 0x4BB5 PUSH8 0x4C3D01BF10FA4FA2 PUSH1 0xC0 SHL PUSH2 0x3F63 JUMP JUMPDEST PUSH1 0x0 PUSH32 0x0 PUSH20 0xFFFFFFFFFFFFFFFFFFFFFFFFFFFFFFFFFFFFFFFF AND PUSH32 0x23B872DD7302113369CDA2901243429419BEC145408FA8B352B3DD92B66C680B PUSH2 0x4C17 PUSH2 0x3FB5 JUMP JUMPDEST PUSH1 0x2 PUSH1 0x4 ADD PUSH1 0x0 SWAP1 SLOAD SWAP1 PUSH2 0x100 EXP SWAP1 DIV PUSH20 0xFFFFFFFFFFFFFFFFFFFFFFFFFFFFFFFFFFFFFFFF AND DUP7 PUSH1 0x40 MLOAD PUSH1 0x24 ADD PUSH2 0x4C50 SWAP4 SWAP3 SWAP2 SWAP1 PUSH2 0x5F75 JUMP JUMPDEST PUSH1 0x40 MLOAD PUSH1 0x20 DUP2 DUP4 SUB SUB DUP2 MSTORE SWAP1 PUSH1 0x40 MSTORE SWAP1 PUSH28 0xFFFFFFFFFFFFFFFFFFFFFFFFFFFFFFFFFFFFFFFFFFFFFFFFFFFFFFFF NOT AND PUSH1 0x20 DUP3 ADD DUP1 MLOAD PUSH28 0xFFFFFFFFFFFFFFFFFFFFFFFFFFFFFFFFFFFFFFFFFFFFFFFFFFFFFFFF DUP4 DUP2 DUP4 AND OR DUP4 MSTORE POP POP POP POP PUSH1 0x40 MLOAD PUSH2 0x4CBA SWAP2 SWAP1 PUSH2 0x5B6D JUMP JUMPDEST PUSH1 0x0 PUSH1 0x40 MLOAD DUP1 DUP4 SUB DUP2 PUSH1 0x0 DUP7 GAS CALL SWAP2 POP POP RETURNDATASIZE DUP1 PUSH1 0x0 DUP2 EQ PUSH2 0x4CF7 JUMPI PUSH1 0x40 MLOAD SWAP2 POP PUSH1 0x1F NOT PUSH1 0x3F RETURNDATASIZE ADD AND DUP3 ADD PUSH1 0x40 MSTORE RETURNDATASIZE DUP3 MSTORE RETURNDATASIZE PUSH1 0x0 PUSH1 0x20 DUP5 ADD RETURNDATACOPY PUSH2 0x4CFC JUMP JUMPDEST PUSH1 0x60 SWAP2 POP JUMPDEST POP POP SWAP1 POP PUSH2 0x4D14 PUSH8 0x8A160DFBCB6C7BDF PUSH1 0xC0 SHL PUSH2 0x3F63 JUMP JUMPDEST PUSH2 0x4D28 PUSH8 0xE6D3F12E44F4B3F9 PUSH1 0xC0 SHL PUSH2 0x3F63 JUMP JUMPDEST DUP1 PUSH2 0x4D87 JUMPI PUSH2 0x4D41 PUSH8 0x8CB931AAA95350F PUSH1 0xC0 SHL PUSH2 0x3F63 JUMP JUMPDEST PUSH2 0x4D55 PUSH8 0x8D8233406985010 PUSH1 0xC0 SHL PUSH2 0x3F63 JUMP JUMPDEST PUSH1 0x40 MLOAD PUSH32 0xD291274F00000000000000000000000000000000000000000000000000000000 DUP2 MSTORE PUSH1 0x4 ADD PUSH1 0x40 MLOAD DUP1 SWAP2 SUB SWAP1 REVERT JUMPDEST PUSH2 0x4D9B PUSH8 0xC8A3AE097241A3BC PUSH1 0xC0 SHL PUSH2 0x3F63 JUMP JUMPDEST PUSH2 0x4DAF PUSH8 0x9C8C010DCBA9AA61 PUSH1 0xC0 SHL PUSH2 0x3F63 JUMP JUMPDEST PUSH2 0x4DC3 PUSH8 0xE5CBC71A3D6454A1 PUSH1 0xC0 SHL PUSH2 0x3F63 JUMP JUMPDEST DUP2 SWAP4 POP POP POP POP SWAP2 SWAP1 POP JUMP JUMPDEST PUSH2 0x4DE2 PUSH8 0x200BF049EC3A3366 PUSH1 0xC0 SHL PUSH2 0x3F63 JUMP JUMPDEST PUSH2 0x4DF6 PUSH8 0x6C805FB24582D530 PUSH1 0xC0 SHL PUSH2 0x3F63 JUMP JUMPDEST PUSH2 0x4E0A PUSH8 0xAE6640B4CB2C3156 PUSH1 0xC0 SHL PUSH2 0x3F63 JUMP JUMPDEST PUSH32 0x0 DUP2 GT ISZERO PUSH2 0x4E8C JUMPI PUSH2 0x4E46 PUSH8 0x9F834E10961218CD PUSH1 0xC0 SHL PUSH2 0x3F63 JUMP JUMPDEST PUSH2 0x4E5A PUSH8 0x78EFB028819602DD PUSH1 0xC0 SHL PUSH2 0x3F63 JUMP JUMPDEST PUSH1 0x40 MLOAD PUSH32 0x4EA10E1600000000000000000000000000000000000000000000000000000000 DUP2 MSTORE PUSH1 0x4 ADD PUSH1 0x40 MLOAD DUP1 SWAP2 SUB SWAP1 REVERT JUMPDEST PUSH2 0x4EA0 PUSH8 0x569E29691FC03C3B PUSH1 0xC0 SHL PUSH2 0x3F63 JUMP JUMPDEST POP JUMP JUMPDEST PUSH1 0x0 DUP1 PUSH2 0x4EBA PUSH8 0x8F134F30BDFB3A51 PUSH1 0xC0 SHL PUSH2 0x3F63 JUMP JUMPDEST PUSH2 0x4ECE PUSH8 0x225986C418215264 PUSH1 0xC0 SHL PUSH2 0x3F63 JUMP JUMPDEST PUSH2 0x4EE2 PUSH8 0xC385AC3F7A6DA3CB PUSH1 0xC0 SHL PUSH2 0x3F63 JUMP JUMPDEST PUSH1 0x0 PUSH1 0x2 DUP2 GT ISZERO PUSH2 0x4EF6 JUMPI PUSH2 0x4EF5 PUSH2 0x5232 JUMP JUMPDEST JUMPDEST PUSH1 0x2 PUSH1 0x3 ADD PUSH1 0x0 SWAP1 SLOAD SWAP1 PUSH2 0x100 EXP SWAP1 DIV PUSH1 0xFF AND PUSH1 0x2 DUP2 GT ISZERO PUSH2 0x4F1B JUMPI PUSH2 0x4F1A PUSH2 0x5232 JUMP JUMPDEST JUMPDEST SUB PUSH2 0x4FDF JUMPI PUSH2 0x4F34 PUSH8 0x5FCF3523B8B6CEAE PUSH1 0xC0 SHL PUSH2 0x3F63 JUMP JUMPDEST PUSH2 0x4F48 PUSH8 0x4DB4CA7F1AC42364 PUSH1 0xC0 SHL PUSH2 0x3F63 JUMP JUMPDEST PUSH2 0x4F5C PUSH8 0x65C800C3C300EF70 PUSH1 0xC0 SHL PUSH2 0x3F63 JUMP JUMPDEST PUSH1 0x0 PUSH1 0x2 PUSH1 0x0 ADD PUSH1 0x3 SWAP1 SLOAD SWAP1 PUSH2 0x100 EXP SWAP1 DIV PUSH2 0xFFFF AND PUSH2 0xFFFF AND PUSH1 0x2 PUSH1 0x0 ADD PUSH1 0x0 SWAP1 SLOAD SWAP1 PUSH2 0x100 EXP SWAP1 DIV PUSH1 0xFF AND PUSH1 0xFF AND DUP6 PUSH2 0x4F97 SWAP2 SWAP1 PUSH2 0x5700 JUMP JUMPDEST PUSH2 0x4FA1 SWAP2 SWAP1 PUSH2 0x5771 JUMP JUMPDEST SWAP1 POP PUSH2 0x4FB7 PUSH8 0xC3E9DEF9FE5182C9 PUSH1 0xC0 SHL PUSH2 0x3F63 JUMP JUMPDEST PUSH2 0x4FCB PUSH8 0xDB324A2DEE3585FA PUSH1 0xC0 SHL PUSH2 0x3F63 JUMP JUMPDEST PUSH2 0x4FD4 DUP2 PUSH2 0x5037 JUMP JUMPDEST DUP2 SWAP3 POP SWAP3 POP POP PUSH2 0x5032 JUMP JUMPDEST PUSH2 0x4FF3 PUSH8 0xEDC4255CCF1DD1DB PUSH1 0xC0 SHL PUSH2 0x3F63 JUMP JUMPDEST PUSH2 0x5007 PUSH8 0xBE9A00D901988064 PUSH1 0xC0 SHL PUSH2 0x3F63 JUMP JUMPDEST PUSH2 0x501B PUSH8 0x5053FF483BE1644D PUSH1 0xC0 SHL PUSH2 0x3F63 JUMP JUMPDEST PUSH2 0x5028 PUSH1 0x2 DUP1 ADD SLOAD PUSH2 0x5037 JUMP JUMPDEST PUSH1 0x2 DUP1 ADD SLOAD SWAP2 POP SWAP2 POP JUMPDEST SWAP2 POP SWAP2 JUMP JUMPDEST PUSH1 0x0 PUSH2 0x504D PUSH8 0x23FE860C4FF4AD6E PUSH1 0xC0 SHL PUSH2 0x3F63 JUMP JUMPDEST PUSH2 0x5061 PUSH8 0x89F308B50F12175 PUSH1 0xC0 SHL PUSH2 0x3F63 JUMP JUMPDEST PUSH2 0x5075 PUSH8 0x8E75D0CE80780185 PUSH1 0xC0 SHL PUSH2 0x3F63 JUMP JUMPDEST PUSH1 0x64 PUSH1 0x2 PUSH1 0x0 ADD PUSH1 0x2 SWAP1 SLOAD SWAP1 PUSH2 0x100 EXP SWAP1 DIV PUSH1 0xFF AND PUSH1 0xFF AND DUP4 PUSH2 0x5098 SWAP2 SWAP1 PUSH2 0x5700 JUMP JUMPDEST PUSH2 0x50A2 SWAP2 SWAP1 PUSH2 0x5771 JUMP JUMPDEST SWAP1 POP SWAP2 SWAP1 POP JUMP JUMPDEST PUSH1 0x0 DUP1 REVERT JUMPDEST PUSH1 0x0 PUSH1 0xFF DUP3 AND SWAP1 POP SWAP2 SWAP1 POP JUMP JUMPDEST PUSH2 0x50C4 DUP2 PUSH2 0x50AE JUMP JUMPDEST DUP2 EQ PUSH2 0x50CF JUMPI PUSH1 0x0 DUP1 REVERT JUMPDEST POP JUMP JUMPDEST PUSH1 0x0 DUP2 CALLDATALOAD SWAP1 POP PUSH2 0x50E1 DUP2 PUSH2 0x50BB JUMP JUMPDEST SWAP3 SWAP2 POP POP JUMP JUMPDEST PUSH1 0x0 PUSH2 0xFFFF DUP3 AND SWAP1 POP SWAP2 SWAP1 POP JUMP JUMPDEST PUSH2 0x50FE DUP2 PUSH2 0x50E7 JUMP JUMPDEST DUP2 EQ PUSH2 0x5109 JUMPI PUSH1 0x0 DUP1 REVERT JUMPDEST POP JUMP JUMPDEST PUSH1 0x0 DUP2 CALLDATALOAD SWAP1 POP PUSH2 0x511B DUP2 PUSH2 0x50F5 JUMP JUMPDEST SWAP3 SWAP2 POP POP JUMP JUMPDEST PUSH1 0x0 DUP1 PUSH1 0x40 DUP4 DUP6 SUB SLT ISZERO PUSH2 0x5138 JUMPI PUSH2 0x5137 PUSH2 0x50A9 JUMP JUMPDEST JUMPDEST PUSH1 0x0 PUSH2 0x5146 DUP6 DUP3 DUP7 ADD PUSH2 0x50D2 JUMP JUMPDEST SWAP3 POP POP PUSH1 0x20 PUSH2 0x5157 DUP6 DUP3 DUP7 ADD PUSH2 0x510C JUMP JUMPDEST SWAP2 POP POP SWAP3 POP SWAP3 SWAP1 POP JUMP JUMPDEST PUSH1 0x0 DUP2 SWAP1 POP SWAP2 SWAP1 POP JUMP JUMPDEST PUSH2 0x5174 DUP2 PUSH2 0x5161 JUMP JUMPDEST DUP2 EQ PUSH2 0x517F JUMPI PUSH1 0x0 DUP1 REVERT JUMPDEST POP JUMP JUMPDEST PUSH1 0x0 DUP2 CALLDATALOAD SWAP1 POP PUSH2 0x5191 DUP2 PUSH2 0x516B JUMP JUMPDEST SWAP3 SWAP2 POP POP JUMP JUMPDEST PUSH1 0x0 DUP1 PUSH1 0x0 PUSH1 0x60 DUP5 DUP7 SUB SLT ISZERO PUSH2 0x51B0 JUMPI PUSH2 0x51AF PUSH2 0x50A9 JUMP JUMPDEST JUMPDEST PUSH1 0x0 PUSH2 0x51BE DUP7 DUP3 DUP8 ADD PUSH2 0x5182 JUMP JUMPDEST SWAP4 POP POP PUSH1 0x20 PUSH2 0x51CF DUP7 DUP3 DUP8 ADD PUSH2 0x5182 JUMP JUMPDEST SWAP3 POP POP PUSH1 0x40 PUSH2 0x51E0 DUP7 DUP3 DUP8 ADD PUSH2 0x5182 JUMP JUMPDEST SWAP2 POP POP SWAP3 POP SWAP3 POP SWAP3 JUMP JUMPDEST PUSH2 0x51F3 DUP2 PUSH2 0x50AE JUMP JUMPDEST DUP3 MSTORE POP POP JUMP JUMPDEST PUSH2 0x5202 DUP2 PUSH2 0x50E7 JUMP JUMPDEST DUP3 MSTORE POP POP JUMP JUMPDEST PUSH1 0x0 DUP2 ISZERO ISZERO SWAP1 POP SWAP2 SWAP1 POP JUMP JUMPDEST PUSH2 0x521D DUP2 PUSH2 0x5208 JUMP JUMPDEST DUP3 MSTORE POP POP JUMP JUMPDEST PUSH2 0x522C DUP2 PUSH2 0x5161 JUMP JUMPDEST DUP3 MSTORE POP POP JUMP JUMPDEST PUSH32 0x4E487B7100000000000000000000000000000000000000000000000000000000 PUSH1 0x0 MSTORE PUSH1 0x21 PUSH1 0x4 MSTORE PUSH1 0x24 PUSH1 0x0 REVERT JUMPDEST PUSH1 0x3 DUP2 LT PUSH2 0x5272 JUMPI PUSH2 0x5271 PUSH2 0x5232 JUMP JUMPDEST JUMPDEST POP JUMP JUMPDEST PUSH1 0x0 DUP2 SWAP1 POP PUSH2 0x5283 DUP3 PUSH2 0x5261 JUMP JUMPDEST SWAP2 SWAP1 POP JUMP JUMPDEST PUSH1 0x0 PUSH2 0x5293 DUP3 PUSH2 0x5275 JUMP JUMPDEST SWAP1 POP SWAP2 SWAP1 POP JUMP JUMPDEST PUSH2 0x52A3 DUP2 PUSH2 0x5288 JUMP JUMPDEST DUP3 MSTORE POP POP JUMP JUMPDEST PUSH1 0x0 PUSH20 0xFFFFFFFFFFFFFFFFFFFFFFFFFFFFFFFFFFFFFFFF DUP3 AND SWAP1 POP SWAP2 SWAP1 POP JUMP JUMPDEST PUSH1 0x0 PUSH2 0x52D4 DUP3 PUSH2 0x52A9 JUMP JUMPDEST SWAP1 POP SWAP2 SWAP1 POP JUMP JUMPDEST PUSH2 0x52E4 DUP2 PUSH2 0x52C9 JUMP JUMPDEST DUP3 MSTORE POP POP JUMP JUMPDEST PUSH1 0x0 PUSH2 0x140 DUP3 ADD SWAP1 POP PUSH2 0x5300 PUSH1 0x0 DUP4 ADD DUP14 PUSH2 0x51EA JUMP JUMPDEST PUSH2 0x530D PUSH1 0x20 DUP4 ADD DUP13 PUSH2 0x51EA JUMP JUMPDEST PUSH2 0x531A PUSH1 0x40 DUP4 ADD DUP12 PUSH2 0x51EA JUMP JUMPDEST PUSH2 0x5327 PUSH1 0x60 DUP4 ADD DUP11 PUSH2 0x51F9 JUMP JUMPDEST PUSH2 0x5334 PUSH1 0x80 DUP4 ADD DUP10 PUSH2 0x5214 JUMP JUMPDEST PUSH2 0x5341 PUSH1 0xA0 DUP4 ADD DUP9 PUSH2 0x5223 JUMP JUMPDEST PUSH2 0x534E PUSH1 0xC0 DUP4 ADD DUP8 PUSH2 0x5223 JUMP JUMPDEST PUSH2 0x535B PUSH1 0xE0 DUP4 ADD DUP7 PUSH2 0x529A JUMP JUMPDEST PUSH2 0x5369 PUSH2 0x100 DUP4 ADD DUP6 PUSH2 0x52DB JUMP JUMPDEST PUSH2 0x5377 PUSH2 0x120 DUP4 ADD DUP5 PUSH2 0x52DB JUMP JUMPDEST SWAP12 SWAP11 POP POP POP POP POP POP POP POP POP POP POP JUMP JUMPDEST PUSH1 0x0 PUSH2 0x5391 DUP3 PUSH2 0x52A9 JUMP JUMPDEST SWAP1 POP SWAP2 SWAP1 POP JUMP JUMPDEST PUSH2 0x53A1 DUP2 PUSH2 0x5386 JUMP JUMPDEST DUP3 MSTORE POP POP JUMP JUMPDEST PUSH1 0x0 PUSH2 0x160 DUP3 ADD SWAP1 POP PUSH2 0x53BD PUSH1 0x0 DUP4 ADD DUP15 PUSH2 0x5214 JUMP JUMPDEST PUSH2 0x53CA PUSH1 0x20 DUP4 ADD DUP14 PUSH2 0x51EA JUMP JUMPDEST PUSH2 0x53D7 PUSH1 0x40 DUP4 ADD DUP13 PUSH2 0x51EA JUMP JUMPDEST PUSH2 0x53E4 PUSH1 0x60 DUP4 ADD DUP12 PUSH2 0x51EA JUMP JUMPDEST PUSH2 0x53F1 PUSH1 0x80 DUP4 ADD DUP11 PUSH2 0x51F9 JUMP JUMPDEST PUSH2 0x53FE PUSH1 0xA0 DUP4 ADD DUP10 PUSH2 0x5223 JUMP JUMPDEST PUSH2 0x540B PUSH1 0xC0 DUP4 ADD DUP9 PUSH2 0x5223 JUMP JUMPDEST PUSH2 0x5418 PUSH1 0xE0 DUP4 ADD DUP8 PUSH2 0x5223 JUMP JUMPDEST PUSH2 0x5426 PUSH2 0x100 DUP4 ADD DUP7 PUSH2 0x52DB JUMP JUMPDEST PUSH2 0x5434 PUSH2 0x120 DUP4 ADD DUP6 PUSH2 0x52DB JUMP JUMPDEST PUSH2 0x5442 PUSH2 0x140 DUP4 ADD DUP5 PUSH2 0x5398 JUMP JUMPDEST SWAP13 SWAP12 POP POP POP POP POP POP POP POP POP POP POP POP JUMP JUMPDEST PUSH2 0x545B DUP2 PUSH2 0x5386 JUMP JUMPDEST DUP2 EQ PUSH2 0x5466 JUMPI PUSH1 0x0 DUP1 REVERT JUMPDEST POP JUMP JUMPDEST PUSH1 0x0 DUP2 CALLDATALOAD SWAP1 POP PUSH2 0x5478 DUP2 PUSH2 0x5452 JUMP JUMPDEST SWAP3 SWAP2 POP POP JUMP JUMPDEST PUSH1 0x0 DUP2 SWAP1 POP SWAP2 SWAP1 POP JUMP JUMPDEST PUSH2 0x5491 DUP2 PUSH2 0x547E JUMP JUMPDEST DUP2 EQ PUSH2 0x549C JUMPI PUSH1 0x0 DUP1 REVERT JUMPDEST POP JUMP JUMPDEST PUSH1 0x0 DUP2 CALLDATALOAD SWAP1 POP PUSH2 0x54AE DUP2 PUSH2 0x5488 JUMP JUMPDEST SWAP3 SWAP2 POP POP JUMP JUMPDEST PUSH1 0x0 DUP1 PUSH1 0x0 DUP1 PUSH1 0x0 DUP1 PUSH1 0xC0 DUP8 DUP10 SUB SLT ISZERO PUSH2 0x54D1 JUMPI PUSH2 0x54D0 PUSH2 0x50A9 JUMP JUMPDEST JUMPDEST PUSH1 0x0 PUSH2 0x54DF DUP10 DUP3 DUP11 ADD PUSH2 0x5469 JUMP JUMPDEST SWAP7 POP POP PUSH1 0x20 PUSH2 0x54F0 DUP10 DUP3 DUP11 ADD PUSH2 0x5182 JUMP JUMPDEST SWAP6 POP POP PUSH1 0x40 PUSH2 0x5501 DUP10 DUP3 DUP11 ADD PUSH2 0x549F JUMP JUMPDEST SWAP5 POP POP PUSH1 0x60 PUSH2 0x5512 DUP10 DUP3 DUP11 ADD PUSH2 0x50D2 JUMP JUMPDEST SWAP4 POP POP PUSH1 0x80 PUSH2 0x5523 DUP10 DUP3 DUP11 ADD PUSH2 0x549F JUMP JUMPDEST SWAP3 POP POP PUSH1 0xA0 PUSH2 0x5534 DUP10 DUP3 DUP11 ADD PUSH2 0x549F JUMP JUMPDEST SWAP2 POP POP SWAP3 SWAP6 POP SWAP3 SWAP6 POP SWAP3 SWAP6 JUMP JUMPDEST PUSH1 0x0 PUSH1 0x20 DUP3 DUP5 SUB SLT ISZERO PUSH2 0x5557 JUMPI PUSH2 0x5556 PUSH2 0x50A9 JUMP JUMPDEST JUMPDEST PUSH1 0x0 PUSH2 0x5565 DUP5 DUP3 DUP6 ADD PUSH2 0x5469 JUMP JUMPDEST SWAP2 POP POP SWAP3 SWAP2 POP POP JUMP JUMPDEST PUSH1 0x0 PUSH1 0x20 DUP3 ADD SWAP1 POP PUSH2 0x5583 PUSH1 0x0 DUP4 ADD DUP5 PUSH2 0x5398 JUMP JUMPDEST SWAP3 SWAP2 POP POP JUMP JUMPDEST PUSH1 0x0 PUSH1 0x20 DUP3 DUP5 SUB SLT ISZERO PUSH2 0x559F JUMPI PUSH2 0x559E PUSH2 0x50A9 JUMP JUMPDEST JUMPDEST PUSH1 0x0 PUSH2 0x55AD DUP5 DUP3 DUP6 ADD PUSH2 0x5182 JUMP JUMPDEST SWAP2 POP POP SWAP3 SWAP2 POP POP JUMP JUMPDEST PUSH1 0x0 DUP1 PUSH1 0x40 DUP4 DUP6 SUB SLT ISZERO PUSH2 0x55CD JUMPI PUSH2 0x55CC PUSH2 0x50A9 JUMP JUMPDEST JUMPDEST PUSH1 0x0 PUSH2 0x55DB DUP6 DUP3 DUP7 ADD PUSH2 0x50D2 JUMP JUMPDEST SWAP3 POP POP PUSH1 0x20 PUSH2 0x55EC DUP6 DUP3 DUP7 ADD PUSH2 0x50D2 JUMP JUMPDEST SWAP2 POP POP SWAP3 POP SWAP3 SWAP1 POP JUMP JUMPDEST PUSH1 0x0 PUSH1 0x40 DUP3 ADD SWAP1 POP PUSH2 0x560B PUSH1 0x0 DUP4 ADD DUP6 PUSH2 0x5398 JUMP JUMPDEST PUSH2 0x5618 PUSH1 0x20 DUP4 ADD DUP5 PUSH2 0x5398 JUMP JUMPDEST SWAP4 SWAP3 POP POP POP JUMP JUMPDEST PUSH1 0x0 DUP1 PUSH1 0x0 DUP1 PUSH1 0x0 PUSH1 0xA0 DUP7 DUP9 SUB SLT ISZERO PUSH2 0x563B JUMPI PUSH2 0x563A PUSH2 0x50A9 JUMP JUMPDEST JUMPDEST PUSH1 0x0 PUSH2 0x5649 DUP9 DUP3 DUP10 ADD PUSH2 0x5182 JUMP JUMPDEST SWAP6 POP POP PUSH1 0x20 PUSH2 0x565A DUP9 DUP3 DUP10 ADD PUSH2 0x549F JUMP JUMPDEST SWAP5 POP POP PUSH1 0x40 PUSH2 0x566B DUP9 DUP3 DUP10 ADD PUSH2 0x50D2 JUMP JUMPDEST SWAP4 POP POP PUSH1 0x60 PUSH2 0x567C DUP9 DUP3 DUP10 ADD PUSH2 0x549F JUMP JUMPDEST SWAP3 POP POP PUSH1 0x80 PUSH2 0x568D DUP9 DUP3 DUP10 ADD PUSH2 0x549F JUMP JUMPDEST SWAP2 POP POP SWAP3 SWAP6 POP SWAP3 SWAP6 SWAP1 SWAP4 POP JUMP JUMPDEST PUSH1 0x0 PUSH1 0x60 DUP3 ADD SWAP1 POP PUSH2 0x56AF PUSH1 0x0 DUP4 ADD DUP7 PUSH2 0x5223 JUMP JUMPDEST PUSH2 0x56BC PUSH1 0x20 DUP4 ADD DUP6 PUSH2 0x5223 JUMP JUMPDEST PUSH2 0x56C9 PUSH1 0x40 DUP4 ADD DUP5 PUSH2 0x5223 JUMP JUMPDEST SWAP5 SWAP4 POP POP POP POP JUMP JUMPDEST PUSH32 0x4E487B7100000000000000000000000000000000000000000000000000000000 PUSH1 0x0 MSTORE PUSH1 0x11 PUSH1 0x4 MSTORE PUSH1 0x24 PUSH1 0x0 REVERT JUMPDEST PUSH1 0x0 PUSH2 0x570B DUP3 PUSH2 0x5161 JUMP JUMPDEST SWAP2 POP PUSH2 0x5716 DUP4 PUSH2 0x5161 JUMP JUMPDEST SWAP3 POP DUP3 DUP3 MUL PUSH2 0x5724 DUP2 PUSH2 0x5161 JUMP JUMPDEST SWAP2 POP DUP3 DUP3 DIV DUP5 EQ DUP4 ISZERO OR PUSH2 0x573B JUMPI PUSH2 0x573A PUSH2 0x56D1 JUMP JUMPDEST JUMPDEST POP SWAP3 SWAP2 POP POP JUMP JUMPDEST PUSH32 0x4E487B7100000000000000000000000000000000000000000000000000000000 PUSH1 0x0 MSTORE PUSH1 0x12 PUSH1 0x4 MSTORE PUSH1 0x24 PUSH1 0x0 REVERT JUMPDEST PUSH1 0x0 PUSH2 0x577C DUP3 PUSH2 0x5161 JUMP JUMPDEST SWAP2 POP PUSH2 0x5787 DUP4 PUSH2 0x5161 JUMP JUMPDEST SWAP3 POP DUP3 PUSH2 0x5797 JUMPI PUSH2 0x5796 PUSH2 0x5742 JUMP JUMPDEST JUMPDEST DUP3 DUP3 DIV SWAP1 POP SWAP3 SWAP2 POP POP JUMP JUMPDEST PUSH1 0x0 DUP2 SWAP1 POP SWAP3 SWAP2 POP POP JUMP JUMPDEST POP JUMP JUMPDEST PUSH1 0x0 PUSH2 0x57BD PUSH1 0x0 DUP4 PUSH2 0x57A2 JUMP JUMPDEST SWAP2 POP PUSH2 0x57C8 DUP3 PUSH2 0x57AD JUMP JUMPDEST PUSH1 0x0 DUP3 ADD SWAP1 POP SWAP2 SWAP1 POP JUMP JUMPDEST PUSH1 0x0 PUSH2 0x57DE DUP3 PUSH2 0x57B0 JUMP JUMPDEST SWAP2 POP DUP2 SWAP1 POP SWAP2 SWAP1 POP JUMP JUMPDEST PUSH1 0x0 DUP2 SWAP1 POP SWAP2 SWAP1 POP JUMP JUMPDEST PUSH1 0x0 PUSH2 0x580D PUSH2 0x5808 PUSH2 0x5803 DUP5 PUSH2 0x50AE JUMP JUMPDEST PUSH2 0x57E8 JUMP JUMPDEST PUSH2 0x5161 JUMP JUMPDEST SWAP1 POP SWAP2 SWAP1 POP JUMP JUMPDEST PUSH2 0x581D DUP2 PUSH2 0x57F2 JUMP JUMPDEST DUP3 MSTORE POP POP JUMP JUMPDEST PUSH1 0x0 PUSH2 0x583E PUSH2 0x5839 PUSH2 0x5834 DUP5 PUSH2 0x50E7 JUMP JUMPDEST PUSH2 0x57E8 JUMP JUMPDEST PUSH2 0x5161 JUMP JUMPDEST SWAP1 POP SWAP2 SWAP1 POP JUMP JUMPDEST PUSH2 0x584E DUP2 PUSH2 0x5823 JUMP JUMPDEST DUP3 MSTORE POP POP JUMP JUMPDEST PUSH1 0x0 PUSH1 0x40 DUP3 ADD SWAP1 POP PUSH2 0x5869 PUSH1 0x0 DUP4 ADD DUP6 PUSH2 0x5814 JUMP JUMPDEST PUSH2 0x5876 PUSH1 0x20 DUP4 ADD DUP5 PUSH2 0x5845 JUMP JUMPDEST SWAP4 SWAP3 POP POP POP JUMP JUMPDEST PUSH1 0x0 DUP2 SWAP1 POP SWAP3 SWAP2 POP POP JUMP JUMPDEST PUSH32 0x5F5F636F6E76657273696F6E496E000000000000000000000000000000000000 PUSH1 0x0 DUP3 ADD MSTORE POP JUMP JUMPDEST PUSH1 0x0 PUSH2 0x58BE PUSH1 0xE DUP4 PUSH2 0x587D JUMP JUMPDEST SWAP2 POP PUSH2 0x58C9 DUP3 PUSH2 0x5888 JUMP JUMPDEST PUSH1 0xE DUP3 ADD SWAP1 POP SWAP2 SWAP1 POP JUMP JUMPDEST PUSH1 0x0 DUP2 SWAP1 POP SWAP2 SWAP1 POP JUMP JUMPDEST PUSH2 0x58EF PUSH2 0x58EA DUP3 PUSH2 0x5161 JUMP JUMPDEST PUSH2 0x58D4 JUMP JUMPDEST DUP3 MSTORE POP POP JUMP JUMPDEST PUSH1 0x0 DUP2 PUSH1 0x60 SHL SWAP1 POP SWAP2 SWAP1 POP JUMP JUMPDEST PUSH1 0x0 PUSH2 0x590D DUP3 PUSH2 0x58F5 JUMP JUMPDEST SWAP1 POP SWAP2 SWAP1 POP JUMP JUMPDEST PUSH1 0x0 PUSH2 0x591F DUP3 PUSH2 0x5902 JUMP JUMPDEST SWAP1 POP SWAP2 SWAP1 POP JUMP JUMPDEST PUSH2 0x5937 PUSH2 0x5932 DUP3 PUSH2 0x5386 JUMP JUMPDEST PUSH2 0x5914 JUMP JUMPDEST DUP3 MSTORE POP POP JUMP JUMPDEST PUSH1 0x0 DUP2 SWAP1 POP SWAP2 SWAP1 POP JUMP JUMPDEST PUSH2 0x5958 PUSH2 0x5953 DUP3 PUSH2 0x547E JUMP JUMPDEST PUSH2 0x593D JUMP JUMPDEST DUP3 MSTORE POP POP JUMP JUMPDEST PUSH1 0x0 PUSH2 0x5979 PUSH2 0x5974 PUSH2 0x596F DUP5 PUSH2 0x52A9 JUMP JUMPDEST PUSH2 0x57E8 JUMP JUMPDEST PUSH2 0x52A9 JUMP JUMPDEST SWAP1 POP SWAP2 SWAP1 POP JUMP JUMPDEST PUSH1 0x0 PUSH2 0x598B DUP3 PUSH2 0x595E JUMP JUMPDEST SWAP1 POP SWAP2 SWAP1 POP JUMP JUMPDEST PUSH1 0x0 PUSH2 0x599D DUP3 PUSH2 0x5980 JUMP JUMPDEST SWAP1 POP SWAP2 SWAP1 POP JUMP JUMPDEST PUSH2 0x59B5 PUSH2 0x59B0 DUP3 PUSH2 0x5992 JUMP JUMPDEST PUSH2 0x5914 JUMP JUMPDEST DUP3 MSTORE POP POP JUMP JUMPDEST PUSH1 0x0 PUSH2 0x59C6 DUP3 PUSH2 0x58B1 JUMP JUMPDEST SWAP2 POP PUSH2 0x59D2 DUP3 DUP8 PUSH2 0x58DE JUMP JUMPDEST PUSH1 0x20 DUP3 ADD SWAP2 POP PUSH2 0x59E2 DUP3 DUP7 PUSH2 0x5926 JUMP JUMPDEST PUSH1 0x14 DUP3 ADD SWAP2 POP PUSH2 0x59F2 DUP3 DUP6 PUSH2 0x5947 JUMP JUMPDEST PUSH1 0x20 DUP3 ADD SWAP2 POP PUSH2 0x5A02 DUP3 DUP5 PUSH2 0x59A4 JUMP JUMPDEST PUSH1 0x14 DUP3 ADD SWAP2 POP DUP2 SWAP1 POP SWAP6 SWAP5 POP POP POP POP POP JUMP JUMPDEST PUSH2 0x5A1D DUP2 PUSH2 0x547E JUMP JUMPDEST DUP3 MSTORE POP POP JUMP JUMPDEST PUSH1 0x0 PUSH1 0x80 DUP3 ADD SWAP1 POP PUSH2 0x5A38 PUSH1 0x0 DUP4 ADD DUP8 PUSH2 0x5A14 JUMP JUMPDEST PUSH2 0x5A45 PUSH1 0x20 DUP4 ADD DUP7 PUSH2 0x51EA JUMP JUMPDEST PUSH2 0x5A52 PUSH1 0x40 DUP4 ADD DUP6 PUSH2 0x5A14 JUMP JUMPDEST PUSH2 0x5A5F PUSH1 0x60 DUP4 ADD DUP5 PUSH2 0x5A14 JUMP JUMPDEST SWAP6 SWAP5 POP POP POP POP POP JUMP JUMPDEST PUSH1 0x0 DUP2 MLOAD SWAP1 POP PUSH2 0x5A77 DUP2 PUSH2 0x516B JUMP JUMPDEST SWAP3 SWAP2 POP POP JUMP JUMPDEST PUSH1 0x0 PUSH1 0x20 DUP3 DUP5 SUB SLT ISZERO PUSH2 0x5A93 JUMPI PUSH2 0x5A92 PUSH2 0x50A9 JUMP JUMPDEST JUMPDEST PUSH1 0x0 PUSH2 0x5AA1 DUP5 DUP3 DUP6 ADD PUSH2 0x5A68 JUMP JUMPDEST SWAP2 POP POP SWAP3 SWAP2 POP POP JUMP JUMPDEST PUSH1 0x0 PUSH2 0x5AB5 DUP3 PUSH2 0x5161 JUMP JUMPDEST SWAP2 POP PUSH2 0x5AC0 DUP4 PUSH2 0x5161 JUMP JUMPDEST SWAP3 POP DUP3 DUP3 ADD SWAP1 POP DUP1 DUP3 GT ISZERO PUSH2 0x5AD8 JUMPI PUSH2 0x5AD7 PUSH2 0x56D1 JUMP JUMPDEST JUMPDEST SWAP3 SWAP2 POP POP JUMP JUMPDEST PUSH1 0x0 PUSH1 0x40 DUP3 ADD SWAP1 POP PUSH2 0x5AF3 PUSH1 0x0 DUP4 ADD DUP6 PUSH2 0x5398 JUMP JUMPDEST PUSH2 0x5B00 PUSH1 0x20 DUP4 ADD DUP5 PUSH2 0x5223 JUMP JUMPDEST SWAP4 SWAP3 POP POP POP JUMP JUMPDEST PUSH1 0x0 DUP2 MLOAD SWAP1 POP SWAP2 SWAP1 POP JUMP JUMPDEST PUSH1 0x0 JUMPDEST DUP4 DUP2 LT ISZERO PUSH2 0x5B30 JUMPI DUP1 DUP3 ADD MLOAD DUP2 DUP5 ADD MSTORE PUSH1 0x20 DUP2 ADD SWAP1 POP PUSH2 0x5B15 JUMP JUMPDEST PUSH1 0x0 DUP5 DUP5 ADD MSTORE POP POP POP POP JUMP JUMPDEST PUSH1 0x0 PUSH2 0x5B47 DUP3 PUSH2 0x5B07 JUMP JUMPDEST PUSH2 0x5B51 DUP2 DUP6 PUSH2 0x57A2 JUMP JUMPDEST SWAP4 POP PUSH2 0x5B61 DUP2 DUP6 PUSH1 0x20 DUP7 ADD PUSH2 0x5B12 JUMP JUMPDEST DUP1 DUP5 ADD SWAP2 POP POP SWAP3 SWAP2 POP POP JUMP JUMPDEST PUSH1 0x0 PUSH2 0x5B79 DUP3 DUP5 PUSH2 0x5B3C JUMP JUMPDEST SWAP2 POP DUP2 SWAP1 POP SWAP3 SWAP2 POP POP JUMP JUMPDEST PUSH1 0x0 PUSH2 0x5B8F DUP3 PUSH2 0x5161 JUMP JUMPDEST SWAP2 POP PUSH2 0x5B9A DUP4 PUSH2 0x5161 JUMP JUMPDEST SWAP3 POP DUP3 DUP3 SUB SWAP1 POP DUP2 DUP2 GT ISZERO PUSH2 0x5BB2 JUMPI PUSH2 0x5BB1 PUSH2 0x56D1 JUMP JUMPDEST JUMPDEST SWAP3 SWAP2 POP POP JUMP JUMPDEST PUSH1 0x0 PUSH1 0x40 DUP3 ADD SWAP1 POP PUSH2 0x5BCD PUSH1 0x0 DUP4 ADD DUP6 PUSH2 0x5A14 JUMP JUMPDEST PUSH2 0x5BDA PUSH1 0x20 DUP4 ADD DUP5 PUSH2 0x5223 JUMP JUMPDEST SWAP4 SWAP3 POP POP POP JUMP JUMPDEST PUSH1 0x0 PUSH1 0x20 DUP3 ADD SWAP1 POP PUSH2 0x5BF6 PUSH1 0x0 DUP4 ADD DUP5 PUSH2 0x5223 JUMP JUMPDEST SWAP3 SWAP2 POP POP JUMP JUMPDEST PUSH1 0x0 PUSH2 0x5C07 DUP3 PUSH2 0x50AE JUMP JUMPDEST SWAP2 POP PUSH2 0x5C12 DUP4 PUSH2 0x50AE JUMP JUMPDEST SWAP3 POP DUP3 DUP3 ADD SWAP1 POP PUSH1 0xFF DUP2 GT ISZERO PUSH2 0x5C2B JUMPI PUSH2 0x5C2A PUSH2 0x56D1 JUMP JUMPDEST JUMPDEST SWAP3 SWAP2 POP POP JUMP JUMPDEST PUSH1 0x0 PUSH1 0x40 DUP3 ADD SWAP1 POP PUSH2 0x5C46 PUSH1 0x0 DUP4 ADD DUP6 PUSH2 0x51EA JUMP JUMPDEST PUSH2 0x5C53 PUSH1 0x20 DUP4 ADD DUP5 PUSH2 0x51EA JUMP JUMPDEST SWAP4 SWAP3 POP POP POP JUMP JUMPDEST PUSH1 0x0 PUSH1 0x60 DUP3 ADD SWAP1 POP PUSH2 0x5C6F PUSH1 0x0 DUP4 ADD DUP7 PUSH2 0x51EA JUMP JUMPDEST PUSH2 0x5C7C PUSH1 0x20 DUP4 ADD DUP6 PUSH2 0x51EA JUMP JUMPDEST PUSH2 0x5C89 PUSH1 0x40 DUP4 ADD DUP5 PUSH2 0x5223 JUMP JUMPDEST SWAP5 SWAP4 POP POP POP POP JUMP JUMPDEST PUSH32 0x5F5F636F6E76657273696F6E4F75740000000000000000000000000000000000 PUSH1 0x0 DUP3 ADD MSTORE POP JUMP JUMPDEST PUSH1 0x0 PUSH2 0x5CC7 PUSH1 0xF DUP4 PUSH2 0x587D JUMP JUMPDEST SWAP2 POP PUSH2 0x5CD2 DUP3 PUSH2 0x5C91 JUMP JUMPDEST PUSH1 0xF DUP3 ADD SWAP1 POP SWAP2 SWAP1 POP JUMP JUMPDEST PUSH1 0x0 PUSH2 0x5CE8 DUP3 PUSH2 0x5CBA JUMP JUMPDEST SWAP2 POP PUSH2 0x5CF4 DUP3 DUP8 PUSH2 0x58DE JUMP JUMPDEST PUSH1 0x20 DUP3 ADD SWAP2 POP PUSH2 0x5D04 DUP3 DUP7 PUSH2 0x5926 JUMP JUMPDEST PUSH1 0x14 DUP3 ADD SWAP2 POP PUSH2 0x5D14 DUP3 DUP6 PUSH2 0x5947 JUMP JUMPDEST PUSH1 0x20 DUP3 ADD SWAP2 POP PUSH2 0x5D24 DUP3 DUP5 PUSH2 0x59A4 JUMP JUMPDEST PUSH1 0x14 DUP3 ADD SWAP2 POP DUP2 SWAP1 POP SWAP6 SWAP5 POP POP POP POP POP JUMP JUMPDEST PUSH1 0x0 DUP3 DUP3 MSTORE PUSH1 0x20 DUP3 ADD SWAP1 POP SWAP3 SWAP2 POP POP JUMP JUMPDEST PUSH32 0x4F776E61626C653A206E6577206F776E657220697320746865207A65726F2061 PUSH1 0x0 DUP3 ADD MSTORE PUSH32 0x6464726573730000000000000000000000000000000000000000000000000000 PUSH1 0x20 DUP3 ADD MSTORE POP JUMP JUMPDEST PUSH1 0x0 PUSH2 0x5DA3 PUSH1 0x26 DUP4 PUSH2 0x5D36 JUMP JUMPDEST SWAP2 POP PUSH2 0x5DAE DUP3 PUSH2 0x5D47 JUMP JUMPDEST PUSH1 0x40 DUP3 ADD SWAP1 POP SWAP2 SWAP1 POP JUMP JUMPDEST PUSH1 0x0 PUSH1 0x20 DUP3 ADD SWAP1 POP DUP2 DUP2 SUB PUSH1 0x0 DUP4 ADD MSTORE PUSH2 0x5DD2 DUP2 PUSH2 0x5D96 JUMP JUMPDEST SWAP1 POP SWAP2 SWAP1 POP JUMP JUMPDEST PUSH32 0x5265656E7472616E637947756172643A207265656E7472616E742063616C6C00 PUSH1 0x0 DUP3 ADD MSTORE POP JUMP JUMPDEST PUSH1 0x0 PUSH2 0x5E0F PUSH1 0x1F DUP4 PUSH2 0x5D36 JUMP JUMPDEST SWAP2 POP PUSH2 0x5E1A DUP3 PUSH2 0x5DD9 JUMP JUMPDEST PUSH1 0x20 DUP3 ADD SWAP1 POP SWAP2 SWAP1 POP JUMP JUMPDEST PUSH1 0x0 PUSH1 0x20 DUP3 ADD SWAP1 POP DUP2 DUP2 SUB PUSH1 0x0 DUP4 ADD MSTORE PUSH2 0x5E3E DUP2 PUSH2 0x5E02 JUMP JUMPDEST SWAP1 POP SWAP2 SWAP1 POP JUMP JUMPDEST PUSH32 0x4F776E61626C653A2063616C6C6572206973206E6F7420746865206F776E6572 PUSH1 0x0 DUP3 ADD MSTORE POP JUMP JUMPDEST PUSH1 0x0 PUSH2 0x5E7B PUSH1 0x20 DUP4 PUSH2 0x5D36 JUMP JUMPDEST SWAP2 POP PUSH2 0x5E86 DUP3 PUSH2 0x5E45 JUMP JUMPDEST PUSH1 0x20 DUP3 ADD SWAP1 POP SWAP2 SWAP1 POP JUMP JUMPDEST PUSH1 0x0 PUSH1 0x20 DUP3 ADD SWAP1 POP DUP2 DUP2 SUB PUSH1 0x0 DUP4 ADD MSTORE PUSH2 0x5EAA DUP2 PUSH2 0x5E6E JUMP JUMPDEST SWAP1 POP SWAP2 SWAP1 POP JUMP JUMPDEST PUSH32 0x19457468657265756D205369676E6564204D6573736167653A0A333200000000 PUSH1 0x0 DUP3 ADD MSTORE POP JUMP JUMPDEST PUSH1 0x0 PUSH2 0x5EE7 PUSH1 0x1C DUP4 PUSH2 0x587D JUMP JUMPDEST SWAP2 POP PUSH2 0x5EF2 DUP3 PUSH2 0x5EB1 JUMP JUMPDEST PUSH1 0x1C DUP3 ADD SWAP1 POP SWAP2 SWAP1 POP JUMP JUMPDEST PUSH1 0x0 PUSH2 0x5F08 DUP3 PUSH2 0x5EDA JUMP JUMPDEST SWAP2 POP PUSH2 0x5F14 DUP3 DUP5 PUSH2 0x5947 JUMP JUMPDEST PUSH1 0x20 DUP3 ADD SWAP2 POP DUP2 SWAP1 POP SWAP3 SWAP2 POP POP JUMP JUMPDEST PUSH1 0x0 PUSH1 0x40 DUP3 ADD SWAP1 POP PUSH2 0x5F38 PUSH1 0x0 DUP4 ADD DUP6 PUSH2 0x5223 JUMP JUMPDEST PUSH2 0x5F45 PUSH1 0x20 DUP4 ADD DUP5 PUSH2 0x5223 JUMP JUMPDEST SWAP4 SWAP3 POP POP POP JUMP JUMPDEST PUSH1 0x0 PUSH1 0x40 DUP3 ADD SWAP1 POP PUSH2 0x5F61 PUSH1 0x0 DUP4 ADD DUP6 PUSH2 0x52DB JUMP JUMPDEST PUSH2 0x5F6E PUSH1 0x20 DUP4 ADD DUP5 PUSH2 0x5223 JUMP JUMPDEST SWAP4 SWAP3 POP POP POP JUMP JUMPDEST PUSH1 0x0 PUSH1 0x60 DUP3 ADD SWAP1 POP PUSH2 0x5F8A PUSH1 0x0 DUP4 ADD DUP7 PUSH2 0x5398 JUMP JUMPDEST PUSH2 0x5F97 PUSH1 0x20 DUP4 ADD DUP6 PUSH2 0x52DB JUMP JUMPDEST PUSH2 0x5FA4 PUSH1 0x40 DUP4 ADD DUP5 PUSH2 0x5223 JUMP JUMPDEST SWAP5 SWAP4 POP POP POP POP JUMP INVALID LOG2 PUSH5 0x6970667358 0x22 SLT KECCAK256 SWAP9 DUP1 SGT 0x2B 0xE9 0xC7 0xFB 0xF7 0xD2 CREATE DUP13 PC BYTE 0x5D OR PUSH17 0x9F849319433E911BB25C40E09472D16C64 PUSH20 0x6F6C634300081300330000000000000000000000 "},"methodIdentifiers":{"claimFixedNativeTokensCommission()":"2b100f5c","commissionSettings()":"5531e774","conversionIn(address,uint256,bytes32,uint8,bytes32,bytes32)":"6a02fcc4","conversionOut(uint256,bytes32,uint8,bytes32,bytes32)":"9f23c9e2","disableCommission()":"b26e099f","enableAndUpdateFixedNativeTokensCommission(uint256)":"b2d1bb52","enableAndUpdateFixedTokensCommission(uint256)":"9548f477","enableAndUpdatePercentageTokensCommission(uint8,uint16)":"2b84301f","getCommissionReceiverAddresses()":"9cb71686","getCommissionSettings()":"58a93688","getConversionAuthorizer()":"c72304ac","getConversionConfigurations()":"feea1529","owner()":"8da5cb5b","renounceOwnership()":"715018a6","transferOwnership(address)":"f2fde38b","updateAuthorizer(address)":"e0a66578","updateBridgeOwner(address)":"7c522d28","updateCommissionProportions(uint8,uint8)":"9b58bfed","updateConfigurations(uint256,uint256,uint256)":"529c0970","updateReceiverCommission(address)":"94aca02a"}}}}}