{"contracts/TokenConversionManager.sol":{"TokenConversionManager":{"abi":[{"inputs":[{"internalType":"address","name":"token","type":"address"},{"internalType":"bool","name":"commissionIsEnabled","type":"bool"},{"internalType":"uint8","name":"convertTokenPercentage","type":"uint8"},{"internalType":"uint8","name":"receiverCommissionProportion","type":"uint8"},{"internalType":"uint8","name":"bridgeOwnerCommissionProportion","type":"uint8"},{"internalType":"uint32","name":"pointOffsetShifter","type":"uint32"},{"internalType":"uint256","name":"commissionType","type":"uint256"},{"internalType":"uint256","name":"fixedNativeTokenCommission","type":"uint256"},{"internalType":"uint256","name":"fixedNativeTokenCommissionLimit","type":"uint256"},{"internalType":"uint256","name":"fixedTokenCommission","type":"uint256"},{"internalType":"address payable","name":"commissionReceiver","type":"address"},{"internalType":"address payable","name":"bridgeOwner","type":"address"}],"stateMutability":"nonpayable","type":"constructor"},{"inputs":[],"name":"CommissionTransferFailed","type":"error"},{"inputs":[],"name":"ConversionFailed","type":"error"},{"inputs":[],"name":"ConversionMintFailed","type":"error"},{"inputs":[],"name":"ConversionTransferFailed","type":"error"},{"inputs":[],"name":"InvalidCommissionDeduction","type":"error"},{"inputs":[{"internalType":"uint8","name":"proportion1","type":"uint8"},{"internalType":"uint8","name":"proportion2","type":"uint8"}],"name":"InvalidProportionSum","type":"error"},{"inputs":[],"name":"InvalidRequestOrSignature","type":"error"},{"inputs":[],"name":"InvalidUpdateConfigurations","type":"error"},{"inputs":[],"name":"NativeClaimFailed","type":"error"},{"inputs":[],"name":"NotEnoughBalance","type":"error"},{"inputs":[],"name":"PercentageLimitExceeded","type":"error"},{"inputs":[{"internalType":"uint256","name":"sent","type":"uint256"},{"internalType":"uint256","name":"required","type":"uint256"}],"name":"TakeNativeTokenCommissionFailed","type":"error"},{"inputs":[{"internalType":"address","name":"caller","type":"address"}],"name":"UnauthorizedCommissionReceiver","type":"error"},{"inputs":[],"name":"UsedSignature","type":"error"},{"inputs":[],"name":"ViolationOfNativeTokenLimit","type":"error"},{"inputs":[],"name":"ViolationOfTxAmountLimits","type":"error"},{"inputs":[],"name":"ZeroAddress","type":"error"},{"anonymous":false,"inputs":[{"indexed":true,"internalType":"address","name":"tokenHolder","type":"address"},{"indexed":false,"internalType":"bytes32","name":"conversionId","type":"bytes32"},{"indexed":false,"internalType":"uint256","name":"amount","type":"uint256"}],"name":"ConversionIn","type":"event"},{"anonymous":false,"inputs":[{"indexed":true,"internalType":"address","name":"tokenHolder","type":"address"},{"indexed":false,"internalType":"bytes32","name":"conversionId","type":"bytes32"},{"indexed":false,"internalType":"uint256","name":"amount","type":"uint256"}],"name":"ConversionOut","type":"event"},{"anonymous":false,"inputs":[{"indexed":true,"internalType":"uint256","name":"time","type":"uint256"}],"name":"NativeCurrencyCommissionClaim","type":"event"},{"anonymous":false,"inputs":[{"indexed":false,"internalType":"address","name":"conversionAuthorizer","type":"address"}],"name":"NewAuthorizer","type":"event"},{"anonymous":false,"inputs":[{"indexed":true,"internalType":"address","name":"previousOwner","type":"address"},{"indexed":true,"internalType":"address","name":"newOwner","type":"address"}],"name":"OwnershipTransferred","type":"event"},{"anonymous":false,"inputs":[{"indexed":false,"internalType":"bool","name":"commissionIsEnabled","type":"bool"},{"indexed":false,"internalType":"uint8","name":"convertTokenPercentage","type":"uint8"},{"indexed":false,"internalType":"uint8","name":"receiverCommissionProportion","type":"uint8"},{"indexed":false,"internalType":"uint8","name":"bridgeOwnerCommissionProportion","type":"uint8"},{"indexed":false,"internalType":"uint32","name":"pointOffsetShifter","type":"uint32"},{"indexed":false,"internalType":"uint256","name":"commissionType","type":"uint256"},{"indexed":false,"internalType":"uint256","name":"fixedTokenCommission","type":"uint256"},{"indexed":false,"internalType":"uint256","name":"fixedNativeTokenCommission","type":"uint256"},{"indexed":false,"internalType":"address payable","name":"receiverCommission","type":"address"},{"indexed":false,"internalType":"address payable","name":"bridgeOwner","type":"address"},{"indexed":false,"internalType":"uint256","name":"updateTimestamp","type":"uint256"}],"name":"UpdateCommissionConfiguration","type":"event"},{"anonymous":false,"inputs":[{"indexed":false,"internalType":"uint256","name":"perTxnMinAmount","type":"uint256"},{"indexed":false,"internalType":"uint256","name":"perTxnMaxAmount","type":"uint256"},{"indexed":false,"internalType":"uint256","name":"maxSupply","type":"uint256"}],"name":"UpdateConfiguration","type":"event"},{"anonymous":false,"inputs":[{"indexed":true,"internalType":"address","name":"previousReceiver","type":"address"},{"indexed":true,"internalType":"address","name":"newReceiver","type":"address"}],"name":"UpdateReceiver","type":"event"},{"inputs":[],"name":"claimNativeCurrencyCommission","outputs":[],"stateMutability":"nonpayable","type":"function"},{"inputs":[],"name":"commissionSettings","outputs":[{"internalType":"uint8","name":"convertTokenPercentage","type":"uint8"},{"internalType":"uint8","name":"receiverCommissionProportion","type":"uint8"},{"internalType":"uint8","name":"bridgeOwnerCommissionProportion","type":"uint8"},{"internalType":"uint32","name":"pointOffsetShifter","type":"uint32"},{"internalType":"bool","name":"commissionIsEnabled","type":"bool"},{"internalType":"uint256","name":"fixedNativeTokenCommission","type":"uint256"},{"internalType":"uint256","name":"fixedTokenCommission","type":"uint256"},{"internalType":"enum Commission.CommissionType","name":"commissionType","type":"uint8"},{"internalType":"address payable","name":"receiverCommission","type":"address"},{"internalType":"address payable","name":"bridgeOwner","type":"address"}],"stateMutability":"view","type":"function"},{"inputs":[{"internalType":"address","name":"to","type":"address"},{"internalType":"uint256","name":"amount","type":"uint256"},{"internalType":"bytes32","name":"conversionId","type":"bytes32"},{"internalType":"uint8","name":"v","type":"uint8"},{"internalType":"bytes32","name":"r","type":"bytes32"},{"internalType":"bytes32","name":"s","type":"bytes32"}],"name":"conversionIn","outputs":[],"stateMutability":"payable","type":"function"},{"inputs":[{"internalType":"uint256","name":"amount","type":"uint256"},{"internalType":"bytes32","name":"conversionId","type":"bytes32"},{"internalType":"uint8","name":"v","type":"uint8"},{"internalType":"bytes32","name":"r","type":"bytes32"},{"internalType":"bytes32","name":"s","type":"bytes32"}],"name":"conversionOut","outputs":[],"stateMutability":"payable","type":"function"},{"inputs":[],"name":"disableCommission","outputs":[],"stateMutability":"nonpayable","type":"function"},{"inputs":[],"name":"getCommissionReceiverAddresses","outputs":[{"internalType":"address","name":"","type":"address"},{"internalType":"address","name":"","type":"address"}],"stateMutability":"view","type":"function"},{"inputs":[],"name":"getCommissionSettings","outputs":[{"internalType":"bool","name":"commissionIsEnabled","type":"bool"},{"internalType":"uint8","name":"receiverCommissionProportion","type":"uint8"},{"internalType":"uint8","name":"bridgeOwnerCommissionProportion","type":"uint8"},{"internalType":"uint8","name":"convertTokenPercentage","type":"uint8"},{"internalType":"uint256","name":"tokenTypeCommission","type":"uint256"},{"internalType":"uint256","name":"fixedTokenCommission","type":"uint256"},{"internalType":"uint256","name":"fixedNativeTokenCommission","type":"uint256"},{"internalType":"address payable","name":"receiverCommission","type":"address"},{"internalType":"address payable","name":"bridgeOwner","type":"address"},{"internalType":"address","name":"token","type":"address"}],"stateMutability":"view","type":"function"},{"inputs":[],"name":"getConversionAuthorizer","outputs":[{"internalType":"address","name":"","type":"address"}],"stateMutability":"view","type":"function"},{"inputs":[],"name":"getConversionConfigurations","outputs":[{"internalType":"uint256","name":"","type":"uint256"},{"internalType":"uint256","name":"","type":"uint256"},{"internalType":"uint256","name":"","type":"uint256"}],"stateMutability":"view","type":"function"},{"inputs":[],"name":"owner","outputs":[{"internalType":"address","name":"","type":"address"}],"stateMutability":"view","type":"function"},{"inputs":[],"name":"renounceOwnership","outputs":[],"stateMutability":"nonpayable","type":"function"},{"inputs":[{"internalType":"address","name":"newOwner","type":"address"}],"name":"transferOwnership","outputs":[],"stateMutability":"nonpayable","type":"function"},{"inputs":[{"internalType":"address","name":"newAuthorizer","type":"address"}],"name":"updateAuthorizer","outputs":[],"stateMutability":"nonpayable","type":"function"},{"inputs":[{"internalType":"address","name":"newBridgeOwner","type":"address"}],"name":"updateBridgeOwner","outputs":[],"stateMutability":"nonpayable","type":"function"},{"inputs":[{"internalType":"bool","name":"commissionIsEnabled","type":"bool"},{"internalType":"uint8","name":"receiverCommissionProportion","type":"uint8"},{"internalType":"uint8","name":"bridgeOwnerCommissionProportion","type":"uint8"},{"internalType":"uint8","name":"newConvertTokenPercentage","type":"uint8"},{"internalType":"uint32","name":"pointOffsetShifter","type":"uint32"},{"internalType":"uint256","name":"newCommissionType","type":"uint256"},{"internalType":"uint256","name":"newFixedTokenCommission","type":"uint256"},{"internalType":"uint256","name":"newFixedNativeTokenCommission","type":"uint256"},{"internalType":"address payable","name":"receiverCommission","type":"address"},{"internalType":"address payable","name":"bridgeOwner","type":"address"}],"name":"updateCommissionConfiguration","outputs":[],"stateMutability":"nonpayable","type":"function"},{"inputs":[{"internalType":"uint256","name":"perTxnMinAmount","type":"uint256"},{"internalType":"uint256","name":"perTxnMaxAmount","type":"uint256"},{"internalType":"uint256","name":"maxSupply","type":"uint256"}],"name":"updateConfigurations","outputs":[],"stateMutability":"nonpayable","type":"function"},{"inputs":[{"internalType":"address","name":"newReceiverCommission","type":"address"}],"name":"updateReceiverCommission","outputs":[],"stateMutability":"nonpayable","type":"function"}],"evm":{"bytecode":{"linkReferences":{},"object":"60c06040523480156200001157600080fd5b50604051620027f6380380620027f6833981016040819052620000349162000472565b8b8b8b8b8b8b8b8b8b8b8b8b6200004b3362000222565b600180556002548a906301000000900463ffffffff1660ff821611156200008557604051633abd651d60e21b815260040160405180910390fd5b898960646200009582846200054c565b60ff1614620000c857604051638efe3fd560e01b815260ff80841660048301528216602482015260440160405180910390fd5b6001600160a01b038f1660a05260808790528d15620001ba576002805460ff60381b19166701000000000000001790556200010b8d8d8d8d8d8b8e8c8c62000272565b7f2318e6ca297fb62ee2d9dcaf35e332a8ccd6f45099aa2dbfe98d981a13b278468e8e8e8e8e8e8c8f8d8d42604051620001b19b9a999897969594939291909a15158b5260ff998a1660208c015297891660408b015295909716606089015263ffffffff93909316608088015260a087019190915260c086015260e08501526001600160a01b039283166101008501529091166101208301526101408201526101600190565b60405180910390a15b50505050505050505050505050505060006001600160a01b03168c6001600160a01b031603620001fd5760405163d92e233d60e01b815260040160405180910390fd5b5050600780546001600160a01b03191633179055506200057a98505050505050505050565b600080546001600160a01b038381166001600160a01b0319831681178455604051919092169283917f8be0079c531659141344cd1fd0a4f28419497f9722a3daafe3b4186f6b6457e09190a35050565b60025460ff89811661010090920416146200029c576002805461ff00191661010060ff8b16021790555b60025460ff888116620100009092041614620002c9576002805462ff000019166201000060ff8a16021790555b84158015620002db575060008960ff16115b1562000325576002805466ffffffff0000ff1916630100000063ffffffff89160260ff199081169190911760ff8c161790915560058054600092166001835b02179055506200036c565b8460010362000347576004849055600580546001919060ff191682806200031a565b82156200036c576200035983620003fc565b60038390556005805460ff191660021790555b6005546001600160a01b038381166101009092041614620003a85760058054610100600160a81b0319166101006001600160a01b038516021790555b6006546001600160a01b03828116911614801590620003cf57506001600160a01b03811615155b15620003f157600680546001600160a01b0319166001600160a01b0383161790555b505050505050505050565b608051811115620004205760405163dd27e1db60e01b815260040160405180910390fd5b50565b6001600160a01b03811681146200042057600080fd5b805160ff811681146200044b57600080fd5b919050565b805163ffffffff811681146200044b57600080fd5b80516200044b8162000423565b6000806000806000806000806000806000806101808d8f0312156200049657600080fd5b8c51620004a38162000423565b60208e0151909c508015158114620004ba57600080fd5b9a50620004ca60408e0162000439565b9950620004da60608e0162000439565b9850620004ea60808e0162000439565b9750620004fa60a08e0162000450565b965060c08d0151955060e08d015194506101008d015193506101208d01519250620005296101408e0162000465565b91506200053a6101608e0162000465565b90509295989b509295989b509295989b565b60ff81811683821601908111156200057457634e487b7160e01b600052601160045260246000fd5b92915050565b60805160a051612209620005ed600039600081816106d80152818161094f01528181610a4001528181610ba401528181610c6d01528181610d8a015281816111b90152818161143f015281816117580152818161188e01528181611b8f0152611cc001526000611e0801526122096000f3fe6080604052600436106100fe5760003560e01c80638da5cb5b11610095578063b26e099f11610064578063b26e099f1461033d578063c72304ac14610352578063e0a6657814610370578063f2fde38b14610390578063feea1529146103b057600080fd5b80638da5cb5b146102a057806394aca02a146102d25780639cb71686146102f25780639f23c9e21461032a57600080fd5b80636a02fcc4116100d15780636a02fcc414610238578063715018a61461024b5780637c522d2814610260578063894f9d191461028057600080fd5b806337c1562614610103578063529c09701461011a5780635531e7741461013a57806358a93688146101c3575b600080fd5b34801561010f57600080fd5b506101186103e1565b005b34801561012657600080fd5b50610118610135366004611e73565b6105ee565b34801561014657600080fd5b506002546003546004546005546006546101a49460ff8082169561010080840483169662010000850484169663ffffffff630100000087041696600160381b90960485169593949193918116926001600160a01b039104811691168a565b6040516101ba9a99989796959493929190611eb5565b60405180910390f35b3480156101cf57600080fd5b506101d861064b565b604080519a15158b5260ff998a1660208c0152978916978a0197909752949096166060880152608087019290925260a086015260c08501526001600160a01b0392831660e0850152821661010084015216610120820152610140016101ba565b610118610246366004611f76565b610717565b34801561025757600080fd5b50610118610ef5565b34801561026c57600080fd5b5061011861027b366004611fd0565b610f07565b34801561028c57600080fd5b5061011861029b366004611fff565b610f92565b3480156102ac57600080fd5b506000546001600160a01b03165b6040516001600160a01b0390911681526020016101ba565b3480156102de57600080fd5b506101186102ed366004611fd0565b6110df565b3480156102fe57600080fd5b50600554600654604080516101009093046001600160a01b0390811684529091166020830152016101ba565b6101186103383660046120b6565b611175565b34801561034957600080fd5b5061011861151c565b34801561035e57600080fd5b506007546001600160a01b03166102ba565b34801561037c57600080fd5b5061011861038b366004611fd0565b611533565b34801561039c57600080fd5b506101186103ab366004611fd0565b6115b6565b3480156103bc57600080fd5b50600954600a54600b54604080519384526020840192909252908201526060016101ba565b6103e961162f565b3360055461010090046001600160a01b0316336001600160a01b03161415801561042757506006546001600160a01b0316336001600160a01b031614155b1561044c57604051630f287a3f60e01b81523360048201526024015b60405180910390fd5b4760055461010090046001600160a01b0316158015906104755750600254610100900460ff1615155b1561051f5760025460009060649061049590610100900460ff1684612113565b61049f919061212a565b6005546040519192506000916101009091046001600160a01b03169083908381818185875af1925050503d80600081146104f5576040519150601f19603f3d011682016040523d82523d6000602084013e6104fa565b606091505b505090508061051c57604051631227624b60e11b815260040160405180910390fd5b50505b6006546002546000916001600160a01b0316906064906105489062010000900460ff1685612113565b610552919061212a565b604051600081818185875af1925050503d806000811461058e576040519150601f19603f3d011682016040523d82523d6000602084013e610593565b606091505b50509050806105b557604051631227624b60e11b815260040160405180910390fd5b60405142907f5b64f7990ec4169ec43e750ea74cd6e76bbbd2a11d79841622bdda84ba9d561e90600090a25050506105ec60018055565b565b6105f6611688565b6009839055600a829055600b81905560408051848152602081018490529081018290527fb2efb0aa6e279553a1e5567ebb495d322192aa43c5fc3073cba4601d52009ab49060600160405180910390a1505050565b6002805460055460009283928392839283928392839283928392839260ff600160381b8404811693610100810482169362010000820483169391831692169081111561069957610699611e9f565b6002800154600260010154600260030160019054906101000a90046001600160a01b0316600260040160009054906101000a90046001600160a01b03167f0000000000000000000000000000000000000000000000000000000000000000995099509950995099509950995099509950995090919293949596979899565b846009548110801561072a5750600a5481115b15610748576040516305f7ed2b60e21b815260040160405180910390fd5b61075061162f565b6001600160a01b0387166107975760405162461bcd60e51b815260206004820152600e60248201526d125b9d985b1a59081dd85b1b195d60921b6044820152606401610443565b600061084f87336040516d2fafb1b7b73b32b939b4b7b724b760911b6020820152602e8101929092526bffffffffffffffffffffffff19606091821b8116604e840152606283018a90523090911b1660828201526096015b60408051601f1981840301815282825280516020918201207f19457468657265756d205369676e6564204d6573736167653a0a33320000000084830152603c8085019190915282518085039091018152605c909301909152815191012090565b60075460408051600081526020810180835284905260ff89169181019190915260608101879052608081018690529192506001600160a01b03169060019060a0016020604051602081039080840390855afa1580156108b2573d6000803e3d6000fd5b505050602060405103516001600160a01b0316146108e3576040516329e8166f60e21b815260040160405180910390fd5b60008181526008602052604090205460ff16156109135760405163333a6a0960e21b815260040160405180910390fd5b600081815260086020908152604091829020805460ff19166001179055600b5482516318160ddd60e01b8152925190928a926001600160a01b037f000000000000000000000000000000000000000000000000000000000000000016926318160ddd9260048082019392918290030181865afa158015610997573d6000803e3d6000fd5b505050506040513d601f19601f820116820180604052508101906109bb919061214c565b6109c59190612165565b1115610a045760405162461bcd60e51b815260206004820152600e60248201526d125b9d985b1a5908105b5bdd5b9d60921b6044820152606401610443565b600254600160381b900460ff1615610d8657600260055460ff166002811115610a2f57610a2f611e9f565b03610b5857610a3c6116e2565b60007f00000000000000000000000000000000000000000000000000000000000000006001600160a01b03167f40c10f19c047ae7dfa66d6312b683d2ea3dfbcb4159e96b967c5f4b0a86f28428a8a604051602401610ab09291906001600160a01b03929092168252602082015260400190565b60408051601f198184030181529181526020820180516001600160e01b03166001600160e01b0319909416939093179092529051610aee9190612178565b6000604051808303816000865af19150503d8060008114610b2b576040519150601f19603f3d011682016040523d82523d6000602084013e610b30565b606091505b5050905080610b5257604051630e13b08160e21b815260040160405180910390fd5b50610e9e565b6040805130602482015260448082018a905282518083039091018152606490910182526020810180516001600160e01b03166340c10f1960e01b17905290516000916001600160a01b037f00000000000000000000000000000000000000000000000000000000000000001691610bcf9190612178565b6000604051808303816000865af19150503d8060008114610c0c576040519150601f19603f3d011682016040523d82523d6000602084013e610c11565b606091505b5050905080610c335760405163cb57cf5560e01b815260040160405180910390fd5b610c3c88611711565b610c4690896121a7565b975087600003610c69576040516326c8b49560e21b815260040160405180910390fd5b60007f00000000000000000000000000000000000000000000000000000000000000006001600160a01b03167fa9059cbb2ab09eb219583f4a59a5d0623ade346d962bcd4e46b11da047c9049b8b8b604051602401610cdd9291906001600160a01b03929092168252602082015260400190565b60408051601f198184030181529181526020820180516001600160e01b03166001600160e01b0319909416939093179092529051610d1b9190612178565b6000604051808303816000865af19150503d8060008114610d58576040519150601f19603f3d011682016040523d82523d6000602084013e610d5d565b606091505b5050905080610d7f57604051630a7ce82760e31b815260040160405180910390fd5b5050610e9e565b60007f00000000000000000000000000000000000000000000000000000000000000006001600160a01b03167f40c10f19c047ae7dfa66d6312b683d2ea3dfbcb4159e96b967c5f4b0a86f28428a8a604051602401610dfa9291906001600160a01b03929092168252602082015260400190565b60408051601f198184030181529181526020820180516001600160e01b03166001600160e01b0319909416939093179092529051610e389190612178565b6000604051808303816000865af19150503d8060008114610e75576040519150601f19603f3d011682016040523d82523d6000602084013e610e7a565b606091505b5050905080610e9c57604051630e13b08160e21b815260040160405180910390fd5b505b60408051878152602081018990526001600160a01b038a16917f62a9b3e6446ab559d6b82c4f02cc923cd3b4e47444ef86446dab81a4d781c5af910160405180910390a250610eec60018055565b50505050505050565b610efd611688565b6105ec600061197f565b610f0f611688565b6001600160a01b038116610f365760405163d92e233d60e01b815260040160405180910390fd5b6006546040516001600160a01b038084169216907f62904549814f5511a5d36a62611a6e2fe1d2c29b6de74de25d95395e0a7d009b90600090a3600680546001600160a01b0319166001600160a01b0392909216919091179055565b610f9a611688565b60025487906301000000900463ffffffff1660ff82161115610fcf57604051633abd651d60e21b815260040160405180910390fd5b89896064610fdd82846121ba565b60ff161461100b57604051638efe3fd560e01b815260ff808416600483015282166024820152604401610443565b600254600160381b900460ff16611030576002805460ff60381b1916600160381b1790555b6110418a8d8d8c8c8c8c8c8c6119cf565b604080518e1515815260ff8c811660208301528e8116828401528d16606082015263ffffffff8b16608082015260a081018a905260c0810189905260e081018890526001600160a01b0387811661010083015286166101208201524261014082015290517f2318e6ca297fb62ee2d9dcaf35e332a8ccd6f45099aa2dbfe98d981a13b27846918190036101600190a150505050505050505050505050565b6110e7611688565b6001600160a01b03811661110e5760405163d92e233d60e01b815260040160405180910390fd5b6005546040516001600160a01b0380841692610100900416907f62904549814f5511a5d36a62611a6e2fe1d2c29b6de74de25d95395e0a7d009b90600090a3600580546001600160a01b0390921661010002610100600160a81b0319909216919091179055565b84600954811080156111885750600a5481115b156111a6576040516305f7ed2b60e21b815260040160405180910390fd5b6111ae61162f565b856001600160a01b037f0000000000000000000000000000000000000000000000000000000000000000166370a08231336040516001600160e01b031960e084901b1681526001600160a01b039091166004820152602401602060405180830381865afa158015611223573d6000803e3d6000fd5b505050506040513d601f19601f82011682018060405250810190611247919061214c565b10156112665760405163569d45cf60e11b815260040160405180910390fd5b60006112c387336040516e17d7d8dbdb9d995c9cda5bdb93dd5d608a1b6020820152602f8101929092526bffffffffffffffffffffffff19606091821b8116604f840152606383018a90523090911b1660838201526097016107ef565b60075460408051600081526020810180835284905260ff89169181019190915260608101879052608081018690529192506001600160a01b03169060019060a0016020604051602081039080840390855afa158015611326573d6000803e3d6000fd5b505050602060405103516001600160a01b031614611357576040516329e8166f60e21b815260040160405180910390fd5b60008181526008602052604090205460ff16156113875760405163333a6a0960e21b815260040160405180910390fd5b6000818152600860205260409020805460ff19166001179055600254600160381b900460ff16156113f357600260055460ff1660028111156113cb576113cb611e9f565b036113dd576113d86116e2565b6113f3565b6113e687611b4c565b6113f090886121a7565b96505b6040805133602482015260448082018a905282518083039091018152606490910182526020810180516001600160e01b031663079cc67960e41b17905290516000916001600160a01b037f0000000000000000000000000000000000000000000000000000000000000000169161146a9190612178565b6000604051808303816000865af19150503d80600081146114a7576040519150601f19603f3d011682016040523d82523d6000602084013e6114ac565b606091505b50509050806114ce57604051630e13b08160e21b815260040160405180910390fd5b60408051888152602081018a905233917fb999b06746a947f1958636b9b9377ae814fe578413dfffd4d3a7a96196fe02fc910160405180910390a2505061151460018055565b505050505050565b611524611688565b6002805460ff60381b19169055565b61153b611688565b6001600160a01b0381166115625760405163d92e233d60e01b815260040160405180910390fd5b600780546001600160a01b0319166001600160a01b0383169081179091556040519081527f08f53e6a9fbc3949bc0b9266bbe1927f0b282a34d92876ccbe188c24d17c6cbb9060200160405180910390a150565b6115be611688565b6001600160a01b0381166116235760405162461bcd60e51b815260206004820152602660248201527f4f776e61626c653a206e6577206f776e657220697320746865207a65726f206160448201526564647265737360d01b6064820152608401610443565b61162c8161197f565b50565b6002600154036116815760405162461bcd60e51b815260206004820152601f60248201527f5265656e7472616e637947756172643a207265656e7472616e742063616c6c006044820152606401610443565b6002600155565b6000546001600160a01b031633146105ec5760405162461bcd60e51b815260206004820181905260248201527f4f776e61626c653a2063616c6c6572206973206e6f7420746865206f776e65726044820152606401610443565b60035434146105ec5760035460405163f744231960e01b81523460048201526024810191909152604401610443565b600080600061171f84611d2e565b600554919350915061010090046001600160a01b0316158015906117435750818114155b1561186c576005546000906001600160a01b037f00000000000000000000000000000000000000000000000000000000000000008116917fa9059cbb2ab09eb219583f4a59a5d0623ade346d962bcd4e46b11da047c9049b91610100909104166117ad86866121a7565b6040516001600160a01b039092166024830152604482015260640160408051601f198184030181529181526020820180516001600160e01b03166001600160e01b03199094169390931790925290516118069190612178565b6000604051808303816000865af19150503d8060008114611843576040519150601f19603f3d011682016040523d82523d6000602084013e611848565b606091505b505090508061186a5760405163d291274f60e01b815260040160405180910390fd5b505b6006546040516001600160a01b039182166024820152604481018490526000917f000000000000000000000000000000000000000000000000000000000000000016907fa9059cbb2ab09eb219583f4a59a5d0623ade346d962bcd4e46b11da047c9049b906064015b60408051601f198184030181529181526020820180516001600160e01b03166001600160e01b03199094169390931790925290516119139190612178565b6000604051808303816000865af19150503d8060008114611950576040519150601f19603f3d011682016040523d82523d6000602084013e611955565b606091505b50509050806119775760405163d291274f60e01b815260040160405180910390fd5b509392505050565b600080546001600160a01b038381166001600160a01b0319831681178455604051919092169283917f8be0079c531659141344cd1fd0a4f28419497f9722a3daafe3b4186f6b6457e09190a35050565b60025460ff89811661010090920416146119f8576002805461ff00191661010060ff8b16021790555b60025460ff888116620100009092041614611a24576002805462ff000019166201000060ff8a16021790555b84158015611a35575060008960ff16115b15611a7d576002805466ffffffff0000ff1916630100000063ffffffff89160260ff199081169190911760ff8c161790915560058054600092166001835b0217905550611abf565b84600103611a9d576004849055600580546001919060ff19168280611a73565b8215611abf57611aac83611e06565b60038390556005805460ff191660021790555b6005546001600160a01b038381166101009092041614611afa5760058054610100600160a81b0319166101006001600160a01b038516021790555b6006546001600160a01b03828116911614801590611b2057506001600160a01b03811615155b15611b4157600680546001600160a01b0319166001600160a01b0383161790555b505050505050505050565b6000806000611b5a84611d2e565b600554919350915061010090046001600160a01b031615801590611b7e5750818114155b15611cb45760006001600160a01b037f0000000000000000000000000000000000000000000000000000000000000000167f23b872dd7302113369cda2901243429419bec145408fa8b352b3dd92b66c680b3360055461010090046001600160a01b0316611bec87876121a7565b6040516001600160a01b039384166024820152929091166044830152606482015260840160408051601f198184030181529181526020820180516001600160e01b03166001600160e01b0319909416939093179092529051611c4e9190612178565b6000604051808303816000865af19150503d8060008114611c8b576040519150601f19603f3d011682016040523d82523d6000602084013e611c90565b606091505b5050905080611cb25760405163d291274f60e01b815260040160405180910390fd5b505b60006001600160a01b037f0000000000000000000000000000000000000000000000000000000000000000167f23b872dd7302113369cda2901243429419bec145408fa8b352b3dd92b66c680b336006546040516001600160a01b03928316602482015291166044820152606481018690526084016118d5565b6000808060055460ff166002811115611d4957611d49611e9f565b03611d8d5760025460009063ffffffff630100000082041690611d6f9060ff1686612113565b611d79919061212a565b9050611d8481611e47565b94909350915050565b600160055460ff166002811115611da657611da6611e9f565b03611dc457600454611db790611e47565b6004549094909350915050565b600260055460ff166002811115611ddd57611ddd611e9f565b03611dfb57600354611dee90611e47565b6003549094909350915050565b506000928392509050565b7f000000000000000000000000000000000000000000000000000000000000000081111561162c5760405163dd27e1db60e01b815260040160405180910390fd5b600254600090606490611e639062010000900460ff1684612113565b611e6d919061212a565b92915050565b600080600060608486031215611e8857600080fd5b505081359360208301359350604090920135919050565b634e487b7160e01b600052602160045260246000fd5b60ff8b811682528a811660208301528916604082015263ffffffff88166060820152861515608082015260a0810186905260c08101859052610140810160038510611f1057634e487b7160e01b600052602160045260246000fd5b8460e0830152611f2c6101008301856001600160a01b03169052565b6001600160a01b0383166101208301529b9a5050505050505050505050565b6001600160a01b038116811461162c57600080fd5b803560ff81168114611f7157600080fd5b919050565b60008060008060008060c08789031215611f8f57600080fd5b8635611f9a81611f4b565b95506020870135945060408701359350611fb660608801611f60565b92506080870135915060a087013590509295509295509295565b600060208284031215611fe257600080fd5b8135611fed81611f4b565b9392505050565b8035611f7181611f4b565b6000806000806000806000806000806101408b8d03121561201f57600080fd5b8a35801515811461202f57600080fd5b995061203d60208c01611f60565b985061204b60408c01611f60565b975061205960608c01611f60565b965060808b013563ffffffff8116811461207257600080fd5b955060a08b0135945060c08b0135935060e08b013592506120966101008c01611ff4565b91506120a56101208c01611ff4565b90509295989b9194979a5092959850565b600080600080600060a086880312156120ce57600080fd5b85359450602086013593506120e560408701611f60565b94979396509394606081013594506080013592915050565b634e487b7160e01b600052601160045260246000fd5b8082028115828204841417611e6d57611e6d6120fd565b60008261214757634e487b7160e01b600052601260045260246000fd5b500490565b60006020828403121561215e57600080fd5b5051919050565b80820180821115611e6d57611e6d6120fd565b6000825160005b81811015612199576020818601810151858301520161217f565b506000920191825250919050565b81810381811115611e6d57611e6d6120fd565b60ff8181168382160190811115611e6d57611e6d6120fd56fea2646970667358221220165e0ddb397c6972ab3bac0bd4597d0f9920015cf2c58f3fda564eb3a73d89dc64736f6c63430008130033","opcodes":"PUSH1 0xC0 PUSH1 0x40 MSTORE CALLVALUE DUP1 ISZERO PUSH3 0x11 JUMPI PUSH1 0x0 DUP1 REVERT JUMPDEST POP PUSH1 0x40 MLOAD PUSH3 0x27F6 CODESIZE SUB DUP1 PUSH3 0x27F6 DUP4 CODECOPY DUP2 ADD PUSH1 0x40 DUP2 SWAP1 MSTORE PUSH3 0x34 SWAP2 PUSH3 0x472 JUMP JUMPDEST DUP12 DUP12 DUP12 DUP12 DUP12 DUP12 DUP12 DUP12 DUP12 DUP12 DUP12 DUP12 PUSH3 0x4B CALLER PUSH3 0x222 JUMP JUMPDEST PUSH1 0x1 DUP1 SSTORE PUSH1 0x2 SLOAD DUP11 SWAP1 PUSH4 0x1000000 SWAP1 DIV PUSH4 0xFFFFFFFF AND PUSH1 0xFF DUP3 AND GT ISZERO PUSH3 0x85 JUMPI PUSH1 0x40 MLOAD PUSH4 0x3ABD651D PUSH1 0xE2 SHL DUP2 MSTORE PUSH1 0x4 ADD PUSH1 0x40 MLOAD DUP1 SWAP2 SUB SWAP1 REVERT JUMPDEST DUP10 DUP10 PUSH1 0x64 PUSH3 0x95 DUP3 DUP5 PUSH3 0x54C JUMP JUMPDEST PUSH1 0xFF AND EQ PUSH3 0xC8 JUMPI PUSH1 0x40 MLOAD PUSH4 0x8EFE3FD5 PUSH1 0xE0 SHL DUP2 MSTORE PUSH1 0xFF DUP1 DUP5 AND PUSH1 0x4 DUP4 ADD MSTORE DUP3 AND PUSH1 0x24 DUP3 ADD MSTORE PUSH1 0x44 ADD PUSH1 0x40 MLOAD DUP1 SWAP2 SUB SWAP1 REVERT JUMPDEST PUSH1 0x1 PUSH1 0x1 PUSH1 0xA0 SHL SUB DUP16 AND PUSH1 0xA0 MSTORE PUSH1 0x80 DUP8 SWAP1 MSTORE DUP14 ISZERO PUSH3 0x1BA JUMPI PUSH1 0x2 DUP1 SLOAD PUSH1 0xFF PUSH1 0x38 SHL NOT AND PUSH8 0x100000000000000 OR SWAP1 SSTORE PUSH3 0x10B DUP14 DUP14 DUP14 DUP14 DUP14 DUP12 DUP15 DUP13 DUP13 PUSH3 0x272 JUMP JUMPDEST PUSH32 0x2318E6CA297FB62EE2D9DCAF35E332A8CCD6F45099AA2DBFE98D981A13B27846 DUP15 DUP15 DUP15 DUP15 DUP15 DUP15 DUP13 DUP16 DUP14 DUP14 TIMESTAMP PUSH1 0x40 MLOAD PUSH3 0x1B1 SWAP12 SWAP11 SWAP10 SWAP9 SWAP8 SWAP7 SWAP6 SWAP5 SWAP4 SWAP3 SWAP2 SWAP1 SWAP11 ISZERO ISZERO DUP12 MSTORE PUSH1 0xFF SWAP10 DUP11 AND PUSH1 0x20 DUP13 ADD MSTORE SWAP8 DUP10 AND PUSH1 0x40 DUP12 ADD MSTORE SWAP6 SWAP1 SWAP8 AND PUSH1 0x60 DUP10 ADD MSTORE PUSH4 0xFFFFFFFF SWAP4 SWAP1 SWAP4 AND PUSH1 0x80 DUP9 ADD MSTORE PUSH1 0xA0 DUP8 ADD SWAP2 SWAP1 SWAP2 MSTORE PUSH1 0xC0 DUP7 ADD MSTORE PUSH1 0xE0 DUP6 ADD MSTORE PUSH1 0x1 PUSH1 0x1 PUSH1 0xA0 SHL SUB SWAP3 DUP4 AND PUSH2 0x100 DUP6 ADD MSTORE SWAP1 SWAP2 AND PUSH2 0x120 DUP4 ADD MSTORE PUSH2 0x140 DUP3 ADD MSTORE PUSH2 0x160 ADD SWAP1 JUMP JUMPDEST PUSH1 0x40 MLOAD DUP1 SWAP2 SUB SWAP1 LOG1 JUMPDEST POP POP POP POP POP POP POP POP POP POP POP POP POP POP POP PUSH1 0x0 PUSH1 0x1 PUSH1 0x1 PUSH1 0xA0 SHL SUB AND DUP13 PUSH1 0x1 PUSH1 0x1 PUSH1 0xA0 SHL SUB AND SUB PUSH3 0x1FD JUMPI PUSH1 0x40 MLOAD PUSH4 0xD92E233D PUSH1 0xE0 SHL DUP2 MSTORE PUSH1 0x4 ADD PUSH1 0x40 MLOAD DUP1 SWAP2 SUB SWAP1 REVERT JUMPDEST POP POP PUSH1 0x7 DUP1 SLOAD PUSH1 0x1 PUSH1 0x1 PUSH1 0xA0 SHL SUB NOT AND CALLER OR SWAP1 SSTORE POP PUSH3 0x57A SWAP9 POP POP POP POP POP POP POP POP POP JUMP JUMPDEST PUSH1 0x0 DUP1 SLOAD PUSH1 0x1 PUSH1 0x1 PUSH1 0xA0 SHL SUB DUP4 DUP2 AND PUSH1 0x1 PUSH1 0x1 PUSH1 0xA0 SHL SUB NOT DUP4 AND DUP2 OR DUP5 SSTORE PUSH1 0x40 MLOAD SWAP2 SWAP1 SWAP3 AND SWAP3 DUP4 SWAP2 PUSH32 0x8BE0079C531659141344CD1FD0A4F28419497F9722A3DAAFE3B4186F6B6457E0 SWAP2 SWAP1 LOG3 POP POP JUMP JUMPDEST PUSH1 0x2 SLOAD PUSH1 0xFF DUP10 DUP2 AND PUSH2 0x100 SWAP1 SWAP3 DIV AND EQ PUSH3 0x29C JUMPI PUSH1 0x2 DUP1 SLOAD PUSH2 0xFF00 NOT AND PUSH2 0x100 PUSH1 0xFF DUP12 AND MUL OR SWAP1 SSTORE JUMPDEST PUSH1 0x2 SLOAD PUSH1 0xFF DUP9 DUP2 AND PUSH3 0x10000 SWAP1 SWAP3 DIV AND EQ PUSH3 0x2C9 JUMPI PUSH1 0x2 DUP1 SLOAD PUSH3 0xFF0000 NOT AND PUSH3 0x10000 PUSH1 0xFF DUP11 AND MUL OR SWAP1 SSTORE JUMPDEST DUP5 ISZERO DUP1 ISZERO PUSH3 0x2DB JUMPI POP PUSH1 0x0 DUP10 PUSH1 0xFF AND GT JUMPDEST ISZERO PUSH3 0x325 JUMPI PUSH1 0x2 DUP1 SLOAD PUSH7 0xFFFFFFFF0000FF NOT AND PUSH4 0x1000000 PUSH4 0xFFFFFFFF DUP10 AND MUL PUSH1 0xFF NOT SWAP1 DUP2 AND SWAP2 SWAP1 SWAP2 OR PUSH1 0xFF DUP13 AND OR SWAP1 SWAP2 SSTORE PUSH1 0x5 DUP1 SLOAD PUSH1 0x0 SWAP3 AND PUSH1 0x1 DUP4 JUMPDEST MUL OR SWAP1 SSTORE POP PUSH3 0x36C JUMP JUMPDEST DUP5 PUSH1 0x1 SUB PUSH3 0x347 JUMPI PUSH1 0x4 DUP5 SWAP1 SSTORE PUSH1 0x5 DUP1 SLOAD PUSH1 0x1 SWAP2 SWAP1 PUSH1 0xFF NOT AND DUP3 DUP1 PUSH3 0x31A JUMP JUMPDEST DUP3 ISZERO PUSH3 0x36C JUMPI PUSH3 0x359 DUP4 PUSH3 0x3FC JUMP JUMPDEST PUSH1 0x3 DUP4 SWAP1 SSTORE PUSH1 0x5 DUP1 SLOAD PUSH1 0xFF NOT AND PUSH1 0x2 OR SWAP1 SSTORE JUMPDEST PUSH1 0x5 SLOAD PUSH1 0x1 PUSH1 0x1 PUSH1 0xA0 SHL SUB DUP4 DUP2 AND PUSH2 0x100 SWAP1 SWAP3 DIV AND EQ PUSH3 0x3A8 JUMPI PUSH1 0x5 DUP1 SLOAD PUSH2 0x100 PUSH1 0x1 PUSH1 0xA8 SHL SUB NOT AND PUSH2 0x100 PUSH1 0x1 PUSH1 0x1 PUSH1 0xA0 SHL SUB DUP6 AND MUL OR SWAP1 SSTORE JUMPDEST PUSH1 0x6 SLOAD PUSH1 0x1 PUSH1 0x1 PUSH1 0xA0 SHL SUB DUP3 DUP2 AND SWAP2 AND EQ DUP1 ISZERO SWAP1 PUSH3 0x3CF JUMPI POP PUSH1 0x1 PUSH1 0x1 PUSH1 0xA0 SHL SUB DUP2 AND ISZERO ISZERO JUMPDEST ISZERO PUSH3 0x3F1 JUMPI PUSH1 0x6 DUP1 SLOAD PUSH1 0x1 PUSH1 0x1 PUSH1 0xA0 SHL SUB NOT AND PUSH1 0x1 PUSH1 0x1 PUSH1 0xA0 SHL SUB DUP4 AND OR SWAP1 SSTORE JUMPDEST POP POP POP POP POP POP POP POP POP JUMP JUMPDEST PUSH1 0x80 MLOAD DUP2 GT ISZERO PUSH3 0x420 JUMPI PUSH1 0x40 MLOAD PUSH4 0xDD27E1DB PUSH1 0xE0 SHL DUP2 MSTORE PUSH1 0x4 ADD PUSH1 0x40 MLOAD DUP1 SWAP2 SUB SWAP1 REVERT JUMPDEST POP JUMP JUMPDEST PUSH1 0x1 PUSH1 0x1 PUSH1 0xA0 SHL SUB DUP2 AND DUP2 EQ PUSH3 0x420 JUMPI PUSH1 0x0 DUP1 REVERT JUMPDEST DUP1 MLOAD PUSH1 0xFF DUP2 AND DUP2 EQ PUSH3 0x44B JUMPI PUSH1 0x0 DUP1 REVERT JUMPDEST SWAP2 SWAP1 POP JUMP JUMPDEST DUP1 MLOAD PUSH4 0xFFFFFFFF DUP2 AND DUP2 EQ PUSH3 0x44B JUMPI PUSH1 0x0 DUP1 REVERT JUMPDEST DUP1 MLOAD PUSH3 0x44B DUP2 PUSH3 0x423 JUMP JUMPDEST PUSH1 0x0 DUP1 PUSH1 0x0 DUP1 PUSH1 0x0 DUP1 PUSH1 0x0 DUP1 PUSH1 0x0 DUP1 PUSH1 0x0 DUP1 PUSH2 0x180 DUP14 DUP16 SUB SLT ISZERO PUSH3 0x496 JUMPI PUSH1 0x0 DUP1 REVERT JUMPDEST DUP13 MLOAD PUSH3 0x4A3 DUP2 PUSH3 0x423 JUMP JUMPDEST PUSH1 0x20 DUP15 ADD MLOAD SWAP1 SWAP13 POP DUP1 ISZERO ISZERO DUP2 EQ PUSH3 0x4BA JUMPI PUSH1 0x0 DUP1 REVERT JUMPDEST SWAP11 POP PUSH3 0x4CA PUSH1 0x40 DUP15 ADD PUSH3 0x439 JUMP JUMPDEST SWAP10 POP PUSH3 0x4DA PUSH1 0x60 DUP15 ADD PUSH3 0x439 JUMP JUMPDEST SWAP9 POP PUSH3 0x4EA PUSH1 0x80 DUP15 ADD PUSH3 0x439 JUMP JUMPDEST SWAP8 POP PUSH3 0x4FA PUSH1 0xA0 DUP15 ADD PUSH3 0x450 JUMP JUMPDEST SWAP7 POP PUSH1 0xC0 DUP14 ADD MLOAD SWAP6 POP PUSH1 0xE0 DUP14 ADD MLOAD SWAP5 POP PUSH2 0x100 DUP14 ADD MLOAD SWAP4 POP PUSH2 0x120 DUP14 ADD MLOAD SWAP3 POP PUSH3 0x529 PUSH2 0x140 DUP15 ADD PUSH3 0x465 JUMP JUMPDEST SWAP2 POP PUSH3 0x53A PUSH2 0x160 DUP15 ADD PUSH3 0x465 JUMP JUMPDEST SWAP1 POP SWAP3 SWAP6 SWAP9 SWAP12 POP SWAP3 SWAP6 SWAP9 SWAP12 POP SWAP3 SWAP6 SWAP9 SWAP12 JUMP JUMPDEST PUSH1 0xFF DUP2 DUP2 AND DUP4 DUP3 AND ADD SWAP1 DUP2 GT ISZERO PUSH3 0x574 JUMPI PUSH4 0x4E487B71 PUSH1 0xE0 SHL PUSH1 0x0 MSTORE PUSH1 0x11 PUSH1 0x4 MSTORE PUSH1 0x24 PUSH1 0x0 REVERT JUMPDEST SWAP3 SWAP2 POP POP JUMP JUMPDEST PUSH1 0x80 MLOAD PUSH1 0xA0 MLOAD PUSH2 0x2209 PUSH3 0x5ED PUSH1 0x0 CODECOPY PUSH1 0x0 DUP2 DUP2 PUSH2 0x6D8 ADD MSTORE DUP2 DUP2 PUSH2 0x94F ADD MSTORE DUP2 DUP2 PUSH2 0xA40 ADD MSTORE DUP2 DUP2 PUSH2 0xBA4 ADD MSTORE DUP2 DUP2 PUSH2 0xC6D ADD MSTORE DUP2 DUP2 PUSH2 0xD8A ADD MSTORE DUP2 DUP2 PUSH2 0x11B9 ADD MSTORE DUP2 DUP2 PUSH2 0x143F ADD MSTORE DUP2 DUP2 PUSH2 0x1758 ADD MSTORE DUP2 DUP2 PUSH2 0x188E ADD MSTORE DUP2 DUP2 PUSH2 0x1B8F ADD MSTORE PUSH2 0x1CC0 ADD MSTORE PUSH1 0x0 PUSH2 0x1E08 ADD MSTORE PUSH2 0x2209 PUSH1 0x0 RETURN INVALID PUSH1 0x80 PUSH1 0x40 MSTORE PUSH1 0x4 CALLDATASIZE LT PUSH2 0xFE JUMPI PUSH1 0x0 CALLDATALOAD PUSH1 0xE0 SHR DUP1 PUSH4 0x8DA5CB5B GT PUSH2 0x95 JUMPI DUP1 PUSH4 0xB26E099F GT PUSH2 0x64 JUMPI DUP1 PUSH4 0xB26E099F EQ PUSH2 0x33D JUMPI DUP1 PUSH4 0xC72304AC EQ PUSH2 0x352 JUMPI DUP1 PUSH4 0xE0A66578 EQ PUSH2 0x370 JUMPI DUP1 PUSH4 0xF2FDE38B EQ PUSH2 0x390 JUMPI DUP1 PUSH4 0xFEEA1529 EQ PUSH2 0x3B0 JUMPI PUSH1 0x0 DUP1 REVERT JUMPDEST DUP1 PUSH4 0x8DA5CB5B EQ PUSH2 0x2A0 JUMPI DUP1 PUSH4 0x94ACA02A EQ PUSH2 0x2D2 JUMPI DUP1 PUSH4 0x9CB71686 EQ PUSH2 0x2F2 JUMPI DUP1 PUSH4 0x9F23C9E2 EQ PUSH2 0x32A JUMPI PUSH1 0x0 DUP1 REVERT JUMPDEST DUP1 PUSH4 0x6A02FCC4 GT PUSH2 0xD1 JUMPI DUP1 PUSH4 0x6A02FCC4 EQ PUSH2 0x238 JUMPI DUP1 PUSH4 0x715018A6 EQ PUSH2 0x24B JUMPI DUP1 PUSH4 0x7C522D28 EQ PUSH2 0x260 JUMPI DUP1 PUSH4 0x894F9D19 EQ PUSH2 0x280 JUMPI PUSH1 0x0 DUP1 REVERT JUMPDEST DUP1 PUSH4 0x37C15626 EQ PUSH2 0x103 JUMPI DUP1 PUSH4 0x529C0970 EQ PUSH2 0x11A JUMPI DUP1 PUSH4 0x5531E774 EQ PUSH2 0x13A JUMPI DUP1 PUSH4 0x58A93688 EQ PUSH2 0x1C3 JUMPI JUMPDEST PUSH1 0x0 DUP1 REVERT JUMPDEST CALLVALUE DUP1 ISZERO PUSH2 0x10F JUMPI PUSH1 0x0 DUP1 REVERT JUMPDEST POP PUSH2 0x118 PUSH2 0x3E1 JUMP JUMPDEST STOP JUMPDEST CALLVALUE DUP1 ISZERO PUSH2 0x126 JUMPI PUSH1 0x0 DUP1 REVERT JUMPDEST POP PUSH2 0x118 PUSH2 0x135 CALLDATASIZE PUSH1 0x4 PUSH2 0x1E73 JUMP JUMPDEST PUSH2 0x5EE JUMP JUMPDEST CALLVALUE DUP1 ISZERO PUSH2 0x146 JUMPI PUSH1 0x0 DUP1 REVERT JUMPDEST POP PUSH1 0x2 SLOAD PUSH1 0x3 SLOAD PUSH1 0x4 SLOAD PUSH1 0x5 SLOAD PUSH1 0x6 SLOAD PUSH2 0x1A4 SWAP5 PUSH1 0xFF DUP1 DUP3 AND SWAP6 PUSH2 0x100 DUP1 DUP5 DIV DUP4 AND SWAP7 PUSH3 0x10000 DUP6 DIV DUP5 AND SWAP7 PUSH4 0xFFFFFFFF PUSH4 0x1000000 DUP8 DIV AND SWAP7 PUSH1 0x1 PUSH1 0x38 SHL SWAP1 SWAP7 DIV DUP6 AND SWAP6 SWAP4 SWAP5 SWAP2 SWAP4 SWAP2 DUP2 AND SWAP3 PUSH1 0x1 PUSH1 0x1 PUSH1 0xA0 SHL SUB SWAP2 DIV DUP2 AND SWAP2 AND DUP11 JUMP JUMPDEST PUSH1 0x40 MLOAD PUSH2 0x1BA SWAP11 SWAP10 SWAP9 SWAP8 SWAP7 SWAP6 SWAP5 SWAP4 SWAP3 SWAP2 SWAP1 PUSH2 0x1EB5 JUMP JUMPDEST PUSH1 0x40 MLOAD DUP1 SWAP2 SUB SWAP1 RETURN JUMPDEST CALLVALUE DUP1 ISZERO PUSH2 0x1CF JUMPI PUSH1 0x0 DUP1 REVERT JUMPDEST POP PUSH2 0x1D8 PUSH2 0x64B JUMP JUMPDEST PUSH1 0x40 DUP1 MLOAD SWAP11 ISZERO ISZERO DUP12 MSTORE PUSH1 0xFF SWAP10 DUP11 AND PUSH1 0x20 DUP13 ADD MSTORE SWAP8 DUP10 AND SWAP8 DUP11 ADD SWAP8 SWAP1 SWAP8 MSTORE SWAP5 SWAP1 SWAP7 AND PUSH1 0x60 DUP9 ADD MSTORE PUSH1 0x80 DUP8 ADD SWAP3 SWAP1 SWAP3 MSTORE PUSH1 0xA0 DUP7 ADD MSTORE PUSH1 0xC0 DUP6 ADD MSTORE PUSH1 0x1 PUSH1 0x1 PUSH1 0xA0 SHL SUB SWAP3 DUP4 AND PUSH1 0xE0 DUP6 ADD MSTORE DUP3 AND PUSH2 0x100 DUP5 ADD MSTORE AND PUSH2 0x120 DUP3 ADD MSTORE PUSH2 0x140 ADD PUSH2 0x1BA JUMP JUMPDEST PUSH2 0x118 PUSH2 0x246 CALLDATASIZE PUSH1 0x4 PUSH2 0x1F76 JUMP JUMPDEST PUSH2 0x717 JUMP JUMPDEST CALLVALUE DUP1 ISZERO PUSH2 0x257 JUMPI PUSH1 0x0 DUP1 REVERT JUMPDEST POP PUSH2 0x118 PUSH2 0xEF5 JUMP JUMPDEST CALLVALUE DUP1 ISZERO PUSH2 0x26C JUMPI PUSH1 0x0 DUP1 REVERT JUMPDEST POP PUSH2 0x118 PUSH2 0x27B CALLDATASIZE PUSH1 0x4 PUSH2 0x1FD0 JUMP JUMPDEST PUSH2 0xF07 JUMP JUMPDEST CALLVALUE DUP1 ISZERO PUSH2 0x28C JUMPI PUSH1 0x0 DUP1 REVERT JUMPDEST POP PUSH2 0x118 PUSH2 0x29B CALLDATASIZE PUSH1 0x4 PUSH2 0x1FFF JUMP JUMPDEST PUSH2 0xF92 JUMP JUMPDEST CALLVALUE DUP1 ISZERO PUSH2 0x2AC JUMPI PUSH1 0x0 DUP1 REVERT JUMPDEST POP PUSH1 0x0 SLOAD PUSH1 0x1 PUSH1 0x1 PUSH1 0xA0 SHL SUB AND JUMPDEST PUSH1 0x40 MLOAD PUSH1 0x1 PUSH1 0x1 PUSH1 0xA0 SHL SUB SWAP1 SWAP2 AND DUP2 MSTORE PUSH1 0x20 ADD PUSH2 0x1BA JUMP JUMPDEST CALLVALUE DUP1 ISZERO PUSH2 0x2DE JUMPI PUSH1 0x0 DUP1 REVERT JUMPDEST POP PUSH2 0x118 PUSH2 0x2ED CALLDATASIZE PUSH1 0x4 PUSH2 0x1FD0 JUMP JUMPDEST PUSH2 0x10DF JUMP JUMPDEST CALLVALUE DUP1 ISZERO PUSH2 0x2FE JUMPI PUSH1 0x0 DUP1 REVERT JUMPDEST POP PUSH1 0x5 SLOAD PUSH1 0x6 SLOAD PUSH1 0x40 DUP1 MLOAD PUSH2 0x100 SWAP1 SWAP4 DIV PUSH1 0x1 PUSH1 0x1 PUSH1 0xA0 SHL SUB SWAP1 DUP2 AND DUP5 MSTORE SWAP1 SWAP2 AND PUSH1 0x20 DUP4 ADD MSTORE ADD PUSH2 0x1BA JUMP JUMPDEST PUSH2 0x118 PUSH2 0x338 CALLDATASIZE PUSH1 0x4 PUSH2 0x20B6 JUMP JUMPDEST PUSH2 0x1175 JUMP JUMPDEST CALLVALUE DUP1 ISZERO PUSH2 0x349 JUMPI PUSH1 0x0 DUP1 REVERT JUMPDEST POP PUSH2 0x118 PUSH2 0x151C JUMP JUMPDEST CALLVALUE DUP1 ISZERO PUSH2 0x35E JUMPI PUSH1 0x0 DUP1 REVERT JUMPDEST POP PUSH1 0x7 SLOAD PUSH1 0x1 PUSH1 0x1 PUSH1 0xA0 SHL SUB AND PUSH2 0x2BA JUMP JUMPDEST CALLVALUE DUP1 ISZERO PUSH2 0x37C JUMPI PUSH1 0x0 DUP1 REVERT JUMPDEST POP PUSH2 0x118 PUSH2 0x38B CALLDATASIZE PUSH1 0x4 PUSH2 0x1FD0 JUMP JUMPDEST PUSH2 0x1533 JUMP JUMPDEST CALLVALUE DUP1 ISZERO PUSH2 0x39C JUMPI PUSH1 0x0 DUP1 REVERT JUMPDEST POP PUSH2 0x118 PUSH2 0x3AB CALLDATASIZE PUSH1 0x4 PUSH2 0x1FD0 JUMP JUMPDEST PUSH2 0x15B6 JUMP JUMPDEST CALLVALUE DUP1 ISZERO PUSH2 0x3BC JUMPI PUSH1 0x0 DUP1 REVERT JUMPDEST POP PUSH1 0x9 SLOAD PUSH1 0xA SLOAD PUSH1 0xB SLOAD PUSH1 0x40 DUP1 MLOAD SWAP4 DUP5 MSTORE PUSH1 0x20 DUP5 ADD SWAP3 SWAP1 SWAP3 MSTORE SWAP1 DUP3 ADD MSTORE PUSH1 0x60 ADD PUSH2 0x1BA JUMP JUMPDEST PUSH2 0x3E9 PUSH2 0x162F JUMP JUMPDEST CALLER PUSH1 0x5 SLOAD PUSH2 0x100 SWAP1 DIV PUSH1 0x1 PUSH1 0x1 PUSH1 0xA0 SHL SUB AND CALLER PUSH1 0x1 PUSH1 0x1 PUSH1 0xA0 SHL SUB AND EQ ISZERO DUP1 ISZERO PUSH2 0x427 JUMPI POP PUSH1 0x6 SLOAD PUSH1 0x1 PUSH1 0x1 PUSH1 0xA0 SHL SUB AND CALLER PUSH1 0x1 PUSH1 0x1 PUSH1 0xA0 SHL SUB AND EQ ISZERO JUMPDEST ISZERO PUSH2 0x44C JUMPI PUSH1 0x40 MLOAD PUSH4 0xF287A3F PUSH1 0xE0 SHL DUP2 MSTORE CALLER PUSH1 0x4 DUP3 ADD MSTORE PUSH1 0x24 ADD JUMPDEST PUSH1 0x40 MLOAD DUP1 SWAP2 SUB SWAP1 REVERT JUMPDEST SELFBALANCE PUSH1 0x5 SLOAD PUSH2 0x100 SWAP1 DIV PUSH1 0x1 PUSH1 0x1 PUSH1 0xA0 SHL SUB AND ISZERO DUP1 ISZERO SWAP1 PUSH2 0x475 JUMPI POP PUSH1 0x2 SLOAD PUSH2 0x100 SWAP1 DIV PUSH1 0xFF AND ISZERO ISZERO JUMPDEST ISZERO PUSH2 0x51F JUMPI PUSH1 0x2 SLOAD PUSH1 0x0 SWAP1 PUSH1 0x64 SWAP1 PUSH2 0x495 SWAP1 PUSH2 0x100 SWAP1 DIV PUSH1 0xFF AND DUP5 PUSH2 0x2113 JUMP JUMPDEST PUSH2 0x49F SWAP2 SWAP1 PUSH2 0x212A JUMP JUMPDEST PUSH1 0x5 SLOAD PUSH1 0x40 MLOAD SWAP2 SWAP3 POP PUSH1 0x0 SWAP2 PUSH2 0x100 SWAP1 SWAP2 DIV PUSH1 0x1 PUSH1 0x1 PUSH1 0xA0 SHL SUB AND SWAP1 DUP4 SWAP1 DUP4 DUP2 DUP2 DUP2 DUP6 DUP8 GAS CALL SWAP3 POP POP POP RETURNDATASIZE DUP1 PUSH1 0x0 DUP2 EQ PUSH2 0x4F5 JUMPI PUSH1 0x40 MLOAD SWAP2 POP PUSH1 0x1F NOT PUSH1 0x3F RETURNDATASIZE ADD AND DUP3 ADD PUSH1 0x40 MSTORE RETURNDATASIZE DUP3 MSTORE RETURNDATASIZE PUSH1 0x0 PUSH1 0x20 DUP5 ADD RETURNDATACOPY PUSH2 0x4FA JUMP JUMPDEST PUSH1 0x60 SWAP2 POP JUMPDEST POP POP SWAP1 POP DUP1 PUSH2 0x51C JUMPI PUSH1 0x40 MLOAD PUSH4 0x1227624B PUSH1 0xE1 SHL DUP2 MSTORE PUSH1 0x4 ADD PUSH1 0x40 MLOAD DUP1 SWAP2 SUB SWAP1 REVERT JUMPDEST POP POP JUMPDEST PUSH1 0x6 SLOAD PUSH1 0x2 SLOAD PUSH1 0x0 SWAP2 PUSH1 0x1 PUSH1 0x1 PUSH1 0xA0 SHL SUB AND SWAP1 PUSH1 0x64 SWAP1 PUSH2 0x548 SWAP1 PUSH3 0x10000 SWAP1 DIV PUSH1 0xFF AND DUP6 PUSH2 0x2113 JUMP JUMPDEST PUSH2 0x552 SWAP2 SWAP1 PUSH2 0x212A JUMP JUMPDEST PUSH1 0x40 MLOAD PUSH1 0x0 DUP2 DUP2 DUP2 DUP6 DUP8 GAS CALL SWAP3 POP POP POP RETURNDATASIZE DUP1 PUSH1 0x0 DUP2 EQ PUSH2 0x58E JUMPI PUSH1 0x40 MLOAD SWAP2 POP PUSH1 0x1F NOT PUSH1 0x3F RETURNDATASIZE ADD AND DUP3 ADD PUSH1 0x40 MSTORE RETURNDATASIZE DUP3 MSTORE RETURNDATASIZE PUSH1 0x0 PUSH1 0x20 DUP5 ADD RETURNDATACOPY PUSH2 0x593 JUMP JUMPDEST PUSH1 0x60 SWAP2 POP JUMPDEST POP POP SWAP1 POP DUP1 PUSH2 0x5B5 JUMPI PUSH1 0x40 MLOAD PUSH4 0x1227624B PUSH1 0xE1 SHL DUP2 MSTORE PUSH1 0x4 ADD PUSH1 0x40 MLOAD DUP1 SWAP2 SUB SWAP1 REVERT JUMPDEST PUSH1 0x40 MLOAD TIMESTAMP SWAP1 PUSH32 0x5B64F7990EC4169EC43E750EA74CD6E76BBBD2A11D79841622BDDA84BA9D561E SWAP1 PUSH1 0x0 SWAP1 LOG2 POP POP POP PUSH2 0x5EC PUSH1 0x1 DUP1 SSTORE JUMP JUMPDEST JUMP JUMPDEST PUSH2 0x5F6 PUSH2 0x1688 JUMP JUMPDEST PUSH1 0x9 DUP4 SWAP1 SSTORE PUSH1 0xA DUP3 SWAP1 SSTORE PUSH1 0xB DUP2 SWAP1 SSTORE PUSH1 0x40 DUP1 MLOAD DUP5 DUP2 MSTORE PUSH1 0x20 DUP2 ADD DUP5 SWAP1 MSTORE SWAP1 DUP2 ADD DUP3 SWAP1 MSTORE PUSH32 0xB2EFB0AA6E279553A1E5567EBB495D322192AA43C5FC3073CBA4601D52009AB4 SWAP1 PUSH1 0x60 ADD PUSH1 0x40 MLOAD DUP1 SWAP2 SUB SWAP1 LOG1 POP POP POP JUMP JUMPDEST PUSH1 0x2 DUP1 SLOAD PUSH1 0x5 SLOAD PUSH1 0x0 SWAP3 DUP4 SWAP3 DUP4 SWAP3 DUP4 SWAP3 DUP4 SWAP3 DUP4 SWAP3 DUP4 SWAP3 DUP4 SWAP3 DUP4 SWAP3 DUP4 SWAP3 PUSH1 0xFF PUSH1 0x1 PUSH1 0x38 SHL DUP5 DIV DUP2 AND SWAP4 PUSH2 0x100 DUP2 DIV DUP3 AND SWAP4 PUSH3 0x10000 DUP3 DIV DUP4 AND SWAP4 SWAP2 DUP4 AND SWAP3 AND SWAP1 DUP2 GT ISZERO PUSH2 0x699 JUMPI PUSH2 0x699 PUSH2 0x1E9F JUMP JUMPDEST PUSH1 0x2 DUP1 ADD SLOAD PUSH1 0x2 PUSH1 0x1 ADD SLOAD PUSH1 0x2 PUSH1 0x3 ADD PUSH1 0x1 SWAP1 SLOAD SWAP1 PUSH2 0x100 EXP SWAP1 DIV PUSH1 0x1 PUSH1 0x1 PUSH1 0xA0 SHL SUB AND PUSH1 0x2 PUSH1 0x4 ADD PUSH1 0x0 SWAP1 SLOAD SWAP1 PUSH2 0x100 EXP SWAP1 DIV PUSH1 0x1 PUSH1 0x1 PUSH1 0xA0 SHL SUB AND PUSH32 0x0 SWAP10 POP SWAP10 POP SWAP10 POP SWAP10 POP SWAP10 POP SWAP10 POP SWAP10 POP SWAP10 POP SWAP10 POP SWAP10 POP SWAP1 SWAP2 SWAP3 SWAP4 SWAP5 SWAP6 SWAP7 SWAP8 SWAP9 SWAP10 JUMP JUMPDEST DUP5 PUSH1 0x9 SLOAD DUP2 LT DUP1 ISZERO PUSH2 0x72A JUMPI POP PUSH1 0xA SLOAD DUP2 GT JUMPDEST ISZERO PUSH2 0x748 JUMPI PUSH1 0x40 MLOAD PUSH4 0x5F7ED2B PUSH1 0xE2 SHL DUP2 MSTORE PUSH1 0x4 ADD PUSH1 0x40 MLOAD DUP1 SWAP2 SUB SWAP1 REVERT JUMPDEST PUSH2 0x750 PUSH2 0x162F JUMP JUMPDEST PUSH1 0x1 PUSH1 0x1 PUSH1 0xA0 SHL SUB DUP8 AND PUSH2 0x797 JUMPI PUSH1 0x40 MLOAD PUSH3 0x461BCD PUSH1 0xE5 SHL DUP2 MSTORE PUSH1 0x20 PUSH1 0x4 DUP3 ADD MSTORE PUSH1 0xE PUSH1 0x24 DUP3 ADD MSTORE PUSH14 0x125B9D985B1A59081DD85B1B195D PUSH1 0x92 SHL PUSH1 0x44 DUP3 ADD MSTORE PUSH1 0x64 ADD PUSH2 0x443 JUMP JUMPDEST PUSH1 0x0 PUSH2 0x84F DUP8 CALLER PUSH1 0x40 MLOAD PUSH14 0x2FAFB1B7B73B32B939B4B7B724B7 PUSH1 0x91 SHL PUSH1 0x20 DUP3 ADD MSTORE PUSH1 0x2E DUP2 ADD SWAP3 SWAP1 SWAP3 MSTORE PUSH12 0xFFFFFFFFFFFFFFFFFFFFFFFF NOT PUSH1 0x60 SWAP2 DUP3 SHL DUP2 AND PUSH1 0x4E DUP5 ADD MSTORE PUSH1 0x62 DUP4 ADD DUP11 SWAP1 MSTORE ADDRESS SWAP1 SWAP2 SHL AND PUSH1 0x82 DUP3 ADD MSTORE PUSH1 0x96 ADD JUMPDEST PUSH1 0x40 DUP1 MLOAD PUSH1 0x1F NOT DUP2 DUP5 SUB ADD DUP2 MSTORE DUP3 DUP3 MSTORE DUP1 MLOAD PUSH1 0x20 SWAP2 DUP3 ADD KECCAK256 PUSH32 0x19457468657265756D205369676E6564204D6573736167653A0A333200000000 DUP5 DUP4 ADD MSTORE PUSH1 0x3C DUP1 DUP6 ADD SWAP2 SWAP1 SWAP2 MSTORE DUP3 MLOAD DUP1 DUP6 SUB SWAP1 SWAP2 ADD DUP2 MSTORE PUSH1 0x5C SWAP1 SWAP4 ADD SWAP1 SWAP2 MSTORE DUP2 MLOAD SWAP2 ADD KECCAK256 SWAP1 JUMP JUMPDEST PUSH1 0x7 SLOAD PUSH1 0x40 DUP1 MLOAD PUSH1 0x0 DUP2 MSTORE PUSH1 0x20 DUP2 ADD DUP1 DUP4 MSTORE DUP5 SWAP1 MSTORE PUSH1 0xFF DUP10 AND SWAP2 DUP2 ADD SWAP2 SWAP1 SWAP2 MSTORE PUSH1 0x60 DUP2 ADD DUP8 SWAP1 MSTORE PUSH1 0x80 DUP2 ADD DUP7 SWAP1 MSTORE SWAP2 SWAP3 POP PUSH1 0x1 PUSH1 0x1 PUSH1 0xA0 SHL SUB AND SWAP1 PUSH1 0x1 SWAP1 PUSH1 0xA0 ADD PUSH1 0x20 PUSH1 0x40 MLOAD PUSH1 0x20 DUP2 SUB SWAP1 DUP1 DUP5 SUB SWAP1 DUP6 GAS STATICCALL ISZERO DUP1 ISZERO PUSH2 0x8B2 JUMPI RETURNDATASIZE PUSH1 0x0 DUP1 RETURNDATACOPY RETURNDATASIZE PUSH1 0x0 REVERT JUMPDEST POP POP POP PUSH1 0x20 PUSH1 0x40 MLOAD SUB MLOAD PUSH1 0x1 PUSH1 0x1 PUSH1 0xA0 SHL SUB AND EQ PUSH2 0x8E3 JUMPI PUSH1 0x40 MLOAD PUSH4 0x29E8166F PUSH1 0xE2 SHL DUP2 MSTORE PUSH1 0x4 ADD PUSH1 0x40 MLOAD DUP1 SWAP2 SUB SWAP1 REVERT JUMPDEST PUSH1 0x0 DUP2 DUP2 MSTORE PUSH1 0x8 PUSH1 0x20 MSTORE PUSH1 0x40 SWAP1 KECCAK256 SLOAD PUSH1 0xFF AND ISZERO PUSH2 0x913 JUMPI PUSH1 0x40 MLOAD PUSH4 0x333A6A09 PUSH1 0xE2 SHL DUP2 MSTORE PUSH1 0x4 ADD PUSH1 0x40 MLOAD DUP1 SWAP2 SUB SWAP1 REVERT JUMPDEST PUSH1 0x0 DUP2 DUP2 MSTORE PUSH1 0x8 PUSH1 0x20 SWAP1 DUP2 MSTORE PUSH1 0x40 SWAP2 DUP3 SWAP1 KECCAK256 DUP1 SLOAD PUSH1 0xFF NOT AND PUSH1 0x1 OR SWAP1 SSTORE PUSH1 0xB SLOAD DUP3 MLOAD PUSH4 0x18160DDD PUSH1 0xE0 SHL DUP2 MSTORE SWAP3 MLOAD SWAP1 SWAP3 DUP11 SWAP3 PUSH1 0x1 PUSH1 0x1 PUSH1 0xA0 SHL SUB PUSH32 0x0 AND SWAP3 PUSH4 0x18160DDD SWAP3 PUSH1 0x4 DUP1 DUP3 ADD SWAP4 SWAP3 SWAP2 DUP3 SWAP1 SUB ADD DUP2 DUP7 GAS STATICCALL ISZERO DUP1 ISZERO PUSH2 0x997 JUMPI RETURNDATASIZE PUSH1 0x0 DUP1 RETURNDATACOPY RETURNDATASIZE PUSH1 0x0 REVERT JUMPDEST POP POP POP POP PUSH1 0x40 MLOAD RETURNDATASIZE PUSH1 0x1F NOT PUSH1 0x1F DUP3 ADD AND DUP3 ADD DUP1 PUSH1 0x40 MSTORE POP DUP2 ADD SWAP1 PUSH2 0x9BB SWAP2 SWAP1 PUSH2 0x214C JUMP JUMPDEST PUSH2 0x9C5 SWAP2 SWAP1 PUSH2 0x2165 JUMP JUMPDEST GT ISZERO PUSH2 0xA04 JUMPI PUSH1 0x40 MLOAD PUSH3 0x461BCD PUSH1 0xE5 SHL DUP2 MSTORE PUSH1 0x20 PUSH1 0x4 DUP3 ADD MSTORE PUSH1 0xE PUSH1 0x24 DUP3 ADD MSTORE PUSH14 0x125B9D985B1A5908105B5BDD5B9D PUSH1 0x92 SHL PUSH1 0x44 DUP3 ADD MSTORE PUSH1 0x64 ADD PUSH2 0x443 JUMP JUMPDEST PUSH1 0x2 SLOAD PUSH1 0x1 PUSH1 0x38 SHL SWAP1 DIV PUSH1 0xFF AND ISZERO PUSH2 0xD86 JUMPI PUSH1 0x2 PUSH1 0x5 SLOAD PUSH1 0xFF AND PUSH1 0x2 DUP2 GT ISZERO PUSH2 0xA2F JUMPI PUSH2 0xA2F PUSH2 0x1E9F JUMP JUMPDEST SUB PUSH2 0xB58 JUMPI PUSH2 0xA3C PUSH2 0x16E2 JUMP JUMPDEST PUSH1 0x0 PUSH32 0x0 PUSH1 0x1 PUSH1 0x1 PUSH1 0xA0 SHL SUB AND PUSH32 0x40C10F19C047AE7DFA66D6312B683D2EA3DFBCB4159E96B967C5F4B0A86F2842 DUP11 DUP11 PUSH1 0x40 MLOAD PUSH1 0x24 ADD PUSH2 0xAB0 SWAP3 SWAP2 SWAP1 PUSH1 0x1 PUSH1 0x1 PUSH1 0xA0 SHL SUB SWAP3 SWAP1 SWAP3 AND DUP3 MSTORE PUSH1 0x20 DUP3 ADD MSTORE PUSH1 0x40 ADD SWAP1 JUMP JUMPDEST PUSH1 0x40 DUP1 MLOAD PUSH1 0x1F NOT DUP2 DUP5 SUB ADD DUP2 MSTORE SWAP2 DUP2 MSTORE PUSH1 0x20 DUP3 ADD DUP1 MLOAD PUSH1 0x1 PUSH1 0x1 PUSH1 0xE0 SHL SUB AND PUSH1 0x1 PUSH1 0x1 PUSH1 0xE0 SHL SUB NOT SWAP1 SWAP5 AND SWAP4 SWAP1 SWAP4 OR SWAP1 SWAP3 MSTORE SWAP1 MLOAD PUSH2 0xAEE SWAP2 SWAP1 PUSH2 0x2178 JUMP JUMPDEST PUSH1 0x0 PUSH1 0x40 MLOAD DUP1 DUP4 SUB DUP2 PUSH1 0x0 DUP7 GAS CALL SWAP2 POP POP RETURNDATASIZE DUP1 PUSH1 0x0 DUP2 EQ PUSH2 0xB2B JUMPI PUSH1 0x40 MLOAD SWAP2 POP PUSH1 0x1F NOT PUSH1 0x3F RETURNDATASIZE ADD AND DUP3 ADD PUSH1 0x40 MSTORE RETURNDATASIZE DUP3 MSTORE RETURNDATASIZE PUSH1 0x0 PUSH1 0x20 DUP5 ADD RETURNDATACOPY PUSH2 0xB30 JUMP JUMPDEST PUSH1 0x60 SWAP2 POP JUMPDEST POP POP SWAP1 POP DUP1 PUSH2 0xB52 JUMPI PUSH1 0x40 MLOAD PUSH4 0xE13B081 PUSH1 0xE2 SHL DUP2 MSTORE PUSH1 0x4 ADD PUSH1 0x40 MLOAD DUP1 SWAP2 SUB SWAP1 REVERT JUMPDEST POP PUSH2 0xE9E JUMP JUMPDEST PUSH1 0x40 DUP1 MLOAD ADDRESS PUSH1 0x24 DUP3 ADD MSTORE PUSH1 0x44 DUP1 DUP3 ADD DUP11 SWAP1 MSTORE DUP3 MLOAD DUP1 DUP4 SUB SWAP1 SWAP2 ADD DUP2 MSTORE PUSH1 0x64 SWAP1 SWAP2 ADD DUP3 MSTORE PUSH1 0x20 DUP2 ADD DUP1 MLOAD PUSH1 0x1 PUSH1 0x1 PUSH1 0xE0 SHL SUB AND PUSH4 0x40C10F19 PUSH1 0xE0 SHL OR SWAP1 MSTORE SWAP1 MLOAD PUSH1 0x0 SWAP2 PUSH1 0x1 PUSH1 0x1 PUSH1 0xA0 SHL SUB PUSH32 0x0 AND SWAP2 PUSH2 0xBCF SWAP2 SWAP1 PUSH2 0x2178 JUMP JUMPDEST PUSH1 0x0 PUSH1 0x40 MLOAD DUP1 DUP4 SUB DUP2 PUSH1 0x0 DUP7 GAS CALL SWAP2 POP POP RETURNDATASIZE DUP1 PUSH1 0x0 DUP2 EQ PUSH2 0xC0C JUMPI PUSH1 0x40 MLOAD SWAP2 POP PUSH1 0x1F NOT PUSH1 0x3F RETURNDATASIZE ADD AND DUP3 ADD PUSH1 0x40 MSTORE RETURNDATASIZE DUP3 MSTORE RETURNDATASIZE PUSH1 0x0 PUSH1 0x20 DUP5 ADD RETURNDATACOPY PUSH2 0xC11 JUMP JUMPDEST PUSH1 0x60 SWAP2 POP JUMPDEST POP POP SWAP1 POP DUP1 PUSH2 0xC33 JUMPI PUSH1 0x40 MLOAD PUSH4 0xCB57CF55 PUSH1 0xE0 SHL DUP2 MSTORE PUSH1 0x4 ADD PUSH1 0x40 MLOAD DUP1 SWAP2 SUB SWAP1 REVERT JUMPDEST PUSH2 0xC3C DUP9 PUSH2 0x1711 JUMP JUMPDEST PUSH2 0xC46 SWAP1 DUP10 PUSH2 0x21A7 JUMP JUMPDEST SWAP8 POP DUP8 PUSH1 0x0 SUB PUSH2 0xC69 JUMPI PUSH1 0x40 MLOAD PUSH4 0x26C8B495 PUSH1 0xE2 SHL DUP2 MSTORE PUSH1 0x4 ADD PUSH1 0x40 MLOAD DUP1 SWAP2 SUB SWAP1 REVERT JUMPDEST PUSH1 0x0 PUSH32 0x0 PUSH1 0x1 PUSH1 0x1 PUSH1 0xA0 SHL SUB AND PUSH32 0xA9059CBB2AB09EB219583F4A59A5D0623ADE346D962BCD4E46B11DA047C9049B DUP12 DUP12 PUSH1 0x40 MLOAD PUSH1 0x24 ADD PUSH2 0xCDD SWAP3 SWAP2 SWAP1 PUSH1 0x1 PUSH1 0x1 PUSH1 0xA0 SHL SUB SWAP3 SWAP1 SWAP3 AND DUP3 MSTORE PUSH1 0x20 DUP3 ADD MSTORE PUSH1 0x40 ADD SWAP1 JUMP JUMPDEST PUSH1 0x40 DUP1 MLOAD PUSH1 0x1F NOT DUP2 DUP5 SUB ADD DUP2 MSTORE SWAP2 DUP2 MSTORE PUSH1 0x20 DUP3 ADD DUP1 MLOAD PUSH1 0x1 PUSH1 0x1 PUSH1 0xE0 SHL SUB AND PUSH1 0x1 PUSH1 0x1 PUSH1 0xE0 SHL SUB NOT SWAP1 SWAP5 AND SWAP4 SWAP1 SWAP4 OR SWAP1 SWAP3 MSTORE SWAP1 MLOAD PUSH2 0xD1B SWAP2 SWAP1 PUSH2 0x2178 JUMP JUMPDEST PUSH1 0x0 PUSH1 0x40 MLOAD DUP1 DUP4 SUB DUP2 PUSH1 0x0 DUP7 GAS CALL SWAP2 POP POP RETURNDATASIZE DUP1 PUSH1 0x0 DUP2 EQ PUSH2 0xD58 JUMPI PUSH1 0x40 MLOAD SWAP2 POP PUSH1 0x1F NOT PUSH1 0x3F RETURNDATASIZE ADD AND DUP3 ADD PUSH1 0x40 MSTORE RETURNDATASIZE DUP3 MSTORE RETURNDATASIZE PUSH1 0x0 PUSH1 0x20 DUP5 ADD RETURNDATACOPY PUSH2 0xD5D JUMP JUMPDEST PUSH1 0x60 SWAP2 POP JUMPDEST POP POP SWAP1 POP DUP1 PUSH2 0xD7F JUMPI PUSH1 0x40 MLOAD PUSH4 0xA7CE827 PUSH1 0xE3 SHL DUP2 MSTORE PUSH1 0x4 ADD PUSH1 0x40 MLOAD DUP1 SWAP2 SUB SWAP1 REVERT JUMPDEST POP POP PUSH2 0xE9E JUMP JUMPDEST PUSH1 0x0 PUSH32 0x0 PUSH1 0x1 PUSH1 0x1 PUSH1 0xA0 SHL SUB AND PUSH32 0x40C10F19C047AE7DFA66D6312B683D2EA3DFBCB4159E96B967C5F4B0A86F2842 DUP11 DUP11 PUSH1 0x40 MLOAD PUSH1 0x24 ADD PUSH2 0xDFA SWAP3 SWAP2 SWAP1 PUSH1 0x1 PUSH1 0x1 PUSH1 0xA0 SHL SUB SWAP3 SWAP1 SWAP3 AND DUP3 MSTORE PUSH1 0x20 DUP3 ADD MSTORE PUSH1 0x40 ADD SWAP1 JUMP JUMPDEST PUSH1 0x40 DUP1 MLOAD PUSH1 0x1F NOT DUP2 DUP5 SUB ADD DUP2 MSTORE SWAP2 DUP2 MSTORE PUSH1 0x20 DUP3 ADD DUP1 MLOAD PUSH1 0x1 PUSH1 0x1 PUSH1 0xE0 SHL SUB AND PUSH1 0x1 PUSH1 0x1 PUSH1 0xE0 SHL SUB NOT SWAP1 SWAP5 AND SWAP4 SWAP1 SWAP4 OR SWAP1 SWAP3 MSTORE SWAP1 MLOAD PUSH2 0xE38 SWAP2 SWAP1 PUSH2 0x2178 JUMP JUMPDEST PUSH1 0x0 PUSH1 0x40 MLOAD DUP1 DUP4 SUB DUP2 PUSH1 0x0 DUP7 GAS CALL SWAP2 POP POP RETURNDATASIZE DUP1 PUSH1 0x0 DUP2 EQ PUSH2 0xE75 JUMPI PUSH1 0x40 MLOAD SWAP2 POP PUSH1 0x1F NOT PUSH1 0x3F RETURNDATASIZE ADD AND DUP3 ADD PUSH1 0x40 MSTORE RETURNDATASIZE DUP3 MSTORE RETURNDATASIZE PUSH1 0x0 PUSH1 0x20 DUP5 ADD RETURNDATACOPY PUSH2 0xE7A JUMP JUMPDEST PUSH1 0x60 SWAP2 POP JUMPDEST POP POP SWAP1 POP DUP1 PUSH2 0xE9C JUMPI PUSH1 0x40 MLOAD PUSH4 0xE13B081 PUSH1 0xE2 SHL DUP2 MSTORE PUSH1 0x4 ADD PUSH1 0x40 MLOAD DUP1 SWAP2 SUB SWAP1 REVERT JUMPDEST POP JUMPDEST PUSH1 0x40 DUP1 MLOAD DUP8 DUP2 MSTORE PUSH1 0x20 DUP2 ADD DUP10 SWAP1 MSTORE PUSH1 0x1 PUSH1 0x1 PUSH1 0xA0 SHL SUB DUP11 AND SWAP2 PUSH32 0x62A9B3E6446AB559D6B82C4F02CC923CD3B4E47444EF86446DAB81A4D781C5AF SWAP2 ADD PUSH1 0x40 MLOAD DUP1 SWAP2 SUB SWAP1 LOG2 POP PUSH2 0xEEC PUSH1 0x1 DUP1 SSTORE JUMP JUMPDEST POP POP POP POP POP POP POP JUMP JUMPDEST PUSH2 0xEFD PUSH2 0x1688 JUMP JUMPDEST PUSH2 0x5EC PUSH1 0x0 PUSH2 0x197F JUMP JUMPDEST PUSH2 0xF0F PUSH2 0x1688 JUMP JUMPDEST PUSH1 0x1 PUSH1 0x1 PUSH1 0xA0 SHL SUB DUP2 AND PUSH2 0xF36 JUMPI PUSH1 0x40 MLOAD PUSH4 0xD92E233D PUSH1 0xE0 SHL DUP2 MSTORE PUSH1 0x4 ADD PUSH1 0x40 MLOAD DUP1 SWAP2 SUB SWAP1 REVERT JUMPDEST PUSH1 0x6 SLOAD PUSH1 0x40 MLOAD PUSH1 0x1 PUSH1 0x1 PUSH1 0xA0 SHL SUB DUP1 DUP5 AND SWAP3 AND SWAP1 PUSH32 0x62904549814F5511A5D36A62611A6E2FE1D2C29B6DE74DE25D95395E0A7D009B SWAP1 PUSH1 0x0 SWAP1 LOG3 PUSH1 0x6 DUP1 SLOAD PUSH1 0x1 PUSH1 0x1 PUSH1 0xA0 SHL SUB NOT AND PUSH1 0x1 PUSH1 0x1 PUSH1 0xA0 SHL SUB SWAP3 SWAP1 SWAP3 AND SWAP2 SWAP1 SWAP2 OR SWAP1 SSTORE JUMP JUMPDEST PUSH2 0xF9A PUSH2 0x1688 JUMP JUMPDEST PUSH1 0x2 SLOAD DUP8 SWAP1 PUSH4 0x1000000 SWAP1 DIV PUSH4 0xFFFFFFFF AND PUSH1 0xFF DUP3 AND GT ISZERO PUSH2 0xFCF JUMPI PUSH1 0x40 MLOAD PUSH4 0x3ABD651D PUSH1 0xE2 SHL DUP2 MSTORE PUSH1 0x4 ADD PUSH1 0x40 MLOAD DUP1 SWAP2 SUB SWAP1 REVERT JUMPDEST DUP10 DUP10 PUSH1 0x64 PUSH2 0xFDD DUP3 DUP5 PUSH2 0x21BA JUMP JUMPDEST PUSH1 0xFF AND EQ PUSH2 0x100B JUMPI PUSH1 0x40 MLOAD PUSH4 0x8EFE3FD5 PUSH1 0xE0 SHL DUP2 MSTORE PUSH1 0xFF DUP1 DUP5 AND PUSH1 0x4 DUP4 ADD MSTORE DUP3 AND PUSH1 0x24 DUP3 ADD MSTORE PUSH1 0x44 ADD PUSH2 0x443 JUMP JUMPDEST PUSH1 0x2 SLOAD PUSH1 0x1 PUSH1 0x38 SHL SWAP1 DIV PUSH1 0xFF AND PUSH2 0x1030 JUMPI PUSH1 0x2 DUP1 SLOAD PUSH1 0xFF PUSH1 0x38 SHL NOT AND PUSH1 0x1 PUSH1 0x38 SHL OR SWAP1 SSTORE JUMPDEST PUSH2 0x1041 DUP11 DUP14 DUP14 DUP13 DUP13 DUP13 DUP13 DUP13 DUP13 PUSH2 0x19CF JUMP JUMPDEST PUSH1 0x40 DUP1 MLOAD DUP15 ISZERO ISZERO DUP2 MSTORE PUSH1 0xFF DUP13 DUP2 AND PUSH1 0x20 DUP4 ADD MSTORE DUP15 DUP2 AND DUP3 DUP5 ADD MSTORE DUP14 AND PUSH1 0x60 DUP3 ADD MSTORE PUSH4 0xFFFFFFFF DUP12 AND PUSH1 0x80 DUP3 ADD MSTORE PUSH1 0xA0 DUP2 ADD DUP11 SWAP1 MSTORE PUSH1 0xC0 DUP2 ADD DUP10 SWAP1 MSTORE PUSH1 0xE0 DUP2 ADD DUP9 SWAP1 MSTORE PUSH1 0x1 PUSH1 0x1 PUSH1 0xA0 SHL SUB DUP8 DUP2 AND PUSH2 0x100 DUP4 ADD MSTORE DUP7 AND PUSH2 0x120 DUP3 ADD MSTORE TIMESTAMP PUSH2 0x140 DUP3 ADD MSTORE SWAP1 MLOAD PUSH32 0x2318E6CA297FB62EE2D9DCAF35E332A8CCD6F45099AA2DBFE98D981A13B27846 SWAP2 DUP2 SWAP1 SUB PUSH2 0x160 ADD SWAP1 LOG1 POP POP POP POP POP POP POP POP POP POP POP POP POP JUMP JUMPDEST PUSH2 0x10E7 PUSH2 0x1688 JUMP JUMPDEST PUSH1 0x1 PUSH1 0x1 PUSH1 0xA0 SHL SUB DUP2 AND PUSH2 0x110E JUMPI PUSH1 0x40 MLOAD PUSH4 0xD92E233D PUSH1 0xE0 SHL DUP2 MSTORE PUSH1 0x4 ADD PUSH1 0x40 MLOAD DUP1 SWAP2 SUB SWAP1 REVERT JUMPDEST PUSH1 0x5 SLOAD PUSH1 0x40 MLOAD PUSH1 0x1 PUSH1 0x1 PUSH1 0xA0 SHL SUB DUP1 DUP5 AND SWAP3 PUSH2 0x100 SWAP1 DIV AND SWAP1 PUSH32 0x62904549814F5511A5D36A62611A6E2FE1D2C29B6DE74DE25D95395E0A7D009B SWAP1 PUSH1 0x0 SWAP1 LOG3 PUSH1 0x5 DUP1 SLOAD PUSH1 0x1 PUSH1 0x1 PUSH1 0xA0 SHL SUB SWAP1 SWAP3 AND PUSH2 0x100 MUL PUSH2 0x100 PUSH1 0x1 PUSH1 0xA8 SHL SUB NOT SWAP1 SWAP3 AND SWAP2 SWAP1 SWAP2 OR SWAP1 SSTORE JUMP JUMPDEST DUP5 PUSH1 0x9 SLOAD DUP2 LT DUP1 ISZERO PUSH2 0x1188 JUMPI POP PUSH1 0xA SLOAD DUP2 GT JUMPDEST ISZERO PUSH2 0x11A6 JUMPI PUSH1 0x40 MLOAD PUSH4 0x5F7ED2B PUSH1 0xE2 SHL DUP2 MSTORE PUSH1 0x4 ADD PUSH1 0x40 MLOAD DUP1 SWAP2 SUB SWAP1 REVERT JUMPDEST PUSH2 0x11AE PUSH2 0x162F JUMP JUMPDEST DUP6 PUSH1 0x1 PUSH1 0x1 PUSH1 0xA0 SHL SUB PUSH32 0x0 AND PUSH4 0x70A08231 CALLER PUSH1 0x40 MLOAD PUSH1 0x1 PUSH1 0x1 PUSH1 0xE0 SHL SUB NOT PUSH1 0xE0 DUP5 SWAP1 SHL AND DUP2 MSTORE PUSH1 0x1 PUSH1 0x1 PUSH1 0xA0 SHL SUB SWAP1 SWAP2 AND PUSH1 0x4 DUP3 ADD MSTORE PUSH1 0x24 ADD PUSH1 0x20 PUSH1 0x40 MLOAD DUP1 DUP4 SUB DUP2 DUP7 GAS STATICCALL ISZERO DUP1 ISZERO PUSH2 0x1223 JUMPI RETURNDATASIZE PUSH1 0x0 DUP1 RETURNDATACOPY RETURNDATASIZE PUSH1 0x0 REVERT JUMPDEST POP POP POP POP PUSH1 0x40 MLOAD RETURNDATASIZE PUSH1 0x1F NOT PUSH1 0x1F DUP3 ADD AND DUP3 ADD DUP1 PUSH1 0x40 MSTORE POP DUP2 ADD SWAP1 PUSH2 0x1247 SWAP2 SWAP1 PUSH2 0x214C JUMP JUMPDEST LT ISZERO PUSH2 0x1266 JUMPI PUSH1 0x40 MLOAD PUSH4 0x569D45CF PUSH1 0xE1 SHL DUP2 MSTORE PUSH1 0x4 ADD PUSH1 0x40 MLOAD DUP1 SWAP2 SUB SWAP1 REVERT JUMPDEST PUSH1 0x0 PUSH2 0x12C3 DUP8 CALLER PUSH1 0x40 MLOAD PUSH15 0x17D7D8DBDB9D995C9CDA5BDB93DD5D PUSH1 0x8A SHL PUSH1 0x20 DUP3 ADD MSTORE PUSH1 0x2F DUP2 ADD SWAP3 SWAP1 SWAP3 MSTORE PUSH12 0xFFFFFFFFFFFFFFFFFFFFFFFF NOT PUSH1 0x60 SWAP2 DUP3 SHL DUP2 AND PUSH1 0x4F DUP5 ADD MSTORE PUSH1 0x63 DUP4 ADD DUP11 SWAP1 MSTORE ADDRESS SWAP1 SWAP2 SHL AND PUSH1 0x83 DUP3 ADD MSTORE PUSH1 0x97 ADD PUSH2 0x7EF JUMP JUMPDEST PUSH1 0x7 SLOAD PUSH1 0x40 DUP1 MLOAD PUSH1 0x0 DUP2 MSTORE PUSH1 0x20 DUP2 ADD DUP1 DUP4 MSTORE DUP5 SWAP1 MSTORE PUSH1 0xFF DUP10 AND SWAP2 DUP2 ADD SWAP2 SWAP1 SWAP2 MSTORE PUSH1 0x60 DUP2 ADD DUP8 SWAP1 MSTORE PUSH1 0x80 DUP2 ADD DUP7 SWAP1 MSTORE SWAP2 SWAP3 POP PUSH1 0x1 PUSH1 0x1 PUSH1 0xA0 SHL SUB AND SWAP1 PUSH1 0x1 SWAP1 PUSH1 0xA0 ADD PUSH1 0x20 PUSH1 0x40 MLOAD PUSH1 0x20 DUP2 SUB SWAP1 DUP1 DUP5 SUB SWAP1 DUP6 GAS STATICCALL ISZERO DUP1 ISZERO PUSH2 0x1326 JUMPI RETURNDATASIZE PUSH1 0x0 DUP1 RETURNDATACOPY RETURNDATASIZE PUSH1 0x0 REVERT JUMPDEST POP POP POP PUSH1 0x20 PUSH1 0x40 MLOAD SUB MLOAD PUSH1 0x1 PUSH1 0x1 PUSH1 0xA0 SHL SUB AND EQ PUSH2 0x1357 JUMPI PUSH1 0x40 MLOAD PUSH4 0x29E8166F PUSH1 0xE2 SHL DUP2 MSTORE PUSH1 0x4 ADD PUSH1 0x40 MLOAD DUP1 SWAP2 SUB SWAP1 REVERT JUMPDEST PUSH1 0x0 DUP2 DUP2 MSTORE PUSH1 0x8 PUSH1 0x20 MSTORE PUSH1 0x40 SWAP1 KECCAK256 SLOAD PUSH1 0xFF AND ISZERO PUSH2 0x1387 JUMPI PUSH1 0x40 MLOAD PUSH4 0x333A6A09 PUSH1 0xE2 SHL DUP2 MSTORE PUSH1 0x4 ADD PUSH1 0x40 MLOAD DUP1 SWAP2 SUB SWAP1 REVERT JUMPDEST PUSH1 0x0 DUP2 DUP2 MSTORE PUSH1 0x8 PUSH1 0x20 MSTORE PUSH1 0x40 SWAP1 KECCAK256 DUP1 SLOAD PUSH1 0xFF NOT AND PUSH1 0x1 OR SWAP1 SSTORE PUSH1 0x2 SLOAD PUSH1 0x1 PUSH1 0x38 SHL SWAP1 DIV PUSH1 0xFF AND ISZERO PUSH2 0x13F3 JUMPI PUSH1 0x2 PUSH1 0x5 SLOAD PUSH1 0xFF AND PUSH1 0x2 DUP2 GT ISZERO PUSH2 0x13CB JUMPI PUSH2 0x13CB PUSH2 0x1E9F JUMP JUMPDEST SUB PUSH2 0x13DD JUMPI PUSH2 0x13D8 PUSH2 0x16E2 JUMP JUMPDEST PUSH2 0x13F3 JUMP JUMPDEST PUSH2 0x13E6 DUP8 PUSH2 0x1B4C JUMP JUMPDEST PUSH2 0x13F0 SWAP1 DUP9 PUSH2 0x21A7 JUMP JUMPDEST SWAP7 POP JUMPDEST PUSH1 0x40 DUP1 MLOAD CALLER PUSH1 0x24 DUP3 ADD MSTORE PUSH1 0x44 DUP1 DUP3 ADD DUP11 SWAP1 MSTORE DUP3 MLOAD DUP1 DUP4 SUB SWAP1 SWAP2 ADD DUP2 MSTORE PUSH1 0x64 SWAP1 SWAP2 ADD DUP3 MSTORE PUSH1 0x20 DUP2 ADD DUP1 MLOAD PUSH1 0x1 PUSH1 0x1 PUSH1 0xE0 SHL SUB AND PUSH4 0x79CC679 PUSH1 0xE4 SHL OR SWAP1 MSTORE SWAP1 MLOAD PUSH1 0x0 SWAP2 PUSH1 0x1 PUSH1 0x1 PUSH1 0xA0 SHL SUB PUSH32 0x0 AND SWAP2 PUSH2 0x146A SWAP2 SWAP1 PUSH2 0x2178 JUMP JUMPDEST PUSH1 0x0 PUSH1 0x40 MLOAD DUP1 DUP4 SUB DUP2 PUSH1 0x0 DUP7 GAS CALL SWAP2 POP POP RETURNDATASIZE DUP1 PUSH1 0x0 DUP2 EQ PUSH2 0x14A7 JUMPI PUSH1 0x40 MLOAD SWAP2 POP PUSH1 0x1F NOT PUSH1 0x3F RETURNDATASIZE ADD AND DUP3 ADD PUSH1 0x40 MSTORE RETURNDATASIZE DUP3 MSTORE RETURNDATASIZE PUSH1 0x0 PUSH1 0x20 DUP5 ADD RETURNDATACOPY PUSH2 0x14AC JUMP JUMPDEST PUSH1 0x60 SWAP2 POP JUMPDEST POP POP SWAP1 POP DUP1 PUSH2 0x14CE JUMPI PUSH1 0x40 MLOAD PUSH4 0xE13B081 PUSH1 0xE2 SHL DUP2 MSTORE PUSH1 0x4 ADD PUSH1 0x40 MLOAD DUP1 SWAP2 SUB SWAP1 REVERT JUMPDEST PUSH1 0x40 DUP1 MLOAD DUP9 DUP2 MSTORE PUSH1 0x20 DUP2 ADD DUP11 SWAP1 MSTORE CALLER SWAP2 PUSH32 0xB999B06746A947F1958636B9B9377AE814FE578413DFFFD4D3A7A96196FE02FC SWAP2 ADD PUSH1 0x40 MLOAD DUP1 SWAP2 SUB SWAP1 LOG2 POP POP PUSH2 0x1514 PUSH1 0x1 DUP1 SSTORE JUMP JUMPDEST POP POP POP POP POP POP JUMP JUMPDEST PUSH2 0x1524 PUSH2 0x1688 JUMP JUMPDEST PUSH1 0x2 DUP1 SLOAD PUSH1 0xFF PUSH1 0x38 SHL NOT AND SWAP1 SSTORE JUMP JUMPDEST PUSH2 0x153B PUSH2 0x1688 JUMP JUMPDEST PUSH1 0x1 PUSH1 0x1 PUSH1 0xA0 SHL SUB DUP2 AND PUSH2 0x1562 JUMPI PUSH1 0x40 MLOAD PUSH4 0xD92E233D PUSH1 0xE0 SHL DUP2 MSTORE PUSH1 0x4 ADD PUSH1 0x40 MLOAD DUP1 SWAP2 SUB SWAP1 REVERT JUMPDEST PUSH1 0x7 DUP1 SLOAD PUSH1 0x1 PUSH1 0x1 PUSH1 0xA0 SHL SUB NOT AND PUSH1 0x1 PUSH1 0x1 PUSH1 0xA0 SHL SUB DUP4 AND SWAP1 DUP2 OR SWAP1 SWAP2 SSTORE PUSH1 0x40 MLOAD SWAP1 DUP2 MSTORE PUSH32 0x8F53E6A9FBC3949BC0B9266BBE1927F0B282A34D92876CCBE188C24D17C6CBB SWAP1 PUSH1 0x20 ADD PUSH1 0x40 MLOAD DUP1 SWAP2 SUB SWAP1 LOG1 POP JUMP JUMPDEST PUSH2 0x15BE PUSH2 0x1688 JUMP JUMPDEST PUSH1 0x1 PUSH1 0x1 PUSH1 0xA0 SHL SUB DUP2 AND PUSH2 0x1623 JUMPI PUSH1 0x40 MLOAD PUSH3 0x461BCD PUSH1 0xE5 SHL DUP2 MSTORE PUSH1 0x20 PUSH1 0x4 DUP3 ADD MSTORE PUSH1 0x26 PUSH1 0x24 DUP3 ADD MSTORE PUSH32 0x4F776E61626C653A206E6577206F776E657220697320746865207A65726F2061 PUSH1 0x44 DUP3 ADD MSTORE PUSH6 0x646472657373 PUSH1 0xD0 SHL PUSH1 0x64 DUP3 ADD MSTORE PUSH1 0x84 ADD PUSH2 0x443 JUMP JUMPDEST PUSH2 0x162C DUP2 PUSH2 0x197F JUMP JUMPDEST POP JUMP JUMPDEST PUSH1 0x2 PUSH1 0x1 SLOAD SUB PUSH2 0x1681 JUMPI PUSH1 0x40 MLOAD PUSH3 0x461BCD PUSH1 0xE5 SHL DUP2 MSTORE PUSH1 0x20 PUSH1 0x4 DUP3 ADD MSTORE PUSH1 0x1F PUSH1 0x24 DUP3 ADD MSTORE PUSH32 0x5265656E7472616E637947756172643A207265656E7472616E742063616C6C00 PUSH1 0x44 DUP3 ADD MSTORE PUSH1 0x64 ADD PUSH2 0x443 JUMP JUMPDEST PUSH1 0x2 PUSH1 0x1 SSTORE JUMP JUMPDEST PUSH1 0x0 SLOAD PUSH1 0x1 PUSH1 0x1 PUSH1 0xA0 SHL SUB AND CALLER EQ PUSH2 0x5EC JUMPI PUSH1 0x40 MLOAD PUSH3 0x461BCD PUSH1 0xE5 SHL DUP2 MSTORE PUSH1 0x20 PUSH1 0x4 DUP3 ADD DUP2 SWAP1 MSTORE PUSH1 0x24 DUP3 ADD MSTORE PUSH32 0x4F776E61626C653A2063616C6C6572206973206E6F7420746865206F776E6572 PUSH1 0x44 DUP3 ADD MSTORE PUSH1 0x64 ADD PUSH2 0x443 JUMP JUMPDEST PUSH1 0x3 SLOAD CALLVALUE EQ PUSH2 0x5EC JUMPI PUSH1 0x3 SLOAD PUSH1 0x40 MLOAD PUSH4 0xF7442319 PUSH1 0xE0 SHL DUP2 MSTORE CALLVALUE PUSH1 0x4 DUP3 ADD MSTORE PUSH1 0x24 DUP2 ADD SWAP2 SWAP1 SWAP2 MSTORE PUSH1 0x44 ADD PUSH2 0x443 JUMP JUMPDEST PUSH1 0x0 DUP1 PUSH1 0x0 PUSH2 0x171F DUP5 PUSH2 0x1D2E JUMP JUMPDEST PUSH1 0x5 SLOAD SWAP2 SWAP4 POP SWAP2 POP PUSH2 0x100 SWAP1 DIV PUSH1 0x1 PUSH1 0x1 PUSH1 0xA0 SHL SUB AND ISZERO DUP1 ISZERO SWAP1 PUSH2 0x1743 JUMPI POP DUP2 DUP2 EQ ISZERO JUMPDEST ISZERO PUSH2 0x186C JUMPI PUSH1 0x5 SLOAD PUSH1 0x0 SWAP1 PUSH1 0x1 PUSH1 0x1 PUSH1 0xA0 SHL SUB PUSH32 0x0 DUP2 AND SWAP2 PUSH32 0xA9059CBB2AB09EB219583F4A59A5D0623ADE346D962BCD4E46B11DA047C9049B SWAP2 PUSH2 0x100 SWAP1 SWAP2 DIV AND PUSH2 0x17AD DUP7 DUP7 PUSH2 0x21A7 JUMP JUMPDEST PUSH1 0x40 MLOAD PUSH1 0x1 PUSH1 0x1 PUSH1 0xA0 SHL SUB SWAP1 SWAP3 AND PUSH1 0x24 DUP4 ADD MSTORE PUSH1 0x44 DUP3 ADD MSTORE PUSH1 0x64 ADD PUSH1 0x40 DUP1 MLOAD PUSH1 0x1F NOT DUP2 DUP5 SUB ADD DUP2 MSTORE SWAP2 DUP2 MSTORE PUSH1 0x20 DUP3 ADD DUP1 MLOAD PUSH1 0x1 PUSH1 0x1 PUSH1 0xE0 SHL SUB AND PUSH1 0x1 PUSH1 0x1 PUSH1 0xE0 SHL SUB NOT SWAP1 SWAP5 AND SWAP4 SWAP1 SWAP4 OR SWAP1 SWAP3 MSTORE SWAP1 MLOAD PUSH2 0x1806 SWAP2 SWAP1 PUSH2 0x2178 JUMP JUMPDEST PUSH1 0x0 PUSH1 0x40 MLOAD DUP1 DUP4 SUB DUP2 PUSH1 0x0 DUP7 GAS CALL SWAP2 POP POP RETURNDATASIZE DUP1 PUSH1 0x0 DUP2 EQ PUSH2 0x1843 JUMPI PUSH1 0x40 MLOAD SWAP2 POP PUSH1 0x1F NOT PUSH1 0x3F RETURNDATASIZE ADD AND DUP3 ADD PUSH1 0x40 MSTORE RETURNDATASIZE DUP3 MSTORE RETURNDATASIZE PUSH1 0x0 PUSH1 0x20 DUP5 ADD RETURNDATACOPY PUSH2 0x1848 JUMP JUMPDEST PUSH1 0x60 SWAP2 POP JUMPDEST POP POP SWAP1 POP DUP1 PUSH2 0x186A JUMPI PUSH1 0x40 MLOAD PUSH4 0xD291274F PUSH1 0xE0 SHL DUP2 MSTORE PUSH1 0x4 ADD PUSH1 0x40 MLOAD DUP1 SWAP2 SUB SWAP1 REVERT JUMPDEST POP JUMPDEST PUSH1 0x6 SLOAD PUSH1 0x40 MLOAD PUSH1 0x1 PUSH1 0x1 PUSH1 0xA0 SHL SUB SWAP2 DUP3 AND PUSH1 0x24 DUP3 ADD MSTORE PUSH1 0x44 DUP2 ADD DUP5 SWAP1 MSTORE PUSH1 0x0 SWAP2 PUSH32 0x0 AND SWAP1 PUSH32 0xA9059CBB2AB09EB219583F4A59A5D0623ADE346D962BCD4E46B11DA047C9049B SWAP1 PUSH1 0x64 ADD JUMPDEST PUSH1 0x40 DUP1 MLOAD PUSH1 0x1F NOT DUP2 DUP5 SUB ADD DUP2 MSTORE SWAP2 DUP2 MSTORE PUSH1 0x20 DUP3 ADD DUP1 MLOAD PUSH1 0x1 PUSH1 0x1 PUSH1 0xE0 SHL SUB AND PUSH1 0x1 PUSH1 0x1 PUSH1 0xE0 SHL SUB NOT SWAP1 SWAP5 AND SWAP4 SWAP1 SWAP4 OR SWAP1 SWAP3 MSTORE SWAP1 MLOAD PUSH2 0x1913 SWAP2 SWAP1 PUSH2 0x2178 JUMP JUMPDEST PUSH1 0x0 PUSH1 0x40 MLOAD DUP1 DUP4 SUB DUP2 PUSH1 0x0 DUP7 GAS CALL SWAP2 POP POP RETURNDATASIZE DUP1 PUSH1 0x0 DUP2 EQ PUSH2 0x1950 JUMPI PUSH1 0x40 MLOAD SWAP2 POP PUSH1 0x1F NOT PUSH1 0x3F RETURNDATASIZE ADD AND DUP3 ADD PUSH1 0x40 MSTORE RETURNDATASIZE DUP3 MSTORE RETURNDATASIZE PUSH1 0x0 PUSH1 0x20 DUP5 ADD RETURNDATACOPY PUSH2 0x1955 JUMP JUMPDEST PUSH1 0x60 SWAP2 POP JUMPDEST POP POP SWAP1 POP DUP1 PUSH2 0x1977 JUMPI PUSH1 0x40 MLOAD PUSH4 0xD291274F PUSH1 0xE0 SHL DUP2 MSTORE PUSH1 0x4 ADD PUSH1 0x40 MLOAD DUP1 SWAP2 SUB SWAP1 REVERT JUMPDEST POP SWAP4 SWAP3 POP POP POP JUMP JUMPDEST PUSH1 0x0 DUP1 SLOAD PUSH1 0x1 PUSH1 0x1 PUSH1 0xA0 SHL SUB DUP4 DUP2 AND PUSH1 0x1 PUSH1 0x1 PUSH1 0xA0 SHL SUB NOT DUP4 AND DUP2 OR DUP5 SSTORE PUSH1 0x40 MLOAD SWAP2 SWAP1 SWAP3 AND SWAP3 DUP4 SWAP2 PUSH32 0x8BE0079C531659141344CD1FD0A4F28419497F9722A3DAAFE3B4186F6B6457E0 SWAP2 SWAP1 LOG3 POP POP JUMP JUMPDEST PUSH1 0x2 SLOAD PUSH1 0xFF DUP10 DUP2 AND PUSH2 0x100 SWAP1 SWAP3 DIV AND EQ PUSH2 0x19F8 JUMPI PUSH1 0x2 DUP1 SLOAD PUSH2 0xFF00 NOT AND PUSH2 0x100 PUSH1 0xFF DUP12 AND MUL OR SWAP1 SSTORE JUMPDEST PUSH1 0x2 SLOAD PUSH1 0xFF DUP9 DUP2 AND PUSH3 0x10000 SWAP1 SWAP3 DIV AND EQ PUSH2 0x1A24 JUMPI PUSH1 0x2 DUP1 SLOAD PUSH3 0xFF0000 NOT AND PUSH3 0x10000 PUSH1 0xFF DUP11 AND MUL OR SWAP1 SSTORE JUMPDEST DUP5 ISZERO DUP1 ISZERO PUSH2 0x1A35 JUMPI POP PUSH1 0x0 DUP10 PUSH1 0xFF AND GT JUMPDEST ISZERO PUSH2 0x1A7D JUMPI PUSH1 0x2 DUP1 SLOAD PUSH7 0xFFFFFFFF0000FF NOT AND PUSH4 0x1000000 PUSH4 0xFFFFFFFF DUP10 AND MUL PUSH1 0xFF NOT SWAP1 DUP2 AND SWAP2 SWAP1 SWAP2 OR PUSH1 0xFF DUP13 AND OR SWAP1 SWAP2 SSTORE PUSH1 0x5 DUP1 SLOAD PUSH1 0x0 SWAP3 AND PUSH1 0x1 DUP4 JUMPDEST MUL OR SWAP1 SSTORE POP PUSH2 0x1ABF JUMP JUMPDEST DUP5 PUSH1 0x1 SUB PUSH2 0x1A9D JUMPI PUSH1 0x4 DUP5 SWAP1 SSTORE PUSH1 0x5 DUP1 SLOAD PUSH1 0x1 SWAP2 SWAP1 PUSH1 0xFF NOT AND DUP3 DUP1 PUSH2 0x1A73 JUMP JUMPDEST DUP3 ISZERO PUSH2 0x1ABF JUMPI PUSH2 0x1AAC DUP4 PUSH2 0x1E06 JUMP JUMPDEST PUSH1 0x3 DUP4 SWAP1 SSTORE PUSH1 0x5 DUP1 SLOAD PUSH1 0xFF NOT AND PUSH1 0x2 OR SWAP1 SSTORE JUMPDEST PUSH1 0x5 SLOAD PUSH1 0x1 PUSH1 0x1 PUSH1 0xA0 SHL SUB DUP4 DUP2 AND PUSH2 0x100 SWAP1 SWAP3 DIV AND EQ PUSH2 0x1AFA JUMPI PUSH1 0x5 DUP1 SLOAD PUSH2 0x100 PUSH1 0x1 PUSH1 0xA8 SHL SUB NOT AND PUSH2 0x100 PUSH1 0x1 PUSH1 0x1 PUSH1 0xA0 SHL SUB DUP6 AND MUL OR SWAP1 SSTORE JUMPDEST PUSH1 0x6 SLOAD PUSH1 0x1 PUSH1 0x1 PUSH1 0xA0 SHL SUB DUP3 DUP2 AND SWAP2 AND EQ DUP1 ISZERO SWAP1 PUSH2 0x1B20 JUMPI POP PUSH1 0x1 PUSH1 0x1 PUSH1 0xA0 SHL SUB DUP2 AND ISZERO ISZERO JUMPDEST ISZERO PUSH2 0x1B41 JUMPI PUSH1 0x6 DUP1 SLOAD PUSH1 0x1 PUSH1 0x1 PUSH1 0xA0 SHL SUB NOT AND PUSH1 0x1 PUSH1 0x1 PUSH1 0xA0 SHL SUB DUP4 AND OR SWAP1 SSTORE JUMPDEST POP POP POP POP POP POP POP POP POP JUMP JUMPDEST PUSH1 0x0 DUP1 PUSH1 0x0 PUSH2 0x1B5A DUP5 PUSH2 0x1D2E JUMP JUMPDEST PUSH1 0x5 SLOAD SWAP2 SWAP4 POP SWAP2 POP PUSH2 0x100 SWAP1 DIV PUSH1 0x1 PUSH1 0x1 PUSH1 0xA0 SHL SUB AND ISZERO DUP1 ISZERO SWAP1 PUSH2 0x1B7E JUMPI POP DUP2 DUP2 EQ ISZERO JUMPDEST ISZERO PUSH2 0x1CB4 JUMPI PUSH1 0x0 PUSH1 0x1 PUSH1 0x1 PUSH1 0xA0 SHL SUB PUSH32 0x0 AND PUSH32 0x23B872DD7302113369CDA2901243429419BEC145408FA8B352B3DD92B66C680B CALLER PUSH1 0x5 SLOAD PUSH2 0x100 SWAP1 DIV PUSH1 0x1 PUSH1 0x1 PUSH1 0xA0 SHL SUB AND PUSH2 0x1BEC DUP8 DUP8 PUSH2 0x21A7 JUMP JUMPDEST PUSH1 0x40 MLOAD PUSH1 0x1 PUSH1 0x1 PUSH1 0xA0 SHL SUB SWAP4 DUP5 AND PUSH1 0x24 DUP3 ADD MSTORE SWAP3 SWAP1 SWAP2 AND PUSH1 0x44 DUP4 ADD MSTORE PUSH1 0x64 DUP3 ADD MSTORE PUSH1 0x84 ADD PUSH1 0x40 DUP1 MLOAD PUSH1 0x1F NOT DUP2 DUP5 SUB ADD DUP2 MSTORE SWAP2 DUP2 MSTORE PUSH1 0x20 DUP3 ADD DUP1 MLOAD PUSH1 0x1 PUSH1 0x1 PUSH1 0xE0 SHL SUB AND PUSH1 0x1 PUSH1 0x1 PUSH1 0xE0 SHL SUB NOT SWAP1 SWAP5 AND SWAP4 SWAP1 SWAP4 OR SWAP1 SWAP3 MSTORE SWAP1 MLOAD PUSH2 0x1C4E SWAP2 SWAP1 PUSH2 0x2178 JUMP JUMPDEST PUSH1 0x0 PUSH1 0x40 MLOAD DUP1 DUP4 SUB DUP2 PUSH1 0x0 DUP7 GAS CALL SWAP2 POP POP RETURNDATASIZE DUP1 PUSH1 0x0 DUP2 EQ PUSH2 0x1C8B JUMPI PUSH1 0x40 MLOAD SWAP2 POP PUSH1 0x1F NOT PUSH1 0x3F RETURNDATASIZE ADD AND DUP3 ADD PUSH1 0x40 MSTORE RETURNDATASIZE DUP3 MSTORE RETURNDATASIZE PUSH1 0x0 PUSH1 0x20 DUP5 ADD RETURNDATACOPY PUSH2 0x1C90 JUMP JUMPDEST PUSH1 0x60 SWAP2 POP JUMPDEST POP POP SWAP1 POP DUP1 PUSH2 0x1CB2 JUMPI PUSH1 0x40 MLOAD PUSH4 0xD291274F PUSH1 0xE0 SHL DUP2 MSTORE PUSH1 0x4 ADD PUSH1 0x40 MLOAD DUP1 SWAP2 SUB SWAP1 REVERT JUMPDEST POP JUMPDEST PUSH1 0x0 PUSH1 0x1 PUSH1 0x1 PUSH1 0xA0 SHL SUB PUSH32 0x0 AND PUSH32 0x23B872DD7302113369CDA2901243429419BEC145408FA8B352B3DD92B66C680B CALLER PUSH1 0x6 SLOAD PUSH1 0x40 MLOAD PUSH1 0x1 PUSH1 0x1 PUSH1 0xA0 SHL SUB SWAP3 DUP4 AND PUSH1 0x24 DUP3 ADD MSTORE SWAP2 AND PUSH1 0x44 DUP3 ADD MSTORE PUSH1 0x64 DUP2 ADD DUP7 SWAP1 MSTORE PUSH1 0x84 ADD PUSH2 0x18D5 JUMP JUMPDEST PUSH1 0x0 DUP1 DUP1 PUSH1 0x5 SLOAD PUSH1 0xFF AND PUSH1 0x2 DUP2 GT ISZERO PUSH2 0x1D49 JUMPI PUSH2 0x1D49 PUSH2 0x1E9F JUMP JUMPDEST SUB PUSH2 0x1D8D JUMPI PUSH1 0x2 SLOAD PUSH1 0x0 SWAP1 PUSH4 0xFFFFFFFF PUSH4 0x1000000 DUP3 DIV AND SWAP1 PUSH2 0x1D6F SWAP1 PUSH1 0xFF AND DUP7 PUSH2 0x2113 JUMP JUMPDEST PUSH2 0x1D79 SWAP2 SWAP1 PUSH2 0x212A JUMP JUMPDEST SWAP1 POP PUSH2 0x1D84 DUP2 PUSH2 0x1E47 JUMP JUMPDEST SWAP5 SWAP1 SWAP4 POP SWAP2 POP POP JUMP JUMPDEST PUSH1 0x1 PUSH1 0x5 SLOAD PUSH1 0xFF AND PUSH1 0x2 DUP2 GT ISZERO PUSH2 0x1DA6 JUMPI PUSH2 0x1DA6 PUSH2 0x1E9F JUMP JUMPDEST SUB PUSH2 0x1DC4 JUMPI PUSH1 0x4 SLOAD PUSH2 0x1DB7 SWAP1 PUSH2 0x1E47 JUMP JUMPDEST PUSH1 0x4 SLOAD SWAP1 SWAP5 SWAP1 SWAP4 POP SWAP2 POP POP JUMP JUMPDEST PUSH1 0x2 PUSH1 0x5 SLOAD PUSH1 0xFF AND PUSH1 0x2 DUP2 GT ISZERO PUSH2 0x1DDD JUMPI PUSH2 0x1DDD PUSH2 0x1E9F JUMP JUMPDEST SUB PUSH2 0x1DFB JUMPI PUSH1 0x3 SLOAD PUSH2 0x1DEE SWAP1 PUSH2 0x1E47 JUMP JUMPDEST PUSH1 0x3 SLOAD SWAP1 SWAP5 SWAP1 SWAP4 POP SWAP2 POP POP JUMP JUMPDEST POP PUSH1 0x0 SWAP3 DUP4 SWAP3 POP SWAP1 POP JUMP JUMPDEST PUSH32 0x0 DUP2 GT ISZERO PUSH2 0x162C JUMPI PUSH1 0x40 MLOAD PUSH4 0xDD27E1DB PUSH1 0xE0 SHL DUP2 MSTORE PUSH1 0x4 ADD PUSH1 0x40 MLOAD DUP1 SWAP2 SUB SWAP1 REVERT JUMPDEST PUSH1 0x2 SLOAD PUSH1 0x0 SWAP1 PUSH1 0x64 SWAP1 PUSH2 0x1E63 SWAP1 PUSH3 0x10000 SWAP1 DIV PUSH1 0xFF AND DUP5 PUSH2 0x2113 JUMP JUMPDEST PUSH2 0x1E6D SWAP2 SWAP1 PUSH2 0x212A JUMP JUMPDEST SWAP3 SWAP2 POP POP JUMP JUMPDEST PUSH1 0x0 DUP1 PUSH1 0x0 PUSH1 0x60 DUP5 DUP7 SUB SLT ISZERO PUSH2 0x1E88 JUMPI PUSH1 0x0 DUP1 REVERT JUMPDEST POP POP DUP2 CALLDATALOAD SWAP4 PUSH1 0x20 DUP4 ADD CALLDATALOAD SWAP4 POP PUSH1 0x40 SWAP1 SWAP3 ADD CALLDATALOAD SWAP2 SWAP1 POP JUMP JUMPDEST PUSH4 0x4E487B71 PUSH1 0xE0 SHL PUSH1 0x0 MSTORE PUSH1 0x21 PUSH1 0x4 MSTORE PUSH1 0x24 PUSH1 0x0 REVERT JUMPDEST PUSH1 0xFF DUP12 DUP2 AND DUP3 MSTORE DUP11 DUP2 AND PUSH1 0x20 DUP4 ADD MSTORE DUP10 AND PUSH1 0x40 DUP3 ADD MSTORE PUSH4 0xFFFFFFFF DUP9 AND PUSH1 0x60 DUP3 ADD MSTORE DUP7 ISZERO ISZERO PUSH1 0x80 DUP3 ADD MSTORE PUSH1 0xA0 DUP2 ADD DUP7 SWAP1 MSTORE PUSH1 0xC0 DUP2 ADD DUP6 SWAP1 MSTORE PUSH2 0x140 DUP2 ADD PUSH1 0x3 DUP6 LT PUSH2 0x1F10 JUMPI PUSH4 0x4E487B71 PUSH1 0xE0 SHL PUSH1 0x0 MSTORE PUSH1 0x21 PUSH1 0x4 MSTORE PUSH1 0x24 PUSH1 0x0 REVERT JUMPDEST DUP5 PUSH1 0xE0 DUP4 ADD MSTORE PUSH2 0x1F2C PUSH2 0x100 DUP4 ADD DUP6 PUSH1 0x1 PUSH1 0x1 PUSH1 0xA0 SHL SUB AND SWAP1 MSTORE JUMP JUMPDEST PUSH1 0x1 PUSH1 0x1 PUSH1 0xA0 SHL SUB DUP4 AND PUSH2 0x120 DUP4 ADD MSTORE SWAP12 SWAP11 POP POP POP POP POP POP POP POP POP POP POP JUMP JUMPDEST PUSH1 0x1 PUSH1 0x1 PUSH1 0xA0 SHL SUB DUP2 AND DUP2 EQ PUSH2 0x162C JUMPI PUSH1 0x0 DUP1 REVERT JUMPDEST DUP1 CALLDATALOAD PUSH1 0xFF DUP2 AND DUP2 EQ PUSH2 0x1F71 JUMPI PUSH1 0x0 DUP1 REVERT JUMPDEST SWAP2 SWAP1 POP JUMP JUMPDEST PUSH1 0x0 DUP1 PUSH1 0x0 DUP1 PUSH1 0x0 DUP1 PUSH1 0xC0 DUP8 DUP10 SUB SLT ISZERO PUSH2 0x1F8F JUMPI PUSH1 0x0 DUP1 REVERT JUMPDEST DUP7 CALLDATALOAD PUSH2 0x1F9A DUP2 PUSH2 0x1F4B JUMP JUMPDEST SWAP6 POP PUSH1 0x20 DUP8 ADD CALLDATALOAD SWAP5 POP PUSH1 0x40 DUP8 ADD CALLDATALOAD SWAP4 POP PUSH2 0x1FB6 PUSH1 0x60 DUP9 ADD PUSH2 0x1F60 JUMP JUMPDEST SWAP3 POP PUSH1 0x80 DUP8 ADD CALLDATALOAD SWAP2 POP PUSH1 0xA0 DUP8 ADD CALLDATALOAD SWAP1 POP SWAP3 SWAP6 POP SWAP3 SWAP6 POP SWAP3 SWAP6 JUMP JUMPDEST PUSH1 0x0 PUSH1 0x20 DUP3 DUP5 SUB SLT ISZERO PUSH2 0x1FE2 JUMPI PUSH1 0x0 DUP1 REVERT JUMPDEST DUP2 CALLDATALOAD PUSH2 0x1FED DUP2 PUSH2 0x1F4B JUMP JUMPDEST SWAP4 SWAP3 POP POP POP JUMP JUMPDEST DUP1 CALLDATALOAD PUSH2 0x1F71 DUP2 PUSH2 0x1F4B JUMP JUMPDEST PUSH1 0x0 DUP1 PUSH1 0x0 DUP1 PUSH1 0x0 DUP1 PUSH1 0x0 DUP1 PUSH1 0x0 DUP1 PUSH2 0x140 DUP12 DUP14 SUB SLT ISZERO PUSH2 0x201F JUMPI PUSH1 0x0 DUP1 REVERT JUMPDEST DUP11 CALLDATALOAD DUP1 ISZERO ISZERO DUP2 EQ PUSH2 0x202F JUMPI PUSH1 0x0 DUP1 REVERT JUMPDEST SWAP10 POP PUSH2 0x203D PUSH1 0x20 DUP13 ADD PUSH2 0x1F60 JUMP JUMPDEST SWAP9 POP PUSH2 0x204B PUSH1 0x40 DUP13 ADD PUSH2 0x1F60 JUMP JUMPDEST SWAP8 POP PUSH2 0x2059 PUSH1 0x60 DUP13 ADD PUSH2 0x1F60 JUMP JUMPDEST SWAP7 POP PUSH1 0x80 DUP12 ADD CALLDATALOAD PUSH4 0xFFFFFFFF DUP2 AND DUP2 EQ PUSH2 0x2072 JUMPI PUSH1 0x0 DUP1 REVERT JUMPDEST SWAP6 POP PUSH1 0xA0 DUP12 ADD CALLDATALOAD SWAP5 POP PUSH1 0xC0 DUP12 ADD CALLDATALOAD SWAP4 POP PUSH1 0xE0 DUP12 ADD CALLDATALOAD SWAP3 POP PUSH2 0x2096 PUSH2 0x100 DUP13 ADD PUSH2 0x1FF4 JUMP JUMPDEST SWAP2 POP PUSH2 0x20A5 PUSH2 0x120 DUP13 ADD PUSH2 0x1FF4 JUMP JUMPDEST SWAP1 POP SWAP3 SWAP6 SWAP9 SWAP12 SWAP2 SWAP5 SWAP8 SWAP11 POP SWAP3 SWAP6 SWAP9 POP JUMP JUMPDEST PUSH1 0x0 DUP1 PUSH1 0x0 DUP1 PUSH1 0x0 PUSH1 0xA0 DUP7 DUP9 SUB SLT ISZERO PUSH2 0x20CE JUMPI PUSH1 0x0 DUP1 REVERT JUMPDEST DUP6 CALLDATALOAD SWAP5 POP PUSH1 0x20 DUP7 ADD CALLDATALOAD SWAP4 POP PUSH2 0x20E5 PUSH1 0x40 DUP8 ADD PUSH2 0x1F60 JUMP JUMPDEST SWAP5 SWAP8 SWAP4 SWAP7 POP SWAP4 SWAP5 PUSH1 0x60 DUP2 ADD CALLDATALOAD SWAP5 POP PUSH1 0x80 ADD CALLDATALOAD SWAP3 SWAP2 POP POP JUMP JUMPDEST PUSH4 0x4E487B71 PUSH1 0xE0 SHL PUSH1 0x0 MSTORE PUSH1 0x11 PUSH1 0x4 MSTORE PUSH1 0x24 PUSH1 0x0 REVERT JUMPDEST DUP1 DUP3 MUL DUP2 ISZERO DUP3 DUP3 DIV DUP5 EQ OR PUSH2 0x1E6D JUMPI PUSH2 0x1E6D PUSH2 0x20FD JUMP JUMPDEST PUSH1 0x0 DUP3 PUSH2 0x2147 JUMPI PUSH4 0x4E487B71 PUSH1 0xE0 SHL PUSH1 0x0 MSTORE PUSH1 0x12 PUSH1 0x4 MSTORE PUSH1 0x24 PUSH1 0x0 REVERT JUMPDEST POP DIV SWAP1 JUMP JUMPDEST PUSH1 0x0 PUSH1 0x20 DUP3 DUP5 SUB SLT ISZERO PUSH2 0x215E JUMPI PUSH1 0x0 DUP1 REVERT JUMPDEST POP MLOAD SWAP2 SWAP1 POP JUMP JUMPDEST DUP1 DUP3 ADD DUP1 DUP3 GT ISZERO PUSH2 0x1E6D JUMPI PUSH2 0x1E6D PUSH2 0x20FD JUMP JUMPDEST PUSH1 0x0 DUP3 MLOAD PUSH1 0x0 JUMPDEST DUP2 DUP2 LT ISZERO PUSH2 0x2199 JUMPI PUSH1 0x20 DUP2 DUP7 ADD DUP2 ADD MLOAD DUP6 DUP4 ADD MSTORE ADD PUSH2 0x217F JUMP JUMPDEST POP PUSH1 0x0 SWAP3 ADD SWAP2 DUP3 MSTORE POP SWAP2 SWAP1 POP JUMP JUMPDEST DUP2 DUP2 SUB DUP2 DUP2 GT ISZERO PUSH2 0x1E6D JUMPI PUSH2 0x1E6D PUSH2 0x20FD JUMP JUMPDEST PUSH1 0xFF DUP2 DUP2 AND DUP4 DUP3 AND ADD SWAP1 DUP2 GT ISZERO PUSH2 0x1E6D JUMPI PUSH2 0x1E6D PUSH2 0x20FD JUMP INVALID LOG2 PUSH5 0x6970667358 0x22 SLT KECCAK256 AND 0x5E 0xD 0xDB CODECOPY PUSH29 0x6972AB3BAC0BD4597D0F9920015CF2C58F3FDA564EB3A73D89DC64736F PUSH13 0x63430008130033000000000000 "},"methodIdentifiers":{"claimNativeCurrencyCommission()":"37c15626","commissionSettings()":"5531e774","conversionIn(address,uint256,bytes32,uint8,bytes32,bytes32)":"6a02fcc4","conversionOut(uint256,bytes32,uint8,bytes32,bytes32)":"9f23c9e2","disableCommission()":"b26e099f","getCommissionReceiverAddresses()":"9cb71686","getCommissionSettings()":"58a93688","getConversionAuthorizer()":"c72304ac","getConversionConfigurations()":"feea1529","owner()":"8da5cb5b","renounceOwnership()":"715018a6","transferOwnership(address)":"f2fde38b","updateAuthorizer(address)":"e0a66578","updateBridgeOwner(address)":"7c522d28","updateCommissionConfiguration(bool,uint8,uint8,uint8,uint32,uint256,uint256,uint256,address,address)":"894f9d19","updateConfigurations(uint256,uint256,uint256)":"529c0970","updateReceiverCommission(address)":"94aca02a"}}}}}