{"contracts/TokenConversionManager.sol":{"TokenConversionManager":{"abi":[{"inputs":[{"internalType":"address","name":"token","type":"address"},{"internalType":"bool","name":"commissionIsEnabled","type":"bool"},{"internalType":"uint8","name":"convertTokenPercentage","type":"uint8"},{"internalType":"uint8","name":"receiverCommissionProportion","type":"uint8"},{"internalType":"uint8","name":"bridgeOwnerCommissionProportion","type":"uint8"},{"internalType":"uint256","name":"commissionType","type":"uint256"},{"internalType":"uint256","name":"fixedNativeTokenCommission","type":"uint256"},{"internalType":"uint256","name":"fixedNativeTokenCommissionLimit","type":"uint256"},{"internalType":"uint256","name":"fixedTokenCommission","type":"uint256"},{"internalType":"address payable","name":"commissionReceiver","type":"address"},{"internalType":"address payable","name":"bridgeOwner","type":"address"}],"stateMutability":"nonpayable","type":"constructor"},{"anonymous":false,"inputs":[{"indexed":true,"internalType":"address","name":"tokenHolder","type":"address"},{"indexed":false,"internalType":"bytes32","name":"conversionId","type":"bytes32"},{"indexed":false,"internalType":"uint256","name":"amount","type":"uint256"}],"name":"ConversionIn","type":"event"},{"anonymous":false,"inputs":[{"indexed":true,"internalType":"address","name":"tokenHolder","type":"address"},{"indexed":false,"internalType":"bytes32","name":"conversionId","type":"bytes32"},{"indexed":false,"internalType":"uint256","name":"amount","type":"uint256"}],"name":"ConversionOut","type":"event"},{"anonymous":false,"inputs":[{"indexed":true,"internalType":"uint256","name":"time","type":"uint256"}],"name":"NativeCurrencyCommissionClaim","type":"event"},{"anonymous":false,"inputs":[{"indexed":false,"internalType":"address","name":"conversionAuthorizer","type":"address"}],"name":"NewAuthorizer","type":"event"},{"anonymous":false,"inputs":[{"indexed":true,"internalType":"address","name":"previousOwner","type":"address"},{"indexed":true,"internalType":"address","name":"newOwner","type":"address"}],"name":"OwnershipTransferred","type":"event"},{"anonymous":false,"inputs":[{"indexed":false,"internalType":"bool","name":"commissionIsEnabled","type":"bool"},{"indexed":false,"internalType":"uint8","name":"convertTokenPercentage","type":"uint8"},{"indexed":false,"internalType":"uint8","name":"receiverCommissionProportion","type":"uint8"},{"indexed":false,"internalType":"uint8","name":"bridgeOwnerCommissionProportion","type":"uint8"},{"indexed":false,"internalType":"uint256","name":"commissionType","type":"uint256"},{"indexed":false,"internalType":"uint256","name":"fixedTokenCommission","type":"uint256"},{"indexed":false,"internalType":"uint256","name":"fixedNativeTokenCommission","type":"uint256"},{"indexed":false,"internalType":"address payable","name":"receiverCommission","type":"address"},{"indexed":false,"internalType":"address payable","name":"bridgeOwner","type":"address"},{"indexed":false,"internalType":"uint256","name":"updateTimestamp","type":"uint256"}],"name":"UpdateCommissionConfiguration","type":"event"},{"anonymous":false,"inputs":[{"indexed":false,"internalType":"uint256","name":"perTxnMinAmount","type":"uint256"},{"indexed":false,"internalType":"uint256","name":"perTxnMaxAmount","type":"uint256"},{"indexed":false,"internalType":"uint256","name":"maxSupply","type":"uint256"}],"name":"UpdateConfiguration","type":"event"},{"anonymous":false,"inputs":[{"indexed":true,"internalType":"address","name":"previousReceiver","type":"address"},{"indexed":true,"internalType":"address","name":"newReceiver","type":"address"}],"name":"UpdateReceiver","type":"event"},{"inputs":[],"name":"claimNativeCurrencyCommission","outputs":[],"stateMutability":"nonpayable","type":"function"},{"inputs":[],"name":"commissionSettings","outputs":[{"internalType":"uint8","name":"convertTokenPercentage","type":"uint8"},{"internalType":"uint8","name":"receiverCommissionProportion","type":"uint8"},{"internalType":"uint8","name":"bridgeOwnerCommissionProportion","type":"uint8"},{"internalType":"bool","name":"commissionIsEnabled","type":"bool"},{"internalType":"uint256","name":"fixedNativeTokenCommission","type":"uint256"},{"internalType":"uint256","name":"fixedTokenCommission","type":"uint256"},{"internalType":"enum Commission.CommissionType","name":"commissionType","type":"uint8"},{"internalType":"address payable","name":"receiverCommission","type":"address"},{"internalType":"address payable","name":"bridgeOwner","type":"address"}],"stateMutability":"view","type":"function"},{"inputs":[{"internalType":"address","name":"to","type":"address"},{"internalType":"uint256","name":"amount","type":"uint256"},{"internalType":"bytes32","name":"conversionId","type":"bytes32"},{"internalType":"uint8","name":"v","type":"uint8"},{"internalType":"bytes32","name":"r","type":"bytes32"},{"internalType":"bytes32","name":"s","type":"bytes32"}],"name":"conversionIn","outputs":[],"stateMutability":"payable","type":"function"},{"inputs":[{"internalType":"uint256","name":"amount","type":"uint256"},{"internalType":"bytes32","name":"conversionId","type":"bytes32"},{"internalType":"uint8","name":"v","type":"uint8"},{"internalType":"bytes32","name":"r","type":"bytes32"},{"internalType":"bytes32","name":"s","type":"bytes32"}],"name":"conversionOut","outputs":[],"stateMutability":"payable","type":"function"},{"inputs":[],"name":"disableCommission","outputs":[],"stateMutability":"nonpayable","type":"function"},{"inputs":[],"name":"getCommissionReceiverAddresses","outputs":[{"internalType":"address","name":"","type":"address"},{"internalType":"address","name":"","type":"address"}],"stateMutability":"view","type":"function"},{"inputs":[],"name":"getCommissionSettings","outputs":[{"internalType":"bool","name":"commissionIsEnabled","type":"bool"},{"internalType":"uint8","name":"receiverCommissionProportion","type":"uint8"},{"internalType":"uint8","name":"bridgeOwnerCommissionProportion","type":"uint8"},{"internalType":"uint8","name":"convertTokenPercentage","type":"uint8"},{"internalType":"uint256","name":"tokenTypeCommission","type":"uint256"},{"internalType":"uint256","name":"fixedTokenCommission","type":"uint256"},{"internalType":"uint256","name":"fixedNativeTokenCommission","type":"uint256"},{"internalType":"address payable","name":"receiverCommission","type":"address"},{"internalType":"address payable","name":"bridgeOwner","type":"address"},{"internalType":"address","name":"token","type":"address"}],"stateMutability":"view","type":"function"},{"inputs":[],"name":"getConversionConfigurations","outputs":[{"internalType":"uint256","name":"","type":"uint256"},{"internalType":"uint256","name":"","type":"uint256"},{"internalType":"uint256","name":"","type":"uint256"}],"stateMutability":"view","type":"function"},{"inputs":[],"name":"getconversionAuthorizer","outputs":[{"internalType":"address","name":"","type":"address"}],"stateMutability":"view","type":"function"},{"inputs":[],"name":"owner","outputs":[{"internalType":"address","name":"","type":"address"}],"stateMutability":"view","type":"function"},{"inputs":[],"name":"renounceOwnership","outputs":[],"stateMutability":"nonpayable","type":"function"},{"inputs":[{"internalType":"address","name":"newOwner","type":"address"}],"name":"transferOwnership","outputs":[],"stateMutability":"nonpayable","type":"function"},{"inputs":[{"internalType":"address","name":"newAuthorizer","type":"address"}],"name":"updateAuthorizer","outputs":[],"stateMutability":"nonpayable","type":"function"},{"inputs":[{"internalType":"address","name":"newBridgeOwner","type":"address"}],"name":"updateBridgeOwner","outputs":[],"stateMutability":"nonpayable","type":"function"},{"inputs":[{"internalType":"bool","name":"commissionIsEnabled","type":"bool"},{"internalType":"uint8","name":"receiverCommissionProportion","type":"uint8"},{"internalType":"uint8","name":"bridgeOwnerCommissionProportion","type":"uint8"},{"internalType":"uint8","name":"newConvertTokenPercentage","type":"uint8"},{"internalType":"uint256","name":"newCommissionType","type":"uint256"},{"internalType":"uint256","name":"newFixedTokenCommission","type":"uint256"},{"internalType":"uint256","name":"newFixedNativeTokenCommission","type":"uint256"},{"internalType":"address payable","name":"receiverCommission","type":"address"},{"internalType":"address payable","name":"bridgeOwner","type":"address"}],"name":"updateCommissionConfiguration","outputs":[],"stateMutability":"nonpayable","type":"function"},{"inputs":[{"internalType":"uint256","name":"perTxnMinAmount","type":"uint256"},{"internalType":"uint256","name":"perTxnMaxAmount","type":"uint256"},{"internalType":"uint256","name":"maxSupply","type":"uint256"}],"name":"updateConfigurations","outputs":[],"stateMutability":"nonpayable","type":"function"},{"inputs":[{"internalType":"address","name":"newReceiverCommission","type":"address"}],"name":"updateReceiverCommission","outputs":[],"stateMutability":"nonpayable","type":"function"}],"evm":{"bytecode":{"linkReferences":{},"object":"60a06040523480156200001157600080fd5b5060405162002903380380620029038339810160408190526200003491620004a7565b89898989898989898989620000493362000249565b886103e88160ff161115620000a55760405162461bcd60e51b815260206004820152601a60248201527f56696f6c617465732070657263656e74616765206c696d69747300000000000060448201526064015b60405180910390fd5b88886064620000b5828462000571565b60ff1614620001135760405162461bcd60e51b8152602060048201526024808201527f53756d206f662070726f706f7274696f6e2069736e277420657175616c20746f6044820152630203130360e41b60648201526084016200009c565b60808790528c15620001c7576001805463ff00000019166301000000179055620001448c8c8c8c8a8d8b8b62000299565b604080518e1515815260ff8e811660208301528d8116828401528c166060820152608081018b905260a0810188905260c081018a90526001600160a01b0387811660e083015286166101008201524261012082015290517f2384cd55758cfea276bc7f0e2e210be39cc8067f80f2b475d52286fd65d36db0918190036101400190a15b5050505050505050505050505060016007819055508a600660006101000a8154816001600160a01b0302191690836001600160a01b03160217905550620002136200024560201b60201c565b600880546001600160a01b0319166001600160a01b0392909216919091179055506200059f9950505050505050505050565b3390565b600080546001600160a01b038381166001600160a01b0319831681178455604051919092169283917f8be0079c531659141344cd1fd0a4f28419497f9722a3daafe3b4186f6b6457e09190a35050565b60015460ff8881166101009092041614620002c3576001805461ff00191661010060ff8a16021790555b60015460ff878116620100009092041614620002f0576001805462ff000019166201000060ff8916021790555b8415801562000302575060008860ff16115b1562000331576001805460ff8a1660ff199182161782556004805460009391921690835b021790555062000378565b8460010362000353576003849055600480546001919060ff1916828062000326565b82156200037857620003658362000407565b60028381556004805460ff191690911790555b6004546001600160a01b038381166101009092041614620003b45760048054610100600160a81b0319166101006001600160a01b038516021790555b6005546001600160a01b03828116911614801590620003db57506001600160a01b03811615155b15620003fd57600580546001600160a01b0319166001600160a01b0383161790555b5050505050505050565b6080518111156200046a5760405162461bcd60e51b815260206004820152602660248201527f56696f6c61746573206e617469766520746f6b656e20636f6d6d697373696f6e604482015265081b1a5b5a5d60d21b60648201526084016200009c565b50565b6001600160a01b03811681146200046a57600080fd5b805160ff811681146200049557600080fd5b919050565b805162000495816200046d565b60008060008060008060008060008060006101608c8e031215620004ca57600080fd5b8b51620004d7816200046d565b60208d0151909b508015158114620004ee57600080fd5b9950620004fe60408d0162000483565b98506200050e60608d0162000483565b97506200051e60808d0162000483565b965060a08c0151955060c08c0151945060e08c015193506101008c015192506101208c01516200054e816200046d565b91506200055f6101408d016200049a565b90509295989b509295989b9093969950565b60ff81811683821601908111156200059957634e487b7160e01b600052601160045260246000fd5b92915050565b608051612348620005bb6000396000611e2a01526123486000f3fe6080604052600436106100fe5760003560e01c806387319f5f116100955780639f23c9e2116100645780639f23c9e21461033a578063b26e099f1461034d578063e0a6657814610362578063f2fde38b14610382578063feea1529146103a257600080fd5b806387319f5f146102925780638da5cb5b146102c457806394aca02a146102e25780639cb716861461030257600080fd5b806358a93688116100d157806358a93688146101d55780636a02fcc41461024a578063715018a61461025d5780637c522d281461027257600080fd5b8063094c31591461010357806337c1562614610125578063529c09701461013a5780635531e7741461015a575b600080fd5b34801561010f57600080fd5b5061012361011e366004611fcc565b6103d3565b005b34801561013157600080fd5b50610123610565565b34801561014657600080fd5b5061012361015536600461206c565b61077f565b34801561016657600080fd5b506001546002546003546004546005546101b79460ff808216956101008084048316966201000085048416966301000000909504841695929490938116926001600160a01b03929091048216911689565b6040516101cc999897969594939291906120ae565b60405180910390f35b3480156101e157600080fd5b506101ea610834565b604080519a15158b5260ff998a1660208c0152978916978a0197909752949096166060880152608087019290925260a086015260c08501526001600160a01b0392831660e0850152821661010084015216610120820152610140016101cc565b610123610258366004612128565b6108f5565b34801561026957600080fd5b50610123611115565b34801561027e57600080fd5b5061012361028d366004612182565b611129565b34801561029e57600080fd5b506008546001600160a01b03165b6040516001600160a01b0390911681526020016101cc565b3480156102d057600080fd5b506000546001600160a01b03166102ac565b3480156102ee57600080fd5b506101236102fd366004612182565b6111b3565b34801561030e57600080fd5b50600454600554604080516101009093046001600160a01b0390811684529091166020830152016101cc565b6101236103483660046121a6565b611248565b34801561035957600080fd5b5061012361168d565b34801561036e57600080fd5b5061012361037d366004612182565b6116a4565b34801561038e57600080fd5b5061012361039d366004612182565b611756565b3480156103ae57600080fd5b50600a54600b54600c54604080519384526020840192909252908201526060016101cc565b6103db6117cf565b856103e88160ff1611156104365760405162461bcd60e51b815260206004820152601a60248201527f56696f6c617465732070657263656e74616765206c696d69747300000000000060448201526064015b60405180910390fd5b888860646104448284612203565b60ff16146104a05760405162461bcd60e51b8152602060048201526024808201527f53756d206f662070726f706f7274696f6e2069736e277420657175616c20746f6044820152630203130360e41b606482015260840161042d565b6001546301000000900460ff166104c5576001805463ff000000191663010000001790555b6104d5898c8c8b8b8b8b8b611829565b604080518d1515815260ff8b811660208301528d8116828401528c166060820152608081018a905260a0810189905260c081018890526001600160a01b0387811660e083015286166101008201524261012082015290517f2384cd55758cfea276bc7f0e2e210be39cc8067f80f2b475d52286fd65d36db0918190036101400190a1505050505050505050505050565b3360045461010090046001600160a01b0316336001600160a01b031614806105a057506005546001600160a01b0316336001600160a01b0316145b6105f85760405162461bcd60e51b815260206004820152602360248201527f5369676e6572206973206e6f74206120636f6d6d697373696f6e2072656365696044820152623b32b960e91b606482015260840161042d565b478061060357600080fd5b600454600154600091610100908190046001600160a01b03169160649161062e910460ff168561221c565b6106389190612233565b604051600081818185875af1925050503d8060008114610674576040519150601f19603f3d011682016040523d82523d6000602084013e610679565b606091505b50506005546001549192506000916001600160a01b03909116906064906106a99062010000900460ff168661221c565b6106b39190612233565b604051600081818185875af1925050503d80600081146106ef576040519150601f19603f3d011682016040523d82523d6000602084013e6106f4565b606091505b505090508180156107025750805b61074e5760405162461bcd60e51b815260206004820152601760248201527f436f6d6d697373696f6e20636c61696d206661696c6564000000000000000000604482015260640161042d565b60405142907f5b64f7990ec4169ec43e750ea74cd6e76bbbd2a11d79841622bdda84ba9d561e90600090a250505050565b6107876117cf565b60008311801561079657508282115b80156107a25750600081115b6107df5760405162461bcd60e51b815260206004820152600e60248201526d496e76616c696420696e7075747360901b604482015260640161042d565b600a839055600b829055600c81905560408051848152602081018490529081018290527fb2efb0aa6e279553a1e5567ebb495d322192aa43c5fc3073cba4601d52009ab49060600160405180910390a1505050565b60015460045460009182918291829182918291829182918291829160ff6301000000830481169261010081048216926201000082048316929182169116600281111561088257610882612098565b6001600201546001800154600160030160019054906101000a90046001600160a01b0316600160040160009054906101000a90046001600160a01b0316600660009054906101000a90046001600160a01b0316995099509950995099509950995099509950995090919293949596979899565b84600a54811015801561090a5750600b548111155b6109565760405162461bcd60e51b815260206004820152601a60248201527f56696f6c6174657320636f6e76657273696f6e206c696d697473000000000000604482015260640161042d565b61095e61198a565b6001600160a01b0387166109a55760405162461bcd60e51b815260206004820152600e60248201526d125b9d985b1a59081dd85b1b195d60921b604482015260640161042d565b6000610a5d87336040516d2fafb1b7b73b32b939b4b7b724b760911b6020820152602e8101929092526bffffffffffffffffffffffff19606091821b8116604e840152606283018a90523090911b1660828201526096015b60408051601f1981840301815282825280516020918201207f19457468657265756d205369676e6564204d6573736167653a0a33320000000084830152603c8085019190915282518085039091018152605c909301909152815191012090565b60085460408051600081526020810180835284905260ff89169181019190915260608101879052608081018690529192506001600160a01b03169060019060a0016020604051602081039080840390855afa158015610ac0573d6000803e3d6000fd5b505050602060405103516001600160a01b031614610b205760405162461bcd60e51b815260206004820152601c60248201527f496e76616c69642072657175657374206f72207369676e617475726500000000604482015260640161042d565b60008181526009602052604090205460ff1615610b7f5760405162461bcd60e51b815260206004820152601f60248201527f5369676e61747572652068617320616c7265616479206265656e207573656400604482015260640161042d565b600081815260096020908152604091829020805460ff19166001179055600c5460065483516318160ddd60e01b8152935191938b936001600160a01b03909216926318160ddd926004808401939192918290030181865afa158015610be8573d6000803e3d6000fd5b505050506040513d601f19601f82011682018060405250810190610c0c9190612255565b610c16919061226e565b1115610c555760405162461bcd60e51b815260206004820152600e60248201526d125b9d985b1a5908105b5bdd5b9d60921b604482015260640161042d565b6001546301000000900460ff1615610fd457600260045460ff166002811115610c8057610c80612098565b03610d7a57610c8d6119e3565b600654604080516001600160a01b038b8116602483015260448083018c905283518084039091018152606490920183526020820180516001600160e01b03166340c10f1960e01b17905291516000939290921691610ceb9190612281565b6000604051808303816000865af19150503d8060008114610d28576040519150601f19603f3d011682016040523d82523d6000602084013e610d2d565b606091505b5050905080610d745760405162461bcd60e51b815260206004820152601360248201527210dbdb9d995c9cda5bdb925b8811985a5b1959606a1b604482015260640161042d565b506110bd565b6006546040805130602482015260448082018b905282518083039091018152606490910182526020810180516001600160e01b03166340c10f1960e01b17905290516000926001600160a01b031691610dd291612281565b6000604051808303816000865af19150503d8060008114610e0f576040519150601f19603f3d011682016040523d82523d6000602084013e610e14565b606091505b5050905080610e655760405162461bcd60e51b815260206004820152601a60248201527f4d696e74202620436f6e76657273696f6e496e204661696c6564000000000000604482015260640161042d565b610e6e88611a48565b610e7890896122b0565b975060008811610edc5760405162461bcd60e51b815260206004820152602960248201527f496e76616c696420616d6f756e7420616674657220636f6d6d697373696f6e206044820152683232b23ab1ba34b7b760b91b606482015260840161042d565b600654604080516001600160a01b038c8116602483015260448083018d905283518084039091018152606490920183526020820180516001600160e01b031663a9059cbb60e01b17905291516000939290921691610f3a9190612281565b6000604051808303816000865af19150503d8060008114610f77576040519150601f19603f3d011682016040523d82523d6000602084013e610f7c565b606091505b5050905080610fcd5760405162461bcd60e51b815260206004820152601e60248201527f5472616e73666572202620436f6e76657273696f6e496e204661696c65640000604482015260640161042d565b50506110bd565b600654604080516001600160a01b038b8116602483015260448083018c905283518084039091018152606490920183526020820180516001600160e01b03166340c10f1960e01b179052915160009392909216916110329190612281565b6000604051808303816000865af19150503d806000811461106f576040519150601f19603f3d011682016040523d82523d6000602084013e611074565b606091505b50509050806110bb5760405162461bcd60e51b815260206004820152601360248201527210dbdb9d995c9cda5bdb925b8811985a5b1959606a1b604482015260640161042d565b505b60408051878152602081018990526001600160a01b038a16917f62a9b3e6446ab559d6b82c4f02cc923cd3b4e47444ef86446dab81a4d781c5af910160405180910390a25061110c6001600755565b50505050505050565b61111d6117cf565b6111276000611c73565b565b6111316117cf565b6001600160a01b0381166111575760405162461bcd60e51b815260040161042d906122c3565b6005546040516001600160a01b038084169216907f62904549814f5511a5d36a62611a6e2fe1d2c29b6de74de25d95395e0a7d009b90600090a3600580546001600160a01b0319166001600160a01b0392909216919091179055565b6111bb6117cf565b6001600160a01b0381166111e15760405162461bcd60e51b815260040161042d906122c3565b6004546040516001600160a01b0380841692610100900416907f62904549814f5511a5d36a62611a6e2fe1d2c29b6de74de25d95395e0a7d009b90600090a3600480546001600160a01b0390921661010002610100600160a81b0319909216919091179055565b84600a54811015801561125d5750600b548111155b6112a95760405162461bcd60e51b815260206004820152601a60248201527f56696f6c6174657320636f6e76657273696f6e206c696d697473000000000000604482015260640161042d565b6112b161198a565b60065486906001600160a01b03166370a08231336040516001600160e01b031960e084901b1681526001600160a01b039091166004820152602401602060405180830381865afa158015611309573d6000803e3d6000fd5b505050506040513d601f19601f8201168201806040525081019061132d9190612255565b10156113705760405162461bcd60e51b81526020600482015260126024820152714e6f7420656e6f7567682062616c616e636560701b604482015260640161042d565b60006113cd87336040516e17d7d8dbdb9d995c9cda5bdb93dd5d608a1b6020820152602f8101929092526bffffffffffffffffffffffff19606091821b8116604f840152606383018a90523090911b1660838201526097016109fd565b60085460408051600081526020810180835284905260ff89169181019190915260608101879052608081018690529192506001600160a01b03169060019060a0016020604051602081039080840390855afa158015611430573d6000803e3d6000fd5b505050602060405103516001600160a01b0316146114905760405162461bcd60e51b815260206004820152601c60248201527f496e76616c69642072657175657374206f72207369676e617475726500000000604482015260640161042d565b60008181526009602052604090205460ff16156114ef5760405162461bcd60e51b815260206004820152601f60248201527f5369676e61747572652068617320616c7265616479206265656e207573656400604482015260640161042d565b6000818152600960205260409020805460ff19166001908117909155546301000000900460ff161561155c57600260045460ff16600281111561153457611534612098565b03611546576115416119e3565b61155c565b61154f87611cc3565b61155990886122b0565b96505b6006546040805133602482015260448082018b905282518083039091018152606490910182526020810180516001600160e01b031663079cc67960e41b17905290516000926001600160a01b0316916115b491612281565b6000604051808303816000865af19150503d80600081146115f1576040519150601f19603f3d011682016040523d82523d6000602084013e6115f6565b606091505b505090508061163e5760405162461bcd60e51b815260206004820152601460248201527318dbdb9d995c9cda5bdb93dd5d0811985a5b195960621b604482015260640161042d565b60408051888152602081018a905233917fb999b06746a947f1958636b9b9377ae814fe578413dfffd4d3a7a96196fe02fc910160405180910390a250506116856001600755565b505050505050565b6116956117cf565b6001805463ff00000019169055565b6116ac6117cf565b6001600160a01b0381166117025760405162461bcd60e51b815260206004820152601860248201527f496e76616c6964206f70657261746f7220616464726573730000000000000000604482015260640161042d565b600880546001600160a01b0319166001600160a01b0383169081179091556040519081527f08f53e6a9fbc3949bc0b9266bbe1927f0b282a34d92876ccbe188c24d17c6cbb9060200160405180910390a150565b61175e6117cf565b6001600160a01b0381166117c35760405162461bcd60e51b815260206004820152602660248201527f4f776e61626c653a206e6577206f776e657220697320746865207a65726f206160448201526564647265737360d01b606482015260840161042d565b6117cc81611c73565b50565b6000546001600160a01b031633146111275760405162461bcd60e51b815260206004820181905260248201527f4f776e61626c653a2063616c6c6572206973206e6f7420746865206f776e6572604482015260640161042d565b60015460ff8881166101009092041614611852576001805461ff00191661010060ff8a16021790555b60015460ff87811662010000909204161461187e576001805462ff000019166201000060ff8916021790555b8415801561188f575060008860ff16115b156118bc576001805460ff8a1660ff199182161782556004805460009391921690835b02179055506118fe565b846001036118dc576003849055600480546001919060ff191682806118b2565b82156118fe576118eb83611e28565b60028381556004805460ff191690911790555b6004546001600160a01b0383811661010090920416146119395760048054610100600160a81b0319166101006001600160a01b038516021790555b6005546001600160a01b0382811691161480159061195f57506001600160a01b03811615155b1561198057600580546001600160a01b0319166001600160a01b0383161790555b5050505050505050565b6002600754036119dc5760405162461bcd60e51b815260206004820152601f60248201527f5265656e7472616e637947756172643a207265656e7472616e742063616c6c00604482015260640161042d565b6002600755565b60025434146111275760405162461bcd60e51b815260206004820152602b60248201527f496e616363757261746520706179656420636f6d6d697373696f6e20696e206e60448201526a30ba34bb32903a37b5b2b760a91b606482015260840161042d565b6000806000611a5684611ea7565b6006546004549294509092506000916001600160a01b03918216917fa9059cbb2ab09eb219583f4a59a5d0623ade346d962bcd4e46b11da047c9049b91610100900416611aa386866122b0565b6040516001600160a01b039092166024830152604482015260640160408051601f198184030181529181526020820180516001600160e01b03166001600160e01b0319909416939093179092529051611afc9190612281565b6000604051808303816000865af19150503d8060008114611b39576040519150601f19603f3d011682016040523d82523d6000602084013e611b3e565b606091505b50506006546005546040516001600160a01b039182166024820152604481018790529293506000929116907fa9059cbb2ab09eb219583f4a59a5d0623ade346d962bcd4e46b11da047c9049b906064015b60408051601f198184030181529181526020820180516001600160e01b03166001600160e01b0319909416939093179092529051611bcd9190612281565b6000604051808303816000865af19150503d8060008114611c0a576040519150601f19603f3d011682016040523d82523d6000602084013e611c0f565b606091505b50509050818015611c1d5750805b611c695760405162461bcd60e51b815260206004820152601a60248201527f436f6d6d697373696f6e207472616e73666572206661696c6564000000000000604482015260640161042d565b5090949350505050565b600080546001600160a01b038381166001600160a01b0319831681178455604051919092169283917f8be0079c531659141344cd1fd0a4f28419497f9722a3daafe3b4186f6b6457e09190a35050565b6000806000611cd184611ea7565b60065491935091506000906001600160a01b03167f23b872dd7302113369cda2901243429419bec145408fa8b352b3dd92b66c680b3360045461010090046001600160a01b0316611d2287876122b0565b6040516001600160a01b039384166024820152929091166044830152606482015260840160408051601f198184030181529181526020820180516001600160e01b03166001600160e01b0319909416939093179092529051611d849190612281565b6000604051808303816000865af19150503d8060008114611dc1576040519150601f19603f3d011682016040523d82523d6000602084013e611dc6565b606091505b50506006549091506000906001600160a01b03167f23b872dd7302113369cda2901243429419bec145408fa8b352b3dd92b66c680b336005546040516001600160a01b0392831660248201529116604482015260648101879052608401611b8f565b7f00000000000000000000000000000000000000000000000000000000000000008111156117cc5760405162461bcd60e51b815260206004820152602660248201527f56696f6c61746573206e617469766520746f6b656e20636f6d6d697373696f6e604482015265081b1a5b5a5d60d21b606482015260840161042d565b6000808060045460ff166002811115611ec257611ec2612098565b03611efc576001546000906103e890611ede9060ff168661221c565b611ee89190612233565b9050611ef381611f75565b94909350915050565b600160045460ff166002811115611f1557611f15612098565b03611f3357600354611f2690611f75565b6003549094909350915050565b600260045460ff166002811115611f4c57611f4c612098565b03611f6a57600254611f5d90611f75565b6002549094909350915050565b506000928392509050565b600154600090606490611f919062010000900460ff168461221c565b611f9b9190612233565b92915050565b803560ff81168114611fb257600080fd5b919050565b6001600160a01b03811681146117cc57600080fd5b60008060008060008060008060006101208a8c031215611feb57600080fd5b89358015158114611ffb57600080fd5b985061200960208b01611fa1565b975061201760408b01611fa1565b965061202560608b01611fa1565b955060808a0135945060a08a0135935060c08a0135925060e08a013561204a81611fb7565b91506101008a013561205b81611fb7565b809150509295985092959850929598565b60008060006060848603121561208157600080fd5b505081359360208301359350604090920135919050565b634e487b7160e01b600052602160045260246000fd5b60ff8a8116825289811660208301528816604082015286151560608201526080810186905260a081018590526101208101600385106120fd57634e487b7160e01b600052602160045260246000fd5b60c08201949094526001600160a01b0392831660e08201529116610100909101529695505050505050565b60008060008060008060c0878903121561214157600080fd5b863561214c81611fb7565b9550602087013594506040870135935061216860608801611fa1565b92506080870135915060a087013590509295509295509295565b60006020828403121561219457600080fd5b813561219f81611fb7565b9392505050565b600080600080600060a086880312156121be57600080fd5b85359450602086013593506121d560408701611fa1565b94979396509394606081013594506080013592915050565b634e487b7160e01b600052601160045260246000fd5b60ff8181168382160190811115611f9b57611f9b6121ed565b8082028115828204841417611f9b57611f9b6121ed565b60008261225057634e487b7160e01b600052601260045260246000fd5b500490565b60006020828403121561226757600080fd5b5051919050565b80820180821115611f9b57611f9b6121ed565b6000825160005b818110156122a25760208186018101518583015201612288565b506000920191825250919050565b81810381811115611f9b57611f9b6121ed565b6020808252602f908201527f54686520636f6d6d697373696f6e20726563697069656e74206164647265737360408201526e2063616e6e6f74206265207a65726f60881b60608201526080019056fea2646970667358221220f7d1d36c941b3ed83d41a683b381a5bf1e6f11d691b6abf1fde4e98099d6a90c64736f6c63430008130033","opcodes":"PUSH1 0xA0 PUSH1 0x40 MSTORE CALLVALUE DUP1 ISZERO PUSH3 0x11 JUMPI PUSH1 0x0 DUP1 REVERT JUMPDEST POP PUSH1 0x40 MLOAD PUSH3 0x2903 CODESIZE SUB DUP1 PUSH3 0x2903 DUP4 CODECOPY DUP2 ADD PUSH1 0x40 DUP2 SWAP1 MSTORE PUSH3 0x34 SWAP2 PUSH3 0x4A7 JUMP JUMPDEST DUP10 DUP10 DUP10 DUP10 DUP10 DUP10 DUP10 DUP10 DUP10 DUP10 PUSH3 0x49 CALLER PUSH3 0x249 JUMP JUMPDEST DUP9 PUSH2 0x3E8 DUP2 PUSH1 0xFF AND GT ISZERO PUSH3 0xA5 JUMPI PUSH1 0x40 MLOAD PUSH3 0x461BCD PUSH1 0xE5 SHL DUP2 MSTORE PUSH1 0x20 PUSH1 0x4 DUP3 ADD MSTORE PUSH1 0x1A PUSH1 0x24 DUP3 ADD MSTORE PUSH32 0x56696F6C617465732070657263656E74616765206C696D697473000000000000 PUSH1 0x44 DUP3 ADD MSTORE PUSH1 0x64 ADD JUMPDEST PUSH1 0x40 MLOAD DUP1 SWAP2 SUB SWAP1 REVERT JUMPDEST DUP9 DUP9 PUSH1 0x64 PUSH3 0xB5 DUP3 DUP5 PUSH3 0x571 JUMP JUMPDEST PUSH1 0xFF AND EQ PUSH3 0x113 JUMPI PUSH1 0x40 MLOAD PUSH3 0x461BCD PUSH1 0xE5 SHL DUP2 MSTORE PUSH1 0x20 PUSH1 0x4 DUP3 ADD MSTORE PUSH1 0x24 DUP1 DUP3 ADD MSTORE PUSH32 0x53756D206F662070726F706F7274696F6E2069736E277420657175616C20746F PUSH1 0x44 DUP3 ADD MSTORE PUSH4 0x2031303 PUSH1 0xE4 SHL PUSH1 0x64 DUP3 ADD MSTORE PUSH1 0x84 ADD PUSH3 0x9C JUMP JUMPDEST PUSH1 0x80 DUP8 SWAP1 MSTORE DUP13 ISZERO PUSH3 0x1C7 JUMPI PUSH1 0x1 DUP1 SLOAD PUSH4 0xFF000000 NOT AND PUSH4 0x1000000 OR SWAP1 SSTORE PUSH3 0x144 DUP13 DUP13 DUP13 DUP13 DUP11 DUP14 DUP12 DUP12 PUSH3 0x299 JUMP JUMPDEST PUSH1 0x40 DUP1 MLOAD DUP15 ISZERO ISZERO DUP2 MSTORE PUSH1 0xFF DUP15 DUP2 AND PUSH1 0x20 DUP4 ADD MSTORE DUP14 DUP2 AND DUP3 DUP5 ADD MSTORE DUP13 AND PUSH1 0x60 DUP3 ADD MSTORE PUSH1 0x80 DUP2 ADD DUP12 SWAP1 MSTORE PUSH1 0xA0 DUP2 ADD DUP9 SWAP1 MSTORE PUSH1 0xC0 DUP2 ADD DUP11 SWAP1 MSTORE PUSH1 0x1 PUSH1 0x1 PUSH1 0xA0 SHL SUB DUP8 DUP2 AND PUSH1 0xE0 DUP4 ADD MSTORE DUP7 AND PUSH2 0x100 DUP3 ADD MSTORE TIMESTAMP PUSH2 0x120 DUP3 ADD MSTORE SWAP1 MLOAD PUSH32 0x2384CD55758CFEA276BC7F0E2E210BE39CC8067F80F2B475D52286FD65D36DB0 SWAP2 DUP2 SWAP1 SUB PUSH2 0x140 ADD SWAP1 LOG1 JUMPDEST POP POP POP POP POP POP POP POP POP POP POP POP POP PUSH1 0x1 PUSH1 0x7 DUP2 SWAP1 SSTORE POP DUP11 PUSH1 0x6 PUSH1 0x0 PUSH2 0x100 EXP DUP2 SLOAD DUP2 PUSH1 0x1 PUSH1 0x1 PUSH1 0xA0 SHL SUB MUL NOT AND SWAP1 DUP4 PUSH1 0x1 PUSH1 0x1 PUSH1 0xA0 SHL SUB AND MUL OR SWAP1 SSTORE POP PUSH3 0x213 PUSH3 0x245 PUSH1 0x20 SHL PUSH1 0x20 SHR JUMP JUMPDEST PUSH1 0x8 DUP1 SLOAD PUSH1 0x1 PUSH1 0x1 PUSH1 0xA0 SHL SUB NOT AND PUSH1 0x1 PUSH1 0x1 PUSH1 0xA0 SHL SUB SWAP3 SWAP1 SWAP3 AND SWAP2 SWAP1 SWAP2 OR SWAP1 SSTORE POP PUSH3 0x59F SWAP10 POP POP POP POP POP POP POP POP POP POP JUMP JUMPDEST CALLER SWAP1 JUMP JUMPDEST PUSH1 0x0 DUP1 SLOAD PUSH1 0x1 PUSH1 0x1 PUSH1 0xA0 SHL SUB DUP4 DUP2 AND PUSH1 0x1 PUSH1 0x1 PUSH1 0xA0 SHL SUB NOT DUP4 AND DUP2 OR DUP5 SSTORE PUSH1 0x40 MLOAD SWAP2 SWAP1 SWAP3 AND SWAP3 DUP4 SWAP2 PUSH32 0x8BE0079C531659141344CD1FD0A4F28419497F9722A3DAAFE3B4186F6B6457E0 SWAP2 SWAP1 LOG3 POP POP JUMP JUMPDEST PUSH1 0x1 SLOAD PUSH1 0xFF DUP9 DUP2 AND PUSH2 0x100 SWAP1 SWAP3 DIV AND EQ PUSH3 0x2C3 JUMPI PUSH1 0x1 DUP1 SLOAD PUSH2 0xFF00 NOT AND PUSH2 0x100 PUSH1 0xFF DUP11 AND MUL OR SWAP1 SSTORE JUMPDEST PUSH1 0x1 SLOAD PUSH1 0xFF DUP8 DUP2 AND PUSH3 0x10000 SWAP1 SWAP3 DIV AND EQ PUSH3 0x2F0 JUMPI PUSH1 0x1 DUP1 SLOAD PUSH3 0xFF0000 NOT AND PUSH3 0x10000 PUSH1 0xFF DUP10 AND MUL OR SWAP1 SSTORE JUMPDEST DUP5 ISZERO DUP1 ISZERO PUSH3 0x302 JUMPI POP PUSH1 0x0 DUP9 PUSH1 0xFF AND GT JUMPDEST ISZERO PUSH3 0x331 JUMPI PUSH1 0x1 DUP1 SLOAD PUSH1 0xFF DUP11 AND PUSH1 0xFF NOT SWAP2 DUP3 AND OR DUP3 SSTORE PUSH1 0x4 DUP1 SLOAD PUSH1 0x0 SWAP4 SWAP2 SWAP3 AND SWAP1 DUP4 JUMPDEST MUL OR SWAP1 SSTORE POP PUSH3 0x378 JUMP JUMPDEST DUP5 PUSH1 0x1 SUB PUSH3 0x353 JUMPI PUSH1 0x3 DUP5 SWAP1 SSTORE PUSH1 0x4 DUP1 SLOAD PUSH1 0x1 SWAP2 SWAP1 PUSH1 0xFF NOT AND DUP3 DUP1 PUSH3 0x326 JUMP JUMPDEST DUP3 ISZERO PUSH3 0x378 JUMPI PUSH3 0x365 DUP4 PUSH3 0x407 JUMP JUMPDEST PUSH1 0x2 DUP4 DUP2 SSTORE PUSH1 0x4 DUP1 SLOAD PUSH1 0xFF NOT AND SWAP1 SWAP2 OR SWAP1 SSTORE JUMPDEST PUSH1 0x4 SLOAD PUSH1 0x1 PUSH1 0x1 PUSH1 0xA0 SHL SUB DUP4 DUP2 AND PUSH2 0x100 SWAP1 SWAP3 DIV AND EQ PUSH3 0x3B4 JUMPI PUSH1 0x4 DUP1 SLOAD PUSH2 0x100 PUSH1 0x1 PUSH1 0xA8 SHL SUB NOT AND PUSH2 0x100 PUSH1 0x1 PUSH1 0x1 PUSH1 0xA0 SHL SUB DUP6 AND MUL OR SWAP1 SSTORE JUMPDEST PUSH1 0x5 SLOAD PUSH1 0x1 PUSH1 0x1 PUSH1 0xA0 SHL SUB DUP3 DUP2 AND SWAP2 AND EQ DUP1 ISZERO SWAP1 PUSH3 0x3DB JUMPI POP PUSH1 0x1 PUSH1 0x1 PUSH1 0xA0 SHL SUB DUP2 AND ISZERO ISZERO JUMPDEST ISZERO PUSH3 0x3FD JUMPI PUSH1 0x5 DUP1 SLOAD PUSH1 0x1 PUSH1 0x1 PUSH1 0xA0 SHL SUB NOT AND PUSH1 0x1 PUSH1 0x1 PUSH1 0xA0 SHL SUB DUP4 AND OR SWAP1 SSTORE JUMPDEST POP POP POP POP POP POP POP POP JUMP JUMPDEST PUSH1 0x80 MLOAD DUP2 GT ISZERO PUSH3 0x46A JUMPI PUSH1 0x40 MLOAD PUSH3 0x461BCD PUSH1 0xE5 SHL DUP2 MSTORE PUSH1 0x20 PUSH1 0x4 DUP3 ADD MSTORE PUSH1 0x26 PUSH1 0x24 DUP3 ADD MSTORE PUSH32 0x56696F6C61746573206E617469766520746F6B656E20636F6D6D697373696F6E PUSH1 0x44 DUP3 ADD MSTORE PUSH6 0x81B1A5B5A5D PUSH1 0xD2 SHL PUSH1 0x64 DUP3 ADD MSTORE PUSH1 0x84 ADD PUSH3 0x9C JUMP JUMPDEST POP JUMP JUMPDEST PUSH1 0x1 PUSH1 0x1 PUSH1 0xA0 SHL SUB DUP2 AND DUP2 EQ PUSH3 0x46A JUMPI PUSH1 0x0 DUP1 REVERT JUMPDEST DUP1 MLOAD PUSH1 0xFF DUP2 AND DUP2 EQ PUSH3 0x495 JUMPI PUSH1 0x0 DUP1 REVERT JUMPDEST SWAP2 SWAP1 POP JUMP JUMPDEST DUP1 MLOAD PUSH3 0x495 DUP2 PUSH3 0x46D JUMP JUMPDEST PUSH1 0x0 DUP1 PUSH1 0x0 DUP1 PUSH1 0x0 DUP1 PUSH1 0x0 DUP1 PUSH1 0x0 DUP1 PUSH1 0x0 PUSH2 0x160 DUP13 DUP15 SUB SLT ISZERO PUSH3 0x4CA JUMPI PUSH1 0x0 DUP1 REVERT JUMPDEST DUP12 MLOAD PUSH3 0x4D7 DUP2 PUSH3 0x46D JUMP JUMPDEST PUSH1 0x20 DUP14 ADD MLOAD SWAP1 SWAP12 POP DUP1 ISZERO ISZERO DUP2 EQ PUSH3 0x4EE JUMPI PUSH1 0x0 DUP1 REVERT JUMPDEST SWAP10 POP PUSH3 0x4FE PUSH1 0x40 DUP14 ADD PUSH3 0x483 JUMP JUMPDEST SWAP9 POP PUSH3 0x50E PUSH1 0x60 DUP14 ADD PUSH3 0x483 JUMP JUMPDEST SWAP8 POP PUSH3 0x51E PUSH1 0x80 DUP14 ADD PUSH3 0x483 JUMP JUMPDEST SWAP7 POP PUSH1 0xA0 DUP13 ADD MLOAD SWAP6 POP PUSH1 0xC0 DUP13 ADD MLOAD SWAP5 POP PUSH1 0xE0 DUP13 ADD MLOAD SWAP4 POP PUSH2 0x100 DUP13 ADD MLOAD SWAP3 POP PUSH2 0x120 DUP13 ADD MLOAD PUSH3 0x54E DUP2 PUSH3 0x46D JUMP JUMPDEST SWAP2 POP PUSH3 0x55F PUSH2 0x140 DUP14 ADD PUSH3 0x49A JUMP JUMPDEST SWAP1 POP SWAP3 SWAP6 SWAP9 SWAP12 POP SWAP3 SWAP6 SWAP9 SWAP12 SWAP1 SWAP4 SWAP7 SWAP10 POP JUMP JUMPDEST PUSH1 0xFF DUP2 DUP2 AND DUP4 DUP3 AND ADD SWAP1 DUP2 GT ISZERO PUSH3 0x599 JUMPI PUSH4 0x4E487B71 PUSH1 0xE0 SHL PUSH1 0x0 MSTORE PUSH1 0x11 PUSH1 0x4 MSTORE PUSH1 0x24 PUSH1 0x0 REVERT JUMPDEST SWAP3 SWAP2 POP POP JUMP JUMPDEST PUSH1 0x80 MLOAD PUSH2 0x2348 PUSH3 0x5BB PUSH1 0x0 CODECOPY PUSH1 0x0 PUSH2 0x1E2A ADD MSTORE PUSH2 0x2348 PUSH1 0x0 RETURN INVALID PUSH1 0x80 PUSH1 0x40 MSTORE PUSH1 0x4 CALLDATASIZE LT PUSH2 0xFE JUMPI PUSH1 0x0 CALLDATALOAD PUSH1 0xE0 SHR DUP1 PUSH4 0x87319F5F GT PUSH2 0x95 JUMPI DUP1 PUSH4 0x9F23C9E2 GT PUSH2 0x64 JUMPI DUP1 PUSH4 0x9F23C9E2 EQ PUSH2 0x33A JUMPI DUP1 PUSH4 0xB26E099F EQ PUSH2 0x34D JUMPI DUP1 PUSH4 0xE0A66578 EQ PUSH2 0x362 JUMPI DUP1 PUSH4 0xF2FDE38B EQ PUSH2 0x382 JUMPI DUP1 PUSH4 0xFEEA1529 EQ PUSH2 0x3A2 JUMPI PUSH1 0x0 DUP1 REVERT JUMPDEST DUP1 PUSH4 0x87319F5F EQ PUSH2 0x292 JUMPI DUP1 PUSH4 0x8DA5CB5B EQ PUSH2 0x2C4 JUMPI DUP1 PUSH4 0x94ACA02A EQ PUSH2 0x2E2 JUMPI DUP1 PUSH4 0x9CB71686 EQ PUSH2 0x302 JUMPI PUSH1 0x0 DUP1 REVERT JUMPDEST DUP1 PUSH4 0x58A93688 GT PUSH2 0xD1 JUMPI DUP1 PUSH4 0x58A93688 EQ PUSH2 0x1D5 JUMPI DUP1 PUSH4 0x6A02FCC4 EQ PUSH2 0x24A JUMPI DUP1 PUSH4 0x715018A6 EQ PUSH2 0x25D JUMPI DUP1 PUSH4 0x7C522D28 EQ PUSH2 0x272 JUMPI PUSH1 0x0 DUP1 REVERT JUMPDEST DUP1 PUSH4 0x94C3159 EQ PUSH2 0x103 JUMPI DUP1 PUSH4 0x37C15626 EQ PUSH2 0x125 JUMPI DUP1 PUSH4 0x529C0970 EQ PUSH2 0x13A JUMPI DUP1 PUSH4 0x5531E774 EQ PUSH2 0x15A JUMPI JUMPDEST PUSH1 0x0 DUP1 REVERT JUMPDEST CALLVALUE DUP1 ISZERO PUSH2 0x10F JUMPI PUSH1 0x0 DUP1 REVERT JUMPDEST POP PUSH2 0x123 PUSH2 0x11E CALLDATASIZE PUSH1 0x4 PUSH2 0x1FCC JUMP JUMPDEST PUSH2 0x3D3 JUMP JUMPDEST STOP JUMPDEST CALLVALUE DUP1 ISZERO PUSH2 0x131 JUMPI PUSH1 0x0 DUP1 REVERT JUMPDEST POP PUSH2 0x123 PUSH2 0x565 JUMP JUMPDEST CALLVALUE DUP1 ISZERO PUSH2 0x146 JUMPI PUSH1 0x0 DUP1 REVERT JUMPDEST POP PUSH2 0x123 PUSH2 0x155 CALLDATASIZE PUSH1 0x4 PUSH2 0x206C JUMP JUMPDEST PUSH2 0x77F JUMP JUMPDEST CALLVALUE DUP1 ISZERO PUSH2 0x166 JUMPI PUSH1 0x0 DUP1 REVERT JUMPDEST POP PUSH1 0x1 SLOAD PUSH1 0x2 SLOAD PUSH1 0x3 SLOAD PUSH1 0x4 SLOAD PUSH1 0x5 SLOAD PUSH2 0x1B7 SWAP5 PUSH1 0xFF DUP1 DUP3 AND SWAP6 PUSH2 0x100 DUP1 DUP5 DIV DUP4 AND SWAP7 PUSH3 0x10000 DUP6 DIV DUP5 AND SWAP7 PUSH4 0x1000000 SWAP1 SWAP6 DIV DUP5 AND SWAP6 SWAP3 SWAP5 SWAP1 SWAP4 DUP2 AND SWAP3 PUSH1 0x1 PUSH1 0x1 PUSH1 0xA0 SHL SUB SWAP3 SWAP1 SWAP2 DIV DUP3 AND SWAP2 AND DUP10 JUMP JUMPDEST PUSH1 0x40 MLOAD PUSH2 0x1CC SWAP10 SWAP9 SWAP8 SWAP7 SWAP6 SWAP5 SWAP4 SWAP3 SWAP2 SWAP1 PUSH2 0x20AE JUMP JUMPDEST PUSH1 0x40 MLOAD DUP1 SWAP2 SUB SWAP1 RETURN JUMPDEST CALLVALUE DUP1 ISZERO PUSH2 0x1E1 JUMPI PUSH1 0x0 DUP1 REVERT JUMPDEST POP PUSH2 0x1EA PUSH2 0x834 JUMP JUMPDEST PUSH1 0x40 DUP1 MLOAD SWAP11 ISZERO ISZERO DUP12 MSTORE PUSH1 0xFF SWAP10 DUP11 AND PUSH1 0x20 DUP13 ADD MSTORE SWAP8 DUP10 AND SWAP8 DUP11 ADD SWAP8 SWAP1 SWAP8 MSTORE SWAP5 SWAP1 SWAP7 AND PUSH1 0x60 DUP9 ADD MSTORE PUSH1 0x80 DUP8 ADD SWAP3 SWAP1 SWAP3 MSTORE PUSH1 0xA0 DUP7 ADD MSTORE PUSH1 0xC0 DUP6 ADD MSTORE PUSH1 0x1 PUSH1 0x1 PUSH1 0xA0 SHL SUB SWAP3 DUP4 AND PUSH1 0xE0 DUP6 ADD MSTORE DUP3 AND PUSH2 0x100 DUP5 ADD MSTORE AND PUSH2 0x120 DUP3 ADD MSTORE PUSH2 0x140 ADD PUSH2 0x1CC JUMP JUMPDEST PUSH2 0x123 PUSH2 0x258 CALLDATASIZE PUSH1 0x4 PUSH2 0x2128 JUMP JUMPDEST PUSH2 0x8F5 JUMP JUMPDEST CALLVALUE DUP1 ISZERO PUSH2 0x269 JUMPI PUSH1 0x0 DUP1 REVERT JUMPDEST POP PUSH2 0x123 PUSH2 0x1115 JUMP JUMPDEST CALLVALUE DUP1 ISZERO PUSH2 0x27E JUMPI PUSH1 0x0 DUP1 REVERT JUMPDEST POP PUSH2 0x123 PUSH2 0x28D CALLDATASIZE PUSH1 0x4 PUSH2 0x2182 JUMP JUMPDEST PUSH2 0x1129 JUMP JUMPDEST CALLVALUE DUP1 ISZERO PUSH2 0x29E JUMPI PUSH1 0x0 DUP1 REVERT JUMPDEST POP PUSH1 0x8 SLOAD PUSH1 0x1 PUSH1 0x1 PUSH1 0xA0 SHL SUB AND JUMPDEST PUSH1 0x40 MLOAD PUSH1 0x1 PUSH1 0x1 PUSH1 0xA0 SHL SUB SWAP1 SWAP2 AND DUP2 MSTORE PUSH1 0x20 ADD PUSH2 0x1CC JUMP JUMPDEST CALLVALUE DUP1 ISZERO PUSH2 0x2D0 JUMPI PUSH1 0x0 DUP1 REVERT JUMPDEST POP PUSH1 0x0 SLOAD PUSH1 0x1 PUSH1 0x1 PUSH1 0xA0 SHL SUB AND PUSH2 0x2AC JUMP JUMPDEST CALLVALUE DUP1 ISZERO PUSH2 0x2EE JUMPI PUSH1 0x0 DUP1 REVERT JUMPDEST POP PUSH2 0x123 PUSH2 0x2FD CALLDATASIZE PUSH1 0x4 PUSH2 0x2182 JUMP JUMPDEST PUSH2 0x11B3 JUMP JUMPDEST CALLVALUE DUP1 ISZERO PUSH2 0x30E JUMPI PUSH1 0x0 DUP1 REVERT JUMPDEST POP PUSH1 0x4 SLOAD PUSH1 0x5 SLOAD PUSH1 0x40 DUP1 MLOAD PUSH2 0x100 SWAP1 SWAP4 DIV PUSH1 0x1 PUSH1 0x1 PUSH1 0xA0 SHL SUB SWAP1 DUP2 AND DUP5 MSTORE SWAP1 SWAP2 AND PUSH1 0x20 DUP4 ADD MSTORE ADD PUSH2 0x1CC JUMP JUMPDEST PUSH2 0x123 PUSH2 0x348 CALLDATASIZE PUSH1 0x4 PUSH2 0x21A6 JUMP JUMPDEST PUSH2 0x1248 JUMP JUMPDEST CALLVALUE DUP1 ISZERO PUSH2 0x359 JUMPI PUSH1 0x0 DUP1 REVERT JUMPDEST POP PUSH2 0x123 PUSH2 0x168D JUMP JUMPDEST CALLVALUE DUP1 ISZERO PUSH2 0x36E JUMPI PUSH1 0x0 DUP1 REVERT JUMPDEST POP PUSH2 0x123 PUSH2 0x37D CALLDATASIZE PUSH1 0x4 PUSH2 0x2182 JUMP JUMPDEST PUSH2 0x16A4 JUMP JUMPDEST CALLVALUE DUP1 ISZERO PUSH2 0x38E JUMPI PUSH1 0x0 DUP1 REVERT JUMPDEST POP PUSH2 0x123 PUSH2 0x39D CALLDATASIZE PUSH1 0x4 PUSH2 0x2182 JUMP JUMPDEST PUSH2 0x1756 JUMP JUMPDEST CALLVALUE DUP1 ISZERO PUSH2 0x3AE JUMPI PUSH1 0x0 DUP1 REVERT JUMPDEST POP PUSH1 0xA SLOAD PUSH1 0xB SLOAD PUSH1 0xC SLOAD PUSH1 0x40 DUP1 MLOAD SWAP4 DUP5 MSTORE PUSH1 0x20 DUP5 ADD SWAP3 SWAP1 SWAP3 MSTORE SWAP1 DUP3 ADD MSTORE PUSH1 0x60 ADD PUSH2 0x1CC JUMP JUMPDEST PUSH2 0x3DB PUSH2 0x17CF JUMP JUMPDEST DUP6 PUSH2 0x3E8 DUP2 PUSH1 0xFF AND GT ISZERO PUSH2 0x436 JUMPI PUSH1 0x40 MLOAD PUSH3 0x461BCD PUSH1 0xE5 SHL DUP2 MSTORE PUSH1 0x20 PUSH1 0x4 DUP3 ADD MSTORE PUSH1 0x1A PUSH1 0x24 DUP3 ADD MSTORE PUSH32 0x56696F6C617465732070657263656E74616765206C696D697473000000000000 PUSH1 0x44 DUP3 ADD MSTORE PUSH1 0x64 ADD JUMPDEST PUSH1 0x40 MLOAD DUP1 SWAP2 SUB SWAP1 REVERT JUMPDEST DUP9 DUP9 PUSH1 0x64 PUSH2 0x444 DUP3 DUP5 PUSH2 0x2203 JUMP JUMPDEST PUSH1 0xFF AND EQ PUSH2 0x4A0 JUMPI PUSH1 0x40 MLOAD PUSH3 0x461BCD PUSH1 0xE5 SHL DUP2 MSTORE PUSH1 0x20 PUSH1 0x4 DUP3 ADD MSTORE PUSH1 0x24 DUP1 DUP3 ADD MSTORE PUSH32 0x53756D206F662070726F706F7274696F6E2069736E277420657175616C20746F PUSH1 0x44 DUP3 ADD MSTORE PUSH4 0x2031303 PUSH1 0xE4 SHL PUSH1 0x64 DUP3 ADD MSTORE PUSH1 0x84 ADD PUSH2 0x42D JUMP JUMPDEST PUSH1 0x1 SLOAD PUSH4 0x1000000 SWAP1 DIV PUSH1 0xFF AND PUSH2 0x4C5 JUMPI PUSH1 0x1 DUP1 SLOAD PUSH4 0xFF000000 NOT AND PUSH4 0x1000000 OR SWAP1 SSTORE JUMPDEST PUSH2 0x4D5 DUP10 DUP13 DUP13 DUP12 DUP12 DUP12 DUP12 DUP12 PUSH2 0x1829 JUMP JUMPDEST PUSH1 0x40 DUP1 MLOAD DUP14 ISZERO ISZERO DUP2 MSTORE PUSH1 0xFF DUP12 DUP2 AND PUSH1 0x20 DUP4 ADD MSTORE DUP14 DUP2 AND DUP3 DUP5 ADD MSTORE DUP13 AND PUSH1 0x60 DUP3 ADD MSTORE PUSH1 0x80 DUP2 ADD DUP11 SWAP1 MSTORE PUSH1 0xA0 DUP2 ADD DUP10 SWAP1 MSTORE PUSH1 0xC0 DUP2 ADD DUP9 SWAP1 MSTORE PUSH1 0x1 PUSH1 0x1 PUSH1 0xA0 SHL SUB DUP8 DUP2 AND PUSH1 0xE0 DUP4 ADD MSTORE DUP7 AND PUSH2 0x100 DUP3 ADD MSTORE TIMESTAMP PUSH2 0x120 DUP3 ADD MSTORE SWAP1 MLOAD PUSH32 0x2384CD55758CFEA276BC7F0E2E210BE39CC8067F80F2B475D52286FD65D36DB0 SWAP2 DUP2 SWAP1 SUB PUSH2 0x140 ADD SWAP1 LOG1 POP POP POP POP POP POP POP POP POP POP POP POP JUMP JUMPDEST CALLER PUSH1 0x4 SLOAD PUSH2 0x100 SWAP1 DIV PUSH1 0x1 PUSH1 0x1 PUSH1 0xA0 SHL SUB AND CALLER PUSH1 0x1 PUSH1 0x1 PUSH1 0xA0 SHL SUB AND EQ DUP1 PUSH2 0x5A0 JUMPI POP PUSH1 0x5 SLOAD PUSH1 0x1 PUSH1 0x1 PUSH1 0xA0 SHL SUB AND CALLER PUSH1 0x1 PUSH1 0x1 PUSH1 0xA0 SHL SUB AND EQ JUMPDEST PUSH2 0x5F8 JUMPI PUSH1 0x40 MLOAD PUSH3 0x461BCD PUSH1 0xE5 SHL DUP2 MSTORE PUSH1 0x20 PUSH1 0x4 DUP3 ADD MSTORE PUSH1 0x23 PUSH1 0x24 DUP3 ADD MSTORE PUSH32 0x5369676E6572206973206E6F74206120636F6D6D697373696F6E207265636569 PUSH1 0x44 DUP3 ADD MSTORE PUSH3 0x3B32B9 PUSH1 0xE9 SHL PUSH1 0x64 DUP3 ADD MSTORE PUSH1 0x84 ADD PUSH2 0x42D JUMP JUMPDEST SELFBALANCE DUP1 PUSH2 0x603 JUMPI PUSH1 0x0 DUP1 REVERT JUMPDEST PUSH1 0x4 SLOAD PUSH1 0x1 SLOAD PUSH1 0x0 SWAP2 PUSH2 0x100 SWAP1 DUP2 SWAP1 DIV PUSH1 0x1 PUSH1 0x1 PUSH1 0xA0 SHL SUB AND SWAP2 PUSH1 0x64 SWAP2 PUSH2 0x62E SWAP2 DIV PUSH1 0xFF AND DUP6 PUSH2 0x221C JUMP JUMPDEST PUSH2 0x638 SWAP2 SWAP1 PUSH2 0x2233 JUMP JUMPDEST PUSH1 0x40 MLOAD PUSH1 0x0 DUP2 DUP2 DUP2 DUP6 DUP8 GAS CALL SWAP3 POP POP POP RETURNDATASIZE DUP1 PUSH1 0x0 DUP2 EQ PUSH2 0x674 JUMPI PUSH1 0x40 MLOAD SWAP2 POP PUSH1 0x1F NOT PUSH1 0x3F RETURNDATASIZE ADD AND DUP3 ADD PUSH1 0x40 MSTORE RETURNDATASIZE DUP3 MSTORE RETURNDATASIZE PUSH1 0x0 PUSH1 0x20 DUP5 ADD RETURNDATACOPY PUSH2 0x679 JUMP JUMPDEST PUSH1 0x60 SWAP2 POP JUMPDEST POP POP PUSH1 0x5 SLOAD PUSH1 0x1 SLOAD SWAP2 SWAP3 POP PUSH1 0x0 SWAP2 PUSH1 0x1 PUSH1 0x1 PUSH1 0xA0 SHL SUB SWAP1 SWAP2 AND SWAP1 PUSH1 0x64 SWAP1 PUSH2 0x6A9 SWAP1 PUSH3 0x10000 SWAP1 DIV PUSH1 0xFF AND DUP7 PUSH2 0x221C JUMP JUMPDEST PUSH2 0x6B3 SWAP2 SWAP1 PUSH2 0x2233 JUMP JUMPDEST PUSH1 0x40 MLOAD PUSH1 0x0 DUP2 DUP2 DUP2 DUP6 DUP8 GAS CALL SWAP3 POP POP POP RETURNDATASIZE DUP1 PUSH1 0x0 DUP2 EQ PUSH2 0x6EF JUMPI PUSH1 0x40 MLOAD SWAP2 POP PUSH1 0x1F NOT PUSH1 0x3F RETURNDATASIZE ADD AND DUP3 ADD PUSH1 0x40 MSTORE RETURNDATASIZE DUP3 MSTORE RETURNDATASIZE PUSH1 0x0 PUSH1 0x20 DUP5 ADD RETURNDATACOPY PUSH2 0x6F4 JUMP JUMPDEST PUSH1 0x60 SWAP2 POP JUMPDEST POP POP SWAP1 POP DUP2 DUP1 ISZERO PUSH2 0x702 JUMPI POP DUP1 JUMPDEST PUSH2 0x74E JUMPI PUSH1 0x40 MLOAD PUSH3 0x461BCD PUSH1 0xE5 SHL DUP2 MSTORE PUSH1 0x20 PUSH1 0x4 DUP3 ADD MSTORE PUSH1 0x17 PUSH1 0x24 DUP3 ADD MSTORE PUSH32 0x436F6D6D697373696F6E20636C61696D206661696C6564000000000000000000 PUSH1 0x44 DUP3 ADD MSTORE PUSH1 0x64 ADD PUSH2 0x42D JUMP JUMPDEST PUSH1 0x40 MLOAD TIMESTAMP SWAP1 PUSH32 0x5B64F7990EC4169EC43E750EA74CD6E76BBBD2A11D79841622BDDA84BA9D561E SWAP1 PUSH1 0x0 SWAP1 LOG2 POP POP POP POP JUMP JUMPDEST PUSH2 0x787 PUSH2 0x17CF JUMP JUMPDEST PUSH1 0x0 DUP4 GT DUP1 ISZERO PUSH2 0x796 JUMPI POP DUP3 DUP3 GT JUMPDEST DUP1 ISZERO PUSH2 0x7A2 JUMPI POP PUSH1 0x0 DUP2 GT JUMPDEST PUSH2 0x7DF JUMPI PUSH1 0x40 MLOAD PUSH3 0x461BCD PUSH1 0xE5 SHL DUP2 MSTORE PUSH1 0x20 PUSH1 0x4 DUP3 ADD MSTORE PUSH1 0xE PUSH1 0x24 DUP3 ADD MSTORE PUSH14 0x496E76616C696420696E70757473 PUSH1 0x90 SHL PUSH1 0x44 DUP3 ADD MSTORE PUSH1 0x64 ADD PUSH2 0x42D JUMP JUMPDEST PUSH1 0xA DUP4 SWAP1 SSTORE PUSH1 0xB DUP3 SWAP1 SSTORE PUSH1 0xC DUP2 SWAP1 SSTORE PUSH1 0x40 DUP1 MLOAD DUP5 DUP2 MSTORE PUSH1 0x20 DUP2 ADD DUP5 SWAP1 MSTORE SWAP1 DUP2 ADD DUP3 SWAP1 MSTORE PUSH32 0xB2EFB0AA6E279553A1E5567EBB495D322192AA43C5FC3073CBA4601D52009AB4 SWAP1 PUSH1 0x60 ADD PUSH1 0x40 MLOAD DUP1 SWAP2 SUB SWAP1 LOG1 POP POP POP JUMP JUMPDEST PUSH1 0x1 SLOAD PUSH1 0x4 SLOAD PUSH1 0x0 SWAP2 DUP3 SWAP2 DUP3 SWAP2 DUP3 SWAP2 DUP3 SWAP2 DUP3 SWAP2 DUP3 SWAP2 DUP3 SWAP2 DUP3 SWAP2 DUP3 SWAP2 PUSH1 0xFF PUSH4 0x1000000 DUP4 DIV DUP2 AND SWAP3 PUSH2 0x100 DUP2 DIV DUP3 AND SWAP3 PUSH3 0x10000 DUP3 DIV DUP4 AND SWAP3 SWAP2 DUP3 AND SWAP2 AND PUSH1 0x2 DUP2 GT ISZERO PUSH2 0x882 JUMPI PUSH2 0x882 PUSH2 0x2098 JUMP JUMPDEST PUSH1 0x1 PUSH1 0x2 ADD SLOAD PUSH1 0x1 DUP1 ADD SLOAD PUSH1 0x1 PUSH1 0x3 ADD PUSH1 0x1 SWAP1 SLOAD SWAP1 PUSH2 0x100 EXP SWAP1 DIV PUSH1 0x1 PUSH1 0x1 PUSH1 0xA0 SHL SUB AND PUSH1 0x1 PUSH1 0x4 ADD PUSH1 0x0 SWAP1 SLOAD SWAP1 PUSH2 0x100 EXP SWAP1 DIV PUSH1 0x1 PUSH1 0x1 PUSH1 0xA0 SHL SUB AND PUSH1 0x6 PUSH1 0x0 SWAP1 SLOAD SWAP1 PUSH2 0x100 EXP SWAP1 DIV PUSH1 0x1 PUSH1 0x1 PUSH1 0xA0 SHL SUB AND SWAP10 POP SWAP10 POP SWAP10 POP SWAP10 POP SWAP10 POP SWAP10 POP SWAP10 POP SWAP10 POP SWAP10 POP SWAP10 POP SWAP1 SWAP2 SWAP3 SWAP4 SWAP5 SWAP6 SWAP7 SWAP8 SWAP9 SWAP10 JUMP JUMPDEST DUP5 PUSH1 0xA SLOAD DUP2 LT ISZERO DUP1 ISZERO PUSH2 0x90A JUMPI POP PUSH1 0xB SLOAD DUP2 GT ISZERO JUMPDEST PUSH2 0x956 JUMPI PUSH1 0x40 MLOAD PUSH3 0x461BCD PUSH1 0xE5 SHL DUP2 MSTORE PUSH1 0x20 PUSH1 0x4 DUP3 ADD MSTORE PUSH1 0x1A PUSH1 0x24 DUP3 ADD MSTORE PUSH32 0x56696F6C6174657320636F6E76657273696F6E206C696D697473000000000000 PUSH1 0x44 DUP3 ADD MSTORE PUSH1 0x64 ADD PUSH2 0x42D JUMP JUMPDEST PUSH2 0x95E PUSH2 0x198A JUMP JUMPDEST PUSH1 0x1 PUSH1 0x1 PUSH1 0xA0 SHL SUB DUP8 AND PUSH2 0x9A5 JUMPI PUSH1 0x40 MLOAD PUSH3 0x461BCD PUSH1 0xE5 SHL DUP2 MSTORE PUSH1 0x20 PUSH1 0x4 DUP3 ADD MSTORE PUSH1 0xE PUSH1 0x24 DUP3 ADD MSTORE PUSH14 0x125B9D985B1A59081DD85B1B195D PUSH1 0x92 SHL PUSH1 0x44 DUP3 ADD MSTORE PUSH1 0x64 ADD PUSH2 0x42D JUMP JUMPDEST PUSH1 0x0 PUSH2 0xA5D DUP8 CALLER PUSH1 0x40 MLOAD PUSH14 0x2FAFB1B7B73B32B939B4B7B724B7 PUSH1 0x91 SHL PUSH1 0x20 DUP3 ADD MSTORE PUSH1 0x2E DUP2 ADD SWAP3 SWAP1 SWAP3 MSTORE PUSH12 0xFFFFFFFFFFFFFFFFFFFFFFFF NOT PUSH1 0x60 SWAP2 DUP3 SHL DUP2 AND PUSH1 0x4E DUP5 ADD MSTORE PUSH1 0x62 DUP4 ADD DUP11 SWAP1 MSTORE ADDRESS SWAP1 SWAP2 SHL AND PUSH1 0x82 DUP3 ADD MSTORE PUSH1 0x96 ADD JUMPDEST PUSH1 0x40 DUP1 MLOAD PUSH1 0x1F NOT DUP2 DUP5 SUB ADD DUP2 MSTORE DUP3 DUP3 MSTORE DUP1 MLOAD PUSH1 0x20 SWAP2 DUP3 ADD KECCAK256 PUSH32 0x19457468657265756D205369676E6564204D6573736167653A0A333200000000 DUP5 DUP4 ADD MSTORE PUSH1 0x3C DUP1 DUP6 ADD SWAP2 SWAP1 SWAP2 MSTORE DUP3 MLOAD DUP1 DUP6 SUB SWAP1 SWAP2 ADD DUP2 MSTORE PUSH1 0x5C SWAP1 SWAP4 ADD SWAP1 SWAP2 MSTORE DUP2 MLOAD SWAP2 ADD KECCAK256 SWAP1 JUMP JUMPDEST PUSH1 0x8 SLOAD PUSH1 0x40 DUP1 MLOAD PUSH1 0x0 DUP2 MSTORE PUSH1 0x20 DUP2 ADD DUP1 DUP4 MSTORE DUP5 SWAP1 MSTORE PUSH1 0xFF DUP10 AND SWAP2 DUP2 ADD SWAP2 SWAP1 SWAP2 MSTORE PUSH1 0x60 DUP2 ADD DUP8 SWAP1 MSTORE PUSH1 0x80 DUP2 ADD DUP7 SWAP1 MSTORE SWAP2 SWAP3 POP PUSH1 0x1 PUSH1 0x1 PUSH1 0xA0 SHL SUB AND SWAP1 PUSH1 0x1 SWAP1 PUSH1 0xA0 ADD PUSH1 0x20 PUSH1 0x40 MLOAD PUSH1 0x20 DUP2 SUB SWAP1 DUP1 DUP5 SUB SWAP1 DUP6 GAS STATICCALL ISZERO DUP1 ISZERO PUSH2 0xAC0 JUMPI RETURNDATASIZE PUSH1 0x0 DUP1 RETURNDATACOPY RETURNDATASIZE PUSH1 0x0 REVERT JUMPDEST POP POP POP PUSH1 0x20 PUSH1 0x40 MLOAD SUB MLOAD PUSH1 0x1 PUSH1 0x1 PUSH1 0xA0 SHL SUB AND EQ PUSH2 0xB20 JUMPI PUSH1 0x40 MLOAD PUSH3 0x461BCD PUSH1 0xE5 SHL DUP2 MSTORE PUSH1 0x20 PUSH1 0x4 DUP3 ADD MSTORE PUSH1 0x1C PUSH1 0x24 DUP3 ADD MSTORE PUSH32 0x496E76616C69642072657175657374206F72207369676E617475726500000000 PUSH1 0x44 DUP3 ADD MSTORE PUSH1 0x64 ADD PUSH2 0x42D JUMP JUMPDEST PUSH1 0x0 DUP2 DUP2 MSTORE PUSH1 0x9 PUSH1 0x20 MSTORE PUSH1 0x40 SWAP1 KECCAK256 SLOAD PUSH1 0xFF AND ISZERO PUSH2 0xB7F JUMPI PUSH1 0x40 MLOAD PUSH3 0x461BCD PUSH1 0xE5 SHL DUP2 MSTORE PUSH1 0x20 PUSH1 0x4 DUP3 ADD MSTORE PUSH1 0x1F PUSH1 0x24 DUP3 ADD MSTORE PUSH32 0x5369676E61747572652068617320616C7265616479206265656E207573656400 PUSH1 0x44 DUP3 ADD MSTORE PUSH1 0x64 ADD PUSH2 0x42D JUMP JUMPDEST PUSH1 0x0 DUP2 DUP2 MSTORE PUSH1 0x9 PUSH1 0x20 SWAP1 DUP2 MSTORE PUSH1 0x40 SWAP2 DUP3 SWAP1 KECCAK256 DUP1 SLOAD PUSH1 0xFF NOT AND PUSH1 0x1 OR SWAP1 SSTORE PUSH1 0xC SLOAD PUSH1 0x6 SLOAD DUP4 MLOAD PUSH4 0x18160DDD PUSH1 0xE0 SHL DUP2 MSTORE SWAP4 MLOAD SWAP2 SWAP4 DUP12 SWAP4 PUSH1 0x1 PUSH1 0x1 PUSH1 0xA0 SHL SUB SWAP1 SWAP3 AND SWAP3 PUSH4 0x18160DDD SWAP3 PUSH1 0x4 DUP1 DUP5 ADD SWAP4 SWAP2 SWAP3 SWAP2 DUP3 SWAP1 SUB ADD DUP2 DUP7 GAS STATICCALL ISZERO DUP1 ISZERO PUSH2 0xBE8 JUMPI RETURNDATASIZE PUSH1 0x0 DUP1 RETURNDATACOPY RETURNDATASIZE PUSH1 0x0 REVERT JUMPDEST POP POP POP POP PUSH1 0x40 MLOAD RETURNDATASIZE PUSH1 0x1F NOT PUSH1 0x1F DUP3 ADD AND DUP3 ADD DUP1 PUSH1 0x40 MSTORE POP DUP2 ADD SWAP1 PUSH2 0xC0C SWAP2 SWAP1 PUSH2 0x2255 JUMP JUMPDEST PUSH2 0xC16 SWAP2 SWAP1 PUSH2 0x226E JUMP JUMPDEST GT ISZERO PUSH2 0xC55 JUMPI PUSH1 0x40 MLOAD PUSH3 0x461BCD PUSH1 0xE5 SHL DUP2 MSTORE PUSH1 0x20 PUSH1 0x4 DUP3 ADD MSTORE PUSH1 0xE PUSH1 0x24 DUP3 ADD MSTORE PUSH14 0x125B9D985B1A5908105B5BDD5B9D PUSH1 0x92 SHL PUSH1 0x44 DUP3 ADD MSTORE PUSH1 0x64 ADD PUSH2 0x42D JUMP JUMPDEST PUSH1 0x1 SLOAD PUSH4 0x1000000 SWAP1 DIV PUSH1 0xFF AND ISZERO PUSH2 0xFD4 JUMPI PUSH1 0x2 PUSH1 0x4 SLOAD PUSH1 0xFF AND PUSH1 0x2 DUP2 GT ISZERO PUSH2 0xC80 JUMPI PUSH2 0xC80 PUSH2 0x2098 JUMP JUMPDEST SUB PUSH2 0xD7A JUMPI PUSH2 0xC8D PUSH2 0x19E3 JUMP JUMPDEST PUSH1 0x6 SLOAD PUSH1 0x40 DUP1 MLOAD PUSH1 0x1 PUSH1 0x1 PUSH1 0xA0 SHL SUB DUP12 DUP2 AND PUSH1 0x24 DUP4 ADD MSTORE PUSH1 0x44 DUP1 DUP4 ADD DUP13 SWAP1 MSTORE DUP4 MLOAD DUP1 DUP5 SUB SWAP1 SWAP2 ADD DUP2 MSTORE PUSH1 0x64 SWAP1 SWAP3 ADD DUP4 MSTORE PUSH1 0x20 DUP3 ADD DUP1 MLOAD PUSH1 0x1 PUSH1 0x1 PUSH1 0xE0 SHL SUB AND PUSH4 0x40C10F19 PUSH1 0xE0 SHL OR SWAP1 MSTORE SWAP2 MLOAD PUSH1 0x0 SWAP4 SWAP3 SWAP1 SWAP3 AND SWAP2 PUSH2 0xCEB SWAP2 SWAP1 PUSH2 0x2281 JUMP JUMPDEST PUSH1 0x0 PUSH1 0x40 MLOAD DUP1 DUP4 SUB DUP2 PUSH1 0x0 DUP7 GAS CALL SWAP2 POP POP RETURNDATASIZE DUP1 PUSH1 0x0 DUP2 EQ PUSH2 0xD28 JUMPI PUSH1 0x40 MLOAD SWAP2 POP PUSH1 0x1F NOT PUSH1 0x3F RETURNDATASIZE ADD AND DUP3 ADD PUSH1 0x40 MSTORE RETURNDATASIZE DUP3 MSTORE RETURNDATASIZE PUSH1 0x0 PUSH1 0x20 DUP5 ADD RETURNDATACOPY PUSH2 0xD2D JUMP JUMPDEST PUSH1 0x60 SWAP2 POP JUMPDEST POP POP SWAP1 POP DUP1 PUSH2 0xD74 JUMPI PUSH1 0x40 MLOAD PUSH3 0x461BCD PUSH1 0xE5 SHL DUP2 MSTORE PUSH1 0x20 PUSH1 0x4 DUP3 ADD MSTORE PUSH1 0x13 PUSH1 0x24 DUP3 ADD MSTORE PUSH19 0x10DBDB9D995C9CDA5BDB925B8811985A5B1959 PUSH1 0x6A SHL PUSH1 0x44 DUP3 ADD MSTORE PUSH1 0x64 ADD PUSH2 0x42D JUMP JUMPDEST POP PUSH2 0x10BD JUMP JUMPDEST PUSH1 0x6 SLOAD PUSH1 0x40 DUP1 MLOAD ADDRESS PUSH1 0x24 DUP3 ADD MSTORE PUSH1 0x44 DUP1 DUP3 ADD DUP12 SWAP1 MSTORE DUP3 MLOAD DUP1 DUP4 SUB SWAP1 SWAP2 ADD DUP2 MSTORE PUSH1 0x64 SWAP1 SWAP2 ADD DUP3 MSTORE PUSH1 0x20 DUP2 ADD DUP1 MLOAD PUSH1 0x1 PUSH1 0x1 PUSH1 0xE0 SHL SUB AND PUSH4 0x40C10F19 PUSH1 0xE0 SHL OR SWAP1 MSTORE SWAP1 MLOAD PUSH1 0x0 SWAP3 PUSH1 0x1 PUSH1 0x1 PUSH1 0xA0 SHL SUB AND SWAP2 PUSH2 0xDD2 SWAP2 PUSH2 0x2281 JUMP JUMPDEST PUSH1 0x0 PUSH1 0x40 MLOAD DUP1 DUP4 SUB DUP2 PUSH1 0x0 DUP7 GAS CALL SWAP2 POP POP RETURNDATASIZE DUP1 PUSH1 0x0 DUP2 EQ PUSH2 0xE0F JUMPI PUSH1 0x40 MLOAD SWAP2 POP PUSH1 0x1F NOT PUSH1 0x3F RETURNDATASIZE ADD AND DUP3 ADD PUSH1 0x40 MSTORE RETURNDATASIZE DUP3 MSTORE RETURNDATASIZE PUSH1 0x0 PUSH1 0x20 DUP5 ADD RETURNDATACOPY PUSH2 0xE14 JUMP JUMPDEST PUSH1 0x60 SWAP2 POP JUMPDEST POP POP SWAP1 POP DUP1 PUSH2 0xE65 JUMPI PUSH1 0x40 MLOAD PUSH3 0x461BCD PUSH1 0xE5 SHL DUP2 MSTORE PUSH1 0x20 PUSH1 0x4 DUP3 ADD MSTORE PUSH1 0x1A PUSH1 0x24 DUP3 ADD MSTORE PUSH32 0x4D696E74202620436F6E76657273696F6E496E204661696C6564000000000000 PUSH1 0x44 DUP3 ADD MSTORE PUSH1 0x64 ADD PUSH2 0x42D JUMP JUMPDEST PUSH2 0xE6E DUP9 PUSH2 0x1A48 JUMP JUMPDEST PUSH2 0xE78 SWAP1 DUP10 PUSH2 0x22B0 JUMP JUMPDEST SWAP8 POP PUSH1 0x0 DUP9 GT PUSH2 0xEDC JUMPI PUSH1 0x40 MLOAD PUSH3 0x461BCD PUSH1 0xE5 SHL DUP2 MSTORE PUSH1 0x20 PUSH1 0x4 DUP3 ADD MSTORE PUSH1 0x29 PUSH1 0x24 DUP3 ADD MSTORE PUSH32 0x496E76616C696420616D6F756E7420616674657220636F6D6D697373696F6E20 PUSH1 0x44 DUP3 ADD MSTORE PUSH9 0x3232B23AB1BA34B7B7 PUSH1 0xB9 SHL PUSH1 0x64 DUP3 ADD MSTORE PUSH1 0x84 ADD PUSH2 0x42D JUMP JUMPDEST PUSH1 0x6 SLOAD PUSH1 0x40 DUP1 MLOAD PUSH1 0x1 PUSH1 0x1 PUSH1 0xA0 SHL SUB DUP13 DUP2 AND PUSH1 0x24 DUP4 ADD MSTORE PUSH1 0x44 DUP1 DUP4 ADD DUP14 SWAP1 MSTORE DUP4 MLOAD DUP1 DUP5 SUB SWAP1 SWAP2 ADD DUP2 MSTORE PUSH1 0x64 SWAP1 SWAP3 ADD DUP4 MSTORE PUSH1 0x20 DUP3 ADD DUP1 MLOAD PUSH1 0x1 PUSH1 0x1 PUSH1 0xE0 SHL SUB AND PUSH4 0xA9059CBB PUSH1 0xE0 SHL OR SWAP1 MSTORE SWAP2 MLOAD PUSH1 0x0 SWAP4 SWAP3 SWAP1 SWAP3 AND SWAP2 PUSH2 0xF3A SWAP2 SWAP1 PUSH2 0x2281 JUMP JUMPDEST PUSH1 0x0 PUSH1 0x40 MLOAD DUP1 DUP4 SUB DUP2 PUSH1 0x0 DUP7 GAS CALL SWAP2 POP POP RETURNDATASIZE DUP1 PUSH1 0x0 DUP2 EQ PUSH2 0xF77 JUMPI PUSH1 0x40 MLOAD SWAP2 POP PUSH1 0x1F NOT PUSH1 0x3F RETURNDATASIZE ADD AND DUP3 ADD PUSH1 0x40 MSTORE RETURNDATASIZE DUP3 MSTORE RETURNDATASIZE PUSH1 0x0 PUSH1 0x20 DUP5 ADD RETURNDATACOPY PUSH2 0xF7C JUMP JUMPDEST PUSH1 0x60 SWAP2 POP JUMPDEST POP POP SWAP1 POP DUP1 PUSH2 0xFCD JUMPI PUSH1 0x40 MLOAD PUSH3 0x461BCD PUSH1 0xE5 SHL DUP2 MSTORE PUSH1 0x20 PUSH1 0x4 DUP3 ADD MSTORE PUSH1 0x1E PUSH1 0x24 DUP3 ADD MSTORE PUSH32 0x5472616E73666572202620436F6E76657273696F6E496E204661696C65640000 PUSH1 0x44 DUP3 ADD MSTORE PUSH1 0x64 ADD PUSH2 0x42D JUMP JUMPDEST POP POP PUSH2 0x10BD JUMP JUMPDEST PUSH1 0x6 SLOAD PUSH1 0x40 DUP1 MLOAD PUSH1 0x1 PUSH1 0x1 PUSH1 0xA0 SHL SUB DUP12 DUP2 AND PUSH1 0x24 DUP4 ADD MSTORE PUSH1 0x44 DUP1 DUP4 ADD DUP13 SWAP1 MSTORE DUP4 MLOAD DUP1 DUP5 SUB SWAP1 SWAP2 ADD DUP2 MSTORE PUSH1 0x64 SWAP1 SWAP3 ADD DUP4 MSTORE PUSH1 0x20 DUP3 ADD DUP1 MLOAD PUSH1 0x1 PUSH1 0x1 PUSH1 0xE0 SHL SUB AND PUSH4 0x40C10F19 PUSH1 0xE0 SHL OR SWAP1 MSTORE SWAP2 MLOAD PUSH1 0x0 SWAP4 SWAP3 SWAP1 SWAP3 AND SWAP2 PUSH2 0x1032 SWAP2 SWAP1 PUSH2 0x2281 JUMP JUMPDEST PUSH1 0x0 PUSH1 0x40 MLOAD DUP1 DUP4 SUB DUP2 PUSH1 0x0 DUP7 GAS CALL SWAP2 POP POP RETURNDATASIZE DUP1 PUSH1 0x0 DUP2 EQ PUSH2 0x106F JUMPI PUSH1 0x40 MLOAD SWAP2 POP PUSH1 0x1F NOT PUSH1 0x3F RETURNDATASIZE ADD AND DUP3 ADD PUSH1 0x40 MSTORE RETURNDATASIZE DUP3 MSTORE RETURNDATASIZE PUSH1 0x0 PUSH1 0x20 DUP5 ADD RETURNDATACOPY PUSH2 0x1074 JUMP JUMPDEST PUSH1 0x60 SWAP2 POP JUMPDEST POP POP SWAP1 POP DUP1 PUSH2 0x10BB JUMPI PUSH1 0x40 MLOAD PUSH3 0x461BCD PUSH1 0xE5 SHL DUP2 MSTORE PUSH1 0x20 PUSH1 0x4 DUP3 ADD MSTORE PUSH1 0x13 PUSH1 0x24 DUP3 ADD MSTORE PUSH19 0x10DBDB9D995C9CDA5BDB925B8811985A5B1959 PUSH1 0x6A SHL PUSH1 0x44 DUP3 ADD MSTORE PUSH1 0x64 ADD PUSH2 0x42D JUMP JUMPDEST POP JUMPDEST PUSH1 0x40 DUP1 MLOAD DUP8 DUP2 MSTORE PUSH1 0x20 DUP2 ADD DUP10 SWAP1 MSTORE PUSH1 0x1 PUSH1 0x1 PUSH1 0xA0 SHL SUB DUP11 AND SWAP2 PUSH32 0x62A9B3E6446AB559D6B82C4F02CC923CD3B4E47444EF86446DAB81A4D781C5AF SWAP2 ADD PUSH1 0x40 MLOAD DUP1 SWAP2 SUB SWAP1 LOG2 POP PUSH2 0x110C PUSH1 0x1 PUSH1 0x7 SSTORE JUMP JUMPDEST POP POP POP POP POP POP POP JUMP JUMPDEST PUSH2 0x111D PUSH2 0x17CF JUMP JUMPDEST PUSH2 0x1127 PUSH1 0x0 PUSH2 0x1C73 JUMP JUMPDEST JUMP JUMPDEST PUSH2 0x1131 PUSH2 0x17CF JUMP JUMPDEST PUSH1 0x1 PUSH1 0x1 PUSH1 0xA0 SHL SUB DUP2 AND PUSH2 0x1157 JUMPI PUSH1 0x40 MLOAD PUSH3 0x461BCD PUSH1 0xE5 SHL DUP2 MSTORE PUSH1 0x4 ADD PUSH2 0x42D SWAP1 PUSH2 0x22C3 JUMP JUMPDEST PUSH1 0x5 SLOAD PUSH1 0x40 MLOAD PUSH1 0x1 PUSH1 0x1 PUSH1 0xA0 SHL SUB DUP1 DUP5 AND SWAP3 AND SWAP1 PUSH32 0x62904549814F5511A5D36A62611A6E2FE1D2C29B6DE74DE25D95395E0A7D009B SWAP1 PUSH1 0x0 SWAP1 LOG3 PUSH1 0x5 DUP1 SLOAD PUSH1 0x1 PUSH1 0x1 PUSH1 0xA0 SHL SUB NOT AND PUSH1 0x1 PUSH1 0x1 PUSH1 0xA0 SHL SUB SWAP3 SWAP1 SWAP3 AND SWAP2 SWAP1 SWAP2 OR SWAP1 SSTORE JUMP JUMPDEST PUSH2 0x11BB PUSH2 0x17CF JUMP JUMPDEST PUSH1 0x1 PUSH1 0x1 PUSH1 0xA0 SHL SUB DUP2 AND PUSH2 0x11E1 JUMPI PUSH1 0x40 MLOAD PUSH3 0x461BCD PUSH1 0xE5 SHL DUP2 MSTORE PUSH1 0x4 ADD PUSH2 0x42D SWAP1 PUSH2 0x22C3 JUMP JUMPDEST PUSH1 0x4 SLOAD PUSH1 0x40 MLOAD PUSH1 0x1 PUSH1 0x1 PUSH1 0xA0 SHL SUB DUP1 DUP5 AND SWAP3 PUSH2 0x100 SWAP1 DIV AND SWAP1 PUSH32 0x62904549814F5511A5D36A62611A6E2FE1D2C29B6DE74DE25D95395E0A7D009B SWAP1 PUSH1 0x0 SWAP1 LOG3 PUSH1 0x4 DUP1 SLOAD PUSH1 0x1 PUSH1 0x1 PUSH1 0xA0 SHL SUB SWAP1 SWAP3 AND PUSH2 0x100 MUL PUSH2 0x100 PUSH1 0x1 PUSH1 0xA8 SHL SUB NOT SWAP1 SWAP3 AND SWAP2 SWAP1 SWAP2 OR SWAP1 SSTORE JUMP JUMPDEST DUP5 PUSH1 0xA SLOAD DUP2 LT ISZERO DUP1 ISZERO PUSH2 0x125D JUMPI POP PUSH1 0xB SLOAD DUP2 GT ISZERO JUMPDEST PUSH2 0x12A9 JUMPI PUSH1 0x40 MLOAD PUSH3 0x461BCD PUSH1 0xE5 SHL DUP2 MSTORE PUSH1 0x20 PUSH1 0x4 DUP3 ADD MSTORE PUSH1 0x1A PUSH1 0x24 DUP3 ADD MSTORE PUSH32 0x56696F6C6174657320636F6E76657273696F6E206C696D697473000000000000 PUSH1 0x44 DUP3 ADD MSTORE PUSH1 0x64 ADD PUSH2 0x42D JUMP JUMPDEST PUSH2 0x12B1 PUSH2 0x198A JUMP JUMPDEST PUSH1 0x6 SLOAD DUP7 SWAP1 PUSH1 0x1 PUSH1 0x1 PUSH1 0xA0 SHL SUB AND PUSH4 0x70A08231 CALLER PUSH1 0x40 MLOAD PUSH1 0x1 PUSH1 0x1 PUSH1 0xE0 SHL SUB NOT PUSH1 0xE0 DUP5 SWAP1 SHL AND DUP2 MSTORE PUSH1 0x1 PUSH1 0x1 PUSH1 0xA0 SHL SUB SWAP1 SWAP2 AND PUSH1 0x4 DUP3 ADD MSTORE PUSH1 0x24 ADD PUSH1 0x20 PUSH1 0x40 MLOAD DUP1 DUP4 SUB DUP2 DUP7 GAS STATICCALL ISZERO DUP1 ISZERO PUSH2 0x1309 JUMPI RETURNDATASIZE PUSH1 0x0 DUP1 RETURNDATACOPY RETURNDATASIZE PUSH1 0x0 REVERT JUMPDEST POP POP POP POP PUSH1 0x40 MLOAD RETURNDATASIZE PUSH1 0x1F NOT PUSH1 0x1F DUP3 ADD AND DUP3 ADD DUP1 PUSH1 0x40 MSTORE POP DUP2 ADD SWAP1 PUSH2 0x132D SWAP2 SWAP1 PUSH2 0x2255 JUMP JUMPDEST LT ISZERO PUSH2 0x1370 JUMPI PUSH1 0x40 MLOAD PUSH3 0x461BCD PUSH1 0xE5 SHL DUP2 MSTORE PUSH1 0x20 PUSH1 0x4 DUP3 ADD MSTORE PUSH1 0x12 PUSH1 0x24 DUP3 ADD MSTORE PUSH18 0x4E6F7420656E6F7567682062616C616E6365 PUSH1 0x70 SHL PUSH1 0x44 DUP3 ADD MSTORE PUSH1 0x64 ADD PUSH2 0x42D JUMP JUMPDEST PUSH1 0x0 PUSH2 0x13CD DUP8 CALLER PUSH1 0x40 MLOAD PUSH15 0x17D7D8DBDB9D995C9CDA5BDB93DD5D PUSH1 0x8A SHL PUSH1 0x20 DUP3 ADD MSTORE PUSH1 0x2F DUP2 ADD SWAP3 SWAP1 SWAP3 MSTORE PUSH12 0xFFFFFFFFFFFFFFFFFFFFFFFF NOT PUSH1 0x60 SWAP2 DUP3 SHL DUP2 AND PUSH1 0x4F DUP5 ADD MSTORE PUSH1 0x63 DUP4 ADD DUP11 SWAP1 MSTORE ADDRESS SWAP1 SWAP2 SHL AND PUSH1 0x83 DUP3 ADD MSTORE PUSH1 0x97 ADD PUSH2 0x9FD JUMP JUMPDEST PUSH1 0x8 SLOAD PUSH1 0x40 DUP1 MLOAD PUSH1 0x0 DUP2 MSTORE PUSH1 0x20 DUP2 ADD DUP1 DUP4 MSTORE DUP5 SWAP1 MSTORE PUSH1 0xFF DUP10 AND SWAP2 DUP2 ADD SWAP2 SWAP1 SWAP2 MSTORE PUSH1 0x60 DUP2 ADD DUP8 SWAP1 MSTORE PUSH1 0x80 DUP2 ADD DUP7 SWAP1 MSTORE SWAP2 SWAP3 POP PUSH1 0x1 PUSH1 0x1 PUSH1 0xA0 SHL SUB AND SWAP1 PUSH1 0x1 SWAP1 PUSH1 0xA0 ADD PUSH1 0x20 PUSH1 0x40 MLOAD PUSH1 0x20 DUP2 SUB SWAP1 DUP1 DUP5 SUB SWAP1 DUP6 GAS STATICCALL ISZERO DUP1 ISZERO PUSH2 0x1430 JUMPI RETURNDATASIZE PUSH1 0x0 DUP1 RETURNDATACOPY RETURNDATASIZE PUSH1 0x0 REVERT JUMPDEST POP POP POP PUSH1 0x20 PUSH1 0x40 MLOAD SUB MLOAD PUSH1 0x1 PUSH1 0x1 PUSH1 0xA0 SHL SUB AND EQ PUSH2 0x1490 JUMPI PUSH1 0x40 MLOAD PUSH3 0x461BCD PUSH1 0xE5 SHL DUP2 MSTORE PUSH1 0x20 PUSH1 0x4 DUP3 ADD MSTORE PUSH1 0x1C PUSH1 0x24 DUP3 ADD MSTORE PUSH32 0x496E76616C69642072657175657374206F72207369676E617475726500000000 PUSH1 0x44 DUP3 ADD MSTORE PUSH1 0x64 ADD PUSH2 0x42D JUMP JUMPDEST PUSH1 0x0 DUP2 DUP2 MSTORE PUSH1 0x9 PUSH1 0x20 MSTORE PUSH1 0x40 SWAP1 KECCAK256 SLOAD PUSH1 0xFF AND ISZERO PUSH2 0x14EF JUMPI PUSH1 0x40 MLOAD PUSH3 0x461BCD PUSH1 0xE5 SHL DUP2 MSTORE PUSH1 0x20 PUSH1 0x4 DUP3 ADD MSTORE PUSH1 0x1F PUSH1 0x24 DUP3 ADD MSTORE PUSH32 0x5369676E61747572652068617320616C7265616479206265656E207573656400 PUSH1 0x44 DUP3 ADD MSTORE PUSH1 0x64 ADD PUSH2 0x42D JUMP JUMPDEST PUSH1 0x0 DUP2 DUP2 MSTORE PUSH1 0x9 PUSH1 0x20 MSTORE PUSH1 0x40 SWAP1 KECCAK256 DUP1 SLOAD PUSH1 0xFF NOT AND PUSH1 0x1 SWAP1 DUP2 OR SWAP1 SWAP2 SSTORE SLOAD PUSH4 0x1000000 SWAP1 DIV PUSH1 0xFF AND ISZERO PUSH2 0x155C JUMPI PUSH1 0x2 PUSH1 0x4 SLOAD PUSH1 0xFF AND PUSH1 0x2 DUP2 GT ISZERO PUSH2 0x1534 JUMPI PUSH2 0x1534 PUSH2 0x2098 JUMP JUMPDEST SUB PUSH2 0x1546 JUMPI PUSH2 0x1541 PUSH2 0x19E3 JUMP JUMPDEST PUSH2 0x155C JUMP JUMPDEST PUSH2 0x154F DUP8 PUSH2 0x1CC3 JUMP JUMPDEST PUSH2 0x1559 SWAP1 DUP9 PUSH2 0x22B0 JUMP JUMPDEST SWAP7 POP JUMPDEST PUSH1 0x6 SLOAD PUSH1 0x40 DUP1 MLOAD CALLER PUSH1 0x24 DUP3 ADD MSTORE PUSH1 0x44 DUP1 DUP3 ADD DUP12 SWAP1 MSTORE DUP3 MLOAD DUP1 DUP4 SUB SWAP1 SWAP2 ADD DUP2 MSTORE PUSH1 0x64 SWAP1 SWAP2 ADD DUP3 MSTORE PUSH1 0x20 DUP2 ADD DUP1 MLOAD PUSH1 0x1 PUSH1 0x1 PUSH1 0xE0 SHL SUB AND PUSH4 0x79CC679 PUSH1 0xE4 SHL OR SWAP1 MSTORE SWAP1 MLOAD PUSH1 0x0 SWAP3 PUSH1 0x1 PUSH1 0x1 PUSH1 0xA0 SHL SUB AND SWAP2 PUSH2 0x15B4 SWAP2 PUSH2 0x2281 JUMP JUMPDEST PUSH1 0x0 PUSH1 0x40 MLOAD DUP1 DUP4 SUB DUP2 PUSH1 0x0 DUP7 GAS CALL SWAP2 POP POP RETURNDATASIZE DUP1 PUSH1 0x0 DUP2 EQ PUSH2 0x15F1 JUMPI PUSH1 0x40 MLOAD SWAP2 POP PUSH1 0x1F NOT PUSH1 0x3F RETURNDATASIZE ADD AND DUP3 ADD PUSH1 0x40 MSTORE RETURNDATASIZE DUP3 MSTORE RETURNDATASIZE PUSH1 0x0 PUSH1 0x20 DUP5 ADD RETURNDATACOPY PUSH2 0x15F6 JUMP JUMPDEST PUSH1 0x60 SWAP2 POP JUMPDEST POP POP SWAP1 POP DUP1 PUSH2 0x163E JUMPI PUSH1 0x40 MLOAD PUSH3 0x461BCD PUSH1 0xE5 SHL DUP2 MSTORE PUSH1 0x20 PUSH1 0x4 DUP3 ADD MSTORE PUSH1 0x14 PUSH1 0x24 DUP3 ADD MSTORE PUSH20 0x18DBDB9D995C9CDA5BDB93DD5D0811985A5B1959 PUSH1 0x62 SHL PUSH1 0x44 DUP3 ADD MSTORE PUSH1 0x64 ADD PUSH2 0x42D JUMP JUMPDEST PUSH1 0x40 DUP1 MLOAD DUP9 DUP2 MSTORE PUSH1 0x20 DUP2 ADD DUP11 SWAP1 MSTORE CALLER SWAP2 PUSH32 0xB999B06746A947F1958636B9B9377AE814FE578413DFFFD4D3A7A96196FE02FC SWAP2 ADD PUSH1 0x40 MLOAD DUP1 SWAP2 SUB SWAP1 LOG2 POP POP PUSH2 0x1685 PUSH1 0x1 PUSH1 0x7 SSTORE JUMP JUMPDEST POP POP POP POP POP POP JUMP JUMPDEST PUSH2 0x1695 PUSH2 0x17CF JUMP JUMPDEST PUSH1 0x1 DUP1 SLOAD PUSH4 0xFF000000 NOT AND SWAP1 SSTORE JUMP JUMPDEST PUSH2 0x16AC PUSH2 0x17CF JUMP JUMPDEST PUSH1 0x1 PUSH1 0x1 PUSH1 0xA0 SHL SUB DUP2 AND PUSH2 0x1702 JUMPI PUSH1 0x40 MLOAD PUSH3 0x461BCD PUSH1 0xE5 SHL DUP2 MSTORE PUSH1 0x20 PUSH1 0x4 DUP3 ADD MSTORE PUSH1 0x18 PUSH1 0x24 DUP3 ADD MSTORE PUSH32 0x496E76616C6964206F70657261746F7220616464726573730000000000000000 PUSH1 0x44 DUP3 ADD MSTORE PUSH1 0x64 ADD PUSH2 0x42D JUMP JUMPDEST PUSH1 0x8 DUP1 SLOAD PUSH1 0x1 PUSH1 0x1 PUSH1 0xA0 SHL SUB NOT AND PUSH1 0x1 PUSH1 0x1 PUSH1 0xA0 SHL SUB DUP4 AND SWAP1 DUP2 OR SWAP1 SWAP2 SSTORE PUSH1 0x40 MLOAD SWAP1 DUP2 MSTORE PUSH32 0x8F53E6A9FBC3949BC0B9266BBE1927F0B282A34D92876CCBE188C24D17C6CBB SWAP1 PUSH1 0x20 ADD PUSH1 0x40 MLOAD DUP1 SWAP2 SUB SWAP1 LOG1 POP JUMP JUMPDEST PUSH2 0x175E PUSH2 0x17CF JUMP JUMPDEST PUSH1 0x1 PUSH1 0x1 PUSH1 0xA0 SHL SUB DUP2 AND PUSH2 0x17C3 JUMPI PUSH1 0x40 MLOAD PUSH3 0x461BCD PUSH1 0xE5 SHL DUP2 MSTORE PUSH1 0x20 PUSH1 0x4 DUP3 ADD MSTORE PUSH1 0x26 PUSH1 0x24 DUP3 ADD MSTORE PUSH32 0x4F776E61626C653A206E6577206F776E657220697320746865207A65726F2061 PUSH1 0x44 DUP3 ADD MSTORE PUSH6 0x646472657373 PUSH1 0xD0 SHL PUSH1 0x64 DUP3 ADD MSTORE PUSH1 0x84 ADD PUSH2 0x42D JUMP JUMPDEST PUSH2 0x17CC DUP2 PUSH2 0x1C73 JUMP JUMPDEST POP JUMP JUMPDEST PUSH1 0x0 SLOAD PUSH1 0x1 PUSH1 0x1 PUSH1 0xA0 SHL SUB AND CALLER EQ PUSH2 0x1127 JUMPI PUSH1 0x40 MLOAD PUSH3 0x461BCD PUSH1 0xE5 SHL DUP2 MSTORE PUSH1 0x20 PUSH1 0x4 DUP3 ADD DUP2 SWAP1 MSTORE PUSH1 0x24 DUP3 ADD MSTORE PUSH32 0x4F776E61626C653A2063616C6C6572206973206E6F7420746865206F776E6572 PUSH1 0x44 DUP3 ADD MSTORE PUSH1 0x64 ADD PUSH2 0x42D JUMP JUMPDEST PUSH1 0x1 SLOAD PUSH1 0xFF DUP9 DUP2 AND PUSH2 0x100 SWAP1 SWAP3 DIV AND EQ PUSH2 0x1852 JUMPI PUSH1 0x1 DUP1 SLOAD PUSH2 0xFF00 NOT AND PUSH2 0x100 PUSH1 0xFF DUP11 AND MUL OR SWAP1 SSTORE JUMPDEST PUSH1 0x1 SLOAD PUSH1 0xFF DUP8 DUP2 AND PUSH3 0x10000 SWAP1 SWAP3 DIV AND EQ PUSH2 0x187E JUMPI PUSH1 0x1 DUP1 SLOAD PUSH3 0xFF0000 NOT AND PUSH3 0x10000 PUSH1 0xFF DUP10 AND MUL OR SWAP1 SSTORE JUMPDEST DUP5 ISZERO DUP1 ISZERO PUSH2 0x188F JUMPI POP PUSH1 0x0 DUP9 PUSH1 0xFF AND GT JUMPDEST ISZERO PUSH2 0x18BC JUMPI PUSH1 0x1 DUP1 SLOAD PUSH1 0xFF DUP11 AND PUSH1 0xFF NOT SWAP2 DUP3 AND OR DUP3 SSTORE PUSH1 0x4 DUP1 SLOAD PUSH1 0x0 SWAP4 SWAP2 SWAP3 AND SWAP1 DUP4 JUMPDEST MUL OR SWAP1 SSTORE POP PUSH2 0x18FE JUMP JUMPDEST DUP5 PUSH1 0x1 SUB PUSH2 0x18DC JUMPI PUSH1 0x3 DUP5 SWAP1 SSTORE PUSH1 0x4 DUP1 SLOAD PUSH1 0x1 SWAP2 SWAP1 PUSH1 0xFF NOT AND DUP3 DUP1 PUSH2 0x18B2 JUMP JUMPDEST DUP3 ISZERO PUSH2 0x18FE JUMPI PUSH2 0x18EB DUP4 PUSH2 0x1E28 JUMP JUMPDEST PUSH1 0x2 DUP4 DUP2 SSTORE PUSH1 0x4 DUP1 SLOAD PUSH1 0xFF NOT AND SWAP1 SWAP2 OR SWAP1 SSTORE JUMPDEST PUSH1 0x4 SLOAD PUSH1 0x1 PUSH1 0x1 PUSH1 0xA0 SHL SUB DUP4 DUP2 AND PUSH2 0x100 SWAP1 SWAP3 DIV AND EQ PUSH2 0x1939 JUMPI PUSH1 0x4 DUP1 SLOAD PUSH2 0x100 PUSH1 0x1 PUSH1 0xA8 SHL SUB NOT AND PUSH2 0x100 PUSH1 0x1 PUSH1 0x1 PUSH1 0xA0 SHL SUB DUP6 AND MUL OR SWAP1 SSTORE JUMPDEST PUSH1 0x5 SLOAD PUSH1 0x1 PUSH1 0x1 PUSH1 0xA0 SHL SUB DUP3 DUP2 AND SWAP2 AND EQ DUP1 ISZERO SWAP1 PUSH2 0x195F JUMPI POP PUSH1 0x1 PUSH1 0x1 PUSH1 0xA0 SHL SUB DUP2 AND ISZERO ISZERO JUMPDEST ISZERO PUSH2 0x1980 JUMPI PUSH1 0x5 DUP1 SLOAD PUSH1 0x1 PUSH1 0x1 PUSH1 0xA0 SHL SUB NOT AND PUSH1 0x1 PUSH1 0x1 PUSH1 0xA0 SHL SUB DUP4 AND OR SWAP1 SSTORE JUMPDEST POP POP POP POP POP POP POP POP JUMP JUMPDEST PUSH1 0x2 PUSH1 0x7 SLOAD SUB PUSH2 0x19DC JUMPI PUSH1 0x40 MLOAD PUSH3 0x461BCD PUSH1 0xE5 SHL DUP2 MSTORE PUSH1 0x20 PUSH1 0x4 DUP3 ADD MSTORE PUSH1 0x1F PUSH1 0x24 DUP3 ADD MSTORE PUSH32 0x5265656E7472616E637947756172643A207265656E7472616E742063616C6C00 PUSH1 0x44 DUP3 ADD MSTORE PUSH1 0x64 ADD PUSH2 0x42D JUMP JUMPDEST PUSH1 0x2 PUSH1 0x7 SSTORE JUMP JUMPDEST PUSH1 0x2 SLOAD CALLVALUE EQ PUSH2 0x1127 JUMPI PUSH1 0x40 MLOAD PUSH3 0x461BCD PUSH1 0xE5 SHL DUP2 MSTORE PUSH1 0x20 PUSH1 0x4 DUP3 ADD MSTORE PUSH1 0x2B PUSH1 0x24 DUP3 ADD MSTORE PUSH32 0x496E616363757261746520706179656420636F6D6D697373696F6E20696E206E PUSH1 0x44 DUP3 ADD MSTORE PUSH11 0x30BA34BB32903A37B5B2B7 PUSH1 0xA9 SHL PUSH1 0x64 DUP3 ADD MSTORE PUSH1 0x84 ADD PUSH2 0x42D JUMP JUMPDEST PUSH1 0x0 DUP1 PUSH1 0x0 PUSH2 0x1A56 DUP5 PUSH2 0x1EA7 JUMP JUMPDEST PUSH1 0x6 SLOAD PUSH1 0x4 SLOAD SWAP3 SWAP5 POP SWAP1 SWAP3 POP PUSH1 0x0 SWAP2 PUSH1 0x1 PUSH1 0x1 PUSH1 0xA0 SHL SUB SWAP2 DUP3 AND SWAP2 PUSH32 0xA9059CBB2AB09EB219583F4A59A5D0623ADE346D962BCD4E46B11DA047C9049B SWAP2 PUSH2 0x100 SWAP1 DIV AND PUSH2 0x1AA3 DUP7 DUP7 PUSH2 0x22B0 JUMP JUMPDEST PUSH1 0x40 MLOAD PUSH1 0x1 PUSH1 0x1 PUSH1 0xA0 SHL SUB SWAP1 SWAP3 AND PUSH1 0x24 DUP4 ADD MSTORE PUSH1 0x44 DUP3 ADD MSTORE PUSH1 0x64 ADD PUSH1 0x40 DUP1 MLOAD PUSH1 0x1F NOT DUP2 DUP5 SUB ADD DUP2 MSTORE SWAP2 DUP2 MSTORE PUSH1 0x20 DUP3 ADD DUP1 MLOAD PUSH1 0x1 PUSH1 0x1 PUSH1 0xE0 SHL SUB AND PUSH1 0x1 PUSH1 0x1 PUSH1 0xE0 SHL SUB NOT SWAP1 SWAP5 AND SWAP4 SWAP1 SWAP4 OR SWAP1 SWAP3 MSTORE SWAP1 MLOAD PUSH2 0x1AFC SWAP2 SWAP1 PUSH2 0x2281 JUMP JUMPDEST PUSH1 0x0 PUSH1 0x40 MLOAD DUP1 DUP4 SUB DUP2 PUSH1 0x0 DUP7 GAS CALL SWAP2 POP POP RETURNDATASIZE DUP1 PUSH1 0x0 DUP2 EQ PUSH2 0x1B39 JUMPI PUSH1 0x40 MLOAD SWAP2 POP PUSH1 0x1F NOT PUSH1 0x3F RETURNDATASIZE ADD AND DUP3 ADD PUSH1 0x40 MSTORE RETURNDATASIZE DUP3 MSTORE RETURNDATASIZE PUSH1 0x0 PUSH1 0x20 DUP5 ADD RETURNDATACOPY PUSH2 0x1B3E JUMP JUMPDEST PUSH1 0x60 SWAP2 POP JUMPDEST POP POP PUSH1 0x6 SLOAD PUSH1 0x5 SLOAD PUSH1 0x40 MLOAD PUSH1 0x1 PUSH1 0x1 PUSH1 0xA0 SHL SUB SWAP2 DUP3 AND PUSH1 0x24 DUP3 ADD MSTORE PUSH1 0x44 DUP2 ADD DUP8 SWAP1 MSTORE SWAP3 SWAP4 POP PUSH1 0x0 SWAP3 SWAP2 AND SWAP1 PUSH32 0xA9059CBB2AB09EB219583F4A59A5D0623ADE346D962BCD4E46B11DA047C9049B SWAP1 PUSH1 0x64 ADD JUMPDEST PUSH1 0x40 DUP1 MLOAD PUSH1 0x1F NOT DUP2 DUP5 SUB ADD DUP2 MSTORE SWAP2 DUP2 MSTORE PUSH1 0x20 DUP3 ADD DUP1 MLOAD PUSH1 0x1 PUSH1 0x1 PUSH1 0xE0 SHL SUB AND PUSH1 0x1 PUSH1 0x1 PUSH1 0xE0 SHL SUB NOT SWAP1 SWAP5 AND SWAP4 SWAP1 SWAP4 OR SWAP1 SWAP3 MSTORE SWAP1 MLOAD PUSH2 0x1BCD SWAP2 SWAP1 PUSH2 0x2281 JUMP JUMPDEST PUSH1 0x0 PUSH1 0x40 MLOAD DUP1 DUP4 SUB DUP2 PUSH1 0x0 DUP7 GAS CALL SWAP2 POP POP RETURNDATASIZE DUP1 PUSH1 0x0 DUP2 EQ PUSH2 0x1C0A JUMPI PUSH1 0x40 MLOAD SWAP2 POP PUSH1 0x1F NOT PUSH1 0x3F RETURNDATASIZE ADD AND DUP3 ADD PUSH1 0x40 MSTORE RETURNDATASIZE DUP3 MSTORE RETURNDATASIZE PUSH1 0x0 PUSH1 0x20 DUP5 ADD RETURNDATACOPY PUSH2 0x1C0F JUMP JUMPDEST PUSH1 0x60 SWAP2 POP JUMPDEST POP POP SWAP1 POP DUP2 DUP1 ISZERO PUSH2 0x1C1D JUMPI POP DUP1 JUMPDEST PUSH2 0x1C69 JUMPI PUSH1 0x40 MLOAD PUSH3 0x461BCD PUSH1 0xE5 SHL DUP2 MSTORE PUSH1 0x20 PUSH1 0x4 DUP3 ADD MSTORE PUSH1 0x1A PUSH1 0x24 DUP3 ADD MSTORE PUSH32 0x436F6D6D697373696F6E207472616E73666572206661696C6564000000000000 PUSH1 0x44 DUP3 ADD MSTORE PUSH1 0x64 ADD PUSH2 0x42D JUMP JUMPDEST POP SWAP1 SWAP5 SWAP4 POP POP POP POP JUMP JUMPDEST PUSH1 0x0 DUP1 SLOAD PUSH1 0x1 PUSH1 0x1 PUSH1 0xA0 SHL SUB DUP4 DUP2 AND PUSH1 0x1 PUSH1 0x1 PUSH1 0xA0 SHL SUB NOT DUP4 AND DUP2 OR DUP5 SSTORE PUSH1 0x40 MLOAD SWAP2 SWAP1 SWAP3 AND SWAP3 DUP4 SWAP2 PUSH32 0x8BE0079C531659141344CD1FD0A4F28419497F9722A3DAAFE3B4186F6B6457E0 SWAP2 SWAP1 LOG3 POP POP JUMP JUMPDEST PUSH1 0x0 DUP1 PUSH1 0x0 PUSH2 0x1CD1 DUP5 PUSH2 0x1EA7 JUMP JUMPDEST PUSH1 0x6 SLOAD SWAP2 SWAP4 POP SWAP2 POP PUSH1 0x0 SWAP1 PUSH1 0x1 PUSH1 0x1 PUSH1 0xA0 SHL SUB AND PUSH32 0x23B872DD7302113369CDA2901243429419BEC145408FA8B352B3DD92B66C680B CALLER PUSH1 0x4 SLOAD PUSH2 0x100 SWAP1 DIV PUSH1 0x1 PUSH1 0x1 PUSH1 0xA0 SHL SUB AND PUSH2 0x1D22 DUP8 DUP8 PUSH2 0x22B0 JUMP JUMPDEST PUSH1 0x40 MLOAD PUSH1 0x1 PUSH1 0x1 PUSH1 0xA0 SHL SUB SWAP4 DUP5 AND PUSH1 0x24 DUP3 ADD MSTORE SWAP3 SWAP1 SWAP2 AND PUSH1 0x44 DUP4 ADD MSTORE PUSH1 0x64 DUP3 ADD MSTORE PUSH1 0x84 ADD PUSH1 0x40 DUP1 MLOAD PUSH1 0x1F NOT DUP2 DUP5 SUB ADD DUP2 MSTORE SWAP2 DUP2 MSTORE PUSH1 0x20 DUP3 ADD DUP1 MLOAD PUSH1 0x1 PUSH1 0x1 PUSH1 0xE0 SHL SUB AND PUSH1 0x1 PUSH1 0x1 PUSH1 0xE0 SHL SUB NOT SWAP1 SWAP5 AND SWAP4 SWAP1 SWAP4 OR SWAP1 SWAP3 MSTORE SWAP1 MLOAD PUSH2 0x1D84 SWAP2 SWAP1 PUSH2 0x2281 JUMP JUMPDEST PUSH1 0x0 PUSH1 0x40 MLOAD DUP1 DUP4 SUB DUP2 PUSH1 0x0 DUP7 GAS CALL SWAP2 POP POP RETURNDATASIZE DUP1 PUSH1 0x0 DUP2 EQ PUSH2 0x1DC1 JUMPI PUSH1 0x40 MLOAD SWAP2 POP PUSH1 0x1F NOT PUSH1 0x3F RETURNDATASIZE ADD AND DUP3 ADD PUSH1 0x40 MSTORE RETURNDATASIZE DUP3 MSTORE RETURNDATASIZE PUSH1 0x0 PUSH1 0x20 DUP5 ADD RETURNDATACOPY PUSH2 0x1DC6 JUMP JUMPDEST PUSH1 0x60 SWAP2 POP JUMPDEST POP POP PUSH1 0x6 SLOAD SWAP1 SWAP2 POP PUSH1 0x0 SWAP1 PUSH1 0x1 PUSH1 0x1 PUSH1 0xA0 SHL SUB AND PUSH32 0x23B872DD7302113369CDA2901243429419BEC145408FA8B352B3DD92B66C680B CALLER PUSH1 0x5 SLOAD PUSH1 0x40 MLOAD PUSH1 0x1 PUSH1 0x1 PUSH1 0xA0 SHL SUB SWAP3 DUP4 AND PUSH1 0x24 DUP3 ADD MSTORE SWAP2 AND PUSH1 0x44 DUP3 ADD MSTORE PUSH1 0x64 DUP2 ADD DUP8 SWAP1 MSTORE PUSH1 0x84 ADD PUSH2 0x1B8F JUMP JUMPDEST PUSH32 0x0 DUP2 GT ISZERO PUSH2 0x17CC JUMPI PUSH1 0x40 MLOAD PUSH3 0x461BCD PUSH1 0xE5 SHL DUP2 MSTORE PUSH1 0x20 PUSH1 0x4 DUP3 ADD MSTORE PUSH1 0x26 PUSH1 0x24 DUP3 ADD MSTORE PUSH32 0x56696F6C61746573206E617469766520746F6B656E20636F6D6D697373696F6E PUSH1 0x44 DUP3 ADD MSTORE PUSH6 0x81B1A5B5A5D PUSH1 0xD2 SHL PUSH1 0x64 DUP3 ADD MSTORE PUSH1 0x84 ADD PUSH2 0x42D JUMP JUMPDEST PUSH1 0x0 DUP1 DUP1 PUSH1 0x4 SLOAD PUSH1 0xFF AND PUSH1 0x2 DUP2 GT ISZERO PUSH2 0x1EC2 JUMPI PUSH2 0x1EC2 PUSH2 0x2098 JUMP JUMPDEST SUB PUSH2 0x1EFC JUMPI PUSH1 0x1 SLOAD PUSH1 0x0 SWAP1 PUSH2 0x3E8 SWAP1 PUSH2 0x1EDE SWAP1 PUSH1 0xFF AND DUP7 PUSH2 0x221C JUMP JUMPDEST PUSH2 0x1EE8 SWAP2 SWAP1 PUSH2 0x2233 JUMP JUMPDEST SWAP1 POP PUSH2 0x1EF3 DUP2 PUSH2 0x1F75 JUMP JUMPDEST SWAP5 SWAP1 SWAP4 POP SWAP2 POP POP JUMP JUMPDEST PUSH1 0x1 PUSH1 0x4 SLOAD PUSH1 0xFF AND PUSH1 0x2 DUP2 GT ISZERO PUSH2 0x1F15 JUMPI PUSH2 0x1F15 PUSH2 0x2098 JUMP JUMPDEST SUB PUSH2 0x1F33 JUMPI PUSH1 0x3 SLOAD PUSH2 0x1F26 SWAP1 PUSH2 0x1F75 JUMP JUMPDEST PUSH1 0x3 SLOAD SWAP1 SWAP5 SWAP1 SWAP4 POP SWAP2 POP POP JUMP JUMPDEST PUSH1 0x2 PUSH1 0x4 SLOAD PUSH1 0xFF AND PUSH1 0x2 DUP2 GT ISZERO PUSH2 0x1F4C JUMPI PUSH2 0x1F4C PUSH2 0x2098 JUMP JUMPDEST SUB PUSH2 0x1F6A JUMPI PUSH1 0x2 SLOAD PUSH2 0x1F5D SWAP1 PUSH2 0x1F75 JUMP JUMPDEST PUSH1 0x2 SLOAD SWAP1 SWAP5 SWAP1 SWAP4 POP SWAP2 POP POP JUMP JUMPDEST POP PUSH1 0x0 SWAP3 DUP4 SWAP3 POP SWAP1 POP JUMP JUMPDEST PUSH1 0x1 SLOAD PUSH1 0x0 SWAP1 PUSH1 0x64 SWAP1 PUSH2 0x1F91 SWAP1 PUSH3 0x10000 SWAP1 DIV PUSH1 0xFF AND DUP5 PUSH2 0x221C JUMP JUMPDEST PUSH2 0x1F9B SWAP2 SWAP1 PUSH2 0x2233 JUMP JUMPDEST SWAP3 SWAP2 POP POP JUMP JUMPDEST DUP1 CALLDATALOAD PUSH1 0xFF DUP2 AND DUP2 EQ PUSH2 0x1FB2 JUMPI PUSH1 0x0 DUP1 REVERT JUMPDEST SWAP2 SWAP1 POP JUMP JUMPDEST PUSH1 0x1 PUSH1 0x1 PUSH1 0xA0 SHL SUB DUP2 AND DUP2 EQ PUSH2 0x17CC JUMPI PUSH1 0x0 DUP1 REVERT JUMPDEST PUSH1 0x0 DUP1 PUSH1 0x0 DUP1 PUSH1 0x0 DUP1 PUSH1 0x0 DUP1 PUSH1 0x0 PUSH2 0x120 DUP11 DUP13 SUB SLT ISZERO PUSH2 0x1FEB JUMPI PUSH1 0x0 DUP1 REVERT JUMPDEST DUP10 CALLDATALOAD DUP1 ISZERO ISZERO DUP2 EQ PUSH2 0x1FFB JUMPI PUSH1 0x0 DUP1 REVERT JUMPDEST SWAP9 POP PUSH2 0x2009 PUSH1 0x20 DUP12 ADD PUSH2 0x1FA1 JUMP JUMPDEST SWAP8 POP PUSH2 0x2017 PUSH1 0x40 DUP12 ADD PUSH2 0x1FA1 JUMP JUMPDEST SWAP7 POP PUSH2 0x2025 PUSH1 0x60 DUP12 ADD PUSH2 0x1FA1 JUMP JUMPDEST SWAP6 POP PUSH1 0x80 DUP11 ADD CALLDATALOAD SWAP5 POP PUSH1 0xA0 DUP11 ADD CALLDATALOAD SWAP4 POP PUSH1 0xC0 DUP11 ADD CALLDATALOAD SWAP3 POP PUSH1 0xE0 DUP11 ADD CALLDATALOAD PUSH2 0x204A DUP2 PUSH2 0x1FB7 JUMP JUMPDEST SWAP2 POP PUSH2 0x100 DUP11 ADD CALLDATALOAD PUSH2 0x205B DUP2 PUSH2 0x1FB7 JUMP JUMPDEST DUP1 SWAP2 POP POP SWAP3 SWAP6 SWAP9 POP SWAP3 SWAP6 SWAP9 POP SWAP3 SWAP6 SWAP9 JUMP JUMPDEST PUSH1 0x0 DUP1 PUSH1 0x0 PUSH1 0x60 DUP5 DUP7 SUB SLT ISZERO PUSH2 0x2081 JUMPI PUSH1 0x0 DUP1 REVERT JUMPDEST POP POP DUP2 CALLDATALOAD SWAP4 PUSH1 0x20 DUP4 ADD CALLDATALOAD SWAP4 POP PUSH1 0x40 SWAP1 SWAP3 ADD CALLDATALOAD SWAP2 SWAP1 POP JUMP JUMPDEST PUSH4 0x4E487B71 PUSH1 0xE0 SHL PUSH1 0x0 MSTORE PUSH1 0x21 PUSH1 0x4 MSTORE PUSH1 0x24 PUSH1 0x0 REVERT JUMPDEST PUSH1 0xFF DUP11 DUP2 AND DUP3 MSTORE DUP10 DUP2 AND PUSH1 0x20 DUP4 ADD MSTORE DUP9 AND PUSH1 0x40 DUP3 ADD MSTORE DUP7 ISZERO ISZERO PUSH1 0x60 DUP3 ADD MSTORE PUSH1 0x80 DUP2 ADD DUP7 SWAP1 MSTORE PUSH1 0xA0 DUP2 ADD DUP6 SWAP1 MSTORE PUSH2 0x120 DUP2 ADD PUSH1 0x3 DUP6 LT PUSH2 0x20FD JUMPI PUSH4 0x4E487B71 PUSH1 0xE0 SHL PUSH1 0x0 MSTORE PUSH1 0x21 PUSH1 0x4 MSTORE PUSH1 0x24 PUSH1 0x0 REVERT JUMPDEST PUSH1 0xC0 DUP3 ADD SWAP5 SWAP1 SWAP5 MSTORE PUSH1 0x1 PUSH1 0x1 PUSH1 0xA0 SHL SUB SWAP3 DUP4 AND PUSH1 0xE0 DUP3 ADD MSTORE SWAP2 AND PUSH2 0x100 SWAP1 SWAP2 ADD MSTORE SWAP7 SWAP6 POP POP POP POP POP POP JUMP JUMPDEST PUSH1 0x0 DUP1 PUSH1 0x0 DUP1 PUSH1 0x0 DUP1 PUSH1 0xC0 DUP8 DUP10 SUB SLT ISZERO PUSH2 0x2141 JUMPI PUSH1 0x0 DUP1 REVERT JUMPDEST DUP7 CALLDATALOAD PUSH2 0x214C DUP2 PUSH2 0x1FB7 JUMP JUMPDEST SWAP6 POP PUSH1 0x20 DUP8 ADD CALLDATALOAD SWAP5 POP PUSH1 0x40 DUP8 ADD CALLDATALOAD SWAP4 POP PUSH2 0x2168 PUSH1 0x60 DUP9 ADD PUSH2 0x1FA1 JUMP JUMPDEST SWAP3 POP PUSH1 0x80 DUP8 ADD CALLDATALOAD SWAP2 POP PUSH1 0xA0 DUP8 ADD CALLDATALOAD SWAP1 POP SWAP3 SWAP6 POP SWAP3 SWAP6 POP SWAP3 SWAP6 JUMP JUMPDEST PUSH1 0x0 PUSH1 0x20 DUP3 DUP5 SUB SLT ISZERO PUSH2 0x2194 JUMPI PUSH1 0x0 DUP1 REVERT JUMPDEST DUP2 CALLDATALOAD PUSH2 0x219F DUP2 PUSH2 0x1FB7 JUMP JUMPDEST SWAP4 SWAP3 POP POP POP JUMP JUMPDEST PUSH1 0x0 DUP1 PUSH1 0x0 DUP1 PUSH1 0x0 PUSH1 0xA0 DUP7 DUP9 SUB SLT ISZERO PUSH2 0x21BE JUMPI PUSH1 0x0 DUP1 REVERT JUMPDEST DUP6 CALLDATALOAD SWAP5 POP PUSH1 0x20 DUP7 ADD CALLDATALOAD SWAP4 POP PUSH2 0x21D5 PUSH1 0x40 DUP8 ADD PUSH2 0x1FA1 JUMP JUMPDEST SWAP5 SWAP8 SWAP4 SWAP7 POP SWAP4 SWAP5 PUSH1 0x60 DUP2 ADD CALLDATALOAD SWAP5 POP PUSH1 0x80 ADD CALLDATALOAD SWAP3 SWAP2 POP POP JUMP JUMPDEST PUSH4 0x4E487B71 PUSH1 0xE0 SHL PUSH1 0x0 MSTORE PUSH1 0x11 PUSH1 0x4 MSTORE PUSH1 0x24 PUSH1 0x0 REVERT JUMPDEST PUSH1 0xFF DUP2 DUP2 AND DUP4 DUP3 AND ADD SWAP1 DUP2 GT ISZERO PUSH2 0x1F9B JUMPI PUSH2 0x1F9B PUSH2 0x21ED JUMP JUMPDEST DUP1 DUP3 MUL DUP2 ISZERO DUP3 DUP3 DIV DUP5 EQ OR PUSH2 0x1F9B JUMPI PUSH2 0x1F9B PUSH2 0x21ED JUMP JUMPDEST PUSH1 0x0 DUP3 PUSH2 0x2250 JUMPI PUSH4 0x4E487B71 PUSH1 0xE0 SHL PUSH1 0x0 MSTORE PUSH1 0x12 PUSH1 0x4 MSTORE PUSH1 0x24 PUSH1 0x0 REVERT JUMPDEST POP DIV SWAP1 JUMP JUMPDEST PUSH1 0x0 PUSH1 0x20 DUP3 DUP5 SUB SLT ISZERO PUSH2 0x2267 JUMPI PUSH1 0x0 DUP1 REVERT JUMPDEST POP MLOAD SWAP2 SWAP1 POP JUMP JUMPDEST DUP1 DUP3 ADD DUP1 DUP3 GT ISZERO PUSH2 0x1F9B JUMPI PUSH2 0x1F9B PUSH2 0x21ED JUMP JUMPDEST PUSH1 0x0 DUP3 MLOAD PUSH1 0x0 JUMPDEST DUP2 DUP2 LT ISZERO PUSH2 0x22A2 JUMPI PUSH1 0x20 DUP2 DUP7 ADD DUP2 ADD MLOAD DUP6 DUP4 ADD MSTORE ADD PUSH2 0x2288 JUMP JUMPDEST POP PUSH1 0x0 SWAP3 ADD SWAP2 DUP3 MSTORE POP SWAP2 SWAP1 POP JUMP JUMPDEST DUP2 DUP2 SUB DUP2 DUP2 GT ISZERO PUSH2 0x1F9B JUMPI PUSH2 0x1F9B PUSH2 0x21ED JUMP JUMPDEST PUSH1 0x20 DUP1 DUP3 MSTORE PUSH1 0x2F SWAP1 DUP3 ADD MSTORE PUSH32 0x54686520636F6D6D697373696F6E20726563697069656E742061646472657373 PUSH1 0x40 DUP3 ADD MSTORE PUSH15 0x2063616E6E6F74206265207A65726F PUSH1 0x88 SHL PUSH1 0x60 DUP3 ADD MSTORE PUSH1 0x80 ADD SWAP1 JUMP INVALID LOG2 PUSH5 0x6970667358 0x22 SLT KECCAK256 0xF7 0xD1 0xD3 PUSH13 0x941B3ED83D41A683B381A5BF1E PUSH16 0x11D691B6ABF1FDE4E98099D6A90C6473 PUSH16 0x6C634300081300330000000000000000 "},"methodIdentifiers":{"claimNativeCurrencyCommission()":"37c15626","commissionSettings()":"5531e774","conversionIn(address,uint256,bytes32,uint8,bytes32,bytes32)":"6a02fcc4","conversionOut(uint256,bytes32,uint8,bytes32,bytes32)":"9f23c9e2","disableCommission()":"b26e099f","getCommissionReceiverAddresses()":"9cb71686","getCommissionSettings()":"58a93688","getConversionConfigurations()":"feea1529","getconversionAuthorizer()":"87319f5f","owner()":"8da5cb5b","renounceOwnership()":"715018a6","transferOwnership(address)":"f2fde38b","updateAuthorizer(address)":"e0a66578","updateBridgeOwner(address)":"7c522d28","updateCommissionConfiguration(bool,uint8,uint8,uint8,uint256,uint256,uint256,address,address)":"094c3159","updateConfigurations(uint256,uint256,uint256)":"529c0970","updateReceiverCommission(address)":"94aca02a"}}}}}