{
  "_format": "hh-sol-artifact-1",
  "contractName": "TokenConversionManagerV2",
  "sourceName": "contracts/TokenConversionManagerV2.sol",
  "abi": [
    {
      "inputs": [
        {
          "internalType": "address",
          "name": "token",
          "type": "address"
        },
        {
          "internalType": "bool",
          "name": "commissionIsEnabled",
          "type": "bool"
        },
        {
          "internalType": "uint8",
          "name": "receiverCommissionProportion",
          "type": "uint8"
        },
        {
          "internalType": "uint8",
          "name": "bridgeOwnerCommissionProportion",
          "type": "uint8"
        },
        {
          "internalType": "uint256",
          "name": "fixedNativeTokenCommissionLimit",
          "type": "uint256"
        },
        {
          "internalType": "address payable",
          "name": "commissionReceiver",
          "type": "address"
        },
        {
          "internalType": "address payable",
          "name": "bridgeOwner",
          "type": "address"
        }
      ],
      "stateMutability": "nonpayable",
      "type": "constructor"
    },
    {
      "inputs": [],
      "name": "CommissionTransferFailed",
      "type": "error"
    },
    {
      "inputs": [],
      "name": "ConversionFailed",
      "type": "error"
    },
    {
      "inputs": [],
      "name": "ConversionMintFailed",
      "type": "error"
    },
    {
      "inputs": [],
      "name": "EnablingZeroFixedNativeTokenCommission",
      "type": "error"
    },
    {
      "inputs": [],
      "name": "EnablingZeroFixedTokenCommission",
      "type": "error"
    },
    {
      "inputs": [],
      "name": "EnablingZeroTokenPercentageCommission",
      "type": "error"
    },
    {
      "inputs": [
        {
          "internalType": "uint8",
          "name": "proportion1",
          "type": "uint8"
        },
        {
          "internalType": "uint8",
          "name": "proportion2",
          "type": "uint8"
        }
      ],
      "name": "InvalidProportionSum",
      "type": "error"
    },
    {
      "inputs": [],
      "name": "InvalidRequestOrSignature",
      "type": "error"
    },
    {
      "inputs": [],
      "name": "InvalidUpdateConfigurations",
      "type": "error"
    },
    {
      "inputs": [],
      "name": "MintingMoreThanMaxSupply",
      "type": "error"
    },
    {
      "inputs": [],
      "name": "NativeClaimFailed",
      "type": "error"
    },
    {
      "inputs": [],
      "name": "NotEnoughBalance",
      "type": "error"
    },
    {
      "inputs": [],
      "name": "PercentageLimitExceeded",
      "type": "error"
    },
    {
      "inputs": [
        {
          "internalType": "uint256",
          "name": "sent",
          "type": "uint256"
        },
        {
          "internalType": "uint256",
          "name": "required",
          "type": "uint256"
        }
      ],
      "name": "TakeFixedNativeTokensCommissionFailed",
      "type": "error"
    },
    {
      "inputs": [
        {
          "internalType": "address",
          "name": "caller",
          "type": "address"
        }
      ],
      "name": "UnauthorizedCommissionReceiver",
      "type": "error"
    },
    {
      "inputs": [],
      "name": "UsedSignature",
      "type": "error"
    },
    {
      "inputs": [],
      "name": "ViolationOfFixedNativeTokensLimit",
      "type": "error"
    },
    {
      "inputs": [],
      "name": "ViolationOfTxAmountLimits",
      "type": "error"
    },
    {
      "inputs": [],
      "name": "ZeroAddress",
      "type": "error"
    },
    {
      "inputs": [],
      "name": "ZeroFixedNativeTokensCommissionLimit",
      "type": "error"
    },
    {
      "anonymous": false,
      "inputs": [
        {
          "indexed": true,
          "internalType": "address",
          "name": "tokenHolder",
          "type": "address"
        },
        {
          "indexed": false,
          "internalType": "bytes32",
          "name": "conversionId",
          "type": "bytes32"
        },
        {
          "indexed": false,
          "internalType": "uint256",
          "name": "amount",
          "type": "uint256"
        }
      ],
      "name": "ConversionIn",
      "type": "event"
    },
    {
      "anonymous": false,
      "inputs": [
        {
          "indexed": true,
          "internalType": "address",
          "name": "tokenHolder",
          "type": "address"
        },
        {
          "indexed": false,
          "internalType": "bytes32",
          "name": "conversionId",
          "type": "bytes32"
        },
        {
          "indexed": false,
          "internalType": "uint256",
          "name": "amount",
          "type": "uint256"
        }
      ],
      "name": "ConversionOut",
      "type": "event"
    },
    {
      "anonymous": false,
      "inputs": [
        {
          "indexed": true,
          "internalType": "uint256",
          "name": "time",
          "type": "uint256"
        }
      ],
      "name": "FixedNativeTokensCommissionClaim",
      "type": "event"
    },
    {
      "anonymous": false,
      "inputs": [
        {
          "indexed": false,
          "internalType": "address",
          "name": "conversionAuthorizer",
          "type": "address"
        }
      ],
      "name": "NewAuthorizer",
      "type": "event"
    },
    {
      "anonymous": false,
      "inputs": [
        {
          "indexed": true,
          "internalType": "address",
          "name": "previousOwner",
          "type": "address"
        },
        {
          "indexed": true,
          "internalType": "address",
          "name": "newOwner",
          "type": "address"
        }
      ],
      "name": "OwnershipTransferred",
      "type": "event"
    },
    {
      "anonymous": false,
      "inputs": [
        {
          "indexed": false,
          "internalType": "uint8",
          "name": "receiverCommissionProportion",
          "type": "uint8"
        },
        {
          "indexed": false,
          "internalType": "uint8",
          "name": "bridgeOwnerCommissionProportion",
          "type": "uint8"
        },
        {
          "indexed": false,
          "internalType": "uint256",
          "name": "updateTimestamp",
          "type": "uint256"
        }
      ],
      "name": "UpdateCommissionProportions",
      "type": "event"
    },
    {
      "anonymous": false,
      "inputs": [
        {
          "indexed": true,
          "internalType": "bool",
          "name": "commissionIsEnabled",
          "type": "bool"
        },
        {
          "indexed": true,
          "internalType": "uint256",
          "name": "commissionType",
          "type": "uint256"
        },
        {
          "indexed": true,
          "internalType": "uint256",
          "name": "timestamp",
          "type": "uint256"
        }
      ],
      "name": "UpdateCommissionType",
      "type": "event"
    },
    {
      "anonymous": false,
      "inputs": [
        {
          "indexed": false,
          "internalType": "uint256",
          "name": "perTxnMinAmount",
          "type": "uint256"
        },
        {
          "indexed": false,
          "internalType": "uint256",
          "name": "perTxnMaxAmount",
          "type": "uint256"
        },
        {
          "indexed": false,
          "internalType": "uint256",
          "name": "maxSupply",
          "type": "uint256"
        }
      ],
      "name": "UpdateConfiguration",
      "type": "event"
    },
    {
      "anonymous": false,
      "inputs": [
        {
          "indexed": true,
          "internalType": "uint256",
          "name": "timestamp",
          "type": "uint256"
        },
        {
          "indexed": false,
          "internalType": "uint256",
          "name": "fixedNativeTokensCommission",
          "type": "uint256"
        }
      ],
      "name": "UpdateFixedNativeTokensCommission",
      "type": "event"
    },
    {
      "anonymous": false,
      "inputs": [
        {
          "indexed": true,
          "internalType": "uint256",
          "name": "timestamp",
          "type": "uint256"
        },
        {
          "indexed": false,
          "internalType": "uint256",
          "name": "fixedTokenCommission",
          "type": "uint256"
        }
      ],
      "name": "UpdateFixedTokensCommission",
      "type": "event"
    },
    {
      "anonymous": false,
      "inputs": [
        {
          "indexed": true,
          "internalType": "uint256",
          "name": "timestamp",
          "type": "uint256"
        },
        {
          "indexed": false,
          "internalType": "uint256",
          "name": "convertTokenPercentage",
          "type": "uint256"
        },
        {
          "indexed": false,
          "internalType": "uint256",
          "name": "pointOffsetShifter",
          "type": "uint256"
        }
      ],
      "name": "UpdatePercentageTokensCommission",
      "type": "event"
    },
    {
      "anonymous": false,
      "inputs": [
        {
          "indexed": true,
          "internalType": "address",
          "name": "previousReceiver",
          "type": "address"
        },
        {
          "indexed": true,
          "internalType": "address",
          "name": "newReceiver",
          "type": "address"
        }
      ],
      "name": "UpdateReceiver",
      "type": "event"
    },
    {
      "inputs": [],
      "name": "claimFixedNativeTokensCommission",
      "outputs": [],
      "stateMutability": "nonpayable",
      "type": "function"
    },
    {
      "inputs": [],
      "name": "commissionSettings",
      "outputs": [
        {
          "internalType": "uint8",
          "name": "convertTokenPercentage",
          "type": "uint8"
        },
        {
          "internalType": "uint8",
          "name": "receiverCommissionProportion",
          "type": "uint8"
        },
        {
          "internalType": "uint8",
          "name": "bridgeOwnerCommissionProportion",
          "type": "uint8"
        },
        {
          "internalType": "uint16",
          "name": "pointOffsetShifter",
          "type": "uint16"
        },
        {
          "internalType": "bool",
          "name": "commissionIsEnabled",
          "type": "bool"
        },
        {
          "internalType": "uint256",
          "name": "fixedNativeTokensCommission",
          "type": "uint256"
        },
        {
          "internalType": "uint256",
          "name": "fixedTokenCommission",
          "type": "uint256"
        },
        {
          "internalType": "enum Commission.CommissionType",
          "name": "commissionType",
          "type": "uint8"
        },
        {
          "internalType": "address payable",
          "name": "receiverCommission",
          "type": "address"
        },
        {
          "internalType": "address payable",
          "name": "bridgeOwner",
          "type": "address"
        }
      ],
      "stateMutability": "view",
      "type": "function"
    },
    {
      "inputs": [
        {
          "internalType": "address",
          "name": "to",
          "type": "address"
        },
        {
          "internalType": "uint256",
          "name": "amount",
          "type": "uint256"
        },
        {
          "internalType": "bytes32",
          "name": "conversionId",
          "type": "bytes32"
        },
        {
          "internalType": "uint8",
          "name": "v",
          "type": "uint8"
        },
        {
          "internalType": "bytes32",
          "name": "r",
          "type": "bytes32"
        },
        {
          "internalType": "bytes32",
          "name": "s",
          "type": "bytes32"
        }
      ],
      "name": "conversionIn",
      "outputs": [],
      "stateMutability": "payable",
      "type": "function"
    },
    {
      "inputs": [
        {
          "internalType": "uint256",
          "name": "amount",
          "type": "uint256"
        },
        {
          "internalType": "bytes32",
          "name": "conversionId",
          "type": "bytes32"
        },
        {
          "internalType": "uint8",
          "name": "v",
          "type": "uint8"
        },
        {
          "internalType": "bytes32",
          "name": "r",
          "type": "bytes32"
        },
        {
          "internalType": "bytes32",
          "name": "s",
          "type": "bytes32"
        }
      ],
      "name": "conversionOut",
      "outputs": [],
      "stateMutability": "payable",
      "type": "function"
    },
    {
      "inputs": [],
      "name": "disableCommission",
      "outputs": [],
      "stateMutability": "nonpayable",
      "type": "function"
    },
    {
      "inputs": [
        {
          "internalType": "uint256",
          "name": "newFixedNativeTokensCommission",
          "type": "uint256"
        }
      ],
      "name": "enableAndUpdateFixedNativeTokensCommission",
      "outputs": [],
      "stateMutability": "nonpayable",
      "type": "function"
    },
    {
      "inputs": [
        {
          "internalType": "uint256",
          "name": "newFixedTokenCommission",
          "type": "uint256"
        }
      ],
      "name": "enableAndUpdateFixedTokensCommission",
      "outputs": [],
      "stateMutability": "nonpayable",
      "type": "function"
    },
    {
      "inputs": [
        {
          "internalType": "uint8",
          "name": "newConvertTokenPercentage",
          "type": "uint8"
        },
        {
          "internalType": "uint16",
          "name": "newPointOffsetShifter",
          "type": "uint16"
        }
      ],
      "name": "enableAndUpdatePercentageTokensCommission",
      "outputs": [],
      "stateMutability": "nonpayable",
      "type": "function"
    },
    {
      "inputs": [],
      "name": "getCommissionReceiverAddresses",
      "outputs": [
        {
          "internalType": "address",
          "name": "",
          "type": "address"
        },
        {
          "internalType": "address",
          "name": "",
          "type": "address"
        }
      ],
      "stateMutability": "view",
      "type": "function"
    },
    {
      "inputs": [],
      "name": "getCommissionSettings",
      "outputs": [
        {
          "internalType": "bool",
          "name": "commissionIsEnabled",
          "type": "bool"
        },
        {
          "internalType": "uint8",
          "name": "receiverCommissionProportion",
          "type": "uint8"
        },
        {
          "internalType": "uint8",
          "name": "bridgeOwnerCommissionProportion",
          "type": "uint8"
        },
        {
          "internalType": "uint8",
          "name": "convertTokenPercentage",
          "type": "uint8"
        },
        {
          "internalType": "uint16",
          "name": "offsetShifter",
          "type": "uint16"
        },
        {
          "internalType": "uint256",
          "name": "tokenTypeCommission",
          "type": "uint256"
        },
        {
          "internalType": "uint256",
          "name": "fixedTokenCommission",
          "type": "uint256"
        },
        {
          "internalType": "uint256",
          "name": "fixedNativeTokensCommission",
          "type": "uint256"
        },
        {
          "internalType": "address payable",
          "name": "receiverCommission",
          "type": "address"
        },
        {
          "internalType": "address payable",
          "name": "bridgeOwner",
          "type": "address"
        },
        {
          "internalType": "address",
          "name": "token",
          "type": "address"
        }
      ],
      "stateMutability": "view",
      "type": "function"
    },
    {
      "inputs": [],
      "name": "getConversionAuthorizer",
      "outputs": [
        {
          "internalType": "address",
          "name": "",
          "type": "address"
        }
      ],
      "stateMutability": "view",
      "type": "function"
    },
    {
      "inputs": [],
      "name": "getConversionConfigurations",
      "outputs": [
        {
          "internalType": "uint256",
          "name": "",
          "type": "uint256"
        },
        {
          "internalType": "uint256",
          "name": "",
          "type": "uint256"
        },
        {
          "internalType": "uint256",
          "name": "",
          "type": "uint256"
        }
      ],
      "stateMutability": "view",
      "type": "function"
    },
    {
      "inputs": [],
      "name": "owner",
      "outputs": [
        {
          "internalType": "address",
          "name": "",
          "type": "address"
        }
      ],
      "stateMutability": "view",
      "type": "function"
    },
    {
      "inputs": [],
      "name": "renounceOwnership",
      "outputs": [],
      "stateMutability": "nonpayable",
      "type": "function"
    },
    {
      "inputs": [
        {
          "internalType": "address",
          "name": "newOwner",
          "type": "address"
        }
      ],
      "name": "transferOwnership",
      "outputs": [],
      "stateMutability": "nonpayable",
      "type": "function"
    },
    {
      "inputs": [
        {
          "internalType": "address",
          "name": "newAuthorizer",
          "type": "address"
        }
      ],
      "name": "updateAuthorizer",
      "outputs": [],
      "stateMutability": "nonpayable",
      "type": "function"
    },
    {
      "inputs": [
        {
          "internalType": "address",
          "name": "newBridgeOwner",
          "type": "address"
        }
      ],
      "name": "updateBridgeOwner",
      "outputs": [],
      "stateMutability": "nonpayable",
      "type": "function"
    },
    {
      "inputs": [
        {
          "internalType": "uint8",
          "name": "newReceiverCommissionProportion",
          "type": "uint8"
        },
        {
          "internalType": "uint8",
          "name": "newBridgeOwnerCommissionProportion",
          "type": "uint8"
        }
      ],
      "name": "updateCommissionProportions",
      "outputs": [],
      "stateMutability": "nonpayable",
      "type": "function"
    },
    {
      "inputs": [
        {
          "internalType": "uint256",
          "name": "perTxnMinAmount",
          "type": "uint256"
        },
        {
          "internalType": "uint256",
          "name": "perTxnMaxAmount",
          "type": "uint256"
        },
        {
          "internalType": "uint256",
          "name": "maxSupply",
          "type": "uint256"
        }
      ],
      "name": "updateConfigurations",
      "outputs": [],
      "stateMutability": "nonpayable",
      "type": "function"
    },
    {
      "inputs": [
        {
          "internalType": "address",
          "name": "newReceiverCommission",
          "type": "address"
        }
      ],
      "name": "updateReceiverCommission",
      "outputs": [],
      "stateMutability": "nonpayable",
      "type": "function"
    }
  ],
  "bytecode": "0x60c06040523480156200001157600080fd5b50604051620072f1380380620072f1833981810160405281019062000037919062001068565b868686868686866200005e620000526200096460201b60201c565b6200096c60201b60201c565b6001808190555086620000826726f982bdaee9ddae60c01b62000a3060201b60201c565b6200009e67043e93428f870cde60c01b62000a3060201b60201c565b620000ba6783d504cc9b25eee660c01b62000a3060201b60201c565b600073ffffffffffffffffffffffffffffffffffffffff168173ffffffffffffffffffffffffffffffffffffffff160362000159576200010b6708c65a462e5eeede60c01b62000a3060201b60201c565b6200012767dccf128358fa962560c01b62000a3060201b60201c565b6040517fd92e233d00000000000000000000000000000000000000000000000000000000815260040160405180910390fd5b6200017567f70d14915dd40d8c60c01b62000a3060201b60201c565b6200019167c11d9527ed3a452960c01b62000a3060201b60201c565b81620001ae6726f982bdaee9ddae60c01b62000a3060201b60201c565b620001ca67043e93428f870cde60c01b62000a3060201b60201c565b620001e66783d504cc9b25eee660c01b62000a3060201b60201c565b600073ffffffffffffffffffffffffffffffffffffffff168173ffffffffffffffffffffffffffffffffffffffff16036200028557620002376708c65a462e5eeede60c01b62000a3060201b60201c565b6200025367dccf128358fa962560c01b62000a3060201b60201c565b6040517fd92e233d00000000000000000000000000000000000000000000000000000000815260040160405180910390fd5b620002a167f70d14915dd40d8c60c01b62000a3060201b60201c565b620002bd67c11d9527ed3a452960c01b62000a3060201b60201c565b620002d96776de6f0e0f6c54ea60c01b62000a3060201b60201c565b620002f5679f9b719345675a3660c01b62000a3060201b60201c565b8873ffffffffffffffffffffffffffffffffffffffff1660808173ffffffffffffffffffffffffffffffffffffffff16815250506200034567ce92a635d0d6705c60c01b62000a3060201b60201c565b6200036167a70218c7e5d746c860c01b62000a3060201b60201c565b60008503620003d457620003866713755f45ce1f0c3160c01b62000a3060201b60201c565b620003a267a4add3240bf8ed1560c01b62000a3060201b60201c565b6040517ffcab2c8400000000000000000000000000000000000000000000000000000000815260040160405180910390fd5b620003f0671180aba137ee9d0260c01b62000a3060201b60201c565b6200040c6794ec41e85bed75cb60c01b62000a3060201b60201c565b8460a0818152505062000430677ca6eca5aac919e560c01b62000a3060201b60201c565b6200044c67f79f4e1a52b95f8060c01b62000a3060201b60201c565b60004290506200046d6763505263855da1d260c01b62000a3060201b60201c565b62000489670149168eb924f98e60c01b62000a3060201b60201c565b88156200055757620004ac6701c4b4b1a79a360c60c01b62000a3060201b60201c565b620004c86773c8cacc98f390a460c01b62000a3060201b60201c565b6001600260000160056101000a81548160ff0219169083151502179055506200050267af23278d996175f060c01b62000a3060201b60201c565b6200051e6799d2de9246d58a1960c01b62000a3060201b60201c565b806000600115157fc4a8c097b5d93dcebaa4f0f65b88ca288e38ff724fa55d3d2af8ecd63c3c9be760405160405180910390a462000574565b62000573676d165db27d266faa60c01b62000a3060201b60201c565b5b6200059067c10287cda47d12f660c01b62000a3060201b60201c565b620005ac679805fd7c50a8a72660c01b62000a3060201b60201c565b620005be888862000a3360201b60201c565b620005da6709e418fce8c2e70e60c01b62000a3060201b60201c565b83600260040160006101000a81548173ffffffffffffffffffffffffffffffffffffffff021916908373ffffffffffffffffffffffffffffffffffffffff1602179055506200063a676debdb77ff60249560c01b62000a3060201b60201c565b6200065667941eabb805752e1660c01b62000a3060201b60201c565b8373ffffffffffffffffffffffffffffffffffffffff16600073ffffffffffffffffffffffffffffffffffffffff167f62904549814f5511a5d36a62611a6e2fe1d2c29b6de74de25d95395e0a7d009b60405160405180910390a3620006cd67e62dbdbd4e2b7d3560c01b62000a3060201b60201c565b620006e9679766ef1d6fd8bed660c01b62000a3060201b60201c565b600073ffffffffffffffffffffffffffffffffffffffff168573ffffffffffffffffffffffffffffffffffffffff161462000833576200073a67d70ce8772506b89e60c01b62000a3060201b60201c565b62000756675ce552c262bedf5e60c01b62000a3060201b60201c565b84600260030160016101000a81548173ffffffffffffffffffffffffffffffffffffffff021916908373ffffffffffffffffffffffffffffffffffffffff160217905550620007b66724d774f43717cbea60c01b62000a3060201b60201c565b620007d2679da7582e3022f64960c01b62000a3060201b60201c565b8473ffffffffffffffffffffffffffffffffffffffff16600073ffffffffffffffffffffffffffffffffffffffff167f62904549814f5511a5d36a62611a6e2fe1d2c29b6de74de25d95395e0a7d009b60405160405180910390a362000850565b6200084f6739e9613382e702a160c01b62000a3060201b60201c565b5b6200086c67c54b76e6ff90e2fa60c01b62000a3060201b60201c565b6200088867441d0d12e2a9b40560c01b62000a3060201b60201c565b7f8849d9036ec7068880bd56182e37500d89a0664b4800e4b44fba2e01a6940501888883604051620008bd939291906200113d565b60405180910390a150505050505050505050620008eb67ee6737bf730857ac60c01b62000e4660201b60201c565b62000907677bc9200c4d13de9060c01b62000e4660201b60201c565b620009176200096460201b60201c565b600760006101000a81548173ffffffffffffffffffffffffffffffffffffffff021916908373ffffffffffffffffffffffffffffffffffffffff1602179055505050505050505062001295565b600033905090565b60008060009054906101000a900473ffffffffffffffffffffffffffffffffffffffff169050816000806101000a81548173ffffffffffffffffffffffffffffffffffffffff021916908373ffffffffffffffffffffffffffffffffffffffff1602179055508173ffffffffffffffffffffffffffffffffffffffff168173ffffffffffffffffffffffffffffffffffffffff167f8be0079c531659141344cd1fd0a4f28419497f9722a3daafe3b4186f6b6457e060405160405180910390a35050565b50565b62000a4f6725e99f5d8e9813dd60c01b62000a3060201b60201c565b62000a5f62000e4960201b60201c565b62000a7b679ff58ce2ac447ce260c01b62000a3060201b60201c565b62000a97679c35aa2faf6e710a60c01b62000a3060201b60201c565b818162000ab567f48b5a2246bf506460c01b62000a3060201b60201c565b62000ad167b48068eb68e110e860c01b62000a3060201b60201c565b62000aed67ea57c67678df968a60c01b62000a3060201b60201c565b606460ff16818362000b009190620011a9565b60ff161462000b825762000b2567fac91c9468bb0c5d60c01b62000a3060201b60201c565b62000b4167d9820a54db345eaa60c01b62000a3060201b60201c565b81816040517f8efe3fd500000000000000000000000000000000000000000000000000000000815260040162000b79929190620011e5565b60405180910390fd5b62000b9e6741740c842ed2c74260c01b62000a3060201b60201c565b62000bba67826ecf2d226ee01b60c01b62000a3060201b60201c565b62000bd66716d523cfb22ec5b360c01b62000a3060201b60201c565b62000bf26798025beb5cfa7b1e60c01b62000a3060201b60201c565b62000c0e67436d7d41475704db60c01b62000a3060201b60201c565b62000c2a67b3fd81c5b1f7dbeb60c01b62000a3060201b60201c565b8360ff16600260000160019054906101000a900460ff1660ff161462000ca65762000c6667d9fd2cf2aa42cbe760c01b62000a3060201b60201c565b62000c82671512905cdc9c28b860c01b62000a3060201b60201c565b83600260000160016101000a81548160ff021916908360ff16021790555062000cc3565b62000cc267c3edfb502758d30960c01b62000a3060201b60201c565b5b62000cdf67b4df77953c505b4760c01b62000a3060201b60201c565b62000cfb67fb91d9fed2b5687860c01b62000a3060201b60201c565b60008360ff161415801562000d2857508260ff16600260000160029054906101000a900460ff1660ff1614155b1562000d8a5762000d4a67cd1864281daf3f4360c01b62000a3060201b60201c565b62000d66673d60900b4e84e41d60c01b62000a3060201b60201c565b82600260000160026101000a81548160ff021916908360ff16021790555062000da7565b62000da66757a583417d46df8960c01b62000a3060201b60201c565b5b62000dc36785b2d7430922323660c01b62000a3060201b60201c565b62000ddf67edbb58b649b803e760c01b62000a3060201b60201c565b7f8849d9036ec7068880bd56182e37500d89a0664b4800e4b44fba2e01a6940501600260000160019054906101000a900460ff16600260000160029054906101000a900460ff164260405162000e38939291906200113d565b60405180910390a150505050565b50565b62000e596200096460201b60201c565b73ffffffffffffffffffffffffffffffffffffffff1662000e7f62000eda60201b60201c565b73ffffffffffffffffffffffffffffffffffffffff161462000ed8576040517f08c379a000000000000000000000000000000000000000000000000000000000815260040162000ecf9062001273565b60405180910390fd5b565b60008060009054906101000a900473ffffffffffffffffffffffffffffffffffffffff16905090565b600080fd5b600073ffffffffffffffffffffffffffffffffffffffff82169050919050565b600062000f358262000f08565b9050919050565b62000f478162000f28565b811462000f5357600080fd5b50565b60008151905062000f678162000f3c565b92915050565b60008115159050919050565b62000f848162000f6d565b811462000f9057600080fd5b50565b60008151905062000fa48162000f79565b92915050565b600060ff82169050919050565b62000fc28162000faa565b811462000fce57600080fd5b50565b60008151905062000fe28162000fb7565b92915050565b6000819050919050565b62000ffd8162000fe8565b81146200100957600080fd5b50565b6000815190506200101d8162000ff2565b92915050565b6000620010308262000f08565b9050919050565b620010428162001023565b81146200104e57600080fd5b50565b600081519050620010628162001037565b92915050565b600080600080600080600060e0888a0312156200108a576200108962000f03565b5b60006200109a8a828b0162000f56565b9750506020620010ad8a828b0162000f93565b9650506040620010c08a828b0162000fd1565b9550506060620010d38a828b0162000fd1565b9450506080620010e68a828b016200100c565b93505060a0620010f98a828b0162001051565b92505060c06200110c8a828b0162001051565b91505092959891949750929550565b620011268162000faa565b82525050565b620011378162000fe8565b82525050565b60006060820190506200115460008301866200111b565b6200116360208301856200111b565b6200117260408301846200112c565b949350505050565b7f4e487b7100000000000000000000000000000000000000000000000000000000600052601160045260246000fd5b6000620011b68262000faa565b9150620011c38362000faa565b9250828201905060ff811115620011df57620011de6200117a565b5b92915050565b6000604082019050620011fc60008301856200111b565b6200120b60208301846200111b565b9392505050565b600082825260208201905092915050565b7f4f776e61626c653a2063616c6c6572206973206e6f7420746865206f776e6572600082015250565b60006200125b60208362001212565b9150620012688262001223565b602082019050919050565b600060208201905081810360008301526200128e816200124c565b9050919050565b60805160a051615fe26200130f6000396000614e0c01526000818161137b0152818161194601528181611b6401528181611cae01528181611e7a01528181611fd801528181613283015281816133d4015281816135390152818161436d01528181614598015281816149850152614bb90152615fe26000f3fe60806040526004361061011f5760003560e01c80639548f477116100a0578063b2d1bb5211610064578063b2d1bb5214610357578063c72304ac14610380578063e0a66578146103ab578063f2fde38b146103d4578063feea1529146103fd5761011f565b80639548f477146102a65780639b58bfed146102cf5780639cb71686146102f85780639f23c9e214610324578063b26e099f146103405761011f565b80636a02fcc4116100e75780636a02fcc4146101f6578063715018a6146102125780637c522d28146102295780638da5cb5b1461025257806394aca02a1461027d5761011f565b80632b100f5c146101245780632b84301f1461013b578063529c0970146101645780635531e7741461018d57806358a93688146101c1575b600080fd5b34801561013057600080fd5b5061013961042a565b005b34801561014757600080fd5b50610162600480360381019061015d9190615121565b610b34565b005b34801561017057600080fd5b5061018b60048036038101906101869190615197565b610f5d565b005b34801561019957600080fd5b506101a261117f565b6040516101b89a999897969594939291906152ea565b60405180910390f35b3480156101cd57600080fd5b506101d6611250565b6040516101ed9b9a999897969594939291906153a7565b60405180910390f35b610210600480360381019061020b91906154b4565b6113bd565b005b34801561021e57600080fd5b5061022761221a565b005b34801561023557600080fd5b50610250600480360381019061024b9190615541565b61222e565b005b34801561025e57600080fd5b50610267612490565b604051610274919061556e565b60405180910390f35b34801561028957600080fd5b506102a4600480360381019061029f9190615541565b6124b9565b005b3480156102b257600080fd5b506102cd60048036038101906102c89190615589565b6125ff565b005b3480156102db57600080fd5b506102f660048036038101906102f191906155b6565b61295e565b005b34801561030457600080fd5b5061030d612c9d565b60405161031b9291906155f6565b60405180910390f35b61033e6004803603810190610339919061561f565b612d30565b005b34801561034c57600080fd5b50610355613788565b005b34801561036357600080fd5b5061037e60048036038101906103799190615589565b61387e565b005b34801561038c57600080fd5b50610395613c0e565b6040516103a2919061556e565b60405180910390f35b3480156103b757600080fd5b506103d260048036038101906103cd9190615541565b613c74565b005b3480156103e057600080fd5b506103fb60048036038101906103f69190615541565b613e8b565b005b34801561040957600080fd5b50610412613f0e565b6040516104219392919061569a565b60405180910390f35b61043e6798aff1916dc6fe5c60c01b613f63565b610446613f66565b61045a67316ae873c3b0d65260c01b613f63565b61046e67785e815b8640167c60c01b613f63565b610476613fb5565b61048a679464a2febef5c75560c01b613f63565b61049e674c6b8ac45693a93460c01b613f63565b6104b26777c7735b3477bffe60c01b613f63565b600260030160019054906101000a900473ffffffffffffffffffffffffffffffffffffffff1673ffffffffffffffffffffffffffffffffffffffff166104f6613fb5565b73ffffffffffffffffffffffffffffffffffffffff16141580156105725750600260040160009054906101000a900473ffffffffffffffffffffffffffffffffffffffff1673ffffffffffffffffffffffffffffffffffffffff16610559613fb5565b73ffffffffffffffffffffffffffffffffffffffff1614155b156105e35761058b677e15a1572077914c60c01b613f63565b61059f6743d964e4f4d407d760c01b613f63565b6105a7613fb5565b6040517f0f287a3f0000000000000000000000000000000000000000000000000000000081526004016105da919061556e565b60405180910390fd5b6105f767ed562aea97b93a2060c01b613f63565b61060b67c2bce17dcf6008f960c01b613f63565b61061f676d6639a61c9420d760c01b613f63565b610633672288b71f3535a40d60c01b613f63565b61064767e2853c1e3684a45960c01b613f63565b61065b6755391599e62d6dad60c01b613f63565b600047905061067467056ffcda836d95d260c01b613f63565b6106886791231038fa86a5af60c01b613f63565b600081036106ea576106a467798d04c4b635e93660c01b613f63565b6106b867043173a1044ec11f60c01b613f63565b6040517fad3a8b9e00000000000000000000000000000000000000000000000000000000815260040160405180910390fd5b6106fe67b1c811754c58059c60c01b613f63565b61071267b632e3e2d9df3b0160c01b613f63565b610726671afc8acb9840e48b60c01b613f63565b600073ffffffffffffffffffffffffffffffffffffffff16600260030160019054906101000a900473ffffffffffffffffffffffffffffffffffffffff1673ffffffffffffffffffffffffffffffffffffffff161415801561079e57506000600260000160019054906101000a900460ff1660ff1614155b1561093d576107b7674a0455f5a50dace760c01b613f63565b6107cb67ac8795a2330c1ce660c01b613f63565b6107df67bf0d77a33305324e60c01b613f63565b6000600260030160019054906101000a900473ffffffffffffffffffffffffffffffffffffffff1673ffffffffffffffffffffffffffffffffffffffff166064600260000160019054906101000a900460ff1660ff16846108409190615700565b61084a9190615771565b604051610856906157d3565b60006040518083038185875af1925050503d8060008114610893576040519150601f19603f3d011682016040523d82523d6000602084013e610898565b606091505b505090506108b067803b4435ff10ff4460c01b613f63565b6108c4670fd6633a4d7df2e260c01b613f63565b80610923576108dd67ec3d522782e00dc760c01b613f63565b6108f16783e74eaf0d6399ec60c01b613f63565b6040517f244ec49600000000000000000000000000000000000000000000000000000000815260040160405180910390fd5b61093767d883ebe0ef16095660c01b613f63565b50610952565b61095167a8b3dd6ac4f8c00560c01b613f63565b5b61096667c2eda4bb3e17412160c01b613f63565b61097a674bd769b9b6f0ce8c60c01b613f63565b6000600260040160009054906101000a900473ffffffffffffffffffffffffffffffffffffffff1673ffffffffffffffffffffffffffffffffffffffff166064600260000160029054906101000a900460ff1660ff16846109db9190615700565b6109e59190615771565b6040516109f1906157d3565b60006040518083038185875af1925050503d8060008114610a2e576040519150601f19603f3d011682016040523d82523d6000602084013e610a33565b606091505b50509050610a4b670d32db4db4b601c860c01b613f63565b610a5f67068d2ca023afe52460c01b613f63565b80610abe57610a78679d096f55b3b0831260c01b613f63565b610a8c67681d2e48273b5c5460c01b613f63565b6040517f244ec49600000000000000000000000000000000000000000000000000000000815260040160405180910390fd5b610ad2677d1da2c11949325e60c01b613f63565b610ae6675c7779a9b067cec860c01b613f63565b610afa67396830a43c5dc32b60c01b613f63565b427f5e4ae8571f79274a16bfb15067cbf26ceca499fd2d7aa8b710e08e697d46518060405160405180910390a2505050610b32613fbd565b565b610b4867f0da3ada82e8130a60c01b613f63565b610b50613fc6565b610b6467f649ea709e720dff60c01b613f63565b610b78672bb58669213e556860c01b613f63565b610b8c67b6da6d3f8c25e0c060c01b613f63565b610ba0676ac26eddff56504460c01b613f63565b6000429050610bb967ac50ee87a8a9b6c060c01b613f63565b610bcd67b820c1ef2fc62d3b60c01b613f63565b600260000160059054906101000a900460ff16610c2f57610bf86752be21a270d3ad3460c01b613f63565b610c0c67c2c3662d1fe12d4a60c01b613f63565b6001600260000160056101000a81548160ff021916908315150217905550610c44565b610c4367215d1fef5da6cb3c60c01b613f63565b5b610c58678a70a9912d70bcd660c01b613f63565b610c6c67b9637583e4fd3fa360c01b613f63565b60006002811115610c8057610c7f615232565b5b600260030160009054906101000a900460ff166002811115610ca557610ca4615232565b5b14610e4957610cbe67fe253824d247bc8760c01b613f63565b610cd267dd8a5596f3e9dbaf60c01b613f63565b610ce667e7745e4a7444581160c01b613f63565b60008360ff16148015610d095750610d0867dfb7d86d97227b2e60c01b614044565b5b80610d34575060008261ffff16148015610d335750610d32675a8afc59b2ecc19d60c01b614044565b5b5b15610d9357610d4d67b35f99ca4d9b794760c01b613f63565b610d6167b4bc53de7a66bc2360c01b613f63565b6040517f8f12086700000000000000000000000000000000000000000000000000000000815260040160405180910390fd5b610da76797960940cce1284260c01b613f63565b610dbb678d04bd95f8f1aa2d60c01b613f63565b6000600260030160006101000a81548160ff02191690836002811115610de457610de3615232565b5b0217905550610dfd67ba77d1294207e9f560c01b613f63565b610e1167b145ad458b0bcf2a60c01b613f63565b806000600115157fc4a8c097b5d93dcebaa4f0f65b88ca288e38ff724fa55d3d2af8ecd63c3c9be760405160405180910390a4610e5e565b610e5d67f014013be4ea5c3860c01b613f63565b5b610e72675ebd9759efc9fc2b60c01b613f63565b610e86675f26645bf54a813960c01b613f63565b610e90838361404f565b610ea467e8708527c0c7f09b60c01b613f63565b81600260000160036101000a81548161ffff021916908361ffff160217905550610ed86795176aea96e8662760c01b613f63565b82600260000160006101000a81548160ff021916908360ff160217905550610f0a67ef07b26f9005889660c01b613f63565b610f1e6717f7ff8ee0ecaac860c01b613f63565b807f422dd4708a15598e4d5684fba6e31da6e941a6751d420a03ed97e323d4c7cfe78484604051610f50929190615854565b60405180910390a2505050565b610f716743e34622f5ba7d2160c01b61410c565b610f79613fc6565b610f8d67a9d2f498aed3ceaa60c01b61410c565b610fa167466187744052421660c01b61410c565b610fb567010ce7a74e26c31d60c01b61410c565b610fc96791988976b8ea3ac160c01b61410c565b600083148015610fe95750610fe8679bdaf617acf19d7b60c01b61410f565b5b8061102c575082821115801561100f575061100e671ca35a89db2ce3e560c01b61410f565b5b801561102b575061102a674c398f25d05ff0f460c01b61410f565b5b5b8061105357506000811480156110525750611051672f0146bdfac543bb60c01b61410f565b5b5b156110b25761106c67c9e833bb0ac1c86760c01b61410c565b61108067b2b21bf8335f7b4560c01b61410c565b6040517f0eca686c00000000000000000000000000000000000000000000000000000000815260040160405180910390fd5b6110c6673ca3c438e0c456b560c01b61410c565b6110da67221801593173c3ef60c01b61410c565b826009819055506110f567880d9b555cd606d360c01b61410c565b81600a81905550611110677afcfb1e7311d5dc60c01b61410c565b80600b8190555061112b679c3aeff2d9842e9e60c01b61410c565b61113f67a09c58446008744b60c01b61410c565b7fb2efb0aa6e279553a1e5567ebb495d322192aa43c5fc3073cba4601d52009ab48383836040516111729392919061569a565b60405180910390a1505050565b60028060000160009054906101000a900460ff16908060000160019054906101000a900460ff16908060000160029054906101000a900460ff16908060000160039054906101000a900461ffff16908060000160059054906101000a900460ff16908060010154908060020154908060030160009054906101000a900460ff16908060030160019054906101000a900473ffffffffffffffffffffffffffffffffffffffff16908060040160009054906101000a900473ffffffffffffffffffffffffffffffffffffffff1690508a565b600080600080600080600080600080600061127567c9a172e8a720703460c01b613f63565b61128967b6004c2d1f867a2460c01b613f63565b61129d67152a9bce6d0af6b160c01b613f63565b600260000160059054906101000a900460ff16600260000160019054906101000a900460ff16600260000160029054906101000a900460ff16600260000160009054906101000a900460ff16600260000160039054906101000a900461ffff16600260030160009054906101000a900460ff16600281111561132257611321615232565b5b6002800154600260010154600260030160019054906101000a900473ffffffffffffffffffffffffffffffffffffffff16600260040160009054906101000a900473ffffffffffffffffffffffffffffffffffffffff167f00000000000000000000000000000000000000000000000000000000000000009a509a509a509a509a509a509a509a509a509a509a50909192939495969798999a565b6113d167cd3ea26cd4d7f56560c01b61410c565b846113e667f2153b3025c2cf4160c01b61410c565b6113fa670da29b6f44d5ffd560c01b61410c565b61140e67f897555b7aaee5e260c01b61410c565b6009548110801561142f575061142e678063647b569a289260c01b61410f565b5b806114575750600a54811180156114565750611455673a4f2042c352492d60c01b61410f565b5b5b156114b65761147067e46c89198a50c5ae60c01b61410c565b61148467cd71caea682558be60c01b61410c565b6040517f17dfb4ac00000000000000000000000000000000000000000000000000000000815260040160405180910390fd5b6114ca67d3de7e63123c707560c01b61410c565b6114de67949a51b9d9c02d8c60c01b61410c565b6114f267264d03eaf179a4a560c01b61410c565b6115066737b63def8db0470d60c01b61410c565b61150e613f66565b611522677bddbcf3037f159d60c01b61410c565b6115366752a84134b970998d60c01b61410c565b8661154b6726f982bdaee9ddae60c01b613f63565b61155f67043e93428f870cde60c01b613f63565b6115736783d504cc9b25eee660c01b613f63565b600073ffffffffffffffffffffffffffffffffffffffff168173ffffffffffffffffffffffffffffffffffffffff1603611601576115bb6708c65a462e5eeede60c01b613f63565b6115cf67dccf128358fa962560c01b613f63565b6040517fd92e233d00000000000000000000000000000000000000000000000000000000815260040160405180910390fd5b61161567f70d14915dd40d8c60c01b613f63565b61162967c11d9527ed3a452960c01b613f63565b61163d6710a2c27084eb3f1c60c01b61410c565b61165167881ba74012a5349460c01b61410c565b61166567c4f1a65ce73eeaa860c01b61410c565b611679673c6b1445cc5af42160c01b61410c565b600061168f67da07d6b99f3a9bd860c01b61410c565b6116a36714967530c8fb664b60c01b61410c565b60006116e1896116b1613fb5565b8a306040516020016116c694939291906159bb565b6040516020818303038152906040528051906020012061411a565b90506116f7671fb83be602df6ef060c01b61410c565b61170b67fafe08df2380022360c01b61410c565b600760009054906101000a900473ffffffffffffffffffffffffffffffffffffffff1673ffffffffffffffffffffffffffffffffffffffff16600182898989604051600081526020016040526040516117679493929190615a23565b6020604051602081039080840390855afa158015611789573d6000803e3d6000fd5b5050506020604051035173ffffffffffffffffffffffffffffffffffffffff1614611808576117c2676b12821b1a65478260c01b61410c565b6117d6674832a05810dbd54760c01b61410c565b6040517fa7a059bc00000000000000000000000000000000000000000000000000000000815260040160405180910390fd5b61181c6720ac486e0522d17360c01b61410c565b61183067a330b92b5ad56fa960c01b61410c565b61184467970aac16e5f390d260c01b61410c565b6008600082815260200190815260200160002060009054906101000a900460ff16156118c45761187e674de54ca961a6025a60c01b61410c565b61189267aa130ae8b88e1bc360c01b61410c565b6040517fcce9a82400000000000000000000000000000000000000000000000000000000815260040160405180910390fd5b6118d867247717e78a8809a260c01b61410c565b6118ec675055df14664a571c60c01b61410c565b60016008600083815260200190815260200160002060006101000a81548160ff02191690831515021790555061192c6710f1c8eab6cf321760c01b61410c565b61194067b169639a0cb036a060c01b61410c565b600b54897f000000000000000000000000000000000000000000000000000000000000000073ffffffffffffffffffffffffffffffffffffffff166318160ddd6040518163ffffffff1660e01b8152600401602060405180830381865afa1580156119af573d6000803e3d6000fd5b505050506040513d601f19601f820116820180604052508101906119d39190615a7d565b6119dd9190615aaa565b1115611a3d576119f7670ed6359e2d8ae91b60c01b61410c565b611a0b6726feb62186b39ecc60c01b61410c565b6040517f28b53d4500000000000000000000000000000000000000000000000000000000815260040160405180910390fd5b611a5167c5e0e8641c81acfd60c01b61410c565b611a656702484e253408574760c01b61410c565b611a79672545f4032e815f7760c01b61410c565b600260000160059054906101000a900460ff1615611fae57611aa567c69d0ef5f32ecb6860c01b61410c565b611ab9675f27bab2b1bf9e1c60c01b61410c565b611acd67496fd597853d25f460c01b61410c565b600280811115611ae057611adf615232565b5b600260030160009054906101000a900460ff166002811115611b0557611b04615232565b5b03611c8457611b1e6719218feefee1a24860c01b61410c565b611b3267283f1624eadc5bd560c01b61410c565b611b4667317e9c0e3049562360c01b61410c565b611b4e614186565b611b626793bca749781c9b8160c01b61410c565b7f000000000000000000000000000000000000000000000000000000000000000073ffffffffffffffffffffffffffffffffffffffff167f40c10f19c047ae7dfa66d6312b683d2ea3dfbcb4159e96b967c5f4b0a86f28428b8b604051602401611bcd929190615ade565b604051602081830303815290604052907bffffffffffffffffffffffffffffffffffffffffffffffffffffffff19166020820180517bffffffffffffffffffffffffffffffffffffffffffffffffffffffff8381831617835250505050604051611c379190615b6d565b6000604051808303816000865af19150503d8060008114611c74576040519150601f19603f3d011682016040523d82523d6000602084013e611c79565b606091505b505080925050611fa9565b611c98672a6ca087860972fd60c01b61410c565b611cac67fff9652840d0029660c01b61410c565b7f000000000000000000000000000000000000000000000000000000000000000073ffffffffffffffffffffffffffffffffffffffff167f40c10f19c047ae7dfa66d6312b683d2ea3dfbcb4159e96b967c5f4b0a86f2842308b604051602401611d17929190615ade565b604051602081830303815290604052907bffffffffffffffffffffffffffffffffffffffffffffffffffffffff19166020820180517bffffffffffffffffffffffffffffffffffffffffffffffffffffffff8381831617835250505050604051611d819190615b6d565b6000604051808303816000865af19150503d8060008114611dbe576040519150601f19603f3d011682016040523d82523d6000602084013e611dc3565b606091505b505080925050611ddd67503385feaed9191b60c01b61410c565b611df1679d565729ce411fac60c01b61410c565b81611e5057611e0a675f45ff4adc03b8d360c01b61410c565b611e1e671b4e581429ba4b9160c01b61410c565b6040517fcb57cf5500000000000000000000000000000000000000000000000000000000815260040160405180910390fd5b611e6467521341854652614260c01b61410c565b611e7867b7d2ce6a570f505d60c01b61410c565b7f000000000000000000000000000000000000000000000000000000000000000073ffffffffffffffffffffffffffffffffffffffff167fa9059cbb2ab09eb219583f4a59a5d0623ade346d962bcd4e46b11da047c9049b8b611eda8c614250565b8c611ee59190615b84565b604051602401611ef6929190615ade565b604051602081830303815290604052907bffffffffffffffffffffffffffffffffffffffffffffffffffffffff19166020820180517bffffffffffffffffffffffffffffffffffffffffffffffffffffffff8381831617835250505050604051611f609190615b6d565b6000604051808303816000865af19150503d8060008114611f9d576040519150601f19603f3d011682016040523d82523d6000602084013e611fa2565b606091505b5050809250505b6120f4565b611fc26705ce568ceadf695d60c01b61410c565b611fd66766148c39e9be2be560c01b61410c565b7f000000000000000000000000000000000000000000000000000000000000000073ffffffffffffffffffffffffffffffffffffffff167f40c10f19c047ae7dfa66d6312b683d2ea3dfbcb4159e96b967c5f4b0a86f28428b8b604051602401612041929190615ade565b604051602081830303815290604052907bffffffffffffffffffffffffffffffffffffffffffffffffffffffff19166020820180517bffffffffffffffffffffffffffffffffffffffffffffffffffffffff83818316178352505050506040516120ab9190615b6d565b6000604051808303816000865af19150503d80600081146120e8576040519150601f19603f3d011682016040523d82523d6000602084013e6120ed565b606091505b5050809250505b61210867c3e67768276d749160c01b61410c565b61211c67a9be1a3425fc875b60c01b61410c565b8161217b5761213567ab67f51ae8a70afd60c01b61410c565b6121496770bb27bdd207303b60c01b61410c565b6040517f384ec20400000000000000000000000000000000000000000000000000000000815260040160405180910390fd5b61218e667e190c2192c99760c01b61410c565b6121a26795aefc02293c8f2660c01b61410c565b6121b6675c0b7ffb0649d0cc60c01b61410c565b8973ffffffffffffffffffffffffffffffffffffffff167f62a9b3e6446ab559d6b82c4f02cc923cd3b4e47444ef86446dab81a4d781c5af898b6040516121fe929190615bb8565b60405180910390a2505050612211613fbd565b50505050505050565b612222613fc6565b61222c60006147a4565b565b61224267c36d110751c1b6d860c01b613f63565b61224a613fc6565b61225e671539cf29699c299460c01b613f63565b6122726783672ebdccdff11960c01b613f63565b806122876726f982bdaee9ddae60c01b613f63565b61229b67043e93428f870cde60c01b613f63565b6122af6783d504cc9b25eee660c01b613f63565b600073ffffffffffffffffffffffffffffffffffffffff168173ffffffffffffffffffffffffffffffffffffffff160361233d576122f76708c65a462e5eeede60c01b613f63565b61230b67dccf128358fa962560c01b613f63565b6040517fd92e233d00000000000000000000000000000000000000000000000000000000815260040160405180910390fd5b61235167f70d14915dd40d8c60c01b613f63565b61236567c11d9527ed3a452960c01b613f63565b61237967933ff74a3fa2011f60c01b613f63565b61238d67535f8e2c38452cca60c01b613f63565b6123a167055a21313af1705b60c01b613f63565b6123b567915d3aad32f06d8860c01b613f63565b8173ffffffffffffffffffffffffffffffffffffffff16600260040160009054906101000a900473ffffffffffffffffffffffffffffffffffffffff1673ffffffffffffffffffffffffffffffffffffffff167f62904549814f5511a5d36a62611a6e2fe1d2c29b6de74de25d95395e0a7d009b60405160405180910390a3612448671872b8a50af9339e60c01b613f63565b81600260040160006101000a81548173ffffffffffffffffffffffffffffffffffffffff021916908373ffffffffffffffffffffffffffffffffffffffff1602179055505050565b60008060009054906101000a900473ffffffffffffffffffffffffffffffffffffffff16905090565b6124cd676fbfc172696aa29160c01b613f63565b6124d5613fc6565b6124e967f57a1f8195c917de60c01b613f63565b6124fd6786e955ff9135e9ce60c01b613f63565b612511672a0dc3ae5e13ed0e60c01b613f63565b61252567fc0b89f62250ac7360c01b613f63565b8073ffffffffffffffffffffffffffffffffffffffff16600260030160019054906101000a900473ffffffffffffffffffffffffffffffffffffffff1673ffffffffffffffffffffffffffffffffffffffff167f62904549814f5511a5d36a62611a6e2fe1d2c29b6de74de25d95395e0a7d009b60405160405180910390a36125b8673fc2ebf7c37ef8a360c01b613f63565b80600260030160016101000a81548173ffffffffffffffffffffffffffffffffffffffff021916908373ffffffffffffffffffffffffffffffffffffffff16021790555050565b61261367f6bebf509566f8ed60c01b613f63565b61261b613fc6565b61262f6786e62c23482459a460c01b613f63565b612643676138accbeb13878560c01b613f63565b612657677656eff20643ac9160c01b613f63565b61266b674f22d9df5a4c33e260c01b613f63565b6000429050612684679ab3376d9bfbfb0460c01b613f63565b61269867e453830a2681987f60c01b613f63565b600260000160059054906101000a900460ff166126fa576126c367018de0f01c63754860c01b613f63565b6126d7679c15be51b639e65d60c01b613f63565b6001600260000160056101000a81548160ff02191690831515021790555061270f565b61270e6742195962980776a560c01b613f63565b5b612723679bdd02f18e77877c60c01b613f63565b61273767ecdb126ad7c5dd2260c01b613f63565b6001600281111561274b5761274a615232565b5b600260030160009054906101000a900460ff1660028111156127705761276f615232565b5b146128c8576127896783797a3351b6c6f860c01b613f63565b61279d67fcdfdc91fd173d4960c01b613f63565b6127b167590f7de7b06f642d60c01b613f63565b60008203612813576127cd6751a83c39cc9e57cf60c01b613f63565b6127e167e3682d672a48a4a460c01b613f63565b6040517fcdd848be00000000000000000000000000000000000000000000000000000000815260040160405180910390fd5b61282767bc74bbc128d5efb460c01b613f63565b61283b672c3eeffb14279c0160c01b613f63565b6001600260030160006101000a81548160ff0219169083600281111561286457612863615232565b5b021790555061287d6767caae9bee7ba57260c01b613f63565b612891678cb20b1e2a9ddf1360c01b613f63565b8060018015157fc4a8c097b5d93dcebaa4f0f65b88ca288e38ff724fa55d3d2af8ecd63c3c9be760405160405180910390a46128dd565b6128dc672ee685ea26f7dc9360c01b613f63565b5b6128f167bdee69e59725ef1460c01b613f63565b81600280018190555061290e677a597b39ca6d723e60c01b613f63565b61292267838b2072db51685160c01b613f63565b807f81f61b66aa862aaadf659b5ba822fcd562282026c64807a61769a8187d332a8a836040516129529190615be1565b60405180910390a25050565b6129726725e99f5d8e9813dd60c01b613f63565b61297a613fc6565b61298e679ff58ce2ac447ce260c01b613f63565b6129a2679c35aa2faf6e710a60c01b613f63565b81816129b867f48b5a2246bf506460c01b613f63565b6129cc67b48068eb68e110e860c01b613f63565b6129e067ea57c67678df968a60c01b613f63565b606460ff1681836129f19190615bfc565b60ff1614612a6057612a0d67fac91c9468bb0c5d60c01b613f63565b612a2167d9820a54db345eaa60c01b613f63565b81816040517f8efe3fd5000000000000000000000000000000000000000000000000000000008152600401612a57929190615c31565b60405180910390fd5b612a746741740c842ed2c74260c01b613f63565b612a8867826ecf2d226ee01b60c01b613f63565b612a9c6716d523cfb22ec5b360c01b613f63565b612ab06798025beb5cfa7b1e60c01b613f63565b612ac467436d7d41475704db60c01b613f63565b612ad867b3fd81c5b1f7dbeb60c01b613f63565b8360ff16600260000160019054906101000a900460ff1660ff1614612b4257612b0b67d9fd2cf2aa42cbe760c01b613f63565b612b1f671512905cdc9c28b860c01b613f63565b83600260000160016101000a81548160ff021916908360ff160217905550612b57565b612b5667c3edfb502758d30960c01b613f63565b5b612b6b67b4df77953c505b4760c01b613f63565b612b7f67fb91d9fed2b5687860c01b613f63565b60008360ff1614158015612bab57508260ff16600260000160029054906101000a900460ff1660ff1614155b15612bfb57612bc467cd1864281daf3f4360c01b613f63565b612bd8673d60900b4e84e41d60c01b613f63565b82600260000160026101000a81548160ff021916908360ff160217905550612c10565b612c0f6757a583417d46df8960c01b613f63565b5b612c246785b2d7430922323660c01b613f63565b612c3867edbb58b649b803e760c01b613f63565b7f8849d9036ec7068880bd56182e37500d89a0664b4800e4b44fba2e01a6940501600260000160019054906101000a900460ff16600260000160029054906101000a900460ff1642604051612c8f93929190615c5a565b60405180910390a150505050565b600080612cb467888da69b065dc7e860c01b613f63565b612cc8677165a9ba7b5e1fff60c01b613f63565b612cdc671cebc041d307c0b860c01b613f63565b600260030160019054906101000a900473ffffffffffffffffffffffffffffffffffffffff16600260040160009054906101000a900473ffffffffffffffffffffffffffffffffffffffff16915091509091565b612d4467c38053be4bbbee9060c01b61410c565b84612d5967f2153b3025c2cf4160c01b61410c565b612d6d670da29b6f44d5ffd560c01b61410c565b612d8167f897555b7aaee5e260c01b61410c565b60095481108015612da25750612da1678063647b569a289260c01b61410f565b5b80612dca5750600a5481118015612dc95750612dc8673a4f2042c352492d60c01b61410f565b5b5b15612e2957612de367e46c89198a50c5ae60c01b61410c565b612df767cd71caea682558be60c01b61410c565b6040517f17dfb4ac00000000000000000000000000000000000000000000000000000000815260040160405180910390fd5b612e3d67d3de7e63123c707560c01b61410c565b612e5167949a51b9d9c02d8c60c01b61410c565b612e65675d0a152ae41a3fcb60c01b61410c565b612e79676448729576d3670160c01b61410c565b612e81613f66565b612e9567655354b0955baeb060c01b61410c565b612ea967d32ec79fcb15962360c01b61410c565b612ebd6768f79b485126240e60c01b61410c565b612ed16786a459b68515c77360c01b61410c565b6000612ee7679982697eddec73c460c01b61410c565b612efb67dc135a090de7a9c460c01b61410c565b6000612f3988612f09613fb5565b8930604051602001612f1e9493929190615cdd565b6040516020818303038152906040528051906020012061411a565b9050612f4f67071b19d2f8a1f27160c01b61410c565b612f6367842422ca3cff92de60c01b61410c565b600760009054906101000a900473ffffffffffffffffffffffffffffffffffffffff1673ffffffffffffffffffffffffffffffffffffffff1660018288888860405160008152602001604052604051612fbf9493929190615a23565b6020604051602081039080840390855afa158015612fe1573d6000803e3d6000fd5b5050506020604051035173ffffffffffffffffffffffffffffffffffffffff16146130605761301a679f017bd105d298b060c01b61410c565b61302e67d8a115e647656c2060c01b61410c565b6040517fa7a059bc00000000000000000000000000000000000000000000000000000000815260040160405180910390fd5b613074676aefad32dfa9dc5360c01b61410c565b61308867c83fffba849dad9b60c01b61410c565b61309c67bc172295bd4dd26460c01b61410c565b6008600082815260200190815260200160002060009054906101000a900460ff161561311c576130d667c2e50e118afc5cdb60c01b61410c565b6130ea67f0ef37a4c011daf160c01b61410c565b6040517fcce9a82400000000000000000000000000000000000000000000000000000000815260040160405180910390fd5b61313067f318262ba3b05c0160c01b61410c565b61314467c0834a76713d3fbd60c01b61410c565b60016008600083815260200190815260200160002060006101000a81548160ff021916908315150217905550613184678ec8a3f028a6bd3960c01b61410c565b6131986730673fe27f442e7560c01b61410c565b600260000160059054906101000a900460ff161561350f576131c4675393f76941b9868960c01b61410c565b6131d867bdc6f5a4bbb6424860c01b61410c565b6131ec67515d7310f0eb6a4e60c01b61410c565b6002808111156131ff576131fe615232565b5b600260030160009054906101000a900460ff16600281111561322457613223615232565b5b036133aa5761323d673d2f3b982d1da56960c01b61410c565b61325167d7b712be5a029c7760c01b61410c565b61326567e45ece3b94420c5760c01b61410c565b61326d614186565b613281677f2b3c6f4c91fa1960c01b61410c565b7f000000000000000000000000000000000000000000000000000000000000000073ffffffffffffffffffffffffffffffffffffffff167f79cc679044ee9a2021f0a26c0fdec02ac39179cd005bb971a471b7f9f17c576c6132e1613fb5565b8a6040516024016132f3929190615ade565b604051602081830303815290604052907bffffffffffffffffffffffffffffffffffffffffffffffffffffffff19166020820180517bffffffffffffffffffffffffffffffffffffffffffffffffffffffff838183161783525050505060405161335d9190615b6d565b6000604051808303816000865af19150503d806000811461339a576040519150601f19603f3d011682016040523d82523d6000602084013e61339f565b606091505b50508092505061350a565b6133be67f1b3f3c54282545760c01b61410c565b6133d267a83817500a621aa960c01b61410c565b7f000000000000000000000000000000000000000000000000000000000000000073ffffffffffffffffffffffffffffffffffffffff167f79cc679044ee9a2021f0a26c0fdec02ac39179cd005bb971a471b7f9f17c576c613432613fb5565b61343b8b614868565b8b6134469190615b84565b604051602401613457929190615ade565b604051602081830303815290604052907bffffffffffffffffffffffffffffffffffffffffffffffffffffffff19166020820180517bffffffffffffffffffffffffffffffffffffffffffffffffffffffff83818316178352505050506040516134c19190615b6d565b6000604051808303816000865af19150503d80600081146134fe576040519150601f19603f3d011682016040523d82523d6000602084013e613503565b606091505b5050809250505b61365c565b61352367fa1ce6a75b61ea3660c01b61410c565b61353767e8acc66202d15ef360c01b61410c565b7f000000000000000000000000000000000000000000000000000000000000000073ffffffffffffffffffffffffffffffffffffffff167f79cc679044ee9a2021f0a26c0fdec02ac39179cd005bb971a471b7f9f17c576c613597613fb5565b8a6040516024016135a9929190615ade565b604051602081830303815290604052907bffffffffffffffffffffffffffffffffffffffffffffffffffffffff19166020820180517bffffffffffffffffffffffffffffffffffffffffffffffffffffffff83818316178352505050506040516136139190615b6d565b6000604051808303816000865af19150503d8060008114613650576040519150601f19603f3d011682016040523d82523d6000602084013e613655565b606091505b5050809250505b61367067e1feec84d4a0fb2860c01b61410c565b61368467c1d7c4f8c10e1b3660c01b61410c565b816136e35761369d67d680d10131812b3c60c01b61410c565b6136b16795b58da7717d538f60c01b61410c565b6040517f384ec20400000000000000000000000000000000000000000000000000000000815260040160405180910390fd5b6136f76763562e86823b5af860c01b61410c565b61370b67fcdb01e3ce6277fc60c01b61410c565b61371f6738d4e15b2d252a2060c01b61410c565b613727613fb5565b73ffffffffffffffffffffffffffffffffffffffff167fb999b06746a947f1958636b9b9377ae814fe578413dfffd4d3a7a96196fe02fc888a60405161376e929190615bb8565b60405180910390a25050613780613fbd565b505050505050565b61379c6769bc558483ffe80260c01b613f63565b6137a4613fc6565b6137b8674778f64de7cde56960c01b613f63565b6137cc67dac74ff36476c90060c01b613f63565b6137e0676deeef46e6f5286d60c01b613f63565b6000600260000160056101000a81548160ff02191690831515021790555061381267571845e28134711460c01b613f63565b613826671a52f4332212ebc860c01b613f63565b42600260030160009054906101000a900460ff16600281111561384c5761384b615232565b5b600015157fc4a8c097b5d93dcebaa4f0f65b88ca288e38ff724fa55d3d2af8ecd63c3c9be760405160405180910390a4565b61389267379f28de7d76db1860c01b613f63565b61389a613fc6565b6138ae67d7fdeca27e952dd060c01b613f63565b6138c26787ef6a37eca4b00160c01b613f63565b6138d667d47af1bc757df50360c01b613f63565b6138ea67e4a415a19974ccfd60c01b613f63565b600042905061390367e6d1623ab081e58260c01b613f63565b613917676eb38efe8e13e84560c01b613f63565b600260000160059054906101000a900460ff166139795761394267c36a40953380310160c01b613f63565b61395667ef284b8f51d91f5b60c01b613f63565b6001600260000160056101000a81548160ff02191690831515021790555061398e565b61398d676da70845dcf79db660c01b613f63565b5b6139a267b5a632c7474ef5c860c01b613f63565b6139b6675aaec8a97298f6aa60c01b613f63565b6002808111156139c9576139c8615232565b5b600260030160009054906101000a900460ff1660028111156139ee576139ed615232565b5b14613b4657613a07672ad26ac8c242bea560c01b613f63565b613a1b675ec43c3031f3d7a560c01b613f63565b613a2f6705b086c48bd883db60c01b613f63565b60008203613a9157613a4b6787de4463e038ab2360c01b613f63565b613a5f67d61305e2b87e675760c01b613f63565b6040517f4d05b1ad00000000000000000000000000000000000000000000000000000000815260040160405180910390fd5b613aa567326b09cc280b130560c01b613f63565b613ab967ccbfc6331071276660c01b613f63565b60028060030160006101000a81548160ff02191690836002811115613ae157613ae0615232565b5b0217905550613afa678380ffa549a064c060c01b613f63565b613b0e6753de276185fce1c960c01b613f63565b806002600115157fc4a8c097b5d93dcebaa4f0f65b88ca288e38ff724fa55d3d2af8ecd63c3c9be760405160405180910390a4613b5b565b613b5a67b15cb910cd65a45760c01b613f63565b5b613b6f67eb7dabb72cc26bdf60c01b613f63565b613b8367d517584215a1f90060c01b613f63565b613b8c82614dce565b613ba0675ddd8aca6f706bf160c01b613f63565b81600260010181905550613bbe67759fce04b480ab5f60c01b613f63565b613bd267b42e53ce8397893260c01b613f63565b807fb5277ec6eaac4c7f711dcdecd6b7951d4cff3badcfb82ca3a735e6bafedd82bc83604051613c029190615be1565b60405180910390a25050565b6000613c2467f10690efc061420360c01b61410c565b613c38675c1af6c3e5c67df860c01b61410c565b613c4c67a3f67d87c5af1eda60c01b61410c565b600760009054906101000a900473ffffffffffffffffffffffffffffffffffffffff16905090565b613c88670281709c64271cdf60c01b61410c565b80613c9d6726f982bdaee9ddae60c01b613f63565b613cb167043e93428f870cde60c01b613f63565b613cc56783d504cc9b25eee660c01b613f63565b600073ffffffffffffffffffffffffffffffffffffffff168173ffffffffffffffffffffffffffffffffffffffff1603613d5357613d0d6708c65a462e5eeede60c01b613f63565b613d2167dccf128358fa962560c01b613f63565b6040517fd92e233d00000000000000000000000000000000000000000000000000000000815260040160405180910390fd5b613d6767f70d14915dd40d8c60c01b613f63565b613d7b67c11d9527ed3a452960c01b613f63565b613d8f678a87942ca0393fc060c01b61410c565b613da36705d41df31241c84460c01b61410c565b613dab613fc6565b613dbf6724bad4aa53e7f55860c01b61410c565b613dd367470cdab805e324e260c01b61410c565b613de76796b2ab64e2dcba4d60c01b61410c565b81600760006101000a81548173ffffffffffffffffffffffffffffffffffffffff021916908373ffffffffffffffffffffffffffffffffffffffff160217905550613e3c672b1f866306a0f0e960c01b61410c565b613e506781f4834639c85b9d60c01b61410c565b7f08f53e6a9fbc3949bc0b9266bbe1927f0b282a34d92876ccbe188c24d17c6cbb82604051613e7f919061556e565b60405180910390a15050565b613e93613fc6565b600073ffffffffffffffffffffffffffffffffffffffff168173ffffffffffffffffffffffffffffffffffffffff1603613f02576040517f08c379a0000000000000000000000000000000000000000000000000000000008152600401613ef990615db9565b60405180910390fd5b613f0b816147a4565b50565b6000806000613f27678f636ff3616d20d560c01b61410c565b613f3b67e4faaa5cabb205d060c01b61410c565b613f4f67404fac168edbce0b60c01b61410c565b600954600a54600b54925092509250909192565b50565b600260015403613fab576040517f08c379a0000000000000000000000000000000000000000000000000000000008152600401613fa290615e25565b60405180910390fd5b6002600181905550565b600033905090565b60018081905550565b613fce613fb5565b73ffffffffffffffffffffffffffffffffffffffff16613fec612490565b73ffffffffffffffffffffffffffffffffffffffff1614614042576040517f08c379a000000000000000000000000000000000000000000000000000000000815260040161403990615e91565b60405180910390fd5b565b600060019050919050565b61406367f28f16f9f764785d60c01b613f63565b61407767801a8dbcb618eae060c01b613f63565b61408b67c1f4453dcf1c7f7f60c01b613f63565b8061ffff168260ff1611156140f4576140ae67abb8a729d509b2fb60c01b613f63565b6140c26716777e7791441e3b60c01b613f63565b6040517feaf5947400000000000000000000000000000000000000000000000000000000815260040160405180910390fd5b61410867d93260f0ddb641e660c01b613f63565b5050565b50565b600060019050919050565b6000614130675a58f2c3403fe83660c01b61410c565b61414467e7a7941d4bf3141360c01b61410c565b6141586746c3c6c2d6b2007a60c01b61410c565b816040516020016141699190615efd565b604051602081830303815290604052805190602001209050919050565b61419a67b0f77ff06c21439c60c01b613f63565b6141ae673b6b2e3434b9ca2360c01b613f63565b6141c267c644275f00684f6760c01b613f63565b600260010154341461423a576141e267d3a0fc2a5fce236d60c01b613f63565b6141f667585cfdc67f10b18d60c01b613f63565b346002600101546040517fd326bf05000000000000000000000000000000000000000000000000000000008152600401614231929190615f23565b60405180910390fd5b61424e67f3f37191353371bc60c01b613f63565b565b6000614266677bcb707bb46d858060c01b613f63565b61427a67f9c5123e1f36ef9660c01b613f63565b61428e67397e657f09f6108460c01b613f63565b60008061429a84614ea3565b915091506142b267fda264c639080af160c01b613f63565b6142c6677aee11247d61fdf560c01b613f63565b600073ffffffffffffffffffffffffffffffffffffffff16600260030160019054906101000a900473ffffffffffffffffffffffffffffffffffffffff1673ffffffffffffffffffffffffffffffffffffffff16141580156143285750818114155b156145575761434167b55e8db1a985dea360c01b613f63565b61435567d9812de961715a0a60c01b613f63565b6143696747cd2d0e89c561ac60c01b613f63565b60007f000000000000000000000000000000000000000000000000000000000000000073ffffffffffffffffffffffffffffffffffffffff167fa9059cbb2ab09eb219583f4a59a5d0623ade346d962bcd4e46b11da047c9049b600260030160019054906101000a900473ffffffffffffffffffffffffffffffffffffffff1685856143f59190615b84565b604051602401614406929190615f4c565b604051602081830303815290604052907bffffffffffffffffffffffffffffffffffffffffffffffffffffffff19166020820180517bffffffffffffffffffffffffffffffffffffffffffffffffffffffff83818316178352505050506040516144709190615b6d565b6000604051808303816000865af19150503d80600081146144ad576040519150601f19603f3d011682016040523d82523d6000602084013e6144b2565b606091505b505090506144ca67c2ee2098c76b8bc960c01b613f63565b6144de67a1c1a9373520fc2460c01b613f63565b8061453d576144f7671503bd0e83ea35f260c01b613f63565b61450b676f99511bab31c6fe60c01b613f63565b6040517fd291274f00000000000000000000000000000000000000000000000000000000815260040160405180910390fd5b61455167db137fae7693cf9560c01b613f63565b5061456c565b61456b676459650ecbf074ce60c01b613f63565b5b614580674a1ff3c50923213e60c01b613f63565b614594673c4b0e4ae43fcf6c60c01b613f63565b60007f000000000000000000000000000000000000000000000000000000000000000073ffffffffffffffffffffffffffffffffffffffff167fa9059cbb2ab09eb219583f4a59a5d0623ade346d962bcd4e46b11da047c9049b600260040160009054906101000a900473ffffffffffffffffffffffffffffffffffffffff1685604051602401614626929190615f4c565b604051602081830303815290604052907bffffffffffffffffffffffffffffffffffffffffffffffffffffffff19166020820180517bffffffffffffffffffffffffffffffffffffffffffffffffffffffff83818316178352505050506040516146909190615b6d565b6000604051808303816000865af19150503d80600081146146cd576040519150601f19603f3d011682016040523d82523d6000602084013e6146d2565b606091505b505090506146ea672a00a9920a47076a60c01b613f63565b6146fe6719e4f52f8027939260c01b613f63565b8061475d57614717677f8206a2f1e2e50a60c01b613f63565b61472b67faf34fba89f731d860c01b613f63565b6040517fd291274f00000000000000000000000000000000000000000000000000000000815260040160405180910390fd5b61477167e2370b6ed311968a60c01b613f63565b61478567f9cfbcf47c24566660c01b613f63565b61479967936ac0771ec70d7560c01b613f63565b819350505050919050565b60008060009054906101000a900473ffffffffffffffffffffffffffffffffffffffff169050816000806101000a81548173ffffffffffffffffffffffffffffffffffffffff021916908373ffffffffffffffffffffffffffffffffffffffff1602179055508173ffffffffffffffffffffffffffffffffffffffff168173ffffffffffffffffffffffffffffffffffffffff167f8be0079c531659141344cd1fd0a4f28419497f9722a3daafe3b4186f6b6457e060405160405180910390a35050565b600061487e671cc273576fd639a660c01b613f63565b614892677ac7835871cc28f260c01b613f63565b6148a6671c6ac1f80639091360c01b613f63565b6000806148b284614ea3565b915091506148ca6735a13a91ecf078b360c01b613f63565b6148de6735a60e7dbfad31ca60c01b613f63565b600073ffffffffffffffffffffffffffffffffffffffff16600260030160019054906101000a900473ffffffffffffffffffffffffffffffffffffffff1673ffffffffffffffffffffffffffffffffffffffff16141580156149405750818114155b15614b785761495967df1ade2c2cd6a74e60c01b613f63565b61496d6729e1863351d1556460c01b613f63565b6149816721e580a21c85ce3160c01b613f63565b60007f000000000000000000000000000000000000000000000000000000000000000073ffffffffffffffffffffffffffffffffffffffff167f23b872dd7302113369cda2901243429419bec145408fa8b352b3dd92b66c680b6149e3613fb5565b600260030160019054906101000a900473ffffffffffffffffffffffffffffffffffffffff168686614a159190615b84565b604051602401614a2793929190615f75565b604051602081830303815290604052907bffffffffffffffffffffffffffffffffffffffffffffffffffffffff19166020820180517bffffffffffffffffffffffffffffffffffffffffffffffffffffffff8381831617835250505050604051614a919190615b6d565b6000604051808303816000865af19150503d8060008114614ace576040519150601f19603f3d011682016040523d82523d6000602084013e614ad3565b606091505b50509050614aeb67bc8838b7977470aa60c01b613f63565b614aff67a5be249d3c902a1b60c01b613f63565b80614b5e57614b1867ea6dca84ced2663060c01b613f63565b614b2c6754f6ef294072901c60c01b613f63565b6040517fd291274f00000000000000000000000000000000000000000000000000000000815260040160405180910390fd5b614b72679d0a49f46aac101360c01b613f63565b50614b8d565b614b8c67d8c3cdf0171f69fa60c01b613f63565b5b614ba16754aad10986f89d4360c01b613f63565b614bb5674c3d01bf10fa4fa260c01b613f63565b60007f000000000000000000000000000000000000000000000000000000000000000073ffffffffffffffffffffffffffffffffffffffff167f23b872dd7302113369cda2901243429419bec145408fa8b352b3dd92b66c680b614c17613fb5565b600260040160009054906101000a900473ffffffffffffffffffffffffffffffffffffffff1686604051602401614c5093929190615f75565b604051602081830303815290604052907bffffffffffffffffffffffffffffffffffffffffffffffffffffffff19166020820180517bffffffffffffffffffffffffffffffffffffffffffffffffffffffff8381831617835250505050604051614cba9190615b6d565b6000604051808303816000865af19150503d8060008114614cf7576040519150601f19603f3d011682016040523d82523d6000602084013e614cfc565b606091505b50509050614d14678a160dfbcb6c7bdf60c01b613f63565b614d2867e6d3f12e44f4b3f960c01b613f63565b80614d8757614d416708cb931aaa95350f60c01b613f63565b614d556708d823340698501060c01b613f63565b6040517fd291274f00000000000000000000000000000000000000000000000000000000815260040160405180910390fd5b614d9b67c8a3ae097241a3bc60c01b613f63565b614daf679c8c010dcba9aa6160c01b613f63565b614dc367e5cbc71a3d6454a160c01b613f63565b819350505050919050565b614de267200bf049ec3a336660c01b613f63565b614df6676c805fb24582d53060c01b613f63565b614e0a67ae6640b4cb2c315660c01b613f63565b7f0000000000000000000000000000000000000000000000000000000000000000811115614e8c57614e46679f834e10961218cd60c01b613f63565b614e5a6778efb028819602dd60c01b613f63565b6040517f4ea10e1600000000000000000000000000000000000000000000000000000000815260040160405180910390fd5b614ea067569e29691fc03c3b60c01b613f63565b50565b600080614eba678f134f30bdfb3a5160c01b613f63565b614ece67225986c41821526460c01b613f63565b614ee267c385ac3f7a6da3cb60c01b613f63565b60006002811115614ef657614ef5615232565b5b600260030160009054906101000a900460ff166002811115614f1b57614f1a615232565b5b03614fdf57614f34675fcf3523b8b6ceae60c01b613f63565b614f48674db4ca7f1ac4236460c01b613f63565b614f5c6765c800c3c300ef7060c01b613f63565b6000600260000160039054906101000a900461ffff1661ffff16600260000160009054906101000a900460ff1660ff1685614f979190615700565b614fa19190615771565b9050614fb767c3e9def9fe5182c960c01b613f63565b614fcb67db324a2dee3585fa60c01b613f63565b614fd481615037565b819250925050615032565b614ff367edc4255ccf1dd1db60c01b613f63565b61500767be9a00d90198806460c01b613f63565b61501b675053ff483be1644d60c01b613f63565b6150286002800154615037565b6002800154915091505b915091565b600061504d6723fe860c4ff4ad6e60c01b613f63565b61506167089f308b50f1217560c01b613f63565b615075678e75d0ce8078018560c01b613f63565b6064600260000160029054906101000a900460ff1660ff16836150989190615700565b6150a29190615771565b9050919050565b600080fd5b600060ff82169050919050565b6150c4816150ae565b81146150cf57600080fd5b50565b6000813590506150e1816150bb565b92915050565b600061ffff82169050919050565b6150fe816150e7565b811461510957600080fd5b50565b60008135905061511b816150f5565b92915050565b60008060408385031215615138576151376150a9565b5b6000615146858286016150d2565b92505060206151578582860161510c565b9150509250929050565b6000819050919050565b61517481615161565b811461517f57600080fd5b50565b6000813590506151918161516b565b92915050565b6000806000606084860312156151b0576151af6150a9565b5b60006151be86828701615182565b93505060206151cf86828701615182565b92505060406151e086828701615182565b9150509250925092565b6151f3816150ae565b82525050565b615202816150e7565b82525050565b60008115159050919050565b61521d81615208565b82525050565b61522c81615161565b82525050565b7f4e487b7100000000000000000000000000000000000000000000000000000000600052602160045260246000fd5b6003811061527257615271615232565b5b50565b600081905061528382615261565b919050565b600061529382615275565b9050919050565b6152a381615288565b82525050565b600073ffffffffffffffffffffffffffffffffffffffff82169050919050565b60006152d4826152a9565b9050919050565b6152e4816152c9565b82525050565b600061014082019050615300600083018d6151ea565b61530d602083018c6151ea565b61531a604083018b6151ea565b615327606083018a6151f9565b6153346080830189615214565b61534160a0830188615223565b61534e60c0830187615223565b61535b60e083018661529a565b6153696101008301856152db565b6153776101208301846152db565b9b9a5050505050505050505050565b6000615391826152a9565b9050919050565b6153a181615386565b82525050565b6000610160820190506153bd600083018e615214565b6153ca602083018d6151ea565b6153d7604083018c6151ea565b6153e4606083018b6151ea565b6153f1608083018a6151f9565b6153fe60a0830189615223565b61540b60c0830188615223565b61541860e0830187615223565b6154266101008301866152db565b6154346101208301856152db565b615442610140830184615398565b9c9b505050505050505050505050565b61545b81615386565b811461546657600080fd5b50565b60008135905061547881615452565b92915050565b6000819050919050565b6154918161547e565b811461549c57600080fd5b50565b6000813590506154ae81615488565b92915050565b60008060008060008060c087890312156154d1576154d06150a9565b5b60006154df89828a01615469565b96505060206154f089828a01615182565b955050604061550189828a0161549f565b945050606061551289828a016150d2565b935050608061552389828a0161549f565b92505060a061553489828a0161549f565b9150509295509295509295565b600060208284031215615557576155566150a9565b5b600061556584828501615469565b91505092915050565b60006020820190506155836000830184615398565b92915050565b60006020828403121561559f5761559e6150a9565b5b60006155ad84828501615182565b91505092915050565b600080604083850312156155cd576155cc6150a9565b5b60006155db858286016150d2565b92505060206155ec858286016150d2565b9150509250929050565b600060408201905061560b6000830185615398565b6156186020830184615398565b9392505050565b600080600080600060a0868803121561563b5761563a6150a9565b5b600061564988828901615182565b955050602061565a8882890161549f565b945050604061566b888289016150d2565b935050606061567c8882890161549f565b925050608061568d8882890161549f565b9150509295509295909350565b60006060820190506156af6000830186615223565b6156bc6020830185615223565b6156c96040830184615223565b949350505050565b7f4e487b7100000000000000000000000000000000000000000000000000000000600052601160045260246000fd5b600061570b82615161565b915061571683615161565b925082820261572481615161565b9150828204841483151761573b5761573a6156d1565b5b5092915050565b7f4e487b7100000000000000000000000000000000000000000000000000000000600052601260045260246000fd5b600061577c82615161565b915061578783615161565b92508261579757615796615742565b5b828204905092915050565b600081905092915050565b50565b60006157bd6000836157a2565b91506157c8826157ad565b600082019050919050565b60006157de826157b0565b9150819050919050565b6000819050919050565b600061580d615808615803846150ae565b6157e8565b615161565b9050919050565b61581d816157f2565b82525050565b600061583e615839615834846150e7565b6157e8565b615161565b9050919050565b61584e81615823565b82525050565b60006040820190506158696000830185615814565b6158766020830184615845565b9392505050565b600081905092915050565b7f5f5f636f6e76657273696f6e496e000000000000000000000000000000000000600082015250565b60006158be600e8361587d565b91506158c982615888565b600e82019050919050565b6000819050919050565b6158ef6158ea82615161565b6158d4565b82525050565b60008160601b9050919050565b600061590d826158f5565b9050919050565b600061591f82615902565b9050919050565b61593761593282615386565b615914565b82525050565b6000819050919050565b6159586159538261547e565b61593d565b82525050565b600061597961597461596f846152a9565b6157e8565b6152a9565b9050919050565b600061598b8261595e565b9050919050565b600061599d82615980565b9050919050565b6159b56159b082615992565b615914565b82525050565b60006159c6826158b1565b91506159d282876158de565b6020820191506159e28286615926565b6014820191506159f28285615947565b602082019150615a0282846159a4565b60148201915081905095945050505050565b615a1d8161547e565b82525050565b6000608082019050615a386000830187615a14565b615a4560208301866151ea565b615a526040830185615a14565b615a5f6060830184615a14565b95945050505050565b600081519050615a778161516b565b92915050565b600060208284031215615a9357615a926150a9565b5b6000615aa184828501615a68565b91505092915050565b6000615ab582615161565b9150615ac083615161565b9250828201905080821115615ad857615ad76156d1565b5b92915050565b6000604082019050615af36000830185615398565b615b006020830184615223565b9392505050565b600081519050919050565b60005b83811015615b30578082015181840152602081019050615b15565b60008484015250505050565b6000615b4782615b07565b615b5181856157a2565b9350615b61818560208601615b12565b80840191505092915050565b6000615b798284615b3c565b915081905092915050565b6000615b8f82615161565b9150615b9a83615161565b9250828203905081811115615bb257615bb16156d1565b5b92915050565b6000604082019050615bcd6000830185615a14565b615bda6020830184615223565b9392505050565b6000602082019050615bf66000830184615223565b92915050565b6000615c07826150ae565b9150615c12836150ae565b9250828201905060ff811115615c2b57615c2a6156d1565b5b92915050565b6000604082019050615c4660008301856151ea565b615c5360208301846151ea565b9392505050565b6000606082019050615c6f60008301866151ea565b615c7c60208301856151ea565b615c896040830184615223565b949350505050565b7f5f5f636f6e76657273696f6e4f75740000000000000000000000000000000000600082015250565b6000615cc7600f8361587d565b9150615cd282615c91565b600f82019050919050565b6000615ce882615cba565b9150615cf482876158de565b602082019150615d048286615926565b601482019150615d148285615947565b602082019150615d2482846159a4565b60148201915081905095945050505050565b600082825260208201905092915050565b7f4f776e61626c653a206e6577206f776e657220697320746865207a65726f206160008201527f6464726573730000000000000000000000000000000000000000000000000000602082015250565b6000615da3602683615d36565b9150615dae82615d47565b604082019050919050565b60006020820190508181036000830152615dd281615d96565b9050919050565b7f5265656e7472616e637947756172643a207265656e7472616e742063616c6c00600082015250565b6000615e0f601f83615d36565b9150615e1a82615dd9565b602082019050919050565b60006020820190508181036000830152615e3e81615e02565b9050919050565b7f4f776e61626c653a2063616c6c6572206973206e6f7420746865206f776e6572600082015250565b6000615e7b602083615d36565b9150615e8682615e45565b602082019050919050565b60006020820190508181036000830152615eaa81615e6e565b9050919050565b7f19457468657265756d205369676e6564204d6573736167653a0a333200000000600082015250565b6000615ee7601c8361587d565b9150615ef282615eb1565b601c82019050919050565b6000615f0882615eda565b9150615f148284615947565b60208201915081905092915050565b6000604082019050615f386000830185615223565b615f456020830184615223565b9392505050565b6000604082019050615f6160008301856152db565b615f6e6020830184615223565b9392505050565b6000606082019050615f8a6000830186615398565b615f9760208301856152db565b615fa46040830184615223565b94935050505056fea26469706673582212200aa2cd467f08e3da5535ec26bda1359966278d571223a07451a0fe727484cdcf64736f6c63430008130033",
  "linkReferences": {},
  "deployedLinkReferences": {}
}