{
  "_format": "hh-sol-artifact-1",
  "contractName": "Token",
  "sourceName": "contracts/Token.sol",
  "abi": [
    {
      "inputs": [
        {
          "internalType": "string",
          "name": "name",
          "type": "string"
        },
        {
          "internalType": "string",
          "name": "symbol",
          "type": "string"
        }
      ],
      "stateMutability": "nonpayable",
      "type": "constructor"
    },
    {
      "anonymous": false,
      "inputs": [
        {
          "indexed": true,
          "internalType": "address",
          "name": "owner",
          "type": "address"
        },
        {
          "indexed": true,
          "internalType": "address",
          "name": "spender",
          "type": "address"
        },
        {
          "indexed": false,
          "internalType": "uint256",
          "name": "value",
          "type": "uint256"
        }
      ],
      "name": "Approval",
      "type": "event"
    },
    {
      "anonymous": false,
      "inputs": [
        {
          "indexed": false,
          "internalType": "address",
          "name": "account",
          "type": "address"
        }
      ],
      "name": "Paused",
      "type": "event"
    },
    {
      "anonymous": false,
      "inputs": [
        {
          "indexed": true,
          "internalType": "bytes32",
          "name": "role",
          "type": "bytes32"
        },
        {
          "indexed": true,
          "internalType": "bytes32",
          "name": "previousAdminRole",
          "type": "bytes32"
        },
        {
          "indexed": true,
          "internalType": "bytes32",
          "name": "newAdminRole",
          "type": "bytes32"
        }
      ],
      "name": "RoleAdminChanged",
      "type": "event"
    },
    {
      "anonymous": false,
      "inputs": [
        {
          "indexed": true,
          "internalType": "bytes32",
          "name": "role",
          "type": "bytes32"
        },
        {
          "indexed": true,
          "internalType": "address",
          "name": "account",
          "type": "address"
        },
        {
          "indexed": true,
          "internalType": "address",
          "name": "sender",
          "type": "address"
        }
      ],
      "name": "RoleGranted",
      "type": "event"
    },
    {
      "anonymous": false,
      "inputs": [
        {
          "indexed": true,
          "internalType": "bytes32",
          "name": "role",
          "type": "bytes32"
        },
        {
          "indexed": true,
          "internalType": "address",
          "name": "account",
          "type": "address"
        },
        {
          "indexed": true,
          "internalType": "address",
          "name": "sender",
          "type": "address"
        }
      ],
      "name": "RoleRevoked",
      "type": "event"
    },
    {
      "anonymous": false,
      "inputs": [
        {
          "indexed": true,
          "internalType": "address",
          "name": "from",
          "type": "address"
        },
        {
          "indexed": true,
          "internalType": "address",
          "name": "to",
          "type": "address"
        },
        {
          "indexed": false,
          "internalType": "uint256",
          "name": "value",
          "type": "uint256"
        }
      ],
      "name": "Transfer",
      "type": "event"
    },
    {
      "anonymous": false,
      "inputs": [
        {
          "indexed": false,
          "internalType": "address",
          "name": "account",
          "type": "address"
        }
      ],
      "name": "Unpaused",
      "type": "event"
    },
    {
      "inputs": [],
      "name": "DEFAULT_ADMIN_ROLE",
      "outputs": [
        {
          "internalType": "bytes32",
          "name": "",
          "type": "bytes32"
        }
      ],
      "stateMutability": "view",
      "type": "function"
    },
    {
      "inputs": [],
      "name": "MINTER_ROLE",
      "outputs": [
        {
          "internalType": "bytes32",
          "name": "",
          "type": "bytes32"
        }
      ],
      "stateMutability": "view",
      "type": "function"
    },
    {
      "inputs": [],
      "name": "PAUSER_ROLE",
      "outputs": [
        {
          "internalType": "bytes32",
          "name": "",
          "type": "bytes32"
        }
      ],
      "stateMutability": "view",
      "type": "function"
    },
    {
      "inputs": [
        {
          "internalType": "address",
          "name": "owner",
          "type": "address"
        },
        {
          "internalType": "address",
          "name": "spender",
          "type": "address"
        }
      ],
      "name": "allowance",
      "outputs": [
        {
          "internalType": "uint256",
          "name": "",
          "type": "uint256"
        }
      ],
      "stateMutability": "view",
      "type": "function"
    },
    {
      "inputs": [
        {
          "internalType": "address",
          "name": "spender",
          "type": "address"
        },
        {
          "internalType": "uint256",
          "name": "amount",
          "type": "uint256"
        }
      ],
      "name": "approve",
      "outputs": [
        {
          "internalType": "bool",
          "name": "",
          "type": "bool"
        }
      ],
      "stateMutability": "nonpayable",
      "type": "function"
    },
    {
      "inputs": [
        {
          "internalType": "address",
          "name": "account",
          "type": "address"
        }
      ],
      "name": "balanceOf",
      "outputs": [
        {
          "internalType": "uint256",
          "name": "",
          "type": "uint256"
        }
      ],
      "stateMutability": "view",
      "type": "function"
    },
    {
      "inputs": [
        {
          "internalType": "uint256",
          "name": "amount",
          "type": "uint256"
        }
      ],
      "name": "burn",
      "outputs": [],
      "stateMutability": "nonpayable",
      "type": "function"
    },
    {
      "inputs": [
        {
          "internalType": "address",
          "name": "account",
          "type": "address"
        },
        {
          "internalType": "uint256",
          "name": "amount",
          "type": "uint256"
        }
      ],
      "name": "burnFrom",
      "outputs": [],
      "stateMutability": "nonpayable",
      "type": "function"
    },
    {
      "inputs": [],
      "name": "decimals",
      "outputs": [
        {
          "internalType": "uint8",
          "name": "",
          "type": "uint8"
        }
      ],
      "stateMutability": "view",
      "type": "function"
    },
    {
      "inputs": [
        {
          "internalType": "address",
          "name": "spender",
          "type": "address"
        },
        {
          "internalType": "uint256",
          "name": "subtractedValue",
          "type": "uint256"
        }
      ],
      "name": "decreaseAllowance",
      "outputs": [
        {
          "internalType": "bool",
          "name": "",
          "type": "bool"
        }
      ],
      "stateMutability": "nonpayable",
      "type": "function"
    },
    {
      "inputs": [
        {
          "internalType": "bytes32",
          "name": "role",
          "type": "bytes32"
        }
      ],
      "name": "getRoleAdmin",
      "outputs": [
        {
          "internalType": "bytes32",
          "name": "",
          "type": "bytes32"
        }
      ],
      "stateMutability": "view",
      "type": "function"
    },
    {
      "inputs": [
        {
          "internalType": "bytes32",
          "name": "role",
          "type": "bytes32"
        },
        {
          "internalType": "address",
          "name": "account",
          "type": "address"
        }
      ],
      "name": "grantRole",
      "outputs": [],
      "stateMutability": "nonpayable",
      "type": "function"
    },
    {
      "inputs": [
        {
          "internalType": "bytes32",
          "name": "role",
          "type": "bytes32"
        },
        {
          "internalType": "address",
          "name": "account",
          "type": "address"
        }
      ],
      "name": "hasRole",
      "outputs": [
        {
          "internalType": "bool",
          "name": "",
          "type": "bool"
        }
      ],
      "stateMutability": "view",
      "type": "function"
    },
    {
      "inputs": [
        {
          "internalType": "address",
          "name": "spender",
          "type": "address"
        },
        {
          "internalType": "uint256",
          "name": "addedValue",
          "type": "uint256"
        }
      ],
      "name": "increaseAllowance",
      "outputs": [
        {
          "internalType": "bool",
          "name": "",
          "type": "bool"
        }
      ],
      "stateMutability": "nonpayable",
      "type": "function"
    },
    {
      "inputs": [
        {
          "internalType": "address",
          "name": "to",
          "type": "address"
        },
        {
          "internalType": "uint256",
          "name": "amount",
          "type": "uint256"
        }
      ],
      "name": "mint",
      "outputs": [],
      "stateMutability": "nonpayable",
      "type": "function"
    },
    {
      "inputs": [],
      "name": "name",
      "outputs": [
        {
          "internalType": "string",
          "name": "",
          "type": "string"
        }
      ],
      "stateMutability": "view",
      "type": "function"
    },
    {
      "inputs": [],
      "name": "pause",
      "outputs": [],
      "stateMutability": "nonpayable",
      "type": "function"
    },
    {
      "inputs": [],
      "name": "paused",
      "outputs": [
        {
          "internalType": "bool",
          "name": "",
          "type": "bool"
        }
      ],
      "stateMutability": "view",
      "type": "function"
    },
    {
      "inputs": [
        {
          "internalType": "bytes32",
          "name": "role",
          "type": "bytes32"
        },
        {
          "internalType": "address",
          "name": "account",
          "type": "address"
        }
      ],
      "name": "renounceRole",
      "outputs": [],
      "stateMutability": "nonpayable",
      "type": "function"
    },
    {
      "inputs": [
        {
          "internalType": "bytes32",
          "name": "role",
          "type": "bytes32"
        },
        {
          "internalType": "address",
          "name": "account",
          "type": "address"
        }
      ],
      "name": "revokeRole",
      "outputs": [],
      "stateMutability": "nonpayable",
      "type": "function"
    },
    {
      "inputs": [
        {
          "internalType": "bytes4",
          "name": "interfaceId",
          "type": "bytes4"
        }
      ],
      "name": "supportsInterface",
      "outputs": [
        {
          "internalType": "bool",
          "name": "",
          "type": "bool"
        }
      ],
      "stateMutability": "view",
      "type": "function"
    },
    {
      "inputs": [],
      "name": "symbol",
      "outputs": [
        {
          "internalType": "string",
          "name": "",
          "type": "string"
        }
      ],
      "stateMutability": "view",
      "type": "function"
    },
    {
      "inputs": [],
      "name": "totalSupply",
      "outputs": [
        {
          "internalType": "uint256",
          "name": "",
          "type": "uint256"
        }
      ],
      "stateMutability": "view",
      "type": "function"
    },
    {
      "inputs": [
        {
          "internalType": "address",
          "name": "to",
          "type": "address"
        },
        {
          "internalType": "uint256",
          "name": "amount",
          "type": "uint256"
        }
      ],
      "name": "transfer",
      "outputs": [
        {
          "internalType": "bool",
          "name": "",
          "type": "bool"
        }
      ],
      "stateMutability": "nonpayable",
      "type": "function"
    },
    {
      "inputs": [
        {
          "internalType": "address",
          "name": "from",
          "type": "address"
        },
        {
          "internalType": "address",
          "name": "to",
          "type": "address"
        },
        {
          "internalType": "uint256",
          "name": "amount",
          "type": "uint256"
        }
      ],
      "name": "transferFrom",
      "outputs": [
        {
          "internalType": "bool",
          "name": "",
          "type": "bool"
        }
      ],
      "stateMutability": "nonpayable",
      "type": "function"
    },
    {
      "inputs": [],
      "name": "unpause",
      "outputs": [],
      "stateMutability": "nonpayable",
      "type": "function"
    }
  ],
  "bytecode": "0x60806040523480156200001157600080fd5b5060405162003603380380620036038339818101604052810190620000379190620004e5565b818181600490816200004a9190620007b5565b5080600590816200005c9190620007b5565b5050506000600660006101000a81548160ff0219169083151502179055506200009667a53a1e50f3ab49e760c01b620001ec60201b60201c565b620000b267389dad656ba1de0360c01b620001ec60201b60201c565b620000ce67a885bd91e4bdb8bb60c01b620001ec60201b60201c565b620000f26000801b620000e6620001ef60201b60201c565b620001f760201b60201c565b6200010e673f36ab89047d1b0d60c01b620001ec60201b60201c565b6200012a67b49eef9806a9d06160c01b620001ec60201b60201c565b6200016b7f9f2df0fed2c77648de5860a4cc508cd0818c85b8b8a1ab4ceeef8d981c8956a66200015f620001ef60201b60201c565b620001f760201b60201c565b620001876792fea15063623a2060c01b620001ec60201b60201c565b620001a367ac553e93673fd0a660c01b620001ec60201b60201c565b620001e47f65d7a28e3265b37a6474929f336521b332c1681b933f6cb9f3376673440d862a620001d8620001ef60201b60201c565b620001f760201b60201c565b50506200089c565b50565b600033905090565b620002098282620002e860201b60201c565b620002e457600160008084815260200190815260200160002060000160008373ffffffffffffffffffffffffffffffffffffffff1673ffffffffffffffffffffffffffffffffffffffff16815260200190815260200160002060006101000a81548160ff02191690831515021790555062000289620001ef60201b60201c565b73ffffffffffffffffffffffffffffffffffffffff168173ffffffffffffffffffffffffffffffffffffffff16837f2f8788117e7eff1d82e926ec794901d17c78024a50270940304540a733656f0d60405160405180910390a45b5050565b600080600084815260200190815260200160002060000160008373ffffffffffffffffffffffffffffffffffffffff1673ffffffffffffffffffffffffffffffffffffffff16815260200190815260200160002060009054906101000a900460ff16905092915050565b6000604051905090565b600080fd5b600080fd5b600080fd5b600080fd5b6000601f19601f8301169050919050565b7f4e487b7100000000000000000000000000000000000000000000000000000000600052604160045260246000fd5b620003bb8262000370565b810181811067ffffffffffffffff82111715620003dd57620003dc62000381565b5b80604052505050565b6000620003f262000352565b9050620004008282620003b0565b919050565b600067ffffffffffffffff82111562000423576200042262000381565b5b6200042e8262000370565b9050602081019050919050565b60005b838110156200045b5780820151818401526020810190506200043e565b60008484015250505050565b60006200047e620004788462000405565b620003e6565b9050828152602081018484840111156200049d576200049c6200036b565b5b620004aa8482856200043b565b509392505050565b600082601f830112620004ca57620004c962000366565b5b8151620004dc84826020860162000467565b91505092915050565b60008060408385031215620004ff57620004fe6200035c565b5b600083015167ffffffffffffffff81111562000520576200051f62000361565b5b6200052e85828601620004b2565b925050602083015167ffffffffffffffff81111562000552576200055162000361565b5b6200056085828601620004b2565b9150509250929050565b600081519050919050565b7f4e487b7100000000000000000000000000000000000000000000000000000000600052602260045260246000fd5b60006002820490506001821680620005bd57607f821691505b602082108103620005d357620005d262000575565b5b50919050565b60008190508160005260206000209050919050565b60006020601f8301049050919050565b600082821b905092915050565b6000600883026200063d7fffffffffffffffffffffffffffffffffffffffffffffffffffffffffffffffff82620005fe565b620006498683620005fe565b95508019841693508086168417925050509392505050565b6000819050919050565b6000819050919050565b600062000696620006906200068a8462000661565b6200066b565b62000661565b9050919050565b6000819050919050565b620006b28362000675565b620006ca620006c1826200069d565b8484546200060b565b825550505050565b600090565b620006e1620006d2565b620006ee818484620006a7565b505050565b5b8181101562000716576200070a600082620006d7565b600181019050620006f4565b5050565b601f82111562000765576200072f81620005d9565b6200073a84620005ee565b810160208510156200074a578190505b620007626200075985620005ee565b830182620006f3565b50505b505050565b600082821c905092915050565b60006200078a600019846008026200076a565b1980831691505092915050565b6000620007a5838362000777565b9150826002028217905092915050565b620007c0826200056a565b67ffffffffffffffff811115620007dc57620007db62000381565b5b620007e88254620005a4565b620007f58282856200071a565b600060209050601f8311600181146200082d576000841562000818578287015190505b62000824858262000797565b86555062000894565b601f1984166200083d86620005d9565b60005b82811015620008675784890151825560018201915060208501945060208101905062000840565b8683101562000887578489015162000883601f89168262000777565b8355505b6001600288020188555050505b505050505050565b612d5780620008ac6000396000f3fe608060405234801561001057600080fd5b506004361061018e5760003560e01c80635c975abb116100de578063a217fddf11610097578063d539139311610071578063d539139314610497578063d547741f146104b5578063dd62ed3e146104d1578063e63ab1e9146105015761018e565b8063a217fddf14610419578063a457c2d714610437578063a9059cbb146104675761018e565b80635c975abb1461035757806370a082311461037557806379cc6790146103a55780638456cb59146103c157806391d14854146103cb57806395d89b41146103fb5761018e565b80632f2ff15d1161014b578063395093511161012557806339509351146102e55780633f4ba83a1461031557806340c10f191461031f57806342966c681461033b5761018e565b80632f2ff15d1461028f578063313ce567146102ab57806336568abe146102c95761018e565b806301ffc9a71461019357806306fdde03146101c3578063095ea7b3146101e157806318160ddd1461021157806323b872dd1461022f578063248a9ca31461025f575b600080fd5b6101ad60048036038101906101a89190611d65565b61051f565b6040516101ba9190611dad565b60405180910390f35b6101cb610599565b6040516101d89190611e58565b60405180910390f35b6101fb60048036038101906101f69190611f0e565b61062b565b6040516102089190611dad565b60405180910390f35b61021961064e565b6040516102269190611f5d565b60405180910390f35b61024960048036038101906102449190611f78565b610658565b6040516102569190611dad565b60405180910390f35b61027960048036038101906102749190612001565b610687565b604051610286919061203d565b60405180910390f35b6102a960048036038101906102a49190612058565b6106a6565b005b6102b36106c7565b6040516102c091906120b4565b60405180910390f35b6102e360048036038101906102de9190612058565b61070c565b005b6102ff60048036038101906102fa9190611f0e565b61078f565b60405161030c9190611dad565b60405180910390f35b61031d6107c6565b005b61033960048036038101906103349190611f0e565b6108cc565b005b610355600480360381019061035091906120cf565b6109d6565b005b61035f6109ea565b60405161036c9190611dad565b60405180910390f35b61038f600480360381019061038a91906120fc565b610a01565b60405161039c9190611f5d565b60405180910390f35b6103bf60048036038101906103ba9190611f0e565b610a4a565b005b6103c9610a6a565b005b6103e560048036038101906103e09190612058565b610b70565b6040516103f29190611dad565b60405180910390f35b610403610bda565b6040516104109190611e58565b60405180910390f35b610421610c6c565b60405161042e919061203d565b60405180910390f35b610451600480360381019061044c9190611f0e565b610c73565b60405161045e9190611dad565b60405180910390f35b610481600480360381019061047c9190611f0e565b610cea565b60405161048e9190611dad565b60405180910390f35b61049f610d0d565b6040516104ac919061203d565b60405180910390f35b6104cf60048036038101906104ca9190612058565b610d31565b005b6104eb60048036038101906104e69190612129565b610d52565b6040516104f89190611f5d565b60405180910390f35b610509610dd9565b604051610516919061203d565b60405180910390f35b60007f7965db0b000000000000000000000000000000000000000000000000000000007bffffffffffffffffffffffffffffffffffffffffffffffffffffffff1916827bffffffffffffffffffffffffffffffffffffffffffffffffffffffff19161480610592575061059182610dfd565b5b9050919050565b6060600480546105a890612198565b80601f01602080910402602001604051908101604052809291908181526020018280546105d490612198565b80156106215780601f106105f657610100808354040283529160200191610621565b820191906000526020600020905b81548152906001019060200180831161060457829003601f168201915b5050505050905090565b600080610636610e67565b9050610643818585610e6f565b600191505092915050565b6000600354905090565b600080610663610e67565b9050610670858285611038565b61067b8585856110c4565b60019150509392505050565b6000806000838152602001908152602001600020600101549050919050565b6106af82610687565b6106b88161133d565b6106c28383611351565b505050565b60006106dd679df79c99562d029560c01b611431565b6106f1671af740202dc373fd60c01b611431565b6107056737dcdf0419ba11ee60c01b611431565b6008905090565b610714610e67565b73ffffffffffffffffffffffffffffffffffffffff168173ffffffffffffffffffffffffffffffffffffffff1614610781576040517f08c379a00000000000000000000000000000000000000000000000000000000081526004016107789061223b565b60405180910390fd5b61078b8282611434565b5050565b60008061079a610e67565b90506107bb8185856107ac8589610d52565b6107b6919061228a565b610e6f565b600191505092915050565b6107da674b7060f42b0129a360c01b611431565b6107ee676f2dba270aebc22a60c01b611431565b61080267d1e1a3cfd391f87360c01b611431565b61081667883b72d87ab3897160c01b611431565b6108477f65d7a28e3265b37a6474929f336521b332c1681b933f6cb9f3376673440d862a610842610e67565b610b70565b610886576040517f08c379a000000000000000000000000000000000000000000000000000000000815260040161087d90612330565b60405180910390fd5b61089a67ea34b42ca83f6e2860c01b611431565b6108ae6725349f45918b1a9760c01b611431565b6108c26748847766e8e79dbc60c01b611431565b6108ca611515565b565b6108e06704198a53c65f24b360c01b611431565b6108f46712aea61ff0305a7a60c01b611431565b61090867c07cee2abcde83fe60c01b611431565b61091c6739dc826e9802db6b60c01b611431565b61094d7f9f2df0fed2c77648de5860a4cc508cd0818c85b8b8a1ab4ceeef8d981c8956a6610948610e67565b610b70565b61098c576040517f08c379a0000000000000000000000000000000000000000000000000000000008152600401610983906123c2565b60405180910390fd5b6109a06765442af7a60429aa60c01b611431565b6109b46742e856ace1df58da60c01b611431565b6109c86750638cda6641f2fb60c01b611431565b6109d28282611578565b5050565b6109e76109e1610e67565b826116cf565b50565b6000600660009054906101000a900460ff16905090565b6000600160008373ffffffffffffffffffffffffffffffffffffffff1673ffffffffffffffffffffffffffffffffffffffff168152602001908152602001600020549050919050565b610a5c82610a56610e67565b83611038565b610a6682826116cf565b5050565b610a7e671f58423153ec64d560c01b611431565b610a9267a1bbb7efb2e0d06960c01b611431565b610aa667ce586b5b37abedf860c01b611431565b610aba67f6d4548a90d7567960c01b611431565b610aeb7f65d7a28e3265b37a6474929f336521b332c1681b933f6cb9f3376673440d862a610ae6610e67565b610b70565b610b2a576040517f08c379a0000000000000000000000000000000000000000000000000000000008152600401610b2190612454565b60405180910390fd5b610b3e671e122f619340078360c01b611431565b610b5267ad8b2d033649f7f760c01b611431565b610b666735796a7abf7ee47160c01b611431565b610b6e61189e565b565b600080600084815260200190815260200160002060000160008373ffffffffffffffffffffffffffffffffffffffff1673ffffffffffffffffffffffffffffffffffffffff16815260200190815260200160002060009054906101000a900460ff16905092915050565b606060058054610be990612198565b80601f0160208091040260200160405190810160405280929190818152602001828054610c1590612198565b8015610c625780601f10610c3757610100808354040283529160200191610c62565b820191906000526020600020905b815481529060010190602001808311610c4557829003601f168201915b5050505050905090565b6000801b81565b600080610c7e610e67565b90506000610c8c8286610d52565b905083811015610cd1576040517f08c379a0000000000000000000000000000000000000000000000000000000008152600401610cc8906124e6565b60405180910390fd5b610cde8286868403610e6f565b60019250505092915050565b600080610cf5610e67565b9050610d028185856110c4565b600191505092915050565b7f9f2df0fed2c77648de5860a4cc508cd0818c85b8b8a1ab4ceeef8d981c8956a681565b610d3a82610687565b610d438161133d565b610d4d8383611434565b505050565b6000600260008473ffffffffffffffffffffffffffffffffffffffff1673ffffffffffffffffffffffffffffffffffffffff16815260200190815260200160002060008373ffffffffffffffffffffffffffffffffffffffff1673ffffffffffffffffffffffffffffffffffffffff16815260200190815260200160002054905092915050565b7f65d7a28e3265b37a6474929f336521b332c1681b933f6cb9f3376673440d862a81565b60007f01ffc9a7000000000000000000000000000000000000000000000000000000007bffffffffffffffffffffffffffffffffffffffffffffffffffffffff1916827bffffffffffffffffffffffffffffffffffffffffffffffffffffffff1916149050919050565b600033905090565b600073ffffffffffffffffffffffffffffffffffffffff168373ffffffffffffffffffffffffffffffffffffffff1603610ede576040517f08c379a0000000000000000000000000000000000000000000000000000000008152600401610ed590612578565b60405180910390fd5b600073ffffffffffffffffffffffffffffffffffffffff168273ffffffffffffffffffffffffffffffffffffffff1603610f4d576040517f08c379a0000000000000000000000000000000000000000000000000000000008152600401610f449061260a565b60405180910390fd5b80600260008573ffffffffffffffffffffffffffffffffffffffff1673ffffffffffffffffffffffffffffffffffffffff16815260200190815260200160002060008473ffffffffffffffffffffffffffffffffffffffff1673ffffffffffffffffffffffffffffffffffffffff168152602001908152602001600020819055508173ffffffffffffffffffffffffffffffffffffffff168373ffffffffffffffffffffffffffffffffffffffff167f8c5be1e5ebec7d5bd14f71427d1e84f3dd0314c0f7b2291e5b200ac8c7c3b9258360405161102b9190611f5d565b60405180910390a3505050565b60006110448484610d52565b90507fffffffffffffffffffffffffffffffffffffffffffffffffffffffffffffffff81146110be57818110156110b0576040517f08c379a00000000000000000000000000000000000000000000000000000000081526004016110a790612676565b60405180910390fd5b6110bd8484848403610e6f565b5b50505050565b600073ffffffffffffffffffffffffffffffffffffffff168373ffffffffffffffffffffffffffffffffffffffff1603611133576040517f08c379a000000000000000000000000000000000000000000000000000000000815260040161112a90612708565b60405180910390fd5b600073ffffffffffffffffffffffffffffffffffffffff168273ffffffffffffffffffffffffffffffffffffffff16036111a2576040517f08c379a00000000000000000000000000000000000000000000000000000000081526004016111999061279a565b60405180910390fd5b6111ad838383611901565b6000600160008573ffffffffffffffffffffffffffffffffffffffff1673ffffffffffffffffffffffffffffffffffffffff16815260200190815260200160002054905081811015611234576040517f08c379a000000000000000000000000000000000000000000000000000000000815260040161122b9061282c565b60405180910390fd5b818103600160008673ffffffffffffffffffffffffffffffffffffffff1673ffffffffffffffffffffffffffffffffffffffff1681526020019081526020016000208190555081600160008573ffffffffffffffffffffffffffffffffffffffff1673ffffffffffffffffffffffffffffffffffffffff168152602001908152602001600020600082825401925050819055508273ffffffffffffffffffffffffffffffffffffffff168473ffffffffffffffffffffffffffffffffffffffff167fddf252ad1be2c89b69c2b068fc378daa952ba7f163c4a11628f55a4df523b3ef846040516113249190611f5d565b60405180910390a361133784848461197d565b50505050565b61134e81611349610e67565b611982565b50565b61135b8282610b70565b61142d57600160008084815260200190815260200160002060000160008373ffffffffffffffffffffffffffffffffffffffff1673ffffffffffffffffffffffffffffffffffffffff16815260200190815260200160002060006101000a81548160ff0219169083151502179055506113d2610e67565b73ffffffffffffffffffffffffffffffffffffffff168173ffffffffffffffffffffffffffffffffffffffff16837f2f8788117e7eff1d82e926ec794901d17c78024a50270940304540a733656f0d60405160405180910390a45b5050565b50565b61143e8282610b70565b1561151157600080600084815260200190815260200160002060000160008373ffffffffffffffffffffffffffffffffffffffff1673ffffffffffffffffffffffffffffffffffffffff16815260200190815260200160002060006101000a81548160ff0219169083151502179055506114b6610e67565b73ffffffffffffffffffffffffffffffffffffffff168173ffffffffffffffffffffffffffffffffffffffff16837ff6391f5c32d9c69d2a47ea670b442974b53935d1edc7fd64eb21e047a839171b60405160405180910390a45b5050565b61151d611a07565b6000600660006101000a81548160ff0219169083151502179055507f5db9ee0a495bf2e6ff9c91a7834c1ba4fdd244a5e8aa4e537bd38aeae4b073aa611561610e67565b60405161156e919061285b565b60405180910390a1565b600073ffffffffffffffffffffffffffffffffffffffff168273ffffffffffffffffffffffffffffffffffffffff16036115e7576040517f08c379a00000000000000000000000000000000000000000000000000000000081526004016115de906128c2565b60405180910390fd5b6115f360008383611901565b8060036000828254611605919061228a565b9250508190555080600160008473ffffffffffffffffffffffffffffffffffffffff1673ffffffffffffffffffffffffffffffffffffffff168152602001908152602001600020600082825401925050819055508173ffffffffffffffffffffffffffffffffffffffff16600073ffffffffffffffffffffffffffffffffffffffff167fddf252ad1be2c89b69c2b068fc378daa952ba7f163c4a11628f55a4df523b3ef836040516116b79190611f5d565b60405180910390a36116cb6000838361197d565b5050565b600073ffffffffffffffffffffffffffffffffffffffff168273ffffffffffffffffffffffffffffffffffffffff160361173e576040517f08c379a000000000000000000000000000000000000000000000000000000000815260040161173590612954565b60405180910390fd5b61174a82600083611901565b6000600160008473ffffffffffffffffffffffffffffffffffffffff1673ffffffffffffffffffffffffffffffffffffffff168152602001908152602001600020549050818110156117d1576040517f08c379a00000000000000000000000000000000000000000000000000000000081526004016117c8906129e6565b60405180910390fd5b818103600160008573ffffffffffffffffffffffffffffffffffffffff1673ffffffffffffffffffffffffffffffffffffffff1681526020019081526020016000208190555081600360008282540392505081905550600073ffffffffffffffffffffffffffffffffffffffff168373ffffffffffffffffffffffffffffffffffffffff167fddf252ad1be2c89b69c2b068fc378daa952ba7f163c4a11628f55a4df523b3ef846040516118859190611f5d565b60405180910390a36118998360008461197d565b505050565b6118a6611a50565b6001600660006101000a81548160ff0219169083151502179055507f62e78cea01bee320cd4e420270b5ea74000d11b0c9f74754ebdbfc544b05a2586118ea610e67565b6040516118f7919061285b565b60405180910390a1565b6119156722cabd9932ee3ad660c01b611431565b61191d611a50565b611931673246f75ca731232660c01b611431565b6119456777fd6667e667ccc060c01b611431565b611959679805d367c2facbe960c01b611431565b61196d678cfd94b4c507978960c01b611431565b611978838383611a9a565b505050565b505050565b61198c8282610b70565b611a035761199981611a9f565b6119a78360001c6020611acc565b6040516020016119b8929190612ada565b6040516020818303038152906040526040517f08c379a00000000000000000000000000000000000000000000000000000000081526004016119fa9190611e58565b60405180910390fd5b5050565b611a0f6109ea565b611a4e576040517f08c379a0000000000000000000000000000000000000000000000000000000008152600401611a4590612b60565b60405180910390fd5b565b611a586109ea565b15611a98576040517f08c379a0000000000000000000000000000000000000000000000000000000008152600401611a8f90612bcc565b60405180910390fd5b565b505050565b6060611ac58273ffffffffffffffffffffffffffffffffffffffff16601460ff16611acc565b9050919050565b606060006002836002611adf9190612bec565b611ae9919061228a565b67ffffffffffffffff811115611b0257611b01612c2e565b5b6040519080825280601f01601f191660200182016040528015611b345781602001600182028036833780820191505090505b5090507f300000000000000000000000000000000000000000000000000000000000000081600081518110611b6c57611b6b612c5d565b5b60200101907effffffffffffffffffffffffffffffffffffffffffffffffffffffffffffff1916908160001a9053507f780000000000000000000000000000000000000000000000000000000000000081600181518110611bd057611bcf612c5d565b5b60200101907effffffffffffffffffffffffffffffffffffffffffffffffffffffffffffff1916908160001a90535060006001846002611c109190612bec565b611c1a919061228a565b90505b6001811115611cba577f3031323334353637383961626364656600000000000000000000000000000000600f861660108110611c5c57611c5b612c5d565b5b1a60f81b828281518110611c7357611c72612c5d565b5b60200101907effffffffffffffffffffffffffffffffffffffffffffffffffffffffffffff1916908160001a905350600485901c945080611cb390612c8c565b9050611c1d565b5060008414611cfe576040517f08c379a0000000000000000000000000000000000000000000000000000000008152600401611cf590612d01565b60405180910390fd5b8091505092915050565b600080fd5b60007fffffffff0000000000000000000000000000000000000000000000000000000082169050919050565b611d4281611d0d565b8114611d4d57600080fd5b50565b600081359050611d5f81611d39565b92915050565b600060208284031215611d7b57611d7a611d08565b5b6000611d8984828501611d50565b91505092915050565b60008115159050919050565b611da781611d92565b82525050565b6000602082019050611dc26000830184611d9e565b92915050565b600081519050919050565b600082825260208201905092915050565b60005b83811015611e02578082015181840152602081019050611de7565b60008484015250505050565b6000601f19601f8301169050919050565b6000611e2a82611dc8565b611e348185611dd3565b9350611e44818560208601611de4565b611e4d81611e0e565b840191505092915050565b60006020820190508181036000830152611e728184611e1f565b905092915050565b600073ffffffffffffffffffffffffffffffffffffffff82169050919050565b6000611ea582611e7a565b9050919050565b611eb581611e9a565b8114611ec057600080fd5b50565b600081359050611ed281611eac565b92915050565b6000819050919050565b611eeb81611ed8565b8114611ef657600080fd5b50565b600081359050611f0881611ee2565b92915050565b60008060408385031215611f2557611f24611d08565b5b6000611f3385828601611ec3565b9250506020611f4485828601611ef9565b9150509250929050565b611f5781611ed8565b82525050565b6000602082019050611f726000830184611f4e565b92915050565b600080600060608486031215611f9157611f90611d08565b5b6000611f9f86828701611ec3565b9350506020611fb086828701611ec3565b9250506040611fc186828701611ef9565b9150509250925092565b6000819050919050565b611fde81611fcb565b8114611fe957600080fd5b50565b600081359050611ffb81611fd5565b92915050565b60006020828403121561201757612016611d08565b5b600061202584828501611fec565b91505092915050565b61203781611fcb565b82525050565b6000602082019050612052600083018461202e565b92915050565b6000806040838503121561206f5761206e611d08565b5b600061207d85828601611fec565b925050602061208e85828601611ec3565b9150509250929050565b600060ff82169050919050565b6120ae81612098565b82525050565b60006020820190506120c960008301846120a5565b92915050565b6000602082840312156120e5576120e4611d08565b5b60006120f384828501611ef9565b91505092915050565b60006020828403121561211257612111611d08565b5b600061212084828501611ec3565b91505092915050565b600080604083850312156121405761213f611d08565b5b600061214e85828601611ec3565b925050602061215f85828601611ec3565b9150509250929050565b7f4e487b7100000000000000000000000000000000000000000000000000000000600052602260045260246000fd5b600060028204905060018216806121b057607f821691505b6020821081036121c3576121c2612169565b5b50919050565b7f416363657373436f6e74726f6c3a2063616e206f6e6c792072656e6f756e636560008201527f20726f6c657320666f722073656c660000000000000000000000000000000000602082015250565b6000612225602f83611dd3565b9150612230826121c9565b604082019050919050565b6000602082019050818103600083015261225481612218565b9050919050565b7f4e487b7100000000000000000000000000000000000000000000000000000000600052601160045260246000fd5b600061229582611ed8565b91506122a083611ed8565b92508282019050808211156122b8576122b761225b565b5b92915050565b7f45524332305072657365744d696e7465725061757365723a206d75737420686160008201527f76652070617573657220726f6c6520746f20756e706175736500000000000000602082015250565b600061231a603983611dd3565b9150612325826122be565b604082019050919050565b600060208201905081810360008301526123498161230d565b9050919050565b7f45524332305072657365744d696e7465725061757365723a206d75737420686160008201527f7665206d696e74657220726f6c6520746f206d696e7400000000000000000000602082015250565b60006123ac603683611dd3565b91506123b782612350565b604082019050919050565b600060208201905081810360008301526123db8161239f565b9050919050565b7f45524332305072657365744d696e7465725061757365723a206d75737420686160008201527f76652070617573657220726f6c6520746f207061757365000000000000000000602082015250565b600061243e603783611dd3565b9150612449826123e2565b604082019050919050565b6000602082019050818103600083015261246d81612431565b9050919050565b7f45524332303a2064656372656173656420616c6c6f77616e63652062656c6f7760008201527f207a65726f000000000000000000000000000000000000000000000000000000602082015250565b60006124d0602583611dd3565b91506124db82612474565b604082019050919050565b600060208201905081810360008301526124ff816124c3565b9050919050565b7f45524332303a20617070726f76652066726f6d20746865207a65726f2061646460008201527f7265737300000000000000000000000000000000000000000000000000000000602082015250565b6000612562602483611dd3565b915061256d82612506565b604082019050919050565b6000602082019050818103600083015261259181612555565b9050919050565b7f45524332303a20617070726f766520746f20746865207a65726f20616464726560008201527f7373000000000000000000000000000000000000000000000000000000000000602082015250565b60006125f4602283611dd3565b91506125ff82612598565b604082019050919050565b60006020820190508181036000830152612623816125e7565b9050919050565b7f45524332303a20696e73756666696369656e7420616c6c6f77616e6365000000600082015250565b6000612660601d83611dd3565b915061266b8261262a565b602082019050919050565b6000602082019050818103600083015261268f81612653565b9050919050565b7f45524332303a207472616e736665722066726f6d20746865207a65726f20616460008201527f6472657373000000000000000000000000000000000000000000000000000000602082015250565b60006126f2602583611dd3565b91506126fd82612696565b604082019050919050565b60006020820190508181036000830152612721816126e5565b9050919050565b7f45524332303a207472616e7366657220746f20746865207a65726f206164647260008201527f6573730000000000000000000000000000000000000000000000000000000000602082015250565b6000612784602383611dd3565b915061278f82612728565b604082019050919050565b600060208201905081810360008301526127b381612777565b9050919050565b7f45524332303a207472616e7366657220616d6f756e742065786365656473206260008201527f616c616e63650000000000000000000000000000000000000000000000000000602082015250565b6000612816602683611dd3565b9150612821826127ba565b604082019050919050565b6000602082019050818103600083015261284581612809565b9050919050565b61285581611e9a565b82525050565b6000602082019050612870600083018461284c565b92915050565b7f45524332303a206d696e7420746f20746865207a65726f206164647265737300600082015250565b60006128ac601f83611dd3565b91506128b782612876565b602082019050919050565b600060208201905081810360008301526128db8161289f565b9050919050565b7f45524332303a206275726e2066726f6d20746865207a65726f2061646472657360008201527f7300000000000000000000000000000000000000000000000000000000000000602082015250565b600061293e602183611dd3565b9150612949826128e2565b604082019050919050565b6000602082019050818103600083015261296d81612931565b9050919050565b7f45524332303a206275726e20616d6f756e7420657863656564732062616c616e60008201527f6365000000000000000000000000000000000000000000000000000000000000602082015250565b60006129d0602283611dd3565b91506129db82612974565b604082019050919050565b600060208201905081810360008301526129ff816129c3565b9050919050565b600081905092915050565b7f416363657373436f6e74726f6c3a206163636f756e7420000000000000000000600082015250565b6000612a47601783612a06565b9150612a5282612a11565b601782019050919050565b6000612a6882611dc8565b612a728185612a06565b9350612a82818560208601611de4565b80840191505092915050565b7f206973206d697373696e6720726f6c6520000000000000000000000000000000600082015250565b6000612ac4601183612a06565b9150612acf82612a8e565b601182019050919050565b6000612ae582612a3a565b9150612af18285612a5d565b9150612afc82612ab7565b9150612b088284612a5d565b91508190509392505050565b7f5061757361626c653a206e6f7420706175736564000000000000000000000000600082015250565b6000612b4a601483611dd3565b9150612b5582612b14565b602082019050919050565b60006020820190508181036000830152612b7981612b3d565b9050919050565b7f5061757361626c653a2070617573656400000000000000000000000000000000600082015250565b6000612bb6601083611dd3565b9150612bc182612b80565b602082019050919050565b60006020820190508181036000830152612be581612ba9565b9050919050565b6000612bf782611ed8565b9150612c0283611ed8565b9250828202612c1081611ed8565b91508282048414831517612c2757612c2661225b565b5b5092915050565b7f4e487b7100000000000000000000000000000000000000000000000000000000600052604160045260246000fd5b7f4e487b7100000000000000000000000000000000000000000000000000000000600052603260045260246000fd5b6000612c9782611ed8565b915060008203612caa57612ca961225b565b5b600182039050919050565b7f537472696e67733a20686578206c656e67746820696e73756666696369656e74600082015250565b6000612ceb602083611dd3565b9150612cf682612cb5565b602082019050919050565b60006020820190508181036000830152612d1a81612cde565b905091905056fea2646970667358221220f9dbe8d9fd6bb03a2a52b886c61d81835fb5fccc28be717ec90c2b569914d9aa64736f6c63430008130033",
  "linkReferences": {},
  "deployedLinkReferences": {}
}