{
  "_format": "hh-sol-artifact-1",
  "contractName": "TokenConversionManager",
  "sourceName": "contracts/TokenConversionManager.sol",
  "abi": [
    {
      "inputs": [
        {
          "internalType": "address",
          "name": "token",
          "type": "address"
        },
        {
          "internalType": "bool",
          "name": "commissionIsEnabled",
          "type": "bool"
        },
        {
          "internalType": "uint8",
          "name": "convertTokenPercentage",
          "type": "uint8"
        },
        {
          "internalType": "uint8",
          "name": "receiverCommissionProportion",
          "type": "uint8"
        },
        {
          "internalType": "uint8",
          "name": "bridgeOwnerCommissionProportion",
          "type": "uint8"
        },
        {
          "internalType": "uint256",
          "name": "commissionType",
          "type": "uint256"
        },
        {
          "internalType": "uint256",
          "name": "fixedNativeTokenCommission",
          "type": "uint256"
        },
        {
          "internalType": "uint256",
          "name": "fixedNativeTokenCommissionLimit",
          "type": "uint256"
        },
        {
          "internalType": "uint256",
          "name": "fixedTokenCommission",
          "type": "uint256"
        },
        {
          "internalType": "address payable",
          "name": "commissionReceiver",
          "type": "address"
        },
        {
          "internalType": "address payable",
          "name": "bridgeOwner",
          "type": "address"
        }
      ],
      "stateMutability": "nonpayable",
      "type": "constructor"
    },
    {
      "anonymous": false,
      "inputs": [
        {
          "indexed": true,
          "internalType": "address",
          "name": "tokenHolder",
          "type": "address"
        },
        {
          "indexed": false,
          "internalType": "bytes32",
          "name": "conversionId",
          "type": "bytes32"
        },
        {
          "indexed": false,
          "internalType": "uint256",
          "name": "amount",
          "type": "uint256"
        }
      ],
      "name": "ConversionIn",
      "type": "event"
    },
    {
      "anonymous": false,
      "inputs": [
        {
          "indexed": true,
          "internalType": "address",
          "name": "tokenHolder",
          "type": "address"
        },
        {
          "indexed": false,
          "internalType": "bytes32",
          "name": "conversionId",
          "type": "bytes32"
        },
        {
          "indexed": false,
          "internalType": "uint256",
          "name": "amount",
          "type": "uint256"
        }
      ],
      "name": "ConversionOut",
      "type": "event"
    },
    {
      "anonymous": false,
      "inputs": [
        {
          "indexed": true,
          "internalType": "uint256",
          "name": "time",
          "type": "uint256"
        }
      ],
      "name": "NativeCurrencyCommissionClaim",
      "type": "event"
    },
    {
      "anonymous": false,
      "inputs": [
        {
          "indexed": false,
          "internalType": "address",
          "name": "conversionAuthorizer",
          "type": "address"
        }
      ],
      "name": "NewAuthorizer",
      "type": "event"
    },
    {
      "anonymous": false,
      "inputs": [
        {
          "indexed": true,
          "internalType": "address",
          "name": "previousOwner",
          "type": "address"
        },
        {
          "indexed": true,
          "internalType": "address",
          "name": "newOwner",
          "type": "address"
        }
      ],
      "name": "OwnershipTransferred",
      "type": "event"
    },
    {
      "anonymous": false,
      "inputs": [
        {
          "indexed": false,
          "internalType": "bool",
          "name": "commissionIsEnabled",
          "type": "bool"
        },
        {
          "indexed": false,
          "internalType": "uint8",
          "name": "convertTokenPercentage",
          "type": "uint8"
        },
        {
          "indexed": false,
          "internalType": "uint8",
          "name": "receiverCommissionProportion",
          "type": "uint8"
        },
        {
          "indexed": false,
          "internalType": "uint8",
          "name": "bridgeOwnerCommissionProportion",
          "type": "uint8"
        },
        {
          "indexed": false,
          "internalType": "uint256",
          "name": "commissionType",
          "type": "uint256"
        },
        {
          "indexed": false,
          "internalType": "uint256",
          "name": "fixedTokenCommission",
          "type": "uint256"
        },
        {
          "indexed": false,
          "internalType": "uint256",
          "name": "fixedNativeTokenCommission",
          "type": "uint256"
        },
        {
          "indexed": false,
          "internalType": "address payable",
          "name": "receiverCommission",
          "type": "address"
        },
        {
          "indexed": false,
          "internalType": "address payable",
          "name": "bridgeOwner",
          "type": "address"
        },
        {
          "indexed": false,
          "internalType": "uint256",
          "name": "updateTimestamp",
          "type": "uint256"
        }
      ],
      "name": "UpdateCommissionConfiguration",
      "type": "event"
    },
    {
      "anonymous": false,
      "inputs": [
        {
          "indexed": false,
          "internalType": "uint256",
          "name": "perTxnMinAmount",
          "type": "uint256"
        },
        {
          "indexed": false,
          "internalType": "uint256",
          "name": "perTxnMaxAmount",
          "type": "uint256"
        },
        {
          "indexed": false,
          "internalType": "uint256",
          "name": "maxSupply",
          "type": "uint256"
        }
      ],
      "name": "UpdateConfiguration",
      "type": "event"
    },
    {
      "anonymous": false,
      "inputs": [
        {
          "indexed": true,
          "internalType": "address",
          "name": "previousReceiver",
          "type": "address"
        },
        {
          "indexed": true,
          "internalType": "address",
          "name": "newReceiver",
          "type": "address"
        }
      ],
      "name": "UpdateReceiver",
      "type": "event"
    },
    {
      "inputs": [],
      "name": "claimNativeCurrencyCommission",
      "outputs": [],
      "stateMutability": "nonpayable",
      "type": "function"
    },
    {
      "inputs": [],
      "name": "commissionSettings",
      "outputs": [
        {
          "internalType": "uint8",
          "name": "convertTokenPercentage",
          "type": "uint8"
        },
        {
          "internalType": "uint8",
          "name": "receiverCommissionProportion",
          "type": "uint8"
        },
        {
          "internalType": "uint8",
          "name": "bridgeOwnerCommissionProportion",
          "type": "uint8"
        },
        {
          "internalType": "bool",
          "name": "commissionIsEnabled",
          "type": "bool"
        },
        {
          "internalType": "uint256",
          "name": "fixedNativeTokenCommission",
          "type": "uint256"
        },
        {
          "internalType": "uint256",
          "name": "fixedTokenCommission",
          "type": "uint256"
        },
        {
          "internalType": "enum Commission.CommissionType",
          "name": "commissionType",
          "type": "uint8"
        },
        {
          "internalType": "address payable",
          "name": "receiverCommission",
          "type": "address"
        },
        {
          "internalType": "address payable",
          "name": "bridgeOwner",
          "type": "address"
        }
      ],
      "stateMutability": "view",
      "type": "function"
    },
    {
      "inputs": [
        {
          "internalType": "address",
          "name": "to",
          "type": "address"
        },
        {
          "internalType": "uint256",
          "name": "amount",
          "type": "uint256"
        },
        {
          "internalType": "bytes32",
          "name": "conversionId",
          "type": "bytes32"
        },
        {
          "internalType": "uint8",
          "name": "v",
          "type": "uint8"
        },
        {
          "internalType": "bytes32",
          "name": "r",
          "type": "bytes32"
        },
        {
          "internalType": "bytes32",
          "name": "s",
          "type": "bytes32"
        }
      ],
      "name": "conversionIn",
      "outputs": [],
      "stateMutability": "payable",
      "type": "function"
    },
    {
      "inputs": [
        {
          "internalType": "uint256",
          "name": "amount",
          "type": "uint256"
        },
        {
          "internalType": "bytes32",
          "name": "conversionId",
          "type": "bytes32"
        },
        {
          "internalType": "uint8",
          "name": "v",
          "type": "uint8"
        },
        {
          "internalType": "bytes32",
          "name": "r",
          "type": "bytes32"
        },
        {
          "internalType": "bytes32",
          "name": "s",
          "type": "bytes32"
        }
      ],
      "name": "conversionOut",
      "outputs": [],
      "stateMutability": "payable",
      "type": "function"
    },
    {
      "inputs": [],
      "name": "disableCommission",
      "outputs": [],
      "stateMutability": "nonpayable",
      "type": "function"
    },
    {
      "inputs": [],
      "name": "getCommissionReceiverAddresses",
      "outputs": [
        {
          "internalType": "address",
          "name": "",
          "type": "address"
        },
        {
          "internalType": "address",
          "name": "",
          "type": "address"
        }
      ],
      "stateMutability": "view",
      "type": "function"
    },
    {
      "inputs": [],
      "name": "getCommissionSettings",
      "outputs": [
        {
          "internalType": "bool",
          "name": "commissionIsEnabled",
          "type": "bool"
        },
        {
          "internalType": "uint8",
          "name": "receiverCommissionProportion",
          "type": "uint8"
        },
        {
          "internalType": "uint8",
          "name": "bridgeOwnerCommissionProportion",
          "type": "uint8"
        },
        {
          "internalType": "uint8",
          "name": "convertTokenPercentage",
          "type": "uint8"
        },
        {
          "internalType": "uint256",
          "name": "tokenTypeCommission",
          "type": "uint256"
        },
        {
          "internalType": "uint256",
          "name": "fixedTokenCommission",
          "type": "uint256"
        },
        {
          "internalType": "uint256",
          "name": "fixedNativeTokenCommission",
          "type": "uint256"
        },
        {
          "internalType": "address payable",
          "name": "receiverCommission",
          "type": "address"
        },
        {
          "internalType": "address payable",
          "name": "bridgeOwner",
          "type": "address"
        },
        {
          "internalType": "address",
          "name": "token",
          "type": "address"
        }
      ],
      "stateMutability": "view",
      "type": "function"
    },
    {
      "inputs": [],
      "name": "getConversionConfigurations",
      "outputs": [
        {
          "internalType": "uint256",
          "name": "",
          "type": "uint256"
        },
        {
          "internalType": "uint256",
          "name": "",
          "type": "uint256"
        },
        {
          "internalType": "uint256",
          "name": "",
          "type": "uint256"
        }
      ],
      "stateMutability": "view",
      "type": "function"
    },
    {
      "inputs": [],
      "name": "getconversionAuthorizer",
      "outputs": [
        {
          "internalType": "address",
          "name": "",
          "type": "address"
        }
      ],
      "stateMutability": "view",
      "type": "function"
    },
    {
      "inputs": [],
      "name": "owner",
      "outputs": [
        {
          "internalType": "address",
          "name": "",
          "type": "address"
        }
      ],
      "stateMutability": "view",
      "type": "function"
    },
    {
      "inputs": [],
      "name": "renounceOwnership",
      "outputs": [],
      "stateMutability": "nonpayable",
      "type": "function"
    },
    {
      "inputs": [
        {
          "internalType": "address",
          "name": "newOwner",
          "type": "address"
        }
      ],
      "name": "transferOwnership",
      "outputs": [],
      "stateMutability": "nonpayable",
      "type": "function"
    },
    {
      "inputs": [
        {
          "internalType": "address",
          "name": "newAuthorizer",
          "type": "address"
        }
      ],
      "name": "updateAuthorizer",
      "outputs": [],
      "stateMutability": "nonpayable",
      "type": "function"
    },
    {
      "inputs": [
        {
          "internalType": "address",
          "name": "newBridgeOwner",
          "type": "address"
        }
      ],
      "name": "updateBridgeOwner",
      "outputs": [],
      "stateMutability": "nonpayable",
      "type": "function"
    },
    {
      "inputs": [
        {
          "internalType": "bool",
          "name": "commissionIsEnabled",
          "type": "bool"
        },
        {
          "internalType": "uint8",
          "name": "receiverCommissionProportion",
          "type": "uint8"
        },
        {
          "internalType": "uint8",
          "name": "bridgeOwnerCommissionProportion",
          "type": "uint8"
        },
        {
          "internalType": "uint8",
          "name": "newConvertTokenPercentage",
          "type": "uint8"
        },
        {
          "internalType": "uint256",
          "name": "newCommissionType",
          "type": "uint256"
        },
        {
          "internalType": "uint256",
          "name": "newFixedTokenCommission",
          "type": "uint256"
        },
        {
          "internalType": "uint256",
          "name": "newFixedNativeTokenCommission",
          "type": "uint256"
        },
        {
          "internalType": "address payable",
          "name": "receiverCommission",
          "type": "address"
        },
        {
          "internalType": "address payable",
          "name": "bridgeOwner",
          "type": "address"
        }
      ],
      "name": "updateCommissionConfiguration",
      "outputs": [],
      "stateMutability": "nonpayable",
      "type": "function"
    },
    {
      "inputs": [
        {
          "internalType": "uint256",
          "name": "perTxnMinAmount",
          "type": "uint256"
        },
        {
          "internalType": "uint256",
          "name": "perTxnMaxAmount",
          "type": "uint256"
        },
        {
          "internalType": "uint256",
          "name": "maxSupply",
          "type": "uint256"
        }
      ],
      "name": "updateConfigurations",
      "outputs": [],
      "stateMutability": "nonpayable",
      "type": "function"
    },
    {
      "inputs": [
        {
          "internalType": "address",
          "name": "newReceiverCommission",
          "type": "address"
        }
      ],
      "name": "updateReceiverCommission",
      "outputs": [],
      "stateMutability": "nonpayable",
      "type": "function"
    }
  ],
  "bytecode": "0x60a06040523480156200001157600080fd5b5060405162002903380380620029038339810160408190526200003491620004a7565b89898989898989898989620000493362000249565b886103e88160ff161115620000a55760405162461bcd60e51b815260206004820152601a60248201527f56696f6c617465732070657263656e74616765206c696d69747300000000000060448201526064015b60405180910390fd5b88886064620000b5828462000571565b60ff1614620001135760405162461bcd60e51b8152602060048201526024808201527f53756d206f662070726f706f7274696f6e2069736e277420657175616c20746f6044820152630203130360e41b60648201526084016200009c565b60808790528c15620001c7576001805463ff00000019166301000000179055620001448c8c8c8c8a8d8b8b62000299565b604080518e1515815260ff8e811660208301528d8116828401528c166060820152608081018b905260a0810188905260c081018a90526001600160a01b0387811660e083015286166101008201524261012082015290517f2384cd55758cfea276bc7f0e2e210be39cc8067f80f2b475d52286fd65d36db0918190036101400190a15b5050505050505050505050505060016007819055508a600660006101000a8154816001600160a01b0302191690836001600160a01b03160217905550620002136200024560201b60201c565b600880546001600160a01b0319166001600160a01b0392909216919091179055506200059f9950505050505050505050565b3390565b600080546001600160a01b038381166001600160a01b0319831681178455604051919092169283917f8be0079c531659141344cd1fd0a4f28419497f9722a3daafe3b4186f6b6457e09190a35050565b60015460ff8881166101009092041614620002c3576001805461ff00191661010060ff8a16021790555b60015460ff878116620100009092041614620002f0576001805462ff000019166201000060ff8916021790555b8415801562000302575060008860ff16115b1562000331576001805460ff8a1660ff199182161782556004805460009391921690835b021790555062000378565b8460010362000353576003849055600480546001919060ff1916828062000326565b82156200037857620003658362000407565b60028381556004805460ff191690911790555b6004546001600160a01b038381166101009092041614620003b45760048054610100600160a81b0319166101006001600160a01b038516021790555b6005546001600160a01b03828116911614801590620003db57506001600160a01b03811615155b15620003fd57600580546001600160a01b0319166001600160a01b0383161790555b5050505050505050565b6080518111156200046a5760405162461bcd60e51b815260206004820152602660248201527f56696f6c61746573206e617469766520746f6b656e20636f6d6d697373696f6e604482015265081b1a5b5a5d60d21b60648201526084016200009c565b50565b6001600160a01b03811681146200046a57600080fd5b805160ff811681146200049557600080fd5b919050565b805162000495816200046d565b60008060008060008060008060008060006101608c8e031215620004ca57600080fd5b8b51620004d7816200046d565b60208d0151909b508015158114620004ee57600080fd5b9950620004fe60408d0162000483565b98506200050e60608d0162000483565b97506200051e60808d0162000483565b965060a08c0151955060c08c0151945060e08c015193506101008c015192506101208c01516200054e816200046d565b91506200055f6101408d016200049a565b90509295989b509295989b9093969950565b60ff81811683821601908111156200059957634e487b7160e01b600052601160045260246000fd5b92915050565b608051612348620005bb6000396000611e2a01526123486000f3fe6080604052600436106100fe5760003560e01c806387319f5f116100955780639f23c9e2116100645780639f23c9e21461033a578063b26e099f1461034d578063e0a6657814610362578063f2fde38b14610382578063feea1529146103a257600080fd5b806387319f5f146102925780638da5cb5b146102c457806394aca02a146102e25780639cb716861461030257600080fd5b806358a93688116100d157806358a93688146101d55780636a02fcc41461024a578063715018a61461025d5780637c522d281461027257600080fd5b8063094c31591461010357806337c1562614610125578063529c09701461013a5780635531e7741461015a575b600080fd5b34801561010f57600080fd5b5061012361011e366004611fcc565b6103d3565b005b34801561013157600080fd5b50610123610565565b34801561014657600080fd5b5061012361015536600461206c565b61077f565b34801561016657600080fd5b506001546002546003546004546005546101b79460ff808216956101008084048316966201000085048416966301000000909504841695929490938116926001600160a01b03929091048216911689565b6040516101cc999897969594939291906120ae565b60405180910390f35b3480156101e157600080fd5b506101ea610834565b604080519a15158b5260ff998a1660208c0152978916978a0197909752949096166060880152608087019290925260a086015260c08501526001600160a01b0392831660e0850152821661010084015216610120820152610140016101cc565b610123610258366004612128565b6108f5565b34801561026957600080fd5b50610123611115565b34801561027e57600080fd5b5061012361028d366004612182565b611129565b34801561029e57600080fd5b506008546001600160a01b03165b6040516001600160a01b0390911681526020016101cc565b3480156102d057600080fd5b506000546001600160a01b03166102ac565b3480156102ee57600080fd5b506101236102fd366004612182565b6111b3565b34801561030e57600080fd5b50600454600554604080516101009093046001600160a01b0390811684529091166020830152016101cc565b6101236103483660046121a6565b611248565b34801561035957600080fd5b5061012361168d565b34801561036e57600080fd5b5061012361037d366004612182565b6116a4565b34801561038e57600080fd5b5061012361039d366004612182565b611756565b3480156103ae57600080fd5b50600a54600b54600c54604080519384526020840192909252908201526060016101cc565b6103db6117cf565b856103e88160ff1611156104365760405162461bcd60e51b815260206004820152601a60248201527f56696f6c617465732070657263656e74616765206c696d69747300000000000060448201526064015b60405180910390fd5b888860646104448284612203565b60ff16146104a05760405162461bcd60e51b8152602060048201526024808201527f53756d206f662070726f706f7274696f6e2069736e277420657175616c20746f6044820152630203130360e41b606482015260840161042d565b6001546301000000900460ff166104c5576001805463ff000000191663010000001790555b6104d5898c8c8b8b8b8b8b611829565b604080518d1515815260ff8b811660208301528d8116828401528c166060820152608081018a905260a0810189905260c081018890526001600160a01b0387811660e083015286166101008201524261012082015290517f2384cd55758cfea276bc7f0e2e210be39cc8067f80f2b475d52286fd65d36db0918190036101400190a1505050505050505050505050565b3360045461010090046001600160a01b0316336001600160a01b031614806105a057506005546001600160a01b0316336001600160a01b0316145b6105f85760405162461bcd60e51b815260206004820152602360248201527f5369676e6572206973206e6f74206120636f6d6d697373696f6e2072656365696044820152623b32b960e91b606482015260840161042d565b478061060357600080fd5b600454600154600091610100908190046001600160a01b03169160649161062e910460ff168561221c565b6106389190612233565b604051600081818185875af1925050503d8060008114610674576040519150601f19603f3d011682016040523d82523d6000602084013e610679565b606091505b50506005546001549192506000916001600160a01b03909116906064906106a99062010000900460ff168661221c565b6106b39190612233565b604051600081818185875af1925050503d80600081146106ef576040519150601f19603f3d011682016040523d82523d6000602084013e6106f4565b606091505b505090508180156107025750805b61074e5760405162461bcd60e51b815260206004820152601760248201527f436f6d6d697373696f6e20636c61696d206661696c6564000000000000000000604482015260640161042d565b60405142907f5b64f7990ec4169ec43e750ea74cd6e76bbbd2a11d79841622bdda84ba9d561e90600090a250505050565b6107876117cf565b60008311801561079657508282115b80156107a25750600081115b6107df5760405162461bcd60e51b815260206004820152600e60248201526d496e76616c696420696e7075747360901b604482015260640161042d565b600a839055600b829055600c81905560408051848152602081018490529081018290527fb2efb0aa6e279553a1e5567ebb495d322192aa43c5fc3073cba4601d52009ab49060600160405180910390a1505050565b60015460045460009182918291829182918291829182918291829160ff6301000000830481169261010081048216926201000082048316929182169116600281111561088257610882612098565b6001600201546001800154600160030160019054906101000a90046001600160a01b0316600160040160009054906101000a90046001600160a01b0316600660009054906101000a90046001600160a01b0316995099509950995099509950995099509950995090919293949596979899565b84600a54811015801561090a5750600b548111155b6109565760405162461bcd60e51b815260206004820152601a60248201527f56696f6c6174657320636f6e76657273696f6e206c696d697473000000000000604482015260640161042d565b61095e61198a565b6001600160a01b0387166109a55760405162461bcd60e51b815260206004820152600e60248201526d125b9d985b1a59081dd85b1b195d60921b604482015260640161042d565b6000610a5d87336040516d2fafb1b7b73b32b939b4b7b724b760911b6020820152602e8101929092526bffffffffffffffffffffffff19606091821b8116604e840152606283018a90523090911b1660828201526096015b60408051601f1981840301815282825280516020918201207f19457468657265756d205369676e6564204d6573736167653a0a33320000000084830152603c8085019190915282518085039091018152605c909301909152815191012090565b60085460408051600081526020810180835284905260ff89169181019190915260608101879052608081018690529192506001600160a01b03169060019060a0016020604051602081039080840390855afa158015610ac0573d6000803e3d6000fd5b505050602060405103516001600160a01b031614610b205760405162461bcd60e51b815260206004820152601c60248201527f496e76616c69642072657175657374206f72207369676e617475726500000000604482015260640161042d565b60008181526009602052604090205460ff1615610b7f5760405162461bcd60e51b815260206004820152601f60248201527f5369676e61747572652068617320616c7265616479206265656e207573656400604482015260640161042d565b600081815260096020908152604091829020805460ff19166001179055600c5460065483516318160ddd60e01b8152935191938b936001600160a01b03909216926318160ddd926004808401939192918290030181865afa158015610be8573d6000803e3d6000fd5b505050506040513d601f19601f82011682018060405250810190610c0c9190612255565b610c16919061226e565b1115610c555760405162461bcd60e51b815260206004820152600e60248201526d125b9d985b1a5908105b5bdd5b9d60921b604482015260640161042d565b6001546301000000900460ff1615610fd457600260045460ff166002811115610c8057610c80612098565b03610d7a57610c8d6119e3565b600654604080516001600160a01b038b8116602483015260448083018c905283518084039091018152606490920183526020820180516001600160e01b03166340c10f1960e01b17905291516000939290921691610ceb9190612281565b6000604051808303816000865af19150503d8060008114610d28576040519150601f19603f3d011682016040523d82523d6000602084013e610d2d565b606091505b5050905080610d745760405162461bcd60e51b815260206004820152601360248201527210dbdb9d995c9cda5bdb925b8811985a5b1959606a1b604482015260640161042d565b506110bd565b6006546040805130602482015260448082018b905282518083039091018152606490910182526020810180516001600160e01b03166340c10f1960e01b17905290516000926001600160a01b031691610dd291612281565b6000604051808303816000865af19150503d8060008114610e0f576040519150601f19603f3d011682016040523d82523d6000602084013e610e14565b606091505b5050905080610e655760405162461bcd60e51b815260206004820152601a60248201527f4d696e74202620436f6e76657273696f6e496e204661696c6564000000000000604482015260640161042d565b610e6e88611a48565b610e7890896122b0565b975060008811610edc5760405162461bcd60e51b815260206004820152602960248201527f496e76616c696420616d6f756e7420616674657220636f6d6d697373696f6e206044820152683232b23ab1ba34b7b760b91b606482015260840161042d565b600654604080516001600160a01b038c8116602483015260448083018d905283518084039091018152606490920183526020820180516001600160e01b031663a9059cbb60e01b17905291516000939290921691610f3a9190612281565b6000604051808303816000865af19150503d8060008114610f77576040519150601f19603f3d011682016040523d82523d6000602084013e610f7c565b606091505b5050905080610fcd5760405162461bcd60e51b815260206004820152601e60248201527f5472616e73666572202620436f6e76657273696f6e496e204661696c65640000604482015260640161042d565b50506110bd565b600654604080516001600160a01b038b8116602483015260448083018c905283518084039091018152606490920183526020820180516001600160e01b03166340c10f1960e01b179052915160009392909216916110329190612281565b6000604051808303816000865af19150503d806000811461106f576040519150601f19603f3d011682016040523d82523d6000602084013e611074565b606091505b50509050806110bb5760405162461bcd60e51b815260206004820152601360248201527210dbdb9d995c9cda5bdb925b8811985a5b1959606a1b604482015260640161042d565b505b60408051878152602081018990526001600160a01b038a16917f62a9b3e6446ab559d6b82c4f02cc923cd3b4e47444ef86446dab81a4d781c5af910160405180910390a25061110c6001600755565b50505050505050565b61111d6117cf565b6111276000611c73565b565b6111316117cf565b6001600160a01b0381166111575760405162461bcd60e51b815260040161042d906122c3565b6005546040516001600160a01b038084169216907f62904549814f5511a5d36a62611a6e2fe1d2c29b6de74de25d95395e0a7d009b90600090a3600580546001600160a01b0319166001600160a01b0392909216919091179055565b6111bb6117cf565b6001600160a01b0381166111e15760405162461bcd60e51b815260040161042d906122c3565b6004546040516001600160a01b0380841692610100900416907f62904549814f5511a5d36a62611a6e2fe1d2c29b6de74de25d95395e0a7d009b90600090a3600480546001600160a01b0390921661010002610100600160a81b0319909216919091179055565b84600a54811015801561125d5750600b548111155b6112a95760405162461bcd60e51b815260206004820152601a60248201527f56696f6c6174657320636f6e76657273696f6e206c696d697473000000000000604482015260640161042d565b6112b161198a565b60065486906001600160a01b03166370a08231336040516001600160e01b031960e084901b1681526001600160a01b039091166004820152602401602060405180830381865afa158015611309573d6000803e3d6000fd5b505050506040513d601f19601f8201168201806040525081019061132d9190612255565b10156113705760405162461bcd60e51b81526020600482015260126024820152714e6f7420656e6f7567682062616c616e636560701b604482015260640161042d565b60006113cd87336040516e17d7d8dbdb9d995c9cda5bdb93dd5d608a1b6020820152602f8101929092526bffffffffffffffffffffffff19606091821b8116604f840152606383018a90523090911b1660838201526097016109fd565b60085460408051600081526020810180835284905260ff89169181019190915260608101879052608081018690529192506001600160a01b03169060019060a0016020604051602081039080840390855afa158015611430573d6000803e3d6000fd5b505050602060405103516001600160a01b0316146114905760405162461bcd60e51b815260206004820152601c60248201527f496e76616c69642072657175657374206f72207369676e617475726500000000604482015260640161042d565b60008181526009602052604090205460ff16156114ef5760405162461bcd60e51b815260206004820152601f60248201527f5369676e61747572652068617320616c7265616479206265656e207573656400604482015260640161042d565b6000818152600960205260409020805460ff19166001908117909155546301000000900460ff161561155c57600260045460ff16600281111561153457611534612098565b03611546576115416119e3565b61155c565b61154f87611cc3565b61155990886122b0565b96505b6006546040805133602482015260448082018b905282518083039091018152606490910182526020810180516001600160e01b031663079cc67960e41b17905290516000926001600160a01b0316916115b491612281565b6000604051808303816000865af19150503d80600081146115f1576040519150601f19603f3d011682016040523d82523d6000602084013e6115f6565b606091505b505090508061163e5760405162461bcd60e51b815260206004820152601460248201527318dbdb9d995c9cda5bdb93dd5d0811985a5b195960621b604482015260640161042d565b60408051888152602081018a905233917fb999b06746a947f1958636b9b9377ae814fe578413dfffd4d3a7a96196fe02fc910160405180910390a250506116856001600755565b505050505050565b6116956117cf565b6001805463ff00000019169055565b6116ac6117cf565b6001600160a01b0381166117025760405162461bcd60e51b815260206004820152601860248201527f496e76616c6964206f70657261746f7220616464726573730000000000000000604482015260640161042d565b600880546001600160a01b0319166001600160a01b0383169081179091556040519081527f08f53e6a9fbc3949bc0b9266bbe1927f0b282a34d92876ccbe188c24d17c6cbb9060200160405180910390a150565b61175e6117cf565b6001600160a01b0381166117c35760405162461bcd60e51b815260206004820152602660248201527f4f776e61626c653a206e6577206f776e657220697320746865207a65726f206160448201526564647265737360d01b606482015260840161042d565b6117cc81611c73565b50565b6000546001600160a01b031633146111275760405162461bcd60e51b815260206004820181905260248201527f4f776e61626c653a2063616c6c6572206973206e6f7420746865206f776e6572604482015260640161042d565b60015460ff8881166101009092041614611852576001805461ff00191661010060ff8a16021790555b60015460ff87811662010000909204161461187e576001805462ff000019166201000060ff8916021790555b8415801561188f575060008860ff16115b156118bc576001805460ff8a1660ff199182161782556004805460009391921690835b02179055506118fe565b846001036118dc576003849055600480546001919060ff191682806118b2565b82156118fe576118eb83611e28565b60028381556004805460ff191690911790555b6004546001600160a01b0383811661010090920416146119395760048054610100600160a81b0319166101006001600160a01b038516021790555b6005546001600160a01b0382811691161480159061195f57506001600160a01b03811615155b1561198057600580546001600160a01b0319166001600160a01b0383161790555b5050505050505050565b6002600754036119dc5760405162461bcd60e51b815260206004820152601f60248201527f5265656e7472616e637947756172643a207265656e7472616e742063616c6c00604482015260640161042d565b6002600755565b60025434146111275760405162461bcd60e51b815260206004820152602b60248201527f496e616363757261746520706179656420636f6d6d697373696f6e20696e206e60448201526a30ba34bb32903a37b5b2b760a91b606482015260840161042d565b6000806000611a5684611ea7565b6006546004549294509092506000916001600160a01b03918216917fa9059cbb2ab09eb219583f4a59a5d0623ade346d962bcd4e46b11da047c9049b91610100900416611aa386866122b0565b6040516001600160a01b039092166024830152604482015260640160408051601f198184030181529181526020820180516001600160e01b03166001600160e01b0319909416939093179092529051611afc9190612281565b6000604051808303816000865af19150503d8060008114611b39576040519150601f19603f3d011682016040523d82523d6000602084013e611b3e565b606091505b50506006546005546040516001600160a01b039182166024820152604481018790529293506000929116907fa9059cbb2ab09eb219583f4a59a5d0623ade346d962bcd4e46b11da047c9049b906064015b60408051601f198184030181529181526020820180516001600160e01b03166001600160e01b0319909416939093179092529051611bcd9190612281565b6000604051808303816000865af19150503d8060008114611c0a576040519150601f19603f3d011682016040523d82523d6000602084013e611c0f565b606091505b50509050818015611c1d5750805b611c695760405162461bcd60e51b815260206004820152601a60248201527f436f6d6d697373696f6e207472616e73666572206661696c6564000000000000604482015260640161042d565b5090949350505050565b600080546001600160a01b038381166001600160a01b0319831681178455604051919092169283917f8be0079c531659141344cd1fd0a4f28419497f9722a3daafe3b4186f6b6457e09190a35050565b6000806000611cd184611ea7565b60065491935091506000906001600160a01b03167f23b872dd7302113369cda2901243429419bec145408fa8b352b3dd92b66c680b3360045461010090046001600160a01b0316611d2287876122b0565b6040516001600160a01b039384166024820152929091166044830152606482015260840160408051601f198184030181529181526020820180516001600160e01b03166001600160e01b0319909416939093179092529051611d849190612281565b6000604051808303816000865af19150503d8060008114611dc1576040519150601f19603f3d011682016040523d82523d6000602084013e611dc6565b606091505b50506006549091506000906001600160a01b03167f23b872dd7302113369cda2901243429419bec145408fa8b352b3dd92b66c680b336005546040516001600160a01b0392831660248201529116604482015260648101879052608401611b8f565b7f00000000000000000000000000000000000000000000000000000000000000008111156117cc5760405162461bcd60e51b815260206004820152602660248201527f56696f6c61746573206e617469766520746f6b656e20636f6d6d697373696f6e604482015265081b1a5b5a5d60d21b606482015260840161042d565b6000808060045460ff166002811115611ec257611ec2612098565b03611efc576001546000906103e890611ede9060ff168661221c565b611ee89190612233565b9050611ef381611f75565b94909350915050565b600160045460ff166002811115611f1557611f15612098565b03611f3357600354611f2690611f75565b6003549094909350915050565b600260045460ff166002811115611f4c57611f4c612098565b03611f6a57600254611f5d90611f75565b6002549094909350915050565b506000928392509050565b600154600090606490611f919062010000900460ff168461221c565b611f9b9190612233565b92915050565b803560ff81168114611fb257600080fd5b919050565b6001600160a01b03811681146117cc57600080fd5b60008060008060008060008060006101208a8c031215611feb57600080fd5b89358015158114611ffb57600080fd5b985061200960208b01611fa1565b975061201760408b01611fa1565b965061202560608b01611fa1565b955060808a0135945060a08a0135935060c08a0135925060e08a013561204a81611fb7565b91506101008a013561205b81611fb7565b809150509295985092959850929598565b60008060006060848603121561208157600080fd5b505081359360208301359350604090920135919050565b634e487b7160e01b600052602160045260246000fd5b60ff8a8116825289811660208301528816604082015286151560608201526080810186905260a081018590526101208101600385106120fd57634e487b7160e01b600052602160045260246000fd5b60c08201949094526001600160a01b0392831660e08201529116610100909101529695505050505050565b60008060008060008060c0878903121561214157600080fd5b863561214c81611fb7565b9550602087013594506040870135935061216860608801611fa1565b92506080870135915060a087013590509295509295509295565b60006020828403121561219457600080fd5b813561219f81611fb7565b9392505050565b600080600080600060a086880312156121be57600080fd5b85359450602086013593506121d560408701611fa1565b94979396509394606081013594506080013592915050565b634e487b7160e01b600052601160045260246000fd5b60ff8181168382160190811115611f9b57611f9b6121ed565b8082028115828204841417611f9b57611f9b6121ed565b60008261225057634e487b7160e01b600052601260045260246000fd5b500490565b60006020828403121561226757600080fd5b5051919050565b80820180821115611f9b57611f9b6121ed565b6000825160005b818110156122a25760208186018101518583015201612288565b506000920191825250919050565b81810381811115611f9b57611f9b6121ed565b6020808252602f908201527f54686520636f6d6d697373696f6e20726563697069656e74206164647265737360408201526e2063616e6e6f74206265207a65726f60881b60608201526080019056fea2646970667358221220f7d1d36c941b3ed83d41a683b381a5bf1e6f11d691b6abf1fde4e98099d6a90c64736f6c63430008130033",
  "linkReferences": {},
  "deployedLinkReferences": {}
}