{
  "_format": "hh-sol-artifact-1",
  "contractName": "TokenConversionManager",
  "sourceName": "contracts/TokenConversionManager.sol",
  "abi": [
    {
      "inputs": [
        {
          "internalType": "address",
          "name": "token",
          "type": "address"
        },
        {
          "internalType": "bool",
          "name": "commissionIsEnabled",
          "type": "bool"
        },
        {
          "internalType": "uint8",
          "name": "convertTokenPercentage",
          "type": "uint8"
        },
        {
          "internalType": "uint8",
          "name": "receiverCommissionProportion",
          "type": "uint8"
        },
        {
          "internalType": "uint8",
          "name": "bridgeOwnerCommissionProportion",
          "type": "uint8"
        },
        {
          "internalType": "uint256",
          "name": "commissionType",
          "type": "uint256"
        },
        {
          "internalType": "uint256",
          "name": "fixedNativeTokenCommission",
          "type": "uint256"
        },
        {
          "internalType": "uint256",
          "name": "fixedNativeTokenCommissionLimit",
          "type": "uint256"
        },
        {
          "internalType": "uint256",
          "name": "fixedTokenCommission",
          "type": "uint256"
        },
        {
          "internalType": "address payable",
          "name": "commissionReceiver",
          "type": "address"
        },
        {
          "internalType": "address payable",
          "name": "bridgeOwner",
          "type": "address"
        }
      ],
      "stateMutability": "nonpayable",
      "type": "constructor"
    },
    {
      "inputs": [],
      "name": "CommissionTransferFailed",
      "type": "error"
    },
    {
      "inputs": [],
      "name": "ConversionFailed",
      "type": "error"
    },
    {
      "inputs": [],
      "name": "ConversionMintFailed",
      "type": "error"
    },
    {
      "inputs": [],
      "name": "ConversionTransferFailed",
      "type": "error"
    },
    {
      "inputs": [],
      "name": "InvalidCommissionDeduction",
      "type": "error"
    },
    {
      "inputs": [
        {
          "internalType": "uint8",
          "name": "proportion1",
          "type": "uint8"
        },
        {
          "internalType": "uint8",
          "name": "proportion2",
          "type": "uint8"
        }
      ],
      "name": "InvalidProportionSum",
      "type": "error"
    },
    {
      "inputs": [],
      "name": "InvalidRequestOrSignature",
      "type": "error"
    },
    {
      "inputs": [],
      "name": "InvalidUpdateConfigurations",
      "type": "error"
    },
    {
      "inputs": [],
      "name": "NativeClaimFailed",
      "type": "error"
    },
    {
      "inputs": [],
      "name": "NotEnoughBalance",
      "type": "error"
    },
    {
      "inputs": [],
      "name": "PercentageLimitExceeded",
      "type": "error"
    },
    {
      "inputs": [
        {
          "internalType": "uint256",
          "name": "sent",
          "type": "uint256"
        },
        {
          "internalType": "uint256",
          "name": "required",
          "type": "uint256"
        }
      ],
      "name": "TakeNativeTokenCommissionFailed",
      "type": "error"
    },
    {
      "inputs": [
        {
          "internalType": "address",
          "name": "caller",
          "type": "address"
        }
      ],
      "name": "UnauthorizedCommissionReceiver",
      "type": "error"
    },
    {
      "inputs": [],
      "name": "UsedSignature",
      "type": "error"
    },
    {
      "inputs": [],
      "name": "ViolationOfNativeTokenLimit",
      "type": "error"
    },
    {
      "inputs": [],
      "name": "ViolationOfTxAmountLimits",
      "type": "error"
    },
    {
      "inputs": [],
      "name": "ZeroAddress",
      "type": "error"
    },
    {
      "anonymous": false,
      "inputs": [
        {
          "indexed": true,
          "internalType": "address",
          "name": "tokenHolder",
          "type": "address"
        },
        {
          "indexed": false,
          "internalType": "bytes32",
          "name": "conversionId",
          "type": "bytes32"
        },
        {
          "indexed": false,
          "internalType": "uint256",
          "name": "amount",
          "type": "uint256"
        }
      ],
      "name": "ConversionIn",
      "type": "event"
    },
    {
      "anonymous": false,
      "inputs": [
        {
          "indexed": true,
          "internalType": "address",
          "name": "tokenHolder",
          "type": "address"
        },
        {
          "indexed": false,
          "internalType": "bytes32",
          "name": "conversionId",
          "type": "bytes32"
        },
        {
          "indexed": false,
          "internalType": "uint256",
          "name": "amount",
          "type": "uint256"
        }
      ],
      "name": "ConversionOut",
      "type": "event"
    },
    {
      "anonymous": false,
      "inputs": [
        {
          "indexed": true,
          "internalType": "uint256",
          "name": "time",
          "type": "uint256"
        }
      ],
      "name": "NativeCurrencyCommissionClaim",
      "type": "event"
    },
    {
      "anonymous": false,
      "inputs": [
        {
          "indexed": false,
          "internalType": "address",
          "name": "conversionAuthorizer",
          "type": "address"
        }
      ],
      "name": "NewAuthorizer",
      "type": "event"
    },
    {
      "anonymous": false,
      "inputs": [
        {
          "indexed": true,
          "internalType": "address",
          "name": "previousOwner",
          "type": "address"
        },
        {
          "indexed": true,
          "internalType": "address",
          "name": "newOwner",
          "type": "address"
        }
      ],
      "name": "OwnershipTransferred",
      "type": "event"
    },
    {
      "anonymous": false,
      "inputs": [
        {
          "indexed": false,
          "internalType": "bool",
          "name": "commissionIsEnabled",
          "type": "bool"
        },
        {
          "indexed": false,
          "internalType": "uint8",
          "name": "convertTokenPercentage",
          "type": "uint8"
        },
        {
          "indexed": false,
          "internalType": "uint8",
          "name": "receiverCommissionProportion",
          "type": "uint8"
        },
        {
          "indexed": false,
          "internalType": "uint8",
          "name": "bridgeOwnerCommissionProportion",
          "type": "uint8"
        },
        {
          "indexed": false,
          "internalType": "uint256",
          "name": "commissionType",
          "type": "uint256"
        },
        {
          "indexed": false,
          "internalType": "uint256",
          "name": "fixedTokenCommission",
          "type": "uint256"
        },
        {
          "indexed": false,
          "internalType": "uint256",
          "name": "fixedNativeTokenCommission",
          "type": "uint256"
        },
        {
          "indexed": false,
          "internalType": "address payable",
          "name": "receiverCommission",
          "type": "address"
        },
        {
          "indexed": false,
          "internalType": "address payable",
          "name": "bridgeOwner",
          "type": "address"
        },
        {
          "indexed": false,
          "internalType": "uint256",
          "name": "updateTimestamp",
          "type": "uint256"
        }
      ],
      "name": "UpdateCommissionConfiguration",
      "type": "event"
    },
    {
      "anonymous": false,
      "inputs": [
        {
          "indexed": false,
          "internalType": "uint256",
          "name": "perTxnMinAmount",
          "type": "uint256"
        },
        {
          "indexed": false,
          "internalType": "uint256",
          "name": "perTxnMaxAmount",
          "type": "uint256"
        },
        {
          "indexed": false,
          "internalType": "uint256",
          "name": "maxSupply",
          "type": "uint256"
        }
      ],
      "name": "UpdateConfiguration",
      "type": "event"
    },
    {
      "anonymous": false,
      "inputs": [
        {
          "indexed": true,
          "internalType": "address",
          "name": "previousReceiver",
          "type": "address"
        },
        {
          "indexed": true,
          "internalType": "address",
          "name": "newReceiver",
          "type": "address"
        }
      ],
      "name": "UpdateReceiver",
      "type": "event"
    },
    {
      "inputs": [],
      "name": "claimNativeCurrencyCommission",
      "outputs": [],
      "stateMutability": "nonpayable",
      "type": "function"
    },
    {
      "inputs": [],
      "name": "commissionSettings",
      "outputs": [
        {
          "internalType": "uint8",
          "name": "convertTokenPercentage",
          "type": "uint8"
        },
        {
          "internalType": "uint8",
          "name": "receiverCommissionProportion",
          "type": "uint8"
        },
        {
          "internalType": "uint8",
          "name": "bridgeOwnerCommissionProportion",
          "type": "uint8"
        },
        {
          "internalType": "bool",
          "name": "commissionIsEnabled",
          "type": "bool"
        },
        {
          "internalType": "uint256",
          "name": "fixedNativeTokenCommission",
          "type": "uint256"
        },
        {
          "internalType": "uint256",
          "name": "fixedTokenCommission",
          "type": "uint256"
        },
        {
          "internalType": "enum Commission.CommissionType",
          "name": "commissionType",
          "type": "uint8"
        },
        {
          "internalType": "address payable",
          "name": "receiverCommission",
          "type": "address"
        },
        {
          "internalType": "address payable",
          "name": "bridgeOwner",
          "type": "address"
        }
      ],
      "stateMutability": "view",
      "type": "function"
    },
    {
      "inputs": [
        {
          "internalType": "address",
          "name": "to",
          "type": "address"
        },
        {
          "internalType": "uint256",
          "name": "amount",
          "type": "uint256"
        },
        {
          "internalType": "bytes32",
          "name": "conversionId",
          "type": "bytes32"
        },
        {
          "internalType": "uint8",
          "name": "v",
          "type": "uint8"
        },
        {
          "internalType": "bytes32",
          "name": "r",
          "type": "bytes32"
        },
        {
          "internalType": "bytes32",
          "name": "s",
          "type": "bytes32"
        }
      ],
      "name": "conversionIn",
      "outputs": [],
      "stateMutability": "payable",
      "type": "function"
    },
    {
      "inputs": [
        {
          "internalType": "uint256",
          "name": "amount",
          "type": "uint256"
        },
        {
          "internalType": "bytes32",
          "name": "conversionId",
          "type": "bytes32"
        },
        {
          "internalType": "uint8",
          "name": "v",
          "type": "uint8"
        },
        {
          "internalType": "bytes32",
          "name": "r",
          "type": "bytes32"
        },
        {
          "internalType": "bytes32",
          "name": "s",
          "type": "bytes32"
        }
      ],
      "name": "conversionOut",
      "outputs": [],
      "stateMutability": "payable",
      "type": "function"
    },
    {
      "inputs": [],
      "name": "disableCommission",
      "outputs": [],
      "stateMutability": "nonpayable",
      "type": "function"
    },
    {
      "inputs": [],
      "name": "getCommissionReceiverAddresses",
      "outputs": [
        {
          "internalType": "address",
          "name": "",
          "type": "address"
        },
        {
          "internalType": "address",
          "name": "",
          "type": "address"
        }
      ],
      "stateMutability": "view",
      "type": "function"
    },
    {
      "inputs": [],
      "name": "getCommissionSettings",
      "outputs": [
        {
          "internalType": "bool",
          "name": "commissionIsEnabled",
          "type": "bool"
        },
        {
          "internalType": "uint8",
          "name": "receiverCommissionProportion",
          "type": "uint8"
        },
        {
          "internalType": "uint8",
          "name": "bridgeOwnerCommissionProportion",
          "type": "uint8"
        },
        {
          "internalType": "uint8",
          "name": "convertTokenPercentage",
          "type": "uint8"
        },
        {
          "internalType": "uint256",
          "name": "tokenTypeCommission",
          "type": "uint256"
        },
        {
          "internalType": "uint256",
          "name": "fixedTokenCommission",
          "type": "uint256"
        },
        {
          "internalType": "uint256",
          "name": "fixedNativeTokenCommission",
          "type": "uint256"
        },
        {
          "internalType": "address payable",
          "name": "receiverCommission",
          "type": "address"
        },
        {
          "internalType": "address payable",
          "name": "bridgeOwner",
          "type": "address"
        },
        {
          "internalType": "address",
          "name": "token",
          "type": "address"
        }
      ],
      "stateMutability": "view",
      "type": "function"
    },
    {
      "inputs": [],
      "name": "getConversionAuthorizer",
      "outputs": [
        {
          "internalType": "address",
          "name": "",
          "type": "address"
        }
      ],
      "stateMutability": "view",
      "type": "function"
    },
    {
      "inputs": [],
      "name": "getConversionConfigurations",
      "outputs": [
        {
          "internalType": "uint256",
          "name": "",
          "type": "uint256"
        },
        {
          "internalType": "uint256",
          "name": "",
          "type": "uint256"
        },
        {
          "internalType": "uint256",
          "name": "",
          "type": "uint256"
        }
      ],
      "stateMutability": "view",
      "type": "function"
    },
    {
      "inputs": [],
      "name": "owner",
      "outputs": [
        {
          "internalType": "address",
          "name": "",
          "type": "address"
        }
      ],
      "stateMutability": "view",
      "type": "function"
    },
    {
      "inputs": [],
      "name": "renounceOwnership",
      "outputs": [],
      "stateMutability": "nonpayable",
      "type": "function"
    },
    {
      "inputs": [
        {
          "internalType": "address",
          "name": "newOwner",
          "type": "address"
        }
      ],
      "name": "transferOwnership",
      "outputs": [],
      "stateMutability": "nonpayable",
      "type": "function"
    },
    {
      "inputs": [
        {
          "internalType": "address",
          "name": "newAuthorizer",
          "type": "address"
        }
      ],
      "name": "updateAuthorizer",
      "outputs": [],
      "stateMutability": "nonpayable",
      "type": "function"
    },
    {
      "inputs": [
        {
          "internalType": "address",
          "name": "newBridgeOwner",
          "type": "address"
        }
      ],
      "name": "updateBridgeOwner",
      "outputs": [],
      "stateMutability": "nonpayable",
      "type": "function"
    },
    {
      "inputs": [
        {
          "internalType": "bool",
          "name": "commissionIsEnabled",
          "type": "bool"
        },
        {
          "internalType": "uint8",
          "name": "receiverCommissionProportion",
          "type": "uint8"
        },
        {
          "internalType": "uint8",
          "name": "bridgeOwnerCommissionProportion",
          "type": "uint8"
        },
        {
          "internalType": "uint8",
          "name": "newConvertTokenPercentage",
          "type": "uint8"
        },
        {
          "internalType": "uint256",
          "name": "newCommissionType",
          "type": "uint256"
        },
        {
          "internalType": "uint256",
          "name": "newFixedTokenCommission",
          "type": "uint256"
        },
        {
          "internalType": "uint256",
          "name": "newFixedNativeTokenCommission",
          "type": "uint256"
        },
        {
          "internalType": "address payable",
          "name": "receiverCommission",
          "type": "address"
        },
        {
          "internalType": "address payable",
          "name": "bridgeOwner",
          "type": "address"
        }
      ],
      "name": "updateCommissionConfiguration",
      "outputs": [],
      "stateMutability": "nonpayable",
      "type": "function"
    },
    {
      "inputs": [
        {
          "internalType": "uint256",
          "name": "perTxnMinAmount",
          "type": "uint256"
        },
        {
          "internalType": "uint256",
          "name": "perTxnMaxAmount",
          "type": "uint256"
        },
        {
          "internalType": "uint256",
          "name": "maxSupply",
          "type": "uint256"
        }
      ],
      "name": "updateConfigurations",
      "outputs": [],
      "stateMutability": "nonpayable",
      "type": "function"
    },
    {
      "inputs": [
        {
          "internalType": "address",
          "name": "newReceiverCommission",
          "type": "address"
        }
      ],
      "name": "updateReceiverCommission",
      "outputs": [],
      "stateMutability": "nonpayable",
      "type": "function"
    }
  ],
  "bytecode": "0x60c06040523480156200001157600080fd5b5060405162006f4138038062006f418339818101604052810190620000379190620010f2565b8a8a8a8a8a8a8a8a8a8a8a62000062620000566200066160201b60201c565b6200066960201b60201c565b600180819055508862000086671a52f4332212ebc860c01b6200072d60201b60201c565b620000a267c9ff50fbce78a1d660c01b6200072d60201b60201c565b620000be67f42c02838a2d110760c01b6200072d60201b60201c565b6103e88160ff1611156200013657620000e86787ef6a37eca4b00160c01b6200072d60201b60201c565b6200010467d47af1bc757df50360c01b6200072d60201b60201c565b6040517feaf5947400000000000000000000000000000000000000000000000000000000815260040160405180910390fd5b6200015267e4a415a19974ccfd60c01b6200072d60201b60201c565b6200016e67e6d1623ab081e58260c01b6200072d60201b60201c565b88886200018c676eb38efe8e13e84560c01b6200072d60201b60201c565b620001a867c36a40953380310160c01b6200072d60201b60201c565b620001c467ef284b8f51d91f5b60c01b6200072d60201b60201c565b606460ff168183620001d791906200122e565b60ff16146200025957620001fc676da70845dcf79db660c01b6200072d60201b60201c565b6200021867b5a632c7474ef5c860c01b6200072d60201b60201c565b81816040517f8efe3fd5000000000000000000000000000000000000000000000000000000008152600401620002509291906200127b565b60405180910390fd5b62000275675aaec8a97298f6aa60c01b6200072d60201b60201c565b62000291672ad26ac8c242bea560c01b6200072d60201b60201c565b620002ad675ec43c3031f3d7a560c01b6200072d60201b60201c565b620002c96705b086c48bd883db60c01b6200072d60201b60201c565b8d73ffffffffffffffffffffffffffffffffffffffff1660a08173ffffffffffffffffffffffffffffffffffffffff1681525050620003196787de4463e038ab2360c01b6200072d60201b60201c565b86608081815250506200033d67d61305e2b87e675760c01b6200072d60201b60201c565b6200035967326b09cc280b130560c01b6200072d60201b60201c565b8c6200039d576200037b67ccbfc6331071276660c01b6200072d60201b60201c565b62000397678380ffa549a064c060c01b6200072d60201b60201c565b620004c7565b620003b96753de276185fce1c960c01b6200072d60201b60201c565b620003d567b15cb910cd65a45760c01b6200072d60201b60201c565b6001600260000160036101000a81548160ff0219169083151502179055506200040f67eb7dabb72cc26bdf60c01b6200072d60201b60201c565b6200042b67d517584215a1f90060c01b6200072d60201b60201c565b620004438c8c8c8c8a8d8b8b6200073060201b60201c565b6200045f675ddd8aca6f706bf160c01b6200072d60201b60201c565b6200047b67759fce04b480ab5f60c01b6200072d60201b60201c565b7f2384cd55758cfea276bc7f0e2e210be39cc8067f80f2b475d52286fd65d36db08d8d8d8d8d8b8e8c8c42604051620004be9a99989796959493929190620012db565b60405180910390a15b5050505050505050505050505050620004f1674ee746f17d0f90fc60c01b62000ea260201b60201c565b6200050d67a01afef63d8ba45460c01b62000ea260201b60201c565b6200052967d4c664f17bdfaf5660c01b62000ea260201b60201c565b600073ffffffffffffffffffffffffffffffffffffffff168b73ffffffffffffffffffffffffffffffffffffffff1603620005c8576200057a67377703118d54d04960c01b62000ea260201b60201c565b6200059667b59215b461d5f41c60c01b62000ea260201b60201c565b6040517fd92e233d00000000000000000000000000000000000000000000000000000000815260040160405180910390fd5b620005e4676ec7c2d04cfbdf7a60c01b62000ea260201b60201c565b62000600678c8174fc58a1102c60c01b62000ea260201b60201c565b620006106200066160201b60201c565b600760006101000a81548173ffffffffffffffffffffffffffffffffffffffff021916908373ffffffffffffffffffffffffffffffffffffffff1602179055505050505050505050505050620013ba565b600033905090565b60008060009054906101000a900473ffffffffffffffffffffffffffffffffffffffff169050816000806101000a81548173ffffffffffffffffffffffffffffffffffffffff021916908373ffffffffffffffffffffffffffffffffffffffff1602179055508173ffffffffffffffffffffffffffffffffffffffff168173ffffffffffffffffffffffffffffffffffffffff167f8be0079c531659141344cd1fd0a4f28419497f9722a3daafe3b4186f6b6457e060405160405180910390a35050565b50565b6200074c677aee11247d61fdf560c01b6200072d60201b60201c565b6200076867b55e8db1a985dea360c01b6200072d60201b60201c565b6200078467d9812de961715a0a60c01b6200072d60201b60201c565b8660ff16600260000160019054906101000a900460ff1660ff16146200080057620007c06747cd2d0e89c561ac60c01b6200072d60201b60201c565b620007dc67c2ee2098c76b8bc960c01b6200072d60201b60201c565b86600260000160016101000a81548160ff021916908360ff1602179055506200081d565b6200081c67a1c1a9373520fc2460c01b6200072d60201b60201c565b5b62000839671503bd0e83ea35f260c01b6200072d60201b60201c565b62000855676f99511bab31c6fe60c01b6200072d60201b60201c565b8560ff16600260000160029054906101000a900460ff1660ff1614620008d1576200089167db137fae7693cf9560c01b6200072d60201b60201c565b620008ad676459650ecbf074ce60c01b6200072d60201b60201c565b85600260000160026101000a81548160ff021916908360ff160217905550620008ee565b620008ed674a1ff3c50923213e60c01b6200072d60201b60201c565b5b6200090a673c4b0e4ae43fcf6c60c01b6200072d60201b60201c565b62000926672a00a9920a47076a60c01b6200072d60201b60201c565b6000851480156200093a575060008860ff16115b15620009e9576200095c6719e4f52f8027939260c01b6200072d60201b60201c565b62000978677f8206a2f1e2e50a60c01b6200072d60201b60201c565b87600260000160006101000a81548160ff021916908360ff160217905550620009b267faf34fba89f731d860c01b6200072d60201b60201c565b6000600260030160006101000a81548160ff02191690836002811115620009de57620009dd6200138b565b5b021790555062000bfc565b62000a0567e2370b6ed311968a60c01b6200072d60201b60201c565b62000a2167f9cfbcf47c24566660c01b6200072d60201b60201c565b6001850362000abe5762000a4667936ac0771ec70d7560c01b6200072d60201b60201c565b62000a62678f134f30bdfb3a5160c01b6200072d60201b60201c565b83600280018190555062000a8767225986c41821526460c01b6200072d60201b60201c565b6001600260030160006101000a81548160ff0219169083600281111562000ab35762000ab26200138b565b5b021790555062000bfb565b62000ada67c385ac3f7a6da3cb60c01b6200072d60201b60201c565b62000af6675fcf3523b8b6ceae60c01b6200072d60201b60201c565b600083111562000bdd5762000b1c674db4ca7f1ac4236460c01b6200072d60201b60201c565b62000b386765c800c3c300ef7060c01b6200072d60201b60201c565b62000b5467c3e9def9fe5182c960c01b6200072d60201b60201c565b62000b658362000ea560201b60201c565b62000b8167db324a2dee3585fa60c01b6200072d60201b60201c565b8260026001018190555062000ba767edc4255ccf1dd1db60c01b6200072d60201b60201c565b60028060030160006101000a81548160ff0219169083600281111562000bd25762000bd16200138b565b5b021790555062000bfa565b62000bf967be9a00d90198806460c01b6200072d60201b60201c565b5b5b5b62000c18675053ff483be1644d60c01b6200072d60201b60201c565b62000c346723fe860c4ff4ad6e60c01b6200072d60201b60201c565b8173ffffffffffffffffffffffffffffffffffffffff16600260030160019054906101000a900473ffffffffffffffffffffffffffffffffffffffff1673ffffffffffffffffffffffffffffffffffffffff161462000d0f5762000ca967089f308b50f1217560c01b6200072d60201b60201c565b62000cc5678e75d0ce8078018560c01b6200072d60201b60201c565b81600260030160016101000a81548173ffffffffffffffffffffffffffffffffffffffff021916908373ffffffffffffffffffffffffffffffffffffffff16021790555062000d2c565b62000d2b67200bf049ec3a336660c01b6200072d60201b60201c565b5b62000d48676c805fb24582d53060c01b6200072d60201b60201c565b62000d6467ae6640b4cb2c315660c01b6200072d60201b60201c565b8073ffffffffffffffffffffffffffffffffffffffff16600260040160009054906101000a900473ffffffffffffffffffffffffffffffffffffffff1673ffffffffffffffffffffffffffffffffffffffff161415801562000df35750600073ffffffffffffffffffffffffffffffffffffffff168173ffffffffffffffffffffffffffffffffffffffff1614155b1562000e7b5762000e15679f834e10961218cd60c01b6200072d60201b60201c565b62000e316778efb028819602dd60c01b6200072d60201b60201c565b80600260040160006101000a81548173ffffffffffffffffffffffffffffffffffffffff021916908373ffffffffffffffffffffffffffffffffffffffff16021790555062000e98565b62000e9767569e29691fc03c3b60c01b6200072d60201b60201c565b5b5050505050505050565b50565b62000ec167f28f16f9f764785d60c01b6200072d60201b60201c565b62000edd67801a8dbcb618eae060c01b6200072d60201b60201c565b62000ef967c1f4453dcf1c7f7f60c01b6200072d60201b60201c565b60805181111562000f6e5762000f2067abb8a729d509b2fb60c01b6200072d60201b60201c565b62000f3c6716777e7791441e3b60c01b6200072d60201b60201c565b6040517fdd27e1db00000000000000000000000000000000000000000000000000000000815260040160405180910390fd5b62000f8a67d93260f0ddb641e660c01b6200072d60201b60201c565b50565b600080fd5b600073ffffffffffffffffffffffffffffffffffffffff82169050919050565b600062000fbf8262000f92565b9050919050565b62000fd18162000fb2565b811462000fdd57600080fd5b50565b60008151905062000ff18162000fc6565b92915050565b60008115159050919050565b6200100e8162000ff7565b81146200101a57600080fd5b50565b6000815190506200102e8162001003565b92915050565b600060ff82169050919050565b6200104c8162001034565b81146200105857600080fd5b50565b6000815190506200106c8162001041565b92915050565b6000819050919050565b620010878162001072565b81146200109357600080fd5b50565b600081519050620010a7816200107c565b92915050565b6000620010ba8262000f92565b9050919050565b620010cc81620010ad565b8114620010d857600080fd5b50565b600081519050620010ec81620010c1565b92915050565b60008060008060008060008060008060006101608c8e0312156200111b576200111a62000f8d565b5b60006200112b8e828f0162000fe0565b9b505060206200113e8e828f016200101d565b9a50506040620011518e828f016200105b565b9950506060620011648e828f016200105b565b9850506080620011778e828f016200105b565b97505060a06200118a8e828f0162001096565b96505060c06200119d8e828f0162001096565b95505060e0620011b08e828f0162001096565b945050610100620011c48e828f0162001096565b935050610120620011d88e828f01620010db565b925050610140620011ec8e828f01620010db565b9150509295989b509295989b9093969950565b7f4e487b7100000000000000000000000000000000000000000000000000000000600052601160045260246000fd5b60006200123b8262001034565b9150620012488362001034565b9250828201905060ff811115620012645762001263620011ff565b5b92915050565b620012758162001034565b82525050565b60006040820190506200129260008301856200126a565b620012a160208301846200126a565b9392505050565b620012b38162000ff7565b82525050565b620012c48162001072565b82525050565b620012d581620010ad565b82525050565b600061014082019050620012f3600083018d620012a8565b62001302602083018c6200126a565b62001311604083018b6200126a565b62001320606083018a6200126a565b6200132f6080830189620012b9565b6200133e60a0830188620012b9565b6200134d60c0830187620012b9565b6200135c60e0830186620012ca565b6200136c610100830185620012ca565b6200137c610120830184620012b9565b9b9a5050505050505050505050565b7f4e487b7100000000000000000000000000000000000000000000000000000000600052602160045260246000fd5b60805160a051615b146200142d600039600081816111e7015281816117060152818161191b01528181611b1501528181611dbd01528181611fb90152818161285601528181612d8d01528181613ca301528181613ece015281816142bb01526144ef015260006147420152615b146000f3fe6080604052600436106100fe5760003560e01c80638da5cb5b11610095578063b26e099f11610064578063b26e099f146102cb578063c72304ac146102e2578063e0a665781461030d578063f2fde38b14610336578063feea15291461035f576100fe565b80638da5cb5b1461022f57806394aca02a1461025a5780639cb71686146102835780639f23c9e2146102af576100fe565b806358a93688116100d157806358a936881461019f5780636a02fcc4146101d3578063715018a6146101ef5780637c522d2814610206576100fe565b8063094c31591461010357806337c156261461012c578063529c0970146101435780635531e7741461016c575b600080fd5b34801561010f57600080fd5b5061012a60048036038101906101259190614c40565b61038c565b005b34801561013857600080fd5b50610141610728565b005b34801561014f57600080fd5b5061016a60048036038101906101659190614d0a565b610e61565b005b34801561017857600080fd5b50610181611015565b60405161019699989796959493929190614e10565b60405180910390f35b3480156101ab57600080fd5b506101b46110d2565b6040516101ca9a99989796959493929190614ebe565b60405180910390f35b6101ed60048036038101906101e89190614fbc565b611226565b005b3480156101fb57600080fd5b506102046121f9565b005b34801561021257600080fd5b5061022d60048036038101906102289190615049565b61220d565b005b34801561023b57600080fd5b5061024461241d565b6040516102519190615076565b60405180910390f35b34801561026657600080fd5b50610281600480360381019061027c9190615049565b612446565b005b34801561028f57600080fd5b50610298612656565b6040516102a6929190615091565b60405180910390f35b6102c960048036038101906102c491906150ba565b6126e9565b005b3480156102d757600080fd5b506102e0612fd9565b005b3480156102ee57600080fd5b506102f7613051565b6040516103049190615076565b60405180910390f35b34801561031957600080fd5b50610334600480360381019061032f9190615049565b6130b7565b005b34801561034257600080fd5b5061035d60048036038101906103589190615049565b61327c565b005b34801561036b57600080fd5b506103746132ff565b60405161038393929190615135565b60405180910390f35b6103a0672aa7262b05bbdb6360c01b613353565b6103a8613356565b6103bc673dfed242ca6579b360c01b613353565b6103d06784f35e033df120a660c01b613353565b856103e5671a52f4332212ebc860c01b613353565b6103f967c9ff50fbce78a1d660c01b613353565b61040d67f42c02838a2d110760c01b613353565b6103e88160ff1611156104745761042e6787ef6a37eca4b00160c01b613353565b61044267d47af1bc757df50360c01b613353565b6040517feaf5947400000000000000000000000000000000000000000000000000000000815260040160405180910390fd5b61048867e4a415a19974ccfd60c01b613353565b61049c67e6d1623ab081e58260c01b613353565b6104b067751a2285b9cd194360c01b613353565b6104c467fa38fb19b771fa0e60c01b613353565b88886104da676eb38efe8e13e84560c01b613353565b6104ee67c36a40953380310160c01b613353565b61050267ef284b8f51d91f5b60c01b613353565b606460ff168183610513919061519b565b60ff16146105825761052f676da70845dcf79db660c01b613353565b61054367b5a632c7474ef5c860c01b613353565b81816040517f8efe3fd50000000000000000000000000000000000000000000000000000000081526004016105799291906151d0565b60405180910390fd5b610596675aaec8a97298f6aa60c01b613353565b6105aa672ad26ac8c242bea560c01b613353565b6105be67ac0acb1b24877b3c60c01b613353565b6105d267bf0d77a33305324e60c01b613353565b6105e667803b4435ff10ff4460c01b613353565b6105fa670fd6633a4d7df2e260c01b613353565b600260000160039054906101000a900460ff1661065c5761062567ec3d522782e00dc760c01b613353565b6106396783e74eaf0d6399ec60c01b613353565b6001600260000160036101000a81548160ff021916908315150217905550610671565b61067067d883ebe0ef16095660c01b613353565b5b61068567a8b3dd6ac4f8c00560c01b613353565b61069967c2eda4bb3e17412160c01b613353565b6106a9898c8c8b8b8b8b8b6133d4565b6106bd674bd769b9b6f0ce8c60c01b613353565b6106d1670d32db4db4b601c860c01b613353565b7f2384cd55758cfea276bc7f0e2e210be39cc8067f80f2b475d52286fd65d36db08c8a8d8d8c8c8c8c8c426040516107129a999897969594939291906151f9565b60405180910390a1505050505050505050505050565b61073c67e55d727d44e706b960c01b613353565b6107446139ed565b6107586770b584d2b331c0b760c01b613353565b61076c6711cf9b2e346e936d60c01b613353565b610774613a3c565b61078867c54b76e6ff90e2fa60c01b613353565b61079c67441d0d12e2a9b40560c01b613353565b6107b0678d028ec006c65a5f60c01b613353565b600260030160019054906101000a900473ffffffffffffffffffffffffffffffffffffffff1673ffffffffffffffffffffffffffffffffffffffff166107f4613a3c565b73ffffffffffffffffffffffffffffffffffffffff16141580156108705750600260040160009054906101000a900473ffffffffffffffffffffffffffffffffffffffff1673ffffffffffffffffffffffffffffffffffffffff16610857613a3c565b73ffffffffffffffffffffffffffffffffffffffff1614155b156108e157610889675b2886a47038dda960c01b613353565b61089d67dac74ff36476c90060c01b613353565b6108a5613a3c565b6040517f0f287a3f0000000000000000000000000000000000000000000000000000000081526004016108d89190615076565b60405180910390fd5b6108f5676deeef46e6f5286d60c01b613353565b61090967571845e28134711460c01b613353565b61091d674b12bb6ef9587d1560c01b613353565b6109316757a583417d46df8960c01b613353565b6109456785b2d7430922323660c01b613353565b61095967edbb58b649b803e760c01b613353565b600047905061097267b0f77ff06c21439c60c01b613353565b610986673b6b2e3434b9ca2360c01b613353565b60008110156109e9576109a367c644275f00684f6760c01b613353565b6109b767d3a0fc2a5fce236d60c01b613353565b6040517fad3a8b9e00000000000000000000000000000000000000000000000000000000815260040160405180910390fd5b6109fd67585cfdc67f10b18d60c01b613353565b610a1167f3f37191353371bc60c01b613353565b610a25671cc273576fd639a660c01b613353565b600073ffffffffffffffffffffffffffffffffffffffff16600260030160019054906101000a900473ffffffffffffffffffffffffffffffffffffffff1673ffffffffffffffffffffffffffffffffffffffff1614158015610a9d57506000600260000160019054906101000a900460ff1660ff1614155b15610c6a57610ab6677ac7835871cc28f260c01b613353565b610aca671c6ac1f80639091360c01b613353565b610ade6735a13a91ecf078b360c01b613353565b60006064600260000160019054906101000a900460ff1660ff1683610b039190615295565b610b0d9190615306565b9050610b236735a60e7dbfad31ca60c01b613353565b610b3767df1ade2c2cd6a74e60c01b613353565b6000600260030160019054906101000a900473ffffffffffffffffffffffffffffffffffffffff1673ffffffffffffffffffffffffffffffffffffffff1682604051610b8290615368565b60006040518083038185875af1925050503d8060008114610bbf576040519150601f19603f3d011682016040523d82523d6000602084013e610bc4565b606091505b50509050610bdc6729e1863351d1556460c01b613353565b610bf06721e580a21c85ce3160c01b613353565b80610c4f57610c0967bc8838b7977470aa60c01b613353565b610c1d67a5be249d3c902a1b60c01b613353565b6040517f244ec49600000000000000000000000000000000000000000000000000000000815260040160405180910390fd5b610c6367ea6dca84ced2663060c01b613353565b5050610c7f565b610c7e6754f6ef294072901c60c01b613353565b5b610c93679d0a49f46aac101360c01b613353565b610ca767d8c3cdf0171f69fa60c01b613353565b6000600260040160009054906101000a900473ffffffffffffffffffffffffffffffffffffffff1673ffffffffffffffffffffffffffffffffffffffff166064600260000160029054906101000a900460ff1660ff1684610d089190615295565b610d129190615306565b604051610d1e90615368565b60006040518083038185875af1925050503d8060008114610d5b576040519150601f19603f3d011682016040523d82523d6000602084013e610d60565b606091505b50509050610d786754aad10986f89d4360c01b613353565b610d8c674c3d01bf10fa4fa260c01b613353565b80610deb57610da5678a160dfbcb6c7bdf60c01b613353565b610db967e6d3f12e44f4b3f960c01b613353565b6040517f244ec49600000000000000000000000000000000000000000000000000000000815260040160405180910390fd5b610dff6708cb931aaa95350f60c01b613353565b610e136708d823340698501060c01b613353565b610e2767c8a3ae097241a3bc60c01b613353565b427f5b64f7990ec4169ec43e750ea74cd6e76bbbd2a11d79841622bdda84ba9d561e60405160405180910390a2505050610e5f613a44565b565b610e756731500bc635c0c4ac60c01b613a4d565b610e7d613356565b610e91672675db8b565e8dbb60c01b613a4d565b610ea56784d9d0e2c5b90d3360c01b613a4d565b610eb96720ec7ff3bcfcbd9560c01b613a4d565b610ecd67aa63ef24aeb72bb460c01b613a4d565b600083108015610edd5750828211155b8015610ee95750600081105b15610f4857610f026784e85930cf56599c60c01b613a4d565b610f16676fc1070772669ce560c01b613a4d565b6040517f0eca686c00000000000000000000000000000000000000000000000000000000815260040160405180910390fd5b610f5c6781037b494624b82b60c01b613a4d565b610f7067d9eb2459002061aa60c01b613a4d565b82600981905550610f8b67aa20d4fac2b0eb6f60c01b613a4d565b81600a81905550610fa667c2795dc669cafba060c01b613a4d565b80600b81905550610fc16739630aa4e621883e60c01b613a4d565b610fd567ef32dfd4e4d1acbf60c01b613a4d565b7fb2efb0aa6e279553a1e5567ebb495d322192aa43c5fc3073cba4601d52009ab483838360405161100893929190615135565b60405180910390a1505050565b60028060000160009054906101000a900460ff16908060000160019054906101000a900460ff16908060000160029054906101000a900460ff16908060000160039054906101000a900460ff16908060010154908060020154908060030160009054906101000a900460ff16908060030160019054906101000a900473ffffffffffffffffffffffffffffffffffffffff16908060040160009054906101000a900473ffffffffffffffffffffffffffffffffffffffff16905089565b6000806000806000806000806000806110f567f9c5123e1f36ef9660c01b613353565b61110967397e657f09f6108460c01b613353565b61111d67fda264c639080af160c01b613353565b600260000160039054906101000a900460ff16600260000160019054906101000a900460ff16600260000160029054906101000a900460ff16600260000160009054906101000a900460ff16600260030160009054906101000a900460ff16600281111561118e5761118d614d8a565b5b6002800154600260010154600260030160019054906101000a900473ffffffffffffffffffffffffffffffffffffffff16600260040160009054906101000a900473ffffffffffffffffffffffffffffffffffffffff167f0000000000000000000000000000000000000000000000000000000000000000995099509950995099509950995099509950995090919293949596979899565b61123a67e4209d64c0ae853660c01b613a4d565b8461124f6742d3a98020cd001260c01b613a4d565b6112636722d91fa830d0d21460c01b613a4d565b61127767c94c4d066f4262af60c01b613a4d565b600954811080156112895750600a5481115b156112e8576112a267263f5367c8a52c5060c01b613a4d565b6112b667ba298288f5e31c1660c01b613a4d565b6040517f17dfb4ac00000000000000000000000000000000000000000000000000000000815260040160405180910390fd5b6112fc67e205e59a8e992fa360c01b613a4d565b61131067f32531761055309b60c01b613a4d565b61132467178ddacb15e1f2e960c01b613a4d565b611338677b5b9ddd5bbcb53e60c01b613a4d565b6113406139ed565b61135467c0aac264dc97487760c01b613a4d565b61136867dbe1d9b08cb6e81d60c01b613a4d565b61137c677feb1f26f7d0851460c01b613a4d565b6113906741869346e6e88e9260c01b613a4d565b6113a467891c7e90970b248c60c01b613a4d565b600073ffffffffffffffffffffffffffffffffffffffff168773ffffffffffffffffffffffffffffffffffffffff1603611413576040517f08c379a000000000000000000000000000000000000000000000000000000000815260040161140a906153da565b60405180910390fd5b61142767ab9b223083671b2f60c01b613a4d565b61143b67f3268be7b2dc49ad60c01b613a4d565b61144f674865bc099fb3e78660c01b613a4d565b600061148d8761145d613a3c565b88306040516020016114729493929190615542565b60405160208183030381529060405280519060200120613a50565b90506114a367b4d5b0ec8c7aa8a460c01b613a4d565b6114b767d0989e9d52076b8e60c01b613a4d565b600760009054906101000a900473ffffffffffffffffffffffffffffffffffffffff1673ffffffffffffffffffffffffffffffffffffffff166001828787876040516000815260200160405260405161151394939291906155aa565b6020604051602081039080840390855afa158015611535573d6000803e3d6000fd5b5050506020604051035173ffffffffffffffffffffffffffffffffffffffff16146115b45761156e672bcc35709e57682f60c01b613a4d565b61158267a4f50c5704b751a460c01b613a4d565b6040517fa7a059bc00000000000000000000000000000000000000000000000000000000815260040160405180910390fd5b6115c8671d062d6e28a43f3960c01b613a4d565b6115dc67e6c5663edc57b19960c01b613a4d565b6115f067071ad4e381cf148b60c01b613a4d565b6008600082815260200190815260200160002060009054906101000a900460ff16156116705761162a67bdfb4c9df573e77260c01b613a4d565b61163e67f3a5335658eca70560c01b613a4d565b6040517fcce9a82400000000000000000000000000000000000000000000000000000000815260040160405180910390fd5b611684677897230755f7aed160c01b613a4d565b6116986723861b689b7e360c60c01b613a4d565b60016008600083815260200190815260200160002060006101000a81548160ff0219169083151502179055506116d867e451e2a2c735916460c01b613a4d565b6116ec67ace3dc3d006ddd5960c01b613a4d565b61170067288f4e032da8498e60c01b613a4d565b600b54877f000000000000000000000000000000000000000000000000000000000000000073ffffffffffffffffffffffffffffffffffffffff166318160ddd6040518163ffffffff1660e01b8152600401602060405180830381865afa15801561176f573d6000803e3d6000fd5b505050506040513d601f19601f820116820180604052508101906117939190615604565b61179d9190615631565b11156117de576040517f08c379a00000000000000000000000000000000000000000000000000000000081526004016117d5906156b1565b60405180910390fd5b6117f267abdc00b985afb61160c01b613a4d565b611806679bd9104704ebf97e60c01b613a4d565b61181a674cc39c208c82a03c60c01b613a4d565b600260000160039054906101000a900460ff1615611f7957611846676af4aa1d6edcc64a60c01b613a4d565b61185a6749995dd1cfe696d260c01b613a4d565b61186e67b6b6dbba01050b7c60c01b613a4d565b60028081111561188157611880614d8a565b5b600260030160009054906101000a900460ff1660028111156118a6576118a5614d8a565b5b03611ad5576118bf67066818c7fed4821660c01b613a4d565b6118d3679826a1787699314e60c01b613a4d565b6118e7671f01704d3e1d66b960c01b613a4d565b6118ef613abc565b611903670c592e45a9bafa0660c01b613a4d565b61191767f9c9e34dbe3acf6360c01b613a4d565b60007f000000000000000000000000000000000000000000000000000000000000000073ffffffffffffffffffffffffffffffffffffffff167f40c10f19c047ae7dfa66d6312b683d2ea3dfbcb4159e96b967c5f4b0a86f28428a8a6040516024016119849291906156d1565b604051602081830303815290604052907bffffffffffffffffffffffffffffffffffffffffffffffffffffffff19166020820180517bffffffffffffffffffffffffffffffffffffffffffffffffffffffff83818316178352505050506040516119ee9190615760565b6000604051808303816000865af19150503d8060008114611a2b576040519150601f19603f3d011682016040523d82523d6000602084013e611a30565b606091505b50509050611a4867d5f23fb12538e31560c01b613a4d565b611a5c674692d7f9ae0d212660c01b613a4d565b80611abb57611a75672b0ec72a57d9337360c01b613a4d565b611a89676338f2fe67f156b060c01b613a4d565b6040517f384ec20400000000000000000000000000000000000000000000000000000000815260040160405180910390fd5b611acf67304bed77c8f8c02b60c01b613a4d565b50611f74565b611ae96773d2589a5eff40cd60c01b613a4d565b611afd678e645dc5f9bc89b260c01b613a4d565b611b116762d66d2061c824c260c01b613a4d565b60007f000000000000000000000000000000000000000000000000000000000000000073ffffffffffffffffffffffffffffffffffffffff167f40c10f19c047ae7dfa66d6312b683d2ea3dfbcb4159e96b967c5f4b0a86f2842308a604051602401611b7e9291906156d1565b604051602081830303815290604052907bffffffffffffffffffffffffffffffffffffffffffffffffffffffff19166020820180517bffffffffffffffffffffffffffffffffffffffffffffffffffffffff8381831617835250505050604051611be89190615760565b6000604051808303816000865af19150503d8060008114611c25576040519150601f19603f3d011682016040523d82523d6000602084013e611c2a565b606091505b50509050611c42679a971b18d710bbd960c01b613a4d565b611c566768a29dbbd3357c2e60c01b613a4d565b80611cb557611c6f67a06564f3a85130de60c01b613a4d565b611c83673e67345452e267f060c01b613a4d565b6040517fcb57cf5500000000000000000000000000000000000000000000000000000000815260040160405180910390fd5b611cc967138bec350a5901fb60c01b613a4d565b611cdd678e22ccba730df11c60c01b613a4d565b611ce688613b86565b88611cf19190615777565b9750611d076748bf84721df499a460c01b613a4d565b611d1b6729a1ff865069bc2860c01b613a4d565b60008803611d7d57611d37670e12fd160c9b363e60c01b613a4d565b611d4b677c444a7d837b92ad60c01b613a4d565b6040517f9b22d25400000000000000000000000000000000000000000000000000000000815260040160405180910390fd5b611d91678c11966b6ba4befa60c01b613a4d565b611da5673fc638ddffe682ad60c01b613a4d565b611db9673ae41e0b34ac0cc860c01b613a4d565b60007f000000000000000000000000000000000000000000000000000000000000000073ffffffffffffffffffffffffffffffffffffffff167fa9059cbb2ab09eb219583f4a59a5d0623ade346d962bcd4e46b11da047c9049b8b8b604051602401611e269291906156d1565b604051602081830303815290604052907bffffffffffffffffffffffffffffffffffffffffffffffffffffffff19166020820180517bffffffffffffffffffffffffffffffffffffffffffffffffffffffff8381831617835250505050604051611e909190615760565b6000604051808303816000865af19150503d8060008114611ecd576040519150601f19603f3d011682016040523d82523d6000602084013e611ed2565b606091505b50509050611eea67df5f3819bfaae24360c01b613a4d565b611efe672dbc578c5ce4469460c01b613a4d565b80611f5d57611f17672c84a425431792c860c01b613a4d565b611f2b67c3db76a028ebf4b760c01b613a4d565b6040517f53e7413800000000000000000000000000000000000000000000000000000000815260040160405180910390fd5b611f7167edff69827cb9fe6560c01b613a4d565b50505b61216f565b611f8d6726d9c41394844a9460c01b613a4d565b611fa16702b171b84c3423f560c01b613a4d565b611fb56771b2f0c989c434fd60c01b613a4d565b60007f000000000000000000000000000000000000000000000000000000000000000073ffffffffffffffffffffffffffffffffffffffff167f40c10f19c047ae7dfa66d6312b683d2ea3dfbcb4159e96b967c5f4b0a86f28428a8a6040516024016120229291906156d1565b604051602081830303815290604052907bffffffffffffffffffffffffffffffffffffffffffffffffffffffff19166020820180517bffffffffffffffffffffffffffffffffffffffffffffffffffffffff838183161783525050505060405161208c9190615760565b6000604051808303816000865af19150503d80600081146120c9576040519150601f19603f3d011682016040523d82523d6000602084013e6120ce565b606091505b505090506120e66766195d61d1c7c83e60c01b613a4d565b6120fa6773204a79e75c633c60c01b613a4d565b806121595761211367364eaba19d8e50c760c01b613a4d565b61212767a2d20aed8136077a60c01b613a4d565b6040517f384ec20400000000000000000000000000000000000000000000000000000000815260040160405180910390fd5b61216d67c18559c7c55ff28460c01b613a4d565b505b61218367fa22e53ac7d77f2f60c01b613a4d565b61219767f147351ae7bc18e360c01b613a4d565b8773ffffffffffffffffffffffffffffffffffffffff167f62a9b3e6446ab559d6b82c4f02cc923cd3b4e47444ef86446dab81a4d781c5af87896040516121df9291906157ab565b60405180910390a2506121f0613a44565b50505050505050565b612201613356565b61220b60006140da565b565b61222167241d4270b536d25c60c01b613353565b612229613356565b61223d67445473c20907feb160c01b613353565b61225167864d040e2adfec2760c01b613353565b612265677b9d90b8a133b49460c01b613353565b61227967de8fa192a20b704260c01b613353565b600073ffffffffffffffffffffffffffffffffffffffff168173ffffffffffffffffffffffffffffffffffffffff1603612307576122c16798025beb5cfa7b1e60c01b613353565b6122d567436d7d41475704db60c01b613353565b6040517fd92e233d00000000000000000000000000000000000000000000000000000000815260040160405180910390fd5b61231b67b3fd81c5b1f7dbeb60c01b613353565b61232f67d9fd2cf2aa42cbe760c01b613353565b612343671512905cdc9c28b860c01b613353565b8073ffffffffffffffffffffffffffffffffffffffff16600260040160009054906101000a900473ffffffffffffffffffffffffffffffffffffffff1673ffffffffffffffffffffffffffffffffffffffff167f62904549814f5511a5d36a62611a6e2fe1d2c29b6de74de25d95395e0a7d009b60405160405180910390a36123d667c3edfb502758d30960c01b613353565b80600260040160006101000a81548173ffffffffffffffffffffffffffffffffffffffff021916908373ffffffffffffffffffffffffffffffffffffffff16021790555050565b60008060009054906101000a900473ffffffffffffffffffffffffffffffffffffffff16905090565b61245a672dd9e39f1883129b60c01b613353565b612462613356565b612476672db48a915cf3cfed60c01b613353565b61248a67681d2e48273b5c5460c01b613353565b61249e677d1da2c11949325e60c01b613353565b6124b2675c7779a9b067cec860c01b613353565b600073ffffffffffffffffffffffffffffffffffffffff168173ffffffffffffffffffffffffffffffffffffffff1603612540576124fa67396830a43c5dc32b60c01b613353565b61250e67888da69b065dc7e860c01b613353565b6040517fd92e233d00000000000000000000000000000000000000000000000000000000815260040160405180910390fd5b612554677165a9ba7b5e1fff60c01b613353565b612568671cebc041d307c0b860c01b613353565b61257c67c9a172e8a720703460c01b613353565b8073ffffffffffffffffffffffffffffffffffffffff16600260030160019054906101000a900473ffffffffffffffffffffffffffffffffffffffff1673ffffffffffffffffffffffffffffffffffffffff167f62904549814f5511a5d36a62611a6e2fe1d2c29b6de74de25d95395e0a7d009b60405160405180910390a361260f67b6004c2d1f867a2460c01b613353565b80600260030160016101000a81548173ffffffffffffffffffffffffffffffffffffffff021916908373ffffffffffffffffffffffffffffffffffffffff16021790555050565b60008061266d679c8c010dcba9aa6160c01b613353565b61268167e5cbc71a3d6454a160c01b613353565b612695677bcb707bb46d858060c01b613353565b600260030160019054906101000a900473ffffffffffffffffffffffffffffffffffffffff16600260040160009054906101000a900473ffffffffffffffffffffffffffffffffffffffff16915091509091565b6126fd674f90af087673ce6f60c01b613a4d565b846127126742d3a98020cd001260c01b613a4d565b6127266722d91fa830d0d21460c01b613a4d565b61273a67c94c4d066f4262af60c01b613a4d565b6009548110801561274c5750600a5481115b156127ab5761276567263f5367c8a52c5060c01b613a4d565b61277967ba298288f5e31c1660c01b613a4d565b6040517f17dfb4ac00000000000000000000000000000000000000000000000000000000815260040160405180910390fd5b6127bf67e205e59a8e992fa360c01b613a4d565b6127d367f32531761055309b60c01b613a4d565b6127e767ba28a05d124b6ac560c01b613a4d565b6127fb67f7fb4a7092cd39f760c01b613a4d565b6128036139ed565b61281767abf3118c351e227260c01b613a4d565b61282b671d815df43353841560c01b613a4d565b61283f671d10d19c972dc3dd60c01b613a4d565b61285367e361f2c3a42f94d260c01b613a4d565b857f000000000000000000000000000000000000000000000000000000000000000073ffffffffffffffffffffffffffffffffffffffff166370a08231612898613a3c565b6040518263ffffffff1660e01b81526004016128b49190615076565b602060405180830381865afa1580156128d1573d6000803e3d6000fd5b505050506040513d601f19601f820116820180604052508101906128f59190615604565b10156129555761290f67fb33c32ceee3462560c01b613a4d565b61292367a5c3172fe6286f0660c01b613a4d565b6040517fad3a8b9e00000000000000000000000000000000000000000000000000000000815260040160405180910390fd5b61296967b5795ac9a3d8c77960c01b613a4d565b61297d67f076d933c2606f7360c01b613a4d565b612991673acc5a4cdb7f670660c01b613a4d565b60006129cf8761299f613a3c565b88306040516020016129b49493929190615820565b60405160208183030381529060405280519060200120613a50565b90506129e567243491da15fd75cb60c01b613a4d565b6129f9670758a7581365bdc560c01b613a4d565b600760009054906101000a900473ffffffffffffffffffffffffffffffffffffffff1673ffffffffffffffffffffffffffffffffffffffff1660018287878760405160008152602001604052604051612a5594939291906155aa565b6020604051602081039080840390855afa158015612a77573d6000803e3d6000fd5b5050506020604051035173ffffffffffffffffffffffffffffffffffffffff1614612af657612ab067d7e3363a5d447edc60c01b613a4d565b612ac4678831fb8b3f65e25e60c01b613a4d565b6040517fa7a059bc00000000000000000000000000000000000000000000000000000000815260040160405180910390fd5b612b0a67610bfb318cd615f160c01b613a4d565b612b1e67ba747ae33c57ee4460c01b613a4d565b612b326717d4ba1514b9649660c01b613a4d565b6008600082815260200190815260200160002060009054906101000a900460ff1615612bb257612b6c67bb5959125c97509e60c01b613a4d565b612b80672c2c80e70581032260c01b613a4d565b6040517fcce9a82400000000000000000000000000000000000000000000000000000000815260040160405180910390fd5b612bc667289c9d197ff5131060c01b613a4d565b612bda673c66033ad276e8ec60c01b613a4d565b60016008600083815260200190815260200160002060006101000a81548160ff021916908315150217905550612c1a67ab39b73fa0ec25cd60c01b613a4d565b612c2e67cab5e7b74ee6508760c01b613a4d565b600260000160039054906101000a900460ff1615612d4c57612c5a67dd334d415000c07560c01b613a4d565b612c6e67a03968f910058f1260c01b613a4d565b612c826774cf7482a6769ea060c01b613a4d565b600280811115612c9557612c94614d8a565b5b600260030160009054906101000a900460ff166002811115612cba57612cb9614d8a565b5b03612d0857612cd36741123a23c250f2a160c01b613a4d565b612ce767a0e2b1edfe88287260c01b613a4d565b612cfb671bd6428358ff713c60c01b613a4d565b612d03613abc565b612d47565b612d1c673db5830d6f2f341f60c01b613a4d565b612d306727569ce2a9e2cb0b60c01b613a4d565b612d398761419e565b87612d449190615777565b96505b612d61565b612d6067c1f912402bd8e1be60c01b613a4d565b5b612d7567a5c0535ca8e2012a60c01b613a4d565b612d89674ac19bcdbef01ad260c01b613a4d565b60007f000000000000000000000000000000000000000000000000000000000000000073ffffffffffffffffffffffffffffffffffffffff167f79cc679044ee9a2021f0a26c0fdec02ac39179cd005bb971a471b7f9f17c576c612deb613a3c565b8a604051602401612dfd9291906156d1565b604051602081830303815290604052907bffffffffffffffffffffffffffffffffffffffffffffffffffffffff19166020820180517bffffffffffffffffffffffffffffffffffffffffffffffffffffffff8381831617835250505050604051612e679190615760565b6000604051808303816000865af19150503d8060008114612ea4576040519150601f19603f3d011682016040523d82523d6000602084013e612ea9565b606091505b50509050612ec1673292773f30a0bed560c01b613a4d565b612ed567b22107ff4d76d04b60c01b613a4d565b80612f3457612eee67ecf460e11372525260c01b613a4d565b612f02673cfacc604411949c60c01b613a4d565b6040517f384ec20400000000000000000000000000000000000000000000000000000000815260040160405180910390fd5b612f4867075498aff69d137860c01b613a4d565b612f5c67dc0518cf88e8c05660c01b613a4d565b612f706719dd3c84cabb22f260c01b613a4d565b612f78613a3c565b73ffffffffffffffffffffffffffffffffffffffff167fb999b06746a947f1958636b9b9377ae814fe578413dfffd4d3a7a96196fe02fc888a604051612fbf9291906157ab565b60405180910390a25050612fd1613a44565b505050505050565b612fed67859e6aa46dda37d260c01b613353565b612ff5613356565b6130096711c726ce6adffd9760c01b613353565b61301d6791231038fa86a5af60c01b613353565b61303167798d04c4b635e93660c01b613353565b6000600260000160036101000a81548160ff021916908315150217905550565b600061306767385028caa205407d60c01b613a4d565b61307b67726800dd4089b6d260c01b613a4d565b61308f676218c7d8ca2e5c0a60c01b613a4d565b600760009054906101000a900473ffffffffffffffffffffffffffffffffffffffff16905090565b6130cb67be58f04f4f5972c860c01b613a4d565b6130d3613356565b6130e7676e90ab2ddc2ac49d60c01b613a4d565b6130fb6762af12e7b78f653660c01b613a4d565b61310f672470e39a8e59282960c01b613a4d565b61312367fa7065c80ebb666660c01b613a4d565b600073ffffffffffffffffffffffffffffffffffffffff168173ffffffffffffffffffffffffffffffffffffffff16036131b15761316b67469491e0f72dd17560c01b613a4d565b61317f679439da0b50684d5b60c01b613a4d565b6040517fd92e233d00000000000000000000000000000000000000000000000000000000815260040160405180910390fd5b6131c5672469f2a7adf5f35260c01b613a4d565b6131d96709c06c5ea4014c7260c01b613a4d565b80600760006101000a81548173ffffffffffffffffffffffffffffffffffffffff021916908373ffffffffffffffffffffffffffffffffffffffff16021790555061322e6743059b9da0b0b0f960c01b613a4d565b613242678f406752c2c329fc60c01b613a4d565b7f08f53e6a9fbc3949bc0b9266bbe1927f0b282a34d92876ccbe188c24d17c6cbb816040516132719190615076565b60405180910390a150565b613284613356565b600073ffffffffffffffffffffffffffffffffffffffff168173ffffffffffffffffffffffffffffffffffffffff16036132f3576040517f08c379a00000000000000000000000000000000000000000000000000000000081526004016132ea906158eb565b60405180910390fd5b6132fc816140da565b50565b60008060006133186737269fe63243be7860c01b613a4d565b61332b6615efc018effdc060c01b613a4d565b61333f677a75515e9dcc619160c01b613a4d565b600954600a54600b54925092509250909192565b50565b61335e613a3c565b73ffffffffffffffffffffffffffffffffffffffff1661337c61241d565b73ffffffffffffffffffffffffffffffffffffffff16146133d2576040517f08c379a00000000000000000000000000000000000000000000000000000000081526004016133c990615957565b60405180910390fd5b565b6133e8677aee11247d61fdf560c01b613353565b6133fc67b55e8db1a985dea360c01b613353565b61341067d9812de961715a0a60c01b613353565b8660ff16600260000160019054906101000a900460ff1660ff161461347a576134436747cd2d0e89c561ac60c01b613353565b61345767c2ee2098c76b8bc960c01b613353565b86600260000160016101000a81548160ff021916908360ff16021790555061348f565b61348e67a1c1a9373520fc2460c01b613353565b5b6134a3671503bd0e83ea35f260c01b613353565b6134b7676f99511bab31c6fe60c01b613353565b8560ff16600260000160029054906101000a900460ff1660ff1614613521576134ea67db137fae7693cf9560c01b613353565b6134fe676459650ecbf074ce60c01b613353565b85600260000160026101000a81548160ff021916908360ff160217905550613536565b613535674a1ff3c50923213e60c01b613353565b5b61354a673c4b0e4ae43fcf6c60c01b613353565b61355e672a00a9920a47076a60c01b613353565b600085148015613571575060008860ff16115b156136035761358a6719e4f52f8027939260c01b613353565b61359e677f8206a2f1e2e50a60c01b613353565b87600260000160006101000a81548160ff021916908360ff1602179055506135d067faf34fba89f731d860c01b613353565b6000600260030160006101000a81548160ff021916908360028111156135f9576135f8614d8a565b5b021790555061379c565b61361767e2370b6ed311968a60c01b613353565b61362b67f9cfbcf47c24566660c01b613353565b600185036136ab5761364767936ac0771ec70d7560c01b613353565b61365b678f134f30bdfb3a5160c01b613353565b83600280018190555061367867225986c41821526460c01b613353565b6001600260030160006101000a81548160ff021916908360028111156136a1576136a0614d8a565b5b021790555061379b565b6136bf67c385ac3f7a6da3cb60c01b613353565b6136d3675fcf3523b8b6ceae60c01b613353565b6000831115613785576136f0674db4ca7f1ac4236460c01b613353565b6137046765c800c3c300ef7060c01b613353565b61371867c3e9def9fe5182c960c01b613353565b61372183614704565b61373567db324a2dee3585fa60c01b613353565b8260026001018190555061375367edc4255ccf1dd1db60c01b613353565b60028060030160006101000a81548160ff0219169083600281111561377b5761377a614d8a565b5b021790555061379a565b61379967be9a00d90198806460c01b613353565b5b5b5b6137b0675053ff483be1644d60c01b613353565b6137c46723fe860c4ff4ad6e60c01b613353565b8173ffffffffffffffffffffffffffffffffffffffff16600260030160019054906101000a900473ffffffffffffffffffffffffffffffffffffffff1673ffffffffffffffffffffffffffffffffffffffff161461388d5761383067089f308b50f1217560c01b613353565b613844678e75d0ce8078018560c01b613353565b81600260030160016101000a81548173ffffffffffffffffffffffffffffffffffffffff021916908373ffffffffffffffffffffffffffffffffffffffff1602179055506138a2565b6138a167200bf049ec3a336660c01b613353565b5b6138b6676c805fb24582d53060c01b613353565b6138ca67ae6640b4cb2c315660c01b613353565b8073ffffffffffffffffffffffffffffffffffffffff16600260040160009054906101000a900473ffffffffffffffffffffffffffffffffffffffff1673ffffffffffffffffffffffffffffffffffffffff16141580156139585750600073ffffffffffffffffffffffffffffffffffffffff168173ffffffffffffffffffffffffffffffffffffffff1614155b156139ce57613971679f834e10961218cd60c01b613353565b6139856778efb028819602dd60c01b613353565b80600260040160006101000a81548173ffffffffffffffffffffffffffffffffffffffff021916908373ffffffffffffffffffffffffffffffffffffffff1602179055506139e3565b6139e267569e29691fc03c3b60c01b613353565b5b5050505050505050565b600260015403613a32576040517f08c379a0000000000000000000000000000000000000000000000000000000008152600401613a29906159c3565b60405180910390fd5b6002600181905550565b600033905090565b60018081905550565b50565b6000613a6667ba47d48cfade451160c01b613a4d565b613a7a675da7c96e8b6b26bf60c01b613a4d565b613a8e67a9e64363f2ed1d2860c01b613a4d565b81604051602001613a9f9190615a2f565b604051602081830303815290604052805190602001209050919050565b613ad067b42e53ce8397893260c01b613353565b613ae467a235212db428f04360c01b613353565b613af86732edd5f69560cc4f60c01b613353565b6002600101543414613b7057613b18676138accbeb13878560c01b613353565b613b2c677656eff20643ac9160c01b613353565b346002600101546040517ff7442319000000000000000000000000000000000000000000000000000000008152600401613b67929190615a55565b60405180910390fd5b613b84674f22d9df5a4c33e260c01b613353565b565b6000613b9c67b6da6d3f8c25e0c060c01b613353565b613bb0676ac26eddff56504460c01b613353565b613bc467ac50ee87a8a9b6c060c01b613353565b600080613bd0846147d9565b91509150613be867b820c1ef2fc62d3b60c01b613353565b613bfc6752be21a270d3ad3460c01b613353565b600073ffffffffffffffffffffffffffffffffffffffff16600260030160019054906101000a900473ffffffffffffffffffffffffffffffffffffffff1673ffffffffffffffffffffffffffffffffffffffff1614158015613c5e5750818114155b15613e8d57613c7767c2c3662d1fe12d4a60c01b613353565b613c8b67215d1fef5da6cb3c60c01b613353565b613c9f678a70a9912d70bcd660c01b613353565b60007f000000000000000000000000000000000000000000000000000000000000000073ffffffffffffffffffffffffffffffffffffffff167fa9059cbb2ab09eb219583f4a59a5d0623ade346d962bcd4e46b11da047c9049b600260030160019054906101000a900473ffffffffffffffffffffffffffffffffffffffff168585613d2b9190615777565b604051602401613d3c929190615a7e565b604051602081830303815290604052907bffffffffffffffffffffffffffffffffffffffffffffffffffffffff19166020820180517bffffffffffffffffffffffffffffffffffffffffffffffffffffffff8381831617835250505050604051613da69190615760565b6000604051808303816000865af19150503d8060008114613de3576040519150601f19603f3d011682016040523d82523d6000602084013e613de8565b606091505b50509050613e0067b9637583e4fd3fa360c01b613353565b613e1467fe253824d247bc8760c01b613353565b80613e7357613e2d67dd8a5596f3e9dbaf60c01b613353565b613e4167e7745e4a7444581160c01b613353565b6040517fd291274f00000000000000000000000000000000000000000000000000000000815260040160405180910390fd5b613e8767dfb7d86d97227b2e60c01b613353565b50613ea2565b613ea1675a8afc59b2ecc19d60c01b613353565b5b613eb667b35f99ca4d9b794760c01b613353565b613eca67b4bc53de7a66bc2360c01b613353565b60007f000000000000000000000000000000000000000000000000000000000000000073ffffffffffffffffffffffffffffffffffffffff167fa9059cbb2ab09eb219583f4a59a5d0623ade346d962bcd4e46b11da047c9049b600260040160009054906101000a900473ffffffffffffffffffffffffffffffffffffffff1685604051602401613f5c929190615a7e565b604051602081830303815290604052907bffffffffffffffffffffffffffffffffffffffffffffffffffffffff19166020820180517bffffffffffffffffffffffffffffffffffffffffffffffffffffffff8381831617835250505050604051613fc69190615760565b6000604051808303816000865af19150503d8060008114614003576040519150601f19603f3d011682016040523d82523d6000602084013e614008565b606091505b505090506140206797960940cce1284260c01b613353565b614034678d04bd95f8f1aa2d60c01b613353565b806140935761404d67ba77d1294207e9f560c01b613353565b61406167b145ad458b0bcf2a60c01b613353565b6040517fd291274f00000000000000000000000000000000000000000000000000000000815260040160405180910390fd5b6140a767f014013be4ea5c3860c01b613353565b6140bb675ebd9759efc9fc2b60c01b613353565b6140cf675f26645bf54a813960c01b613353565b819350505050919050565b60008060009054906101000a900473ffffffffffffffffffffffffffffffffffffffff169050816000806101000a81548173ffffffffffffffffffffffffffffffffffffffff021916908373ffffffffffffffffffffffffffffffffffffffff1602179055508173ffffffffffffffffffffffffffffffffffffffff168173ffffffffffffffffffffffffffffffffffffffff167f8be0079c531659141344cd1fd0a4f28419497f9722a3daafe3b4186f6b6457e060405160405180910390a35050565b60006141b4679ab3376d9bfbfb0460c01b613353565b6141c867e453830a2681987f60c01b613353565b6141dc67018de0f01c63754860c01b613353565b6000806141e8846147d9565b91509150614200679c15be51b639e65d60c01b613353565b6142146742195962980776a560c01b613353565b600073ffffffffffffffffffffffffffffffffffffffff16600260030160019054906101000a900473ffffffffffffffffffffffffffffffffffffffff1673ffffffffffffffffffffffffffffffffffffffff16141580156142765750818114155b156144ae5761428f679bdd02f18e77877c60c01b613353565b6142a367ecdb126ad7c5dd2260c01b613353565b6142b76783797a3351b6c6f860c01b613353565b60007f000000000000000000000000000000000000000000000000000000000000000073ffffffffffffffffffffffffffffffffffffffff167f23b872dd7302113369cda2901243429419bec145408fa8b352b3dd92b66c680b614319613a3c565b600260030160019054906101000a900473ffffffffffffffffffffffffffffffffffffffff16868661434b9190615777565b60405160240161435d93929190615aa7565b604051602081830303815290604052907bffffffffffffffffffffffffffffffffffffffffffffffffffffffff19166020820180517bffffffffffffffffffffffffffffffffffffffffffffffffffffffff83818316178352505050506040516143c79190615760565b6000604051808303816000865af19150503d8060008114614404576040519150601f19603f3d011682016040523d82523d6000602084013e614409565b606091505b5050905061442167fcdfdc91fd173d4960c01b613353565b61443567590f7de7b06f642d60c01b613353565b806144945761444e6751a83c39cc9e57cf60c01b613353565b61446267e3682d672a48a4a460c01b613353565b6040517fd291274f00000000000000000000000000000000000000000000000000000000815260040160405180910390fd5b6144a867bc74bbc128d5efb460c01b613353565b506144c3565b6144c2672c3eeffb14279c0160c01b613353565b5b6144d76767caae9bee7ba57260c01b613353565b6144eb678cb20b1e2a9ddf1360c01b613353565b60007f000000000000000000000000000000000000000000000000000000000000000073ffffffffffffffffffffffffffffffffffffffff167f23b872dd7302113369cda2901243429419bec145408fa8b352b3dd92b66c680b61454d613a3c565b600260040160009054906101000a900473ffffffffffffffffffffffffffffffffffffffff168660405160240161458693929190615aa7565b604051602081830303815290604052907bffffffffffffffffffffffffffffffffffffffffffffffffffffffff19166020820180517bffffffffffffffffffffffffffffffffffffffffffffffffffffffff83818316178352505050506040516145f09190615760565b6000604051808303816000865af19150503d806000811461462d576040519150601f19603f3d011682016040523d82523d6000602084013e614632565b606091505b5050905061464a672ee685ea26f7dc9360c01b613353565b61465e67bdee69e59725ef1460c01b613353565b806146bd57614677677a597b39ca6d723e60c01b613353565b61468b67838b2072db51685160c01b613353565b6040517fd291274f00000000000000000000000000000000000000000000000000000000815260040160405180910390fd5b6146d16720166837115db0a960c01b613353565b6146e56737769c3b02a9320160c01b613353565b6146f9672bb58669213e556860c01b613353565b819350505050919050565b61471867f28f16f9f764785d60c01b613353565b61472c67801a8dbcb618eae060c01b613353565b61474067c1f4453dcf1c7f7f60c01b613353565b7f00000000000000000000000000000000000000000000000000000000000000008111156147c25761477c67abb8a729d509b2fb60c01b613353565b6147906716777e7791441e3b60c01b613353565b6040517fdd27e1db00000000000000000000000000000000000000000000000000000000815260040160405180910390fd5b6147d667d93260f0ddb641e660c01b613353565b50565b6000806147f067e8708527c0c7f09b60c01b613353565b6148046795176aea96e8662760c01b613353565b61481867ef07b26f9005889660c01b613353565b6000600281111561482c5761482b614d8a565b5b600260030160009054906101000a900460ff16600281111561485157614850614d8a565b5b036149005761486a6717f7ff8ee0ecaac860c01b613353565b61487e673eb340753f3073b260c01b613353565b614892675be638e123e7dce360c01b613353565b60006103e8600260000160009054906101000a900460ff1660ff16856148b89190615295565b6148c29190615306565b90506148d86786e955ff9135e9ce60c01b613353565b6148ec672a0dc3ae5e13ed0e60c01b613353565b6148f581614ac4565b819250925050614abf565b61491467fc0b89f62250ac7360c01b613353565b614928673fc2ebf7c37ef8a360c01b613353565b6001600281111561493c5761493b614d8a565b5b600260030160009054906101000a900460ff16600281111561496157614960614d8a565b5b036149bd5761497a67b8e5dbe2cdbf65f860c01b613353565b61498e67c46ae4886cd2110a60c01b613353565b6149a26706a560a7d49c6b2160c01b613353565b6149af6002800154614ac4565b600280015491509150614abf565b6149d167d0a54ace01fdd6b060c01b613353565b6149e567535f8e2c38452cca60c01b613353565b6002808111156149f8576149f7614d8a565b5b600260030160009054906101000a900460ff166002811115614a1d57614a1c614d8a565b5b03614a7b57614a3667055a21313af1705b60c01b613353565b614a4a67915d3aad32f06d8860c01b613353565b614a5e671872b8a50af9339e60c01b613353565b614a6c600260010154614ac4565b60026001015491509150614abf565b614a8f679260d443fa2be2f560c01b613353565b614aa36704f295c1968191c960c01b613353565b614ab7673d9c89fda553563260c01b613353565b600080915091505b915091565b6000614ada67ce10ebf18bedb62760c01b613353565b614aee672288b71f3535a40d60c01b613353565b614b0267e2853c1e3684a45960c01b613353565b6064600260000160029054906101000a900460ff1660ff1683614b259190615295565b614b2f9190615306565b9050919050565b600080fd5b60008115159050919050565b614b5081614b3b565b8114614b5b57600080fd5b50565b600081359050614b6d81614b47565b92915050565b600060ff82169050919050565b614b8981614b73565b8114614b9457600080fd5b50565b600081359050614ba681614b80565b92915050565b6000819050919050565b614bbf81614bac565b8114614bca57600080fd5b50565b600081359050614bdc81614bb6565b92915050565b600073ffffffffffffffffffffffffffffffffffffffff82169050919050565b6000614c0d82614be2565b9050919050565b614c1d81614c02565b8114614c2857600080fd5b50565b600081359050614c3a81614c14565b92915050565b60008060008060008060008060006101208a8c031215614c6357614c62614b36565b5b6000614c718c828d01614b5e565b9950506020614c828c828d01614b97565b9850506040614c938c828d01614b97565b9750506060614ca48c828d01614b97565b9650506080614cb58c828d01614bcd565b95505060a0614cc68c828d01614bcd565b94505060c0614cd78c828d01614bcd565b93505060e0614ce88c828d01614c2b565b925050610100614cfa8c828d01614c2b565b9150509295985092959850929598565b600080600060608486031215614d2357614d22614b36565b5b6000614d3186828701614bcd565b9350506020614d4286828701614bcd565b9250506040614d5386828701614bcd565b9150509250925092565b614d6681614b73565b82525050565b614d7581614b3b565b82525050565b614d8481614bac565b82525050565b7f4e487b7100000000000000000000000000000000000000000000000000000000600052602160045260246000fd5b60038110614dca57614dc9614d8a565b5b50565b6000819050614ddb82614db9565b919050565b6000614deb82614dcd565b9050919050565b614dfb81614de0565b82525050565b614e0a81614c02565b82525050565b600061012082019050614e26600083018c614d5d565b614e33602083018b614d5d565b614e40604083018a614d5d565b614e4d6060830189614d6c565b614e5a6080830188614d7b565b614e6760a0830187614d7b565b614e7460c0830186614df2565b614e8160e0830185614e01565b614e8f610100830184614e01565b9a9950505050505050505050565b6000614ea882614be2565b9050919050565b614eb881614e9d565b82525050565b600061014082019050614ed4600083018d614d6c565b614ee1602083018c614d5d565b614eee604083018b614d5d565b614efb606083018a614d5d565b614f086080830189614d7b565b614f1560a0830188614d7b565b614f2260c0830187614d7b565b614f2f60e0830186614e01565b614f3d610100830185614e01565b614f4b610120830184614eaf565b9b9a5050505050505050505050565b614f6381614e9d565b8114614f6e57600080fd5b50565b600081359050614f8081614f5a565b92915050565b6000819050919050565b614f9981614f86565b8114614fa457600080fd5b50565b600081359050614fb681614f90565b92915050565b60008060008060008060c08789031215614fd957614fd8614b36565b5b6000614fe789828a01614f71565b9650506020614ff889828a01614bcd565b955050604061500989828a01614fa7565b945050606061501a89828a01614b97565b935050608061502b89828a01614fa7565b92505060a061503c89828a01614fa7565b9150509295509295509295565b60006020828403121561505f5761505e614b36565b5b600061506d84828501614f71565b91505092915050565b600060208201905061508b6000830184614eaf565b92915050565b60006040820190506150a66000830185614eaf565b6150b36020830184614eaf565b9392505050565b600080600080600060a086880312156150d6576150d5614b36565b5b60006150e488828901614bcd565b95505060206150f588828901614fa7565b945050604061510688828901614b97565b935050606061511788828901614fa7565b925050608061512888828901614fa7565b9150509295509295909350565b600060608201905061514a6000830186614d7b565b6151576020830185614d7b565b6151646040830184614d7b565b949350505050565b7f4e487b7100000000000000000000000000000000000000000000000000000000600052601160045260246000fd5b60006151a682614b73565b91506151b183614b73565b9250828201905060ff8111156151ca576151c961516c565b5b92915050565b60006040820190506151e56000830185614d5d565b6151f26020830184614d5d565b9392505050565b60006101408201905061520f600083018d614d6c565b61521c602083018c614d5d565b615229604083018b614d5d565b615236606083018a614d5d565b6152436080830189614d7b565b61525060a0830188614d7b565b61525d60c0830187614d7b565b61526a60e0830186614e01565b615278610100830185614e01565b615286610120830184614d7b565b9b9a5050505050505050505050565b60006152a082614bac565b91506152ab83614bac565b92508282026152b981614bac565b915082820484148315176152d0576152cf61516c565b5b5092915050565b7f4e487b7100000000000000000000000000000000000000000000000000000000600052601260045260246000fd5b600061531182614bac565b915061531c83614bac565b92508261532c5761532b6152d7565b5b828204905092915050565b600081905092915050565b50565b6000615352600083615337565b915061535d82615342565b600082019050919050565b600061537382615345565b9150819050919050565b600082825260208201905092915050565b7f496e76616c69642077616c6c6574000000000000000000000000000000000000600082015250565b60006153c4600e8361537d565b91506153cf8261538e565b602082019050919050565b600060208201905081810360008301526153f3816153b7565b9050919050565b600081905092915050565b7f5f5f636f6e76657273696f6e496e000000000000000000000000000000000000600082015250565b600061543b600e836153fa565b915061544682615405565b600e82019050919050565b6000819050919050565b61546c61546782614bac565b615451565b82525050565b60008160601b9050919050565b600061548a82615472565b9050919050565b600061549c8261547f565b9050919050565b6154b46154af82614e9d565b615491565b82525050565b6000819050919050565b6154d56154d082614f86565b6154ba565b82525050565b6000819050919050565b60006155006154fb6154f684614be2565b6154db565b614be2565b9050919050565b6000615512826154e5565b9050919050565b600061552482615507565b9050919050565b61553c61553782615519565b615491565b82525050565b600061554d8261542e565b9150615559828761545b565b60208201915061556982866154a3565b60148201915061557982856154c4565b602082019150615589828461552b565b60148201915081905095945050505050565b6155a481614f86565b82525050565b60006080820190506155bf600083018761559b565b6155cc6020830186614d5d565b6155d9604083018561559b565b6155e6606083018461559b565b95945050505050565b6000815190506155fe81614bb6565b92915050565b60006020828403121561561a57615619614b36565b5b6000615628848285016155ef565b91505092915050565b600061563c82614bac565b915061564783614bac565b925082820190508082111561565f5761565e61516c565b5b92915050565b7f496e76616c696420416d6f756e74000000000000000000000000000000000000600082015250565b600061569b600e8361537d565b91506156a682615665565b602082019050919050565b600060208201905081810360008301526156ca8161568e565b9050919050565b60006040820190506156e66000830185614eaf565b6156f36020830184614d7b565b9392505050565b600081519050919050565b60005b83811015615723578082015181840152602081019050615708565b60008484015250505050565b600061573a826156fa565b6157448185615337565b9350615754818560208601615705565b80840191505092915050565b600061576c828461572f565b915081905092915050565b600061578282614bac565b915061578d83614bac565b92508282039050818111156157a5576157a461516c565b5b92915050565b60006040820190506157c0600083018561559b565b6157cd6020830184614d7b565b9392505050565b7f5f5f636f6e76657273696f6e4f75740000000000000000000000000000000000600082015250565b600061580a600f836153fa565b9150615815826157d4565b600f82019050919050565b600061582b826157fd565b9150615837828761545b565b60208201915061584782866154a3565b60148201915061585782856154c4565b602082019150615867828461552b565b60148201915081905095945050505050565b7f4f776e61626c653a206e6577206f776e657220697320746865207a65726f206160008201527f6464726573730000000000000000000000000000000000000000000000000000602082015250565b60006158d560268361537d565b91506158e082615879565b604082019050919050565b60006020820190508181036000830152615904816158c8565b9050919050565b7f4f776e61626c653a2063616c6c6572206973206e6f7420746865206f776e6572600082015250565b600061594160208361537d565b915061594c8261590b565b602082019050919050565b6000602082019050818103600083015261597081615934565b9050919050565b7f5265656e7472616e637947756172643a207265656e7472616e742063616c6c00600082015250565b60006159ad601f8361537d565b91506159b882615977565b602082019050919050565b600060208201905081810360008301526159dc816159a0565b9050919050565b7f19457468657265756d205369676e6564204d6573736167653a0a333200000000600082015250565b6000615a19601c836153fa565b9150615a24826159e3565b601c82019050919050565b6000615a3a82615a0c565b9150615a4682846154c4565b60208201915081905092915050565b6000604082019050615a6a6000830185614d7b565b615a776020830184614d7b565b9392505050565b6000604082019050615a936000830185614e01565b615aa06020830184614d7b565b9392505050565b6000606082019050615abc6000830186614eaf565b615ac96020830185614e01565b615ad66040830184614d7b565b94935050505056fea2646970667358221220ee3361093d00d5f19b9ade44d5bd81e61ef4eb436c57ae4f563163b274c601c464736f6c63430008130033",
  "linkReferences": {},
  "deployedLinkReferences": {}
}